{
  "_format": "hh-sol-artifact-1",
  "contractName": "ProductsModule",
  "sourceName": "contracts/ProductsModule.sol",
  "abi": [
    {
      "inputs": [],
      "stateMutability": "nonpayable",
      "type": "constructor"
    },
    {
      "inputs": [],
      "name": "ActiveListing",
      "type": "error"
    },
    {
      "inputs": [],
      "name": "ExceedsMaxValue",
      "type": "error"
    },
    {
      "inputs": [],
      "name": "InexistentPool",
      "type": "error"
    },
    {
      "inputs": [],
      "name": "InexistentProduct",
      "type": "error"
    },
    {
      "inputs": [],
      "name": "Invalid",
      "type": "error"
    },
    {
      "inputs": [],
      "name": "InvalidCategory",
      "type": "error"
    },
    {
      "inputs": [],
      "name": "InvalidProductType",
      "type": "error"
    },
    {
      "inputs": [],
      "name": "NoDelegatecall",
      "type": "error"
    },
    {
      "inputs": [],
      "name": "NotAuthorized",
      "type": "error"
    },
    {
      "inputs": [],
      "name": "NotPurchased",
      "type": "error"
    },
    {
      "inputs": [],
      "name": "NotSuccessful",
      "type": "error"
    },
    {
      "inputs": [],
      "name": "StoreNotOpen",
      "type": "error"
    },
    {
      "inputs": [],
      "name": "TooSoon",
      "type": "error"
    },
    {
      "inputs": [],
      "name": "WrongCurrency",
      "type": "error"
    },
    {
      "anonymous": false,
      "inputs": [
        {
          "indexed": false,
          "internalType": "address",
          "name": "previousAdmin",
          "type": "address"
        },
        {
          "indexed": false,
          "internalType": "address",
          "name": "newAdmin",
          "type": "address"
        }
      ],
      "name": "AdminChanged",
      "type": "event"
    },
    {
      "anonymous": false,
      "inputs": [
        {
          "indexed": true,
          "internalType": "address",
          "name": "beacon",
          "type": "address"
        }
      ],
      "name": "BeaconUpgraded",
      "type": "event"
    },
    {
      "anonymous": false,
      "inputs": [
        {
          "indexed": false,
          "internalType": "uint256",
          "name": "categoryId",
          "type": "uint256"
        },
        {
          "indexed": false,
          "internalType": "uint16",
          "name": "parentCategoryId",
          "type": "uint16"
        },
        {
          "indexed": false,
          "internalType": "string",
          "name": "name",
          "type": "string"
        }
      ],
      "name": "CategorySet",
      "type": "event"
    },
    {
      "anonymous": false,
      "inputs": [
        {
          "indexed": true,
          "internalType": "uint256",
          "name": "slicerId",
          "type": "uint256"
        },
        {
          "indexed": true,
          "internalType": "address",
          "name": "contractAddress",
          "type": "address"
        },
        {
          "indexed": true,
          "internalType": "uint256",
          "name": "tokenId",
          "type": "uint256"
        },
        {
          "indexed": false,
          "internalType": "uint256",
          "name": "currentAmount",
          "type": "uint256"
        }
      ],
      "name": "ERC1155ListingChanged",
      "type": "event"
    },
    {
      "anonymous": false,
      "inputs": [
        {
          "indexed": true,
          "internalType": "uint256",
          "name": "slicerId",
          "type": "uint256"
        },
        {
          "indexed": true,
          "internalType": "address",
          "name": "contractAddress",
          "type": "address"
        },
        {
          "indexed": true,
          "internalType": "uint256",
          "name": "tokenId",
          "type": "uint256"
        },
        {
          "indexed": false,
          "internalType": "bool",
          "name": "isActive",
          "type": "bool"
        }
      ],
      "name": "ERC721ListingChanged",
      "type": "event"
    },
    {
      "anonymous": false,
      "inputs": [
        {
          "indexed": true,
          "internalType": "address",
          "name": "currency",
          "type": "address"
        },
        {
          "indexed": true,
          "internalType": "address",
          "name": "recipient",
          "type": "address"
        },
        {
          "indexed": true,
          "internalType": "uint256",
          "name": "amount",
          "type": "uint256"
        },
        {
          "indexed": false,
          "internalType": "string",
          "name": "description",
          "type": "string"
        }
      ],
      "name": "ExtraCostPaid",
      "type": "event"
    },
    {
      "anonymous": false,
      "inputs": [
        {
          "indexed": false,
          "internalType": "uint8",
          "name": "version",
          "type": "uint8"
        }
      ],
      "name": "Initialized",
      "type": "event"
    },
    {
      "anonymous": false,
      "inputs": [
        {
          "indexed": true,
          "internalType": "address",
          "name": "previousOwner",
          "type": "address"
        },
        {
          "indexed": true,
          "internalType": "address",
          "name": "newOwner",
          "type": "address"
        }
      ],
      "name": "OwnershipTransferred",
      "type": "event"
    },
    {
      "anonymous": false,
      "inputs": [
        {
          "indexed": false,
          "internalType": "address",
          "name": "account",
          "type": "address"
        }
      ],
      "name": "Paused",
      "type": "event"
    },
    {
      "anonymous": false,
      "inputs": [
        {
          "indexed": true,
          "internalType": "uint256",
          "name": "slicerId",
          "type": "uint256"
        },
        {
          "indexed": true,
          "internalType": "uint256",
          "name": "productId",
          "type": "uint256"
        },
        {
          "indexed": false,
          "internalType": "address",
          "name": "creator",
          "type": "address"
        },
        {
          "components": [
            {
              "components": [
                {
                  "internalType": "uint128",
                  "name": "subSlicerId",
                  "type": "uint128"
                },
                {
                  "internalType": "uint32",
                  "name": "subProductId",
                  "type": "uint32"
                }
              ],
              "internalType": "struct SubSlicerProduct[]",
              "name": "subSlicerProducts",
              "type": "tuple[]"
            },
            {
              "components": [
                {
                  "internalType": "uint248",
                  "name": "value",
                  "type": "uint248"
                },
                {
                  "internalType": "bool",
                  "name": "dynamicPricing",
                  "type": "bool"
                },
                {
                  "internalType": "address",
                  "name": "externalAddress",
                  "type": "address"
                },
                {
                  "internalType": "address",
                  "name": "currency",
                  "type": "address"
                }
              ],
              "internalType": "struct CurrencyPrice[]",
              "name": "currencyPrices",
              "type": "tuple[]"
            },
            {
              "internalType": "bytes",
              "name": "data",
              "type": "bytes"
            },
            {
              "internalType": "bytes",
              "name": "purchaseData",
              "type": "bytes"
            },
            {
              "internalType": "uint32",
              "name": "availableUnits",
              "type": "uint32"
            },
            {
              "internalType": "uint16",
              "name": "categoryId",
              "type": "uint16"
            },
            {
              "internalType": "uint16",
              "name": "productTypeId",
              "type": "uint16"
            },
            {
              "internalType": "uint8",
              "name": "maxUnitsPerBuyer",
              "type": "uint8"
            },
            {
              "internalType": "bool",
              "name": "isFree",
              "type": "bool"
            },
            {
              "internalType": "bool",
              "name": "isInfinite",
              "type": "bool"
            },
            {
              "internalType": "bool",
              "name": "isExternalCallPaymentRelative",
              "type": "bool"
            },
            {
              "internalType": "bool",
              "name": "isExternalCallPreferredToken",
              "type": "bool"
            },
            {
              "internalType": "uint256",
              "name": "referralFeeProduct",
              "type": "uint256"
            }
          ],
          "indexed": false,
          "internalType": "struct ProductParams",
          "name": "params",
          "type": "tuple"
        },
        {
          "components": [
            {
              "internalType": "bytes",
              "name": "data",
              "type": "bytes"
            },
            {
              "internalType": "uint256",
              "name": "value",
              "type": "uint256"
            },
            {
              "internalType": "address",
              "name": "externalAddress",
              "type": "address"
            },
            {
              "internalType": "bytes4",
              "name": "checkFunctionSignature",
              "type": "bytes4"
            },
            {
              "internalType": "bytes4",
              "name": "execFunctionSignature",
              "type": "bytes4"
            }
          ],
          "indexed": false,
          "internalType": "struct Function",
          "name": "externalCall",
          "type": "tuple"
        }
      ],
      "name": "ProductAdded",
      "type": "event"
    },
    {
      "anonymous": false,
      "inputs": [
        {
          "indexed": true,
          "internalType": "uint256",
          "name": "slicerId",
          "type": "uint256"
        },
        {
          "indexed": true,
          "internalType": "uint256",
          "name": "productId",
          "type": "uint256"
        },
        {
          "components": [
            {
              "internalType": "bytes",
              "name": "data",
              "type": "bytes"
            },
            {
              "internalType": "uint256",
              "name": "value",
              "type": "uint256"
            },
            {
              "internalType": "address",
              "name": "externalAddress",
              "type": "address"
            },
            {
              "internalType": "bytes4",
              "name": "checkFunctionSignature",
              "type": "bytes4"
            },
            {
              "internalType": "bytes4",
              "name": "execFunctionSignature",
              "type": "bytes4"
            }
          ],
          "indexed": false,
          "internalType": "struct Function",
          "name": "externalCall",
          "type": "tuple"
        }
      ],
      "name": "ProductExternalCallUpdated",
      "type": "event"
    },
    {
      "anonymous": false,
      "inputs": [
        {
          "components": [
            {
              "internalType": "uint256",
              "name": "slicerId",
              "type": "uint256"
            },
            {
              "internalType": "uint256",
              "name": "productId",
              "type": "uint256"
            },
            {
              "internalType": "uint8",
              "name": "newMaxUnits",
              "type": "uint8"
            },
            {
              "internalType": "bool",
              "name": "isFree",
              "type": "bool"
            },
            {
              "internalType": "bool",
              "name": "isInfinite",
              "type": "bool"
            },
            {
              "internalType": "uint32",
              "name": "newUnits",
              "type": "uint32"
            },
            {
              "internalType": "uint256",
              "name": "referralFeeProduct",
              "type": "uint256"
            },
            {
              "internalType": "uint256",
              "name": "categoryId",
              "type": "uint256"
            },
            {
              "internalType": "uint256",
              "name": "productTypeId",
              "type": "uint256"
            }
          ],
          "indexed": false,
          "internalType": "struct EditProductParams",
          "name": "params",
          "type": "tuple"
        },
        {
          "indexed": false,
          "internalType": "uint256",
          "name": "newUnits",
          "type": "uint256"
        },
        {
          "components": [
            {
              "internalType": "uint248",
              "name": "value",
              "type": "uint248"
            },
            {
              "internalType": "bool",
              "name": "dynamicPricing",
              "type": "bool"
            },
            {
              "internalType": "address",
              "name": "externalAddress",
              "type": "address"
            },
            {
              "internalType": "address",
              "name": "currency",
              "type": "address"
            }
          ],
          "indexed": false,
          "internalType": "struct CurrencyPrice[]",
          "name": "currencyPrices",
          "type": "tuple[]"
        }
      ],
      "name": "ProductInfoChanged",
      "type": "event"
    },
    {
      "anonymous": false,
      "inputs": [
        {
          "indexed": true,
          "internalType": "uint256",
          "name": "slicerId",
          "type": "uint256"
        },
        {
          "indexed": true,
          "internalType": "uint256",
          "name": "productId",
          "type": "uint256"
        },
        {
          "indexed": false,
          "internalType": "uint256",
          "name": "quantity",
          "type": "uint256"
        },
        {
          "indexed": true,
          "internalType": "address",
          "name": "buyer",
          "type": "address"
        },
        {
          "indexed": false,
          "internalType": "address",
          "name": "currency",
          "type": "address"
        },
        {
          "components": [
            {
              "internalType": "uint256",
              "name": "eth",
              "type": "uint256"
            },
            {
              "internalType": "uint256",
              "name": "currency",
              "type": "uint256"
            },
            {
              "internalType": "uint256",
              "name": "ethExternalCall",
              "type": "uint256"
            },
            {
              "internalType": "uint256",
              "name": "currencyExternalCall",
              "type": "uint256"
            }
          ],
          "indexed": false,
          "internalType": "struct Price",
          "name": "price",
          "type": "tuple"
        },
        {
          "indexed": false,
          "internalType": "address",
          "name": "referrer",
          "type": "address"
        },
        {
          "indexed": false,
          "internalType": "uint256",
          "name": "parentSlicerId",
          "type": "uint256"
        },
        {
          "indexed": false,
          "internalType": "uint256",
          "name": "parentProductId",
          "type": "uint256"
        }
      ],
      "name": "ProductPaid",
      "type": "event"
    },
    {
      "anonymous": false,
      "inputs": [
        {
          "indexed": true,
          "internalType": "uint256",
          "name": "slicerId",
          "type": "uint256"
        },
        {
          "indexed": true,
          "internalType": "uint256",
          "name": "productId",
          "type": "uint256"
        }
      ],
      "name": "ProductRemoved",
      "type": "event"
    },
    {
      "anonymous": false,
      "inputs": [
        {
          "indexed": false,
          "internalType": "uint256",
          "name": "slicerId",
          "type": "uint256"
        },
        {
          "indexed": false,
          "internalType": "uint256",
          "name": "productTypeId",
          "type": "uint256"
        },
        {
          "indexed": false,
          "internalType": "uint16",
          "name": "parentProductTypeId",
          "type": "uint16"
        },
        {
          "indexed": false,
          "internalType": "string",
          "name": "name",
          "type": "string"
        }
      ],
      "name": "ProductTypeSet",
      "type": "event"
    },
    {
      "anonymous": false,
      "inputs": [
        {
          "indexed": true,
          "internalType": "address",
          "name": "buyer",
          "type": "address"
        }
      ],
      "name": "PurchaseMade",
      "type": "event"
    },
    {
      "anonymous": false,
      "inputs": [
        {
          "indexed": true,
          "internalType": "uint256",
          "name": "slicerId",
          "type": "uint256"
        },
        {
          "indexed": false,
          "internalType": "uint256",
          "name": "ethToRelease",
          "type": "uint256"
        }
      ],
      "name": "ReleasedToSlicer",
      "type": "event"
    },
    {
      "anonymous": false,
      "inputs": [
        {
          "indexed": true,
          "internalType": "uint256",
          "name": "slicerId",
          "type": "uint256"
        },
        {
          "indexed": false,
          "internalType": "bool",
          "name": "isStoreClosed",
          "type": "bool"
        },
        {
          "indexed": false,
          "internalType": "uint256",
          "name": "referralFeeStore",
          "type": "uint256"
        }
      ],
      "name": "StoreConfigChanged",
      "type": "event"
    },
    {
      "anonymous": false,
      "inputs": [
        {
          "indexed": false,
          "internalType": "address",
          "name": "account",
          "type": "address"
        }
      ],
      "name": "Unpaused",
      "type": "event"
    },
    {
      "anonymous": false,
      "inputs": [
        {
          "indexed": true,
          "internalType": "address",
          "name": "implementation",
          "type": "address"
        }
      ],
      "name": "Upgraded",
      "type": "event"
    },
    {
      "inputs": [],
      "name": "MINT_PRODUCT_AMOUNT",
      "outputs": [
        {
          "internalType": "uint256",
          "name": "",
          "type": "uint256"
        }
      ],
      "stateMutability": "view",
      "type": "function"
    },
    {
      "inputs": [
        {
          "internalType": "uint256",
          "name": "categoryId",
          "type": "uint256"
        },
        {
          "internalType": "uint16",
          "name": "parentCategoryId",
          "type": "uint16"
        },
        {
          "internalType": "string",
          "name": "name",
          "type": "string"
        }
      ],
      "name": "_setCategory",
      "outputs": [],
      "stateMutability": "nonpayable",
      "type": "function"
    },
    {
      "inputs": [
        {
          "internalType": "uint256",
          "name": "slicerId",
          "type": "uint256"
        },
        {
          "internalType": "bool",
          "name": "isClosed",
          "type": "bool"
        },
        {
          "internalType": "uint256",
          "name": "referralFeeStore",
          "type": "uint256"
        }
      ],
      "name": "_setStoreConfig",
      "outputs": [],
      "stateMutability": "nonpayable",
      "type": "function"
    },
    {
      "inputs": [
        {
          "internalType": "uint256",
          "name": "slicerId",
          "type": "uint256"
        },
        {
          "components": [
            {
              "components": [
                {
                  "internalType": "uint128",
                  "name": "subSlicerId",
                  "type": "uint128"
                },
                {
                  "internalType": "uint32",
                  "name": "subProductId",
                  "type": "uint32"
                }
              ],
              "internalType": "struct SubSlicerProduct[]",
              "name": "subSlicerProducts",
              "type": "tuple[]"
            },
            {
              "components": [
                {
                  "internalType": "uint248",
                  "name": "value",
                  "type": "uint248"
                },
                {
                  "internalType": "bool",
                  "name": "dynamicPricing",
                  "type": "bool"
                },
                {
                  "internalType": "address",
                  "name": "externalAddress",
                  "type": "address"
                },
                {
                  "internalType": "address",
                  "name": "currency",
                  "type": "address"
                }
              ],
              "internalType": "struct CurrencyPrice[]",
              "name": "currencyPrices",
              "type": "tuple[]"
            },
            {
              "internalType": "bytes",
              "name": "data",
              "type": "bytes"
            },
            {
              "internalType": "bytes",
              "name": "purchaseData",
              "type": "bytes"
            },
            {
              "internalType": "uint32",
              "name": "availableUnits",
              "type": "uint32"
            },
            {
              "internalType": "uint16",
              "name": "categoryId",
              "type": "uint16"
            },
            {
              "internalType": "uint16",
              "name": "productTypeId",
              "type": "uint16"
            },
            {
              "internalType": "uint8",
              "name": "maxUnitsPerBuyer",
              "type": "uint8"
            },
            {
              "internalType": "bool",
              "name": "isFree",
              "type": "bool"
            },
            {
              "internalType": "bool",
              "name": "isInfinite",
              "type": "bool"
            },
            {
              "internalType": "bool",
              "name": "isExternalCallPaymentRelative",
              "type": "bool"
            },
            {
              "internalType": "bool",
              "name": "isExternalCallPreferredToken",
              "type": "bool"
            },
            {
              "internalType": "uint256",
              "name": "referralFeeProduct",
              "type": "uint256"
            }
          ],
          "internalType": "struct ProductParams",
          "name": "params",
          "type": "tuple"
        },
        {
          "components": [
            {
              "internalType": "bytes",
              "name": "data",
              "type": "bytes"
            },
            {
              "internalType": "uint256",
              "name": "value",
              "type": "uint256"
            },
            {
              "internalType": "address",
              "name": "externalAddress",
              "type": "address"
            },
            {
              "internalType": "bytes4",
              "name": "checkFunctionSignature",
              "type": "bytes4"
            },
            {
              "internalType": "bytes4",
              "name": "execFunctionSignature",
              "type": "bytes4"
            }
          ],
          "internalType": "struct Function",
          "name": "externalCall_",
          "type": "tuple"
        }
      ],
      "name": "addProduct",
      "outputs": [],
      "stateMutability": "nonpayable",
      "type": "function"
    },
    {
      "inputs": [
        {
          "internalType": "uint256",
          "name": "slicerId",
          "type": "uint256"
        },
        {
          "internalType": "uint256",
          "name": "productId",
          "type": "uint256"
        }
      ],
      "name": "availableUnits",
      "outputs": [
        {
          "internalType": "uint256",
          "name": "units",
          "type": "uint256"
        },
        {
          "internalType": "bool",
          "name": "isInfinite",
          "type": "bool"
        }
      ],
      "stateMutability": "view",
      "type": "function"
    },
    {
      "inputs": [
        {
          "internalType": "uint256",
          "name": "",
          "type": "uint256"
        }
      ],
      "name": "categories",
      "outputs": [
        {
          "internalType": "string",
          "name": "name",
          "type": "string"
        },
        {
          "internalType": "uint16",
          "name": "parentCategoryId",
          "type": "uint16"
        }
      ],
      "stateMutability": "view",
      "type": "function"
    },
    {
      "inputs": [],
      "name": "fundsModule",
      "outputs": [
        {
          "internalType": "contract IFundsModule",
          "name": "",
          "type": "address"
        }
      ],
      "stateMutability": "view",
      "type": "function"
    },
    {
      "inputs": [],
      "name": "initialize",
      "outputs": [],
      "stateMutability": "nonpayable",
      "type": "function"
    },
    {
      "inputs": [
        {
          "internalType": "uint256",
          "name": "slicerId",
          "type": "uint256"
        },
        {
          "internalType": "uint256",
          "name": "productId",
          "type": "uint256"
        },
        {
          "internalType": "address",
          "name": "account",
          "type": "address"
        }
      ],
      "name": "isProductOwner",
      "outputs": [
        {
          "internalType": "bool",
          "name": "isAllowed",
          "type": "bool"
        }
      ],
      "stateMutability": "view",
      "type": "function"
    },
    {
      "inputs": [
        {
          "internalType": "bytes[]",
          "name": "data",
          "type": "bytes[]"
        }
      ],
      "name": "multicall",
      "outputs": [
        {
          "internalType": "bytes[]",
          "name": "results",
          "type": "bytes[]"
        }
      ],
      "stateMutability": "nonpayable",
      "type": "function"
    },
    {
      "inputs": [
        {
          "internalType": "uint256",
          "name": "slicerId",
          "type": "uint256"
        }
      ],
      "name": "nextProductId",
      "outputs": [
        {
          "internalType": "uint256",
          "name": "",
          "type": "uint256"
        }
      ],
      "stateMutability": "view",
      "type": "function"
    },
    {
      "inputs": [],
      "name": "owner",
      "outputs": [
        {
          "internalType": "address",
          "name": "",
          "type": "address"
        }
      ],
      "stateMutability": "view",
      "type": "function"
    },
    {
      "inputs": [],
      "name": "paused",
      "outputs": [
        {
          "internalType": "bool",
          "name": "",
          "type": "bool"
        }
      ],
      "stateMutability": "view",
      "type": "function"
    },
    {
      "inputs": [
        {
          "components": [
            {
              "internalType": "address",
              "name": "buyer",
              "type": "address"
            },
            {
              "internalType": "uint128",
              "name": "slicerId",
              "type": "uint128"
            },
            {
              "internalType": "uint32",
              "name": "quantity",
              "type": "uint32"
            },
            {
              "internalType": "address",
              "name": "currency",
              "type": "address"
            },
            {
              "internalType": "uint32",
              "name": "productId",
              "type": "uint32"
            },
            {
              "internalType": "bytes",
              "name": "buyerCustomData",
              "type": "bytes"
            }
          ],
          "internalType": "struct PurchaseParams[]",
          "name": "purchases",
          "type": "tuple[]"
        },
        {
          "components": [
            {
              "internalType": "address",
              "name": "recipient",
              "type": "address"
            },
            {
              "internalType": "uint128",
              "name": "slicerId",
              "type": "uint128"
            },
            {
              "internalType": "uint128",
              "name": "amount",
              "type": "uint128"
            },
            {
              "internalType": "address",
              "name": "currency",
              "type": "address"
            },
            {
              "internalType": "string",
              "name": "description",
              "type": "string"
            }
          ],
          "internalType": "struct ExtraCost[]",
          "name": "extraCosts",
          "type": "tuple[]"
        },
        {
          "internalType": "address",
          "name": "referrer",
          "type": "address"
        }
      ],
      "name": "payProducts",
      "outputs": [],
      "stateMutability": "payable",
      "type": "function"
    },
    {
      "inputs": [
        {
          "components": [
            {
              "internalType": "address",
              "name": "buyer",
              "type": "address"
            },
            {
              "internalType": "uint128",
              "name": "slicerId",
              "type": "uint128"
            },
            {
              "internalType": "uint32",
              "name": "quantity",
              "type": "uint32"
            },
            {
              "internalType": "address",
              "name": "currency",
              "type": "address"
            },
            {
              "internalType": "uint32",
              "name": "productId",
              "type": "uint32"
            },
            {
              "internalType": "bytes",
              "name": "buyerCustomData",
              "type": "bytes"
            }
          ],
          "internalType": "struct PurchaseParams[]",
          "name": "purchases",
          "type": "tuple[]"
        },
        {
          "components": [
            {
              "internalType": "address",
              "name": "recipient",
              "type": "address"
            },
            {
              "internalType": "uint128",
              "name": "slicerId",
              "type": "uint128"
            },
            {
              "internalType": "uint128",
              "name": "amount",
              "type": "uint128"
            },
            {
              "internalType": "address",
              "name": "currency",
              "type": "address"
            },
            {
              "internalType": "string",
              "name": "description",
              "type": "string"
            }
          ],
          "internalType": "struct ExtraCost[]",
          "name": "extraCosts",
          "type": "tuple[]"
        },
        {
          "internalType": "address",
          "name": "referrer",
          "type": "address"
        },
        {
          "internalType": "address",
          "name": "buyer",
          "type": "address"
        }
      ],
      "name": "payProducts",
      "outputs": [],
      "stateMutability": "payable",
      "type": "function"
    },
    {
      "inputs": [
        {
          "components": [
            {
              "internalType": "address",
              "name": "buyer",
              "type": "address"
            },
            {
              "internalType": "uint128",
              "name": "slicerId",
              "type": "uint128"
            },
            {
              "internalType": "uint32",
              "name": "quantity",
              "type": "uint32"
            },
            {
              "internalType": "address",
              "name": "currency",
              "type": "address"
            },
            {
              "internalType": "uint32",
              "name": "productId",
              "type": "uint32"
            },
            {
              "internalType": "bytes",
              "name": "buyerCustomData",
              "type": "bytes"
            }
          ],
          "internalType": "struct PurchaseParams[]",
          "name": "purchases",
          "type": "tuple[]"
        }
      ],
      "name": "payProducts",
      "outputs": [],
      "stateMutability": "payable",
      "type": "function"
    },
    {
      "inputs": [
        {
          "components": [
            {
              "internalType": "address",
              "name": "buyer",
              "type": "address"
            },
            {
              "internalType": "uint128",
              "name": "slicerId",
              "type": "uint128"
            },
            {
              "internalType": "uint32",
              "name": "quantity",
              "type": "uint32"
            },
            {
              "internalType": "address",
              "name": "currency",
              "type": "address"
            },
            {
              "internalType": "uint32",
              "name": "productId",
              "type": "uint32"
            },
            {
              "internalType": "bytes",
              "name": "buyerCustomData",
              "type": "bytes"
            }
          ],
          "internalType": "struct PurchaseParams[]",
          "name": "purchases",
          "type": "tuple[]"
        },
        {
          "components": [
            {
              "internalType": "address",
              "name": "from",
              "type": "address"
            },
            {
              "internalType": "uint256",
              "name": "value",
              "type": "uint256"
            },
            {
              "internalType": "uint256",
              "name": "validAfter",
              "type": "uint256"
            },
            {
              "internalType": "uint256",
              "name": "validBefore",
              "type": "uint256"
            },
            {
              "internalType": "bytes32",
              "name": "nonce",
              "type": "bytes32"
            },
            {
              "internalType": "uint8",
              "name": "v",
              "type": "uint8"
            },
            {
              "internalType": "bytes32",
              "name": "r",
              "type": "bytes32"
            },
            {
              "internalType": "bytes32",
              "name": "s",
              "type": "bytes32"
            }
          ],
          "internalType": "struct PayWithAuthorizationParams",
          "name": "authorizationParams",
          "type": "tuple"
        },
        {
          "components": [
            {
              "internalType": "address",
              "name": "recipient",
              "type": "address"
            },
            {
              "internalType": "uint128",
              "name": "slicerId",
              "type": "uint128"
            },
            {
              "internalType": "uint128",
              "name": "amount",
              "type": "uint128"
            },
            {
              "internalType": "address",
              "name": "currency",
              "type": "address"
            },
            {
              "internalType": "string",
              "name": "description",
              "type": "string"
            }
          ],
          "internalType": "struct ExtraCost[]",
          "name": "extraCosts",
          "type": "tuple[]"
        },
        {
          "internalType": "address",
          "name": "referrer",
          "type": "address"
        },
        {
          "internalType": "contract IERC20Permit",
          "name": "currency",
          "type": "address"
        }
      ],
      "name": "payWithAuthorization",
      "outputs": [],
      "stateMutability": "payable",
      "type": "function"
    },
    {
      "inputs": [
        {
          "components": [
            {
              "internalType": "address",
              "name": "buyer",
              "type": "address"
            },
            {
              "internalType": "uint128",
              "name": "slicerId",
              "type": "uint128"
            },
            {
              "internalType": "uint32",
              "name": "quantity",
              "type": "uint32"
            },
            {
              "internalType": "address",
              "name": "currency",
              "type": "address"
            },
            {
              "internalType": "uint32",
              "name": "productId",
              "type": "uint32"
            },
            {
              "internalType": "bytes",
              "name": "buyerCustomData",
              "type": "bytes"
            }
          ],
          "internalType": "struct PurchaseParams[]",
          "name": "purchases",
          "type": "tuple[]"
        },
        {
          "components": [
            {
              "internalType": "address",
              "name": "from",
              "type": "address"
            },
            {
              "internalType": "uint256",
              "name": "value",
              "type": "uint256"
            },
            {
              "internalType": "uint256",
              "name": "validAfter",
              "type": "uint256"
            },
            {
              "internalType": "uint256",
              "name": "validBefore",
              "type": "uint256"
            },
            {
              "internalType": "bytes32",
              "name": "nonce",
              "type": "bytes32"
            },
            {
              "internalType": "uint8",
              "name": "v",
              "type": "uint8"
            },
            {
              "internalType": "bytes32",
              "name": "r",
              "type": "bytes32"
            },
            {
              "internalType": "bytes32",
              "name": "s",
              "type": "bytes32"
            }
          ],
          "internalType": "struct PayWithAuthorizationParams",
          "name": "authorizationParams",
          "type": "tuple"
        },
        {
          "components": [
            {
              "internalType": "address",
              "name": "recipient",
              "type": "address"
            },
            {
              "internalType": "uint128",
              "name": "slicerId",
              "type": "uint128"
            },
            {
              "internalType": "uint128",
              "name": "amount",
              "type": "uint128"
            },
            {
              "internalType": "address",
              "name": "currency",
              "type": "address"
            },
            {
              "internalType": "string",
              "name": "description",
              "type": "string"
            }
          ],
          "internalType": "struct ExtraCost[]",
          "name": "extraCosts",
          "type": "tuple[]"
        },
        {
          "internalType": "address",
          "name": "referrer",
          "type": "address"
        }
      ],
      "name": "payWithAuthorization",
      "outputs": [],
      "stateMutability": "payable",
      "type": "function"
    },
    {
      "inputs": [],
      "name": "priceFeed",
      "outputs": [
        {
          "internalType": "contract IPriceFeed",
          "name": "",
          "type": "address"
        }
      ],
      "stateMutability": "view",
      "type": "function"
    },
    {
      "inputs": [
        {
          "internalType": "uint256",
          "name": "slicerId",
          "type": "uint256"
        },
        {
          "internalType": "uint256",
          "name": "productId",
          "type": "uint256"
        },
        {
          "internalType": "address",
          "name": "currency",
          "type": "address"
        },
        {
          "internalType": "uint256",
          "name": "quantity",
          "type": "uint256"
        },
        {
          "internalType": "address",
          "name": "buyer",
          "type": "address"
        },
        {
          "internalType": "bytes",
          "name": "data",
          "type": "bytes"
        }
      ],
      "name": "productPrice",
      "outputs": [
        {
          "components": [
            {
              "internalType": "uint256",
              "name": "eth",
              "type": "uint256"
            },
            {
              "internalType": "uint256",
              "name": "currency",
              "type": "uint256"
            },
            {
              "internalType": "uint256",
              "name": "ethExternalCall",
              "type": "uint256"
            },
            {
              "internalType": "uint256",
              "name": "currencyExternalCall",
              "type": "uint256"
            }
          ],
          "internalType": "struct Price",
          "name": "price",
          "type": "tuple"
        }
      ],
      "stateMutability": "view",
      "type": "function"
    },
    {
      "inputs": [
        {
          "internalType": "uint256",
          "name": "",
          "type": "uint256"
        },
        {
          "internalType": "uint256",
          "name": "",
          "type": "uint256"
        }
      ],
      "name": "productTypes",
      "outputs": [
        {
          "internalType": "string",
          "name": "name",
          "type": "string"
        },
        {
          "internalType": "uint16",
          "name": "parentProductTypeId",
          "type": "uint16"
        }
      ],
      "stateMutability": "view",
      "type": "function"
    },
    {
      "inputs": [],
      "name": "proxiableUUID",
      "outputs": [
        {
          "internalType": "bytes32",
          "name": "",
          "type": "bytes32"
        }
      ],
      "stateMutability": "view",
      "type": "function"
    },
    {
      "inputs": [
        {
          "internalType": "uint256",
          "name": "slicerId",
          "type": "uint256"
        },
        {
          "internalType": "uint256",
          "name": "productId",
          "type": "uint256"
        }
      ],
      "name": "removeProduct",
      "outputs": [],
      "stateMutability": "nonpayable",
      "type": "function"
    },
    {
      "inputs": [],
      "name": "renounceOwnership",
      "outputs": [],
      "stateMutability": "nonpayable",
      "type": "function"
    },
    {
      "inputs": [
        {
          "components": [
            {
              "internalType": "uint256",
              "name": "slicerId",
              "type": "uint256"
            },
            {
              "internalType": "uint256",
              "name": "productId",
              "type": "uint256"
            },
            {
              "internalType": "uint8",
              "name": "newMaxUnits",
              "type": "uint8"
            },
            {
              "internalType": "bool",
              "name": "isFree",
              "type": "bool"
            },
            {
              "internalType": "bool",
              "name": "isInfinite",
              "type": "bool"
            },
            {
              "internalType": "uint32",
              "name": "newUnits",
              "type": "uint32"
            },
            {
              "internalType": "uint256",
              "name": "referralFeeProduct",
              "type": "uint256"
            },
            {
              "internalType": "uint256",
              "name": "categoryId",
              "type": "uint256"
            },
            {
              "internalType": "uint256",
              "name": "productTypeId",
              "type": "uint256"
            }
          ],
          "internalType": "struct EditProductParams",
          "name": "params",
          "type": "tuple"
        },
        {
          "components": [
            {
              "internalType": "uint248",
              "name": "value",
              "type": "uint248"
            },
            {
              "internalType": "bool",
              "name": "dynamicPricing",
              "type": "bool"
            },
            {
              "internalType": "address",
              "name": "externalAddress",
              "type": "address"
            },
            {
              "internalType": "address",
              "name": "currency",
              "type": "address"
            }
          ],
          "internalType": "struct CurrencyPrice[]",
          "name": "currencyPrices",
          "type": "tuple[]"
        },
        {
          "components": [
            {
              "internalType": "bytes",
              "name": "data",
              "type": "bytes"
            },
            {
              "internalType": "uint256",
              "name": "value",
              "type": "uint256"
            },
            {
              "internalType": "address",
              "name": "externalAddress",
              "type": "address"
            },
            {
              "internalType": "bytes4",
              "name": "checkFunctionSignature",
              "type": "bytes4"
            },
            {
              "internalType": "bytes4",
              "name": "execFunctionSignature",
              "type": "bytes4"
            }
          ],
          "internalType": "struct Function",
          "name": "externalCall_",
          "type": "tuple"
        }
      ],
      "name": "setProductInfo",
      "outputs": [],
      "stateMutability": "nonpayable",
      "type": "function"
    },
    {
      "inputs": [
        {
          "internalType": "uint256",
          "name": "slicerId",
          "type": "uint256"
        },
        {
          "internalType": "uint256",
          "name": "productTypeId",
          "type": "uint256"
        },
        {
          "internalType": "uint16",
          "name": "parentProductTypeId",
          "type": "uint16"
        },
        {
          "internalType": "string",
          "name": "name",
          "type": "string"
        }
      ],
      "name": "setProductType",
      "outputs": [],
      "stateMutability": "nonpayable",
      "type": "function"
    },
    {
      "inputs": [],
      "name": "sliceCore",
      "outputs": [
        {
          "internalType": "contract ISliceCore",
          "name": "",
          "type": "address"
        }
      ],
      "stateMutability": "view",
      "type": "function"
    },
    {
      "inputs": [
        {
          "internalType": "address",
          "name": "newOwner",
          "type": "address"
        }
      ],
      "name": "transferOwnership",
      "outputs": [],
      "stateMutability": "nonpayable",
      "type": "function"
    },
    {
      "inputs": [
        {
          "internalType": "address",
          "name": "newImplementation",
          "type": "address"
        }
      ],
      "name": "upgradeTo",
      "outputs": [],
      "stateMutability": "nonpayable",
      "type": "function"
    },
    {
      "inputs": [
        {
          "internalType": "address",
          "name": "newImplementation",
          "type": "address"
        },
        {
          "internalType": "bytes",
          "name": "data",
          "type": "bytes"
        }
      ],
      "name": "upgradeToAndCall",
      "outputs": [],
      "stateMutability": "payable",
      "type": "function"
    },
    {
      "inputs": [
        {
          "internalType": "uint256",
          "name": "slicerId",
          "type": "uint256"
        },
        {
          "internalType": "uint256",
          "name": "productId",
          "type": "uint256"
        }
      ],
      "name": "validatePurchase",
      "outputs": [
        {
          "internalType": "uint256",
          "name": "purchases",
          "type": "uint256"
        },
        {
          "internalType": "bytes",
          "name": "purchaseData",
          "type": "bytes"
        }
      ],
      "stateMutability": "view",
      "type": "function"
    },
    {
      "inputs": [
        {
          "internalType": "address",
          "name": "account",
          "type": "address"
        },
        {
          "internalType": "uint256",
          "name": "slicerId",
          "type": "uint256"
        },
        {
          "internalType": "uint256",
          "name": "productId",
          "type": "uint256"
        }
      ],
      "name": "validatePurchaseUnits",
      "outputs": [
        {
          "internalType": "uint256",
          "name": "purchases",
          "type": "uint256"
        }
      ],
      "stateMutability": "view",
      "type": "function"
    }
  ],
  "bytecode": "0x60a0604052306080523480156200001557600080fd5b506200002062000026565b620000e8565b600054610100900460ff1615620000935760405162461bcd60e51b815260206004820152602760248201527f496e697469616c697a61626c653a20636f6e747261637420697320696e697469604482015266616c697a696e6760c81b606482015260840160405180910390fd5b60005460ff9081161015620000e6576000805460ff191660ff9081179091556040519081527f7f26b83ff96e1f2b6a682f133852f6798a09c465da95921460cefb38474024989060200160405180910390a15b565b608051615f45620001206000396000818161069e015281816106e701528181610bbe01528181610bfe0152610d560152615f456000f3fe6080604052600436106101e35760003560e01c8063780b1d2611610102578063c1226f8011610095578063e6e9280811610064578063e6e92808146105ce578063f2fde38b146105ee578063f3c9ba391461060e578063f4c763631461062e57600080fd5b8063c1226f801461053e578063c6cdbe5e1461056e578063d2c5ca9a1461058e578063d7a3d0c8146105a157600080fd5b8063a878ad01116100d1578063a878ad01146104ce578063aa4d16de146104e1578063ac9650d8146104f4578063b79811e21461052157600080fd5b8063780b1d261461045b5780638129fc1c1461047b5780638da5cb5b1461049057806395f23704146104ae57600080fd5b80635287d5351161017a5780635e8b09dc116101495780635e8b09dc146103be5780636740ff40146103de578063715018a61461041e578063741bef1a1461043357600080fd5b80635287d5351461033757806352d1902d1461035757806359e5f9591461037a5780635c975abb1461039a57600080fd5b806349eb1abe116101b657806349eb1abe146102a85780634c04e9c6146102d65780634dd0a6fd146103045780634f1ef2861461032457600080fd5b8063062b8b15146101e85780631eafafb4146101fd5780633659cfe6146102755780633bb9aa0614610295575b600080fd5b6101fb6101f6366004614894565b610656565b005b34801561020957600080fd5b5061025b61021836600461490b565b600091825260fb60209081526040808420928452600192830190915290912060080154600160c81b810463ffffffff1692600160f01b909104821c909116151590565b604080519283529015156020830152015b60405180910390f35b34801561028157600080fd5b506101fb61029036600461492d565b610694565b6101fb6102a336600461494a565b61077c565b3480156102b457600080fd5b506102c86102c336600461490b565b6107ef565b60405161026c929190614a2a565b3480156102e257600080fd5b506102f66102f136600461490b565b6108a2565b60405161026c929190614a50565b34801561031057600080fd5b506101fb61031f366004614a84565b6109f7565b6101fb610332366004614ae6565b610bb4565b34801561034357600080fd5b506101fb61035236600461490b565b610c84565b34801561036357600080fd5b5061036c610d49565b60405190815260200161026c565b34801561038657600080fd5b506101fb610395366004614d6b565b610dfc565b3480156103a657600080fd5b5060c95460ff165b604051901515815260200161026c565b3480156103ca57600080fd5b506101fb6103d9366004614f0c565b61173c565b3480156103ea57600080fd5b506104067361bcd1ed11fc03c958a847a6687b1875f5eacaaf81565b6040516001600160a01b03909116815260200161026c565b34801561042a57600080fd5b506101fb6118e4565b34801561043f57600080fd5b50610406732b3eee365ce2c8a21096a348fc9005233229b58f81565b34801561046757600080fd5b506101fb610476366004614f88565b6118f8565b34801561048757600080fd5b506101fb612096565b34801561049c57600080fd5b506097546001600160a01b0316610406565b3480156104ba57600080fd5b5061036c6104c9366004615079565b6121a6565b6101fb6104dc366004615150565b6121e2565b6101fb6104ef3660046151f0565b6123d1565b34801561050057600080fd5b5061051461050f36600461526f565b6123f8565b60405161026c91906152e3565b34801561052d57600080fd5b5061036c686c6b935b8bbd40000081565b34801561054a57600080fd5b5061036c610559366004615345565b600090815260fb602052604090205460010190565b34801561057a57600080fd5b506102c8610589366004615345565b6124ed565b6101fb61059c36600461535e565b612597565b3480156105ad57600080fd5b506105c16105bc366004615392565b612626565b60405161026c919061540f565b3480156105da57600080fd5b506103ae6105e936600461543a565b612688565b3480156105fa57600080fd5b506101fb61060936600461492d565b6126ce565b34801561061a57600080fd5b506101fb610629366004615468565b612744565b34801561063a57600080fd5b50610406735cef0380ce0ad3daeefef8bdb85dbded7965adf981565b61068f83836040518060800160405280600015158152602001856001600160a01b0316815260200160008152602001600081525061282f565b505050565b6001600160a01b037f00000000000000000000000000000000000000000000000000000000000000001630036106e55760405162461bcd60e51b81526004016106dc906154b6565b60405180910390fd5b7f00000000000000000000000000000000000000000000000000000000000000006001600160a01b031661072e600080516020615ec9833981519152546001600160a01b031690565b6001600160a01b0316146107545760405162461bcd60e51b81526004016106dc90615502565b61075d81612b32565b6040805160008082526020820190925261077991839190612b3a565b50565b6107b584846040518060800160405280600015158152602001866001600160a01b0316815260200160008152602001600081525061282f565b6040516001600160a01b038216907f947c20b95ed5f5f8f99d0a7f7d99fcd90f312c2dc785d4cf0567d2359c7ab68090600090a250505050565b60ff6020908152600092835260408084209091529082529020805481906108159061554e565b80601f01602080910402602001604051908101604052809291908181526020018280546108419061554e565b801561088e5780601f106108635761010080835404028352916020019161088e565b820191906000526020600020905b81548152906001019060200180831161087157829003601f168201915b5050506001909301549192505061ffff1682565b600060603073b9d5b99d5d0fa04dd7eb2b0cd7753317c2ea1a84146108da5760405163acbcffa760e01b815260040160405180910390fd5b600084815260fb60209081526040808320868452600101825280832033845290915281205463ffffffff169003610924576040516363aae7a360e01b815260040160405180910390fd5b600084815260fb602090815260408083208684526001018083528184203385528084529184205493879052909152600701805463ffffffff90921691819061096b9061554e565b80601f01602080910402602001604051908101604052809291908181526020018280546109979061554e565b80156109e45780601f106109b9576101008083540402835291602001916109e4565b820191906000526020600020905b8154815290600101906020018083116109c757829003601f168201915b50505050509050915091505b9250929050565b600084815260fb60205260409081902060030154905163166eb15b60e21b81523360048201526001600160a01b03909116906359bac56c90602401602060405180830381865afa158015610a4f573d6000803e3d6000fd5b505050506040513d601f19601f82011682018060405250810190610a739190615588565b610a905760405163ea8e4eb560e01b815260040160405180910390fd5b600084815260ff6020908152604080832061ffff8616845290915290208054610ab89061554e565b15905080610ad7575061ffff821615801590610ad75750828261ffff16145b80610aee575082158015610aee575061ffff821615155b15610b0c57604051633b2d2d1d60e21b815260040160405180910390fd5b60408051808201825282815261ffff8416602080830191909152600087815260ff82528381208782528252929092208151805192939192610b5092849201906143ae565b50602091909101516001909101805461ffff191661ffff9092169190911790556040517fd16c0e7ae1bdcd77e184a213efdb26e89d5a097e5eb65ff6301db537d23b80be90610ba69086908690869086906155a5565b60405180910390a150505050565b6001600160a01b037f0000000000000000000000000000000000000000000000000000000000000000163003610bfc5760405162461bcd60e51b81526004016106dc906154b6565b7f00000000000000000000000000000000000000000000000000000000000000006001600160a01b0316610c45600080516020615ec9833981519152546001600160a01b031690565b6001600160a01b031614610c6b5760405162461bcd60e51b81526004016106dc90615502565b610c7482612b32565b610c8082826001612b3a565b5050565b600082815260fb60209081526040808320600381015485855260019091019092529091206001600160a01b03909116908190610cc1818333612ca5565b610cde5760405163ea8e4eb560e01b815260040160405180910390fd5b60098101805463ffff000019169055600881018054600168ffffffff000000000160a01b0319169055610d15600682016000614432565b604051849086907fd647384cccbd8b477a7b02b9e866072937e9a23b473b9de13fc0c6cb1d392a0a90600090a35050505050565b6000306001600160a01b037f00000000000000000000000000000000000000000000000000000000000000001614610de95760405162461bcd60e51b815260206004820152603860248201527f555550535570677261646561626c653a206d757374206e6f742062652063616c60448201527f6c6564207468726f7567682064656c656761746563616c6c000000000000000060648201526084016106dc565b50600080516020615ec983398151915290565b600083815260fb6020526040902080546001019081905563ffffffff811115610e3857604051636dac6a0960e01b815260040160405180910390fd5b6127108361018001511115610e6057604051636dac6a0960e01b815260040160405180910390fd5b80600103610faa57604051630bafd3f560e11b815260048101859052600090735cef0380ce0ad3daeefef8bdb85dbded7965adf99063175fa7ea90602401602060405180830381865afa158015610ebb573d6000803e3d6000fd5b505050506040513d601f19601f82011682018060405250810190610edf91906155ce565b6001600160a01b031603610f0657604051636dac6a0960e01b815260040160405180910390fd5b604051630bafd3f560e11b815260048101859052735cef0380ce0ad3daeefef8bdb85dbded7965adf99063175fa7ea90602401602060405180830381865afa158015610f56573d6000803e3d6000fd5b505050506040513d601f19601f82011682018060405250810190610f7a91906155ce565b600085815260fb6020526040902060030180546001600160a01b0319166001600160a01b03929092169190911790555b600084815260fb60205260409081902060030154905163166eb15b60e21b81523360048201526001600160a01b039091169081906359bac56c90602401602060405180830381865afa158015611004573d6000803e3d6000fd5b505050506040513d601f19601f820116820180604052508101906110289190615588565b6110455760405163ea8e4eb560e01b815260040160405180910390fd5b600085815260fb6020908152604080832063ffffffff8616845260010190915290208451511561116e5760005b85515181101561116c576110fc60fb600088600001518481518110611099576110996155eb565b6020026020010151600001516001600160801b031681526020019081526020016000206001016000886000015184815181106110d7576110d76155eb565b60200260200101516020015163ffffffff168152602001908152602001600020612db0565b8160020186600001518281518110611116576111166155eb565b602090810291909101810151825460018181018555600094855293839020825191018054929093015163ffffffff16600160801b026001600160a01b03199092166001600160801b039091161717905501611072565b505b6040805160808101825260008082526020820181905291810182905260608101829052905b86602001515181101561145157866020015181815181106111b6576111b66155eb565b6020026020010151915060006001600160a01b031682606001516001600160a01b0316141580156112545750606082015160405163b25e9c3960e01b81526001600160a01b0391821660048201529085169063b25e9c3990602401602060405180830381865afa15801561122e573d6000803e3d6000fd5b505050506040513d601f19601f820116820180604052508101906112529190615588565b155b1561127257604051630b27db6160e11b815260040160405180910390fd5b81516001600160f81b0316156112c057815160608301516001600160a01b03166000908152600185016020526040902080546001600160f81b0319166001600160f81b039092169190911790555b8160200151156113f65760608201516001600160a01b0316156113b457606082015160405163a2d7046f60e01b81526006602160991b0160048201526001600160a01b03909116602482015262093a80604482015260026064820152600090732b3eee365ce2c8a21096a348fc9005233229b58f9063a2d7046f906084016000604051808303816000875af115801561135d573d6000803e3d6000fd5b505050506040513d6000823e601f3d908101601f191682016040526113859190810190615677565b505080519091506001600160a01b03166113b257604051632b9bb16560e11b815260040160405180910390fd5b505b60208083015160608401516001600160a01b031660009081526001860190925260409091208054911515600160f81b026001600160f81b039092169190911790555b60408201516001600160a01b0316156114495760408281015160608401516001600160a01b039081166000908152600187810160205293902090920180546001600160a01b031916929091169190911790555b600101611193565b5060408501516001600160a01b0316156114e55784518051869160038501916114819183916020909101906143ae565b5060208201516001820155604082015160029091018054606084015160809094015160e090811c600160c01b0263ffffffff60c01b199590911c600160a01b026001600160c01b03199092166001600160a01b039094169390931717929092161790555b856101600151156115145760088201805460ff60f01b1981166004600160f01b9283900460ff16179091021790555b8561014001511561156c576127108560200151111561154657604051633806212b60e21b815260040160405180910390fd5b6008828101805460ff60f01b198116600160f01b9182900460ff16909317029190911790555b60a086015161ffff161561158c5761158c828760a0015161ffff16612ddb565b60c086015161ffff16156115ad576115ad82888860c0015161ffff16612e3e565b6008820180546001600160a01b03191633179055610100860151156115f05760088201805460ff60f01b1981166001600160f01b9283900460ff16179091021790555b60e086015160ff16156116235760e086015160088301805460ff909216600160e81b0260ff60e81b199092169190911790555b856101200151156116565760088201805460ff60f01b1981166002600160f01b9283900460ff1617909102179055611682565b608086015160088301805463ffffffff909216600160c81b0263ffffffff60c81b199092169190911790555b604086015151156116aa57604086015180516116a89160068501916020909101906143ae565b505b606086015151156116d257606086015180516116d09160078501916020909101906143ae565b505b8561018001518260090160006101000a81548161ffff021916908361ffff16021790555083877f46fd72a3edcc3e64ce4c031d20b52b4d2676d312c7f647bbae3340f7c56bf17233898960405161172b9392919061585d565b60405180910390a350505050505050565b604051630bafd3f560e11b815260048101849052600090735cef0380ce0ad3daeefef8bdb85dbded7965adf99063175fa7ea90602401602060405180830381865afa15801561178f573d6000803e3d6000fd5b505050506040513d601f19601f820116820180604052508101906117b391906155ce565b60405163166eb15b60e21b81523360048201529091506001600160a01b038216906359bac56c90602401602060405180830381865afa1580156117fa573d6000803e3d6000fd5b505050506040513d601f19601f8201168201806040525081019061181e9190615588565b61183b5760405163ea8e4eb560e01b815260040160405180910390fd5b61271082111561185e57604051636dac6a0960e01b815260040160405180910390fd5b6040805184151581526020810184905285917fb0b88304f8c02c0665b0e2045748dc61c9514689390192154a569ee763f3cc3b910160405180910390a250600092835260fb6020526040909220600301805461ffff909316600160a81b0261ffff60a81b19921515600160a01b029290921662ffffff60a01b1990931692909217179055565b6118ec612eb0565b6118f66000612f0a565b565b8351600090815260fb6020908152604080832060030154875184528184208389015185526001019092529091206001600160a01b0390911690819061193e818333612ca5565b61195b5760405163ea8e4eb560e01b815260040160405180910390fd5b6127108760c00151111561198257604051636dac6a0960e01b815260040160405180910390fd5b600981015460e08801516201000090910461ffff16146119aa576119aa818860e00151612ddb565b600981015461010088015164010000000090910461ffff16146119db576119db818860000151896101000151612e3e565b8415611d2e576040805160808101825260008082526020820181905291810182905260608101829052905b86811015611d2b57878782818110611a2057611a206155eb565b905060800201803603810190611a3691906159a7565b60608101519092506001600160a01b031615611ad957606082015160405163b25e9c3960e01b81526001600160a01b0391821660048201529085169063b25e9c3990602401602060405180830381865afa158015611a98573d6000803e3d6000fd5b505050506040513d601f19601f82011682018060405250810190611abc9190615588565b611ad957604051630b27db6160e11b815260040160405180910390fd5b60608201516001600160a01b0316600090815260018401602052604090205482516001600160f81b03908116911614611b4a57815160608301516001600160a01b03166000908152600185016020526040902080546001600160f81b0319166001600160f81b039092169190911790555b60608201516001600160a01b0316600090815260018401602090815260409091205490830151600160f81b90910460ff16151590151514611cb15760608201516001600160a01b031615611c6f57606082015160405163a2d7046f60e01b81526006602160991b0160048201526001600160a01b03909116602482015262093a80604482015260026064820152600090732b3eee365ce2c8a21096a348fc9005233229b58f9063a2d7046f906084016000604051808303816000875af1158015611c18573d6000803e3d6000fd5b505050506040513d6000823e601f3d908101601f19168201604052611c409190810190615677565b505080519091506001600160a01b0316611c6d57604051632b9bb16560e11b815260040160405180910390fd5b505b60208083015160608401516001600160a01b031660009081526001860190925260409091208054911515600160f81b026001600160f81b039092169190911790555b60608201516001600160a01b03908116600090815260018086016020526040918290200154908401518216911614611d235760408281015160608401516001600160a01b039081166000908152600187810160205293902090920180546001600160a01b031916929091169190911790555b600101611a06565b50505b86606001518015611d4b57506008810154600160f01b9004600116155b80611d7057508660600151158015611d7057506008810154600160f01b900460011615155b15611d9b5760088101805460ff600160f01b80830482166001189091160260ff60f01b199091161790555b86608001518015611dbb57506008810154600160f01b9004600190811c16155b80611de357508660800151158015611de357506008810154600160f01b9004600190811c1615155b15611e0e5760088101805460ff600160f01b80830482166002189091160260ff60f01b199091161790555b60408701516008820154600160e81b900460ff908116911614611e5157604087015160088201805460ff909216600160e81b0260ff60e81b199092169190911790555b866080015115611e725760088101805463ffffffff60c81b19169055611ebe565b60a08701516008820154600160c81b900463ffffffff908116911614611ebe5760a087015160088201805463ffffffff909216600160c81b0263ffffffff60c81b199092169190911790555b60408401516001600160a01b031615611f97578351805185916003840191611eed9183916020909101906143ae565b5060208281015160018301556040808401516002909301805460608601516080909601516001600160a01b039095166001600160c01b031990911617600160a01b60e096871c021763ffffffff60c01b1916600160c01b9490951c9390930293909317909155880151885191519091907f1dc9b6a2e759a6aba0408c06b83deb0f57c90dee629f039e0b31423a1337785d90611f8a9088906159c3565b60405180910390a3612022565b60808401516001600160e01b031916600160e01b0361202257600381016000611fc08282614432565b50600060018201819055600290910180546001600160e01b03191690556080850152602087015187516040517f1dc9b6a2e759a6aba0408c06b83deb0f57c90dee629f039e0b31423a1337785d906120199088906159c3565b60405180910390a35b60c087015160098201805461ffff191661ffff90921691909117905560088101546040517f7ab4fd7e169709d003204efc66f3fc7e826e050103c2adbbaf31ccc6ea51634191612085918a91600160c81b900463ffffffff16908a908a90615a5f565b60405180910390a150505050505050565b600054610100900460ff16158080156120b65750600054600160ff909116105b806120d05750303b1580156120d0575060005460ff166001145b6121335760405162461bcd60e51b815260206004820152602e60248201527f496e697469616c697a61626c653a20636f6e747261637420697320616c72656160448201526d191e481a5b9a5d1a585b1a5e995960921b60648201526084016106dc565b6000805460ff191660011790558015612156576000805461ff0019166101001790555b61215e612f63565b8015610779576000805461ff0019169055604051600181527f7f26b83ff96e1f2b6a682f133852f6798a09c465da95921460cefb38474024989060200160405180910390a150565b600082815260fb6020908152604080832084845260010182528083206001600160a01b038716845290915290205463ffffffff165b9392505050565b6020840151156122a557835160208501516040808701516060880151608089015160a08a015160c08b015160e08c015195516371f70b0760e11b81526001600160a01b03988916600482015230602482015260448101979097526064870194909452608486019290925260a485015260ff1660c484015260e48301526101048201529082169063e3ee160e9061012401600060405180830381600087803b15801561228c57600080fd5b505af11580156122a0573d6000803e3d6000fd5b505050505b6122de85846040518060800160405280600115158152602001866001600160a01b0316815260200160008152602001600081525061282f565b6040516370a0823160e01b81523060048201526000906001600160a01b038316906370a0823190602401602060405180830381865afa158015612325573d6000803e3d6000fd5b505050506040513d601f19601f820116820180604052508101906123499190615b09565b905080156123c957845160405163a9059cbb60e01b81526001600160a01b039182166004820152602481018390529083169063a9059cbb906044016020604051808303816000875af11580156123a3573d6000803e3d6000fd5b505050506040513d601f19601f820116820180604052508101906123c79190615588565b505b505050505050565b6123f28484848473833589fcd6edb6e08f4c7c32d4f71b54bda029136121e2565b50505050565b6060816001600160401b038111156124125761241261447d565b60405190808252806020026020018201604052801561244557816020015b60608152602001906001900390816124305790505b50905060005b828110156124e5576124b530858584818110612469576124696155eb565b905060200281019061247b9190615b22565b8080601f016020809104026020016040519081016040528093929190818152602001838380828437600092019190915250612f9292505050565b8282815181106124c7576124c76155eb565b602002602001018190525080806124dd90615b7e565b91505061244b565b505b92915050565b60fe60205260009081526040902060018101805461250a9061554e565b80601f01602080910402602001604051908101604052809291908181526020018280546125369061554e565b80156125835780601f1061255857610100808354040283529160200191612583565b820191906000526020600020905b81548152906001019060200180831161256657829003601f168201915b5050506002909301549192505061ffff1682565b60408051600080825260208201909252610779918391906125f0565b6040805160a08101825260008082526020808301829052928201819052606080830191909152608082015282526000199092019101816125b35790505b50604051806080016040528060001515815260200160006001600160a01b0316815260200160008152602001600081525061282f565b6126516040518060800160405280600081526020016000815260200160008152602001600081525090565b600087815260fb60209081526040808320898452600101909152902061267c81898989898989613086565b98975050505050505050565b600083815260fb6020818152604080842086855260018101835290842087855292909152600301546001600160a01b03166126c4828286612ca5565b9695505050505050565b6126d6612eb0565b6001600160a01b03811661273b5760405162461bcd60e51b815260206004820152602660248201527f4f776e61626c653a206e6577206f776e657220697320746865207a65726f206160448201526564647265737360d01b60648201526084016106dc565b61077981612f0a565b61274c612eb0565b61ffff8216600090815260fe60205260409020600101805461276d9061554e565b1590508061278c575061ffff82161580159061278c5750828261ffff16145b806127a35750821580156127a3575061ffff821615155b156127c157604051636b3ac97b60e11b815260040160405180910390fd5b600083815260fe60209081526040909120825190916127e79160018401918501906143ae565b5060028101805461ffff191661ffff85161790556040517f6ce7820c104591ca5f30885bf32f653a8c6a2440e61966e96d5b49a58b0f981190610ba690869086908690615b97565b6128376135a7565b6000336001600160a01b031682602001516001600160a01b03160361285e57600060208301525b60005b84518110156128a15761288d85828151811061287f5761287f6155eb565b6020026020010151846135ed565b6128979083615bba565b9150600101612861565b506040805160a0810182526000808252602082018190529181018290526060808201839052608082015290805b8551811015612b13578581815181106128e9576128e96155eb565b602090810291909101015180519093506001600160a01b031661298d576020830151604051630bafd3f560e11b81526001600160801b039091166004820152735cef0380ce0ad3daeefef8bdb85dbded7965adf99063175fa7ea90602401602060405180830381865afa158015612964573d6000803e3d6000fd5b505050506040513d601f19601f8201168201806040525081019061298891906155ce565b612990565b82515b60608401519092506001600160a01b03166129ed5760408301516129bd906001600160801b031685615bba565b93506129e883604001516001600160801b0316836001600160a01b0316613f8c90919063ffffffff16565b612aaa565b82516001600160a01b0316612a8957606083015160405163b25e9c3960e01b81526001600160a01b0391821660048201529083169063b25e9c3990602401602060405180830381865afa158015612a48573d6000803e3d6000fd5b505050506040513d601f19601f82011682018060405250810190612a6c9190615588565b612a8957604051630b27db6160e11b815260040160405180910390fd5b612aaa856000015184606001518486604001516001600160801b0316613fdd565b82604001516001600160801b0316826001600160a01b031684606001516001600160a01b03167faf4e8fbdf3eeda1bb461f86b73d9341aad76a124175886910acc8ce457007ced8660800151604051612b039190615bd2565b60405180910390a46001016128ce565b506000612b208434615be5565b905080156123c7576123c73382613f8c565b610779612eb0565b7f4910fdfa16fed3260ed0e7147f7cc6da11a60208b5b9406d12a635614ffd91435460ff1615612b6d5761068f836140d4565b826001600160a01b03166352d1902d6040518163ffffffff1660e01b8152600401602060405180830381865afa925050508015612bc7575060408051601f3d908101601f19168201909252612bc491810190615b09565b60015b612c2a5760405162461bcd60e51b815260206004820152602e60248201527f45524331393637557067726164653a206e657720696d706c656d656e7461746960448201526d6f6e206973206e6f74205555505360901b60648201526084016106dc565b600080516020615ec98339815191528114612c995760405162461bcd60e51b815260206004820152602960248201527f45524331393637557067726164653a20756e737570706f727465642070726f786044820152681a58589b195555525160ba1b60648201526084016106dc565b5061068f838383614170565b6000612cb084612db0565b600884015460405163166eb15b60e21b81526001600160a01b039182166004820152908416906359bac56c90602401602060405180830381865afa158015612cfc573d6000803e3d6000fd5b505050506040513d601f19601f82011682018060405250810190612d209190615588565b15612d3e575060088301546001600160a01b038281169116146121db565b60405163166eb15b60e21b81526001600160a01b0383811660048301528416906359bac56c90602401602060405180830381865afa158015612d84573d6000803e3d6000fd5b505050506040513d601f19601f82011682018060405250810190612da89190615588565b949350505050565b60088101546001600160a01b0316610779576040516329c2f8dd60e11b815260040160405180910390fd5b600081815260fe60205260409020600181018054612df89061554e565b9050600003612e1a57604051636b3ac97b60e11b815260040160405180910390fd5b506009909101805461ffff909216620100000263ffff000019909216919091179055565b600082815260ff60209081526040808320848452909152902080548190612e649061554e565b9050600003612e8657604051633b2d2d1d60e21b815260040160405180910390fd5b506009909201805461ffff9093166401000000000265ffff00000000199093169290921790915550565b6097546001600160a01b031633146118f65760405162461bcd60e51b815260206004820181905260248201527f4f776e61626c653a2063616c6c6572206973206e6f7420746865206f776e657260448201526064016106dc565b609780546001600160a01b038381166001600160a01b0319831681179093556040519116919082907f8be0079c531659141344cd1fd0a4f28419497f9722a3daafe3b4186f6b6457e090600090a35050565b5050505050565b600054610100900460ff16612f8a5760405162461bcd60e51b81526004016106dc90615bfc565b6118f6614195565b60606001600160a01b0383163b612ffa5760405162461bcd60e51b815260206004820152602660248201527f416464726573733a2064656c65676174652063616c6c20746f206e6f6e2d636f6044820152651b9d1c9858dd60d21b60648201526084016106dc565b600080846001600160a01b0316846040516130159190615c47565b600060405180830381855af49150503d8060008114613050576040519150601f19603f3d011682016040523d82523d6000602084013e613055565b606091505b509150915061307d8282604051806060016040528060278152602001615ee9602791396141c5565b95945050505050565b6130b16040518060800160405280600081526020016000815260200160008152602001600081525090565b6130ba88612db0565b6001600160a01b0380861660009081526001808b016020908152604092839020835160608101855281546001600160f81b038116825260ff600160f81b909104811615159382019390935292015490931691810182905260088b01549092600160f01b909104169061340f576001600160a01b0387166131555785613144836001841615156141de565b61314e9190615c63565b8352613491565b81602001511561337f57600080805260018b0160205260409020546001600160f81b031615158061318f575081516001600160f81b031615155b156133565781516000906001600160f81b0316810361320c57600080805260018c81016020908152604092839020835160608101855281546001600160f81b0381168252600160f81b900460ff161515928101929092528201546001600160a01b0316928101929092526132079190841615156141de565b613218565b82516001600160f81b03165b90506001600160801b0381111561324257604051633806212b60e21b815260040160405180910390fd5b6040516331b889b160e11b81528790732b3eee365ce2c8a21096a348fc9005233229b58f9063637113629061328a9085906006602160991b01908e9061070890600401615c82565b602060405180830381865afa1580156132a7573d6000803e3d6000fd5b505050506040513d601f19601f820116820180604052508101906132cb9190615b09565b6132d59190615c63565b6020850181905260000361335057600080805260018c81016020908152604092839020835160608101855281546001600160f81b0381168252600160f81b900460ff161515928101929092528201546001600160a01b031692810192909252889161334391851615156141de565b61334d9190615c63565b84525b50613491565b6001811660000361337a57604051630b27db6160e11b815260040160405180910390fd5b613491565b81516001600160f81b0316156133af5781516133a59087906001600160f81b0316615c63565b6020840152613491565b600080805260018b81016020908152604092839020835160608101855281546001600160f81b0381168252600160f81b900460ff161515928101929092528201546001600160a01b031692810192909252879161314491841615156141de565b81604001516001600160a01b031663d7a3d0c88a8a8a8a8a8a6040518763ffffffff1660e01b815260040161344996959493929190615cb8565b6040805180830381865afa158015613465573d6000803e3d6000fd5b505050506040513d601f19601f820116820180604052508101906134899190615cf8565b602085015283525b60048a01541561359a576001600382901c16158015613515576001600283901c16158015906134f95784602001516000036134df57604051630b27db6160e11b815260040160405180910390fd5b60048c01546134ef908990615c63565b606086015261350f565b60048c0154613509908990615c63565b60408601525b50613598565b6020840151156135605760048b015460208501516127109161353691615c63565b6135409190615d1c565b60608501819052602085018051613558908390615be5565b905250613598565b60048b015484516127109161357491615c63565b61357e9190615d1c565b6040850181905284518590613594908390615be5565b9052505b505b5050979650505050505050565b60c95460ff16156118f65760405162461bcd60e51b815260206004820152601060248201526f14185d5cd8589b194e881c185d5cd95960821b60448201526064016106dc565b6000826040015163ffffffff166000146124e7576020838101516001600160801b0316600090815260fb9091526040902060030154600160a01b900460ff161561364a57604051632149aed960e21b815260040160405180910390fd5b82600001516001600160a01b031682602001516001600160a01b03160361367357600060208301525b600060fb600085602001516001600160801b031681526020019081526020016000206001016000856080015163ffffffff168152602001908152602001600020905060006136f38286602001516001600160801b0316876080015163ffffffff168860600151896040015163ffffffff168a600001518b60a00151613086565b6020868101516001600160801b0316600090815260fb909152604090206003015460088401549192506001600160a01b031690600160e81b900460ff161561379b57600883015460408781015188516001600160a01b0316600090815260208790529190912054600160e81b90920460ff1691613776919063ffffffff16615d3e565b63ffffffff16111561379b57604051636dac6a0960e01b815260040160405180910390fd5b6008830154600160f01b9004600190811c16600003613823576008830154604087015163ffffffff600160c81b9092048216911611156137ee57604051636dac6a0960e01b815260040160405180910390fd5b604086015160088401805463ffffffff600160c81b8083048216949094031690920263ffffffff60c81b199092169190911790555b604082015182516138349190615bba565b825190945015801590613853575060208501516001600160a01b031615155b156138e357600983015461ffff16600081900361389857506020868101516001600160801b0316600090815260fb9091526040902060030154600160a81b900461ffff165b80156138e15760006127108285600001516138b39190615c63565b6138bd9190615d1c565b8451819003855260208801519091506138df906001600160a01b031682613f8c565b505b505b81516138f9906001600160a01b03831690613f8c565b60408087015187516001600160a01b03166000908152602086905291822080549192909161392e90849063ffffffff16615d3e565b92506101000a81548163ffffffff021916908363ffffffff1602179055508160200151600014613a135760208501516001600160a01b0316156139fb57600983015461ffff1660008190036139ab57506020868101516001600160801b0316600090815260fb9091526040902060030154600160a81b900461ffff165b80156139f95760006127108285602001516139c69190615c63565b6139d09190615d1c565b602080860180518390039052885160608b0151918a01519293506139f79290919084613fdd565b505b505b613a1385600001518760600151838560200151613fdd565b600283015415613b605760005b6002840154811015613b5e57613b4a6040518060c0016040528089600001516001600160a01b03168152602001866002018481548110613a6257613a626155eb565b9060005260206000200160000160009054906101000a90046001600160801b03166001600160801b03168152602001896040015163ffffffff16815260200189606001516001600160a01b03168152602001866002018481548110613ac957613ac96155eb565b9060005260206000200160000160109054906101000a900463ffffffff1663ffffffff1681526020018960a00151815250604051806080016040528089600001511515815260200189602001516001600160a01b031681526020018a602001516001600160801b031681526020018a6080015163ffffffff168152506135ed565b613b549086615bba565b9450600101613a20565b505b60058301546001600160a01b031615613f07576005830154600090600160c01b900460e01b6001600160e01b03191615613c875760058401546001600160a01b03838116911614613ee757600584015460408085015160208a015160808b01518b518c85015160a08e015195516001600160a01b038816979596600160c01b90960460e01b95613bfc959493929160038e019190602401615d66565b60408051601f198184030181529181526020820180516001600160e01b03166001600160e01b0319909416939093179092529051613c3a9190615c47565b60006040518083038185875af1925050503d8060008114613c77576040519150601f19603f3d011682016040523d82523d6000602084013e613c7c565b606091505b505080915050613ee7565b606083015115613de957613cbd866000015188606001517361bcd1ed11fc03c958a847a6687b1875f5eacaaf8660600151613fdd565b602087015160058501546060808a015190860151604051630b90c4a560e11b8152600481018290526001600160a01b0380841660248301527361bcd1ed11fc03c958a847a6687b1875f5eacaaf956359fc470a9590949082169390929091891690631721894a90604401602060405180830381865afa158015613d44573d6000803e3d6000fd5b505050506040513d601f19601f82011682018060405250810190613d689190615b09565b6040516001600160e01b031960e088901b1681526001600160801b0390951660048601526001600160a01b0393841660248601529290911660448401526064830152608482015260a401600060405180830381600087803b158015613dcc57600080fd5b505af1158015613de0573d6000803e3d6000fd5b50505050613ee3565b60408381015160058601549151630b90c4a560e11b815260048101829052600060248201527361bcd1ed11fc03c958a847a6687b1875f5eacaaf926339ed512392916001600160a01b0391821691871690631721894a90604401602060405180830381865afa158015613e60573d6000803e3d6000fd5b505050506040513d601f19601f82011682018060405250810190613e849190615b09565b6040516001600160e01b031960e086901b1681526001600160a01b03909216600483015260248201526044016000604051808303818588803b158015613ec957600080fd5b505af1158015613edd573d6000803e3d6000fd5b50505050505b5060015b80613f055760405163af6eefa360e01b815260040160405180910390fd5b505b85600001516001600160a01b0316866080015163ffffffff1687602001516001600160801b03167f392f594e624e358091bb17d04cc5fac6221a0d9d1218d3dd08a007b0de11f21b89604001518a60600151878b602001518c604001518d60600151604051613f7b96959493929190615e5c565b60405180910390a450505092915050565b600080600080600085875af190508061068f5760405162461bcd60e51b815260206004820152601360248201527211551217d514905394d1915497d19052531151606a1b60448201526064016106dc565b83614061576040516323b872dd60e01b81523360048201526001600160a01b038381166024830152604482018390528416906323b872dd906064016020604051808303816000875af1158015614037573d6000803e3d6000fd5b505050506040513d601f19601f8201168201806040525081019061405b9190615588565b506123f2565b60405163a9059cbb60e01b81526001600160a01b0383811660048301526024820183905284169063a9059cbb906044016020604051808303816000875af11580156140b0573d6000803e3d6000fd5b505050506040513d601f19601f82011682018060405250810190612f5c9190615588565b6001600160a01b0381163b6141415760405162461bcd60e51b815260206004820152602d60248201527f455243313936373a206e657720696d706c656d656e746174696f6e206973206e60448201526c1bdd08184818dbdb9d1c9858dd609a1b60648201526084016106dc565b600080516020615ec983398151915280546001600160a01b0319166001600160a01b0392909216919091179055565b61417983614344565b6000825111806141865750805b1561068f576123f28383612f92565b600054610100900460ff166141bc5760405162461bcd60e51b81526004016106dc90615bfc565b6118f633612f0a565b606083156141d45750816121db565b6121db8383614384565b81516000906001600160f81b03161580156141f7575081155b1561421557604051630b27db6160e11b815260040160405180910390fd5b8260200151156143355782516001600160801b036001600160f81b03909116111561425357604051633806212b60e21b815260040160405180910390fd5b82516040516331b889b160e11b8152732b3eee365ce2c8a21096a348fc9005233229b58f916363711362916142ae919073833589fcd6edb6e08f4c7c32d4f71b54bda02913906006602160991b019061070890600401615c82565b602060405180830381865afa1580156142cb573d6000803e3d6000fd5b505050506040513d601f19601f820116820180604052508101906142ef9190615b09565b9050806000036143305760405162461bcd60e51b815260206004820152600c60248201526b125b9d985b1a59081c1bdbdb60a21b60448201526064016106dc565b6124e7565b5050516001600160f81b031690565b61434d816140d4565b6040516001600160a01b038216907fbc7cd75a20ee27fd9adebab32041f755214dbc6bffa90cc0225b39da2e5c2d3b90600090a250565b8151156143945781518083602001fd5b8060405162461bcd60e51b81526004016106dc9190615bd2565b8280546143ba9061554e565b90600052602060002090601f0160209004810192826143dc5760008555614422565b82601f106143f557805160ff1916838001178555614422565b82800160010185558215614422579182015b82811115614422578251825591602001919060010190614407565b5061442e929150614468565b5090565b50805461443e9061554e565b6000825580601f1061444e575050565b601f01602090049060005260206000209081019061077991905b5b8082111561442e5760008155600101614469565b634e487b7160e01b600052604160045260246000fd5b60405160c081016001600160401b03811182821017156144b5576144b561447d565b60405290565b60405160a081016001600160401b03811182821017156144b5576144b561447d565b604080519081016001600160401b03811182821017156144b5576144b561447d565b604051608081016001600160401b03811182821017156144b5576144b561447d565b6040516101a081016001600160401b03811182821017156144b5576144b561447d565b60405161012081016001600160401b03811182821017156144b5576144b561447d565b604051601f8201601f191681016001600160401b038111828210171561458f5761458f61447d565b604052919050565b60006001600160401b038211156145b0576145b061447d565b5060051b60200190565b6001600160a01b038116811461077957600080fd5b80356001600160801b03811681146145e657600080fd5b919050565b803563ffffffff811681146145e657600080fd5b600082601f83011261461057600080fd5b81356001600160401b038111156146295761462961447d565b61463c601f8201601f1916602001614567565b81815284602083860101111561465157600080fd5b816020850160208301376000918101602001919091529392505050565b600082601f83011261467f57600080fd5b8135602061469461468f83614597565b614567565b82815260059290921b840181019181810190868411156146b357600080fd5b8286015b848110156147885780356001600160401b03808211156146d75760008081fd5b9088019060c0828b03601f19018113156146f15760008081fd5b6146f9614493565b87840135614706816145ba565b815260406147158582016145cf565b8983015260606147268187016145eb565b82840152608091508186013561473b816145ba565b9083015260a061474c8682016145eb565b8383015292850135928484111561476557600091508182fd5b6147738e8b868901016145ff565b908301525086525050509183019183016146b7565b509695505050505050565b600082601f8301126147a457600080fd5b813560206147b461468f83614597565b82815260059290921b840181019181810190868411156147d357600080fd5b8286015b848110156147885780356001600160401b03808211156147f75760008081fd5b9088019060a0828b03601f19018113156148115760008081fd5b6148196144bb565b87840135614826816145ba565b815260406148358582016145cf565b8983015260606148468187016145cf565b82840152608091508186013561485b816145ba565b908301529184013591838311156148725760008081fd5b6148808d8a858801016145ff565b9082015286525050509183019183016147d7565b6000806000606084860312156148a957600080fd5b83356001600160401b03808211156148c057600080fd5b6148cc8783880161466e565b945060208601359150808211156148e257600080fd5b506148ef86828701614793565b9250506040840135614900816145ba565b809150509250925092565b6000806040838503121561491e57600080fd5b50508035926020909101359150565b60006020828403121561493f57600080fd5b81356121db816145ba565b6000806000806080858703121561496057600080fd5b84356001600160401b038082111561497757600080fd5b6149838883890161466e565b9550602087013591508082111561499957600080fd5b506149a687828801614793565b93505060408501356149b7816145ba565b915060608501356149c7816145ba565b939692955090935050565b60005b838110156149ed5781810151838201526020016149d5565b838111156123f25750506000910152565b60008151808452614a168160208601602086016149d2565b601f01601f19169290920160200192915050565b604081526000614a3d60408301856149fe565b905061ffff831660208301529392505050565b828152604060208201526000612da860408301846149fe565b61ffff8116811461077957600080fd5b80356145e681614a69565b60008060008060808587031215614a9a57600080fd5b84359350602085013592506040850135614ab381614a69565b915060608501356001600160401b03811115614ace57600080fd5b614ada878288016145ff565b91505092959194509250565b60008060408385031215614af957600080fd5b8235614b04816145ba565b915060208301356001600160401b03811115614b1f57600080fd5b614b2b858286016145ff565b9150509250929050565b600082601f830112614b4657600080fd5b81356020614b5661468f83614597565b82815260069290921b84018101918181019086841115614b7557600080fd5b8286015b848110156147885760408189031215614b925760008081fd5b614b9a6144dd565b614ba3826145cf565b8152614bb08583016145eb565b81860152835291830191604001614b79565b80356001600160f81b03811681146145e657600080fd5b801515811461077957600080fd5b80356145e681614bd9565b600060808284031215614c0457600080fd5b614c0c6144ff565b9050614c1782614bc2565b81526020820135614c2781614bd9565b60208201526040820135614c3a816145ba565b60408201526060820135614c4d816145ba565b606082015292915050565b600082601f830112614c6957600080fd5b81356020614c7961468f83614597565b82815260079290921b84018101918181019086841115614c9857600080fd5b8286015b8481101561478857614cae8882614bf2565b835291830191608001614c9c565b803560ff811681146145e657600080fd5b80356001600160e01b0319811681146145e657600080fd5b600060a08284031215614cf757600080fd5b614cff6144bb565b905081356001600160401b03811115614d1757600080fd5b614d23848285016145ff565b825250602082013560208201526040820135614d3e816145ba565b6040820152614d4f60608301614ccd565b6060820152614d6060808301614ccd565b608082015292915050565b600080600060608486031215614d8057600080fd5b8335925060208401356001600160401b0380821115614d9e57600080fd5b908501906101a08288031215614db357600080fd5b614dbb614521565b823582811115614dca57600080fd5b614dd689828601614b35565b825250602083013582811115614deb57600080fd5b614df789828601614c58565b602083015250604083013582811115614e0f57600080fd5b614e1b898286016145ff565b604083015250606083013582811115614e3357600080fd5b614e3f898286016145ff565b606083015250614e51608084016145eb565b6080820152614e6260a08401614a79565b60a0820152614e7360c08401614a79565b60c0820152614e8460e08401614cbc565b60e0820152610100614e97818501614be7565b90820152610120614ea9848201614be7565b90820152610140614ebb848201614be7565b90820152610160614ecd848201614be7565b90820152610180928301359281019290925290925060408501359080821115614ef557600080fd5b50614f0286828701614ce5565b9150509250925092565b600080600060608486031215614f2157600080fd5b833592506020840135614f3381614bd9565b929592945050506040919091013590565b60008083601f840112614f5657600080fd5b5081356001600160401b03811115614f6d57600080fd5b6020830191508360208260071b85010111156109f057600080fd5b600080600080848603610160811215614fa057600080fd5b61012080821215614fb057600080fd5b614fb8614544565b91508635825260208701356020830152614fd460408801614cbc565b6040830152614fe560608801614be7565b6060830152614ff660808801614be7565b608083015261500760a088016145eb565b60a083015260c0878101359083015260e0808801359083015261010080880135908301529094508501356001600160401b038082111561504657600080fd5b61505288838901614f44565b909550935061014087013591508082111561506c57600080fd5b50614ada87828801614ce5565b60008060006060848603121561508e57600080fd5b8335615099816145ba565b95602085013595506040909401359392505050565b60006101008083850312156150c257600080fd5b604051908101906001600160401b03821181831017156150e4576150e461447d565b81604052809250833591506150f8826145ba565b8181526020840135602082015260408401356040820152606084013560608201526080840135608082015261512f60a08501614cbc565b60a082015260c084013560c082015260e084013560e0820152505092915050565b6000806000806000610180868803121561516957600080fd5b85356001600160401b038082111561518057600080fd5b61518c89838a0161466e565b965061519b8960208a016150ae565b95506101208801359150808211156151b257600080fd5b506151bf88828901614793565b9350506101408601356151d1816145ba565b91506101608601356151e2816145ba565b809150509295509295909350565b600080600080610160858703121561520757600080fd5b84356001600160401b038082111561521e57600080fd5b61522a8883890161466e565b955061523988602089016150ae565b945061012087013591508082111561525057600080fd5b5061525d87828801614793565b9250506101408501356149c7816145ba565b6000806020838503121561528257600080fd5b82356001600160401b038082111561529957600080fd5b818501915085601f8301126152ad57600080fd5b8135818111156152bc57600080fd5b8660208260051b85010111156152d157600080fd5b60209290920196919550909350505050565b6000602080830181845280855180835260408601915060408160051b870101925083870160005b8281101561533857603f198886030184526153268583516149fe565b9450928501929085019060010161530a565b5092979650505050505050565b60006020828403121561535757600080fd5b5035919050565b60006020828403121561537057600080fd5b81356001600160401b0381111561538657600080fd5b612da88482850161466e565b60008060008060008060c087890312156153ab57600080fd5b863595506020870135945060408701356153c4816145ba565b93506060870135925060808701356153db816145ba565b915060a08701356001600160401b038111156153f657600080fd5b61540289828a016145ff565b9150509295509295509295565b81518152602080830151908201526040808301519082015260608083015190820152608081016124e7565b60008060006060848603121561544f57600080fd5b83359250602084013591506040840135614900816145ba565b60008060006060848603121561547d57600080fd5b83359250602084013561548f81614a69565b915060408401356001600160401b038111156154aa57600080fd5b614f02868287016145ff565b6020808252602c908201527f46756e6374696f6e206d7573742062652063616c6c6564207468726f7567682060408201526b19195b1959d85d1958d85b1b60a21b606082015260800190565b6020808252602c908201527f46756e6374696f6e206d7573742062652063616c6c6564207468726f7567682060408201526b6163746976652070726f787960a01b606082015260800190565b600181811c9082168061556257607f821691505b60208210810361558257634e487b7160e01b600052602260045260246000fd5b50919050565b60006020828403121561559a57600080fd5b81516121db81614bd9565b84815283602082015261ffff831660408201526080606082015260006126c460808301846149fe565b6000602082840312156155e057600080fd5b81516121db816145ba565b634e487b7160e01b600052603260045260246000fd5b600082601f83011261561257600080fd5b8151602061562261468f83614597565b82815260059290921b8401810191818101908684111561564157600080fd5b8286015b848110156147885780518060060b811461565f5760008081fd5b8352918301918301615645565b80516145e6816145ba565b600080600083850360c081121561568d57600080fd5b608081121561569b57600080fd5b506156a46144ff565b84516156af816145ba565b8152602085015162ffffff811681146156c757600080fd5b6020820152604085015165ffffffffffff811681146156e557600080fd5b604082015260608501516156f881614a69565b606082015260808501519093506001600160401b0381111561571957600080fd5b61572586828701615601565b92505061573460a0850161566c565b90509250925092565b600081518084526020808501945080840160005b8381101561578757815180516001600160801b0316885283015163ffffffff168388015260409096019590820190600101615751565b509495945050505050565b600081518084526020808501945080840160005b8381101561578757815180516001600160f81b03168852838101511515848901526040808201516001600160a01b03908116918a01919091526060918201511690880152608090960195908201906001016157a6565b6000815160a0845261581160a08501826149fe565b602084810151908601526040808501516001600160a01b0316908601526060808501516001600160e01b0319908116918701919091526080948501511693909401929092525090919050565b60018060a01b038416815260606020820152600083516101a080606085015261588a61020085018361573d565b91506020860151605f19808685030160808701526158a88483615792565b935060408801519150808685030160a08701526158c584836149fe565b935060608801519150808685030160c0870152506158e383826149fe565b92505060808601516158fd60e086018263ffffffff169052565b5060a08601516101006159158187018361ffff169052565b60c0880151915061012061592e8188018461ffff169052565b60e089015192506101406159468189018560ff169052565b9189015192506101609161595d8884018515159052565b908901519250610180906159748883018515159052565b89015115159387019390935287015115156101c0860152508501516101e084015282810360408401526126c481856157fc565b6000608082840312156159b957600080fd5b6121db8383614bf2565b6020815260006121db60208301846157fc565b8183526000602080850194508260005b85811015615787576001600160f81b036159ff83614bc2565b16875282820135615a0f81614bd9565b151587840152604082810135615a24816145ba565b6001600160a01b03908116918901919091526060908382013590615a47826145ba565b169088015260809687019691909101906001016159e6565b6000610160865183526020870151602084015260ff60408801511660408401526060870151151560608401526080870151615a9e608085018215159052565b5060a0870151615ab660a085018263ffffffff169052565b5060c087015160c084015260e087015160e0840152610100808801518185015250615aea61012084018763ffffffff169052565b80610140840152615afe81840185876159d6565b979650505050505050565b600060208284031215615b1b57600080fd5b5051919050565b6000808335601e19843603018112615b3957600080fd5b8301803591506001600160401b03821115615b5357600080fd5b6020019150368190038213156109f057600080fd5b634e487b7160e01b600052601160045260246000fd5b600060018201615b9057615b90615b68565b5060010190565b83815261ffff8316602082015260606040820152600061307d60608301846149fe565b60008219821115615bcd57615bcd615b68565b500190565b6020815260006121db60208301846149fe565b600082821015615bf757615bf7615b68565b500390565b6020808252602b908201527f496e697469616c697a61626c653a20636f6e7472616374206973206e6f74206960408201526a6e697469616c697a696e6760a81b606082015260800190565b60008251615c598184602087016149d2565b9190910192915050565b6000816000190483118215151615615c7d57615c7d615b68565b500290565b6001600160801b039490941684526001600160a01b0392831660208501529116604083015263ffffffff16606082015260800190565b868152602081018690526001600160a01b038581166040830152606082018590528316608082015260c060a0820181905260009061267c908301846149fe565b60008060408385031215615d0b57600080fd5b505080516020909101519092909150565b600082615d3957634e487b7160e01b600052601260045260246000fd5b500490565b600063ffffffff808316818516808303821115615d5d57615d5d615b68565b01949350505050565b6001600160801b038716815263ffffffff8681166020808401919091526001600160a01b0387166040840152908516606083015260c060808301528354600091908290600181811c9082811680615dbe57607f831692505b8583108103615ddb57634e487b7160e01b85526022600452602485fd5b60c0880183905260e08801818015615dfa5760018114615e0b57615e36565b60ff19861682528782019650615e36565b60008c81526020902060005b86811015615e3057815484820152908501908901615e17565b83019750505b50505050505083810360a0850152615e4e81866149fe565b9a9950505050505050505050565b63ffffffff871681526001600160a01b038681166020830152610120820190615ea96040840188805182526020810151602083015260408101516040830152606081015160608301525050565b9490941660c082015260e081019290925261010090910152939250505056fe360894a13ba1a3210667c828492db98dca3e2076cc3735a920a3ca505d382bbc416464726573733a206c6f772d6c6576656c2064656c65676174652063616c6c206661696c6564a26469706673582212200228b3df58b4af5ed0b089b3d02c56a8e3d3a43999af0f10bc91c52f392b5a2664736f6c634300080d0033",
  "linkReferences": {},
  "deployedLinkReferences": {}
}