{
  "_format": "hh-sol-artifact-1",
  "contractName": "ProductsModule",
  "sourceName": "contracts/ProductsModule.sol",
  "abi": [
    {
      "inputs": [],
      "stateMutability": "nonpayable",
      "type": "constructor"
    },
    {
      "inputs": [],
      "name": "ActiveListing",
      "type": "error"
    },
    {
      "inputs": [],
      "name": "ExceedsMaxValue",
      "type": "error"
    },
    {
      "inputs": [],
      "name": "InexistentPool",
      "type": "error"
    },
    {
      "inputs": [],
      "name": "InexistentProduct",
      "type": "error"
    },
    {
      "inputs": [],
      "name": "Invalid",
      "type": "error"
    },
    {
      "inputs": [],
      "name": "InvalidCategory",
      "type": "error"
    },
    {
      "inputs": [],
      "name": "InvalidProductType",
      "type": "error"
    },
    {
      "inputs": [],
      "name": "NoDelegatecall",
      "type": "error"
    },
    {
      "inputs": [],
      "name": "NotAuthorized",
      "type": "error"
    },
    {
      "inputs": [],
      "name": "NotPurchased",
      "type": "error"
    },
    {
      "inputs": [],
      "name": "NotSuccessful",
      "type": "error"
    },
    {
      "inputs": [],
      "name": "StoreNotOpen",
      "type": "error"
    },
    {
      "inputs": [],
      "name": "TooSoon",
      "type": "error"
    },
    {
      "inputs": [],
      "name": "WrongCurrency",
      "type": "error"
    },
    {
      "anonymous": false,
      "inputs": [
        {
          "indexed": false,
          "internalType": "address",
          "name": "previousAdmin",
          "type": "address"
        },
        {
          "indexed": false,
          "internalType": "address",
          "name": "newAdmin",
          "type": "address"
        }
      ],
      "name": "AdminChanged",
      "type": "event"
    },
    {
      "anonymous": false,
      "inputs": [
        {
          "indexed": true,
          "internalType": "address",
          "name": "beacon",
          "type": "address"
        }
      ],
      "name": "BeaconUpgraded",
      "type": "event"
    },
    {
      "anonymous": false,
      "inputs": [
        {
          "indexed": false,
          "internalType": "uint256",
          "name": "categoryId",
          "type": "uint256"
        },
        {
          "indexed": false,
          "internalType": "uint16",
          "name": "parentCategoryId",
          "type": "uint16"
        },
        {
          "indexed": false,
          "internalType": "string",
          "name": "name",
          "type": "string"
        }
      ],
      "name": "CategorySet",
      "type": "event"
    },
    {
      "anonymous": false,
      "inputs": [
        {
          "indexed": true,
          "internalType": "uint256",
          "name": "slicerId",
          "type": "uint256"
        },
        {
          "indexed": true,
          "internalType": "address",
          "name": "contractAddress",
          "type": "address"
        },
        {
          "indexed": true,
          "internalType": "uint256",
          "name": "tokenId",
          "type": "uint256"
        },
        {
          "indexed": false,
          "internalType": "uint256",
          "name": "currentAmount",
          "type": "uint256"
        }
      ],
      "name": "ERC1155ListingChanged",
      "type": "event"
    },
    {
      "anonymous": false,
      "inputs": [
        {
          "indexed": true,
          "internalType": "uint256",
          "name": "slicerId",
          "type": "uint256"
        },
        {
          "indexed": true,
          "internalType": "address",
          "name": "contractAddress",
          "type": "address"
        },
        {
          "indexed": true,
          "internalType": "uint256",
          "name": "tokenId",
          "type": "uint256"
        },
        {
          "indexed": false,
          "internalType": "bool",
          "name": "isActive",
          "type": "bool"
        }
      ],
      "name": "ERC721ListingChanged",
      "type": "event"
    },
    {
      "anonymous": false,
      "inputs": [
        {
          "indexed": true,
          "internalType": "address",
          "name": "currency",
          "type": "address"
        },
        {
          "indexed": true,
          "internalType": "address",
          "name": "recipient",
          "type": "address"
        },
        {
          "indexed": true,
          "internalType": "uint256",
          "name": "amount",
          "type": "uint256"
        },
        {
          "indexed": false,
          "internalType": "string",
          "name": "description",
          "type": "string"
        }
      ],
      "name": "ExtraCostPaid",
      "type": "event"
    },
    {
      "anonymous": false,
      "inputs": [
        {
          "indexed": false,
          "internalType": "uint8",
          "name": "version",
          "type": "uint8"
        }
      ],
      "name": "Initialized",
      "type": "event"
    },
    {
      "anonymous": false,
      "inputs": [
        {
          "indexed": true,
          "internalType": "address",
          "name": "previousOwner",
          "type": "address"
        },
        {
          "indexed": true,
          "internalType": "address",
          "name": "newOwner",
          "type": "address"
        }
      ],
      "name": "OwnershipTransferred",
      "type": "event"
    },
    {
      "anonymous": false,
      "inputs": [
        {
          "indexed": false,
          "internalType": "address",
          "name": "account",
          "type": "address"
        }
      ],
      "name": "Paused",
      "type": "event"
    },
    {
      "anonymous": false,
      "inputs": [
        {
          "indexed": true,
          "internalType": "uint256",
          "name": "slicerId",
          "type": "uint256"
        },
        {
          "indexed": true,
          "internalType": "uint256",
          "name": "productId",
          "type": "uint256"
        },
        {
          "indexed": false,
          "internalType": "address",
          "name": "creator",
          "type": "address"
        },
        {
          "components": [
            {
              "components": [
                {
                  "internalType": "uint128",
                  "name": "subSlicerId",
                  "type": "uint128"
                },
                {
                  "internalType": "uint32",
                  "name": "subProductId",
                  "type": "uint32"
                }
              ],
              "internalType": "struct SubSlicerProduct[]",
              "name": "subSlicerProducts",
              "type": "tuple[]"
            },
            {
              "components": [
                {
                  "internalType": "uint248",
                  "name": "value",
                  "type": "uint248"
                },
                {
                  "internalType": "bool",
                  "name": "dynamicPricing",
                  "type": "bool"
                },
                {
                  "internalType": "address",
                  "name": "externalAddress",
                  "type": "address"
                },
                {
                  "internalType": "address",
                  "name": "currency",
                  "type": "address"
                }
              ],
              "internalType": "struct CurrencyPrice[]",
              "name": "currencyPrices",
              "type": "tuple[]"
            },
            {
              "internalType": "bytes",
              "name": "data",
              "type": "bytes"
            },
            {
              "internalType": "bytes",
              "name": "purchaseData",
              "type": "bytes"
            },
            {
              "internalType": "uint32",
              "name": "availableUnits",
              "type": "uint32"
            },
            {
              "internalType": "uint16",
              "name": "categoryId",
              "type": "uint16"
            },
            {
              "internalType": "uint16",
              "name": "productTypeId",
              "type": "uint16"
            },
            {
              "internalType": "uint8",
              "name": "maxUnitsPerBuyer",
              "type": "uint8"
            },
            {
              "internalType": "bool",
              "name": "isFree",
              "type": "bool"
            },
            {
              "internalType": "bool",
              "name": "isInfinite",
              "type": "bool"
            },
            {
              "internalType": "bool",
              "name": "isExternalCallPaymentRelative",
              "type": "bool"
            },
            {
              "internalType": "bool",
              "name": "isExternalCallPreferredToken",
              "type": "bool"
            },
            {
              "internalType": "uint256",
              "name": "referralFeeProduct",
              "type": "uint256"
            }
          ],
          "indexed": false,
          "internalType": "struct ProductParams",
          "name": "params",
          "type": "tuple"
        },
        {
          "components": [
            {
              "internalType": "bytes",
              "name": "data",
              "type": "bytes"
            },
            {
              "internalType": "uint256",
              "name": "value",
              "type": "uint256"
            },
            {
              "internalType": "address",
              "name": "externalAddress",
              "type": "address"
            },
            {
              "internalType": "bytes4",
              "name": "checkFunctionSignature",
              "type": "bytes4"
            },
            {
              "internalType": "bytes4",
              "name": "execFunctionSignature",
              "type": "bytes4"
            }
          ],
          "indexed": false,
          "internalType": "struct Function",
          "name": "externalCall",
          "type": "tuple"
        }
      ],
      "name": "ProductAdded",
      "type": "event"
    },
    {
      "anonymous": false,
      "inputs": [
        {
          "indexed": true,
          "internalType": "uint256",
          "name": "slicerId",
          "type": "uint256"
        },
        {
          "indexed": true,
          "internalType": "uint256",
          "name": "productId",
          "type": "uint256"
        },
        {
          "components": [
            {
              "internalType": "bytes",
              "name": "data",
              "type": "bytes"
            },
            {
              "internalType": "uint256",
              "name": "value",
              "type": "uint256"
            },
            {
              "internalType": "address",
              "name": "externalAddress",
              "type": "address"
            },
            {
              "internalType": "bytes4",
              "name": "checkFunctionSignature",
              "type": "bytes4"
            },
            {
              "internalType": "bytes4",
              "name": "execFunctionSignature",
              "type": "bytes4"
            }
          ],
          "indexed": false,
          "internalType": "struct Function",
          "name": "externalCall",
          "type": "tuple"
        }
      ],
      "name": "ProductExternalCallUpdated",
      "type": "event"
    },
    {
      "anonymous": false,
      "inputs": [
        {
          "components": [
            {
              "internalType": "uint256",
              "name": "slicerId",
              "type": "uint256"
            },
            {
              "internalType": "uint256",
              "name": "productId",
              "type": "uint256"
            },
            {
              "internalType": "uint8",
              "name": "newMaxUnits",
              "type": "uint8"
            },
            {
              "internalType": "bool",
              "name": "isFree",
              "type": "bool"
            },
            {
              "internalType": "bool",
              "name": "isInfinite",
              "type": "bool"
            },
            {
              "internalType": "uint32",
              "name": "newUnits",
              "type": "uint32"
            },
            {
              "internalType": "uint256",
              "name": "referralFeeProduct",
              "type": "uint256"
            },
            {
              "internalType": "uint256",
              "name": "categoryId",
              "type": "uint256"
            },
            {
              "internalType": "uint256",
              "name": "productTypeId",
              "type": "uint256"
            }
          ],
          "indexed": false,
          "internalType": "struct EditProductParams",
          "name": "params",
          "type": "tuple"
        },
        {
          "indexed": false,
          "internalType": "uint256",
          "name": "newUnits",
          "type": "uint256"
        },
        {
          "components": [
            {
              "internalType": "uint248",
              "name": "value",
              "type": "uint248"
            },
            {
              "internalType": "bool",
              "name": "dynamicPricing",
              "type": "bool"
            },
            {
              "internalType": "address",
              "name": "externalAddress",
              "type": "address"
            },
            {
              "internalType": "address",
              "name": "currency",
              "type": "address"
            }
          ],
          "indexed": false,
          "internalType": "struct CurrencyPrice[]",
          "name": "currencyPrices",
          "type": "tuple[]"
        }
      ],
      "name": "ProductInfoChanged",
      "type": "event"
    },
    {
      "anonymous": false,
      "inputs": [
        {
          "indexed": true,
          "internalType": "uint256",
          "name": "slicerId",
          "type": "uint256"
        },
        {
          "indexed": true,
          "internalType": "uint256",
          "name": "productId",
          "type": "uint256"
        },
        {
          "indexed": false,
          "internalType": "uint256",
          "name": "quantity",
          "type": "uint256"
        },
        {
          "indexed": true,
          "internalType": "address",
          "name": "buyer",
          "type": "address"
        },
        {
          "indexed": false,
          "internalType": "address",
          "name": "currency",
          "type": "address"
        },
        {
          "components": [
            {
              "internalType": "uint256",
              "name": "eth",
              "type": "uint256"
            },
            {
              "internalType": "uint256",
              "name": "currency",
              "type": "uint256"
            },
            {
              "internalType": "uint256",
              "name": "ethExternalCall",
              "type": "uint256"
            },
            {
              "internalType": "uint256",
              "name": "currencyExternalCall",
              "type": "uint256"
            }
          ],
          "indexed": false,
          "internalType": "struct Price",
          "name": "price",
          "type": "tuple"
        },
        {
          "indexed": false,
          "internalType": "address",
          "name": "referrer",
          "type": "address"
        },
        {
          "indexed": false,
          "internalType": "uint256",
          "name": "parentSlicerId",
          "type": "uint256"
        },
        {
          "indexed": false,
          "internalType": "uint256",
          "name": "parentProductId",
          "type": "uint256"
        }
      ],
      "name": "ProductPaid",
      "type": "event"
    },
    {
      "anonymous": false,
      "inputs": [
        {
          "indexed": true,
          "internalType": "uint256",
          "name": "slicerId",
          "type": "uint256"
        },
        {
          "indexed": true,
          "internalType": "uint256",
          "name": "productId",
          "type": "uint256"
        }
      ],
      "name": "ProductRemoved",
      "type": "event"
    },
    {
      "anonymous": false,
      "inputs": [
        {
          "indexed": false,
          "internalType": "uint256",
          "name": "slicerId",
          "type": "uint256"
        },
        {
          "indexed": false,
          "internalType": "uint256",
          "name": "productTypeId",
          "type": "uint256"
        },
        {
          "indexed": false,
          "internalType": "uint16",
          "name": "parentProductTypeId",
          "type": "uint16"
        },
        {
          "indexed": false,
          "internalType": "string",
          "name": "name",
          "type": "string"
        }
      ],
      "name": "ProductTypeSet",
      "type": "event"
    },
    {
      "anonymous": false,
      "inputs": [
        {
          "indexed": true,
          "internalType": "address",
          "name": "buyer",
          "type": "address"
        }
      ],
      "name": "PurchaseMade",
      "type": "event"
    },
    {
      "anonymous": false,
      "inputs": [
        {
          "indexed": true,
          "internalType": "uint256",
          "name": "slicerId",
          "type": "uint256"
        },
        {
          "indexed": false,
          "internalType": "uint256",
          "name": "ethToRelease",
          "type": "uint256"
        }
      ],
      "name": "ReleasedToSlicer",
      "type": "event"
    },
    {
      "anonymous": false,
      "inputs": [
        {
          "indexed": true,
          "internalType": "uint256",
          "name": "slicerId",
          "type": "uint256"
        },
        {
          "indexed": false,
          "internalType": "bool",
          "name": "isStoreClosed",
          "type": "bool"
        },
        {
          "indexed": false,
          "internalType": "uint256",
          "name": "referralFeeStore",
          "type": "uint256"
        }
      ],
      "name": "StoreConfigChanged",
      "type": "event"
    },
    {
      "anonymous": false,
      "inputs": [
        {
          "indexed": false,
          "internalType": "address",
          "name": "account",
          "type": "address"
        }
      ],
      "name": "Unpaused",
      "type": "event"
    },
    {
      "anonymous": false,
      "inputs": [
        {
          "indexed": true,
          "internalType": "address",
          "name": "implementation",
          "type": "address"
        }
      ],
      "name": "Upgraded",
      "type": "event"
    },
    {
      "inputs": [],
      "name": "MINT_PRODUCT_AMOUNT",
      "outputs": [
        {
          "internalType": "uint256",
          "name": "",
          "type": "uint256"
        }
      ],
      "stateMutability": "view",
      "type": "function"
    },
    {
      "inputs": [
        {
          "internalType": "uint256",
          "name": "categoryId",
          "type": "uint256"
        },
        {
          "internalType": "uint16",
          "name": "parentCategoryId",
          "type": "uint16"
        },
        {
          "internalType": "string",
          "name": "name",
          "type": "string"
        }
      ],
      "name": "_setCategory",
      "outputs": [],
      "stateMutability": "nonpayable",
      "type": "function"
    },
    {
      "inputs": [
        {
          "internalType": "uint256",
          "name": "slicerId",
          "type": "uint256"
        },
        {
          "internalType": "bool",
          "name": "isClosed",
          "type": "bool"
        },
        {
          "internalType": "uint256",
          "name": "referralFeeStore",
          "type": "uint256"
        }
      ],
      "name": "_setStoreConfig",
      "outputs": [],
      "stateMutability": "nonpayable",
      "type": "function"
    },
    {
      "inputs": [
        {
          "internalType": "uint256",
          "name": "slicerId",
          "type": "uint256"
        },
        {
          "components": [
            {
              "components": [
                {
                  "internalType": "uint128",
                  "name": "subSlicerId",
                  "type": "uint128"
                },
                {
                  "internalType": "uint32",
                  "name": "subProductId",
                  "type": "uint32"
                }
              ],
              "internalType": "struct SubSlicerProduct[]",
              "name": "subSlicerProducts",
              "type": "tuple[]"
            },
            {
              "components": [
                {
                  "internalType": "uint248",
                  "name": "value",
                  "type": "uint248"
                },
                {
                  "internalType": "bool",
                  "name": "dynamicPricing",
                  "type": "bool"
                },
                {
                  "internalType": "address",
                  "name": "externalAddress",
                  "type": "address"
                },
                {
                  "internalType": "address",
                  "name": "currency",
                  "type": "address"
                }
              ],
              "internalType": "struct CurrencyPrice[]",
              "name": "currencyPrices",
              "type": "tuple[]"
            },
            {
              "internalType": "bytes",
              "name": "data",
              "type": "bytes"
            },
            {
              "internalType": "bytes",
              "name": "purchaseData",
              "type": "bytes"
            },
            {
              "internalType": "uint32",
              "name": "availableUnits",
              "type": "uint32"
            },
            {
              "internalType": "uint16",
              "name": "categoryId",
              "type": "uint16"
            },
            {
              "internalType": "uint16",
              "name": "productTypeId",
              "type": "uint16"
            },
            {
              "internalType": "uint8",
              "name": "maxUnitsPerBuyer",
              "type": "uint8"
            },
            {
              "internalType": "bool",
              "name": "isFree",
              "type": "bool"
            },
            {
              "internalType": "bool",
              "name": "isInfinite",
              "type": "bool"
            },
            {
              "internalType": "bool",
              "name": "isExternalCallPaymentRelative",
              "type": "bool"
            },
            {
              "internalType": "bool",
              "name": "isExternalCallPreferredToken",
              "type": "bool"
            },
            {
              "internalType": "uint256",
              "name": "referralFeeProduct",
              "type": "uint256"
            }
          ],
          "internalType": "struct ProductParams",
          "name": "params",
          "type": "tuple"
        },
        {
          "components": [
            {
              "internalType": "bytes",
              "name": "data",
              "type": "bytes"
            },
            {
              "internalType": "uint256",
              "name": "value",
              "type": "uint256"
            },
            {
              "internalType": "address",
              "name": "externalAddress",
              "type": "address"
            },
            {
              "internalType": "bytes4",
              "name": "checkFunctionSignature",
              "type": "bytes4"
            },
            {
              "internalType": "bytes4",
              "name": "execFunctionSignature",
              "type": "bytes4"
            }
          ],
          "internalType": "struct Function",
          "name": "externalCall_",
          "type": "tuple"
        }
      ],
      "name": "addProduct",
      "outputs": [],
      "stateMutability": "nonpayable",
      "type": "function"
    },
    {
      "inputs": [
        {
          "internalType": "uint256",
          "name": "slicerId",
          "type": "uint256"
        },
        {
          "internalType": "uint256",
          "name": "productId",
          "type": "uint256"
        }
      ],
      "name": "availableUnits",
      "outputs": [
        {
          "internalType": "uint256",
          "name": "units",
          "type": "uint256"
        },
        {
          "internalType": "bool",
          "name": "isInfinite",
          "type": "bool"
        }
      ],
      "stateMutability": "view",
      "type": "function"
    },
    {
      "inputs": [
        {
          "internalType": "uint256",
          "name": "",
          "type": "uint256"
        }
      ],
      "name": "categories",
      "outputs": [
        {
          "internalType": "string",
          "name": "name",
          "type": "string"
        },
        {
          "internalType": "uint16",
          "name": "parentCategoryId",
          "type": "uint16"
        }
      ],
      "stateMutability": "view",
      "type": "function"
    },
    {
      "inputs": [],
      "name": "fundsModule",
      "outputs": [
        {
          "internalType": "contract IFundsModule",
          "name": "",
          "type": "address"
        }
      ],
      "stateMutability": "view",
      "type": "function"
    },
    {
      "inputs": [],
      "name": "initialize",
      "outputs": [],
      "stateMutability": "nonpayable",
      "type": "function"
    },
    {
      "inputs": [
        {
          "internalType": "uint256",
          "name": "slicerId",
          "type": "uint256"
        },
        {
          "internalType": "uint256",
          "name": "productId",
          "type": "uint256"
        },
        {
          "internalType": "address",
          "name": "account",
          "type": "address"
        }
      ],
      "name": "isProductOwner",
      "outputs": [
        {
          "internalType": "bool",
          "name": "isAllowed",
          "type": "bool"
        }
      ],
      "stateMutability": "view",
      "type": "function"
    },
    {
      "inputs": [
        {
          "internalType": "bytes[]",
          "name": "data",
          "type": "bytes[]"
        }
      ],
      "name": "multicall",
      "outputs": [
        {
          "internalType": "bytes[]",
          "name": "results",
          "type": "bytes[]"
        }
      ],
      "stateMutability": "nonpayable",
      "type": "function"
    },
    {
      "inputs": [
        {
          "internalType": "uint256",
          "name": "slicerId",
          "type": "uint256"
        }
      ],
      "name": "nextProductId",
      "outputs": [
        {
          "internalType": "uint256",
          "name": "",
          "type": "uint256"
        }
      ],
      "stateMutability": "view",
      "type": "function"
    },
    {
      "inputs": [],
      "name": "owner",
      "outputs": [
        {
          "internalType": "address",
          "name": "",
          "type": "address"
        }
      ],
      "stateMutability": "view",
      "type": "function"
    },
    {
      "inputs": [],
      "name": "paused",
      "outputs": [
        {
          "internalType": "bool",
          "name": "",
          "type": "bool"
        }
      ],
      "stateMutability": "view",
      "type": "function"
    },
    {
      "inputs": [
        {
          "components": [
            {
              "internalType": "address",
              "name": "buyer",
              "type": "address"
            },
            {
              "internalType": "uint128",
              "name": "slicerId",
              "type": "uint128"
            },
            {
              "internalType": "uint32",
              "name": "quantity",
              "type": "uint32"
            },
            {
              "internalType": "address",
              "name": "currency",
              "type": "address"
            },
            {
              "internalType": "uint32",
              "name": "productId",
              "type": "uint32"
            },
            {
              "internalType": "bytes",
              "name": "buyerCustomData",
              "type": "bytes"
            }
          ],
          "internalType": "struct PurchaseParams[]",
          "name": "purchases",
          "type": "tuple[]"
        },
        {
          "components": [
            {
              "internalType": "address",
              "name": "recipient",
              "type": "address"
            },
            {
              "internalType": "uint128",
              "name": "slicerId",
              "type": "uint128"
            },
            {
              "internalType": "uint128",
              "name": "amount",
              "type": "uint128"
            },
            {
              "internalType": "address",
              "name": "currency",
              "type": "address"
            },
            {
              "internalType": "string",
              "name": "description",
              "type": "string"
            }
          ],
          "internalType": "struct ExtraCost[]",
          "name": "extraCosts",
          "type": "tuple[]"
        },
        {
          "internalType": "address",
          "name": "referrer",
          "type": "address"
        }
      ],
      "name": "payProducts",
      "outputs": [],
      "stateMutability": "payable",
      "type": "function"
    },
    {
      "inputs": [
        {
          "components": [
            {
              "internalType": "address",
              "name": "buyer",
              "type": "address"
            },
            {
              "internalType": "uint128",
              "name": "slicerId",
              "type": "uint128"
            },
            {
              "internalType": "uint32",
              "name": "quantity",
              "type": "uint32"
            },
            {
              "internalType": "address",
              "name": "currency",
              "type": "address"
            },
            {
              "internalType": "uint32",
              "name": "productId",
              "type": "uint32"
            },
            {
              "internalType": "bytes",
              "name": "buyerCustomData",
              "type": "bytes"
            }
          ],
          "internalType": "struct PurchaseParams[]",
          "name": "purchases",
          "type": "tuple[]"
        },
        {
          "components": [
            {
              "internalType": "address",
              "name": "recipient",
              "type": "address"
            },
            {
              "internalType": "uint128",
              "name": "slicerId",
              "type": "uint128"
            },
            {
              "internalType": "uint128",
              "name": "amount",
              "type": "uint128"
            },
            {
              "internalType": "address",
              "name": "currency",
              "type": "address"
            },
            {
              "internalType": "string",
              "name": "description",
              "type": "string"
            }
          ],
          "internalType": "struct ExtraCost[]",
          "name": "extraCosts",
          "type": "tuple[]"
        },
        {
          "internalType": "address",
          "name": "referrer",
          "type": "address"
        },
        {
          "internalType": "address",
          "name": "buyer",
          "type": "address"
        }
      ],
      "name": "payProducts",
      "outputs": [],
      "stateMutability": "payable",
      "type": "function"
    },
    {
      "inputs": [
        {
          "components": [
            {
              "internalType": "address",
              "name": "buyer",
              "type": "address"
            },
            {
              "internalType": "uint128",
              "name": "slicerId",
              "type": "uint128"
            },
            {
              "internalType": "uint32",
              "name": "quantity",
              "type": "uint32"
            },
            {
              "internalType": "address",
              "name": "currency",
              "type": "address"
            },
            {
              "internalType": "uint32",
              "name": "productId",
              "type": "uint32"
            },
            {
              "internalType": "bytes",
              "name": "buyerCustomData",
              "type": "bytes"
            }
          ],
          "internalType": "struct PurchaseParams[]",
          "name": "purchases",
          "type": "tuple[]"
        }
      ],
      "name": "payProducts",
      "outputs": [],
      "stateMutability": "payable",
      "type": "function"
    },
    {
      "inputs": [
        {
          "components": [
            {
              "internalType": "address",
              "name": "buyer",
              "type": "address"
            },
            {
              "internalType": "uint128",
              "name": "slicerId",
              "type": "uint128"
            },
            {
              "internalType": "uint32",
              "name": "quantity",
              "type": "uint32"
            },
            {
              "internalType": "address",
              "name": "currency",
              "type": "address"
            },
            {
              "internalType": "uint32",
              "name": "productId",
              "type": "uint32"
            },
            {
              "internalType": "bytes",
              "name": "buyerCustomData",
              "type": "bytes"
            }
          ],
          "internalType": "struct PurchaseParams[]",
          "name": "purchases",
          "type": "tuple[]"
        },
        {
          "components": [
            {
              "internalType": "address",
              "name": "from",
              "type": "address"
            },
            {
              "internalType": "uint256",
              "name": "value",
              "type": "uint256"
            },
            {
              "internalType": "uint256",
              "name": "validAfter",
              "type": "uint256"
            },
            {
              "internalType": "uint256",
              "name": "validBefore",
              "type": "uint256"
            },
            {
              "internalType": "bytes32",
              "name": "nonce",
              "type": "bytes32"
            },
            {
              "internalType": "uint8",
              "name": "v",
              "type": "uint8"
            },
            {
              "internalType": "bytes32",
              "name": "r",
              "type": "bytes32"
            },
            {
              "internalType": "bytes32",
              "name": "s",
              "type": "bytes32"
            }
          ],
          "internalType": "struct PayWithAuthorizationParams",
          "name": "authorizationParams",
          "type": "tuple"
        },
        {
          "components": [
            {
              "internalType": "address",
              "name": "recipient",
              "type": "address"
            },
            {
              "internalType": "uint128",
              "name": "slicerId",
              "type": "uint128"
            },
            {
              "internalType": "uint128",
              "name": "amount",
              "type": "uint128"
            },
            {
              "internalType": "address",
              "name": "currency",
              "type": "address"
            },
            {
              "internalType": "string",
              "name": "description",
              "type": "string"
            }
          ],
          "internalType": "struct ExtraCost[]",
          "name": "extraCosts",
          "type": "tuple[]"
        },
        {
          "internalType": "address",
          "name": "referrer",
          "type": "address"
        },
        {
          "internalType": "contract IERC20Permit",
          "name": "currency",
          "type": "address"
        }
      ],
      "name": "payWithAuthorization",
      "outputs": [],
      "stateMutability": "payable",
      "type": "function"
    },
    {
      "inputs": [
        {
          "components": [
            {
              "internalType": "address",
              "name": "buyer",
              "type": "address"
            },
            {
              "internalType": "uint128",
              "name": "slicerId",
              "type": "uint128"
            },
            {
              "internalType": "uint32",
              "name": "quantity",
              "type": "uint32"
            },
            {
              "internalType": "address",
              "name": "currency",
              "type": "address"
            },
            {
              "internalType": "uint32",
              "name": "productId",
              "type": "uint32"
            },
            {
              "internalType": "bytes",
              "name": "buyerCustomData",
              "type": "bytes"
            }
          ],
          "internalType": "struct PurchaseParams[]",
          "name": "purchases",
          "type": "tuple[]"
        },
        {
          "components": [
            {
              "internalType": "address",
              "name": "from",
              "type": "address"
            },
            {
              "internalType": "uint256",
              "name": "value",
              "type": "uint256"
            },
            {
              "internalType": "uint256",
              "name": "validAfter",
              "type": "uint256"
            },
            {
              "internalType": "uint256",
              "name": "validBefore",
              "type": "uint256"
            },
            {
              "internalType": "bytes32",
              "name": "nonce",
              "type": "bytes32"
            },
            {
              "internalType": "uint8",
              "name": "v",
              "type": "uint8"
            },
            {
              "internalType": "bytes32",
              "name": "r",
              "type": "bytes32"
            },
            {
              "internalType": "bytes32",
              "name": "s",
              "type": "bytes32"
            }
          ],
          "internalType": "struct PayWithAuthorizationParams",
          "name": "authorizationParams",
          "type": "tuple"
        },
        {
          "components": [
            {
              "internalType": "address",
              "name": "recipient",
              "type": "address"
            },
            {
              "internalType": "uint128",
              "name": "slicerId",
              "type": "uint128"
            },
            {
              "internalType": "uint128",
              "name": "amount",
              "type": "uint128"
            },
            {
              "internalType": "address",
              "name": "currency",
              "type": "address"
            },
            {
              "internalType": "string",
              "name": "description",
              "type": "string"
            }
          ],
          "internalType": "struct ExtraCost[]",
          "name": "extraCosts",
          "type": "tuple[]"
        },
        {
          "internalType": "address",
          "name": "referrer",
          "type": "address"
        }
      ],
      "name": "payWithAuthorization",
      "outputs": [],
      "stateMutability": "payable",
      "type": "function"
    },
    {
      "inputs": [],
      "name": "priceFeed",
      "outputs": [
        {
          "internalType": "contract IPriceFeed",
          "name": "",
          "type": "address"
        }
      ],
      "stateMutability": "view",
      "type": "function"
    },
    {
      "inputs": [
        {
          "internalType": "uint256",
          "name": "slicerId",
          "type": "uint256"
        },
        {
          "internalType": "uint256",
          "name": "productId",
          "type": "uint256"
        },
        {
          "internalType": "address",
          "name": "currency",
          "type": "address"
        },
        {
          "internalType": "uint256",
          "name": "quantity",
          "type": "uint256"
        },
        {
          "internalType": "address",
          "name": "buyer",
          "type": "address"
        },
        {
          "internalType": "bytes",
          "name": "data",
          "type": "bytes"
        }
      ],
      "name": "productPrice",
      "outputs": [
        {
          "components": [
            {
              "internalType": "uint256",
              "name": "eth",
              "type": "uint256"
            },
            {
              "internalType": "uint256",
              "name": "currency",
              "type": "uint256"
            },
            {
              "internalType": "uint256",
              "name": "ethExternalCall",
              "type": "uint256"
            },
            {
              "internalType": "uint256",
              "name": "currencyExternalCall",
              "type": "uint256"
            }
          ],
          "internalType": "struct Price",
          "name": "price",
          "type": "tuple"
        }
      ],
      "stateMutability": "view",
      "type": "function"
    },
    {
      "inputs": [
        {
          "internalType": "uint256",
          "name": "",
          "type": "uint256"
        },
        {
          "internalType": "uint256",
          "name": "",
          "type": "uint256"
        }
      ],
      "name": "productTypes",
      "outputs": [
        {
          "internalType": "string",
          "name": "name",
          "type": "string"
        },
        {
          "internalType": "uint16",
          "name": "parentProductTypeId",
          "type": "uint16"
        }
      ],
      "stateMutability": "view",
      "type": "function"
    },
    {
      "inputs": [],
      "name": "proxiableUUID",
      "outputs": [
        {
          "internalType": "bytes32",
          "name": "",
          "type": "bytes32"
        }
      ],
      "stateMutability": "view",
      "type": "function"
    },
    {
      "inputs": [
        {
          "internalType": "uint256",
          "name": "slicerId",
          "type": "uint256"
        },
        {
          "internalType": "uint256",
          "name": "productId",
          "type": "uint256"
        }
      ],
      "name": "removeProduct",
      "outputs": [],
      "stateMutability": "nonpayable",
      "type": "function"
    },
    {
      "inputs": [],
      "name": "renounceOwnership",
      "outputs": [],
      "stateMutability": "nonpayable",
      "type": "function"
    },
    {
      "inputs": [
        {
          "components": [
            {
              "internalType": "uint256",
              "name": "slicerId",
              "type": "uint256"
            },
            {
              "internalType": "uint256",
              "name": "productId",
              "type": "uint256"
            },
            {
              "internalType": "uint8",
              "name": "newMaxUnits",
              "type": "uint8"
            },
            {
              "internalType": "bool",
              "name": "isFree",
              "type": "bool"
            },
            {
              "internalType": "bool",
              "name": "isInfinite",
              "type": "bool"
            },
            {
              "internalType": "uint32",
              "name": "newUnits",
              "type": "uint32"
            },
            {
              "internalType": "uint256",
              "name": "referralFeeProduct",
              "type": "uint256"
            },
            {
              "internalType": "uint256",
              "name": "categoryId",
              "type": "uint256"
            },
            {
              "internalType": "uint256",
              "name": "productTypeId",
              "type": "uint256"
            }
          ],
          "internalType": "struct EditProductParams",
          "name": "params",
          "type": "tuple"
        },
        {
          "components": [
            {
              "internalType": "uint248",
              "name": "value",
              "type": "uint248"
            },
            {
              "internalType": "bool",
              "name": "dynamicPricing",
              "type": "bool"
            },
            {
              "internalType": "address",
              "name": "externalAddress",
              "type": "address"
            },
            {
              "internalType": "address",
              "name": "currency",
              "type": "address"
            }
          ],
          "internalType": "struct CurrencyPrice[]",
          "name": "currencyPrices",
          "type": "tuple[]"
        },
        {
          "components": [
            {
              "internalType": "bytes",
              "name": "data",
              "type": "bytes"
            },
            {
              "internalType": "uint256",
              "name": "value",
              "type": "uint256"
            },
            {
              "internalType": "address",
              "name": "externalAddress",
              "type": "address"
            },
            {
              "internalType": "bytes4",
              "name": "checkFunctionSignature",
              "type": "bytes4"
            },
            {
              "internalType": "bytes4",
              "name": "execFunctionSignature",
              "type": "bytes4"
            }
          ],
          "internalType": "struct Function",
          "name": "externalCall_",
          "type": "tuple"
        }
      ],
      "name": "setProductInfo",
      "outputs": [],
      "stateMutability": "nonpayable",
      "type": "function"
    },
    {
      "inputs": [
        {
          "internalType": "uint256",
          "name": "slicerId",
          "type": "uint256"
        },
        {
          "internalType": "uint256",
          "name": "productTypeId",
          "type": "uint256"
        },
        {
          "internalType": "uint16",
          "name": "parentProductTypeId",
          "type": "uint16"
        },
        {
          "internalType": "string",
          "name": "name",
          "type": "string"
        }
      ],
      "name": "setProductType",
      "outputs": [],
      "stateMutability": "nonpayable",
      "type": "function"
    },
    {
      "inputs": [],
      "name": "sliceCore",
      "outputs": [
        {
          "internalType": "contract ISliceCore",
          "name": "",
          "type": "address"
        }
      ],
      "stateMutability": "view",
      "type": "function"
    },
    {
      "inputs": [
        {
          "internalType": "address",
          "name": "newOwner",
          "type": "address"
        }
      ],
      "name": "transferOwnership",
      "outputs": [],
      "stateMutability": "nonpayable",
      "type": "function"
    },
    {
      "inputs": [
        {
          "internalType": "address",
          "name": "newImplementation",
          "type": "address"
        }
      ],
      "name": "upgradeTo",
      "outputs": [],
      "stateMutability": "nonpayable",
      "type": "function"
    },
    {
      "inputs": [
        {
          "internalType": "address",
          "name": "newImplementation",
          "type": "address"
        },
        {
          "internalType": "bytes",
          "name": "data",
          "type": "bytes"
        }
      ],
      "name": "upgradeToAndCall",
      "outputs": [],
      "stateMutability": "payable",
      "type": "function"
    },
    {
      "inputs": [
        {
          "internalType": "uint256",
          "name": "slicerId",
          "type": "uint256"
        },
        {
          "internalType": "uint256",
          "name": "productId",
          "type": "uint256"
        }
      ],
      "name": "validatePurchase",
      "outputs": [
        {
          "internalType": "uint256",
          "name": "purchases",
          "type": "uint256"
        },
        {
          "internalType": "bytes",
          "name": "purchaseData",
          "type": "bytes"
        }
      ],
      "stateMutability": "view",
      "type": "function"
    },
    {
      "inputs": [
        {
          "internalType": "address",
          "name": "account",
          "type": "address"
        },
        {
          "internalType": "uint256",
          "name": "slicerId",
          "type": "uint256"
        },
        {
          "internalType": "uint256",
          "name": "productId",
          "type": "uint256"
        }
      ],
      "name": "validatePurchaseUnits",
      "outputs": [
        {
          "internalType": "uint256",
          "name": "purchases",
          "type": "uint256"
        }
      ],
      "stateMutability": "view",
      "type": "function"
    }
  ],
  "bytecode": "0x60a0604052306080523480156200001557600080fd5b506200002062000026565b620000e8565b600054610100900460ff1615620000935760405162461bcd60e51b815260206004820152602760248201527f496e697469616c697a61626c653a20636f6e747261637420697320696e697469604482015266616c697a696e6760c81b606482015260840160405180910390fd5b60005460ff9081161015620000e6576000805460ff191660ff9081179091556040519081527f7f26b83ff96e1f2b6a682f133852f6798a09c465da95921460cefb38474024989060200160405180910390a15b565b608051615e8b620001206000396000818161069e015281816106e701528181610b4201528181610b820152610cda0152615e8b6000f3fe6080604052600436106101e35760003560e01c8063780b1d2611610102578063c1226f8011610095578063e6e9280811610064578063e6e92808146105ce578063f2fde38b146105ee578063f3c9ba391461060e578063f4c763631461062e57600080fd5b8063c1226f801461053e578063c6cdbe5e1461056e578063d2c5ca9a1461058e578063d7a3d0c8146105a157600080fd5b8063a878ad01116100d1578063a878ad01146104ce578063aa4d16de146104e1578063ac9650d8146104f4578063b79811e21461052157600080fd5b8063780b1d261461045b5780638129fc1c1461047b5780638da5cb5b1461049057806395f23704146104ae57600080fd5b80635287d5351161017a5780635e8b09dc116101495780635e8b09dc146103be5780636740ff40146103de578063715018a61461041e578063741bef1a1461043357600080fd5b80635287d5351461033757806352d1902d1461035757806359e5f9591461037a5780635c975abb1461039a57600080fd5b806349eb1abe116101b657806349eb1abe146102a85780634c04e9c6146102d65780634dd0a6fd146103045780634f1ef2861461032457600080fd5b8063062b8b15146101e85780631eafafb4146101fd5780633659cfe6146102755780633bb9aa0614610295575b600080fd5b6101fb6101f63660046147da565b610656565b005b34801561020957600080fd5b5061025b610218366004614851565b600091825260fb60209081526040808420928452600192830190915290912060080154600160c81b810463ffffffff1692600160f01b909104821c909116151590565b604080519283529015156020830152015b60405180910390f35b34801561028157600080fd5b506101fb610290366004614873565b610694565b6101fb6102a3366004614890565b61077c565b3480156102b457600080fd5b506102c86102c3366004614851565b6107ef565b60405161026c929190614970565b3480156102e257600080fd5b506102f66102f1366004614851565b6108a2565b60405161026c929190614996565b34801561031057600080fd5b506101fb61031f3660046149ca565b6109f7565b6101fb610332366004614a2c565b610b38565b34801561034357600080fd5b506101fb610352366004614851565b610c08565b34801561036357600080fd5b5061036c610ccd565b60405190815260200161026c565b34801561038657600080fd5b506101fb610395366004614cb1565b610d80565b3480156103a657600080fd5b5060c95460ff165b604051901515815260200161026c565b3480156103ca57600080fd5b506101fb6103d9366004614e52565b6116c0565b3480156103ea57600080fd5b506104067361bcd1ed11fc03c958a847a6687b1875f5eacaaf81565b6040516001600160a01b03909116815260200161026c565b34801561042a57600080fd5b506101fb611868565b34801561043f57600080fd5b50610406732b3eee365ce2c8a21096a348fc9005233229b58f81565b34801561046757600080fd5b506101fb610476366004614ece565b61187c565b34801561048757600080fd5b506101fb61201a565b34801561049c57600080fd5b506097546001600160a01b0316610406565b3480156104ba57600080fd5b5061036c6104c9366004614fbf565b61212a565b6101fb6104dc366004615096565b612166565b6101fb6104ef366004615136565b612355565b34801561050057600080fd5b5061051461050f3660046151b5565b61237c565b60405161026c9190615229565b34801561052d57600080fd5b5061036c686c6b935b8bbd40000081565b34801561054a57600080fd5b5061036c61055936600461528b565b600090815260fb602052604090205460010190565b34801561057a57600080fd5b506102c861058936600461528b565b612471565b6101fb61059c3660046152a4565b61251b565b3480156105ad57600080fd5b506105c16105bc3660046152d8565b6125aa565b60405161026c9190615355565b3480156105da57600080fd5b506103ae6105e9366004615380565b61260c565b3480156105fa57600080fd5b506101fb610609366004614873565b612652565b34801561061a57600080fd5b506101fb6106293660046153ae565b6126c8565b34801561063a57600080fd5b50610406735cef0380ce0ad3daeefef8bdb85dbded7965adf981565b61068f83836040518060800160405280600015158152602001856001600160a01b03168152602001600081526020016000815250612775565b505050565b6001600160a01b037f00000000000000000000000000000000000000000000000000000000000000001630036106e55760405162461bcd60e51b81526004016106dc906153fc565b60405180910390fd5b7f00000000000000000000000000000000000000000000000000000000000000006001600160a01b031661072e600080516020615e0f833981519152546001600160a01b031690565b6001600160a01b0316146107545760405162461bcd60e51b81526004016106dc90615448565b61075d81612a78565b6040805160008082526020820190925261077991839190612a80565b50565b6107b584846040518060800160405280600015158152602001866001600160a01b03168152602001600081526020016000815250612775565b6040516001600160a01b038216907f947c20b95ed5f5f8f99d0a7f7d99fcd90f312c2dc785d4cf0567d2359c7ab68090600090a250505050565b60ff60209081526000928352604080842090915290825290208054819061081590615494565b80601f016020809104026020016040519081016040528092919081815260200182805461084190615494565b801561088e5780601f106108635761010080835404028352916020019161088e565b820191906000526020600020905b81548152906001019060200180831161087157829003601f168201915b5050506001909301549192505061ffff1682565b600060603073b9d5b99d5d0fa04dd7eb2b0cd7753317c2ea1a84146108da5760405163acbcffa760e01b815260040160405180910390fd5b600084815260fb60209081526040808320868452600101825280832033845290915281205463ffffffff169003610924576040516363aae7a360e01b815260040160405180910390fd5b600084815260fb602090815260408083208684526001018083528184203385528084529184205493879052909152600701805463ffffffff90921691819061096b90615494565b80601f016020809104026020016040519081016040528092919081815260200182805461099790615494565b80156109e45780601f106109b9576101008083540402835291602001916109e4565b820191906000526020600020905b8154815290600101906020018083116109c757829003601f168201915b50505050509050915091505b9250929050565b600084815260fb60205260409081902060030154905163166eb15b60e21b81523360048201526001600160a01b03909116906359bac56c90602401602060405180830381865afa158015610a4f573d6000803e3d6000fd5b505050506040513d601f19601f82011682018060405250810190610a7391906154ce565b610a905760405163ea8e4eb560e01b815260040160405180910390fd5b60408051808201825282815261ffff8416602080830191909152600087815260ff82528381208782528252929092208151805192939192610ad492849201906142f4565b50602091909101516001909101805461ffff191661ffff9092169190911790556040517fd16c0e7ae1bdcd77e184a213efdb26e89d5a097e5eb65ff6301db537d23b80be90610b2a9086908690869086906154eb565b60405180910390a150505050565b6001600160a01b037f0000000000000000000000000000000000000000000000000000000000000000163003610b805760405162461bcd60e51b81526004016106dc906153fc565b7f00000000000000000000000000000000000000000000000000000000000000006001600160a01b0316610bc9600080516020615e0f833981519152546001600160a01b031690565b6001600160a01b031614610bef5760405162461bcd60e51b81526004016106dc90615448565b610bf882612a78565b610c0482826001612a80565b5050565b600082815260fb60209081526040808320600381015485855260019091019092529091206001600160a01b03909116908190610c45818333612beb565b610c625760405163ea8e4eb560e01b815260040160405180910390fd5b60098101805463ffff000019169055600881018054600168ffffffff000000000160a01b0319169055610c99600682016000614378565b604051849086907fd647384cccbd8b477a7b02b9e866072937e9a23b473b9de13fc0c6cb1d392a0a90600090a35050505050565b6000306001600160a01b037f00000000000000000000000000000000000000000000000000000000000000001614610d6d5760405162461bcd60e51b815260206004820152603860248201527f555550535570677261646561626c653a206d757374206e6f742062652063616c60448201527f6c6564207468726f7567682064656c656761746563616c6c000000000000000060648201526084016106dc565b50600080516020615e0f83398151915290565b600083815260fb6020526040902080546001019081905563ffffffff811115610dbc57604051636dac6a0960e01b815260040160405180910390fd5b6127108361018001511115610de457604051636dac6a0960e01b815260040160405180910390fd5b80600103610f2e57604051630bafd3f560e11b815260048101859052600090735cef0380ce0ad3daeefef8bdb85dbded7965adf99063175fa7ea90602401602060405180830381865afa158015610e3f573d6000803e3d6000fd5b505050506040513d601f19601f82011682018060405250810190610e639190615514565b6001600160a01b031603610e8a57604051636dac6a0960e01b815260040160405180910390fd5b604051630bafd3f560e11b815260048101859052735cef0380ce0ad3daeefef8bdb85dbded7965adf99063175fa7ea90602401602060405180830381865afa158015610eda573d6000803e3d6000fd5b505050506040513d601f19601f82011682018060405250810190610efe9190615514565b600085815260fb6020526040902060030180546001600160a01b0319166001600160a01b03929092169190911790555b600084815260fb60205260409081902060030154905163166eb15b60e21b81523360048201526001600160a01b039091169081906359bac56c90602401602060405180830381865afa158015610f88573d6000803e3d6000fd5b505050506040513d601f19601f82011682018060405250810190610fac91906154ce565b610fc95760405163ea8e4eb560e01b815260040160405180910390fd5b600085815260fb6020908152604080832063ffffffff861684526001019091529020845151156110f25760005b8551518110156110f05761108060fb60008860000151848151811061101d5761101d615531565b6020026020010151600001516001600160801b0316815260200190815260200160002060010160008860000151848151811061105b5761105b615531565b60200260200101516020015163ffffffff168152602001908152602001600020612cf6565b816002018660000151828151811061109a5761109a615531565b602090810291909101810151825460018181018555600094855293839020825191018054929093015163ffffffff16600160801b026001600160a01b03199092166001600160801b039091161717905501610ff6565b505b6040805160808101825260008082526020820181905291810182905260608101829052905b8660200151518110156113d5578660200151818151811061113a5761113a615531565b6020026020010151915060006001600160a01b031682606001516001600160a01b0316141580156111d85750606082015160405163b25e9c3960e01b81526001600160a01b0391821660048201529085169063b25e9c3990602401602060405180830381865afa1580156111b2573d6000803e3d6000fd5b505050506040513d601f19601f820116820180604052508101906111d691906154ce565b155b156111f657604051630b27db6160e11b815260040160405180910390fd5b81516001600160f81b03161561124457815160608301516001600160a01b03166000908152600185016020526040902080546001600160f81b0319166001600160f81b039092169190911790555b81602001511561137a5760608201516001600160a01b03161561133857606082015160405163a2d7046f60e01b81526006602160991b0160048201526001600160a01b03909116602482015262093a80604482015260026064820152600090732b3eee365ce2c8a21096a348fc9005233229b58f9063a2d7046f906084016000604051808303816000875af11580156112e1573d6000803e3d6000fd5b505050506040513d6000823e601f3d908101601f1916820160405261130991908101906155bd565b505080519091506001600160a01b031661133657604051632b9bb16560e11b815260040160405180910390fd5b505b60208083015160608401516001600160a01b031660009081526001860190925260409091208054911515600160f81b026001600160f81b039092169190911790555b60408201516001600160a01b0316156113cd5760408281015160608401516001600160a01b039081166000908152600187810160205293902090920180546001600160a01b031916929091169190911790555b600101611117565b5060408501516001600160a01b0316156114695784518051869160038501916114059183916020909101906142f4565b5060208201516001820155604082015160029091018054606084015160809094015160e090811c600160c01b0263ffffffff60c01b199590911c600160a01b026001600160c01b03199092166001600160a01b039094169390931717929092161790555b856101600151156114985760088201805460ff60f01b1981166004600160f01b9283900460ff16179091021790555b856101400151156114f057612710856020015111156114ca57604051633806212b60e21b815260040160405180910390fd5b6008828101805460ff60f01b198116600160f01b9182900460ff16909317029190911790555b60a086015161ffff161561151057611510828760a0015161ffff16612d21565b60c086015161ffff16156115315761153182888860c0015161ffff16612d84565b6008820180546001600160a01b03191633179055610100860151156115745760088201805460ff60f01b1981166001600160f01b9283900460ff16179091021790555b60e086015160ff16156115a75760e086015160088301805460ff909216600160e81b0260ff60e81b199092169190911790555b856101200151156115da5760088201805460ff60f01b1981166002600160f01b9283900460ff1617909102179055611606565b608086015160088301805463ffffffff909216600160c81b0263ffffffff60c81b199092169190911790555b6040860151511561162e576040860151805161162c9160068501916020909101906142f4565b505b6060860151511561165657606086015180516116549160078501916020909101906142f4565b505b8561018001518260090160006101000a81548161ffff021916908361ffff16021790555083877f46fd72a3edcc3e64ce4c031d20b52b4d2676d312c7f647bbae3340f7c56bf1723389896040516116af939291906157a3565b60405180910390a350505050505050565b604051630bafd3f560e11b815260048101849052600090735cef0380ce0ad3daeefef8bdb85dbded7965adf99063175fa7ea90602401602060405180830381865afa158015611713573d6000803e3d6000fd5b505050506040513d601f19601f820116820180604052508101906117379190615514565b60405163166eb15b60e21b81523360048201529091506001600160a01b038216906359bac56c90602401602060405180830381865afa15801561177e573d6000803e3d6000fd5b505050506040513d601f19601f820116820180604052508101906117a291906154ce565b6117bf5760405163ea8e4eb560e01b815260040160405180910390fd5b6127108211156117e257604051636dac6a0960e01b815260040160405180910390fd5b6040805184151581526020810184905285917fb0b88304f8c02c0665b0e2045748dc61c9514689390192154a569ee763f3cc3b910160405180910390a250600092835260fb6020526040909220600301805461ffff909316600160a81b0261ffff60a81b19921515600160a01b029290921662ffffff60a01b1990931692909217179055565b611870612df6565b61187a6000612e50565b565b8351600090815260fb6020908152604080832060030154875184528184208389015185526001019092529091206001600160a01b039091169081906118c2818333612beb565b6118df5760405163ea8e4eb560e01b815260040160405180910390fd5b6127108760c00151111561190657604051636dac6a0960e01b815260040160405180910390fd5b600981015460e08801516201000090910461ffff161461192e5761192e818860e00151612d21565b600981015461010088015164010000000090910461ffff161461195f5761195f818860000151896101000151612d84565b8415611cb2576040805160808101825260008082526020820181905291810182905260608101829052905b86811015611caf578787828181106119a4576119a4615531565b9050608002018036038101906119ba91906158ed565b60608101519092506001600160a01b031615611a5d57606082015160405163b25e9c3960e01b81526001600160a01b0391821660048201529085169063b25e9c3990602401602060405180830381865afa158015611a1c573d6000803e3d6000fd5b505050506040513d601f19601f82011682018060405250810190611a4091906154ce565b611a5d57604051630b27db6160e11b815260040160405180910390fd5b60608201516001600160a01b0316600090815260018401602052604090205482516001600160f81b03908116911614611ace57815160608301516001600160a01b03166000908152600185016020526040902080546001600160f81b0319166001600160f81b039092169190911790555b60608201516001600160a01b0316600090815260018401602090815260409091205490830151600160f81b90910460ff16151590151514611c355760608201516001600160a01b031615611bf357606082015160405163a2d7046f60e01b81526006602160991b0160048201526001600160a01b03909116602482015262093a80604482015260026064820152600090732b3eee365ce2c8a21096a348fc9005233229b58f9063a2d7046f906084016000604051808303816000875af1158015611b9c573d6000803e3d6000fd5b505050506040513d6000823e601f3d908101601f19168201604052611bc491908101906155bd565b505080519091506001600160a01b0316611bf157604051632b9bb16560e11b815260040160405180910390fd5b505b60208083015160608401516001600160a01b031660009081526001860190925260409091208054911515600160f81b026001600160f81b039092169190911790555b60608201516001600160a01b03908116600090815260018086016020526040918290200154908401518216911614611ca75760408281015160608401516001600160a01b039081166000908152600187810160205293902090920180546001600160a01b031916929091169190911790555b60010161198a565b50505b86606001518015611ccf57506008810154600160f01b9004600116155b80611cf457508660600151158015611cf457506008810154600160f01b900460011615155b15611d1f5760088101805460ff600160f01b80830482166001189091160260ff60f01b199091161790555b86608001518015611d3f57506008810154600160f01b9004600190811c16155b80611d6757508660800151158015611d6757506008810154600160f01b9004600190811c1615155b15611d925760088101805460ff600160f01b80830482166002189091160260ff60f01b199091161790555b60408701516008820154600160e81b900460ff908116911614611dd557604087015160088201805460ff909216600160e81b0260ff60e81b199092169190911790555b866080015115611df65760088101805463ffffffff60c81b19169055611e42565b60a08701516008820154600160c81b900463ffffffff908116911614611e425760a087015160088201805463ffffffff909216600160c81b0263ffffffff60c81b199092169190911790555b60408401516001600160a01b031615611f1b578351805185916003840191611e719183916020909101906142f4565b5060208281015160018301556040808401516002909301805460608601516080909601516001600160a01b039095166001600160c01b031990911617600160a01b60e096871c021763ffffffff60c01b1916600160c01b9490951c9390930293909317909155880151885191519091907f1dc9b6a2e759a6aba0408c06b83deb0f57c90dee629f039e0b31423a1337785d90611f0e908890615909565b60405180910390a3611fa6565b60808401516001600160e01b031916600160e01b03611fa657600381016000611f448282614378565b50600060018201819055600290910180546001600160e01b03191690556080850152602087015187516040517f1dc9b6a2e759a6aba0408c06b83deb0f57c90dee629f039e0b31423a1337785d90611f9d908890615909565b60405180910390a35b60c087015160098201805461ffff191661ffff90921691909117905560088101546040517f7ab4fd7e169709d003204efc66f3fc7e826e050103c2adbbaf31ccc6ea51634191612009918a91600160c81b900463ffffffff16908a908a906159a5565b60405180910390a150505050505050565b600054610100900460ff161580801561203a5750600054600160ff909116105b806120545750303b158015612054575060005460ff166001145b6120b75760405162461bcd60e51b815260206004820152602e60248201527f496e697469616c697a61626c653a20636f6e747261637420697320616c72656160448201526d191e481a5b9a5d1a585b1a5e995960921b60648201526084016106dc565b6000805460ff1916600117905580156120da576000805461ff0019166101001790555b6120e2612ea9565b8015610779576000805461ff0019169055604051600181527f7f26b83ff96e1f2b6a682f133852f6798a09c465da95921460cefb38474024989060200160405180910390a150565b600082815260fb6020908152604080832084845260010182528083206001600160a01b038716845290915290205463ffffffff165b9392505050565b60208401511561222957835160208501516040808701516060880151608089015160a08a015160c08b015160e08c015195516371f70b0760e11b81526001600160a01b03988916600482015230602482015260448101979097526064870194909452608486019290925260a485015260ff1660c484015260e48301526101048201529082169063e3ee160e9061012401600060405180830381600087803b15801561221057600080fd5b505af1158015612224573d6000803e3d6000fd5b505050505b61226285846040518060800160405280600115158152602001866001600160a01b03168152602001600081526020016000815250612775565b6040516370a0823160e01b81523060048201526000906001600160a01b038316906370a0823190602401602060405180830381865afa1580156122a9573d6000803e3d6000fd5b505050506040513d601f19601f820116820180604052508101906122cd9190615a4f565b9050801561234d57845160405163a9059cbb60e01b81526001600160a01b039182166004820152602481018390529083169063a9059cbb906044016020604051808303816000875af1158015612327573d6000803e3d6000fd5b505050506040513d601f19601f8201168201806040525081019061234b91906154ce565b505b505050505050565b6123768484848473833589fcd6edb6e08f4c7c32d4f71b54bda02913612166565b50505050565b6060816001600160401b03811115612396576123966143c3565b6040519080825280602002602001820160405280156123c957816020015b60608152602001906001900390816123b45790505b50905060005b8281101561246957612439308585848181106123ed576123ed615531565b90506020028101906123ff9190615a68565b8080601f016020809104026020016040519081016040528093929190818152602001838380828437600092019190915250612ed892505050565b82828151811061244b5761244b615531565b6020026020010181905250808061246190615ac4565b9150506123cf565b505b92915050565b60fe60205260009081526040902060018101805461248e90615494565b80601f01602080910402602001604051908101604052809291908181526020018280546124ba90615494565b80156125075780601f106124dc57610100808354040283529160200191612507565b820191906000526020600020905b8154815290600101906020018083116124ea57829003601f168201915b5050506002909301549192505061ffff1682565b6040805160008082526020820190925261077991839190612574565b6040805160a08101825260008082526020808301829052928201819052606080830191909152608082015282526000199092019101816125375790505b50604051806080016040528060001515815260200160006001600160a01b03168152602001600081526020016000815250612775565b6125d56040518060800160405280600081526020016000815260200160008152602001600081525090565b600087815260fb60209081526040808320898452600101909152902061260081898989898989612fcc565b98975050505050505050565b600083815260fb6020818152604080842086855260018101835290842087855292909152600301546001600160a01b0316612648828286612beb565b9695505050505050565b61265a612df6565b6001600160a01b0381166126bf5760405162461bcd60e51b815260206004820152602660248201527f4f776e61626c653a206e6577206f776e657220697320746865207a65726f206160448201526564647265737360d01b60648201526084016106dc565b61077981612e50565b6126d0612df6565b600083815260fe602052604080822061ffff85168352912060010180546126f690615494565b905060000361271857604051636b3ac97b60e11b815260040160405180910390fd5b815161272d90600183019060208501906142f4565b5060028101805461ffff191661ffff85161790556040517f6ce7820c104591ca5f30885bf32f653a8c6a2440e61966e96d5b49a58b0f981190610b2a90869086908690615add565b61277d6134ed565b6000336001600160a01b031682602001516001600160a01b0316036127a457600060208301525b60005b84518110156127e7576127d38582815181106127c5576127c5615531565b602002602001015184613533565b6127dd9083615b00565b91506001016127a7565b506040805160a0810182526000808252602082018190529181018290526060808201839052608082015290805b8551811015612a595785818151811061282f5761282f615531565b602090810291909101015180519093506001600160a01b03166128d3576020830151604051630bafd3f560e11b81526001600160801b039091166004820152735cef0380ce0ad3daeefef8bdb85dbded7965adf99063175fa7ea90602401602060405180830381865afa1580156128aa573d6000803e3d6000fd5b505050506040513d601f19601f820116820180604052508101906128ce9190615514565b6128d6565b82515b60608401519092506001600160a01b0316612933576040830151612903906001600160801b031685615b00565b935061292e83604001516001600160801b0316836001600160a01b0316613ed290919063ffffffff16565b6129f0565b82516001600160a01b03166129cf57606083015160405163b25e9c3960e01b81526001600160a01b0391821660048201529083169063b25e9c3990602401602060405180830381865afa15801561298e573d6000803e3d6000fd5b505050506040513d601f19601f820116820180604052508101906129b291906154ce565b6129cf57604051630b27db6160e11b815260040160405180910390fd5b6129f0856000015184606001518486604001516001600160801b0316613f23565b82604001516001600160801b0316826001600160a01b031684606001516001600160a01b03167faf4e8fbdf3eeda1bb461f86b73d9341aad76a124175886910acc8ce457007ced8660800151604051612a499190615b18565b60405180910390a4600101612814565b506000612a668434615b2b565b9050801561234b5761234b3382613ed2565b610779612df6565b7f4910fdfa16fed3260ed0e7147f7cc6da11a60208b5b9406d12a635614ffd91435460ff1615612ab35761068f8361401a565b826001600160a01b03166352d1902d6040518163ffffffff1660e01b8152600401602060405180830381865afa925050508015612b0d575060408051601f3d908101601f19168201909252612b0a91810190615a4f565b60015b612b705760405162461bcd60e51b815260206004820152602e60248201527f45524331393637557067726164653a206e657720696d706c656d656e7461746960448201526d6f6e206973206e6f74205555505360901b60648201526084016106dc565b600080516020615e0f8339815191528114612bdf5760405162461bcd60e51b815260206004820152602960248201527f45524331393637557067726164653a20756e737570706f727465642070726f786044820152681a58589b195555525160ba1b60648201526084016106dc565b5061068f8383836140b6565b6000612bf684612cf6565b600884015460405163166eb15b60e21b81526001600160a01b039182166004820152908416906359bac56c90602401602060405180830381865afa158015612c42573d6000803e3d6000fd5b505050506040513d601f19601f82011682018060405250810190612c6691906154ce565b15612c84575060088301546001600160a01b0382811691161461215f565b60405163166eb15b60e21b81526001600160a01b0383811660048301528416906359bac56c90602401602060405180830381865afa158015612cca573d6000803e3d6000fd5b505050506040513d601f19601f82011682018060405250810190612cee91906154ce565b949350505050565b60088101546001600160a01b0316610779576040516329c2f8dd60e11b815260040160405180910390fd5b600081815260fe60205260409020600181018054612d3e90615494565b9050600003612d6057604051636b3ac97b60e11b815260040160405180910390fd5b506009909101805461ffff909216620100000263ffff000019909216919091179055565b600082815260ff60209081526040808320848452909152902080548190612daa90615494565b9050600003612dcc57604051633b2d2d1d60e21b815260040160405180910390fd5b506009909201805461ffff9093166401000000000265ffff00000000199093169290921790915550565b6097546001600160a01b0316331461187a5760405162461bcd60e51b815260206004820181905260248201527f4f776e61626c653a2063616c6c6572206973206e6f7420746865206f776e657260448201526064016106dc565b609780546001600160a01b038381166001600160a01b0319831681179093556040519116919082907f8be0079c531659141344cd1fd0a4f28419497f9722a3daafe3b4186f6b6457e090600090a35050565b5050505050565b600054610100900460ff16612ed05760405162461bcd60e51b81526004016106dc90615b42565b61187a6140db565b60606001600160a01b0383163b612f405760405162461bcd60e51b815260206004820152602660248201527f416464726573733a2064656c65676174652063616c6c20746f206e6f6e2d636f6044820152651b9d1c9858dd60d21b60648201526084016106dc565b600080846001600160a01b031684604051612f5b9190615b8d565b600060405180830381855af49150503d8060008114612f96576040519150601f19603f3d011682016040523d82523d6000602084013e612f9b565b606091505b5091509150612fc38282604051806060016040528060278152602001615e2f6027913961410b565b95945050505050565b612ff76040518060800160405280600081526020016000815260200160008152602001600081525090565b61300088612cf6565b6001600160a01b0380861660009081526001808b016020908152604092839020835160608101855281546001600160f81b038116825260ff600160f81b909104811615159382019390935292015490931691810182905260088b01549092600160f01b9091041690613355576001600160a01b03871661309b578561308a83600184161515614124565b6130949190615ba9565b83526133d7565b8160200151156132c557600080805260018b0160205260409020546001600160f81b03161515806130d5575081516001600160f81b031615155b1561329c5781516000906001600160f81b0316810361315257600080805260018c81016020908152604092839020835160608101855281546001600160f81b0381168252600160f81b900460ff161515928101929092528201546001600160a01b03169281019290925261314d919084161515614124565b61315e565b82516001600160f81b03165b90506001600160801b0381111561318857604051633806212b60e21b815260040160405180910390fd5b6040516331b889b160e11b81528790732b3eee365ce2c8a21096a348fc9005233229b58f906363711362906131d09085906006602160991b01908e9061070890600401615bc8565b602060405180830381865afa1580156131ed573d6000803e3d6000fd5b505050506040513d601f19601f820116820180604052508101906132119190615a4f565b61321b9190615ba9565b6020850181905260000361329657600080805260018c81016020908152604092839020835160608101855281546001600160f81b0381168252600160f81b900460ff161515928101929092528201546001600160a01b03169281019290925288916132899185161515614124565b6132939190615ba9565b84525b506133d7565b600181166000036132c057604051630b27db6160e11b815260040160405180910390fd5b6133d7565b81516001600160f81b0316156132f55781516132eb9087906001600160f81b0316615ba9565b60208401526133d7565b600080805260018b81016020908152604092839020835160608101855281546001600160f81b0381168252600160f81b900460ff161515928101929092528201546001600160a01b031692810192909252879161308a9184161515614124565b81604001516001600160a01b031663d7a3d0c88a8a8a8a8a8a6040518763ffffffff1660e01b815260040161338f96959493929190615bfe565b6040805180830381865afa1580156133ab573d6000803e3d6000fd5b505050506040513d601f19601f820116820180604052508101906133cf9190615c3e565b602085015283525b60048a0154156134e0576001600382901c1615801561345b576001600283901c161580159061343f57846020015160000361342557604051630b27db6160e11b815260040160405180910390fd5b60048c0154613435908990615ba9565b6060860152613455565b60048c015461344f908990615ba9565b60408601525b506134de565b6020840151156134a65760048b015460208501516127109161347c91615ba9565b6134869190615c62565b6060850181905260208501805161349e908390615b2b565b9052506134de565b60048b01548451612710916134ba91615ba9565b6134c49190615c62565b60408501819052845185906134da908390615b2b565b9052505b505b5050979650505050505050565b60c95460ff161561187a5760405162461bcd60e51b815260206004820152601060248201526f14185d5cd8589b194e881c185d5cd95960821b60448201526064016106dc565b6000826040015163ffffffff1660001461246b576020838101516001600160801b0316600090815260fb9091526040902060030154600160a01b900460ff161561359057604051632149aed960e21b815260040160405180910390fd5b82600001516001600160a01b031682602001516001600160a01b0316036135b957600060208301525b600060fb600085602001516001600160801b031681526020019081526020016000206001016000856080015163ffffffff168152602001908152602001600020905060006136398286602001516001600160801b0316876080015163ffffffff168860600151896040015163ffffffff168a600001518b60a00151612fcc565b6020868101516001600160801b0316600090815260fb909152604090206003015460088401549192506001600160a01b031690600160e81b900460ff16156136e157600883015460408781015188516001600160a01b0316600090815260208790529190912054600160e81b90920460ff16916136bc919063ffffffff16615c84565b63ffffffff1611156136e157604051636dac6a0960e01b815260040160405180910390fd5b6008830154600160f01b9004600190811c16600003613769576008830154604087015163ffffffff600160c81b90920482169116111561373457604051636dac6a0960e01b815260040160405180910390fd5b604086015160088401805463ffffffff600160c81b8083048216949094031690920263ffffffff60c81b199092169190911790555b6040820151825161377a9190615b00565b825190945015801590613799575060208501516001600160a01b031615155b1561382957600983015461ffff1660008190036137de57506020868101516001600160801b0316600090815260fb9091526040902060030154600160a81b900461ffff165b80156138275760006127108285600001516137f99190615ba9565b6138039190615c62565b845181900385526020880151909150613825906001600160a01b031682613ed2565b505b505b815161383f906001600160a01b03831690613ed2565b60408087015187516001600160a01b03166000908152602086905291822080549192909161387490849063ffffffff16615c84565b92506101000a81548163ffffffff021916908363ffffffff16021790555081602001516000146139595760208501516001600160a01b03161561394157600983015461ffff1660008190036138f157506020868101516001600160801b0316600090815260fb9091526040902060030154600160a81b900461ffff165b801561393f57600061271082856020015161390c9190615ba9565b6139169190615c62565b602080860180518390039052885160608b0151918a015192935061393d9290919084613f23565b505b505b61395985600001518760600151838560200151613f23565b600283015415613aa65760005b6002840154811015613aa457613a906040518060c0016040528089600001516001600160a01b031681526020018660020184815481106139a8576139a8615531565b9060005260206000200160000160009054906101000a90046001600160801b03166001600160801b03168152602001896040015163ffffffff16815260200189606001516001600160a01b03168152602001866002018481548110613a0f57613a0f615531565b9060005260206000200160000160109054906101000a900463ffffffff1663ffffffff1681526020018960a00151815250604051806080016040528089600001511515815260200189602001516001600160a01b031681526020018a602001516001600160801b031681526020018a6080015163ffffffff16815250613533565b613a9a9086615b00565b9450600101613966565b505b60058301546001600160a01b031615613e4d576005830154600090600160c01b900460e01b6001600160e01b03191615613bcd5760058401546001600160a01b03838116911614613e2d57600584015460408085015160208a015160808b01518b518c85015160a08e015195516001600160a01b038816979596600160c01b90960460e01b95613b42959493929160038e019190602401615cac565b60408051601f198184030181529181526020820180516001600160e01b03166001600160e01b0319909416939093179092529051613b809190615b8d565b60006040518083038185875af1925050503d8060008114613bbd576040519150601f19603f3d011682016040523d82523d6000602084013e613bc2565b606091505b505080915050613e2d565b606083015115613d2f57613c03866000015188606001517361bcd1ed11fc03c958a847a6687b1875f5eacaaf8660600151613f23565b602087015160058501546060808a015190860151604051630b90c4a560e11b8152600481018290526001600160a01b0380841660248301527361bcd1ed11fc03c958a847a6687b1875f5eacaaf956359fc470a9590949082169390929091891690631721894a90604401602060405180830381865afa158015613c8a573d6000803e3d6000fd5b505050506040513d601f19601f82011682018060405250810190613cae9190615a4f565b6040516001600160e01b031960e088901b1681526001600160801b0390951660048601526001600160a01b0393841660248601529290911660448401526064830152608482015260a401600060405180830381600087803b158015613d1257600080fd5b505af1158015613d26573d6000803e3d6000fd5b50505050613e29565b60408381015160058601549151630b90c4a560e11b815260048101829052600060248201527361bcd1ed11fc03c958a847a6687b1875f5eacaaf926339ed512392916001600160a01b0391821691871690631721894a90604401602060405180830381865afa158015613da6573d6000803e3d6000fd5b505050506040513d601f19601f82011682018060405250810190613dca9190615a4f565b6040516001600160e01b031960e086901b1681526001600160a01b03909216600483015260248201526044016000604051808303818588803b158015613e0f57600080fd5b505af1158015613e23573d6000803e3d6000fd5b50505050505b5060015b80613e4b5760405163af6eefa360e01b815260040160405180910390fd5b505b85600001516001600160a01b0316866080015163ffffffff1687602001516001600160801b03167f392f594e624e358091bb17d04cc5fac6221a0d9d1218d3dd08a007b0de11f21b89604001518a60600151878b602001518c604001518d60600151604051613ec196959493929190615da2565b60405180910390a450505092915050565b600080600080600085875af190508061068f5760405162461bcd60e51b815260206004820152601360248201527211551217d514905394d1915497d19052531151606a1b60448201526064016106dc565b83613fa7576040516323b872dd60e01b81523360048201526001600160a01b038381166024830152604482018390528416906323b872dd906064016020604051808303816000875af1158015613f7d573d6000803e3d6000fd5b505050506040513d601f19601f82011682018060405250810190613fa191906154ce565b50612376565b60405163a9059cbb60e01b81526001600160a01b0383811660048301526024820183905284169063a9059cbb906044016020604051808303816000875af1158015613ff6573d6000803e3d6000fd5b505050506040513d601f19601f82011682018060405250810190612ea291906154ce565b6001600160a01b0381163b6140875760405162461bcd60e51b815260206004820152602d60248201527f455243313936373a206e657720696d706c656d656e746174696f6e206973206e60448201526c1bdd08184818dbdb9d1c9858dd609a1b60648201526084016106dc565b600080516020615e0f83398151915280546001600160a01b0319166001600160a01b0392909216919091179055565b6140bf8361428a565b6000825111806140cc5750805b1561068f576123768383612ed8565b600054610100900460ff166141025760405162461bcd60e51b81526004016106dc90615b42565b61187a33612e50565b6060831561411a57508161215f565b61215f83836142ca565b81516000906001600160f81b031615801561413d575081155b1561415b57604051630b27db6160e11b815260040160405180910390fd5b82602001511561427b5782516001600160801b036001600160f81b03909116111561419957604051633806212b60e21b815260040160405180910390fd5b82516040516331b889b160e11b8152732b3eee365ce2c8a21096a348fc9005233229b58f916363711362916141f4919073833589fcd6edb6e08f4c7c32d4f71b54bda02913906006602160991b019061070890600401615bc8565b602060405180830381865afa158015614211573d6000803e3d6000fd5b505050506040513d601f19601f820116820180604052508101906142359190615a4f565b9050806000036142765760405162461bcd60e51b815260206004820152600c60248201526b125b9d985b1a59081c1bdbdb60a21b60448201526064016106dc565b61246b565b5050516001600160f81b031690565b6142938161401a565b6040516001600160a01b038216907fbc7cd75a20ee27fd9adebab32041f755214dbc6bffa90cc0225b39da2e5c2d3b90600090a250565b8151156142da5781518083602001fd5b8060405162461bcd60e51b81526004016106dc9190615b18565b82805461430090615494565b90600052602060002090601f0160209004810192826143225760008555614368565b82601f1061433b57805160ff1916838001178555614368565b82800160010185558215614368579182015b8281111561436857825182559160200191906001019061434d565b506143749291506143ae565b5090565b50805461438490615494565b6000825580601f10614394575050565b601f01602090049060005260206000209081019061077991905b5b8082111561437457600081556001016143af565b634e487b7160e01b600052604160045260246000fd5b60405160c081016001600160401b03811182821017156143fb576143fb6143c3565b60405290565b60405160a081016001600160401b03811182821017156143fb576143fb6143c3565b604080519081016001600160401b03811182821017156143fb576143fb6143c3565b604051608081016001600160401b03811182821017156143fb576143fb6143c3565b6040516101a081016001600160401b03811182821017156143fb576143fb6143c3565b60405161012081016001600160401b03811182821017156143fb576143fb6143c3565b604051601f8201601f191681016001600160401b03811182821017156144d5576144d56143c3565b604052919050565b60006001600160401b038211156144f6576144f66143c3565b5060051b60200190565b6001600160a01b038116811461077957600080fd5b80356001600160801b038116811461452c57600080fd5b919050565b803563ffffffff8116811461452c57600080fd5b600082601f83011261455657600080fd5b81356001600160401b0381111561456f5761456f6143c3565b614582601f8201601f19166020016144ad565b81815284602083860101111561459757600080fd5b816020850160208301376000918101602001919091529392505050565b600082601f8301126145c557600080fd5b813560206145da6145d5836144dd565b6144ad565b82815260059290921b840181019181810190868411156145f957600080fd5b8286015b848110156146ce5780356001600160401b038082111561461d5760008081fd5b9088019060c0828b03601f19018113156146375760008081fd5b61463f6143d9565b8784013561464c81614500565b8152604061465b858201614515565b89830152606061466c818701614531565b82840152608091508186013561468181614500565b9083015260a0614692868201614531565b838301529285013592848411156146ab57600091508182fd5b6146b98e8b86890101614545565b908301525086525050509183019183016145fd565b509695505050505050565b600082601f8301126146ea57600080fd5b813560206146fa6145d5836144dd565b82815260059290921b8401810191818101908684111561471957600080fd5b8286015b848110156146ce5780356001600160401b038082111561473d5760008081fd5b9088019060a0828b03601f19018113156147575760008081fd5b61475f614401565b8784013561476c81614500565b8152604061477b858201614515565b89830152606061478c818701614515565b8284015260809150818601356147a181614500565b908301529184013591838311156147b85760008081fd5b6147c68d8a85880101614545565b90820152865250505091830191830161471d565b6000806000606084860312156147ef57600080fd5b83356001600160401b038082111561480657600080fd5b614812878388016145b4565b9450602086013591508082111561482857600080fd5b50614835868287016146d9565b925050604084013561484681614500565b809150509250925092565b6000806040838503121561486457600080fd5b50508035926020909101359150565b60006020828403121561488557600080fd5b813561215f81614500565b600080600080608085870312156148a657600080fd5b84356001600160401b03808211156148bd57600080fd5b6148c9888389016145b4565b955060208701359150808211156148df57600080fd5b506148ec878288016146d9565b93505060408501356148fd81614500565b9150606085013561490d81614500565b939692955090935050565b60005b8381101561493357818101518382015260200161491b565b838111156123765750506000910152565b6000815180845261495c816020860160208601614918565b601f01601f19169290920160200192915050565b6040815260006149836040830185614944565b905061ffff831660208301529392505050565b828152604060208201526000612cee6040830184614944565b61ffff8116811461077957600080fd5b803561452c816149af565b600080600080608085870312156149e057600080fd5b843593506020850135925060408501356149f9816149af565b915060608501356001600160401b03811115614a1457600080fd5b614a2087828801614545565b91505092959194509250565b60008060408385031215614a3f57600080fd5b8235614a4a81614500565b915060208301356001600160401b03811115614a6557600080fd5b614a7185828601614545565b9150509250929050565b600082601f830112614a8c57600080fd5b81356020614a9c6145d5836144dd565b82815260069290921b84018101918181019086841115614abb57600080fd5b8286015b848110156146ce5760408189031215614ad85760008081fd5b614ae0614423565b614ae982614515565b8152614af6858301614531565b81860152835291830191604001614abf565b80356001600160f81b038116811461452c57600080fd5b801515811461077957600080fd5b803561452c81614b1f565b600060808284031215614b4a57600080fd5b614b52614445565b9050614b5d82614b08565b81526020820135614b6d81614b1f565b60208201526040820135614b8081614500565b60408201526060820135614b9381614500565b606082015292915050565b600082601f830112614baf57600080fd5b81356020614bbf6145d5836144dd565b82815260079290921b84018101918181019086841115614bde57600080fd5b8286015b848110156146ce57614bf48882614b38565b835291830191608001614be2565b803560ff8116811461452c57600080fd5b80356001600160e01b03198116811461452c57600080fd5b600060a08284031215614c3d57600080fd5b614c45614401565b905081356001600160401b03811115614c5d57600080fd5b614c6984828501614545565b825250602082013560208201526040820135614c8481614500565b6040820152614c9560608301614c13565b6060820152614ca660808301614c13565b608082015292915050565b600080600060608486031215614cc657600080fd5b8335925060208401356001600160401b0380821115614ce457600080fd5b908501906101a08288031215614cf957600080fd5b614d01614467565b823582811115614d1057600080fd5b614d1c89828601614a7b565b825250602083013582811115614d3157600080fd5b614d3d89828601614b9e565b602083015250604083013582811115614d5557600080fd5b614d6189828601614545565b604083015250606083013582811115614d7957600080fd5b614d8589828601614545565b606083015250614d9760808401614531565b6080820152614da860a084016149bf565b60a0820152614db960c084016149bf565b60c0820152614dca60e08401614c02565b60e0820152610100614ddd818501614b2d565b90820152610120614def848201614b2d565b90820152610140614e01848201614b2d565b90820152610160614e13848201614b2d565b90820152610180928301359281019290925290925060408501359080821115614e3b57600080fd5b50614e4886828701614c2b565b9150509250925092565b600080600060608486031215614e6757600080fd5b833592506020840135614e7981614b1f565b929592945050506040919091013590565b60008083601f840112614e9c57600080fd5b5081356001600160401b03811115614eb357600080fd5b6020830191508360208260071b85010111156109f057600080fd5b600080600080848603610160811215614ee657600080fd5b61012080821215614ef657600080fd5b614efe61448a565b91508635825260208701356020830152614f1a60408801614c02565b6040830152614f2b60608801614b2d565b6060830152614f3c60808801614b2d565b6080830152614f4d60a08801614531565b60a083015260c0878101359083015260e0808801359083015261010080880135908301529094508501356001600160401b0380821115614f8c57600080fd5b614f9888838901614e8a565b9095509350610140870135915080821115614fb257600080fd5b50614a2087828801614c2b565b600080600060608486031215614fd457600080fd5b8335614fdf81614500565b95602085013595506040909401359392505050565b600061010080838503121561500857600080fd5b604051908101906001600160401b038211818310171561502a5761502a6143c3565b816040528092508335915061503e82614500565b8181526020840135602082015260408401356040820152606084013560608201526080840135608082015261507560a08501614c02565b60a082015260c084013560c082015260e084013560e0820152505092915050565b600080600080600061018086880312156150af57600080fd5b85356001600160401b03808211156150c657600080fd5b6150d289838a016145b4565b96506150e18960208a01614ff4565b95506101208801359150808211156150f857600080fd5b50615105888289016146d9565b93505061014086013561511781614500565b915061016086013561512881614500565b809150509295509295909350565b600080600080610160858703121561514d57600080fd5b84356001600160401b038082111561516457600080fd5b615170888389016145b4565b955061517f8860208901614ff4565b945061012087013591508082111561519657600080fd5b506151a3878288016146d9565b92505061014085013561490d81614500565b600080602083850312156151c857600080fd5b82356001600160401b03808211156151df57600080fd5b818501915085601f8301126151f357600080fd5b81358181111561520257600080fd5b8660208260051b850101111561521757600080fd5b60209290920196919550909350505050565b6000602080830181845280855180835260408601915060408160051b870101925083870160005b8281101561527e57603f1988860301845261526c858351614944565b94509285019290850190600101615250565b5092979650505050505050565b60006020828403121561529d57600080fd5b5035919050565b6000602082840312156152b657600080fd5b81356001600160401b038111156152cc57600080fd5b612cee848285016145b4565b60008060008060008060c087890312156152f157600080fd5b8635955060208701359450604087013561530a81614500565b935060608701359250608087013561532181614500565b915060a08701356001600160401b0381111561533c57600080fd5b61534889828a01614545565b9150509295509295509295565b815181526020808301519082015260408083015190820152606080830151908201526080810161246b565b60008060006060848603121561539557600080fd5b8335925060208401359150604084013561484681614500565b6000806000606084860312156153c357600080fd5b8335925060208401356153d5816149af565b915060408401356001600160401b038111156153f057600080fd5b614e4886828701614545565b6020808252602c908201527f46756e6374696f6e206d7573742062652063616c6c6564207468726f7567682060408201526b19195b1959d85d1958d85b1b60a21b606082015260800190565b6020808252602c908201527f46756e6374696f6e206d7573742062652063616c6c6564207468726f7567682060408201526b6163746976652070726f787960a01b606082015260800190565b600181811c908216806154a857607f821691505b6020821081036154c857634e487b7160e01b600052602260045260246000fd5b50919050565b6000602082840312156154e057600080fd5b815161215f81614b1f565b84815283602082015261ffff831660408201526080606082015260006126486080830184614944565b60006020828403121561552657600080fd5b815161215f81614500565b634e487b7160e01b600052603260045260246000fd5b600082601f83011261555857600080fd5b815160206155686145d5836144dd565b82815260059290921b8401810191818101908684111561558757600080fd5b8286015b848110156146ce5780518060060b81146155a55760008081fd5b835291830191830161558b565b805161452c81614500565b600080600083850360c08112156155d357600080fd5b60808112156155e157600080fd5b506155ea614445565b84516155f581614500565b8152602085015162ffffff8116811461560d57600080fd5b6020820152604085015165ffffffffffff8116811461562b57600080fd5b6040820152606085015161563e816149af565b606082015260808501519093506001600160401b0381111561565f57600080fd5b61566b86828701615547565b92505061567a60a085016155b2565b90509250925092565b600081518084526020808501945080840160005b838110156156cd57815180516001600160801b0316885283015163ffffffff168388015260409096019590820190600101615697565b509495945050505050565b600081518084526020808501945080840160005b838110156156cd57815180516001600160f81b03168852838101511515848901526040808201516001600160a01b03908116918a01919091526060918201511690880152608090960195908201906001016156ec565b6000815160a0845261575760a0850182614944565b602084810151908601526040808501516001600160a01b0316908601526060808501516001600160e01b0319908116918701919091526080948501511693909401929092525090919050565b60018060a01b038416815260606020820152600083516101a08060608501526157d0610200850183615683565b91506020860151605f19808685030160808701526157ee84836156d8565b935060408801519150808685030160a087015261580b8483614944565b935060608801519150808685030160c0870152506158298382614944565b925050608086015161584360e086018263ffffffff169052565b5060a086015161010061585b8187018361ffff169052565b60c088015191506101206158748188018461ffff169052565b60e0890151925061014061588c8189018560ff169052565b918901519250610160916158a38884018515159052565b908901519250610180906158ba8883018515159052565b89015115159387019390935287015115156101c0860152508501516101e084015282810360408401526126488185615742565b6000608082840312156158ff57600080fd5b61215f8383614b38565b60208152600061215f6020830184615742565b8183526000602080850194508260005b858110156156cd576001600160f81b0361594583614b08565b1687528282013561595581614b1f565b15158784015260408281013561596a81614500565b6001600160a01b0390811691890191909152606090838201359061598d82614500565b1690880152608096870196919091019060010161592c565b6000610160865183526020870151602084015260ff604088015116604084015260608701511515606084015260808701516159e4608085018215159052565b5060a08701516159fc60a085018263ffffffff169052565b5060c087015160c084015260e087015160e0840152610100808801518185015250615a3061012084018763ffffffff169052565b80610140840152615a44818401858761591c565b979650505050505050565b600060208284031215615a6157600080fd5b5051919050565b6000808335601e19843603018112615a7f57600080fd5b8301803591506001600160401b03821115615a9957600080fd5b6020019150368190038213156109f057600080fd5b634e487b7160e01b600052601160045260246000fd5b600060018201615ad657615ad6615aae565b5060010190565b83815261ffff83166020820152606060408201526000612fc36060830184614944565b60008219821115615b1357615b13615aae565b500190565b60208152600061215f6020830184614944565b600082821015615b3d57615b3d615aae565b500390565b6020808252602b908201527f496e697469616c697a61626c653a20636f6e7472616374206973206e6f74206960408201526a6e697469616c697a696e6760a81b606082015260800190565b60008251615b9f818460208701614918565b9190910192915050565b6000816000190483118215151615615bc357615bc3615aae565b500290565b6001600160801b039490941684526001600160a01b0392831660208501529116604083015263ffffffff16606082015260800190565b868152602081018690526001600160a01b038581166040830152606082018590528316608082015260c060a0820181905260009061260090830184614944565b60008060408385031215615c5157600080fd5b505080516020909101519092909150565b600082615c7f57634e487b7160e01b600052601260045260246000fd5b500490565b600063ffffffff808316818516808303821115615ca357615ca3615aae565b01949350505050565b6001600160801b038716815263ffffffff8681166020808401919091526001600160a01b0387166040840152908516606083015260c060808301528354600091908290600181811c9082811680615d0457607f831692505b8583108103615d2157634e487b7160e01b85526022600452602485fd5b60c0880183905260e08801818015615d405760018114615d5157615d7c565b60ff19861682528782019650615d7c565b60008c81526020902060005b86811015615d7657815484820152908501908901615d5d565b83019750505b50505050505083810360a0850152615d948186614944565b9a9950505050505050505050565b63ffffffff871681526001600160a01b038681166020830152610120820190615def6040840188805182526020810151602083015260408101516040830152606081015160608301525050565b9490941660c082015260e081019290925261010090910152939250505056fe360894a13ba1a3210667c828492db98dca3e2076cc3735a920a3ca505d382bbc416464726573733a206c6f772d6c6576656c2064656c65676174652063616c6c206661696c6564a264697066735822122055062a6e4aa897bd9b703a90f4660286ed74f93f830dd25c3fcf1891b0e8db4e64736f6c634300080d0033",
  "linkReferences": {},
  "deployedLinkReferences": {}
}