{
  "_format": "hh-sol-artifact-1",
  "contractName": "ProductsModule",
  "sourceName": "contracts/ProductsModule.sol",
  "abi": [
    {
      "inputs": [],
      "stateMutability": "nonpayable",
      "type": "constructor"
    },
    {
      "inputs": [],
      "name": "ActiveListing",
      "type": "error"
    },
    {
      "inputs": [],
      "name": "ExceedsMaxValue",
      "type": "error"
    },
    {
      "inputs": [],
      "name": "InexistentPool",
      "type": "error"
    },
    {
      "inputs": [],
      "name": "InexistentProduct",
      "type": "error"
    },
    {
      "inputs": [],
      "name": "Invalid",
      "type": "error"
    },
    {
      "inputs": [],
      "name": "InvalidCategory",
      "type": "error"
    },
    {
      "inputs": [],
      "name": "InvalidSubCategory",
      "type": "error"
    },
    {
      "inputs": [],
      "name": "NoDelegatecall",
      "type": "error"
    },
    {
      "inputs": [],
      "name": "NotAuthorized",
      "type": "error"
    },
    {
      "inputs": [],
      "name": "NotPurchased",
      "type": "error"
    },
    {
      "inputs": [],
      "name": "NotSuccessful",
      "type": "error"
    },
    {
      "inputs": [],
      "name": "StoreNotOpen",
      "type": "error"
    },
    {
      "inputs": [],
      "name": "TooSoon",
      "type": "error"
    },
    {
      "inputs": [],
      "name": "WrongCurrency",
      "type": "error"
    },
    {
      "anonymous": false,
      "inputs": [
        {
          "indexed": false,
          "internalType": "address",
          "name": "previousAdmin",
          "type": "address"
        },
        {
          "indexed": false,
          "internalType": "address",
          "name": "newAdmin",
          "type": "address"
        }
      ],
      "name": "AdminChanged",
      "type": "event"
    },
    {
      "anonymous": false,
      "inputs": [
        {
          "indexed": true,
          "internalType": "address",
          "name": "beacon",
          "type": "address"
        }
      ],
      "name": "BeaconUpgraded",
      "type": "event"
    },
    {
      "anonymous": false,
      "inputs": [
        {
          "indexed": false,
          "internalType": "uint256",
          "name": "categoryId",
          "type": "uint256"
        },
        {
          "indexed": false,
          "internalType": "string",
          "name": "name",
          "type": "string"
        }
      ],
      "name": "CategorySet",
      "type": "event"
    },
    {
      "anonymous": false,
      "inputs": [
        {
          "indexed": true,
          "internalType": "uint256",
          "name": "slicerId",
          "type": "uint256"
        },
        {
          "indexed": true,
          "internalType": "address",
          "name": "contractAddress",
          "type": "address"
        },
        {
          "indexed": true,
          "internalType": "uint256",
          "name": "tokenId",
          "type": "uint256"
        },
        {
          "indexed": false,
          "internalType": "uint256",
          "name": "currentAmount",
          "type": "uint256"
        }
      ],
      "name": "ERC1155ListingChanged",
      "type": "event"
    },
    {
      "anonymous": false,
      "inputs": [
        {
          "indexed": true,
          "internalType": "uint256",
          "name": "slicerId",
          "type": "uint256"
        },
        {
          "indexed": true,
          "internalType": "address",
          "name": "contractAddress",
          "type": "address"
        },
        {
          "indexed": true,
          "internalType": "uint256",
          "name": "tokenId",
          "type": "uint256"
        },
        {
          "indexed": false,
          "internalType": "bool",
          "name": "isActive",
          "type": "bool"
        }
      ],
      "name": "ERC721ListingChanged",
      "type": "event"
    },
    {
      "anonymous": false,
      "inputs": [
        {
          "indexed": true,
          "internalType": "address",
          "name": "currency",
          "type": "address"
        },
        {
          "indexed": true,
          "internalType": "address",
          "name": "recipient",
          "type": "address"
        },
        {
          "indexed": true,
          "internalType": "uint256",
          "name": "amount",
          "type": "uint256"
        },
        {
          "indexed": false,
          "internalType": "string",
          "name": "description",
          "type": "string"
        }
      ],
      "name": "ExtraCostPaid",
      "type": "event"
    },
    {
      "anonymous": false,
      "inputs": [
        {
          "indexed": false,
          "internalType": "uint8",
          "name": "version",
          "type": "uint8"
        }
      ],
      "name": "Initialized",
      "type": "event"
    },
    {
      "anonymous": false,
      "inputs": [
        {
          "indexed": true,
          "internalType": "address",
          "name": "previousOwner",
          "type": "address"
        },
        {
          "indexed": true,
          "internalType": "address",
          "name": "newOwner",
          "type": "address"
        }
      ],
      "name": "OwnershipTransferred",
      "type": "event"
    },
    {
      "anonymous": false,
      "inputs": [
        {
          "indexed": false,
          "internalType": "address",
          "name": "account",
          "type": "address"
        }
      ],
      "name": "Paused",
      "type": "event"
    },
    {
      "anonymous": false,
      "inputs": [
        {
          "indexed": true,
          "internalType": "uint256",
          "name": "slicerId",
          "type": "uint256"
        },
        {
          "indexed": true,
          "internalType": "uint256",
          "name": "productId",
          "type": "uint256"
        },
        {
          "indexed": false,
          "internalType": "address",
          "name": "creator",
          "type": "address"
        },
        {
          "components": [
            {
              "components": [
                {
                  "internalType": "uint128",
                  "name": "subSlicerId",
                  "type": "uint128"
                },
                {
                  "internalType": "uint32",
                  "name": "subProductId",
                  "type": "uint32"
                }
              ],
              "internalType": "struct SubSlicerProduct[]",
              "name": "subSlicerProducts",
              "type": "tuple[]"
            },
            {
              "components": [
                {
                  "internalType": "uint248",
                  "name": "value",
                  "type": "uint248"
                },
                {
                  "internalType": "bool",
                  "name": "dynamicPricing",
                  "type": "bool"
                },
                {
                  "internalType": "address",
                  "name": "externalAddress",
                  "type": "address"
                },
                {
                  "internalType": "address",
                  "name": "currency",
                  "type": "address"
                }
              ],
              "internalType": "struct CurrencyPrice[]",
              "name": "currencyPrices",
              "type": "tuple[]"
            },
            {
              "internalType": "bytes",
              "name": "data",
              "type": "bytes"
            },
            {
              "internalType": "bytes",
              "name": "purchaseData",
              "type": "bytes"
            },
            {
              "internalType": "uint32",
              "name": "availableUnits",
              "type": "uint32"
            },
            {
              "internalType": "uint16",
              "name": "categoryId",
              "type": "uint16"
            },
            {
              "internalType": "uint16",
              "name": "subCategoryId",
              "type": "uint16"
            },
            {
              "internalType": "uint8",
              "name": "maxUnitsPerBuyer",
              "type": "uint8"
            },
            {
              "internalType": "bool",
              "name": "isFree",
              "type": "bool"
            },
            {
              "internalType": "bool",
              "name": "isInfinite",
              "type": "bool"
            },
            {
              "internalType": "bool",
              "name": "isExternalCallPaymentRelative",
              "type": "bool"
            },
            {
              "internalType": "bool",
              "name": "isExternalCallPreferredToken",
              "type": "bool"
            },
            {
              "internalType": "uint256",
              "name": "referralFeeProduct",
              "type": "uint256"
            }
          ],
          "indexed": false,
          "internalType": "struct ProductParams",
          "name": "params",
          "type": "tuple"
        },
        {
          "components": [
            {
              "internalType": "bytes",
              "name": "data",
              "type": "bytes"
            },
            {
              "internalType": "uint256",
              "name": "value",
              "type": "uint256"
            },
            {
              "internalType": "address",
              "name": "externalAddress",
              "type": "address"
            },
            {
              "internalType": "bytes4",
              "name": "checkFunctionSignature",
              "type": "bytes4"
            },
            {
              "internalType": "bytes4",
              "name": "execFunctionSignature",
              "type": "bytes4"
            }
          ],
          "indexed": false,
          "internalType": "struct Function",
          "name": "externalCall",
          "type": "tuple"
        }
      ],
      "name": "ProductAdded",
      "type": "event"
    },
    {
      "anonymous": false,
      "inputs": [
        {
          "indexed": true,
          "internalType": "uint256",
          "name": "slicerId",
          "type": "uint256"
        },
        {
          "indexed": true,
          "internalType": "uint256",
          "name": "productId",
          "type": "uint256"
        },
        {
          "components": [
            {
              "internalType": "bytes",
              "name": "data",
              "type": "bytes"
            },
            {
              "internalType": "uint256",
              "name": "value",
              "type": "uint256"
            },
            {
              "internalType": "address",
              "name": "externalAddress",
              "type": "address"
            },
            {
              "internalType": "bytes4",
              "name": "checkFunctionSignature",
              "type": "bytes4"
            },
            {
              "internalType": "bytes4",
              "name": "execFunctionSignature",
              "type": "bytes4"
            }
          ],
          "indexed": false,
          "internalType": "struct Function",
          "name": "externalCall",
          "type": "tuple"
        }
      ],
      "name": "ProductExternalCallUpdated",
      "type": "event"
    },
    {
      "anonymous": false,
      "inputs": [
        {
          "components": [
            {
              "internalType": "uint256",
              "name": "slicerId",
              "type": "uint256"
            },
            {
              "internalType": "uint256",
              "name": "productId",
              "type": "uint256"
            },
            {
              "internalType": "uint8",
              "name": "newMaxUnits",
              "type": "uint8"
            },
            {
              "internalType": "bool",
              "name": "isFree",
              "type": "bool"
            },
            {
              "internalType": "bool",
              "name": "isInfinite",
              "type": "bool"
            },
            {
              "internalType": "uint32",
              "name": "newUnits",
              "type": "uint32"
            },
            {
              "internalType": "uint256",
              "name": "referralFeeProduct",
              "type": "uint256"
            },
            {
              "internalType": "uint256",
              "name": "categoryId",
              "type": "uint256"
            },
            {
              "internalType": "uint256",
              "name": "subCategoryId",
              "type": "uint256"
            }
          ],
          "indexed": false,
          "internalType": "struct EditProductParams",
          "name": "params",
          "type": "tuple"
        },
        {
          "indexed": false,
          "internalType": "uint256",
          "name": "newUnits",
          "type": "uint256"
        },
        {
          "components": [
            {
              "internalType": "uint248",
              "name": "value",
              "type": "uint248"
            },
            {
              "internalType": "bool",
              "name": "dynamicPricing",
              "type": "bool"
            },
            {
              "internalType": "address",
              "name": "externalAddress",
              "type": "address"
            },
            {
              "internalType": "address",
              "name": "currency",
              "type": "address"
            }
          ],
          "indexed": false,
          "internalType": "struct CurrencyPrice[]",
          "name": "currencyPrices",
          "type": "tuple[]"
        }
      ],
      "name": "ProductInfoChanged",
      "type": "event"
    },
    {
      "anonymous": false,
      "inputs": [
        {
          "indexed": true,
          "internalType": "uint256",
          "name": "slicerId",
          "type": "uint256"
        },
        {
          "indexed": true,
          "internalType": "uint256",
          "name": "productId",
          "type": "uint256"
        },
        {
          "indexed": false,
          "internalType": "uint256",
          "name": "quantity",
          "type": "uint256"
        },
        {
          "indexed": true,
          "internalType": "address",
          "name": "buyer",
          "type": "address"
        },
        {
          "indexed": false,
          "internalType": "address",
          "name": "currency",
          "type": "address"
        },
        {
          "components": [
            {
              "internalType": "uint256",
              "name": "eth",
              "type": "uint256"
            },
            {
              "internalType": "uint256",
              "name": "currency",
              "type": "uint256"
            },
            {
              "internalType": "uint256",
              "name": "ethExternalCall",
              "type": "uint256"
            },
            {
              "internalType": "uint256",
              "name": "currencyExternalCall",
              "type": "uint256"
            }
          ],
          "indexed": false,
          "internalType": "struct Price",
          "name": "price",
          "type": "tuple"
        },
        {
          "indexed": false,
          "internalType": "address",
          "name": "referrer",
          "type": "address"
        },
        {
          "indexed": false,
          "internalType": "uint256",
          "name": "parentSlicerId",
          "type": "uint256"
        },
        {
          "indexed": false,
          "internalType": "uint256",
          "name": "parentProductId",
          "type": "uint256"
        }
      ],
      "name": "ProductPaid",
      "type": "event"
    },
    {
      "anonymous": false,
      "inputs": [
        {
          "indexed": true,
          "internalType": "uint256",
          "name": "slicerId",
          "type": "uint256"
        },
        {
          "indexed": true,
          "internalType": "uint256",
          "name": "productId",
          "type": "uint256"
        }
      ],
      "name": "ProductRemoved",
      "type": "event"
    },
    {
      "anonymous": false,
      "inputs": [
        {
          "indexed": true,
          "internalType": "address",
          "name": "buyer",
          "type": "address"
        }
      ],
      "name": "PurchaseMade",
      "type": "event"
    },
    {
      "anonymous": false,
      "inputs": [
        {
          "indexed": true,
          "internalType": "uint256",
          "name": "slicerId",
          "type": "uint256"
        },
        {
          "indexed": false,
          "internalType": "uint256",
          "name": "ethToRelease",
          "type": "uint256"
        }
      ],
      "name": "ReleasedToSlicer",
      "type": "event"
    },
    {
      "anonymous": false,
      "inputs": [
        {
          "indexed": true,
          "internalType": "uint256",
          "name": "slicerId",
          "type": "uint256"
        },
        {
          "indexed": false,
          "internalType": "bool",
          "name": "isStoreClosed",
          "type": "bool"
        },
        {
          "indexed": false,
          "internalType": "uint256",
          "name": "referralFeeStore",
          "type": "uint256"
        }
      ],
      "name": "StoreConfigChanged",
      "type": "event"
    },
    {
      "anonymous": false,
      "inputs": [
        {
          "indexed": false,
          "internalType": "uint256",
          "name": "categoryId",
          "type": "uint256"
        },
        {
          "indexed": false,
          "internalType": "uint256",
          "name": "subCategoryId",
          "type": "uint256"
        },
        {
          "components": [
            {
              "internalType": "string",
              "name": "name",
              "type": "string"
            }
          ],
          "indexed": false,
          "internalType": "struct SubCategory",
          "name": "subCategory",
          "type": "tuple"
        }
      ],
      "name": "SubCategorySet",
      "type": "event"
    },
    {
      "anonymous": false,
      "inputs": [
        {
          "indexed": false,
          "internalType": "address",
          "name": "account",
          "type": "address"
        }
      ],
      "name": "Unpaused",
      "type": "event"
    },
    {
      "anonymous": false,
      "inputs": [
        {
          "indexed": true,
          "internalType": "address",
          "name": "implementation",
          "type": "address"
        }
      ],
      "name": "Upgraded",
      "type": "event"
    },
    {
      "inputs": [],
      "name": "MINT_PRODUCT_AMOUNT",
      "outputs": [
        {
          "internalType": "uint256",
          "name": "",
          "type": "uint256"
        }
      ],
      "stateMutability": "view",
      "type": "function"
    },
    {
      "inputs": [
        {
          "internalType": "uint256",
          "name": "categoryId",
          "type": "uint256"
        },
        {
          "internalType": "string",
          "name": "name",
          "type": "string"
        }
      ],
      "name": "_setCategory",
      "outputs": [],
      "stateMutability": "nonpayable",
      "type": "function"
    },
    {
      "inputs": [
        {
          "internalType": "uint256",
          "name": "slicerId",
          "type": "uint256"
        },
        {
          "internalType": "bool",
          "name": "isClosed",
          "type": "bool"
        },
        {
          "internalType": "uint256",
          "name": "referralFeeStore",
          "type": "uint256"
        }
      ],
      "name": "_setStoreConfig",
      "outputs": [],
      "stateMutability": "nonpayable",
      "type": "function"
    },
    {
      "inputs": [
        {
          "internalType": "uint256",
          "name": "categoryId",
          "type": "uint256"
        },
        {
          "internalType": "uint256",
          "name": "subCategoryId",
          "type": "uint256"
        },
        {
          "components": [
            {
              "internalType": "string",
              "name": "name",
              "type": "string"
            }
          ],
          "internalType": "struct SubCategory",
          "name": "subCategory",
          "type": "tuple"
        }
      ],
      "name": "_setSubCategory",
      "outputs": [],
      "stateMutability": "nonpayable",
      "type": "function"
    },
    {
      "inputs": [
        {
          "internalType": "uint256",
          "name": "slicerId",
          "type": "uint256"
        },
        {
          "components": [
            {
              "components": [
                {
                  "internalType": "uint128",
                  "name": "subSlicerId",
                  "type": "uint128"
                },
                {
                  "internalType": "uint32",
                  "name": "subProductId",
                  "type": "uint32"
                }
              ],
              "internalType": "struct SubSlicerProduct[]",
              "name": "subSlicerProducts",
              "type": "tuple[]"
            },
            {
              "components": [
                {
                  "internalType": "uint248",
                  "name": "value",
                  "type": "uint248"
                },
                {
                  "internalType": "bool",
                  "name": "dynamicPricing",
                  "type": "bool"
                },
                {
                  "internalType": "address",
                  "name": "externalAddress",
                  "type": "address"
                },
                {
                  "internalType": "address",
                  "name": "currency",
                  "type": "address"
                }
              ],
              "internalType": "struct CurrencyPrice[]",
              "name": "currencyPrices",
              "type": "tuple[]"
            },
            {
              "internalType": "bytes",
              "name": "data",
              "type": "bytes"
            },
            {
              "internalType": "bytes",
              "name": "purchaseData",
              "type": "bytes"
            },
            {
              "internalType": "uint32",
              "name": "availableUnits",
              "type": "uint32"
            },
            {
              "internalType": "uint16",
              "name": "categoryId",
              "type": "uint16"
            },
            {
              "internalType": "uint16",
              "name": "subCategoryId",
              "type": "uint16"
            },
            {
              "internalType": "uint8",
              "name": "maxUnitsPerBuyer",
              "type": "uint8"
            },
            {
              "internalType": "bool",
              "name": "isFree",
              "type": "bool"
            },
            {
              "internalType": "bool",
              "name": "isInfinite",
              "type": "bool"
            },
            {
              "internalType": "bool",
              "name": "isExternalCallPaymentRelative",
              "type": "bool"
            },
            {
              "internalType": "bool",
              "name": "isExternalCallPreferredToken",
              "type": "bool"
            },
            {
              "internalType": "uint256",
              "name": "referralFeeProduct",
              "type": "uint256"
            }
          ],
          "internalType": "struct ProductParams",
          "name": "params",
          "type": "tuple"
        },
        {
          "components": [
            {
              "internalType": "bytes",
              "name": "data",
              "type": "bytes"
            },
            {
              "internalType": "uint256",
              "name": "value",
              "type": "uint256"
            },
            {
              "internalType": "address",
              "name": "externalAddress",
              "type": "address"
            },
            {
              "internalType": "bytes4",
              "name": "checkFunctionSignature",
              "type": "bytes4"
            },
            {
              "internalType": "bytes4",
              "name": "execFunctionSignature",
              "type": "bytes4"
            }
          ],
          "internalType": "struct Function",
          "name": "externalCall_",
          "type": "tuple"
        }
      ],
      "name": "addProduct",
      "outputs": [],
      "stateMutability": "nonpayable",
      "type": "function"
    },
    {
      "inputs": [
        {
          "internalType": "uint256",
          "name": "slicerId",
          "type": "uint256"
        },
        {
          "internalType": "uint256",
          "name": "productId",
          "type": "uint256"
        }
      ],
      "name": "availableUnits",
      "outputs": [
        {
          "internalType": "uint256",
          "name": "units",
          "type": "uint256"
        },
        {
          "internalType": "bool",
          "name": "isInfinite",
          "type": "bool"
        }
      ],
      "stateMutability": "view",
      "type": "function"
    },
    {
      "inputs": [
        {
          "internalType": "uint256",
          "name": "",
          "type": "uint256"
        }
      ],
      "name": "categories",
      "outputs": [
        {
          "internalType": "string",
          "name": "name",
          "type": "string"
        }
      ],
      "stateMutability": "view",
      "type": "function"
    },
    {
      "inputs": [],
      "name": "fundsModule",
      "outputs": [
        {
          "internalType": "contract IFundsModule",
          "name": "",
          "type": "address"
        }
      ],
      "stateMutability": "view",
      "type": "function"
    },
    {
      "inputs": [],
      "name": "initialize",
      "outputs": [],
      "stateMutability": "nonpayable",
      "type": "function"
    },
    {
      "inputs": [
        {
          "internalType": "uint256",
          "name": "slicerId",
          "type": "uint256"
        },
        {
          "internalType": "uint256",
          "name": "productId",
          "type": "uint256"
        },
        {
          "internalType": "address",
          "name": "account",
          "type": "address"
        }
      ],
      "name": "isProductOwner",
      "outputs": [
        {
          "internalType": "bool",
          "name": "isAllowed",
          "type": "bool"
        }
      ],
      "stateMutability": "view",
      "type": "function"
    },
    {
      "inputs": [
        {
          "internalType": "bytes[]",
          "name": "data",
          "type": "bytes[]"
        }
      ],
      "name": "multicall",
      "outputs": [
        {
          "internalType": "bytes[]",
          "name": "results",
          "type": "bytes[]"
        }
      ],
      "stateMutability": "nonpayable",
      "type": "function"
    },
    {
      "inputs": [
        {
          "internalType": "uint256",
          "name": "slicerId",
          "type": "uint256"
        }
      ],
      "name": "nextProductId",
      "outputs": [
        {
          "internalType": "uint256",
          "name": "",
          "type": "uint256"
        }
      ],
      "stateMutability": "view",
      "type": "function"
    },
    {
      "inputs": [],
      "name": "owner",
      "outputs": [
        {
          "internalType": "address",
          "name": "",
          "type": "address"
        }
      ],
      "stateMutability": "view",
      "type": "function"
    },
    {
      "inputs": [],
      "name": "paused",
      "outputs": [
        {
          "internalType": "bool",
          "name": "",
          "type": "bool"
        }
      ],
      "stateMutability": "view",
      "type": "function"
    },
    {
      "inputs": [
        {
          "components": [
            {
              "internalType": "address",
              "name": "buyer",
              "type": "address"
            },
            {
              "internalType": "uint128",
              "name": "slicerId",
              "type": "uint128"
            },
            {
              "internalType": "uint32",
              "name": "quantity",
              "type": "uint32"
            },
            {
              "internalType": "address",
              "name": "currency",
              "type": "address"
            },
            {
              "internalType": "uint32",
              "name": "productId",
              "type": "uint32"
            },
            {
              "internalType": "bytes",
              "name": "buyerCustomData",
              "type": "bytes"
            }
          ],
          "internalType": "struct PurchaseParams[]",
          "name": "purchases",
          "type": "tuple[]"
        },
        {
          "components": [
            {
              "internalType": "address",
              "name": "recipient",
              "type": "address"
            },
            {
              "internalType": "uint128",
              "name": "slicerId",
              "type": "uint128"
            },
            {
              "internalType": "uint128",
              "name": "amount",
              "type": "uint128"
            },
            {
              "internalType": "address",
              "name": "currency",
              "type": "address"
            },
            {
              "internalType": "string",
              "name": "description",
              "type": "string"
            }
          ],
          "internalType": "struct ExtraCost[]",
          "name": "extraCosts",
          "type": "tuple[]"
        },
        {
          "internalType": "address",
          "name": "referrer",
          "type": "address"
        }
      ],
      "name": "payProducts",
      "outputs": [],
      "stateMutability": "payable",
      "type": "function"
    },
    {
      "inputs": [
        {
          "components": [
            {
              "internalType": "address",
              "name": "buyer",
              "type": "address"
            },
            {
              "internalType": "uint128",
              "name": "slicerId",
              "type": "uint128"
            },
            {
              "internalType": "uint32",
              "name": "quantity",
              "type": "uint32"
            },
            {
              "internalType": "address",
              "name": "currency",
              "type": "address"
            },
            {
              "internalType": "uint32",
              "name": "productId",
              "type": "uint32"
            },
            {
              "internalType": "bytes",
              "name": "buyerCustomData",
              "type": "bytes"
            }
          ],
          "internalType": "struct PurchaseParams[]",
          "name": "purchases",
          "type": "tuple[]"
        },
        {
          "components": [
            {
              "internalType": "address",
              "name": "recipient",
              "type": "address"
            },
            {
              "internalType": "uint128",
              "name": "slicerId",
              "type": "uint128"
            },
            {
              "internalType": "uint128",
              "name": "amount",
              "type": "uint128"
            },
            {
              "internalType": "address",
              "name": "currency",
              "type": "address"
            },
            {
              "internalType": "string",
              "name": "description",
              "type": "string"
            }
          ],
          "internalType": "struct ExtraCost[]",
          "name": "extraCosts",
          "type": "tuple[]"
        },
        {
          "internalType": "address",
          "name": "referrer",
          "type": "address"
        },
        {
          "internalType": "address",
          "name": "buyer",
          "type": "address"
        }
      ],
      "name": "payProducts",
      "outputs": [],
      "stateMutability": "payable",
      "type": "function"
    },
    {
      "inputs": [
        {
          "components": [
            {
              "internalType": "address",
              "name": "buyer",
              "type": "address"
            },
            {
              "internalType": "uint128",
              "name": "slicerId",
              "type": "uint128"
            },
            {
              "internalType": "uint32",
              "name": "quantity",
              "type": "uint32"
            },
            {
              "internalType": "address",
              "name": "currency",
              "type": "address"
            },
            {
              "internalType": "uint32",
              "name": "productId",
              "type": "uint32"
            },
            {
              "internalType": "bytes",
              "name": "buyerCustomData",
              "type": "bytes"
            }
          ],
          "internalType": "struct PurchaseParams[]",
          "name": "purchases",
          "type": "tuple[]"
        }
      ],
      "name": "payProducts",
      "outputs": [],
      "stateMutability": "payable",
      "type": "function"
    },
    {
      "inputs": [
        {
          "components": [
            {
              "internalType": "address",
              "name": "buyer",
              "type": "address"
            },
            {
              "internalType": "uint128",
              "name": "slicerId",
              "type": "uint128"
            },
            {
              "internalType": "uint32",
              "name": "quantity",
              "type": "uint32"
            },
            {
              "internalType": "address",
              "name": "currency",
              "type": "address"
            },
            {
              "internalType": "uint32",
              "name": "productId",
              "type": "uint32"
            },
            {
              "internalType": "bytes",
              "name": "buyerCustomData",
              "type": "bytes"
            }
          ],
          "internalType": "struct PurchaseParams[]",
          "name": "purchases",
          "type": "tuple[]"
        },
        {
          "components": [
            {
              "internalType": "address",
              "name": "from",
              "type": "address"
            },
            {
              "internalType": "uint256",
              "name": "value",
              "type": "uint256"
            },
            {
              "internalType": "uint256",
              "name": "validAfter",
              "type": "uint256"
            },
            {
              "internalType": "uint256",
              "name": "validBefore",
              "type": "uint256"
            },
            {
              "internalType": "bytes32",
              "name": "nonce",
              "type": "bytes32"
            },
            {
              "internalType": "uint8",
              "name": "v",
              "type": "uint8"
            },
            {
              "internalType": "bytes32",
              "name": "r",
              "type": "bytes32"
            },
            {
              "internalType": "bytes32",
              "name": "s",
              "type": "bytes32"
            }
          ],
          "internalType": "struct PayWithAuthorizationParams",
          "name": "authorizationParams",
          "type": "tuple"
        },
        {
          "components": [
            {
              "internalType": "address",
              "name": "recipient",
              "type": "address"
            },
            {
              "internalType": "uint128",
              "name": "slicerId",
              "type": "uint128"
            },
            {
              "internalType": "uint128",
              "name": "amount",
              "type": "uint128"
            },
            {
              "internalType": "address",
              "name": "currency",
              "type": "address"
            },
            {
              "internalType": "string",
              "name": "description",
              "type": "string"
            }
          ],
          "internalType": "struct ExtraCost[]",
          "name": "extraCosts",
          "type": "tuple[]"
        },
        {
          "internalType": "address",
          "name": "referrer",
          "type": "address"
        },
        {
          "internalType": "contract IERC20Permit",
          "name": "currency",
          "type": "address"
        }
      ],
      "name": "payWithAuthorization",
      "outputs": [],
      "stateMutability": "payable",
      "type": "function"
    },
    {
      "inputs": [
        {
          "components": [
            {
              "internalType": "address",
              "name": "buyer",
              "type": "address"
            },
            {
              "internalType": "uint128",
              "name": "slicerId",
              "type": "uint128"
            },
            {
              "internalType": "uint32",
              "name": "quantity",
              "type": "uint32"
            },
            {
              "internalType": "address",
              "name": "currency",
              "type": "address"
            },
            {
              "internalType": "uint32",
              "name": "productId",
              "type": "uint32"
            },
            {
              "internalType": "bytes",
              "name": "buyerCustomData",
              "type": "bytes"
            }
          ],
          "internalType": "struct PurchaseParams[]",
          "name": "purchases",
          "type": "tuple[]"
        },
        {
          "components": [
            {
              "internalType": "address",
              "name": "from",
              "type": "address"
            },
            {
              "internalType": "uint256",
              "name": "value",
              "type": "uint256"
            },
            {
              "internalType": "uint256",
              "name": "validAfter",
              "type": "uint256"
            },
            {
              "internalType": "uint256",
              "name": "validBefore",
              "type": "uint256"
            },
            {
              "internalType": "bytes32",
              "name": "nonce",
              "type": "bytes32"
            },
            {
              "internalType": "uint8",
              "name": "v",
              "type": "uint8"
            },
            {
              "internalType": "bytes32",
              "name": "r",
              "type": "bytes32"
            },
            {
              "internalType": "bytes32",
              "name": "s",
              "type": "bytes32"
            }
          ],
          "internalType": "struct PayWithAuthorizationParams",
          "name": "authorizationParams",
          "type": "tuple"
        },
        {
          "components": [
            {
              "internalType": "address",
              "name": "recipient",
              "type": "address"
            },
            {
              "internalType": "uint128",
              "name": "slicerId",
              "type": "uint128"
            },
            {
              "internalType": "uint128",
              "name": "amount",
              "type": "uint128"
            },
            {
              "internalType": "address",
              "name": "currency",
              "type": "address"
            },
            {
              "internalType": "string",
              "name": "description",
              "type": "string"
            }
          ],
          "internalType": "struct ExtraCost[]",
          "name": "extraCosts",
          "type": "tuple[]"
        },
        {
          "internalType": "address",
          "name": "referrer",
          "type": "address"
        }
      ],
      "name": "payWithAuthorization",
      "outputs": [],
      "stateMutability": "payable",
      "type": "function"
    },
    {
      "inputs": [],
      "name": "priceFeed",
      "outputs": [
        {
          "internalType": "contract IPriceFeed",
          "name": "",
          "type": "address"
        }
      ],
      "stateMutability": "view",
      "type": "function"
    },
    {
      "inputs": [
        {
          "internalType": "uint256",
          "name": "slicerId",
          "type": "uint256"
        },
        {
          "internalType": "uint256",
          "name": "productId",
          "type": "uint256"
        },
        {
          "internalType": "address",
          "name": "currency",
          "type": "address"
        },
        {
          "internalType": "uint256",
          "name": "quantity",
          "type": "uint256"
        },
        {
          "internalType": "address",
          "name": "buyer",
          "type": "address"
        },
        {
          "internalType": "bytes",
          "name": "data",
          "type": "bytes"
        }
      ],
      "name": "productPrice",
      "outputs": [
        {
          "components": [
            {
              "internalType": "uint256",
              "name": "eth",
              "type": "uint256"
            },
            {
              "internalType": "uint256",
              "name": "currency",
              "type": "uint256"
            },
            {
              "internalType": "uint256",
              "name": "ethExternalCall",
              "type": "uint256"
            },
            {
              "internalType": "uint256",
              "name": "currencyExternalCall",
              "type": "uint256"
            }
          ],
          "internalType": "struct Price",
          "name": "price",
          "type": "tuple"
        }
      ],
      "stateMutability": "view",
      "type": "function"
    },
    {
      "inputs": [],
      "name": "proxiableUUID",
      "outputs": [
        {
          "internalType": "bytes32",
          "name": "",
          "type": "bytes32"
        }
      ],
      "stateMutability": "view",
      "type": "function"
    },
    {
      "inputs": [
        {
          "internalType": "uint256",
          "name": "slicerId",
          "type": "uint256"
        },
        {
          "internalType": "uint256",
          "name": "productId",
          "type": "uint256"
        }
      ],
      "name": "removeProduct",
      "outputs": [],
      "stateMutability": "nonpayable",
      "type": "function"
    },
    {
      "inputs": [],
      "name": "renounceOwnership",
      "outputs": [],
      "stateMutability": "nonpayable",
      "type": "function"
    },
    {
      "inputs": [
        {
          "components": [
            {
              "internalType": "uint256",
              "name": "slicerId",
              "type": "uint256"
            },
            {
              "internalType": "uint256",
              "name": "productId",
              "type": "uint256"
            },
            {
              "internalType": "uint8",
              "name": "newMaxUnits",
              "type": "uint8"
            },
            {
              "internalType": "bool",
              "name": "isFree",
              "type": "bool"
            },
            {
              "internalType": "bool",
              "name": "isInfinite",
              "type": "bool"
            },
            {
              "internalType": "uint32",
              "name": "newUnits",
              "type": "uint32"
            },
            {
              "internalType": "uint256",
              "name": "referralFeeProduct",
              "type": "uint256"
            },
            {
              "internalType": "uint256",
              "name": "categoryId",
              "type": "uint256"
            },
            {
              "internalType": "uint256",
              "name": "subCategoryId",
              "type": "uint256"
            }
          ],
          "internalType": "struct EditProductParams",
          "name": "params",
          "type": "tuple"
        },
        {
          "components": [
            {
              "internalType": "uint248",
              "name": "value",
              "type": "uint248"
            },
            {
              "internalType": "bool",
              "name": "dynamicPricing",
              "type": "bool"
            },
            {
              "internalType": "address",
              "name": "externalAddress",
              "type": "address"
            },
            {
              "internalType": "address",
              "name": "currency",
              "type": "address"
            }
          ],
          "internalType": "struct CurrencyPrice[]",
          "name": "currencyPrices",
          "type": "tuple[]"
        },
        {
          "components": [
            {
              "internalType": "bytes",
              "name": "data",
              "type": "bytes"
            },
            {
              "internalType": "uint256",
              "name": "value",
              "type": "uint256"
            },
            {
              "internalType": "address",
              "name": "externalAddress",
              "type": "address"
            },
            {
              "internalType": "bytes4",
              "name": "checkFunctionSignature",
              "type": "bytes4"
            },
            {
              "internalType": "bytes4",
              "name": "execFunctionSignature",
              "type": "bytes4"
            }
          ],
          "internalType": "struct Function",
          "name": "externalCall_",
          "type": "tuple"
        }
      ],
      "name": "setProductInfo",
      "outputs": [],
      "stateMutability": "nonpayable",
      "type": "function"
    },
    {
      "inputs": [],
      "name": "sliceCore",
      "outputs": [
        {
          "internalType": "contract ISliceCore",
          "name": "",
          "type": "address"
        }
      ],
      "stateMutability": "view",
      "type": "function"
    },
    {
      "inputs": [
        {
          "internalType": "uint256",
          "name": "categoryId",
          "type": "uint256"
        },
        {
          "internalType": "uint256",
          "name": "subCategoryId",
          "type": "uint256"
        }
      ],
      "name": "subCategories",
      "outputs": [
        {
          "components": [
            {
              "internalType": "string",
              "name": "name",
              "type": "string"
            }
          ],
          "internalType": "struct SubCategory",
          "name": "",
          "type": "tuple"
        }
      ],
      "stateMutability": "view",
      "type": "function"
    },
    {
      "inputs": [
        {
          "internalType": "address",
          "name": "newOwner",
          "type": "address"
        }
      ],
      "name": "transferOwnership",
      "outputs": [],
      "stateMutability": "nonpayable",
      "type": "function"
    },
    {
      "inputs": [
        {
          "internalType": "address",
          "name": "newImplementation",
          "type": "address"
        }
      ],
      "name": "upgradeTo",
      "outputs": [],
      "stateMutability": "nonpayable",
      "type": "function"
    },
    {
      "inputs": [
        {
          "internalType": "address",
          "name": "newImplementation",
          "type": "address"
        },
        {
          "internalType": "bytes",
          "name": "data",
          "type": "bytes"
        }
      ],
      "name": "upgradeToAndCall",
      "outputs": [],
      "stateMutability": "payable",
      "type": "function"
    },
    {
      "inputs": [
        {
          "internalType": "uint256",
          "name": "slicerId",
          "type": "uint256"
        },
        {
          "internalType": "uint256",
          "name": "productId",
          "type": "uint256"
        }
      ],
      "name": "validatePurchase",
      "outputs": [
        {
          "internalType": "uint256",
          "name": "purchases",
          "type": "uint256"
        },
        {
          "internalType": "bytes",
          "name": "purchaseData",
          "type": "bytes"
        }
      ],
      "stateMutability": "view",
      "type": "function"
    },
    {
      "inputs": [
        {
          "internalType": "address",
          "name": "account",
          "type": "address"
        },
        {
          "internalType": "uint256",
          "name": "slicerId",
          "type": "uint256"
        },
        {
          "internalType": "uint256",
          "name": "productId",
          "type": "uint256"
        }
      ],
      "name": "validatePurchaseUnits",
      "outputs": [
        {
          "internalType": "uint256",
          "name": "purchases",
          "type": "uint256"
        }
      ],
      "stateMutability": "view",
      "type": "function"
    }
  ],
  "bytecode": "0x60a0604052306080523480156200001557600080fd5b506200002062000026565b620000e8565b600054610100900460ff1615620000935760405162461bcd60e51b815260206004820152602760248201527f496e697469616c697a61626c653a20636f6e747261637420697320696e697469604482015266616c697a696e6760c81b606482015260840160405180910390fd5b60005460ff9081161015620000e6576000805460ff191660ff9081179091556040519081527f7f26b83ff96e1f2b6a682f133852f6798a09c465da95921460cefb38474024989060200160405180910390a15b565b608051615d1162000120600039600081816106aa015281816106f30152818161095a0152818161099a0152610af40152615d116000f3fe6080604052600436106101e35760003560e01c8063780b1d2611610102578063c1226f8011610095578063e1861ee911610064578063e1861ee9146105da578063e6e92808146105fa578063f2fde38b1461061a578063f4c763631461063a57600080fd5b8063c1226f801461053d578063c6cdbe5e1461056d578063d2c5ca9a1461059a578063d7a3d0c8146105ad57600080fd5b8063a878ad01116100d1578063a878ad01146104cd578063aa4d16de146104e0578063ac9650d8146104f3578063b79811e21461052057600080fd5b8063780b1d261461045a5780638129fc1c1461047a5780638da5cb5b1461048f57806395f23704146104ad57600080fd5b806354688bf11161017a5780635e98b465116101495780635e98b465146103b05780636740ff40146103dd578063715018a61461041d578063741bef1a1461043257600080fd5b806354688bf11461032c57806359e5f9591461034c5780635c975abb1461036c5780635e8b09dc1461039057600080fd5b80634c04e9c6116101b65780634c04e9c6146102a85780634f1ef286146102d65780635287d535146102e957806352d1902d1461030957600080fd5b8063062b8b15146101e85780631eafafb4146101fd5780633659cfe6146102755780633bb9aa0614610295575b600080fd5b6101fb6101f636600461466c565b610662565b005b34801561020957600080fd5b5061025b6102183660046146e3565b600091825260fb60209081526040808420928452600192830190915290912060080154600160c81b810463ffffffff1692600160f01b909104821c909116151590565b604080519283529015156020830152015b60405180910390f35b34801561028157600080fd5b506101fb610290366004614705565b6106a0565b6101fb6102a3366004614722565b610788565b3480156102b457600080fd5b506102c86102c33660046146e3565b6107fb565b60405161026c929190614802565b6101fb6102e436600461481b565b610950565b3480156102f557600080fd5b506101fb6103043660046146e3565b610a20565b34801561031557600080fd5b5061031e610ae7565b60405190815260200161026c565b34801561033857600080fd5b506101fb61034736600461486a565b610b9a565b34801561035857600080fd5b506101fb610367366004614b52565b610c13565b34801561037857600080fd5b5060c95460ff165b604051901515815260200161026c565b34801561039c57600080fd5b506101fb6103ab366004614cf3565b61152d565b3480156103bc57600080fd5b506103d06103cb3660046146e3565b6116d5565b60405161026c9190614d2b565b3480156103e957600080fd5b506104057361bcd1ed11fc03c958a847a6687b1875f5eacaaf81565b6040516001600160a01b03909116815260200161026c565b34801561042957600080fd5b506101fb61179e565b34801561043e57600080fd5b50610405732b3eee365ce2c8a21096a348fc9005233229b58f81565b34801561046657600080fd5b506101fb610475366004614d8a565b6117b2565b34801561048657600080fd5b506101fb611f0b565b34801561049b57600080fd5b506097546001600160a01b0316610405565b3480156104b957600080fd5b5061031e6104c8366004614e87565b61201b565b6101fb6104db366004614f5e565b612057565b6101fb6104ee366004614ffe565b612246565b3480156104ff57600080fd5b5061051361050e36600461507d565b61226d565b60405161026c91906150f1565b34801561052c57600080fd5b5061031e686c6b935b8bbd40000081565b34801561054957600080fd5b5061031e610558366004615153565b600090815260fb602052604090205460010190565b34801561057957600080fd5b5061058d610588366004615153565b612361565b60405161026c919061516c565b6101fb6105a836600461517f565b612401565b3480156105b957600080fd5b506105cd6105c83660046151b3565b612490565b60405161026c9190615230565b3480156105e657600080fd5b506101fb6105f536600461525b565b6124f2565b34801561060657600080fd5b5061038061061536600461528b565b612552565b34801561062657600080fd5b506101fb610635366004614705565b612598565b34801561064657600080fd5b50610405735cef0380ce0ad3daeefef8bdb85dbded7965adf981565b61069b83836040518060800160405280600015158152602001856001600160a01b0316815260200160008152602001600081525061260e565b505050565b6001600160a01b037f00000000000000000000000000000000000000000000000000000000000000001630036106f15760405162461bcd60e51b81526004016106e8906152b9565b60405180910390fd5b7f00000000000000000000000000000000000000000000000000000000000000006001600160a01b031661073a600080516020615c95833981519152546001600160a01b031690565b6001600160a01b0316146107605760405162461bcd60e51b81526004016106e890615305565b61076981612911565b6040805160008082526020820190925261078591839190612919565b50565b6107c184846040518060800160405280600015158152602001866001600160a01b0316815260200160008152602001600081525061260e565b6040516001600160a01b038216907f947c20b95ed5f5f8f99d0a7f7d99fcd90f312c2dc785d4cf0567d2359c7ab68090600090a250505050565b600060603073b9d5b99d5d0fa04dd7eb2b0cd7753317c2ea1a84146108335760405163acbcffa760e01b815260040160405180910390fd5b600084815260fb60209081526040808320868452600101825280832033845290915281205463ffffffff16900361087d576040516363aae7a360e01b815260040160405180910390fd5b600084815260fb602090815260408083208684526001018083528184203385528084529184205493879052909152600701805463ffffffff9092169181906108c490615351565b80601f01602080910402602001604051908101604052809291908181526020018280546108f090615351565b801561093d5780601f106109125761010080835404028352916020019161093d565b820191906000526020600020905b81548152906001019060200180831161092057829003601f168201915b50505050509050915091505b9250929050565b6001600160a01b037f00000000000000000000000000000000000000000000000000000000000000001630036109985760405162461bcd60e51b81526004016106e8906152b9565b7f00000000000000000000000000000000000000000000000000000000000000006001600160a01b03166109e1600080516020615c95833981519152546001600160a01b031690565b6001600160a01b031614610a075760405162461bcd60e51b81526004016106e890615305565b610a1082612911565b610a1c82826001612919565b5050565b600082815260fb60209081526040808320600381015485855260019091019092529091206001600160a01b03909116908190610a5d818333612a84565b610a7a5760405163ea8e4eb560e01b815260040160405180910390fd5b60098101805465ffffffff000019169055600881018054600168ffffffff000000000160a01b0319169055610ab3600682016000614182565b604051849086907fd647384cccbd8b477a7b02b9e866072937e9a23b473b9de13fc0c6cb1d392a0a90600090a35050505050565b6000306001600160a01b037f00000000000000000000000000000000000000000000000000000000000000001614610b875760405162461bcd60e51b815260206004820152603860248201527f555550535570677261646561626c653a206d757374206e6f742062652063616c60448201527f6c6564207468726f7567682064656c656761746563616c6c000000000000000060648201526084016106e8565b50600080516020615c9583398151915290565b610ba2612b8f565b600083815260fe602090815260408083208584528252909120825180518493610bcf9284929101906141bc565b509050507fde068a6b15eb9234f0b7cee3dcfda9643e64b937beaae4108a11295ca1154104838383604051610c069392919061538b565b60405180910390a1505050565b600083815260fb6020526040902080546001019081905563ffffffff811115610c4f57604051636dac6a0960e01b815260040160405180910390fd5b6127108361018001511115610c7757604051636dac6a0960e01b815260040160405180910390fd5b80600103610dc157604051630bafd3f560e11b815260048101859052600090735cef0380ce0ad3daeefef8bdb85dbded7965adf99063175fa7ea90602401602060405180830381865afa158015610cd2573d6000803e3d6000fd5b505050506040513d601f19601f82011682018060405250810190610cf691906153b3565b6001600160a01b031603610d1d57604051636dac6a0960e01b815260040160405180910390fd5b604051630bafd3f560e11b815260048101859052735cef0380ce0ad3daeefef8bdb85dbded7965adf99063175fa7ea90602401602060405180830381865afa158015610d6d573d6000803e3d6000fd5b505050506040513d601f19601f82011682018060405250810190610d9191906153b3565b600085815260fb6020526040902060030180546001600160a01b0319166001600160a01b03929092169190911790555b600084815260fb60205260409081902060030154905163166eb15b60e21b81523360048201526001600160a01b039091169081906359bac56c90602401602060405180830381865afa158015610e1b573d6000803e3d6000fd5b505050506040513d601f19601f82011682018060405250810190610e3f91906153d0565b610e5c5760405163ea8e4eb560e01b815260040160405180910390fd5b600085815260fb6020908152604080832063ffffffff86168452600101909152902084515115610f855760005b855151811015610f8357610f1360fb600088600001518481518110610eb057610eb06153ed565b6020026020010151600001516001600160801b03168152602001908152602001600020600101600088600001518481518110610eee57610eee6153ed565b60200260200101516020015163ffffffff168152602001908152602001600020612be9565b8160020186600001518281518110610f2d57610f2d6153ed565b602090810291909101810151825460018181018555600094855293839020825191018054929093015163ffffffff16600160801b026001600160a01b03199092166001600160801b039091161717905501610e89565b505b6040805160808101825260008082526020820181905291810182905260608101829052905b8660200151518110156112685786602001518181518110610fcd57610fcd6153ed565b6020026020010151915060006001600160a01b031682606001516001600160a01b03161415801561106b5750606082015160405163b25e9c3960e01b81526001600160a01b0391821660048201529085169063b25e9c3990602401602060405180830381865afa158015611045573d6000803e3d6000fd5b505050506040513d601f19601f8201168201806040525081019061106991906153d0565b155b1561108957604051630b27db6160e11b815260040160405180910390fd5b81516001600160f81b0316156110d757815160608301516001600160a01b03166000908152600185016020526040902080546001600160f81b0319166001600160f81b039092169190911790555b81602001511561120d5760608201516001600160a01b0316156111cb57606082015160405163a2d7046f60e01b81526006602160991b0160048201526001600160a01b03909116602482015262093a80604482015260026064820152600090732b3eee365ce2c8a21096a348fc9005233229b58f9063a2d7046f906084016000604051808303816000875af1158015611174573d6000803e3d6000fd5b505050506040513d6000823e601f3d908101601f1916820160405261119c9190810190615479565b505080519091506001600160a01b03166111c957604051632b9bb16560e11b815260040160405180910390fd5b505b60208083015160608401516001600160a01b031660009081526001860190925260409091208054911515600160f81b026001600160f81b039092169190911790555b60408201516001600160a01b0316156112605760408281015160608401516001600160a01b039081166000908152600187810160205293902090920180546001600160a01b031916929091169190911790555b600101610faa565b5060408501516001600160a01b0316156112fc5784518051869160038501916112989183916020909101906141bc565b5060208201516001820155604082015160029091018054606084015160809094015160e090811c600160c01b0263ffffffff60c01b199590911c600160a01b026001600160c01b03199092166001600160a01b039094169390931717929092161790555b8561016001511561132b5760088201805460ff60f01b1981166004600160f01b9283900460ff16179091021790555b85610140015115611383576127108560200151111561135d57604051633806212b60e21b815260040160405180910390fd5b6008828101805460ff60f01b198116600160f01b9182900460ff16909317029190911790555b61139e828760a0015161ffff168860c0015161ffff16612c14565b6008820180546001600160a01b03191633179055610100860151156113e15760088201805460ff60f01b1981166001600160f01b9283900460ff16179091021790555b60e086015160ff16156114145760e086015160088301805460ff909216600160e81b0260ff60e81b199092169190911790555b856101200151156114475760088201805460ff60f01b1981166002600160f01b9283900460ff1617909102179055611473565b608086015160088301805463ffffffff909216600160c81b0263ffffffff60c81b199092169190911790555b6040860151511561149b57604086015180516114999160068501916020909101906141bc565b505b606086015151156114c357606086015180516114c19160078501916020909101906141bc565b505b8561018001518260090160006101000a81548161ffff021916908361ffff16021790555083877f46fd72a3edcc3e64ce4c031d20b52b4d2676d312c7f647bbae3340f7c56bf17233898960405161151c9392919061565f565b60405180910390a350505050505050565b604051630bafd3f560e11b815260048101849052600090735cef0380ce0ad3daeefef8bdb85dbded7965adf99063175fa7ea90602401602060405180830381865afa158015611580573d6000803e3d6000fd5b505050506040513d601f19601f820116820180604052508101906115a491906153b3565b60405163166eb15b60e21b81523360048201529091506001600160a01b038216906359bac56c90602401602060405180830381865afa1580156115eb573d6000803e3d6000fd5b505050506040513d601f19601f8201168201806040525081019061160f91906153d0565b61162c5760405163ea8e4eb560e01b815260040160405180910390fd5b61271082111561164f57604051636dac6a0960e01b815260040160405180910390fd5b6040805184151581526020810184905285917fb0b88304f8c02c0665b0e2045748dc61c9514689390192154a569ee763f3cc3b910160405180910390a250600092835260fb6020526040909220600301805461ffff909316600160a81b0261ffff60a81b19921515600160a01b029290921662ffffff60a01b1990931692909217179055565b604080516020808201835260608252600085815260fe8252838120858252825283902083519182019093528254919290918290829061171390615351565b80601f016020809104026020016040519081016040528092919081815260200182805461173f90615351565b801561178c5780601f106117615761010080835404028352916020019161178c565b820191906000526020600020905b81548152906001019060200180831161176f57829003601f168201915b50505050508152505090505b92915050565b6117a6612b8f565b6117b06000612cde565b565b8351600090815260fb6020908152604080832060030154875184528184208389015185526001019092529091206001600160a01b039091169081906117f8818333612a84565b6118155760405163ea8e4eb560e01b815260040160405180910390fd5b6127108760c00151111561183c57604051636dac6a0960e01b815260040160405180910390fd5b611850818860e00151896101000151612c14565b8415611ba3576040805160808101825260008082526020820181905291810182905260608101829052905b86811015611ba057878782818110611895576118956153ed565b9050608002018036038101906118ab91906157a9565b60608101519092506001600160a01b03161561194e57606082015160405163b25e9c3960e01b81526001600160a01b0391821660048201529085169063b25e9c3990602401602060405180830381865afa15801561190d573d6000803e3d6000fd5b505050506040513d601f19601f8201168201806040525081019061193191906153d0565b61194e57604051630b27db6160e11b815260040160405180910390fd5b60608201516001600160a01b0316600090815260018401602052604090205482516001600160f81b039081169116146119bf57815160608301516001600160a01b03166000908152600185016020526040902080546001600160f81b0319166001600160f81b039092169190911790555b60608201516001600160a01b0316600090815260018401602090815260409091205490830151600160f81b90910460ff16151590151514611b265760608201516001600160a01b031615611ae457606082015160405163a2d7046f60e01b81526006602160991b0160048201526001600160a01b03909116602482015262093a80604482015260026064820152600090732b3eee365ce2c8a21096a348fc9005233229b58f9063a2d7046f906084016000604051808303816000875af1158015611a8d573d6000803e3d6000fd5b505050506040513d6000823e601f3d908101601f19168201604052611ab59190810190615479565b505080519091506001600160a01b0316611ae257604051632b9bb16560e11b815260040160405180910390fd5b505b60208083015160608401516001600160a01b031660009081526001860190925260409091208054911515600160f81b026001600160f81b039092169190911790555b60608201516001600160a01b03908116600090815260018086016020526040918290200154908401518216911614611b985760408281015160608401516001600160a01b039081166000908152600187810160205293902090920180546001600160a01b031916929091169190911790555b60010161187b565b50505b86606001518015611bc057506008810154600160f01b9004600116155b80611be557508660600151158015611be557506008810154600160f01b900460011615155b15611c105760088101805460ff600160f01b80830482166001189091160260ff60f01b199091161790555b86608001518015611c3057506008810154600160f01b9004600190811c16155b80611c5857508660800151158015611c5857506008810154600160f01b9004600190811c1615155b15611c835760088101805460ff600160f01b80830482166002189091160260ff60f01b199091161790555b60408701516008820154600160e81b900460ff908116911614611cc657604087015160088201805460ff909216600160e81b0260ff60e81b199092169190911790555b866080015115611ce75760088101805463ffffffff60c81b19169055611d33565b60a08701516008820154600160c81b900463ffffffff908116911614611d335760a087015160088201805463ffffffff909216600160c81b0263ffffffff60c81b199092169190911790555b60408401516001600160a01b031615611e0c578351805185916003840191611d629183916020909101906141bc565b5060208281015160018301556040808401516002909301805460608601516080909601516001600160a01b039095166001600160c01b031990911617600160a01b60e096871c021763ffffffff60c01b1916600160c01b9490951c9390930293909317909155880151885191519091907f1dc9b6a2e759a6aba0408c06b83deb0f57c90dee629f039e0b31423a1337785d90611dff9088906157c5565b60405180910390a3611e97565b60808401516001600160e01b031916600160e01b03611e9757600381016000611e358282614182565b50600060018201819055600290910180546001600160e01b03191690556080850152602087015187516040517f1dc9b6a2e759a6aba0408c06b83deb0f57c90dee629f039e0b31423a1337785d90611e8e9088906157c5565b60405180910390a35b60c087015160098201805461ffff191661ffff90921691909117905560088101546040517f7ab4fd7e169709d003204efc66f3fc7e826e050103c2adbbaf31ccc6ea51634191611efa918a91600160c81b900463ffffffff16908a908a90615861565b60405180910390a150505050505050565b600054610100900460ff1615808015611f2b5750600054600160ff909116105b80611f455750303b158015611f45575060005460ff166001145b611fa85760405162461bcd60e51b815260206004820152602e60248201527f496e697469616c697a61626c653a20636f6e747261637420697320616c72656160448201526d191e481a5b9a5d1a585b1a5e995960921b60648201526084016106e8565b6000805460ff191660011790558015611fcb576000805461ff0019166101001790555b611fd3612d37565b8015610785576000805461ff0019169055604051600181527f7f26b83ff96e1f2b6a682f133852f6798a09c465da95921460cefb38474024989060200160405180910390a150565b600082815260fb6020908152604080832084845260010182528083206001600160a01b038716845290915290205463ffffffff165b9392505050565b60208401511561211a57835160208501516040808701516060880151608089015160a08a015160c08b015160e08c015195516371f70b0760e11b81526001600160a01b03988916600482015230602482015260448101979097526064870194909452608486019290925260a485015260ff1660c484015260e48301526101048201529082169063e3ee160e9061012401600060405180830381600087803b15801561210157600080fd5b505af1158015612115573d6000803e3d6000fd5b505050505b61215385846040518060800160405280600115158152602001866001600160a01b0316815260200160008152602001600081525061260e565b6040516370a0823160e01b81523060048201526000906001600160a01b038316906370a0823190602401602060405180830381865afa15801561219a573d6000803e3d6000fd5b505050506040513d601f19601f820116820180604052508101906121be919061590b565b9050801561223e57845160405163a9059cbb60e01b81526001600160a01b039182166004820152602481018390529083169063a9059cbb906044016020604051808303816000875af1158015612218573d6000803e3d6000fd5b505050506040513d601f19601f8201168201806040525081019061223c91906153d0565b505b505050505050565b6122678484848473833589fcd6edb6e08f4c7c32d4f71b54bda02913612057565b50505050565b6060816001600160401b0381111561228757612287614255565b6040519080825280602002602001820160405280156122ba57816020015b60608152602001906001900390816122a55790505b50905060005b8281101561235a5761232a308585848181106122de576122de6153ed565b90506020028101906122f09190615924565b8080601f016020809104026020016040519081016040528093929190818152602001838380828437600092019190915250612d6692505050565b82828151811061233c5761233c6153ed565b6020026020010181905250808061235290615980565b9150506122c0565b5092915050565b60fe60205260009081526040902060018101805461237e90615351565b80601f01602080910402602001604051908101604052809291908181526020018280546123aa90615351565b80156123f75780601f106123cc576101008083540402835291602001916123f7565b820191906000526020600020905b8154815290600101906020018083116123da57829003601f168201915b5050505050905081565b604080516000808252602082019092526107859183919061245a565b6040805160a081018252600080825260208083018290529282018190526060808301919091526080820152825260001990920191018161241d5790505b50604051806080016040528060001515815260200160006001600160a01b0316815260200160008152602001600081525061260e565b6124bb6040518060800160405280600081526020016000815260200160008152602001600081525090565b600087815260fb6020908152604080832089845260010190915290206124e681898989898989612e5a565b98975050505050505050565b6124fa612b8f565b600082815260fe60209081526040909120825190916125209160018401918501906141bc565b507ff4c3506be00af10f0f3964668d219cf9258ff12b690d85c08e9af3d639164a418383604051610c06929190614802565b600083815260fb6020818152604080842086855260018101835290842087855292909152600301546001600160a01b031661258e828286612a84565b9695505050505050565b6125a0612b8f565b6001600160a01b0381166126055760405162461bcd60e51b815260206004820152602660248201527f4f776e61626c653a206e6577206f776e657220697320746865207a65726f206160448201526564647265737360d01b60648201526084016106e8565b61078581612cde565b61261661337b565b6000336001600160a01b031682602001516001600160a01b03160361263d57600060208301525b60005b84518110156126805761266c85828151811061265e5761265e6153ed565b6020026020010151846133c1565b6126769083615999565b9150600101612640565b506040805160a0810182526000808252602082018190529181018290526060808201839052608082015290805b85518110156128f2578581815181106126c8576126c86153ed565b602090810291909101015180519093506001600160a01b031661276c576020830151604051630bafd3f560e11b81526001600160801b039091166004820152735cef0380ce0ad3daeefef8bdb85dbded7965adf99063175fa7ea90602401602060405180830381865afa158015612743573d6000803e3d6000fd5b505050506040513d601f19601f8201168201806040525081019061276791906153b3565b61276f565b82515b60608401519092506001600160a01b03166127cc57604083015161279c906001600160801b031685615999565b93506127c783604001516001600160801b0316836001600160a01b0316613d6090919063ffffffff16565b612889565b82516001600160a01b031661286857606083015160405163b25e9c3960e01b81526001600160a01b0391821660048201529083169063b25e9c3990602401602060405180830381865afa158015612827573d6000803e3d6000fd5b505050506040513d601f19601f8201168201806040525081019061284b91906153d0565b61286857604051630b27db6160e11b815260040160405180910390fd5b612889856000015184606001518486604001516001600160801b0316613db1565b82604001516001600160801b0316826001600160a01b031684606001516001600160a01b03167faf4e8fbdf3eeda1bb461f86b73d9341aad76a124175886910acc8ce457007ced86608001516040516128e2919061516c565b60405180910390a46001016126ad565b5060006128ff84346159b1565b9050801561223c5761223c3382613d60565b610785612b8f565b7f4910fdfa16fed3260ed0e7147f7cc6da11a60208b5b9406d12a635614ffd91435460ff161561294c5761069b83613ea8565b826001600160a01b03166352d1902d6040518163ffffffff1660e01b8152600401602060405180830381865afa9250505080156129a6575060408051601f3d908101601f191682019092526129a39181019061590b565b60015b612a095760405162461bcd60e51b815260206004820152602e60248201527f45524331393637557067726164653a206e657720696d706c656d656e7461746960448201526d6f6e206973206e6f74205555505360901b60648201526084016106e8565b600080516020615c958339815191528114612a785760405162461bcd60e51b815260206004820152602960248201527f45524331393637557067726164653a20756e737570706f727465642070726f786044820152681a58589b195555525160ba1b60648201526084016106e8565b5061069b838383613f44565b6000612a8f84612be9565b600884015460405163166eb15b60e21b81526001600160a01b039182166004820152908416906359bac56c90602401602060405180830381865afa158015612adb573d6000803e3d6000fd5b505050506040513d601f19601f82011682018060405250810190612aff91906153d0565b15612b1d575060088301546001600160a01b03828116911614612050565b60405163166eb15b60e21b81526001600160a01b0383811660048301528416906359bac56c90602401602060405180830381865afa158015612b63573d6000803e3d6000fd5b505050506040513d601f19601f82011682018060405250810190612b8791906153d0565b949350505050565b6097546001600160a01b031633146117b05760405162461bcd60e51b815260206004820181905260248201527f4f776e61626c653a2063616c6c6572206973206e6f7420746865206f776e657260448201526064016106e8565b60088101546001600160a01b0316610785576040516329c2f8dd60e11b815260040160405180910390fd5b811561069b57600082815260fe60205260409020600181018054612c3790615351565b9050600003612c5957604051636b3ac97b60e11b815260040160405180910390fd5b8115612cbc57600082815260208290526040902080548190612c7a90615351565b9050600003612c9c5760405163ded7b89d60e01b815260040160405180910390fd5b5060098401805465ffff00000000191664010000000061ffff8516021790555b5060098301805461ffff8416620100000263ffff000019909116179055505050565b609780546001600160a01b038381166001600160a01b0319831681179093556040519116919082907f8be0079c531659141344cd1fd0a4f28419497f9722a3daafe3b4186f6b6457e090600090a35050565b5050505050565b600054610100900460ff16612d5e5760405162461bcd60e51b81526004016106e8906159c8565b6117b0613f69565b60606001600160a01b0383163b612dce5760405162461bcd60e51b815260206004820152602660248201527f416464726573733a2064656c65676174652063616c6c20746f206e6f6e2d636f6044820152651b9d1c9858dd60d21b60648201526084016106e8565b600080846001600160a01b031684604051612de99190615a13565b600060405180830381855af49150503d8060008114612e24576040519150601f19603f3d011682016040523d82523d6000602084013e612e29565b606091505b5091509150612e518282604051806060016040528060278152602001615cb560279139613f99565b95945050505050565b612e856040518060800160405280600081526020016000815260200160008152602001600081525090565b612e8e88612be9565b6001600160a01b0380861660009081526001808b016020908152604092839020835160608101855281546001600160f81b038116825260ff600160f81b909104811615159382019390935292015490931691810182905260088b01549092600160f01b90910416906131e3576001600160a01b038716612f295785612f1883600184161515613fb2565b612f229190615a2f565b8352613265565b81602001511561315357600080805260018b0160205260409020546001600160f81b0316151580612f63575081516001600160f81b031615155b1561312a5781516000906001600160f81b03168103612fe057600080805260018c81016020908152604092839020835160608101855281546001600160f81b0381168252600160f81b900460ff161515928101929092528201546001600160a01b031692810192909252612fdb919084161515613fb2565b612fec565b82516001600160f81b03165b90506001600160801b0381111561301657604051633806212b60e21b815260040160405180910390fd5b6040516331b889b160e11b81528790732b3eee365ce2c8a21096a348fc9005233229b58f9063637113629061305e9085906006602160991b01908e9061070890600401615a4e565b602060405180830381865afa15801561307b573d6000803e3d6000fd5b505050506040513d601f19601f8201168201806040525081019061309f919061590b565b6130a99190615a2f565b6020850181905260000361312457600080805260018c81016020908152604092839020835160608101855281546001600160f81b0381168252600160f81b900460ff161515928101929092528201546001600160a01b03169281019290925288916131179185161515613fb2565b6131219190615a2f565b84525b50613265565b6001811660000361314e57604051630b27db6160e11b815260040160405180910390fd5b613265565b81516001600160f81b0316156131835781516131799087906001600160f81b0316615a2f565b6020840152613265565b600080805260018b81016020908152604092839020835160608101855281546001600160f81b0381168252600160f81b900460ff161515928101929092528201546001600160a01b0316928101929092528791612f189184161515613fb2565b81604001516001600160a01b031663d7a3d0c88a8a8a8a8a8a6040518763ffffffff1660e01b815260040161321d96959493929190615a84565b6040805180830381865afa158015613239573d6000803e3d6000fd5b505050506040513d601f19601f8201168201806040525081019061325d9190615ac4565b602085015283525b60048a01541561336e576001600382901c161580156132e9576001600283901c16158015906132cd5784602001516000036132b357604051630b27db6160e11b815260040160405180910390fd5b60048c01546132c3908990615a2f565b60608601526132e3565b60048c01546132dd908990615a2f565b60408601525b5061336c565b6020840151156133345760048b015460208501516127109161330a91615a2f565b6133149190615ae8565b6060850181905260208501805161332c9083906159b1565b90525061336c565b60048b015484516127109161334891615a2f565b6133529190615ae8565b60408501819052845185906133689083906159b1565b9052505b505b5050979650505050505050565b60c95460ff16156117b05760405162461bcd60e51b815260206004820152601060248201526f14185d5cd8589b194e881c185d5cd95960821b60448201526064016106e8565b6000826040015163ffffffff16600014611798576020838101516001600160801b0316600090815260fb9091526040902060030154600160a01b900460ff161561341e57604051632149aed960e21b815260040160405180910390fd5b82600001516001600160a01b031682602001516001600160a01b03160361344757600060208301525b600060fb600085602001516001600160801b031681526020019081526020016000206001016000856080015163ffffffff168152602001908152602001600020905060006134c78286602001516001600160801b0316876080015163ffffffff168860600151896040015163ffffffff168a600001518b60a00151612e5a565b6020868101516001600160801b0316600090815260fb909152604090206003015460088401549192506001600160a01b031690600160e81b900460ff161561356f57600883015460408781015188516001600160a01b0316600090815260208790529190912054600160e81b90920460ff169161354a919063ffffffff16615b0a565b63ffffffff16111561356f57604051636dac6a0960e01b815260040160405180910390fd5b6008830154600160f01b9004600190811c166000036135f7576008830154604087015163ffffffff600160c81b9092048216911611156135c257604051636dac6a0960e01b815260040160405180910390fd5b604086015160088401805463ffffffff600160c81b8083048216949094031690920263ffffffff60c81b199092169190911790555b604082015182516136089190615999565b825190945015801590613627575060208501516001600160a01b031615155b156136b757600983015461ffff16600081900361366c57506020868101516001600160801b0316600090815260fb9091526040902060030154600160a81b900461ffff165b80156136b55760006127108285600001516136879190615a2f565b6136919190615ae8565b8451819003855260208801519091506136b3906001600160a01b031682613d60565b505b505b81516136cd906001600160a01b03831690613d60565b60408087015187516001600160a01b03166000908152602086905291822080549192909161370290849063ffffffff16615b0a565b92506101000a81548163ffffffff021916908363ffffffff16021790555081602001516000146137e75760208501516001600160a01b0316156137cf57600983015461ffff16600081900361377f57506020868101516001600160801b0316600090815260fb9091526040902060030154600160a81b900461ffff165b80156137cd57600061271082856020015161379a9190615a2f565b6137a49190615ae8565b602080860180518390039052885160608b0151918a01519293506137cb9290919084613db1565b505b505b6137e785600001518760600151838560200151613db1565b6002830154156139345760005b60028401548110156139325761391e6040518060c0016040528089600001516001600160a01b03168152602001866002018481548110613836576138366153ed565b9060005260206000200160000160009054906101000a90046001600160801b03166001600160801b03168152602001896040015163ffffffff16815260200189606001516001600160a01b0316815260200186600201848154811061389d5761389d6153ed565b9060005260206000200160000160109054906101000a900463ffffffff1663ffffffff1681526020018960a00151815250604051806080016040528089600001511515815260200189602001516001600160a01b031681526020018a602001516001600160801b031681526020018a6080015163ffffffff168152506133c1565b6139289086615999565b94506001016137f4565b505b60058301546001600160a01b031615613cdb576005830154600090600160c01b900460e01b6001600160e01b03191615613a5b5760058401546001600160a01b03838116911614613cbb57600584015460408085015160208a015160808b01518b518c85015160a08e015195516001600160a01b038816979596600160c01b90960460e01b956139d0959493929160038e019190602401615b32565b60408051601f198184030181529181526020820180516001600160e01b03166001600160e01b0319909416939093179092529051613a0e9190615a13565b60006040518083038185875af1925050503d8060008114613a4b576040519150601f19603f3d011682016040523d82523d6000602084013e613a50565b606091505b505080915050613cbb565b606083015115613bbd57613a91866000015188606001517361bcd1ed11fc03c958a847a6687b1875f5eacaaf8660600151613db1565b602087015160058501546060808a015190860151604051630b90c4a560e11b8152600481018290526001600160a01b0380841660248301527361bcd1ed11fc03c958a847a6687b1875f5eacaaf956359fc470a9590949082169390929091891690631721894a90604401602060405180830381865afa158015613b18573d6000803e3d6000fd5b505050506040513d601f19601f82011682018060405250810190613b3c919061590b565b6040516001600160e01b031960e088901b1681526001600160801b0390951660048601526001600160a01b0393841660248601529290911660448401526064830152608482015260a401600060405180830381600087803b158015613ba057600080fd5b505af1158015613bb4573d6000803e3d6000fd5b50505050613cb7565b60408381015160058601549151630b90c4a560e11b815260048101829052600060248201527361bcd1ed11fc03c958a847a6687b1875f5eacaaf926339ed512392916001600160a01b0391821691871690631721894a90604401602060405180830381865afa158015613c34573d6000803e3d6000fd5b505050506040513d601f19601f82011682018060405250810190613c58919061590b565b6040516001600160e01b031960e086901b1681526001600160a01b03909216600483015260248201526044016000604051808303818588803b158015613c9d57600080fd5b505af1158015613cb1573d6000803e3d6000fd5b50505050505b5060015b80613cd95760405163af6eefa360e01b815260040160405180910390fd5b505b85600001516001600160a01b0316866080015163ffffffff1687602001516001600160801b03167f392f594e624e358091bb17d04cc5fac6221a0d9d1218d3dd08a007b0de11f21b89604001518a60600151878b602001518c604001518d60600151604051613d4f96959493929190615c28565b60405180910390a450505092915050565b600080600080600085875af190508061069b5760405162461bcd60e51b815260206004820152601360248201527211551217d514905394d1915497d19052531151606a1b60448201526064016106e8565b83613e35576040516323b872dd60e01b81523360048201526001600160a01b038381166024830152604482018390528416906323b872dd906064016020604051808303816000875af1158015613e0b573d6000803e3d6000fd5b505050506040513d601f19601f82011682018060405250810190613e2f91906153d0565b50612267565b60405163a9059cbb60e01b81526001600160a01b0383811660048301526024820183905284169063a9059cbb906044016020604051808303816000875af1158015613e84573d6000803e3d6000fd5b505050506040513d601f19601f82011682018060405250810190612d3091906153d0565b6001600160a01b0381163b613f155760405162461bcd60e51b815260206004820152602d60248201527f455243313936373a206e657720696d706c656d656e746174696f6e206973206e60448201526c1bdd08184818dbdb9d1c9858dd609a1b60648201526084016106e8565b600080516020615c9583398151915280546001600160a01b0319166001600160a01b0392909216919091179055565b613f4d83614118565b600082511180613f5a5750805b1561069b576122678383612d66565b600054610100900460ff16613f905760405162461bcd60e51b81526004016106e8906159c8565b6117b033612cde565b60608315613fa8575081612050565b6120508383614158565b81516000906001600160f81b0316158015613fcb575081155b15613fe957604051630b27db6160e11b815260040160405180910390fd5b8260200151156141095782516001600160801b036001600160f81b03909116111561402757604051633806212b60e21b815260040160405180910390fd5b82516040516331b889b160e11b8152732b3eee365ce2c8a21096a348fc9005233229b58f91636371136291614082919073833589fcd6edb6e08f4c7c32d4f71b54bda02913906006602160991b019061070890600401615a4e565b602060405180830381865afa15801561409f573d6000803e3d6000fd5b505050506040513d601f19601f820116820180604052508101906140c3919061590b565b9050806000036141045760405162461bcd60e51b815260206004820152600c60248201526b125b9d985b1a59081c1bdbdb60a21b60448201526064016106e8565b611798565b5050516001600160f81b031690565b61412181613ea8565b6040516001600160a01b038216907fbc7cd75a20ee27fd9adebab32041f755214dbc6bffa90cc0225b39da2e5c2d3b90600090a250565b8151156141685781518083602001fd5b8060405162461bcd60e51b81526004016106e8919061516c565b50805461418e90615351565b6000825580601f1061419e575050565b601f0160209004906000526020600020908101906107859190614240565b8280546141c890615351565b90600052602060002090601f0160209004810192826141ea5760008555614230565b82601f1061420357805160ff1916838001178555614230565b82800160010185558215614230579182015b82811115614230578251825591602001919060010190614215565b5061423c929150614240565b5090565b5b8082111561423c5760008155600101614241565b634e487b7160e01b600052604160045260246000fd5b60405160c081016001600160401b038111828210171561428d5761428d614255565b60405290565b60405160a081016001600160401b038111828210171561428d5761428d614255565b604080519081016001600160401b038111828210171561428d5761428d614255565b604051608081016001600160401b038111828210171561428d5761428d614255565b6040516101a081016001600160401b038111828210171561428d5761428d614255565b60405161012081016001600160401b038111828210171561428d5761428d614255565b604051601f8201601f191681016001600160401b038111828210171561436757614367614255565b604052919050565b60006001600160401b0382111561438857614388614255565b5060051b60200190565b6001600160a01b038116811461078557600080fd5b80356001600160801b03811681146143be57600080fd5b919050565b803563ffffffff811681146143be57600080fd5b600082601f8301126143e857600080fd5b81356001600160401b0381111561440157614401614255565b614414601f8201601f191660200161433f565b81815284602083860101111561442957600080fd5b816020850160208301376000918101602001919091529392505050565b600082601f83011261445757600080fd5b8135602061446c6144678361436f565b61433f565b82815260059290921b8401810191818101908684111561448b57600080fd5b8286015b848110156145605780356001600160401b03808211156144af5760008081fd5b9088019060c0828b03601f19018113156144c95760008081fd5b6144d161426b565b878401356144de81614392565b815260406144ed8582016143a7565b8983015260606144fe8187016143c3565b82840152608091508186013561451381614392565b9083015260a06145248682016143c3565b8383015292850135928484111561453d57600091508182fd5b61454b8e8b868901016143d7565b9083015250865250505091830191830161448f565b509695505050505050565b600082601f83011261457c57600080fd5b8135602061458c6144678361436f565b82815260059290921b840181019181810190868411156145ab57600080fd5b8286015b848110156145605780356001600160401b03808211156145cf5760008081fd5b9088019060a0828b03601f19018113156145e95760008081fd5b6145f1614293565b878401356145fe81614392565b8152604061460d8582016143a7565b89830152606061461e8187016143a7565b82840152608091508186013561463381614392565b9083015291840135918383111561464a5760008081fd5b6146588d8a858801016143d7565b9082015286525050509183019183016145af565b60008060006060848603121561468157600080fd5b83356001600160401b038082111561469857600080fd5b6146a487838801614446565b945060208601359150808211156146ba57600080fd5b506146c78682870161456b565b92505060408401356146d881614392565b809150509250925092565b600080604083850312156146f657600080fd5b50508035926020909101359150565b60006020828403121561471757600080fd5b813561205081614392565b6000806000806080858703121561473857600080fd5b84356001600160401b038082111561474f57600080fd5b61475b88838901614446565b9550602087013591508082111561477157600080fd5b5061477e8782880161456b565b935050604085013561478f81614392565b9150606085013561479f81614392565b939692955090935050565b60005b838110156147c55781810151838201526020016147ad565b838111156122675750506000910152565b600081518084526147ee8160208601602086016147aa565b601f01601f19169290920160200192915050565b828152604060208201526000612b8760408301846147d6565b6000806040838503121561482e57600080fd5b823561483981614392565b915060208301356001600160401b0381111561485457600080fd5b614860858286016143d7565b9150509250929050565b60008060006060848603121561487f57600080fd5b833592506020840135915060408401356001600160401b03808211156148a457600080fd5b90850190602082880312156148b857600080fd5b6040516020810181811083821117156148d3576148d3614255565b6040528235828111156148e557600080fd5b6148f1898286016143d7565b8252508093505050509250925092565b600082601f83011261491257600080fd5b813560206149226144678361436f565b82815260069290921b8401810191818101908684111561494157600080fd5b8286015b84811015614560576040818903121561495e5760008081fd5b6149666142b5565b61496f826143a7565b815261497c8583016143c3565b81860152835291830191604001614945565b80356001600160f81b03811681146143be57600080fd5b801515811461078557600080fd5b80356143be816149a5565b6000608082840312156149d057600080fd5b6149d86142d7565b90506149e38261498e565b815260208201356149f3816149a5565b60208201526040820135614a0681614392565b60408201526060820135614a1981614392565b606082015292915050565b600082601f830112614a3557600080fd5b81356020614a456144678361436f565b82815260079290921b84018101918181019086841115614a6457600080fd5b8286015b8481101561456057614a7a88826149be565b835291830191608001614a68565b61ffff8116811461078557600080fd5b80356143be81614a88565b803560ff811681146143be57600080fd5b80356001600160e01b0319811681146143be57600080fd5b600060a08284031215614ade57600080fd5b614ae6614293565b905081356001600160401b03811115614afe57600080fd5b614b0a848285016143d7565b825250602082013560208201526040820135614b2581614392565b6040820152614b3660608301614ab4565b6060820152614b4760808301614ab4565b608082015292915050565b600080600060608486031215614b6757600080fd5b8335925060208401356001600160401b0380821115614b8557600080fd5b908501906101a08288031215614b9a57600080fd5b614ba26142f9565b823582811115614bb157600080fd5b614bbd89828601614901565b825250602083013582811115614bd257600080fd5b614bde89828601614a24565b602083015250604083013582811115614bf657600080fd5b614c02898286016143d7565b604083015250606083013582811115614c1a57600080fd5b614c26898286016143d7565b606083015250614c38608084016143c3565b6080820152614c4960a08401614a98565b60a0820152614c5a60c08401614a98565b60c0820152614c6b60e08401614aa3565b60e0820152610100614c7e8185016149b3565b90820152610120614c908482016149b3565b90820152610140614ca28482016149b3565b90820152610160614cb48482016149b3565b90820152610180928301359281019290925290925060408501359080821115614cdc57600080fd5b50614ce986828701614acc565b9150509250925092565b600080600060608486031215614d0857600080fd5b833592506020840135614d1a816149a5565b929592945050506040919091013590565b6020815260008251602080840152612b8760408401826147d6565b60008083601f840112614d5857600080fd5b5081356001600160401b03811115614d6f57600080fd5b6020830191508360208260071b850101111561094957600080fd5b600080600080848603610160811215614da257600080fd5b61012080821215614db257600080fd5b614dba61431c565b91508635825260208701356020830152614dd660408801614aa3565b6040830152614de7606088016149b3565b6060830152614df8608088016149b3565b6080830152614e0960a088016143c3565b60a083015260c0878101359083015260e0808801359083015261010080880135908301529094508501356001600160401b0380821115614e4857600080fd5b614e5488838901614d46565b9095509350610140870135915080821115614e6e57600080fd5b50614e7b87828801614acc565b91505092959194509250565b600080600060608486031215614e9c57600080fd5b8335614ea781614392565b95602085013595506040909401359392505050565b6000610100808385031215614ed057600080fd5b604051908101906001600160401b0382118183101715614ef257614ef2614255565b8160405280925083359150614f0682614392565b81815260208401356020820152604084013560408201526060840135606082015260808401356080820152614f3d60a08501614aa3565b60a082015260c084013560c082015260e084013560e0820152505092915050565b60008060008060006101808688031215614f7757600080fd5b85356001600160401b0380821115614f8e57600080fd5b614f9a89838a01614446565b9650614fa98960208a01614ebc565b9550610120880135915080821115614fc057600080fd5b50614fcd8882890161456b565b935050610140860135614fdf81614392565b9150610160860135614ff081614392565b809150509295509295909350565b600080600080610160858703121561501557600080fd5b84356001600160401b038082111561502c57600080fd5b61503888838901614446565b95506150478860208901614ebc565b945061012087013591508082111561505e57600080fd5b5061506b8782880161456b565b92505061014085013561479f81614392565b6000806020838503121561509057600080fd5b82356001600160401b03808211156150a757600080fd5b818501915085601f8301126150bb57600080fd5b8135818111156150ca57600080fd5b8660208260051b85010111156150df57600080fd5b60209290920196919550909350505050565b6000602080830181845280855180835260408601915060408160051b870101925083870160005b8281101561514657603f198886030184526151348583516147d6565b94509285019290850190600101615118565b5092979650505050505050565b60006020828403121561516557600080fd5b5035919050565b60208152600061205060208301846147d6565b60006020828403121561519157600080fd5b81356001600160401b038111156151a757600080fd5b612b8784828501614446565b60008060008060008060c087890312156151cc57600080fd5b863595506020870135945060408701356151e581614392565b93506060870135925060808701356151fc81614392565b915060a08701356001600160401b0381111561521757600080fd5b61522389828a016143d7565b9150509295509295509295565b8151815260208083015190820152604080830151908201526060808301519082015260808101611798565b6000806040838503121561526e57600080fd5b8235915060208301356001600160401b0381111561485457600080fd5b6000806000606084860312156152a057600080fd5b833592506020840135915060408401356146d881614392565b6020808252602c908201527f46756e6374696f6e206d7573742062652063616c6c6564207468726f7567682060408201526b19195b1959d85d1958d85b1b60a21b606082015260800190565b6020808252602c908201527f46756e6374696f6e206d7573742062652063616c6c6564207468726f7567682060408201526b6163746976652070726f787960a01b606082015260800190565b600181811c9082168061536557607f821691505b60208210810361538557634e487b7160e01b600052602260045260246000fd5b50919050565b83815282602082015260606040820152600082516020606084015261258e60808401826147d6565b6000602082840312156153c557600080fd5b815161205081614392565b6000602082840312156153e257600080fd5b8151612050816149a5565b634e487b7160e01b600052603260045260246000fd5b600082601f83011261541457600080fd5b815160206154246144678361436f565b82815260059290921b8401810191818101908684111561544357600080fd5b8286015b848110156145605780518060060b81146154615760008081fd5b8352918301918301615447565b80516143be81614392565b600080600083850360c081121561548f57600080fd5b608081121561549d57600080fd5b506154a66142d7565b84516154b181614392565b8152602085015162ffffff811681146154c957600080fd5b6020820152604085015165ffffffffffff811681146154e757600080fd5b604082015260608501516154fa81614a88565b606082015260808501519093506001600160401b0381111561551b57600080fd5b61552786828701615403565b92505061553660a0850161546e565b90509250925092565b600081518084526020808501945080840160005b8381101561558957815180516001600160801b0316885283015163ffffffff168388015260409096019590820190600101615553565b509495945050505050565b600081518084526020808501945080840160005b8381101561558957815180516001600160f81b03168852838101511515848901526040808201516001600160a01b03908116918a01919091526060918201511690880152608090960195908201906001016155a8565b6000815160a0845261561360a08501826147d6565b602084810151908601526040808501516001600160a01b0316908601526060808501516001600160e01b0319908116918701919091526080948501511693909401929092525090919050565b60018060a01b038416815260606020820152600083516101a080606085015261568c61020085018361553f565b91506020860151605f19808685030160808701526156aa8483615594565b935060408801519150808685030160a08701526156c784836147d6565b935060608801519150808685030160c0870152506156e583826147d6565b92505060808601516156ff60e086018263ffffffff169052565b5060a08601516101006157178187018361ffff169052565b60c088015191506101206157308188018461ffff169052565b60e089015192506101406157488189018560ff169052565b9189015192506101609161575f8884018515159052565b908901519250610180906157768883018515159052565b89015115159387019390935287015115156101c0860152508501516101e0840152828103604084015261258e81856155fe565b6000608082840312156157bb57600080fd5b61205083836149be565b60208152600061205060208301846155fe565b8183526000602080850194508260005b85811015615589576001600160f81b036158018361498e565b16875282820135615811816149a5565b15158784015260408281013561582681614392565b6001600160a01b0390811691890191909152606090838201359061584982614392565b169088015260809687019691909101906001016157e8565b6000610160865183526020870151602084015260ff604088015116604084015260608701511515606084015260808701516158a0608085018215159052565b5060a08701516158b860a085018263ffffffff169052565b5060c087015160c084015260e087015160e08401526101008088015181850152506158ec61012084018763ffffffff169052565b8061014084015261590081840185876157d8565b979650505050505050565b60006020828403121561591d57600080fd5b5051919050565b6000808335601e1984360301811261593b57600080fd5b8301803591506001600160401b0382111561595557600080fd5b60200191503681900382131561094957600080fd5b634e487b7160e01b600052601160045260246000fd5b6000600182016159925761599261596a565b5060010190565b600082198211156159ac576159ac61596a565b500190565b6000828210156159c3576159c361596a565b500390565b6020808252602b908201527f496e697469616c697a61626c653a20636f6e7472616374206973206e6f74206960408201526a6e697469616c697a696e6760a81b606082015260800190565b60008251615a258184602087016147aa565b9190910192915050565b6000816000190483118215151615615a4957615a4961596a565b500290565b6001600160801b039490941684526001600160a01b0392831660208501529116604083015263ffffffff16606082015260800190565b868152602081018690526001600160a01b038581166040830152606082018590528316608082015260c060a082018190526000906124e6908301846147d6565b60008060408385031215615ad757600080fd5b505080516020909101519092909150565b600082615b0557634e487b7160e01b600052601260045260246000fd5b500490565b600063ffffffff808316818516808303821115615b2957615b2961596a565b01949350505050565b6001600160801b038716815263ffffffff8681166020808401919091526001600160a01b0387166040840152908516606083015260c060808301528354600091908290600181811c9082811680615b8a57607f831692505b8583108103615ba757634e487b7160e01b85526022600452602485fd5b60c0880183905260e08801818015615bc65760018114615bd757615c02565b60ff19861682528782019650615c02565b60008c81526020902060005b86811015615bfc57815484820152908501908901615be3565b83019750505b50505050505083810360a0850152615c1a81866147d6565b9a9950505050505050505050565b63ffffffff871681526001600160a01b038681166020830152610120820190615c756040840188805182526020810151602083015260408101516040830152606081015160608301525050565b9490941660c082015260e081019290925261010090910152939250505056fe360894a13ba1a3210667c828492db98dca3e2076cc3735a920a3ca505d382bbc416464726573733a206c6f772d6c6576656c2064656c65676174652063616c6c206661696c6564a2646970667358221220165878ece236b85265a89a8617b1982483c1218f88bc5815cb0e40d419e9a20364736f6c634300080d0033",
  "linkReferences": {},
  "deployedLinkReferences": {}
}