{
  "_format": "hh-sol-artifact-1",
  "contractName": "ProductsModule",
  "sourceName": "contracts/ProductsModule.sol",
  "abi": [
    {
      "inputs": [],
      "stateMutability": "nonpayable",
      "type": "constructor"
    },
    {
      "inputs": [],
      "name": "ActiveListing",
      "type": "error"
    },
    {
      "inputs": [],
      "name": "ExceedsMaxValue",
      "type": "error"
    },
    {
      "inputs": [],
      "name": "InexistentPool",
      "type": "error"
    },
    {
      "inputs": [],
      "name": "InexistentProduct",
      "type": "error"
    },
    {
      "inputs": [],
      "name": "Invalid",
      "type": "error"
    },
    {
      "inputs": [],
      "name": "NoDelegatecall",
      "type": "error"
    },
    {
      "inputs": [],
      "name": "NotAuthorized",
      "type": "error"
    },
    {
      "inputs": [],
      "name": "NotPurchased",
      "type": "error"
    },
    {
      "inputs": [],
      "name": "NotSuccessful",
      "type": "error"
    },
    {
      "inputs": [],
      "name": "StoreNotOpen",
      "type": "error"
    },
    {
      "inputs": [],
      "name": "TooSoon",
      "type": "error"
    },
    {
      "inputs": [],
      "name": "WrongCurrency",
      "type": "error"
    },
    {
      "anonymous": false,
      "inputs": [
        {
          "indexed": false,
          "internalType": "address",
          "name": "previousAdmin",
          "type": "address"
        },
        {
          "indexed": false,
          "internalType": "address",
          "name": "newAdmin",
          "type": "address"
        }
      ],
      "name": "AdminChanged",
      "type": "event"
    },
    {
      "anonymous": false,
      "inputs": [
        {
          "indexed": true,
          "internalType": "address",
          "name": "beacon",
          "type": "address"
        }
      ],
      "name": "BeaconUpgraded",
      "type": "event"
    },
    {
      "anonymous": false,
      "inputs": [
        {
          "indexed": true,
          "internalType": "uint256",
          "name": "slicerId",
          "type": "uint256"
        },
        {
          "indexed": true,
          "internalType": "address",
          "name": "contractAddress",
          "type": "address"
        },
        {
          "indexed": true,
          "internalType": "uint256",
          "name": "tokenId",
          "type": "uint256"
        },
        {
          "indexed": false,
          "internalType": "uint256",
          "name": "currentAmount",
          "type": "uint256"
        }
      ],
      "name": "ERC1155ListingChanged",
      "type": "event"
    },
    {
      "anonymous": false,
      "inputs": [
        {
          "indexed": true,
          "internalType": "uint256",
          "name": "slicerId",
          "type": "uint256"
        },
        {
          "indexed": true,
          "internalType": "address",
          "name": "contractAddress",
          "type": "address"
        },
        {
          "indexed": true,
          "internalType": "uint256",
          "name": "tokenId",
          "type": "uint256"
        },
        {
          "indexed": false,
          "internalType": "bool",
          "name": "isActive",
          "type": "bool"
        }
      ],
      "name": "ERC721ListingChanged",
      "type": "event"
    },
    {
      "anonymous": false,
      "inputs": [
        {
          "indexed": true,
          "internalType": "address",
          "name": "currency",
          "type": "address"
        },
        {
          "indexed": true,
          "internalType": "address",
          "name": "recipient",
          "type": "address"
        },
        {
          "indexed": true,
          "internalType": "uint256",
          "name": "amount",
          "type": "uint256"
        },
        {
          "indexed": false,
          "internalType": "string",
          "name": "description",
          "type": "string"
        }
      ],
      "name": "ExtraCostPaid",
      "type": "event"
    },
    {
      "anonymous": false,
      "inputs": [
        {
          "indexed": false,
          "internalType": "uint8",
          "name": "version",
          "type": "uint8"
        }
      ],
      "name": "Initialized",
      "type": "event"
    },
    {
      "anonymous": false,
      "inputs": [
        {
          "indexed": true,
          "internalType": "address",
          "name": "previousOwner",
          "type": "address"
        },
        {
          "indexed": true,
          "internalType": "address",
          "name": "newOwner",
          "type": "address"
        }
      ],
      "name": "OwnershipTransferred",
      "type": "event"
    },
    {
      "anonymous": false,
      "inputs": [
        {
          "indexed": false,
          "internalType": "address",
          "name": "account",
          "type": "address"
        }
      ],
      "name": "Paused",
      "type": "event"
    },
    {
      "anonymous": false,
      "inputs": [
        {
          "indexed": true,
          "internalType": "uint256",
          "name": "slicerId",
          "type": "uint256"
        },
        {
          "indexed": true,
          "internalType": "uint256",
          "name": "productId",
          "type": "uint256"
        },
        {
          "indexed": true,
          "internalType": "uint256",
          "name": "categoryIndex",
          "type": "uint256"
        },
        {
          "indexed": false,
          "internalType": "address",
          "name": "creator",
          "type": "address"
        },
        {
          "components": [
            {
              "components": [
                {
                  "internalType": "uint128",
                  "name": "subSlicerId",
                  "type": "uint128"
                },
                {
                  "internalType": "uint32",
                  "name": "subProductId",
                  "type": "uint32"
                }
              ],
              "internalType": "struct SubSlicerProduct[]",
              "name": "subSlicerProducts",
              "type": "tuple[]"
            },
            {
              "components": [
                {
                  "internalType": "uint248",
                  "name": "value",
                  "type": "uint248"
                },
                {
                  "internalType": "bool",
                  "name": "dynamicPricing",
                  "type": "bool"
                },
                {
                  "internalType": "address",
                  "name": "externalAddress",
                  "type": "address"
                },
                {
                  "internalType": "address",
                  "name": "currency",
                  "type": "address"
                }
              ],
              "internalType": "struct CurrencyPrice[]",
              "name": "currencyPrices",
              "type": "tuple[]"
            },
            {
              "internalType": "bytes",
              "name": "data",
              "type": "bytes"
            },
            {
              "internalType": "bytes",
              "name": "purchaseData",
              "type": "bytes"
            },
            {
              "internalType": "uint32",
              "name": "availableUnits",
              "type": "uint32"
            },
            {
              "internalType": "uint8",
              "name": "maxUnitsPerBuyer",
              "type": "uint8"
            },
            {
              "internalType": "bool",
              "name": "isFree",
              "type": "bool"
            },
            {
              "internalType": "bool",
              "name": "isInfinite",
              "type": "bool"
            },
            {
              "internalType": "bool",
              "name": "isExternalCallPaymentRelative",
              "type": "bool"
            },
            {
              "internalType": "bool",
              "name": "isExternalCallPreferredToken",
              "type": "bool"
            },
            {
              "internalType": "uint256",
              "name": "referralFeeProduct",
              "type": "uint256"
            }
          ],
          "indexed": false,
          "internalType": "struct ProductParams",
          "name": "params",
          "type": "tuple"
        },
        {
          "components": [
            {
              "internalType": "bytes",
              "name": "data",
              "type": "bytes"
            },
            {
              "internalType": "uint256",
              "name": "value",
              "type": "uint256"
            },
            {
              "internalType": "address",
              "name": "externalAddress",
              "type": "address"
            },
            {
              "internalType": "bytes4",
              "name": "checkFunctionSignature",
              "type": "bytes4"
            },
            {
              "internalType": "bytes4",
              "name": "execFunctionSignature",
              "type": "bytes4"
            }
          ],
          "indexed": false,
          "internalType": "struct Function",
          "name": "externalCall",
          "type": "tuple"
        }
      ],
      "name": "ProductAdded",
      "type": "event"
    },
    {
      "anonymous": false,
      "inputs": [
        {
          "indexed": true,
          "internalType": "uint256",
          "name": "slicerId",
          "type": "uint256"
        },
        {
          "indexed": true,
          "internalType": "uint256",
          "name": "productId",
          "type": "uint256"
        },
        {
          "components": [
            {
              "internalType": "bytes",
              "name": "data",
              "type": "bytes"
            },
            {
              "internalType": "uint256",
              "name": "value",
              "type": "uint256"
            },
            {
              "internalType": "address",
              "name": "externalAddress",
              "type": "address"
            },
            {
              "internalType": "bytes4",
              "name": "checkFunctionSignature",
              "type": "bytes4"
            },
            {
              "internalType": "bytes4",
              "name": "execFunctionSignature",
              "type": "bytes4"
            }
          ],
          "indexed": false,
          "internalType": "struct Function",
          "name": "externalCall",
          "type": "tuple"
        }
      ],
      "name": "ProductExternalCallUpdated",
      "type": "event"
    },
    {
      "anonymous": false,
      "inputs": [
        {
          "indexed": true,
          "internalType": "uint256",
          "name": "slicerId",
          "type": "uint256"
        },
        {
          "indexed": true,
          "internalType": "uint256",
          "name": "productId",
          "type": "uint256"
        },
        {
          "indexed": false,
          "internalType": "uint8",
          "name": "maxUnitsPerBuyer",
          "type": "uint8"
        },
        {
          "indexed": false,
          "internalType": "bool",
          "name": "isFree",
          "type": "bool"
        },
        {
          "indexed": false,
          "internalType": "bool",
          "name": "isInfinite",
          "type": "bool"
        },
        {
          "indexed": false,
          "internalType": "uint256",
          "name": "newUnits",
          "type": "uint256"
        },
        {
          "components": [
            {
              "internalType": "uint248",
              "name": "value",
              "type": "uint248"
            },
            {
              "internalType": "bool",
              "name": "dynamicPricing",
              "type": "bool"
            },
            {
              "internalType": "address",
              "name": "externalAddress",
              "type": "address"
            },
            {
              "internalType": "address",
              "name": "currency",
              "type": "address"
            }
          ],
          "indexed": false,
          "internalType": "struct CurrencyPrice[]",
          "name": "currencyPrices",
          "type": "tuple[]"
        },
        {
          "indexed": false,
          "internalType": "uint256",
          "name": "referralFeeProduct",
          "type": "uint256"
        }
      ],
      "name": "ProductInfoChanged",
      "type": "event"
    },
    {
      "anonymous": false,
      "inputs": [
        {
          "indexed": true,
          "internalType": "uint256",
          "name": "slicerId",
          "type": "uint256"
        },
        {
          "indexed": true,
          "internalType": "uint256",
          "name": "productId",
          "type": "uint256"
        },
        {
          "indexed": false,
          "internalType": "uint256",
          "name": "quantity",
          "type": "uint256"
        },
        {
          "indexed": true,
          "internalType": "address",
          "name": "buyer",
          "type": "address"
        },
        {
          "indexed": false,
          "internalType": "address",
          "name": "currency",
          "type": "address"
        },
        {
          "components": [
            {
              "internalType": "uint256",
              "name": "eth",
              "type": "uint256"
            },
            {
              "internalType": "uint256",
              "name": "currency",
              "type": "uint256"
            },
            {
              "internalType": "uint256",
              "name": "ethExternalCall",
              "type": "uint256"
            },
            {
              "internalType": "uint256",
              "name": "currencyExternalCall",
              "type": "uint256"
            }
          ],
          "indexed": false,
          "internalType": "struct Price",
          "name": "price",
          "type": "tuple"
        },
        {
          "indexed": false,
          "internalType": "address",
          "name": "referrer",
          "type": "address"
        },
        {
          "indexed": false,
          "internalType": "uint256",
          "name": "parentSlicerId",
          "type": "uint256"
        },
        {
          "indexed": false,
          "internalType": "uint256",
          "name": "parentProductId",
          "type": "uint256"
        }
      ],
      "name": "ProductPaid",
      "type": "event"
    },
    {
      "anonymous": false,
      "inputs": [
        {
          "indexed": true,
          "internalType": "uint256",
          "name": "slicerId",
          "type": "uint256"
        },
        {
          "indexed": true,
          "internalType": "uint256",
          "name": "productId",
          "type": "uint256"
        }
      ],
      "name": "ProductRemoved",
      "type": "event"
    },
    {
      "anonymous": false,
      "inputs": [
        {
          "indexed": true,
          "internalType": "address",
          "name": "buyer",
          "type": "address"
        }
      ],
      "name": "PurchaseMade",
      "type": "event"
    },
    {
      "anonymous": false,
      "inputs": [
        {
          "indexed": true,
          "internalType": "uint256",
          "name": "slicerId",
          "type": "uint256"
        },
        {
          "indexed": false,
          "internalType": "uint256",
          "name": "ethToRelease",
          "type": "uint256"
        }
      ],
      "name": "ReleasedToSlicer",
      "type": "event"
    },
    {
      "anonymous": false,
      "inputs": [
        {
          "indexed": true,
          "internalType": "uint256",
          "name": "slicerId",
          "type": "uint256"
        },
        {
          "indexed": false,
          "internalType": "bool",
          "name": "isStoreClosed",
          "type": "bool"
        },
        {
          "indexed": false,
          "internalType": "uint256",
          "name": "referralFeeStore",
          "type": "uint256"
        }
      ],
      "name": "StoreConfigChanged",
      "type": "event"
    },
    {
      "anonymous": false,
      "inputs": [
        {
          "indexed": false,
          "internalType": "address",
          "name": "account",
          "type": "address"
        }
      ],
      "name": "Unpaused",
      "type": "event"
    },
    {
      "anonymous": false,
      "inputs": [
        {
          "indexed": true,
          "internalType": "address",
          "name": "implementation",
          "type": "address"
        }
      ],
      "name": "Upgraded",
      "type": "event"
    },
    {
      "inputs": [],
      "name": "MINT_PRODUCT_AMOUNT",
      "outputs": [
        {
          "internalType": "uint256",
          "name": "",
          "type": "uint256"
        }
      ],
      "stateMutability": "view",
      "type": "function"
    },
    {
      "inputs": [
        {
          "internalType": "uint256",
          "name": "slicerId",
          "type": "uint256"
        },
        {
          "internalType": "bool",
          "name": "isClosed",
          "type": "bool"
        },
        {
          "internalType": "uint256",
          "name": "referralFeeStore",
          "type": "uint256"
        }
      ],
      "name": "_setStoreConfig",
      "outputs": [],
      "stateMutability": "nonpayable",
      "type": "function"
    },
    {
      "inputs": [
        {
          "internalType": "uint256",
          "name": "slicerId",
          "type": "uint256"
        },
        {
          "components": [
            {
              "components": [
                {
                  "internalType": "uint128",
                  "name": "subSlicerId",
                  "type": "uint128"
                },
                {
                  "internalType": "uint32",
                  "name": "subProductId",
                  "type": "uint32"
                }
              ],
              "internalType": "struct SubSlicerProduct[]",
              "name": "subSlicerProducts",
              "type": "tuple[]"
            },
            {
              "components": [
                {
                  "internalType": "uint248",
                  "name": "value",
                  "type": "uint248"
                },
                {
                  "internalType": "bool",
                  "name": "dynamicPricing",
                  "type": "bool"
                },
                {
                  "internalType": "address",
                  "name": "externalAddress",
                  "type": "address"
                },
                {
                  "internalType": "address",
                  "name": "currency",
                  "type": "address"
                }
              ],
              "internalType": "struct CurrencyPrice[]",
              "name": "currencyPrices",
              "type": "tuple[]"
            },
            {
              "internalType": "bytes",
              "name": "data",
              "type": "bytes"
            },
            {
              "internalType": "bytes",
              "name": "purchaseData",
              "type": "bytes"
            },
            {
              "internalType": "uint32",
              "name": "availableUnits",
              "type": "uint32"
            },
            {
              "internalType": "uint8",
              "name": "maxUnitsPerBuyer",
              "type": "uint8"
            },
            {
              "internalType": "bool",
              "name": "isFree",
              "type": "bool"
            },
            {
              "internalType": "bool",
              "name": "isInfinite",
              "type": "bool"
            },
            {
              "internalType": "bool",
              "name": "isExternalCallPaymentRelative",
              "type": "bool"
            },
            {
              "internalType": "bool",
              "name": "isExternalCallPreferredToken",
              "type": "bool"
            },
            {
              "internalType": "uint256",
              "name": "referralFeeProduct",
              "type": "uint256"
            }
          ],
          "internalType": "struct ProductParams",
          "name": "params",
          "type": "tuple"
        },
        {
          "components": [
            {
              "internalType": "bytes",
              "name": "data",
              "type": "bytes"
            },
            {
              "internalType": "uint256",
              "name": "value",
              "type": "uint256"
            },
            {
              "internalType": "address",
              "name": "externalAddress",
              "type": "address"
            },
            {
              "internalType": "bytes4",
              "name": "checkFunctionSignature",
              "type": "bytes4"
            },
            {
              "internalType": "bytes4",
              "name": "execFunctionSignature",
              "type": "bytes4"
            }
          ],
          "internalType": "struct Function",
          "name": "externalCall_",
          "type": "tuple"
        }
      ],
      "name": "addProduct",
      "outputs": [],
      "stateMutability": "nonpayable",
      "type": "function"
    },
    {
      "inputs": [
        {
          "internalType": "uint256",
          "name": "slicerId",
          "type": "uint256"
        },
        {
          "internalType": "uint256",
          "name": "productId",
          "type": "uint256"
        }
      ],
      "name": "availableUnits",
      "outputs": [
        {
          "internalType": "uint256",
          "name": "units",
          "type": "uint256"
        },
        {
          "internalType": "bool",
          "name": "isInfinite",
          "type": "bool"
        }
      ],
      "stateMutability": "view",
      "type": "function"
    },
    {
      "inputs": [],
      "name": "fundsModule",
      "outputs": [
        {
          "internalType": "contract IFundsModule",
          "name": "",
          "type": "address"
        }
      ],
      "stateMutability": "view",
      "type": "function"
    },
    {
      "inputs": [],
      "name": "initialize",
      "outputs": [],
      "stateMutability": "nonpayable",
      "type": "function"
    },
    {
      "inputs": [
        {
          "internalType": "uint256",
          "name": "slicerId",
          "type": "uint256"
        },
        {
          "internalType": "uint256",
          "name": "productId",
          "type": "uint256"
        },
        {
          "internalType": "address",
          "name": "account",
          "type": "address"
        }
      ],
      "name": "isProductOwner",
      "outputs": [
        {
          "internalType": "bool",
          "name": "isAllowed",
          "type": "bool"
        }
      ],
      "stateMutability": "view",
      "type": "function"
    },
    {
      "inputs": [
        {
          "internalType": "uint256",
          "name": "slicerId",
          "type": "uint256"
        }
      ],
      "name": "nextProductId",
      "outputs": [
        {
          "internalType": "uint256",
          "name": "",
          "type": "uint256"
        }
      ],
      "stateMutability": "view",
      "type": "function"
    },
    {
      "inputs": [],
      "name": "owner",
      "outputs": [
        {
          "internalType": "address",
          "name": "",
          "type": "address"
        }
      ],
      "stateMutability": "view",
      "type": "function"
    },
    {
      "inputs": [],
      "name": "paused",
      "outputs": [
        {
          "internalType": "bool",
          "name": "",
          "type": "bool"
        }
      ],
      "stateMutability": "view",
      "type": "function"
    },
    {
      "inputs": [
        {
          "components": [
            {
              "internalType": "address",
              "name": "buyer",
              "type": "address"
            },
            {
              "internalType": "uint128",
              "name": "slicerId",
              "type": "uint128"
            },
            {
              "internalType": "uint32",
              "name": "quantity",
              "type": "uint32"
            },
            {
              "internalType": "address",
              "name": "currency",
              "type": "address"
            },
            {
              "internalType": "uint32",
              "name": "productId",
              "type": "uint32"
            },
            {
              "internalType": "bytes",
              "name": "buyerCustomData",
              "type": "bytes"
            }
          ],
          "internalType": "struct PurchaseParams[]",
          "name": "purchases",
          "type": "tuple[]"
        },
        {
          "components": [
            {
              "internalType": "address",
              "name": "recipient",
              "type": "address"
            },
            {
              "internalType": "uint128",
              "name": "slicerId",
              "type": "uint128"
            },
            {
              "internalType": "uint128",
              "name": "amount",
              "type": "uint128"
            },
            {
              "internalType": "address",
              "name": "currency",
              "type": "address"
            },
            {
              "internalType": "string",
              "name": "description",
              "type": "string"
            }
          ],
          "internalType": "struct ExtraCost[]",
          "name": "extraCosts",
          "type": "tuple[]"
        },
        {
          "internalType": "address",
          "name": "referrer",
          "type": "address"
        }
      ],
      "name": "payProducts",
      "outputs": [],
      "stateMutability": "payable",
      "type": "function"
    },
    {
      "inputs": [
        {
          "components": [
            {
              "internalType": "address",
              "name": "buyer",
              "type": "address"
            },
            {
              "internalType": "uint128",
              "name": "slicerId",
              "type": "uint128"
            },
            {
              "internalType": "uint32",
              "name": "quantity",
              "type": "uint32"
            },
            {
              "internalType": "address",
              "name": "currency",
              "type": "address"
            },
            {
              "internalType": "uint32",
              "name": "productId",
              "type": "uint32"
            },
            {
              "internalType": "bytes",
              "name": "buyerCustomData",
              "type": "bytes"
            }
          ],
          "internalType": "struct PurchaseParams[]",
          "name": "purchases",
          "type": "tuple[]"
        },
        {
          "components": [
            {
              "internalType": "address",
              "name": "recipient",
              "type": "address"
            },
            {
              "internalType": "uint128",
              "name": "slicerId",
              "type": "uint128"
            },
            {
              "internalType": "uint128",
              "name": "amount",
              "type": "uint128"
            },
            {
              "internalType": "address",
              "name": "currency",
              "type": "address"
            },
            {
              "internalType": "string",
              "name": "description",
              "type": "string"
            }
          ],
          "internalType": "struct ExtraCost[]",
          "name": "extraCosts",
          "type": "tuple[]"
        },
        {
          "internalType": "address",
          "name": "referrer",
          "type": "address"
        },
        {
          "internalType": "address",
          "name": "buyer",
          "type": "address"
        }
      ],
      "name": "payProducts",
      "outputs": [],
      "stateMutability": "payable",
      "type": "function"
    },
    {
      "inputs": [
        {
          "components": [
            {
              "internalType": "address",
              "name": "buyer",
              "type": "address"
            },
            {
              "internalType": "uint128",
              "name": "slicerId",
              "type": "uint128"
            },
            {
              "internalType": "uint32",
              "name": "quantity",
              "type": "uint32"
            },
            {
              "internalType": "address",
              "name": "currency",
              "type": "address"
            },
            {
              "internalType": "uint32",
              "name": "productId",
              "type": "uint32"
            },
            {
              "internalType": "bytes",
              "name": "buyerCustomData",
              "type": "bytes"
            }
          ],
          "internalType": "struct PurchaseParams[]",
          "name": "purchases",
          "type": "tuple[]"
        }
      ],
      "name": "payProducts",
      "outputs": [],
      "stateMutability": "payable",
      "type": "function"
    },
    {
      "inputs": [
        {
          "components": [
            {
              "internalType": "address",
              "name": "buyer",
              "type": "address"
            },
            {
              "internalType": "uint128",
              "name": "slicerId",
              "type": "uint128"
            },
            {
              "internalType": "uint32",
              "name": "quantity",
              "type": "uint32"
            },
            {
              "internalType": "address",
              "name": "currency",
              "type": "address"
            },
            {
              "internalType": "uint32",
              "name": "productId",
              "type": "uint32"
            },
            {
              "internalType": "bytes",
              "name": "buyerCustomData",
              "type": "bytes"
            }
          ],
          "internalType": "struct PurchaseParams[]",
          "name": "purchases",
          "type": "tuple[]"
        },
        {
          "components": [
            {
              "internalType": "address",
              "name": "from",
              "type": "address"
            },
            {
              "internalType": "uint256",
              "name": "value",
              "type": "uint256"
            },
            {
              "internalType": "uint256",
              "name": "validAfter",
              "type": "uint256"
            },
            {
              "internalType": "uint256",
              "name": "validBefore",
              "type": "uint256"
            },
            {
              "internalType": "bytes32",
              "name": "nonce",
              "type": "bytes32"
            },
            {
              "internalType": "uint8",
              "name": "v",
              "type": "uint8"
            },
            {
              "internalType": "bytes32",
              "name": "r",
              "type": "bytes32"
            },
            {
              "internalType": "bytes32",
              "name": "s",
              "type": "bytes32"
            }
          ],
          "internalType": "struct PayWithAuthorizationParams",
          "name": "authorizationParams",
          "type": "tuple"
        }
      ],
      "name": "payWithAuthorization",
      "outputs": [],
      "stateMutability": "payable",
      "type": "function"
    },
    {
      "inputs": [
        {
          "components": [
            {
              "internalType": "address",
              "name": "buyer",
              "type": "address"
            },
            {
              "internalType": "uint128",
              "name": "slicerId",
              "type": "uint128"
            },
            {
              "internalType": "uint32",
              "name": "quantity",
              "type": "uint32"
            },
            {
              "internalType": "address",
              "name": "currency",
              "type": "address"
            },
            {
              "internalType": "uint32",
              "name": "productId",
              "type": "uint32"
            },
            {
              "internalType": "bytes",
              "name": "buyerCustomData",
              "type": "bytes"
            }
          ],
          "internalType": "struct PurchaseParams[]",
          "name": "purchases",
          "type": "tuple[]"
        },
        {
          "components": [
            {
              "internalType": "address",
              "name": "from",
              "type": "address"
            },
            {
              "internalType": "uint256",
              "name": "value",
              "type": "uint256"
            },
            {
              "internalType": "uint256",
              "name": "validAfter",
              "type": "uint256"
            },
            {
              "internalType": "uint256",
              "name": "validBefore",
              "type": "uint256"
            },
            {
              "internalType": "bytes32",
              "name": "nonce",
              "type": "bytes32"
            },
            {
              "internalType": "uint8",
              "name": "v",
              "type": "uint8"
            },
            {
              "internalType": "bytes32",
              "name": "r",
              "type": "bytes32"
            },
            {
              "internalType": "bytes32",
              "name": "s",
              "type": "bytes32"
            }
          ],
          "internalType": "struct PayWithAuthorizationParams",
          "name": "authorizationParams",
          "type": "tuple"
        },
        {
          "components": [
            {
              "internalType": "address",
              "name": "recipient",
              "type": "address"
            },
            {
              "internalType": "uint128",
              "name": "slicerId",
              "type": "uint128"
            },
            {
              "internalType": "uint128",
              "name": "amount",
              "type": "uint128"
            },
            {
              "internalType": "address",
              "name": "currency",
              "type": "address"
            },
            {
              "internalType": "string",
              "name": "description",
              "type": "string"
            }
          ],
          "internalType": "struct ExtraCost[]",
          "name": "extraCosts",
          "type": "tuple[]"
        },
        {
          "internalType": "address",
          "name": "referrer",
          "type": "address"
        }
      ],
      "name": "payWithAuthorization",
      "outputs": [],
      "stateMutability": "payable",
      "type": "function"
    },
    {
      "inputs": [],
      "name": "priceFeed",
      "outputs": [
        {
          "internalType": "contract IPriceFeed",
          "name": "",
          "type": "address"
        }
      ],
      "stateMutability": "view",
      "type": "function"
    },
    {
      "inputs": [
        {
          "internalType": "uint256",
          "name": "slicerId",
          "type": "uint256"
        },
        {
          "internalType": "uint256",
          "name": "productId",
          "type": "uint256"
        },
        {
          "internalType": "address",
          "name": "currency",
          "type": "address"
        },
        {
          "internalType": "uint256",
          "name": "quantity",
          "type": "uint256"
        },
        {
          "internalType": "address",
          "name": "buyer",
          "type": "address"
        },
        {
          "internalType": "bytes",
          "name": "data",
          "type": "bytes"
        }
      ],
      "name": "productPrice",
      "outputs": [
        {
          "components": [
            {
              "internalType": "uint256",
              "name": "eth",
              "type": "uint256"
            },
            {
              "internalType": "uint256",
              "name": "currency",
              "type": "uint256"
            },
            {
              "internalType": "uint256",
              "name": "ethExternalCall",
              "type": "uint256"
            },
            {
              "internalType": "uint256",
              "name": "currencyExternalCall",
              "type": "uint256"
            }
          ],
          "internalType": "struct Price",
          "name": "price",
          "type": "tuple"
        }
      ],
      "stateMutability": "view",
      "type": "function"
    },
    {
      "inputs": [],
      "name": "proxiableUUID",
      "outputs": [
        {
          "internalType": "bytes32",
          "name": "",
          "type": "bytes32"
        }
      ],
      "stateMutability": "view",
      "type": "function"
    },
    {
      "inputs": [
        {
          "internalType": "uint256",
          "name": "slicerId",
          "type": "uint256"
        },
        {
          "internalType": "uint256",
          "name": "productId",
          "type": "uint256"
        }
      ],
      "name": "removeProduct",
      "outputs": [],
      "stateMutability": "nonpayable",
      "type": "function"
    },
    {
      "inputs": [],
      "name": "renounceOwnership",
      "outputs": [],
      "stateMutability": "nonpayable",
      "type": "function"
    },
    {
      "inputs": [
        {
          "internalType": "uint256",
          "name": "slicerId",
          "type": "uint256"
        },
        {
          "internalType": "uint256",
          "name": "productId",
          "type": "uint256"
        },
        {
          "internalType": "uint8",
          "name": "newMaxUnits",
          "type": "uint8"
        },
        {
          "internalType": "bool",
          "name": "isFree",
          "type": "bool"
        },
        {
          "internalType": "bool",
          "name": "isInfinite",
          "type": "bool"
        },
        {
          "internalType": "uint32",
          "name": "newUnits",
          "type": "uint32"
        },
        {
          "internalType": "uint256",
          "name": "referralFeeProduct",
          "type": "uint256"
        },
        {
          "components": [
            {
              "internalType": "uint248",
              "name": "value",
              "type": "uint248"
            },
            {
              "internalType": "bool",
              "name": "dynamicPricing",
              "type": "bool"
            },
            {
              "internalType": "address",
              "name": "externalAddress",
              "type": "address"
            },
            {
              "internalType": "address",
              "name": "currency",
              "type": "address"
            }
          ],
          "internalType": "struct CurrencyPrice[]",
          "name": "currencyPrices",
          "type": "tuple[]"
        },
        {
          "components": [
            {
              "internalType": "bytes",
              "name": "data",
              "type": "bytes"
            },
            {
              "internalType": "uint256",
              "name": "value",
              "type": "uint256"
            },
            {
              "internalType": "address",
              "name": "externalAddress",
              "type": "address"
            },
            {
              "internalType": "bytes4",
              "name": "checkFunctionSignature",
              "type": "bytes4"
            },
            {
              "internalType": "bytes4",
              "name": "execFunctionSignature",
              "type": "bytes4"
            }
          ],
          "internalType": "struct Function",
          "name": "externalCall_",
          "type": "tuple"
        }
      ],
      "name": "setProductInfo",
      "outputs": [],
      "stateMutability": "nonpayable",
      "type": "function"
    },
    {
      "inputs": [],
      "name": "sliceCore",
      "outputs": [
        {
          "internalType": "contract ISliceCore",
          "name": "",
          "type": "address"
        }
      ],
      "stateMutability": "view",
      "type": "function"
    },
    {
      "inputs": [
        {
          "internalType": "address",
          "name": "newOwner",
          "type": "address"
        }
      ],
      "name": "transferOwnership",
      "outputs": [],
      "stateMutability": "nonpayable",
      "type": "function"
    },
    {
      "inputs": [
        {
          "internalType": "address",
          "name": "newImplementation",
          "type": "address"
        }
      ],
      "name": "upgradeTo",
      "outputs": [],
      "stateMutability": "nonpayable",
      "type": "function"
    },
    {
      "inputs": [
        {
          "internalType": "address",
          "name": "newImplementation",
          "type": "address"
        },
        {
          "internalType": "bytes",
          "name": "data",
          "type": "bytes"
        }
      ],
      "name": "upgradeToAndCall",
      "outputs": [],
      "stateMutability": "payable",
      "type": "function"
    },
    {
      "inputs": [
        {
          "internalType": "uint256",
          "name": "slicerId",
          "type": "uint256"
        },
        {
          "internalType": "uint256",
          "name": "productId",
          "type": "uint256"
        }
      ],
      "name": "validatePurchase",
      "outputs": [
        {
          "internalType": "uint256",
          "name": "purchases",
          "type": "uint256"
        },
        {
          "internalType": "bytes",
          "name": "purchaseData",
          "type": "bytes"
        }
      ],
      "stateMutability": "view",
      "type": "function"
    },
    {
      "inputs": [
        {
          "internalType": "address",
          "name": "account",
          "type": "address"
        },
        {
          "internalType": "uint256",
          "name": "slicerId",
          "type": "uint256"
        },
        {
          "internalType": "uint256",
          "name": "productId",
          "type": "uint256"
        }
      ],
      "name": "validatePurchaseUnits",
      "outputs": [
        {
          "internalType": "uint256",
          "name": "purchases",
          "type": "uint256"
        }
      ],
      "stateMutability": "view",
      "type": "function"
    }
  ],
  "bytecode": "0x60a0604052306080523480156200001557600080fd5b506200002062000026565b620000e8565b600054610100900460ff1615620000935760405162461bcd60e51b815260206004820152602760248201527f496e697469616c697a61626c653a20636f6e747261637420697320696e697469604482015266616c697a696e6760c81b606482015260840160405180910390fd5b60005460ff9081161015620000e6576000805460ff191660ff9081179091556040519081527f7f26b83ff96e1f2b6a682f133852f6798a09c465da95921460cefb38474024989060200160405180910390a15b565b608051615fc7620001206000396000818161056c015281816105b5015281816114f001528181611530015261189f0152615fc76000f3fe60806040526004361061016c5760003560e01c8063741bef1a116100cc578063c1226f801161007a578063c1226f801461042c578063d2c5ca9a1461045c578063d7a3d0c81461046f578063e6e928081461049c578063f2fde38b146104bc578063f4c76363146104dc578063ff179f9e1461050457600080fd5b8063741bef1a1461036e5780638129fc1c146103965780638a0fdce4146103ab5780638da5cb5b146103be57806395f23704146103dc578063aa4d16de146103fc578063b79811e21461040f57600080fd5b80634f1ef286116101295780634f1ef2861461027f5780635287d5351461029257806352d1902d146102b25780635c975abb146102d55780635e8b09dc146102f95780636740ff4014610319578063715018a61461035957600080fd5b8063062b8b15146101715780631eafafb4146101865780633659cfe6146101fe5780633bb9aa061461021e578063424e673c146102315780634c04e9c614610251575b600080fd5b61018461017f366004614c62565b610524565b005b34801561019257600080fd5b506101e46101a1366004614cd9565b600091825260fb60209081526040808420928452600192830190915290912060080154600160c81b810463ffffffff1692600160f01b909104821c909116151590565b604080519283529015156020830152015b60405180910390f35b34801561020a57600080fd5b50610184610219366004614cfb565b610562565b61018461022c366004614d18565b61064a565b34801561023d57600080fd5b5061018461024c366004614fd6565b6106bd565b34801561025d57600080fd5b5061027161026c366004614cd9565b611391565b6040516101f59291906151ab565b61018461028d3660046151c4565b6114e6565b34801561029e57600080fd5b506101846102ad366004614cd9565b6115b6565b3480156102be57600080fd5b506102c7611892565b6040519081526020016101f5565b3480156102e157600080fd5b5060c95460ff165b60405190151581526020016101f5565b34801561030557600080fd5b50610184610314366004615213565b611945565b34801561032557600080fd5b506103417361bcd1ed11fc03c958a847a6687b1875f5eacaaf81565b6040516001600160a01b0390911681526020016101f5565b34801561036557600080fd5b50610184611aed565b34801561037a57600080fd5b50610341732b3eee365ce2c8a21096a348fc9005233229b58f81565b3480156103a257600080fd5b50610184611b01565b6101846103b93660046152ed565b611c11565b3480156103ca57600080fd5b506097546001600160a01b0316610341565b3480156103e857600080fd5b506102c76103f736600461533c565b611c51565b61018461040a366004615371565b611c8d565b34801561041b57600080fd5b506102c7686c6b935b8bbd40000081565b34801561043857600080fd5b506102c76104473660046153f0565b600090815260fb602052604090205460010190565b61018461046a366004615409565b611ea2565b34801561047b57600080fd5b5061048f61048a36600461543d565b611f0f565b6040516101f591906154ba565b3480156104a857600080fd5b506102e96104b73660046154e5565b611f71565b3480156104c857600080fd5b506101846104d7366004614cfb565b611fb7565b3480156104e857600080fd5b50610341735cef0380ce0ad3daeefef8bdb85dbded7965adf981565b34801561051057600080fd5b5061018461051f366004615557565b61202d565b61055d83836040518060800160405280600015158152602001856001600160a01b031681526020016000815260200160008152506126c1565b505050565b6001600160a01b037f00000000000000000000000000000000000000000000000000000000000000001630036105b35760405162461bcd60e51b81526004016105aa90615624565b60405180910390fd5b7f00000000000000000000000000000000000000000000000000000000000000006001600160a01b03166105fc600080516020615f2b833981519152546001600160a01b031690565b6001600160a01b0316146106225760405162461bcd60e51b81526004016105aa90615670565b61062b816129ad565b60408051600080825260208201909252610647918391906129b5565b50565b61068384846040518060800160405280600015158152602001866001600160a01b031681526020016000815260200160008152506126c1565b6040516001600160a01b038216907f947c20b95ed5f5f8f99d0a7f7d99fcd90f312c2dc785d4cf0567d2359c7ab68090600090a250505050565b600083815260fb6020526040902080546001019081905563ffffffff8111156106f957604051636dac6a0960e01b815260040160405180910390fd5b612710836101400151111561072157604051636dac6a0960e01b815260040160405180910390fd5b8060010361086b57604051630bafd3f560e11b815260048101859052600090735cef0380ce0ad3daeefef8bdb85dbded7965adf99063175fa7ea90602401602060405180830381865afa15801561077c573d6000803e3d6000fd5b505050506040513d601f19601f820116820180604052508101906107a091906156bc565b6001600160a01b0316036107c757604051636dac6a0960e01b815260040160405180910390fd5b604051630bafd3f560e11b815260048101859052735cef0380ce0ad3daeefef8bdb85dbded7965adf99063175fa7ea90602401602060405180830381865afa158015610817573d6000803e3d6000fd5b505050506040513d601f19601f8201168201806040525081019061083b91906156bc565b600085815260fb6020526040902060030180546001600160a01b0319166001600160a01b03929092169190911790555b600084815260fb60205260409081902060030154905163166eb15b60e21b81523360048201526001600160a01b039091169081906359bac56c90602401602060405180830381865afa1580156108c5573d6000803e3d6000fd5b505050506040513d601f19601f820116820180604052508101906108e991906156d9565b6109065760405163ea8e4eb560e01b815260040160405180910390fd5b600085815260fb6020908152604080832063ffffffff86168452600101909152902084515115610a2f5760005b855151811015610a2d576109bd60fb60008860000151848151811061095a5761095a6156f6565b6020026020010151600001516001600160801b03168152602001908152602001600020600101600088600001518481518110610998576109986156f6565b60200260200101516020015163ffffffff168152602001908152602001600020612b20565b81600201866000015182815181106109d7576109d76156f6565b602090810291909101810151825460018181018555600094855293839020825191018054929093015163ffffffff16600160801b026001600160a01b03199092166001600160801b039091161717905501610933565b505b6040805160808101825260008082526020820181905291810182905260608101829052905b866020015151811015610d125786602001518181518110610a7757610a776156f6565b6020026020010151915060006001600160a01b031682606001516001600160a01b031614158015610b155750606082015160405163b25e9c3960e01b81526001600160a01b0391821660048201529085169063b25e9c3990602401602060405180830381865afa158015610aef573d6000803e3d6000fd5b505050506040513d601f19601f82011682018060405250810190610b1391906156d9565b155b15610b3357604051630b27db6160e11b815260040160405180910390fd5b81516001600160f81b031615610b8157815160608301516001600160a01b03166000908152600185016020526040902080546001600160f81b0319166001600160f81b039092169190911790555b816020015115610cb75760608201516001600160a01b031615610c7557606082015160405163a2d7046f60e01b81526006602160991b0160048201526001600160a01b03909116602482015262093a80604482015260026064820152600090732b3eee365ce2c8a21096a348fc9005233229b58f9063a2d7046f906084016000604051808303816000875af1158015610c1e573d6000803e3d6000fd5b505050506040513d6000823e601f3d908101601f19168201604052610c469190810190615782565b505080519091506001600160a01b0316610c7357604051632b9bb16560e11b815260040160405180910390fd5b505b60208083015160608401516001600160a01b031660009081526001860190925260409091208054911515600160f81b026001600160f81b039092169190911790555b60408201516001600160a01b031615610d0a5760408281015160608401516001600160a01b039081166000908152600187810160205293902090920180546001600160a01b031916929091169190911790555b600101610a54565b5060408501516001600160a01b03161561117b57826001600160a01b031685604001516001600160a01b0316036110a3576000808660000151806020019051810190610d5e919061584f565b608089015191935091506001600160e01b0319166302868bf960e11b01610f0c57876080015163ffffffff166001141580610da157508760a0015160ff16600114155b80610dad57508760e001515b80610e2d57506040516331a9108f60e11b8152600481018290526001600160a01b038087169190841690636352211e90602401602060405180830381865afa158015610dfd573d6000803e3d6000fd5b505050506040513d601f19601f82011682018060405250810190610e2191906156bc565b6001600160a01b031614155b15610e4b5760405163ea8e4eb560e01b815260040160405180910390fd5b600089815260fc602090815260408083206001600160a01b0386168452825280832084845290915290205460ff1615610e97576040516319e7a92b60e31b815260040160405180910390fd5b600089815260fc602090815260408083206001600160a01b038616808552908352818420858552835292819020805460ff1916600190811790915590519081528392918c917f76529e1c5add2962fbfae2a36bbcf688a5c01516b043ad429f1d81830687a2db910160405180910390a46110a0565b60808701516001600160e01b03191662fc808960e71b016110a0578760e0015180610fe35750604051627eeac760e11b81526001600160a01b0386811660048301526024820183905283169062fdd58e90604401602060405180830381865afa158015610f7d573d6000803e3d6000fd5b505050506040513d601f19601f82011682018060405250810190610fa1919061587d565b60008a815260fd602090815260408083206001600160a01b0387168452825280832085845290915290205460808a0151610fe1919063ffffffff166158ac565b115b1561100157604051636dac6a0960e01b815260040160405180910390fd5b608088015160008a815260fd602090815260408083206001600160a01b038716845282528083208584529091528120805463ffffffff909316929091906110499084906158ac565b9091555050600089815260fd602090815260408083206001600160a01b0386168085529083528184208585528352928190205490519081528392918c91600080516020615f72833981519152910160405180910390a45b50505b60408501516005830180546001600160a01b0319166001600160a01b0390921691909117905560808501516001600160e01b0319161561114457608085015160058301805460e09290921c600160c01b0263ffffffff60c01b1990921691909117905560608501516001600160e01b0319161561114457606085015160058301805460e09290921c600160a01b0263ffffffff60a01b199092169190911790555b845151156111665784518051611164916003850191602090910190614748565b505b60208501511561117b57602085015160048301555b856101200151156111aa5760088201805460ff60f01b1981166004600160f01b9283900460ff16179091021790555b8561010001511561120257612710856020015111156111dc57604051633806212b60e21b815260040160405180910390fd5b6008828101805460ff60f01b198116600160f01b9182900460ff16909317029190911790555b6008820180546001600160a01b0319163317905560c0860151156112445760088201805460ff60f01b1981166001600160f01b9283900460ff16179091021790555b60a086015160ff16156112775760a086015160088301805460ff909216600160e81b0260ff60e81b199092169190911790555b8560e00151156112a95760088201805460ff60f01b1981166002600160f01b9283900460ff16179091021790556112d5565b608086015160088301805463ffffffff909216600160c81b0263ffffffff60c81b199092169190911790555b604086015151156112fd57604086015180516112fb916006850191602090910190614748565b505b606086015151156113255760608601518051611323916007850191602090910190614748565b505b8561014001518260090160006101000a81548161ffff021916908361ffff160217905550600084887f97a1e7f148f4de365670f3c2134da1b69c92a70713d557a6dbef09ceea374775338a8a604051611380939291906159e4565b60405180910390a450505050505050565b600060603073b9d5b99d5d0fa04dd7eb2b0cd7753317c2ea1a84146113c95760405163acbcffa760e01b815260040160405180910390fd5b600084815260fb60209081526040808320868452600101825280832033845290915281205463ffffffff169003611413576040516363aae7a360e01b815260040160405180910390fd5b600084815260fb602090815260408083208684526001018083528184203385528084529184205493879052909152600701805463ffffffff90921691819061145a90615afe565b80601f016020809104026020016040519081016040528092919081815260200182805461148690615afe565b80156114d35780601f106114a8576101008083540402835291602001916114d3565b820191906000526020600020905b8154815290600101906020018083116114b657829003601f168201915b50505050509050915091505b9250929050565b6001600160a01b037f000000000000000000000000000000000000000000000000000000000000000016300361152e5760405162461bcd60e51b81526004016105aa90615624565b7f00000000000000000000000000000000000000000000000000000000000000006001600160a01b0316611577600080516020615f2b833981519152546001600160a01b031690565b6001600160a01b03161461159d5760405162461bcd60e51b81526004016105aa90615670565b6115a6826129ad565b6115b2828260016129b5565b5050565b600082815260fb60209081526040808320600381015485855260019091019092529091206001600160a01b039091169081906115f3818333612b4b565b6116105760405163ea8e4eb560e01b815260040160405180910390fd5b60058101546001600160a01b038085169116036118365760008082600301600001805461163c90615afe565b80601f016020809104026020016040519081016040528092919081815260200182805461166890615afe565b80156116b55780601f1061168a576101008083540402835291602001916116b5565b820191906000526020600020905b81548152906001019060200180831161169857829003601f168201915b50505050508060200190518101906116cd919061584f565b600585015491935091506302868bf960e11b600160c01b90910460e01b6001600160e01b0319160161176857600087815260fc602090815260408083206001600160a01b0386168085529083528184208585528352818420805460ff191690559051928352839290918a917f76529e1c5add2962fbfae2a36bbcf688a5c01516b043ad429f1d81830687a2db910160405180910390a4611833565b600583015462fc808960e71b600160c01b90910460e01b6001600160e01b03191601611833576008830154600088815260fd602090815260408083206001600160a01b0387168452825280832085845290915281208054600160c81b90930463ffffffff16929091906117dc908490615b38565b9091555050600087815260fd602090815260408083206001600160a01b0386168085529083528184208585528352928190205490519081528392918a91600080516020615f72833981519152910160405180910390a45b50505b600881018054600168ffffffff000000000160a01b031916905561185e6006820160006147cc565b604051849086907fd647384cccbd8b477a7b02b9e866072937e9a23b473b9de13fc0c6cb1d392a0a90600090a35050505050565b6000306001600160a01b037f000000000000000000000000000000000000000000000000000000000000000016146119325760405162461bcd60e51b815260206004820152603860248201527f555550535570677261646561626c653a206d757374206e6f742062652063616c60448201527f6c6564207468726f7567682064656c656761746563616c6c000000000000000060648201526084016105aa565b50600080516020615f2b83398151915290565b604051630bafd3f560e11b815260048101849052600090735cef0380ce0ad3daeefef8bdb85dbded7965adf99063175fa7ea90602401602060405180830381865afa158015611998573d6000803e3d6000fd5b505050506040513d601f19601f820116820180604052508101906119bc91906156bc565b60405163166eb15b60e21b81523360048201529091506001600160a01b038216906359bac56c90602401602060405180830381865afa158015611a03573d6000803e3d6000fd5b505050506040513d601f19601f82011682018060405250810190611a2791906156d9565b611a445760405163ea8e4eb560e01b815260040160405180910390fd5b612710821115611a6757604051636dac6a0960e01b815260040160405180910390fd5b6040805184151581526020810184905285917fb0b88304f8c02c0665b0e2045748dc61c9514689390192154a569ee763f3cc3b910160405180910390a250600092835260fb6020526040909220600301805461ffff909316600160a81b0261ffff60a81b19921515600160a01b029290921662ffffff60a01b1990931692909217179055565b611af5612c56565b611aff6000612cb0565b565b600054610100900460ff1615808015611b215750600054600160ff909116105b80611b3b5750303b158015611b3b575060005460ff166001145b611b9e5760405162461bcd60e51b815260206004820152602e60248201527f496e697469616c697a61626c653a20636f6e747261637420697320616c72656160448201526d191e481a5b9a5d1a585b1a5e995960921b60648201526084016105aa565b6000805460ff191660011790558015611bc1576000805461ff0019166101001790555b611bc9612d02565b8015610647576000805461ff0019169055604051600181527f7f26b83ff96e1f2b6a682f133852f6798a09c465da95921460cefb38474024989060200160405180910390a150565b604080516000808252602082019092526115b29184918491611c49565b611c36614806565b815260200190600190039081611c2e5790505b506000611c8d565b600082815260fb6020908152604080832084845260010182528083206001600160a01b038716845290915290205463ffffffff165b9392505050565b825160208401516040808601516060870151608088015160a089015160c08a015160e08b015195516371f70b0760e11b81526001600160a01b03909816600489015230602489015260448801969096526064870193909352608486019190915260a485015260ff1660c484015260e483019190915261010482015273833589fcd6edb6e08f4c7c32d4f71b54bda029139063e3ee160e9061012401600060405180830381600087803b158015611d4257600080fd5b505af1158015611d56573d6000803e3d6000fd5b50505050611d9384836040518060800160405280600115158152602001856001600160a01b031681526020016000815260200160008152506126c1565b6040516370a0823160e01b815230600482015260009073833589fcd6edb6e08f4c7c32d4f71b54bda02913906370a0823190602401602060405180830381865afa158015611de5573d6000803e3d6000fd5b505050506040513d601f19601f82011682018060405250810190611e09919061587d565b90508015611e9b57835160405163a9059cbb60e01b81526001600160a01b0390911660048201526024810182905273833589fcd6edb6e08f4c7c32d4f71b54bda029139063a9059cbb906044016020604051808303816000875af1158015611e75573d6000803e3d6000fd5b505050506040513d601f19601f82011682018060405250810190611e9991906156d9565b505b5050505050565b6040805160008082526020820190925261064791839190611ed9565b611ec6614806565b815260200190600190039081611ebe5790505b50604051806080016040528060001515815260200160006001600160a01b031681526020016000815260200160008152506126c1565b611f3a6040518060800160405280600081526020016000815260200160008152602001600081525090565b600087815260fb602090815260408083208984526001019091529020611f6581898989898989612d31565b98975050505050505050565b600083815260fb6020818152604080842086855260018101835290842087855292909152600301546001600160a01b0316611fad828286612b4b565b9695505050505050565b611fbf612c56565b6001600160a01b0381166120245760405162461bcd60e51b815260206004820152602660248201527f4f776e61626c653a206e6577206f776e657220697320746865207a65726f206160448201526564647265737360d01b60648201526084016105aa565b61064781612cb0565b60008a815260fb6020908152604080832060038101548d855260019091019092529091206001600160a01b0390911690819061206a818333612b4b565b6120875760405163ea8e4eb560e01b815260040160405180910390fd5b6127108711156120aa57604051636dac6a0960e01b815260040160405180910390fd5b84156123fd576040805160808101825260008082526020820181905291810182905260608101829052905b868110156123fa578787828181106120ef576120ef6156f6565b9050608002018036038101906121059190615b4f565b60608101519092506001600160a01b0316156121a857606082015160405163b25e9c3960e01b81526001600160a01b0391821660048201529085169063b25e9c3990602401602060405180830381865afa158015612167573d6000803e3d6000fd5b505050506040513d601f19601f8201168201806040525081019061218b91906156d9565b6121a857604051630b27db6160e11b815260040160405180910390fd5b60608201516001600160a01b0316600090815260018401602052604090205482516001600160f81b0390811691161461221957815160608301516001600160a01b03166000908152600185016020526040902080546001600160f81b0319166001600160f81b039092169190911790555b60608201516001600160a01b0316600090815260018401602090815260409091205490830151600160f81b90910460ff161515901515146123805760608201516001600160a01b03161561233e57606082015160405163a2d7046f60e01b81526006602160991b0160048201526001600160a01b03909116602482015262093a80604482015260026064820152600090732b3eee365ce2c8a21096a348fc9005233229b58f9063a2d7046f906084016000604051808303816000875af11580156122e7573d6000803e3d6000fd5b505050506040513d6000823e601f3d908101601f1916820160405261230f9190810190615782565b505080519091506001600160a01b031661233c57604051632b9bb16560e11b815260040160405180910390fd5b505b60208083015160608401516001600160a01b031660009081526001860190925260409091208054911515600160f81b026001600160f81b039092169190911790555b60608201516001600160a01b039081166000908152600180860160205260409182902001549084015182169116146123f25760408281015160608401516001600160a01b039081166000908152600187810160205293902090920180546001600160a01b031916929091169190911790555b6001016120d5565b50505b6124108d848b8b63ffffffff1685613252565b89801561242957506008810154600160f01b9004600116155b8061244a57508915801561244a57506008810154600160f01b900460011615155b156124755760088101805460ff600160f01b80830482166001189091160260ff60f01b199091161790555b88801561249157506008810154600160f01b9004600190811c16155b806124b55750881580156124b557506008810154600160f01b9004600190811c1615155b156124e05760088101805460ff600160f01b80830482166002189091160260ff60f01b199091161790555b600881015460ff8c8116600160e81b90920416146125135760088101805460ff60e81b1916600160e81b60ff8e16021790555b88156125305760088101805463ffffffff60c81b1916905561256c565b600881015463ffffffff898116600160c81b909204161461256c5760088101805463ffffffff60c81b1916600160c81b63ffffffff8b16021790555b60408401516001600160a01b03161561263a57835180518591600384019161259b918391602090910190614748565b50602082015160018201556040808301516002909201805460608501516080909501516001600160a01b039094166001600160c01b031990911617600160a01b60e095861c021763ffffffff60c01b1916600160c01b9390941c92909202929092179055518c908e907f1dc9b6a2e759a6aba0408c06b83deb0f57c90dee629f039e0b31423a1337785d90612631908890615b6b565b60405180910390a35b868160090160006101000a81548161ffff021916908361ffff1602179055508b8d7f72b15bd5b7a0edf0b153b34631e83a7a74f6204e7fb38c604acb79671a058cf18d8d8d8660080160199054906101000a900463ffffffff168c8c8f6040516126aa9796959493929190615b7e565b60405180910390a350505050505050505050505050565b6126c9613523565b6000336001600160a01b031682602001516001600160a01b0316036126f057600060208301525b60005b84518110156127335761271f858281518110612711576127116156f6565b602002602001015184613569565b61272990836158ac565b91506001016126f3565b5061273c614806565b6000805b85518110156129855785818151811061275b5761275b6156f6565b602090810291909101015180519093506001600160a01b03166127ff576020830151604051630bafd3f560e11b81526001600160801b039091166004820152735cef0380ce0ad3daeefef8bdb85dbded7965adf99063175fa7ea90602401602060405180830381865afa1580156127d6573d6000803e3d6000fd5b505050506040513d601f19601f820116820180604052508101906127fa91906156bc565b612802565b82515b60608401519092506001600160a01b031661285f57604083015161282f906001600160801b0316856158ac565b935061285a83604001516001600160801b0316836001600160a01b031661423190919063ffffffff16565b61291c565b82516001600160a01b03166128fb57606083015160405163b25e9c3960e01b81526001600160a01b0391821660048201529083169063b25e9c3990602401602060405180830381865afa1580156128ba573d6000803e3d6000fd5b505050506040513d601f19601f820116820180604052508101906128de91906156d9565b6128fb57604051630b27db6160e11b815260040160405180910390fd5b61291c856000015184606001518486604001516001600160801b0316614282565b82604001516001600160801b0316826001600160a01b031684606001516001600160a01b03167faf4e8fbdf3eeda1bb461f86b73d9341aad76a124175886910acc8ce457007ced86608001516040516129759190615c4b565b60405180910390a4600101612740565b5060006129928434615b38565b905080156129a4576129a43382614231565b50505050505050565b610647612c56565b7f4910fdfa16fed3260ed0e7147f7cc6da11a60208b5b9406d12a635614ffd91435460ff16156129e85761055d8361437f565b826001600160a01b03166352d1902d6040518163ffffffff1660e01b8152600401602060405180830381865afa925050508015612a42575060408051601f3d908101601f19168201909252612a3f9181019061587d565b60015b612aa55760405162461bcd60e51b815260206004820152602e60248201527f45524331393637557067726164653a206e657720696d706c656d656e7461746960448201526d6f6e206973206e6f74205555505360901b60648201526084016105aa565b600080516020615f2b8339815191528114612b145760405162461bcd60e51b815260206004820152602960248201527f45524331393637557067726164653a20756e737570706f727465642070726f786044820152681a58589b195555525160ba1b60648201526084016105aa565b5061055d83838361441b565b60088101546001600160a01b0316610647576040516329c2f8dd60e11b815260040160405180910390fd5b6000612b5684612b20565b600884015460405163166eb15b60e21b81526001600160a01b039182166004820152908416906359bac56c90602401602060405180830381865afa158015612ba2573d6000803e3d6000fd5b505050506040513d601f19601f82011682018060405250810190612bc691906156d9565b15612be4575060088301546001600160a01b03828116911614611c86565b60405163166eb15b60e21b81526001600160a01b0383811660048301528416906359bac56c90602401602060405180830381865afa158015612c2a573d6000803e3d6000fd5b505050506040513d601f19601f82011682018060405250810190612c4e91906156d9565b949350505050565b6097546001600160a01b03163314611aff5760405162461bcd60e51b815260206004820181905260248201527f4f776e61626c653a2063616c6c6572206973206e6f7420746865206f776e657260448201526064016105aa565b609780546001600160a01b038381166001600160a01b0319831681179093556040519116919082907f8be0079c531659141344cd1fd0a4f28419497f9722a3daafe3b4186f6b6457e090600090a35050565b600054610100900460ff16612d295760405162461bcd60e51b81526004016105aa90615c5e565b611aff614440565b612d5c6040518060800160405280600081526020016000815260200160008152602001600081525090565b612d6588612b20565b6001600160a01b0380861660009081526001808b016020908152604092839020835160608101855281546001600160f81b038116825260ff600160f81b909104811615159382019390935292015490931691810182905260088b01549092600160f01b90910416906130ba576001600160a01b038716612e005785612def83600184161515614470565b612df99190615ca9565b835261313c565b81602001511561302a57600080805260018b0160205260409020546001600160f81b0316151580612e3a575081516001600160f81b031615155b156130015781516000906001600160f81b03168103612eb757600080805260018c81016020908152604092839020835160608101855281546001600160f81b0381168252600160f81b900460ff161515928101929092528201546001600160a01b031692810192909252612eb2919084161515614470565b612ec3565b82516001600160f81b03165b90506001600160801b03811115612eed57604051633806212b60e21b815260040160405180910390fd5b6040516331b889b160e11b81528790732b3eee365ce2c8a21096a348fc9005233229b58f90636371136290612f359085906006602160991b01908e9061070890600401615cc8565b602060405180830381865afa158015612f52573d6000803e3d6000fd5b505050506040513d601f19601f82011682018060405250810190612f76919061587d565b612f809190615ca9565b60208501819052600003612ffb57600080805260018c81016020908152604092839020835160608101855281546001600160f81b0381168252600160f81b900460ff161515928101929092528201546001600160a01b0316928101929092528891612fee9185161515614470565b612ff89190615ca9565b84525b5061313c565b6001811660000361302557604051630b27db6160e11b815260040160405180910390fd5b61313c565b81516001600160f81b03161561305a5781516130509087906001600160f81b0316615ca9565b602084015261313c565b600080805260018b81016020908152604092839020835160608101855281546001600160f81b0381168252600160f81b900460ff161515928101929092528201546001600160a01b0316928101929092528791612def9184161515614470565b81604001516001600160a01b031663d7a3d0c88a8a8a8a8a8a6040518763ffffffff1660e01b81526004016130f496959493929190615cfe565b6040805180830381865afa158015613110573d6000803e3d6000fd5b505050506040513d601f19601f820116820180604052508101906131349190615d3e565b602085015283525b60048a015415613245576001600382901c161580156131c0576001600283901c16158015906131a457846020015160000361318a57604051630b27db6160e11b815260040160405180910390fd5b60048c015461319a908990615ca9565b60608601526131ba565b60048c01546131b4908990615ca9565b60408601525b50613243565b60208401511561320b5760048b01546020850151612710916131e191615ca9565b6131eb9190615d62565b60608501819052602085018051613203908390615b38565b905250613243565b60048b015484516127109161321f91615ca9565b6132299190615d62565b604085018190528451859061323f908390615b38565b9052505b505b5050979650505050505050565b60058101546001600160a01b03808616911603611e9b5760008082600301600001805461327e90615afe565b80601f01602080910402602001604051908101604052809291908181526020018280546132aa90615afe565b80156132f75780601f106132cc576101008083540402835291602001916132f7565b820191906000526020600020905b8154815290600101906020018083116132da57829003601f168201915b505050505080602001905181019061330f919061584f565b600585015491935091506302868bf960e11b600160c01b90910460e01b6001600160e01b0319160161337b576008830154600160c81b900463ffffffff16841415806133585750845b1561337657604051636dac6a0960e01b815260040160405180910390fd5b6129a4565b600583015462fc808960e71b600160c01b90910460e01b6001600160e01b031916016129a45784156133c057604051636dac6a0960e01b815260040160405180910390fd5b6008830154600160c81b900463ffffffff1684146129a457604051627eeac760e11b81526001600160a01b038781166004830152602482018390526000919084169062fdd58e90604401602060405180830381865afa158015613427573d6000803e3d6000fd5b505050506040513d601f19601f8201168201806040525081019061344b919061587d565b600885015460008a815260fd602090815260408083206001600160a01b0389168452825280832087845290915281205492935091600160c81b90910463ffffffff16906134999088906158ac565b6134a39190615b38565b9050818111156134c657604051636dac6a0960e01b815260040160405180910390fd5b600089815260fd602090815260408083206001600160a01b038816808552908352818420878552835292819020849055518381528592918c91600080516020615f72833981519152910160405180910390a4505050505050505050565b60c95460ff1615611aff5760405162461bcd60e51b815260206004820152601060248201526f14185d5cd8589b194e881c185d5cd95960821b60448201526064016105aa565b6000826040015163ffffffff1660001461422b576020838101516001600160801b0316600090815260fb9091526040902060030154600160a01b900460ff16156135c657604051632149aed960e21b815260040160405180910390fd5b82600001516001600160a01b031682602001516001600160a01b0316036135ef57600060208301525b600060fb600085602001516001600160801b031681526020019081526020016000206001016000856080015163ffffffff1681526020019081526020016000209050600061366f8286602001516001600160801b0316876080015163ffffffff168860600151896040015163ffffffff168a600001518b60a00151612d31565b6020868101516001600160801b0316600090815260fb909152604090206003015460088401549192506001600160a01b031690600160e81b900460ff161561371757600883015460408781015188516001600160a01b0316600090815260208790529190912054600160e81b90920460ff16916136f2919063ffffffff16615d84565b63ffffffff16111561371757604051636dac6a0960e01b815260040160405180910390fd5b6008830154600160f01b9004600190811c1660000361379f576008830154604087015163ffffffff600160c81b90920482169116111561376a57604051636dac6a0960e01b815260040160405180910390fd5b604086015160088401805463ffffffff600160c81b8083048216949094031690920263ffffffff60c81b199092169190911790555b604082015182516137b091906158ac565b8251909450158015906137cf575060208501516001600160a01b031615155b1561385f57600983015461ffff16600081900361381457506020868101516001600160801b0316600090815260fb9091526040902060030154600160a81b900461ffff165b801561385d57600061271082856000015161382f9190615ca9565b6138399190615d62565b84518190038552602088015190915061385b906001600160a01b031682614231565b505b505b8151613875906001600160a01b03831690614231565b60408087015187516001600160a01b0316600090815260208690529182208054919290916138aa90849063ffffffff16615d84565b92506101000a81548163ffffffff021916908363ffffffff160217905550816020015160001461398f5760208501516001600160a01b03161561397757600983015461ffff16600081900361392757506020868101516001600160801b0316600090815260fb9091526040902060030154600160a81b900461ffff165b80156139755760006127108285602001516139429190615ca9565b61394c9190615d62565b602080860180518390039052885160608b0151918a01519293506139739290919084614282565b505b505b61398f85600001518760600151838560200151614282565b600283015415613adc5760005b6002840154811015613ada57613ac66040518060c0016040528089600001516001600160a01b031681526020018660020184815481106139de576139de6156f6565b9060005260206000200160000160009054906101000a90046001600160801b03166001600160801b03168152602001896040015163ffffffff16815260200189606001516001600160a01b03168152602001866002018481548110613a4557613a456156f6565b9060005260206000200160000160109054906101000a900463ffffffff1663ffffffff1681526020018960a00151815250604051806080016040528089600001511515815260200189602001516001600160a01b031681526020018a602001516001600160801b031681526020018a6080015163ffffffff16815250613569565b613ad090866158ac565b945060010161399c565b505b60058301546001600160a01b0316156141ab576005830154600090600160c01b900460e01b6001600160e01b03191615613f2b5760058401546001600160a01b03808416911603613e4f57600080856003016000018054613b3c90615afe565b80601f0160208091040260200160405190810160405280929190818152602001828054613b6890615afe565b8015613bb55780601f10613b8a57610100808354040283529160200191613bb5565b820191906000526020600020905b815481529060010190602001808311613b9857829003601f168201915b5050505050806020019051810190613bcd919061584f565b600588015491935091506302868bf960e11b600160c01b90910460e01b6001600160e01b03191601613ce957885160405163ce55982b60e01b81526001600160a01b0391821660048201528382166024820152604481018390529085169063ce55982b90606401600060405180830381600087803b158015613c4e57600080fd5b505af1158015613c62573d6000803e3d6000fd5b50505050602089810180516001600160801b03908116600090815260fc845260408082206001600160a01b0388168084529086528183208784528652818320805460ff19169055935190519182526001975085949216917f76529e1c5add2962fbfae2a36bbcf688a5c01516b043ad429f1d81830687a2db910160405180910390a4613e48565b600586015462fc808960e71b600160c01b90910460e01b6001600160e01b03191601613e485788516040808b0151905163296789eb60e11b81526001600160a01b039283166004820152848316602482015263ffffffff909116604482015260648101839052908516906352cf13d690608401600060405180830381600087803b158015613d7657600080fd5b505af1158015613d8a573d6000803e3d6000fd5b5050506040808b01516020808d01516001600160801b0316600090815260fd82528381206001600160a01b03881682528252838120868252909152918220805463ffffffff90921693509190613de1908490615b38565b90915550506020898101516001600160801b0316600081815260fd835260408082206001600160a01b038716808452908552818320868452855291819020549051908152600196508493919291600080516020615f72833981519152910160405180910390a45b505061418b565b600584015460408085015160208a015160808b01518b518c85015160a08e015195516001600160a01b038816979596600160c01b90960460e01b95613ea0959493929160038e019190602401615dac565b60408051601f198184030181529181526020820180516001600160e01b03166001600160e01b0319909416939093179092529051613ede9190615ea2565b60006040518083038185875af1925050503d8060008114613f1b576040519150601f19603f3d011682016040523d82523d6000602084013e613f20565b606091505b50508091505061418b565b60608301511561408d57613f61866000015188606001517361bcd1ed11fc03c958a847a6687b1875f5eacaaf8660600151614282565b602087015160058501546060808a015190860151604051630b90c4a560e11b8152600481018290526001600160a01b0380841660248301527361bcd1ed11fc03c958a847a6687b1875f5eacaaf956359fc470a9590949082169390929091891690631721894a90604401602060405180830381865afa158015613fe8573d6000803e3d6000fd5b505050506040513d601f19601f8201168201806040525081019061400c919061587d565b6040516001600160e01b031960e088901b1681526001600160801b0390951660048601526001600160a01b0393841660248601529290911660448401526064830152608482015260a401600060405180830381600087803b15801561407057600080fd5b505af1158015614084573d6000803e3d6000fd5b50505050614187565b60408381015160058601549151630b90c4a560e11b815260048101829052600060248201527361bcd1ed11fc03c958a847a6687b1875f5eacaaf926339ed512392916001600160a01b0391821691871690631721894a90604401602060405180830381865afa158015614104573d6000803e3d6000fd5b505050506040513d601f19601f82011682018060405250810190614128919061587d565b6040516001600160e01b031960e086901b1681526001600160a01b03909216600483015260248201526044016000604051808303818588803b15801561416d57600080fd5b505af1158015614181573d6000803e3d6000fd5b50505050505b5060015b806141a95760405163af6eefa360e01b815260040160405180910390fd5b505b85600001516001600160a01b0316866080015163ffffffff1687602001516001600160801b03167f392f594e624e358091bb17d04cc5fac6221a0d9d1218d3dd08a007b0de11f21b89604001518a60600151878b602001518c604001518d6060015160405161421f96959493929190615ebe565b60405180910390a45050505b92915050565b600080600080600085875af190508061055d5760405162461bcd60e51b815260206004820152601360248201527211551217d514905394d1915497d19052531151606a1b60448201526064016105aa565b83614306576040516323b872dd60e01b81523360048201526001600160a01b038381166024830152604482018390528416906323b872dd906064016020604051808303816000875af11580156142dc573d6000803e3d6000fd5b505050506040513d601f19601f8201168201806040525081019061430091906156d9565b50614379565b60405163a9059cbb60e01b81526001600160a01b0383811660048301526024820183905284169063a9059cbb906044016020604051808303816000875af1158015614355573d6000803e3d6000fd5b505050506040513d601f19601f82011682018060405250810190611e9b91906156d9565b50505050565b6001600160a01b0381163b6143ec5760405162461bcd60e51b815260206004820152602d60248201527f455243313936373a206e657720696d706c656d656e746174696f6e206973206e60448201526c1bdd08184818dbdb9d1c9858dd609a1b60648201526084016105aa565b600080516020615f2b83398151915280546001600160a01b0319166001600160a01b0392909216919091179055565b614424836145d6565b6000825111806144315750805b1561055d576143798383614616565b600054610100900460ff166144675760405162461bcd60e51b81526004016105aa90615c5e565b611aff33612cb0565b81516000906001600160f81b0316158015614489575081155b156144a757604051630b27db6160e11b815260040160405180910390fd5b8260200151156145c75782516001600160801b036001600160f81b0390911611156144e557604051633806212b60e21b815260040160405180910390fd5b82516040516331b889b160e11b8152732b3eee365ce2c8a21096a348fc9005233229b58f91636371136291614540919073833589fcd6edb6e08f4c7c32d4f71b54bda02913906006602160991b019061070890600401615cc8565b602060405180830381865afa15801561455d573d6000803e3d6000fd5b505050506040513d601f19601f82011682018060405250810190614581919061587d565b9050806000036145c25760405162461bcd60e51b815260206004820152600c60248201526b125b9d985b1a59081c1bdbdb60a21b60448201526064016105aa565b61422b565b5050516001600160f81b031690565b6145df8161437f565b6040516001600160a01b038216907fbc7cd75a20ee27fd9adebab32041f755214dbc6bffa90cc0225b39da2e5c2d3b90600090a250565b60606001600160a01b0383163b61467e5760405162461bcd60e51b815260206004820152602660248201527f416464726573733a2064656c65676174652063616c6c20746f206e6f6e2d636f6044820152651b9d1c9858dd60d21b60648201526084016105aa565b600080846001600160a01b0316846040516146999190615ea2565b600060405180830381855af49150503d80600081146146d4576040519150601f19603f3d011682016040523d82523d6000602084013e6146d9565b606091505b50915091506147018282604051806060016040528060278152602001615f4b6027913961470a565b95945050505050565b60608315614719575081611c86565b611c86838381511561472e5781518083602001fd5b8060405162461bcd60e51b81526004016105aa9190615c4b565b82805461475490615afe565b90600052602060002090601f01602090048101928261477657600085556147bc565b82601f1061478f57805160ff19168380011785556147bc565b828001600101855582156147bc579182015b828111156147bc5782518255916020019190600101906147a1565b506147c8929150614836565b5090565b5080546147d890615afe565b6000825580601f106147e8575050565b601f0160209004906000526020600020908101906106479190614836565b6040805160a081018252600080825260208201819052918101829052606080820192909252608081019190915290565b5b808211156147c85760008155600101614837565b634e487b7160e01b600052604160045260246000fd5b60405160c081016001600160401b03811182821017156148835761488361484b565b60405290565b60405160a081016001600160401b03811182821017156148835761488361484b565b604080519081016001600160401b03811182821017156148835761488361484b565b604051608081016001600160401b03811182821017156148835761488361484b565b60405161016081016001600160401b03811182821017156148835761488361484b565b604051601f8201601f191681016001600160401b038111828210171561493a5761493a61484b565b604052919050565b60006001600160401b0382111561495b5761495b61484b565b5060051b60200190565b6001600160a01b038116811461064757600080fd5b80356001600160801b038116811461499157600080fd5b919050565b803563ffffffff8116811461499157600080fd5b60006001600160401b038311156149c3576149c361484b565b6149d6601f8401601f1916602001614912565b90508281528383830111156149ea57600080fd5b828260208301376000602084830101529392505050565b600082601f830112614a1257600080fd5b611c86838335602085016149aa565b600082601f830112614a3257600080fd5b81356020614a47614a4283614942565b614912565b82815260059290921b84018101918181019086841115614a6657600080fd5b8286015b84811015614b3b5780356001600160401b0380821115614a8a5760008081fd5b9088019060c0828b03601f1901811315614aa45760008081fd5b614aac614861565b87840135614ab981614965565b81526040614ac885820161497a565b898301526060614ad9818701614996565b828401526080915081860135614aee81614965565b9083015260a0614aff868201614996565b83830152928501359284841115614b1857600091508182fd5b614b268e8b86890101614a01565b90830152508652505050918301918301614a6a565b509695505050505050565b600082601f830112614b5757600080fd5b81356020614b67614a4283614942565b82815260059290921b84018101918181019086841115614b8657600080fd5b8286015b84811015614b3b5780356001600160401b0380821115614baa5760008081fd5b9088019060a0828b03601f1901811315614bc45760008081fd5b614bcc614889565b87840135614bd981614965565b81526040614be885820161497a565b898301526060614bf981870161497a565b82840152608080870135614c0c81614965565b84830152938601359385851115614c2557600091508182fd5b84870196508e603f880112614c3c57600095508586fd5b614c4c8f8c890135858a016149aa565b9084015250508652505050918301918301614b8a565b600080600060608486031215614c7757600080fd5b83356001600160401b0380821115614c8e57600080fd5b614c9a87838801614a21565b94506020860135915080821115614cb057600080fd5b50614cbd86828701614b46565b9250506040840135614cce81614965565b809150509250925092565b60008060408385031215614cec57600080fd5b50508035926020909101359150565b600060208284031215614d0d57600080fd5b8135611c8681614965565b60008060008060808587031215614d2e57600080fd5b84356001600160401b0380821115614d4557600080fd5b614d5188838901614a21565b95506020870135915080821115614d6757600080fd5b50614d7487828801614b46565b9350506040850135614d8581614965565b91506060850135614d9581614965565b939692955090935050565b600082601f830112614db157600080fd5b81356020614dc1614a4283614942565b82815260069290921b84018101918181019086841115614de057600080fd5b8286015b84811015614b3b5760408189031215614dfd5760008081fd5b614e056148ab565b614e0e8261497a565b8152614e1b858301614996565b81860152835291830191604001614de4565b80356001600160f81b038116811461499157600080fd5b801515811461064757600080fd5b803561499181614e44565b600060808284031215614e6f57600080fd5b614e776148cd565b9050614e8282614e2d565b81526020820135614e9281614e44565b60208201526040820135614ea581614965565b60408201526060820135614eb881614965565b606082015292915050565b600082601f830112614ed457600080fd5b81356020614ee4614a4283614942565b82815260079290921b84018101918181019086841115614f0357600080fd5b8286015b84811015614b3b57614f198882614e5d565b835291830191608001614f07565b803560ff8116811461499157600080fd5b80356001600160e01b03198116811461499157600080fd5b600060a08284031215614f6257600080fd5b614f6a614889565b905081356001600160401b03811115614f8257600080fd5b614f8e84828501614a01565b825250602082013560208201526040820135614fa981614965565b6040820152614fba60608301614f38565b6060820152614fcb60808301614f38565b608082015292915050565b600080600060608486031215614feb57600080fd5b8335925060208401356001600160401b038082111561500957600080fd5b90850190610160828803121561501e57600080fd5b6150266148ef565b82358281111561503557600080fd5b61504189828601614da0565b82525060208301358281111561505657600080fd5b61506289828601614ec3565b60208301525060408301358281111561507a57600080fd5b61508689828601614a01565b60408301525060608301358281111561509e57600080fd5b6150aa89828601614a01565b6060830152506150bc60808401614996565b60808201526150cd60a08401614f27565b60a08201526150de60c08401614e52565b60c08201526150ef60e08401614e52565b60e0820152610100615102818501614e52565b90820152610120615114848201614e52565b9082015261014092830135928101929092529092506040850135908082111561513c57600080fd5b5061514986828701614f50565b9150509250925092565b60005b8381101561516e578181015183820152602001615156565b838111156143795750506000910152565b60008151808452615197816020860160208601615153565b601f01601f19169290920160200192915050565b828152604060208201526000612c4e604083018461517f565b600080604083850312156151d757600080fd5b82356151e281614965565b915060208301356001600160401b038111156151fd57600080fd5b61520985828601614a01565b9150509250929050565b60008060006060848603121561522857600080fd5b83359250602084013561523a81614e44565b929592945050506040919091013590565b600061010080838503121561525f57600080fd5b604051908101906001600160401b03821181831017156152815761528161484b565b816040528092508335915061529582614965565b818152602084013560208201526040840135604082015260608401356060820152608084013560808201526152cc60a08501614f27565b60a082015260c084013560c082015260e084013560e0820152505092915050565b600080610120838503121561530157600080fd5b82356001600160401b0381111561531757600080fd5b61532385828601614a21565b925050615333846020850161524b565b90509250929050565b60008060006060848603121561535157600080fd5b833561535c81614965565b95602085013595506040909401359392505050565b600080600080610160858703121561538857600080fd5b84356001600160401b038082111561539f57600080fd5b6153ab88838901614a21565b95506153ba886020890161524b565b94506101208701359150808211156153d157600080fd5b506153de87828801614b46565b925050610140850135614d9581614965565b60006020828403121561540257600080fd5b5035919050565b60006020828403121561541b57600080fd5b81356001600160401b0381111561543157600080fd5b612c4e84828501614a21565b60008060008060008060c0878903121561545657600080fd5b8635955060208701359450604087013561546f81614965565b935060608701359250608087013561548681614965565b915060a08701356001600160401b038111156154a157600080fd5b6154ad89828a01614a01565b9150509295509295509295565b815181526020808301519082015260408083015190820152606080830151908201526080810161422b565b6000806000606084860312156154fa57600080fd5b83359250602084013591506040840135614cce81614965565b60008083601f84011261552557600080fd5b5081356001600160401b0381111561553c57600080fd5b6020830191508360208260071b85010111156114df57600080fd5b6000806000806000806000806000806101208b8d03121561557757600080fd5b8a35995060208b0135985061558e60408c01614f27565b975060608b013561559e81614e44565b965060808b01356155ae81614e44565b95506155bc60a08c01614996565b945060c08b0135935060e08b01356001600160401b03808211156155df57600080fd5b6155eb8e838f01615513565b90955093506101008d013591508082111561560557600080fd5b506156128d828e01614f50565b9150509295989b9194979a5092959850565b6020808252602c908201527f46756e6374696f6e206d7573742062652063616c6c6564207468726f7567682060408201526b19195b1959d85d1958d85b1b60a21b606082015260800190565b6020808252602c908201527f46756e6374696f6e206d7573742062652063616c6c6564207468726f7567682060408201526b6163746976652070726f787960a01b606082015260800190565b6000602082840312156156ce57600080fd5b8151611c8681614965565b6000602082840312156156eb57600080fd5b8151611c8681614e44565b634e487b7160e01b600052603260045260246000fd5b600082601f83011261571d57600080fd5b8151602061572d614a4283614942565b82815260059290921b8401810191818101908684111561574c57600080fd5b8286015b84811015614b3b5780518060060b811461576a5760008081fd5b8352918301918301615750565b805161499181614965565b600080600083850360c081121561579857600080fd5b60808112156157a657600080fd5b506157af6148cd565b84516157ba81614965565b8152602085015162ffffff811681146157d257600080fd5b6020820152604085015165ffffffffffff811681146157f057600080fd5b6040820152606085015161ffff8116811461580a57600080fd5b606082015260808501519093506001600160401b0381111561582b57600080fd5b6158378682870161570c565b92505061584660a08501615777565b90509250925092565b6000806040838503121561586257600080fd5b825161586d81614965565b6020939093015192949293505050565b60006020828403121561588f57600080fd5b5051919050565b634e487b7160e01b600052601160045260246000fd5b600082198211156158bf576158bf615896565b500190565b600081518084526020808501945080840160005b8381101561590e57815180516001600160801b0316885283015163ffffffff1683880152604090960195908201906001016158d8565b509495945050505050565b600081518084526020808501945080840160005b8381101561590e57815180516001600160f81b03168852838101511515848901526040808201516001600160a01b03908116918a019190915260609182015116908801526080909601959082019060010161592d565b6000815160a0845261599860a085018261517f565b602084810151908601526040808501516001600160a01b0316908601526060808501516001600160e01b0319908116918701919091526080948501511693909401929092525090919050565b60018060a01b03841681526060602082015260008351610160806060850152615a116101c08501836158c4565b91506020860151605f1980868503016080870152615a2f8483615919565b935060408801519150808685030160a0870152615a4c848361517f565b935060608801519150808685030160c087015250615a6a838261517f565b9250506080860151615a8460e086018263ffffffff169052565b5060a0860151610100615a9b8187018360ff169052565b60c08801519150610120615ab28188018415159052565b60e08901519250610140615ac98189018515159052565b91890151151593870193909352918701511515610180860152508501516101a08401528281036040840152611fad8185615983565b600181811c90821680615b1257607f821691505b602082108103615b3257634e487b7160e01b600052602260045260246000fd5b50919050565b600082821015615b4a57615b4a615896565b500390565b600060808284031215615b6157600080fd5b611c868383614e5d565b602081526000611c866020830184615983565b600060c0820160ff8a168352602089151581850152604089151581860152606063ffffffff8a1681870152608060c0818801528489865260e0880190508a955060005b8a811015615c2f576001600160f81b03615bda88614e2d565b16825285870135615bea81614e44565b15158287015286850135615bfd81614965565b6001600160a01b03908116838701528785013590615c1a82614965565b16828501529582019590820190600101615bc1565b508096505050505050508260a083015298975050505050505050565b602081526000611c86602083018461517f565b6020808252602b908201527f496e697469616c697a61626c653a20636f6e7472616374206973206e6f74206960408201526a6e697469616c697a696e6760a81b606082015260800190565b6000816000190483118215151615615cc357615cc3615896565b500290565b6001600160801b039490941684526001600160a01b0392831660208501529116604083015263ffffffff16606082015260800190565b868152602081018690526001600160a01b038581166040830152606082018590528316608082015260c060a08201819052600090611f659083018461517f565b60008060408385031215615d5157600080fd5b505080516020909101519092909150565b600082615d7f57634e487b7160e01b600052601260045260246000fd5b500490565b600063ffffffff808316818516808303821115615da357615da3615896565b01949350505050565b6001600160801b038716815263ffffffff8681166020808401919091526001600160a01b0387166040840152908516606083015260c060808301528354600091908290600181811c9082811680615e0457607f831692505b8583108103615e2157634e487b7160e01b85526022600452602485fd5b60c0880183905260e08801818015615e405760018114615e5157615e7c565b60ff19861682528782019650615e7c565b60008c81526020902060005b86811015615e7657815484820152908501908901615e5d565b83019750505b50505050505083810360a0850152615e94818661517f565b9a9950505050505050505050565b60008251615eb4818460208701615153565b9190910192915050565b63ffffffff871681526001600160a01b038681166020830152610120820190615f0b6040840188805182526020810151602083015260408101516040830152606081015160608301525050565b9490941660c082015260e081019290925261010090910152939250505056fe360894a13ba1a3210667c828492db98dca3e2076cc3735a920a3ca505d382bbc416464726573733a206c6f772d6c6576656c2064656c65676174652063616c6c206661696c6564f0832fe058ed4ffda256632e9c3d7b50283fb2e36310b6beaf08f633b1407057a26469706673582212203453c8b7e8ffcb47231bbe892557d867baa14bb57714e1f050750513cb30367464736f6c634300080d0033",
  "linkReferences": {},
  "deployedLinkReferences": {}
}