{
  "_format": "hh-sol-artifact-1",
  "contractName": "ProductsModule",
  "sourceName": "contracts/ProductsModule.sol",
  "abi": [
    {
      "inputs": [],
      "stateMutability": "nonpayable",
      "type": "constructor"
    },
    {
      "inputs": [],
      "name": "ActiveListing",
      "type": "error"
    },
    {
      "inputs": [],
      "name": "ExceedsMaxValue",
      "type": "error"
    },
    {
      "inputs": [],
      "name": "InexistentPool",
      "type": "error"
    },
    {
      "inputs": [],
      "name": "InexistentProduct",
      "type": "error"
    },
    {
      "inputs": [],
      "name": "Invalid",
      "type": "error"
    },
    {
      "inputs": [],
      "name": "InvalidReferrer",
      "type": "error"
    },
    {
      "inputs": [],
      "name": "NoDelegatecall",
      "type": "error"
    },
    {
      "inputs": [],
      "name": "NotAuthorized",
      "type": "error"
    },
    {
      "inputs": [],
      "name": "NotPurchased",
      "type": "error"
    },
    {
      "inputs": [],
      "name": "NotSuccessful",
      "type": "error"
    },
    {
      "inputs": [],
      "name": "StoreNotOpen",
      "type": "error"
    },
    {
      "inputs": [],
      "name": "TooSoon",
      "type": "error"
    },
    {
      "inputs": [],
      "name": "WrongCurrency",
      "type": "error"
    },
    {
      "anonymous": false,
      "inputs": [
        {
          "indexed": false,
          "internalType": "address",
          "name": "previousAdmin",
          "type": "address"
        },
        {
          "indexed": false,
          "internalType": "address",
          "name": "newAdmin",
          "type": "address"
        }
      ],
      "name": "AdminChanged",
      "type": "event"
    },
    {
      "anonymous": false,
      "inputs": [
        {
          "indexed": true,
          "internalType": "address",
          "name": "beacon",
          "type": "address"
        }
      ],
      "name": "BeaconUpgraded",
      "type": "event"
    },
    {
      "anonymous": false,
      "inputs": [
        {
          "indexed": true,
          "internalType": "uint256",
          "name": "slicerId",
          "type": "uint256"
        },
        {
          "indexed": true,
          "internalType": "address",
          "name": "contractAddress",
          "type": "address"
        },
        {
          "indexed": true,
          "internalType": "uint256",
          "name": "tokenId",
          "type": "uint256"
        },
        {
          "indexed": false,
          "internalType": "uint256",
          "name": "currentAmount",
          "type": "uint256"
        }
      ],
      "name": "ERC1155ListingChanged",
      "type": "event"
    },
    {
      "anonymous": false,
      "inputs": [
        {
          "indexed": true,
          "internalType": "uint256",
          "name": "slicerId",
          "type": "uint256"
        },
        {
          "indexed": true,
          "internalType": "address",
          "name": "contractAddress",
          "type": "address"
        },
        {
          "indexed": true,
          "internalType": "uint256",
          "name": "tokenId",
          "type": "uint256"
        },
        {
          "indexed": false,
          "internalType": "bool",
          "name": "isActive",
          "type": "bool"
        }
      ],
      "name": "ERC721ListingChanged",
      "type": "event"
    },
    {
      "anonymous": false,
      "inputs": [
        {
          "indexed": true,
          "internalType": "address",
          "name": "currency",
          "type": "address"
        },
        {
          "indexed": true,
          "internalType": "address",
          "name": "recipient",
          "type": "address"
        },
        {
          "indexed": true,
          "internalType": "uint256",
          "name": "amount",
          "type": "uint256"
        },
        {
          "indexed": false,
          "internalType": "string",
          "name": "description",
          "type": "string"
        }
      ],
      "name": "ExtraCostPaid",
      "type": "event"
    },
    {
      "anonymous": false,
      "inputs": [
        {
          "indexed": false,
          "internalType": "uint8",
          "name": "version",
          "type": "uint8"
        }
      ],
      "name": "Initialized",
      "type": "event"
    },
    {
      "anonymous": false,
      "inputs": [
        {
          "indexed": true,
          "internalType": "address",
          "name": "previousOwner",
          "type": "address"
        },
        {
          "indexed": true,
          "internalType": "address",
          "name": "newOwner",
          "type": "address"
        }
      ],
      "name": "OwnershipTransferred",
      "type": "event"
    },
    {
      "anonymous": false,
      "inputs": [
        {
          "indexed": false,
          "internalType": "address",
          "name": "account",
          "type": "address"
        }
      ],
      "name": "Paused",
      "type": "event"
    },
    {
      "anonymous": false,
      "inputs": [
        {
          "indexed": true,
          "internalType": "uint256",
          "name": "slicerId",
          "type": "uint256"
        },
        {
          "indexed": true,
          "internalType": "uint256",
          "name": "productId",
          "type": "uint256"
        },
        {
          "indexed": true,
          "internalType": "uint256",
          "name": "categoryIndex",
          "type": "uint256"
        },
        {
          "indexed": false,
          "internalType": "address",
          "name": "creator",
          "type": "address"
        },
        {
          "components": [
            {
              "components": [
                {
                  "internalType": "uint128",
                  "name": "subSlicerId",
                  "type": "uint128"
                },
                {
                  "internalType": "uint32",
                  "name": "subProductId",
                  "type": "uint32"
                }
              ],
              "internalType": "struct SubSlicerProduct[]",
              "name": "subSlicerProducts",
              "type": "tuple[]"
            },
            {
              "components": [
                {
                  "internalType": "uint248",
                  "name": "value",
                  "type": "uint248"
                },
                {
                  "internalType": "bool",
                  "name": "dynamicPricing",
                  "type": "bool"
                },
                {
                  "internalType": "address",
                  "name": "externalAddress",
                  "type": "address"
                },
                {
                  "internalType": "address",
                  "name": "currency",
                  "type": "address"
                }
              ],
              "internalType": "struct CurrencyPrice[]",
              "name": "currencyPrices",
              "type": "tuple[]"
            },
            {
              "internalType": "bytes",
              "name": "data",
              "type": "bytes"
            },
            {
              "internalType": "bytes",
              "name": "purchaseData",
              "type": "bytes"
            },
            {
              "internalType": "uint32",
              "name": "availableUnits",
              "type": "uint32"
            },
            {
              "internalType": "uint8",
              "name": "maxUnitsPerBuyer",
              "type": "uint8"
            },
            {
              "internalType": "bool",
              "name": "isFree",
              "type": "bool"
            },
            {
              "internalType": "bool",
              "name": "isInfinite",
              "type": "bool"
            },
            {
              "internalType": "bool",
              "name": "isExternalCallPaymentRelative",
              "type": "bool"
            },
            {
              "internalType": "bool",
              "name": "isExternalCallPreferredToken",
              "type": "bool"
            },
            {
              "internalType": "uint256",
              "name": "referralFeeProduct",
              "type": "uint256"
            }
          ],
          "indexed": false,
          "internalType": "struct ProductParams",
          "name": "params",
          "type": "tuple"
        },
        {
          "components": [
            {
              "internalType": "bytes",
              "name": "data",
              "type": "bytes"
            },
            {
              "internalType": "uint256",
              "name": "value",
              "type": "uint256"
            },
            {
              "internalType": "address",
              "name": "externalAddress",
              "type": "address"
            },
            {
              "internalType": "bytes4",
              "name": "checkFunctionSignature",
              "type": "bytes4"
            },
            {
              "internalType": "bytes4",
              "name": "execFunctionSignature",
              "type": "bytes4"
            }
          ],
          "indexed": false,
          "internalType": "struct Function",
          "name": "externalCall",
          "type": "tuple"
        }
      ],
      "name": "ProductAdded",
      "type": "event"
    },
    {
      "anonymous": false,
      "inputs": [
        {
          "indexed": true,
          "internalType": "uint256",
          "name": "slicerId",
          "type": "uint256"
        },
        {
          "indexed": true,
          "internalType": "uint256",
          "name": "productId",
          "type": "uint256"
        },
        {
          "components": [
            {
              "internalType": "bytes",
              "name": "data",
              "type": "bytes"
            },
            {
              "internalType": "uint256",
              "name": "value",
              "type": "uint256"
            },
            {
              "internalType": "address",
              "name": "externalAddress",
              "type": "address"
            },
            {
              "internalType": "bytes4",
              "name": "checkFunctionSignature",
              "type": "bytes4"
            },
            {
              "internalType": "bytes4",
              "name": "execFunctionSignature",
              "type": "bytes4"
            }
          ],
          "indexed": false,
          "internalType": "struct Function",
          "name": "externalCall",
          "type": "tuple"
        }
      ],
      "name": "ProductExternalCallUpdated",
      "type": "event"
    },
    {
      "anonymous": false,
      "inputs": [
        {
          "indexed": true,
          "internalType": "uint256",
          "name": "slicerId",
          "type": "uint256"
        },
        {
          "indexed": true,
          "internalType": "uint256",
          "name": "productId",
          "type": "uint256"
        },
        {
          "indexed": false,
          "internalType": "uint8",
          "name": "maxUnitsPerBuyer",
          "type": "uint8"
        },
        {
          "indexed": false,
          "internalType": "bool",
          "name": "isFree",
          "type": "bool"
        },
        {
          "indexed": false,
          "internalType": "bool",
          "name": "isInfinite",
          "type": "bool"
        },
        {
          "indexed": false,
          "internalType": "uint256",
          "name": "newUnits",
          "type": "uint256"
        },
        {
          "components": [
            {
              "internalType": "uint248",
              "name": "value",
              "type": "uint248"
            },
            {
              "internalType": "bool",
              "name": "dynamicPricing",
              "type": "bool"
            },
            {
              "internalType": "address",
              "name": "externalAddress",
              "type": "address"
            },
            {
              "internalType": "address",
              "name": "currency",
              "type": "address"
            }
          ],
          "indexed": false,
          "internalType": "struct CurrencyPrice[]",
          "name": "currencyPrices",
          "type": "tuple[]"
        },
        {
          "indexed": false,
          "internalType": "uint256",
          "name": "referralFeeProduct",
          "type": "uint256"
        }
      ],
      "name": "ProductInfoChanged",
      "type": "event"
    },
    {
      "anonymous": false,
      "inputs": [
        {
          "indexed": true,
          "internalType": "uint256",
          "name": "slicerId",
          "type": "uint256"
        },
        {
          "indexed": true,
          "internalType": "uint256",
          "name": "productId",
          "type": "uint256"
        },
        {
          "indexed": false,
          "internalType": "uint256",
          "name": "quantity",
          "type": "uint256"
        },
        {
          "indexed": true,
          "internalType": "address",
          "name": "buyer",
          "type": "address"
        },
        {
          "indexed": false,
          "internalType": "address",
          "name": "currency",
          "type": "address"
        },
        {
          "components": [
            {
              "internalType": "uint256",
              "name": "eth",
              "type": "uint256"
            },
            {
              "internalType": "uint256",
              "name": "currency",
              "type": "uint256"
            },
            {
              "internalType": "uint256",
              "name": "ethExternalCall",
              "type": "uint256"
            },
            {
              "internalType": "uint256",
              "name": "currencyExternalCall",
              "type": "uint256"
            }
          ],
          "indexed": false,
          "internalType": "struct Price",
          "name": "price",
          "type": "tuple"
        },
        {
          "indexed": false,
          "internalType": "address",
          "name": "referrer",
          "type": "address"
        },
        {
          "indexed": false,
          "internalType": "uint256",
          "name": "parentSlicerId",
          "type": "uint256"
        },
        {
          "indexed": false,
          "internalType": "uint256",
          "name": "parentProductId",
          "type": "uint256"
        }
      ],
      "name": "ProductPaid",
      "type": "event"
    },
    {
      "anonymous": false,
      "inputs": [
        {
          "indexed": true,
          "internalType": "uint256",
          "name": "slicerId",
          "type": "uint256"
        },
        {
          "indexed": true,
          "internalType": "uint256",
          "name": "productId",
          "type": "uint256"
        }
      ],
      "name": "ProductRemoved",
      "type": "event"
    },
    {
      "anonymous": false,
      "inputs": [
        {
          "indexed": true,
          "internalType": "uint256",
          "name": "slicerId",
          "type": "uint256"
        },
        {
          "indexed": false,
          "internalType": "uint256",
          "name": "ethToRelease",
          "type": "uint256"
        }
      ],
      "name": "ReleasedToSlicer",
      "type": "event"
    },
    {
      "anonymous": false,
      "inputs": [
        {
          "indexed": true,
          "internalType": "uint256",
          "name": "slicerId",
          "type": "uint256"
        },
        {
          "indexed": false,
          "internalType": "bool",
          "name": "isStoreClosed",
          "type": "bool"
        },
        {
          "indexed": false,
          "internalType": "uint256",
          "name": "referralFeeStore",
          "type": "uint256"
        }
      ],
      "name": "StoreConfigChanged",
      "type": "event"
    },
    {
      "anonymous": false,
      "inputs": [
        {
          "indexed": false,
          "internalType": "address",
          "name": "account",
          "type": "address"
        }
      ],
      "name": "Unpaused",
      "type": "event"
    },
    {
      "anonymous": false,
      "inputs": [
        {
          "indexed": true,
          "internalType": "address",
          "name": "implementation",
          "type": "address"
        }
      ],
      "name": "Upgraded",
      "type": "event"
    },
    {
      "inputs": [],
      "name": "MINT_PRODUCT_AMOUNT",
      "outputs": [
        {
          "internalType": "uint256",
          "name": "",
          "type": "uint256"
        }
      ],
      "stateMutability": "view",
      "type": "function"
    },
    {
      "inputs": [
        {
          "internalType": "uint256",
          "name": "slicerId",
          "type": "uint256"
        },
        {
          "internalType": "bool",
          "name": "isClosed",
          "type": "bool"
        },
        {
          "internalType": "uint256",
          "name": "referralFeeStore",
          "type": "uint256"
        }
      ],
      "name": "_setStoreConfig",
      "outputs": [],
      "stateMutability": "nonpayable",
      "type": "function"
    },
    {
      "inputs": [
        {
          "internalType": "uint256",
          "name": "slicerId",
          "type": "uint256"
        },
        {
          "components": [
            {
              "components": [
                {
                  "internalType": "uint128",
                  "name": "subSlicerId",
                  "type": "uint128"
                },
                {
                  "internalType": "uint32",
                  "name": "subProductId",
                  "type": "uint32"
                }
              ],
              "internalType": "struct SubSlicerProduct[]",
              "name": "subSlicerProducts",
              "type": "tuple[]"
            },
            {
              "components": [
                {
                  "internalType": "uint248",
                  "name": "value",
                  "type": "uint248"
                },
                {
                  "internalType": "bool",
                  "name": "dynamicPricing",
                  "type": "bool"
                },
                {
                  "internalType": "address",
                  "name": "externalAddress",
                  "type": "address"
                },
                {
                  "internalType": "address",
                  "name": "currency",
                  "type": "address"
                }
              ],
              "internalType": "struct CurrencyPrice[]",
              "name": "currencyPrices",
              "type": "tuple[]"
            },
            {
              "internalType": "bytes",
              "name": "data",
              "type": "bytes"
            },
            {
              "internalType": "bytes",
              "name": "purchaseData",
              "type": "bytes"
            },
            {
              "internalType": "uint32",
              "name": "availableUnits",
              "type": "uint32"
            },
            {
              "internalType": "uint8",
              "name": "maxUnitsPerBuyer",
              "type": "uint8"
            },
            {
              "internalType": "bool",
              "name": "isFree",
              "type": "bool"
            },
            {
              "internalType": "bool",
              "name": "isInfinite",
              "type": "bool"
            },
            {
              "internalType": "bool",
              "name": "isExternalCallPaymentRelative",
              "type": "bool"
            },
            {
              "internalType": "bool",
              "name": "isExternalCallPreferredToken",
              "type": "bool"
            },
            {
              "internalType": "uint256",
              "name": "referralFeeProduct",
              "type": "uint256"
            }
          ],
          "internalType": "struct ProductParams",
          "name": "params",
          "type": "tuple"
        },
        {
          "components": [
            {
              "internalType": "bytes",
              "name": "data",
              "type": "bytes"
            },
            {
              "internalType": "uint256",
              "name": "value",
              "type": "uint256"
            },
            {
              "internalType": "address",
              "name": "externalAddress",
              "type": "address"
            },
            {
              "internalType": "bytes4",
              "name": "checkFunctionSignature",
              "type": "bytes4"
            },
            {
              "internalType": "bytes4",
              "name": "execFunctionSignature",
              "type": "bytes4"
            }
          ],
          "internalType": "struct Function",
          "name": "externalCall_",
          "type": "tuple"
        }
      ],
      "name": "addProduct",
      "outputs": [],
      "stateMutability": "nonpayable",
      "type": "function"
    },
    {
      "inputs": [
        {
          "internalType": "uint256",
          "name": "slicerId",
          "type": "uint256"
        },
        {
          "internalType": "uint256",
          "name": "productId",
          "type": "uint256"
        }
      ],
      "name": "availableUnits",
      "outputs": [
        {
          "internalType": "uint256",
          "name": "units",
          "type": "uint256"
        },
        {
          "internalType": "bool",
          "name": "isInfinite",
          "type": "bool"
        }
      ],
      "stateMutability": "view",
      "type": "function"
    },
    {
      "inputs": [],
      "name": "fundsModule",
      "outputs": [
        {
          "internalType": "contract IFundsModule",
          "name": "",
          "type": "address"
        }
      ],
      "stateMutability": "view",
      "type": "function"
    },
    {
      "inputs": [],
      "name": "initialize",
      "outputs": [],
      "stateMutability": "nonpayable",
      "type": "function"
    },
    {
      "inputs": [
        {
          "internalType": "uint256",
          "name": "slicerId",
          "type": "uint256"
        },
        {
          "internalType": "uint256",
          "name": "productId",
          "type": "uint256"
        },
        {
          "internalType": "address",
          "name": "account",
          "type": "address"
        }
      ],
      "name": "isProductOwner",
      "outputs": [
        {
          "internalType": "bool",
          "name": "isAllowed",
          "type": "bool"
        }
      ],
      "stateMutability": "view",
      "type": "function"
    },
    {
      "inputs": [
        {
          "internalType": "uint256",
          "name": "slicerId",
          "type": "uint256"
        }
      ],
      "name": "nextProductId",
      "outputs": [
        {
          "internalType": "uint256",
          "name": "",
          "type": "uint256"
        }
      ],
      "stateMutability": "view",
      "type": "function"
    },
    {
      "inputs": [],
      "name": "owner",
      "outputs": [
        {
          "internalType": "address",
          "name": "",
          "type": "address"
        }
      ],
      "stateMutability": "view",
      "type": "function"
    },
    {
      "inputs": [],
      "name": "paused",
      "outputs": [
        {
          "internalType": "bool",
          "name": "",
          "type": "bool"
        }
      ],
      "stateMutability": "view",
      "type": "function"
    },
    {
      "inputs": [
        {
          "components": [
            {
              "internalType": "address",
              "name": "buyer",
              "type": "address"
            },
            {
              "internalType": "uint128",
              "name": "slicerId",
              "type": "uint128"
            },
            {
              "internalType": "uint32",
              "name": "quantity",
              "type": "uint32"
            },
            {
              "internalType": "address",
              "name": "currency",
              "type": "address"
            },
            {
              "internalType": "uint32",
              "name": "productId",
              "type": "uint32"
            },
            {
              "internalType": "bytes",
              "name": "buyerCustomData",
              "type": "bytes"
            }
          ],
          "internalType": "struct PurchaseParams[]",
          "name": "purchases",
          "type": "tuple[]"
        },
        {
          "components": [
            {
              "internalType": "address",
              "name": "recipient",
              "type": "address"
            },
            {
              "internalType": "uint128",
              "name": "slicerId",
              "type": "uint128"
            },
            {
              "internalType": "uint128",
              "name": "amount",
              "type": "uint128"
            },
            {
              "internalType": "address",
              "name": "currency",
              "type": "address"
            },
            {
              "internalType": "string",
              "name": "description",
              "type": "string"
            }
          ],
          "internalType": "struct ExtraCost[]",
          "name": "extraCosts",
          "type": "tuple[]"
        },
        {
          "internalType": "address",
          "name": "referrer",
          "type": "address"
        }
      ],
      "name": "payProducts",
      "outputs": [],
      "stateMutability": "payable",
      "type": "function"
    },
    {
      "inputs": [
        {
          "components": [
            {
              "internalType": "address",
              "name": "buyer",
              "type": "address"
            },
            {
              "internalType": "uint128",
              "name": "slicerId",
              "type": "uint128"
            },
            {
              "internalType": "uint32",
              "name": "quantity",
              "type": "uint32"
            },
            {
              "internalType": "address",
              "name": "currency",
              "type": "address"
            },
            {
              "internalType": "uint32",
              "name": "productId",
              "type": "uint32"
            },
            {
              "internalType": "bytes",
              "name": "buyerCustomData",
              "type": "bytes"
            }
          ],
          "internalType": "struct PurchaseParams[]",
          "name": "purchases",
          "type": "tuple[]"
        }
      ],
      "name": "payProducts",
      "outputs": [],
      "stateMutability": "payable",
      "type": "function"
    },
    {
      "inputs": [
        {
          "components": [
            {
              "internalType": "address",
              "name": "buyer",
              "type": "address"
            },
            {
              "internalType": "uint128",
              "name": "slicerId",
              "type": "uint128"
            },
            {
              "internalType": "uint32",
              "name": "quantity",
              "type": "uint32"
            },
            {
              "internalType": "address",
              "name": "currency",
              "type": "address"
            },
            {
              "internalType": "uint32",
              "name": "productId",
              "type": "uint32"
            },
            {
              "internalType": "bytes",
              "name": "buyerCustomData",
              "type": "bytes"
            }
          ],
          "internalType": "struct PurchaseParams[]",
          "name": "purchases",
          "type": "tuple[]"
        },
        {
          "components": [
            {
              "internalType": "address",
              "name": "from",
              "type": "address"
            },
            {
              "internalType": "uint256",
              "name": "value",
              "type": "uint256"
            },
            {
              "internalType": "uint256",
              "name": "validAfter",
              "type": "uint256"
            },
            {
              "internalType": "uint256",
              "name": "validBefore",
              "type": "uint256"
            },
            {
              "internalType": "bytes32",
              "name": "nonce",
              "type": "bytes32"
            },
            {
              "internalType": "uint8",
              "name": "v",
              "type": "uint8"
            },
            {
              "internalType": "bytes32",
              "name": "r",
              "type": "bytes32"
            },
            {
              "internalType": "bytes32",
              "name": "s",
              "type": "bytes32"
            }
          ],
          "internalType": "struct PayWithAuthorizationParams",
          "name": "authorizationParams",
          "type": "tuple"
        }
      ],
      "name": "payWithAuthorization",
      "outputs": [],
      "stateMutability": "payable",
      "type": "function"
    },
    {
      "inputs": [
        {
          "components": [
            {
              "internalType": "address",
              "name": "buyer",
              "type": "address"
            },
            {
              "internalType": "uint128",
              "name": "slicerId",
              "type": "uint128"
            },
            {
              "internalType": "uint32",
              "name": "quantity",
              "type": "uint32"
            },
            {
              "internalType": "address",
              "name": "currency",
              "type": "address"
            },
            {
              "internalType": "uint32",
              "name": "productId",
              "type": "uint32"
            },
            {
              "internalType": "bytes",
              "name": "buyerCustomData",
              "type": "bytes"
            }
          ],
          "internalType": "struct PurchaseParams[]",
          "name": "purchases",
          "type": "tuple[]"
        },
        {
          "components": [
            {
              "internalType": "address",
              "name": "from",
              "type": "address"
            },
            {
              "internalType": "uint256",
              "name": "value",
              "type": "uint256"
            },
            {
              "internalType": "uint256",
              "name": "validAfter",
              "type": "uint256"
            },
            {
              "internalType": "uint256",
              "name": "validBefore",
              "type": "uint256"
            },
            {
              "internalType": "bytes32",
              "name": "nonce",
              "type": "bytes32"
            },
            {
              "internalType": "uint8",
              "name": "v",
              "type": "uint8"
            },
            {
              "internalType": "bytes32",
              "name": "r",
              "type": "bytes32"
            },
            {
              "internalType": "bytes32",
              "name": "s",
              "type": "bytes32"
            }
          ],
          "internalType": "struct PayWithAuthorizationParams",
          "name": "authorizationParams",
          "type": "tuple"
        },
        {
          "components": [
            {
              "internalType": "address",
              "name": "recipient",
              "type": "address"
            },
            {
              "internalType": "uint128",
              "name": "slicerId",
              "type": "uint128"
            },
            {
              "internalType": "uint128",
              "name": "amount",
              "type": "uint128"
            },
            {
              "internalType": "address",
              "name": "currency",
              "type": "address"
            },
            {
              "internalType": "string",
              "name": "description",
              "type": "string"
            }
          ],
          "internalType": "struct ExtraCost[]",
          "name": "extraCosts",
          "type": "tuple[]"
        },
        {
          "internalType": "address",
          "name": "referrer",
          "type": "address"
        }
      ],
      "name": "payWithAuthorization",
      "outputs": [],
      "stateMutability": "payable",
      "type": "function"
    },
    {
      "inputs": [],
      "name": "priceFeed",
      "outputs": [
        {
          "internalType": "contract IPriceFeed",
          "name": "",
          "type": "address"
        }
      ],
      "stateMutability": "view",
      "type": "function"
    },
    {
      "inputs": [
        {
          "internalType": "uint256",
          "name": "slicerId",
          "type": "uint256"
        },
        {
          "internalType": "uint256",
          "name": "productId",
          "type": "uint256"
        },
        {
          "internalType": "address",
          "name": "currency",
          "type": "address"
        },
        {
          "internalType": "uint256",
          "name": "quantity",
          "type": "uint256"
        },
        {
          "internalType": "address",
          "name": "buyer",
          "type": "address"
        },
        {
          "internalType": "bytes",
          "name": "data",
          "type": "bytes"
        }
      ],
      "name": "productPrice",
      "outputs": [
        {
          "components": [
            {
              "internalType": "uint256",
              "name": "eth",
              "type": "uint256"
            },
            {
              "internalType": "uint256",
              "name": "currency",
              "type": "uint256"
            },
            {
              "internalType": "uint256",
              "name": "ethExternalCall",
              "type": "uint256"
            },
            {
              "internalType": "uint256",
              "name": "currencyExternalCall",
              "type": "uint256"
            }
          ],
          "internalType": "struct Price",
          "name": "price",
          "type": "tuple"
        }
      ],
      "stateMutability": "view",
      "type": "function"
    },
    {
      "inputs": [],
      "name": "proxiableUUID",
      "outputs": [
        {
          "internalType": "bytes32",
          "name": "",
          "type": "bytes32"
        }
      ],
      "stateMutability": "view",
      "type": "function"
    },
    {
      "inputs": [
        {
          "internalType": "uint256",
          "name": "slicerId",
          "type": "uint256"
        },
        {
          "internalType": "uint256",
          "name": "productId",
          "type": "uint256"
        }
      ],
      "name": "removeProduct",
      "outputs": [],
      "stateMutability": "nonpayable",
      "type": "function"
    },
    {
      "inputs": [],
      "name": "renounceOwnership",
      "outputs": [],
      "stateMutability": "nonpayable",
      "type": "function"
    },
    {
      "inputs": [
        {
          "internalType": "uint256",
          "name": "slicerId",
          "type": "uint256"
        },
        {
          "internalType": "uint256",
          "name": "productId",
          "type": "uint256"
        },
        {
          "internalType": "uint8",
          "name": "newMaxUnits",
          "type": "uint8"
        },
        {
          "internalType": "bool",
          "name": "isFree",
          "type": "bool"
        },
        {
          "internalType": "bool",
          "name": "isInfinite",
          "type": "bool"
        },
        {
          "internalType": "uint32",
          "name": "newUnits",
          "type": "uint32"
        },
        {
          "internalType": "uint256",
          "name": "referralFeeProduct",
          "type": "uint256"
        },
        {
          "components": [
            {
              "internalType": "uint248",
              "name": "value",
              "type": "uint248"
            },
            {
              "internalType": "bool",
              "name": "dynamicPricing",
              "type": "bool"
            },
            {
              "internalType": "address",
              "name": "externalAddress",
              "type": "address"
            },
            {
              "internalType": "address",
              "name": "currency",
              "type": "address"
            }
          ],
          "internalType": "struct CurrencyPrice[]",
          "name": "currencyPrices",
          "type": "tuple[]"
        },
        {
          "components": [
            {
              "internalType": "bytes",
              "name": "data",
              "type": "bytes"
            },
            {
              "internalType": "uint256",
              "name": "value",
              "type": "uint256"
            },
            {
              "internalType": "address",
              "name": "externalAddress",
              "type": "address"
            },
            {
              "internalType": "bytes4",
              "name": "checkFunctionSignature",
              "type": "bytes4"
            },
            {
              "internalType": "bytes4",
              "name": "execFunctionSignature",
              "type": "bytes4"
            }
          ],
          "internalType": "struct Function",
          "name": "externalCall_",
          "type": "tuple"
        }
      ],
      "name": "setProductInfo",
      "outputs": [],
      "stateMutability": "nonpayable",
      "type": "function"
    },
    {
      "inputs": [],
      "name": "sliceCore",
      "outputs": [
        {
          "internalType": "contract ISliceCore",
          "name": "",
          "type": "address"
        }
      ],
      "stateMutability": "view",
      "type": "function"
    },
    {
      "inputs": [
        {
          "internalType": "address",
          "name": "newOwner",
          "type": "address"
        }
      ],
      "name": "transferOwnership",
      "outputs": [],
      "stateMutability": "nonpayable",
      "type": "function"
    },
    {
      "inputs": [
        {
          "internalType": "address",
          "name": "newImplementation",
          "type": "address"
        }
      ],
      "name": "upgradeTo",
      "outputs": [],
      "stateMutability": "nonpayable",
      "type": "function"
    },
    {
      "inputs": [
        {
          "internalType": "address",
          "name": "newImplementation",
          "type": "address"
        },
        {
          "internalType": "bytes",
          "name": "data",
          "type": "bytes"
        }
      ],
      "name": "upgradeToAndCall",
      "outputs": [],
      "stateMutability": "payable",
      "type": "function"
    },
    {
      "inputs": [
        {
          "internalType": "uint256",
          "name": "slicerId",
          "type": "uint256"
        },
        {
          "internalType": "uint256",
          "name": "productId",
          "type": "uint256"
        }
      ],
      "name": "validatePurchase",
      "outputs": [
        {
          "internalType": "uint256",
          "name": "purchases",
          "type": "uint256"
        },
        {
          "internalType": "bytes",
          "name": "purchaseData",
          "type": "bytes"
        }
      ],
      "stateMutability": "view",
      "type": "function"
    },
    {
      "inputs": [
        {
          "internalType": "address",
          "name": "account",
          "type": "address"
        },
        {
          "internalType": "uint256",
          "name": "slicerId",
          "type": "uint256"
        },
        {
          "internalType": "uint256",
          "name": "productId",
          "type": "uint256"
        }
      ],
      "name": "validatePurchaseUnits",
      "outputs": [
        {
          "internalType": "uint256",
          "name": "purchases",
          "type": "uint256"
        }
      ],
      "stateMutability": "view",
      "type": "function"
    }
  ],
  "bytecode": "0x60a0604052306080523480156200001557600080fd5b506200002062000026565b620000e8565b600054610100900460ff1615620000935760405162461bcd60e51b815260206004820152602760248201527f496e697469616c697a61626c653a20636f6e747261637420697320696e697469604482015266616c697a696e6760c81b606482015260840160405180910390fd5b60005460ff9081161015620000e6576000805460ff191660ff9081179091556040519081527f7f26b83ff96e1f2b6a682f133852f6798a09c465da95921460cefb38474024989060200160405180910390a15b565b608051615f09620001206000396000818161054e015281816105970152818161146c015281816114ac015261181b0152615f096000f3fe6080604052600436106101615760003560e01c80638129fc1c116100c1578063c1226f801161007a578063c1226f801461040e578063d2c5ca9a1461043e578063d7a3d0c814610451578063e6e928081461047e578063f2fde38b1461049e578063f4c76363146104be578063ff179f9e146104e657600080fd5b80638129fc1c146103785780638a0fdce41461038d5780638da5cb5b146103a057806395f23704146103be578063aa4d16de146103de578063b79811e2146103f157600080fd5b80635287d5351161011e5780635287d5351461027457806352d1902d146102945780635c975abb146102b75780635e8b09dc146102db5780636740ff40146102fb578063715018a61461033b578063741bef1a1461035057600080fd5b8063062b8b15146101665780631eafafb41461017b5780633659cfe6146101f3578063424e673c146102135780634c04e9c6146102335780634f1ef28614610261575b600080fd5b610179610174366004614c21565b610506565b005b34801561018757600080fd5b506101d9610196366004614c98565b600091825260fb60209081526040808420928452600192830190915290912060080154600160c81b810463ffffffff1692600160f01b909104821c909116151590565b604080519283529015156020830152015b60405180910390f35b3480156101ff57600080fd5b5061017961020e366004614cba565b610544565b34801561021f57600080fd5b5061017961022e366004614f0d565b61062c565b34801561023f57600080fd5b5061025361024e366004614c98565b61130d565b6040516101ea9291906150e2565b61017961026f3660046150fb565b611462565b34801561028057600080fd5b5061017961028f366004614c98565b611532565b3480156102a057600080fd5b506102a961180e565b6040519081526020016101ea565b3480156102c357600080fd5b5060c95460ff165b60405190151581526020016101ea565b3480156102e757600080fd5b506101796102f636600461514a565b6118c1565b34801561030757600080fd5b5061032373cf7ed3acca5a467e9e704c703e8d87f634fb0fc981565b6040516001600160a01b0390911681526020016101ea565b34801561034757600080fd5b50610179611a69565b34801561035c57600080fd5b50610323731613beb3b2c4f22ee086b2b38c1476a3ce7f78e881565b34801561038457600080fd5b50610179611a7d565b61017961039b366004615224565b611b8d565b3480156103ac57600080fd5b506097546001600160a01b0316610323565b3480156103ca57600080fd5b506102a96103d9366004615273565b611bcd565b6101796103ec3660046152a8565b611c09565b3480156103fd57600080fd5b506102a9686c6b935b8bbd40000081565b34801561041a57600080fd5b506102a9610429366004615332565b600090815260fb602052604090205460010190565b61017961044c36600461534b565b611e12565b34801561045d57600080fd5b5061047161046c36600461537f565b611e7f565b6040516101ea91906153fc565b34801561048a57600080fd5b506102cb610499366004615427565b611ee1565b3480156104aa57600080fd5b506101796104b9366004614cba565b611f27565b3480156104ca57600080fd5b5061032373e7f1725e7734ce288f8367e1bb143e90bb3f051281565b3480156104f257600080fd5b50610179610501366004615499565b611f9d565b61053f83836040518060800160405280600015158152602001856001600160a01b0316815260200160008152602001600081525061263e565b505050565b6001600160a01b037f00000000000000000000000000000000000000000000000000000000000000001630036105955760405162461bcd60e51b815260040161058c90615566565b60405180910390fd5b7f00000000000000000000000000000000000000000000000000000000000000006001600160a01b03166105de600080516020615e6d833981519152546001600160a01b031690565b6001600160a01b0316146106045760405162461bcd60e51b815260040161058c906155b2565b61060d8161293b565b6040805160008082526020820190925261062991839190612943565b50565b600083815260fb6020526040902080546001019081905563ffffffff81111561066857604051636dac6a0960e01b815260040160405180910390fd5b612710836101400151111561069057604051636dac6a0960e01b815260040160405180910390fd5b806001036107da57604051630bafd3f560e11b81526004810185905260009073e7f1725e7734ce288f8367e1bb143e90bb3f05129063175fa7ea90602401602060405180830381865afa1580156106eb573d6000803e3d6000fd5b505050506040513d601f19601f8201168201806040525081019061070f91906155fe565b6001600160a01b03160361073657604051636dac6a0960e01b815260040160405180910390fd5b604051630bafd3f560e11b81526004810185905273e7f1725e7734ce288f8367e1bb143e90bb3f05129063175fa7ea90602401602060405180830381865afa158015610786573d6000803e3d6000fd5b505050506040513d601f19601f820116820180604052508101906107aa91906155fe565b600085815260fb6020526040902060030180546001600160a01b0319166001600160a01b03929092169190911790555b600084815260fb60205260409081902060030154905163166eb15b60e21b81523360048201526001600160a01b039091169081906359bac56c90602401602060405180830381865afa158015610834573d6000803e3d6000fd5b505050506040513d601f19601f82011682018060405250810190610858919061561b565b6108755760405163ea8e4eb560e01b815260040160405180910390fd5b600085815260fb6020908152604080832063ffffffff8616845260010190915290208451511561099e5760005b85515181101561099c5761092c60fb6000886000015184815181106108c9576108c9615638565b6020026020010151600001516001600160801b0316815260200190815260200160002060010160008860000151848151811061090757610907615638565b60200260200101516020015163ffffffff168152602001908152602001600020612aae565b816002018660000151828151811061094657610946615638565b602090810291909101810151825460018181018555600094855293839020825191018054929093015163ffffffff16600160801b026001600160a01b03199092166001600160801b0390911617179055016108a2565b505b6040805160808101825260008082526020820181905291810182905260608101829052905b866020015151811015610c8e57866020015181815181106109e6576109e6615638565b6020026020010151915060006001600160a01b031682606001516001600160a01b031614158015610a845750606082015160405163b25e9c3960e01b81526001600160a01b0391821660048201529085169063b25e9c3990602401602060405180830381865afa158015610a5e573d6000803e3d6000fd5b505050506040513d601f19601f82011682018060405250810190610a82919061561b565b155b15610aa257604051630b27db6160e11b815260040160405180910390fd5b81516001600160f81b031615610af057815160608301516001600160a01b03166000908152600185016020526040902080546001600160f81b0319166001600160f81b039092169190911790555b816020015115610c335760608201516001600160a01b031615610bf157606082015160405163a2d7046f60e01b815273b4fbf271143f4fbf7b91a5ded31805e42b2208d660048201526001600160a01b03909116602482015262093a80604482015260026064820152600090731613beb3b2c4f22ee086b2b38c1476a3ce7f78e89063a2d7046f906084016000604051808303816000875af1158015610b9a573d6000803e3d6000fd5b505050506040513d6000823e601f3d908101601f19168201604052610bc291908101906156c4565b505080519091506001600160a01b0316610bef57604051632b9bb16560e11b815260040160405180910390fd5b505b60208083015160608401516001600160a01b031660009081526001860190925260409091208054911515600160f81b026001600160f81b039092169190911790555b60408201516001600160a01b031615610c865760408281015160608401516001600160a01b039081166000908152600187810160205293902090920180546001600160a01b031916929091169190911790555b6001016109c3565b5060408501516001600160a01b03161561117e57826001600160a01b031685604001516001600160a01b03160361101f576000808660000151806020019051810190610cda9190615791565b608089015191935091506001600160e01b0319166302868bf960e11b01610e8857876080015163ffffffff166001141580610d1d57508760a0015160ff16600114155b80610d2957508760e001515b80610da957506040516331a9108f60e11b8152600481018290526001600160a01b038087169190841690636352211e90602401602060405180830381865afa158015610d79573d6000803e3d6000fd5b505050506040513d601f19601f82011682018060405250810190610d9d91906155fe565b6001600160a01b031614155b15610dc75760405163ea8e4eb560e01b815260040160405180910390fd5b600089815260fc602090815260408083206001600160a01b0386168452825280832084845290915290205460ff1615610e13576040516319e7a92b60e31b815260040160405180910390fd5b600089815260fc602090815260408083206001600160a01b038616808552908352818420858552835292819020805460ff1916600190811790915590519081528392918c917f76529e1c5add2962fbfae2a36bbcf688a5c01516b043ad429f1d81830687a2db910160405180910390a461101c565b60808701516001600160e01b03191662fc808960e71b0161101c578760e0015180610f5f5750604051627eeac760e11b81526001600160a01b0386811660048301526024820183905283169062fdd58e90604401602060405180830381865afa158015610ef9573d6000803e3d6000fd5b505050506040513d601f19601f82011682018060405250810190610f1d91906157bf565b60008a815260fd602090815260408083206001600160a01b0387168452825280832085845290915290205460808a0151610f5d919063ffffffff166157ee565b115b15610f7d57604051636dac6a0960e01b815260040160405180910390fd5b608088015160008a815260fd602090815260408083206001600160a01b038716845282528083208584529091528120805463ffffffff90931692909190610fc59084906157ee565b9091555050600089815260fd602090815260408083206001600160a01b0386168085529083528184208585528352928190205490519081528392918c91600080516020615eb4833981519152910160405180910390a45b50505b60408501516005830180546001600160a01b0319166001600160a01b0390921691909117905560808501516001600160e01b031916156110c057608085015160058301805460e09290921c600160c01b0263ffffffff60c01b1990921691909117905560608501516001600160e01b031916156110c057606085015160058301805460e09290921c600160a01b0263ffffffff60a01b199092169190911790555b845151156110e257845180516110e0916003850191602090910190614707565b505b6020850151156110f757602085015160048301555b856101200151156111265760088201805460ff60f01b1981166004600160f01b9283900460ff16179091021790555b8561010001511561117e576127108560200151111561115857604051633806212b60e21b815260040160405180910390fd5b6008828101805460ff60f01b198116600160f01b9182900460ff16909317029190911790555b6008820180546001600160a01b0319163317905560c0860151156111c05760088201805460ff60f01b1981166001600160f01b9283900460ff16179091021790555b60a086015160ff16156111f35760a086015160088301805460ff909216600160e81b0260ff60e81b199092169190911790555b8560e00151156112255760088201805460ff60f01b1981166002600160f01b9283900460ff1617909102179055611251565b608086015160088301805463ffffffff909216600160c81b0263ffffffff60c81b199092169190911790555b604086015151156112795760408601518051611277916006850191602090910190614707565b505b606086015151156112a1576060860151805161129f916007850191602090910190614707565b505b8561014001518260090160006101000a81548161ffff021916908361ffff160217905550600084887f97a1e7f148f4de365670f3c2134da1b69c92a70713d557a6dbef09ceea374775338a8a6040516112fc93929190615926565b60405180910390a450505050505050565b6000606030739fe46736679d2d9a65f0992f2272de9f3c7fa6e0146113455760405163acbcffa760e01b815260040160405180910390fd5b600084815260fb60209081526040808320868452600101825280832033845290915281205463ffffffff16900361138f576040516363aae7a360e01b815260040160405180910390fd5b600084815260fb602090815260408083208684526001018083528184203385528084529184205493879052909152600701805463ffffffff9092169181906113d690615a40565b80601f016020809104026020016040519081016040528092919081815260200182805461140290615a40565b801561144f5780601f106114245761010080835404028352916020019161144f565b820191906000526020600020905b81548152906001019060200180831161143257829003601f168201915b50505050509050915091505b9250929050565b6001600160a01b037f00000000000000000000000000000000000000000000000000000000000000001630036114aa5760405162461bcd60e51b815260040161058c90615566565b7f00000000000000000000000000000000000000000000000000000000000000006001600160a01b03166114f3600080516020615e6d833981519152546001600160a01b031690565b6001600160a01b0316146115195760405162461bcd60e51b815260040161058c906155b2565b6115228261293b565b61152e82826001612943565b5050565b600082815260fb60209081526040808320600381015485855260019091019092529091206001600160a01b0390911690819061156f818333612ad9565b61158c5760405163ea8e4eb560e01b815260040160405180910390fd5b60058101546001600160a01b038085169116036117b2576000808260030160000180546115b890615a40565b80601f01602080910402602001604051908101604052809291908181526020018280546115e490615a40565b80156116315780601f1061160657610100808354040283529160200191611631565b820191906000526020600020905b81548152906001019060200180831161161457829003601f168201915b50505050508060200190518101906116499190615791565b600585015491935091506302868bf960e11b600160c01b90910460e01b6001600160e01b031916016116e457600087815260fc602090815260408083206001600160a01b0386168085529083528184208585528352818420805460ff191690559051928352839290918a917f76529e1c5add2962fbfae2a36bbcf688a5c01516b043ad429f1d81830687a2db910160405180910390a46117af565b600583015462fc808960e71b600160c01b90910460e01b6001600160e01b031916016117af576008830154600088815260fd602090815260408083206001600160a01b0387168452825280832085845290915281208054600160c81b90930463ffffffff1692909190611758908490615a7a565b9091555050600087815260fd602090815260408083206001600160a01b0386168085529083528184208585528352928190205490519081528392918a91600080516020615eb4833981519152910160405180910390a45b50505b600881018054600168ffffffff000000000160a01b03191690556117da60068201600061478b565b604051849086907fd647384cccbd8b477a7b02b9e866072937e9a23b473b9de13fc0c6cb1d392a0a90600090a35050505050565b6000306001600160a01b037f000000000000000000000000000000000000000000000000000000000000000016146118ae5760405162461bcd60e51b815260206004820152603860248201527f555550535570677261646561626c653a206d757374206e6f742062652063616c60448201527f6c6564207468726f7567682064656c656761746563616c6c0000000000000000606482015260840161058c565b50600080516020615e6d83398151915290565b604051630bafd3f560e11b81526004810184905260009073e7f1725e7734ce288f8367e1bb143e90bb3f05129063175fa7ea90602401602060405180830381865afa158015611914573d6000803e3d6000fd5b505050506040513d601f19601f8201168201806040525081019061193891906155fe565b60405163166eb15b60e21b81523360048201529091506001600160a01b038216906359bac56c90602401602060405180830381865afa15801561197f573d6000803e3d6000fd5b505050506040513d601f19601f820116820180604052508101906119a3919061561b565b6119c05760405163ea8e4eb560e01b815260040160405180910390fd5b6127108211156119e357604051636dac6a0960e01b815260040160405180910390fd5b6040805184151581526020810184905285917fb0b88304f8c02c0665b0e2045748dc61c9514689390192154a569ee763f3cc3b910160405180910390a250600092835260fb6020526040909220600301805461ffff909316600160a81b0261ffff60a81b19921515600160a01b029290921662ffffff60a01b1990931692909217179055565b611a71612be4565b611a7b6000612c3e565b565b600054610100900460ff1615808015611a9d5750600054600160ff909116105b80611ab75750303b158015611ab7575060005460ff166001145b611b1a5760405162461bcd60e51b815260206004820152602e60248201527f496e697469616c697a61626c653a20636f6e747261637420697320616c72656160448201526d191e481a5b9a5d1a585b1a5e995960921b606482015260840161058c565b6000805460ff191660011790558015611b3d576000805461ff0019166101001790555b611b45612c90565b8015610629576000805461ff0019169055604051600181527f7f26b83ff96e1f2b6a682f133852f6798a09c465da95921460cefb38474024989060200160405180910390a150565b6040805160008082526020820190925261152e9184918491611bc5565b611bb26147c5565b815260200190600190039081611baa5790505b506000611c09565b600082815260fb6020908152604080832084845260010182528083206001600160a01b038716845290915290205463ffffffff165b9392505050565b825160208401516040808601516060870151608088015160a089015160c08a015160e08b015195516371f70b0760e11b81526001600160a01b03909816600489015230602489015260448801969096526064870193909352608486019190915260a485015260ff1660c484015260e48301919091526101048201527356639db16ac50a89228026e42a316b30179a53769063e3ee160e9061012401600060405180830381600087803b158015611cbe57600080fd5b505af1158015611cd2573d6000803e3d6000fd5b50505050611d0f84836040518060800160405280600115158152602001856001600160a01b0316815260200160008152602001600081525061263e565b6040516370a0823160e01b81523060048201526000907356639db16ac50a89228026e42a316b30179a5376906370a0823190602401602060405180830381865afa158015611d61573d6000803e3d6000fd5b505050506040513d601f19601f82011682018060405250810190611d8591906157bf565b90508015611e0b5760405163a9059cbb60e01b8152336004820152602481018290527356639db16ac50a89228026e42a316b30179a53769063a9059cbb906044016020604051808303816000875af1158015611de5573d6000803e3d6000fd5b505050506040513d601f19601f82011682018060405250810190611e09919061561b565b505b5050505050565b6040805160008082526020820190925261062991839190611e49565b611e366147c5565b815260200190600190039081611e2e5790505b50604051806080016040528060001515815260200160006001600160a01b0316815260200160008152602001600081525061263e565b611eaa6040518060800160405280600081526020016000815260200160008152602001600081525090565b600087815260fb602090815260408083208984526001019091529020611ed581898989898989612cbf565b98975050505050505050565b600083815260fb6020818152604080842086855260018101835290842087855292909152600301546001600160a01b0316611f1d828286612ad9565b9695505050505050565b611f2f612be4565b6001600160a01b038116611f945760405162461bcd60e51b815260206004820152602660248201527f4f776e61626c653a206e6577206f776e657220697320746865207a65726f206160448201526564647265737360d01b606482015260840161058c565b61062981612c3e565b60008a815260fb6020908152604080832060038101548d855260019091019092529091206001600160a01b03909116908190611fda818333612ad9565b611ff75760405163ea8e4eb560e01b815260040160405180910390fd5b61271087111561201a57604051636dac6a0960e01b815260040160405180910390fd5b841561237a576040805160808101825260008082526020820181905291810182905260608101829052905b868110156123775787878281811061205f5761205f615638565b9050608002018036038101906120759190615a91565b60608101519092506001600160a01b03161561211857606082015160405163b25e9c3960e01b81526001600160a01b0391821660048201529085169063b25e9c3990602401602060405180830381865afa1580156120d7573d6000803e3d6000fd5b505050506040513d601f19601f820116820180604052508101906120fb919061561b565b61211857604051630b27db6160e11b815260040160405180910390fd5b60608201516001600160a01b0316600090815260018401602052604090205482516001600160f81b0390811691161461218957815160608301516001600160a01b03166000908152600185016020526040902080546001600160f81b0319166001600160f81b039092169190911790555b60608201516001600160a01b0316600090815260018401602090815260409091205490830151600160f81b90910460ff161515901515146122fd5760608201516001600160a01b0316156122bb57606082015160405163a2d7046f60e01b815273b4fbf271143f4fbf7b91a5ded31805e42b2208d660048201526001600160a01b03909116602482015262093a80604482015260026064820152600090731613beb3b2c4f22ee086b2b38c1476a3ce7f78e89063a2d7046f906084016000604051808303816000875af1158015612264573d6000803e3d6000fd5b505050506040513d6000823e601f3d908101601f1916820160405261228c91908101906156c4565b505080519091506001600160a01b03166122b957604051632b9bb16560e11b815260040160405180910390fd5b505b60208083015160608401516001600160a01b031660009081526001860190925260409091208054911515600160f81b026001600160f81b039092169190911790555b60608201516001600160a01b0390811660009081526001808601602052604091829020015490840151821691161461236f5760408281015160608401516001600160a01b039081166000908152600187810160205293902090920180546001600160a01b031916929091169190911790555b600101612045565b50505b61238d8d848b8b63ffffffff16856131ed565b8980156123a657506008810154600160f01b9004600116155b806123c75750891580156123c757506008810154600160f01b900460011615155b156123f25760088101805460ff600160f01b80830482166001189091160260ff60f01b199091161790555b88801561240e57506008810154600160f01b9004600190811c16155b8061243257508815801561243257506008810154600160f01b9004600190811c1615155b1561245d5760088101805460ff600160f01b80830482166002189091160260ff60f01b199091161790555b600881015460ff8c8116600160e81b90920416146124905760088101805460ff60e81b1916600160e81b60ff8e16021790555b88156124ad5760088101805463ffffffff60c81b191690556124e9565b600881015463ffffffff898116600160c81b90920416146124e95760088101805463ffffffff60c81b1916600160c81b63ffffffff8b16021790555b60408401516001600160a01b0316156125b7578351805185916003840191612518918391602090910190614707565b50602082015160018201556040808301516002909201805460608501516080909501516001600160a01b039094166001600160c01b031990911617600160a01b60e095861c021763ffffffff60c01b1916600160c01b9390941c92909202929092179055518c908e907f1dc9b6a2e759a6aba0408c06b83deb0f57c90dee629f039e0b31423a1337785d906125ae908890615aad565b60405180910390a35b868160090160006101000a81548161ffff021916908361ffff1602179055508b8d7f72b15bd5b7a0edf0b153b34631e83a7a74f6204e7fb38c604acb79671a058cf18d8d8d8660080160199054906101000a900463ffffffff168c8c8f6040516126279796959493929190615ac0565b60405180910390a350505050505050505050505050565b6126466134be565b6000336001600160a01b031682602001516001600160a01b03160361267e57604051630c22084560e31b815260040160405180910390fd5b60005b84518110156126c1576126ad85828151811061269f5761269f615638565b602002602001015184613504565b6126b790836157ee565b9150600101612681565b506126ca6147c5565b6000805b8551811015612913578581815181106126e9576126e9615638565b602090810291909101015180519093506001600160a01b031661278d576020830151604051630bafd3f560e11b81526001600160801b03909116600482015273e7f1725e7734ce288f8367e1bb143e90bb3f05129063175fa7ea90602401602060405180830381865afa158015612764573d6000803e3d6000fd5b505050506040513d601f19601f8201168201806040525081019061278891906155fe565b612790565b82515b60608401519092506001600160a01b03166127ed5760408301516127bd906001600160801b0316856157ee565b93506127e883604001516001600160801b0316836001600160a01b03166141e390919063ffffffff16565b6128aa565b82516001600160a01b031661288957606083015160405163b25e9c3960e01b81526001600160a01b0391821660048201529083169063b25e9c3990602401602060405180830381865afa158015612848573d6000803e3d6000fd5b505050506040513d601f19601f8201168201806040525081019061286c919061561b565b61288957604051630b27db6160e11b815260040160405180910390fd5b6128aa856000015184606001518486604001516001600160801b0316614234565b82604001516001600160801b0316826001600160a01b031684606001516001600160a01b03167faf4e8fbdf3eeda1bb461f86b73d9341aad76a124175886910acc8ce457007ced86608001516040516129039190615b8d565b60405180910390a46001016126ce565b5060006129208434615a7a565b905080156129325761293233826141e3565b50505050505050565b610629612be4565b7f4910fdfa16fed3260ed0e7147f7cc6da11a60208b5b9406d12a635614ffd91435460ff16156129765761053f83614331565b826001600160a01b03166352d1902d6040518163ffffffff1660e01b8152600401602060405180830381865afa9250505080156129d0575060408051601f3d908101601f191682019092526129cd918101906157bf565b60015b612a335760405162461bcd60e51b815260206004820152602e60248201527f45524331393637557067726164653a206e657720696d706c656d656e7461746960448201526d6f6e206973206e6f74205555505360901b606482015260840161058c565b600080516020615e6d8339815191528114612aa25760405162461bcd60e51b815260206004820152602960248201527f45524331393637557067726164653a20756e737570706f727465642070726f786044820152681a58589b195555525160ba1b606482015260840161058c565b5061053f8383836143cd565b60088101546001600160a01b0316610629576040516329c2f8dd60e11b815260040160405180910390fd5b6000612ae484612aae565b600884015460405163166eb15b60e21b81526001600160a01b039182166004820152908416906359bac56c90602401602060405180830381865afa158015612b30573d6000803e3d6000fd5b505050506040513d601f19601f82011682018060405250810190612b54919061561b565b15612b72575060088301546001600160a01b03828116911614611c02565b60405163166eb15b60e21b81526001600160a01b0383811660048301528416906359bac56c90602401602060405180830381865afa158015612bb8573d6000803e3d6000fd5b505050506040513d601f19601f82011682018060405250810190612bdc919061561b565b949350505050565b6097546001600160a01b03163314611a7b5760405162461bcd60e51b815260206004820181905260248201527f4f776e61626c653a2063616c6c6572206973206e6f7420746865206f776e6572604482015260640161058c565b609780546001600160a01b038381166001600160a01b0319831681179093556040519116919082907f8be0079c531659141344cd1fd0a4f28419497f9722a3daafe3b4186f6b6457e090600090a35050565b600054610100900460ff16612cb75760405162461bcd60e51b815260040161058c90615ba0565b611a7b6143f2565b612cea6040518060800160405280600081526020016000815260200160008152602001600081525090565b612cf388612aae565b6001600160a01b0380861660009081526001808b016020908152604092839020835160608101855281546001600160f81b038116825260ff600160f81b909104811615159382019390935292015490931691810182905260088b01549092600160f01b9091041690613055576001600160a01b038716612d8e5785612d7d83600184161515614422565b612d879190615beb565b83526130d7565b816020015115612fc557600080805260018b0160205260409020546001600160f81b0316151580612dc8575081516001600160f81b031615155b15612f9c5781516000906001600160f81b03168103612e4557600080805260018c81016020908152604092839020835160608101855281546001600160f81b0381168252600160f81b900460ff161515928101929092528201546001600160a01b031692810192909252612e40919084161515614422565b612e51565b82516001600160f81b03165b90506001600160801b03811115612e7b57604051633806212b60e21b815260040160405180910390fd5b6040516331b889b160e11b81528790731613beb3b2c4f22ee086b2b38c1476a3ce7f78e890636371136290612ed090859073b4fbf271143f4fbf7b91a5ded31805e42b2208d6908e9061070890600401615c0a565b602060405180830381865afa158015612eed573d6000803e3d6000fd5b505050506040513d601f19601f82011682018060405250810190612f1191906157bf565b612f1b9190615beb565b60208501819052600003612f9657600080805260018c81016020908152604092839020835160608101855281546001600160f81b0381168252600160f81b900460ff161515928101929092528201546001600160a01b0316928101929092528891612f899185161515614422565b612f939190615beb565b84525b506130d7565b60018116600003612fc057604051630b27db6160e11b815260040160405180910390fd5b6130d7565b81516001600160f81b031615612ff5578151612feb9087906001600160f81b0316615beb565b60208401526130d7565b600080805260018b81016020908152604092839020835160608101855281546001600160f81b0381168252600160f81b900460ff161515928101929092528201546001600160a01b0316928101929092528791612d7d9184161515614422565b81604001516001600160a01b031663d7a3d0c88a8a8a8a8a8a6040518763ffffffff1660e01b815260040161308f96959493929190615c40565b6040805180830381865afa1580156130ab573d6000803e3d6000fd5b505050506040513d601f19601f820116820180604052508101906130cf9190615c80565b602085015283525b60048a0154156131e0576001600382901c1615801561315b576001600283901c161580159061313f57846020015160000361312557604051630b27db6160e11b815260040160405180910390fd5b60048c0154613135908990615beb565b6060860152613155565b60048c015461314f908990615beb565b60408601525b506131de565b6020840151156131a65760048b015460208501516127109161317c91615beb565b6131869190615ca4565b6060850181905260208501805161319e908390615a7a565b9052506131de565b60048b01548451612710916131ba91615beb565b6131c49190615ca4565b60408501819052845185906131da908390615a7a565b9052505b505b5050979650505050505050565b60058101546001600160a01b03808616911603611e0b5760008082600301600001805461321990615a40565b80601f016020809104026020016040519081016040528092919081815260200182805461324590615a40565b80156132925780601f1061326757610100808354040283529160200191613292565b820191906000526020600020905b81548152906001019060200180831161327557829003601f168201915b50505050508060200190518101906132aa9190615791565b600585015491935091506302868bf960e11b600160c01b90910460e01b6001600160e01b03191601613316576008830154600160c81b900463ffffffff16841415806132f35750845b1561331157604051636dac6a0960e01b815260040160405180910390fd5b612932565b600583015462fc808960e71b600160c01b90910460e01b6001600160e01b0319160161293257841561335b57604051636dac6a0960e01b815260040160405180910390fd5b6008830154600160c81b900463ffffffff16841461293257604051627eeac760e11b81526001600160a01b038781166004830152602482018390526000919084169062fdd58e90604401602060405180830381865afa1580156133c2573d6000803e3d6000fd5b505050506040513d601f19601f820116820180604052508101906133e691906157bf565b600885015460008a815260fd602090815260408083206001600160a01b0389168452825280832087845290915281205492935091600160c81b90910463ffffffff16906134349088906157ee565b61343e9190615a7a565b90508181111561346157604051636dac6a0960e01b815260040160405180910390fd5b600089815260fd602090815260408083206001600160a01b038816808552908352818420878552835292819020849055518381528592918c91600080516020615eb4833981519152910160405180910390a4505050505050505050565b60c95460ff1615611a7b5760405162461bcd60e51b815260206004820152601060248201526f14185d5cd8589b194e881c185d5cd95960821b604482015260640161058c565b6000826040015163ffffffff166000146141dd576020838101516001600160801b0316600090815260fb9091526040902060030154600160a01b900460ff161561356157604051632149aed960e21b815260040160405180910390fd5b82600001516001600160a01b031682602001516001600160a01b03160361359b57604051630c22084560e31b815260040160405180910390fd5b600060fb600085602001516001600160801b031681526020019081526020016000206001016000856080015163ffffffff1681526020019081526020016000209050600061361b8286602001516001600160801b0316876080015163ffffffff168860600151896040015163ffffffff168a600001518b60a00151612cbf565b6020868101516001600160801b0316600090815260fb909152604090206003015460088401549192506001600160a01b031690600160e81b900460ff16156136c357600883015460408781015188516001600160a01b0316600090815260208790529190912054600160e81b90920460ff169161369e919063ffffffff16615cc6565b63ffffffff1611156136c357604051636dac6a0960e01b815260040160405180910390fd5b6008830154600160f01b9004600190811c1660000361374b576008830154604087015163ffffffff600160c81b90920482169116111561371657604051636dac6a0960e01b815260040160405180910390fd5b604086015160088401805463ffffffff600160c81b8083048216949094031690920263ffffffff60c81b199092169190911790555b6040820151825161375c91906157ee565b82519094501580159061377b575060208501516001600160a01b031615155b1561380b57600983015461ffff1660008190036137c057506020868101516001600160801b0316600090815260fb9091526040902060030154600160a81b900461ffff165b80156138095760006127108285600001516137db9190615beb565b6137e59190615ca4565b845181900385526020880151909150613807906001600160a01b0316826141e3565b505b505b8151613821906001600160a01b038316906141e3565b60408087015187516001600160a01b03166000908152602086905291822080549192909161385690849063ffffffff16615cc6565b92506101000a81548163ffffffff021916908363ffffffff160217905550816020015160001461393b5760208501516001600160a01b03161561392357600983015461ffff1660008190036138d357506020868101516001600160801b0316600090815260fb9091526040902060030154600160a81b900461ffff165b80156139215760006127108285602001516138ee9190615beb565b6138f89190615ca4565b602080860180518390039052885160608b0151918a015192935061391f9290919084614234565b505b505b61393b85600001518760600151838560200151614234565b600283015415613a885760005b6002840154811015613a8657613a726040518060c0016040528089600001516001600160a01b0316815260200186600201848154811061398a5761398a615638565b9060005260206000200160000160009054906101000a90046001600160801b03166001600160801b03168152602001896040015163ffffffff16815260200189606001516001600160a01b031681526020018660020184815481106139f1576139f1615638565b9060005260206000200160000160109054906101000a900463ffffffff1663ffffffff1681526020018960a00151815250604051806080016040528089600001511515815260200189602001516001600160a01b031681526020018a602001516001600160801b031681526020018a6080015163ffffffff16815250613504565b613a7c90866157ee565b9450600101613948565b505b60058301546001600160a01b03161561415d576005830154600090600160c01b900460e01b6001600160e01b03191615613ed75760058401546001600160a01b03808416911603613dfb57600080856003016000018054613ae890615a40565b80601f0160208091040260200160405190810160405280929190818152602001828054613b1490615a40565b8015613b615780601f10613b3657610100808354040283529160200191613b61565b820191906000526020600020905b815481529060010190602001808311613b4457829003601f168201915b5050505050806020019051810190613b799190615791565b600588015491935091506302868bf960e11b600160c01b90910460e01b6001600160e01b03191601613c9557885160405163ce55982b60e01b81526001600160a01b0391821660048201528382166024820152604481018390529085169063ce55982b90606401600060405180830381600087803b158015613bfa57600080fd5b505af1158015613c0e573d6000803e3d6000fd5b50505050602089810180516001600160801b03908116600090815260fc845260408082206001600160a01b0388168084529086528183208784528652818320805460ff19169055935190519182526001975085949216917f76529e1c5add2962fbfae2a36bbcf688a5c01516b043ad429f1d81830687a2db910160405180910390a4613df4565b600586015462fc808960e71b600160c01b90910460e01b6001600160e01b03191601613df45788516040808b0151905163296789eb60e11b81526001600160a01b039283166004820152848316602482015263ffffffff909116604482015260648101839052908516906352cf13d690608401600060405180830381600087803b158015613d2257600080fd5b505af1158015613d36573d6000803e3d6000fd5b5050506040808b01516020808d01516001600160801b0316600090815260fd82528381206001600160a01b03881682528252838120868252909152918220805463ffffffff90921693509190613d8d908490615a7a565b90915550506020898101516001600160801b0316600081815260fd835260408082206001600160a01b038716808452908552818320868452855291819020549051908152600196508493919291600080516020615eb4833981519152910160405180910390a45b505061413d565b600584015460408085015160208a015160808b01518b518c85015160a08e015195516001600160a01b038816979596600160c01b90960460e01b95613e4c959493929160038e019190602401615cee565b60408051601f198184030181529181526020820180516001600160e01b03166001600160e01b0319909416939093179092529051613e8a9190615de4565b60006040518083038185875af1925050503d8060008114613ec7576040519150601f19603f3d011682016040523d82523d6000602084013e613ecc565b606091505b50508091505061413d565b60608301511561403f57613f0d8660000151886060015173cf7ed3acca5a467e9e704c703e8d87f634fb0fc98660600151614234565b602087015160058501546060808a0151908601516040808801519051630b90c4a560e11b815260048101919091526001600160a01b03808416602483015273cf7ed3acca5a467e9e704c703e8d87f634fb0fc9956359fc470a9590949082169390929091891690631721894a90604401602060405180830381865afa158015613f9a573d6000803e3d6000fd5b505050506040513d601f19601f82011682018060405250810190613fbe91906157bf565b6040516001600160e01b031960e088901b1681526001600160801b0390951660048601526001600160a01b0393841660248601529290911660448401526064830152608482015260a401600060405180830381600087803b15801561402257600080fd5b505af1158015614036573d6000803e3d6000fd5b50505050614139565b60408381015160058601549151630b90c4a560e11b8152600481018290526000602482015273cf7ed3acca5a467e9e704c703e8d87f634fb0fc9926339ed512392916001600160a01b0391821691871690631721894a90604401602060405180830381865afa1580156140b6573d6000803e3d6000fd5b505050506040513d601f19601f820116820180604052508101906140da91906157bf565b6040516001600160e01b031960e086901b1681526001600160a01b03909216600483015260248201526044016000604051808303818588803b15801561411f57600080fd5b505af1158015614133573d6000803e3d6000fd5b50505050505b5060015b8061415b5760405163af6eefa360e01b815260040160405180910390fd5b505b85600001516001600160a01b0316866080015163ffffffff1687602001516001600160801b03167f392f594e624e358091bb17d04cc5fac6221a0d9d1218d3dd08a007b0de11f21b89604001518a60600151878b602001518c604001518d606001516040516141d196959493929190615e00565b60405180910390a45050505b92915050565b600080600080600085875af190508061053f5760405162461bcd60e51b815260206004820152601360248201527211551217d514905394d1915497d19052531151606a1b604482015260640161058c565b836142b8576040516323b872dd60e01b81523360048201526001600160a01b038381166024830152604482018390528416906323b872dd906064016020604051808303816000875af115801561428e573d6000803e3d6000fd5b505050506040513d601f19601f820116820180604052508101906142b2919061561b565b5061432b565b60405163a9059cbb60e01b81526001600160a01b0383811660048301526024820183905284169063a9059cbb906044016020604051808303816000875af1158015614307573d6000803e3d6000fd5b505050506040513d601f19601f82011682018060405250810190611e0b919061561b565b50505050565b6001600160a01b0381163b61439e5760405162461bcd60e51b815260206004820152602d60248201527f455243313936373a206e657720696d706c656d656e746174696f6e206973206e60448201526c1bdd08184818dbdb9d1c9858dd609a1b606482015260840161058c565b600080516020615e6d83398151915280546001600160a01b0319166001600160a01b0392909216919091179055565b6143d683614595565b6000825111806143e35750805b1561053f5761432b83836145d5565b600054610100900460ff166144195760405162461bcd60e51b815260040161058c90615ba0565b611a7b33612c3e565b81516000906001600160f81b031615801561443b575081155b1561445957604051630b27db6160e11b815260040160405180910390fd5b8260200151156145865782516001600160801b036001600160f81b03909116111561449757604051633806212b60e21b815260040160405180910390fd5b82516040516331b889b160e11b8152731613beb3b2c4f22ee086b2b38c1476a3ce7f78e8916363711362916144ff91907356639db16ac50a89228026e42a316b30179a53769073b4fbf271143f4fbf7b91a5ded31805e42b2208d69061070890600401615c0a565b602060405180830381865afa15801561451c573d6000803e3d6000fd5b505050506040513d601f19601f8201168201806040525081019061454091906157bf565b9050806000036145815760405162461bcd60e51b815260206004820152600c60248201526b125b9d985b1a59081c1bdbdb60a21b604482015260640161058c565b6141dd565b5050516001600160f81b031690565b61459e81614331565b6040516001600160a01b038216907fbc7cd75a20ee27fd9adebab32041f755214dbc6bffa90cc0225b39da2e5c2d3b90600090a250565b60606001600160a01b0383163b61463d5760405162461bcd60e51b815260206004820152602660248201527f416464726573733a2064656c65676174652063616c6c20746f206e6f6e2d636f6044820152651b9d1c9858dd60d21b606482015260840161058c565b600080846001600160a01b0316846040516146589190615de4565b600060405180830381855af49150503d8060008114614693576040519150601f19603f3d011682016040523d82523d6000602084013e614698565b606091505b50915091506146c08282604051806060016040528060278152602001615e8d602791396146c9565b95945050505050565b606083156146d8575081611c02565b611c0283838151156146ed5781518083602001fd5b8060405162461bcd60e51b815260040161058c9190615b8d565b82805461471390615a40565b90600052602060002090601f016020900481019282614735576000855561477b565b82601f1061474e57805160ff191683800117855561477b565b8280016001018555821561477b579182015b8281111561477b578251825591602001919060010190614760565b506147879291506147f5565b5090565b50805461479790615a40565b6000825580601f106147a7575050565b601f01602090049060005260206000209081019061062991906147f5565b6040805160a081018252600080825260208201819052918101829052606080820192909252608081019190915290565b5b8082111561478757600081556001016147f6565b634e487b7160e01b600052604160045260246000fd5b60405160c081016001600160401b03811182821017156148425761484261480a565b60405290565b60405160a081016001600160401b03811182821017156148425761484261480a565b604080519081016001600160401b03811182821017156148425761484261480a565b604051608081016001600160401b03811182821017156148425761484261480a565b60405161016081016001600160401b03811182821017156148425761484261480a565b604051601f8201601f191681016001600160401b03811182821017156148f9576148f961480a565b604052919050565b60006001600160401b0382111561491a5761491a61480a565b5060051b60200190565b6001600160a01b038116811461062957600080fd5b80356001600160801b038116811461495057600080fd5b919050565b803563ffffffff8116811461495057600080fd5b60006001600160401b038311156149825761498261480a565b614995601f8401601f19166020016148d1565b90508281528383830111156149a957600080fd5b828260208301376000602084830101529392505050565b600082601f8301126149d157600080fd5b611c0283833560208501614969565b600082601f8301126149f157600080fd5b81356020614a06614a0183614901565b6148d1565b82815260059290921b84018101918181019086841115614a2557600080fd5b8286015b84811015614afa5780356001600160401b0380821115614a495760008081fd5b9088019060c0828b03601f1901811315614a635760008081fd5b614a6b614820565b87840135614a7881614924565b81526040614a87858201614939565b898301526060614a98818701614955565b828401526080915081860135614aad81614924565b9083015260a0614abe868201614955565b83830152928501359284841115614ad757600091508182fd5b614ae58e8b868901016149c0565b90830152508652505050918301918301614a29565b509695505050505050565b600082601f830112614b1657600080fd5b81356020614b26614a0183614901565b82815260059290921b84018101918181019086841115614b4557600080fd5b8286015b84811015614afa5780356001600160401b0380821115614b695760008081fd5b9088019060a0828b03601f1901811315614b835760008081fd5b614b8b614848565b87840135614b9881614924565b81526040614ba7858201614939565b898301526060614bb8818701614939565b82840152608080870135614bcb81614924565b84830152938601359385851115614be457600091508182fd5b84870196508e603f880112614bfb57600095508586fd5b614c0b8f8c890135858a01614969565b9084015250508652505050918301918301614b49565b600080600060608486031215614c3657600080fd5b83356001600160401b0380821115614c4d57600080fd5b614c59878388016149e0565b94506020860135915080821115614c6f57600080fd5b50614c7c86828701614b05565b9250506040840135614c8d81614924565b809150509250925092565b60008060408385031215614cab57600080fd5b50508035926020909101359150565b600060208284031215614ccc57600080fd5b8135611c0281614924565b600082601f830112614ce857600080fd5b81356020614cf8614a0183614901565b82815260069290921b84018101918181019086841115614d1757600080fd5b8286015b84811015614afa5760408189031215614d345760008081fd5b614d3c61486a565b614d4582614939565b8152614d52858301614955565b81860152835291830191604001614d1b565b80356001600160f81b038116811461495057600080fd5b801515811461062957600080fd5b803561495081614d7b565b600060808284031215614da657600080fd5b614dae61488c565b9050614db982614d64565b81526020820135614dc981614d7b565b60208201526040820135614ddc81614924565b60408201526060820135614def81614924565b606082015292915050565b600082601f830112614e0b57600080fd5b81356020614e1b614a0183614901565b82815260079290921b84018101918181019086841115614e3a57600080fd5b8286015b84811015614afa57614e508882614d94565b835291830191608001614e3e565b803560ff8116811461495057600080fd5b80356001600160e01b03198116811461495057600080fd5b600060a08284031215614e9957600080fd5b614ea1614848565b905081356001600160401b03811115614eb957600080fd5b614ec5848285016149c0565b825250602082013560208201526040820135614ee081614924565b6040820152614ef160608301614e6f565b6060820152614f0260808301614e6f565b608082015292915050565b600080600060608486031215614f2257600080fd5b8335925060208401356001600160401b0380821115614f4057600080fd5b908501906101608288031215614f5557600080fd5b614f5d6148ae565b823582811115614f6c57600080fd5b614f7889828601614cd7565b825250602083013582811115614f8d57600080fd5b614f9989828601614dfa565b602083015250604083013582811115614fb157600080fd5b614fbd898286016149c0565b604083015250606083013582811115614fd557600080fd5b614fe1898286016149c0565b606083015250614ff360808401614955565b608082015261500460a08401614e5e565b60a082015261501560c08401614d89565b60c082015261502660e08401614d89565b60e0820152610100615039818501614d89565b9082015261012061504b848201614d89565b9082015261014092830135928101929092529092506040850135908082111561507357600080fd5b5061508086828701614e87565b9150509250925092565b60005b838110156150a557818101518382015260200161508d565b8381111561432b5750506000910152565b600081518084526150ce81602086016020860161508a565b601f01601f19169290920160200192915050565b828152604060208201526000612bdc60408301846150b6565b6000806040838503121561510e57600080fd5b823561511981614924565b915060208301356001600160401b0381111561513457600080fd5b615140858286016149c0565b9150509250929050565b60008060006060848603121561515f57600080fd5b83359250602084013561517181614d7b565b929592945050506040919091013590565b600061010080838503121561519657600080fd5b604051908101906001600160401b03821181831017156151b8576151b861480a565b81604052809250833591506151cc82614924565b8181526020840135602082015260408401356040820152606084013560608201526080840135608082015261520360a08501614e5e565b60a082015260c084013560c082015260e084013560e0820152505092915050565b600080610120838503121561523857600080fd5b82356001600160401b0381111561524e57600080fd5b61525a858286016149e0565b92505061526a8460208501615182565b90509250929050565b60008060006060848603121561528857600080fd5b833561529381614924565b95602085013595506040909401359392505050565b60008060008061016085870312156152bf57600080fd5b84356001600160401b03808211156152d657600080fd5b6152e2888389016149e0565b95506152f18860208901615182565b945061012087013591508082111561530857600080fd5b5061531587828801614b05565b92505061014085013561532781614924565b939692955090935050565b60006020828403121561534457600080fd5b5035919050565b60006020828403121561535d57600080fd5b81356001600160401b0381111561537357600080fd5b612bdc848285016149e0565b60008060008060008060c0878903121561539857600080fd5b863595506020870135945060408701356153b181614924565b93506060870135925060808701356153c881614924565b915060a08701356001600160401b038111156153e357600080fd5b6153ef89828a016149c0565b9150509295509295509295565b81518152602080830151908201526040808301519082015260608083015190820152608081016141dd565b60008060006060848603121561543c57600080fd5b83359250602084013591506040840135614c8d81614924565b60008083601f84011261546757600080fd5b5081356001600160401b0381111561547e57600080fd5b6020830191508360208260071b850101111561145b57600080fd5b6000806000806000806000806000806101208b8d0312156154b957600080fd5b8a35995060208b013598506154d060408c01614e5e565b975060608b01356154e081614d7b565b965060808b01356154f081614d7b565b95506154fe60a08c01614955565b945060c08b0135935060e08b01356001600160401b038082111561552157600080fd5b61552d8e838f01615455565b90955093506101008d013591508082111561554757600080fd5b506155548d828e01614e87565b9150509295989b9194979a5092959850565b6020808252602c908201527f46756e6374696f6e206d7573742062652063616c6c6564207468726f7567682060408201526b19195b1959d85d1958d85b1b60a21b606082015260800190565b6020808252602c908201527f46756e6374696f6e206d7573742062652063616c6c6564207468726f7567682060408201526b6163746976652070726f787960a01b606082015260800190565b60006020828403121561561057600080fd5b8151611c0281614924565b60006020828403121561562d57600080fd5b8151611c0281614d7b565b634e487b7160e01b600052603260045260246000fd5b600082601f83011261565f57600080fd5b8151602061566f614a0183614901565b82815260059290921b8401810191818101908684111561568e57600080fd5b8286015b84811015614afa5780518060060b81146156ac5760008081fd5b8352918301918301615692565b805161495081614924565b600080600083850360c08112156156da57600080fd5b60808112156156e857600080fd5b506156f161488c565b84516156fc81614924565b8152602085015162ffffff8116811461571457600080fd5b6020820152604085015165ffffffffffff8116811461573257600080fd5b6040820152606085015161ffff8116811461574c57600080fd5b606082015260808501519093506001600160401b0381111561576d57600080fd5b6157798682870161564e565b92505061578860a085016156b9565b90509250925092565b600080604083850312156157a457600080fd5b82516157af81614924565b6020939093015192949293505050565b6000602082840312156157d157600080fd5b5051919050565b634e487b7160e01b600052601160045260246000fd5b60008219821115615801576158016157d8565b500190565b600081518084526020808501945080840160005b8381101561585057815180516001600160801b0316885283015163ffffffff16838801526040909601959082019060010161581a565b509495945050505050565b600081518084526020808501945080840160005b8381101561585057815180516001600160f81b03168852838101511515848901526040808201516001600160a01b03908116918a019190915260609182015116908801526080909601959082019060010161586f565b6000815160a084526158da60a08501826150b6565b602084810151908601526040808501516001600160a01b0316908601526060808501516001600160e01b0319908116918701919091526080948501511693909401929092525090919050565b60018060a01b038416815260606020820152600083516101608060608501526159536101c0850183615806565b91506020860151605f1980868503016080870152615971848361585b565b935060408801519150808685030160a087015261598e84836150b6565b935060608801519150808685030160c0870152506159ac83826150b6565b92505060808601516159c660e086018263ffffffff169052565b5060a08601516101006159dd8187018360ff169052565b60c088015191506101206159f48188018415159052565b60e08901519250610140615a0b8189018515159052565b91890151151593870193909352918701511515610180860152508501516101a08401528281036040840152611f1d81856158c5565b600181811c90821680615a5457607f821691505b602082108103615a7457634e487b7160e01b600052602260045260246000fd5b50919050565b600082821015615a8c57615a8c6157d8565b500390565b600060808284031215615aa357600080fd5b611c028383614d94565b602081526000611c0260208301846158c5565b600060c0820160ff8a168352602089151581850152604089151581860152606063ffffffff8a1681870152608060c0818801528489865260e0880190508a955060005b8a811015615b71576001600160f81b03615b1c88614d64565b16825285870135615b2c81614d7b565b15158287015286850135615b3f81614924565b6001600160a01b03908116838701528785013590615b5c82614924565b16828501529582019590820190600101615b03565b508096505050505050508260a083015298975050505050505050565b602081526000611c0260208301846150b6565b6020808252602b908201527f496e697469616c697a61626c653a20636f6e7472616374206973206e6f74206960408201526a6e697469616c697a696e6760a81b606082015260800190565b6000816000190483118215151615615c0557615c056157d8565b500290565b6001600160801b039490941684526001600160a01b0392831660208501529116604083015263ffffffff16606082015260800190565b868152602081018690526001600160a01b038581166040830152606082018590528316608082015260c060a08201819052600090611ed5908301846150b6565b60008060408385031215615c9357600080fd5b505080516020909101519092909150565b600082615cc157634e487b7160e01b600052601260045260246000fd5b500490565b600063ffffffff808316818516808303821115615ce557615ce56157d8565b01949350505050565b6001600160801b038716815263ffffffff8681166020808401919091526001600160a01b0387166040840152908516606083015260c060808301528354600091908290600181811c9082811680615d4657607f831692505b8583108103615d6357634e487b7160e01b85526022600452602485fd5b60c0880183905260e08801818015615d825760018114615d9357615dbe565b60ff19861682528782019650615dbe565b60008c81526020902060005b86811015615db857815484820152908501908901615d9f565b83019750505b50505050505083810360a0850152615dd681866150b6565b9a9950505050505050505050565b60008251615df681846020870161508a565b9190910192915050565b63ffffffff871681526001600160a01b038681166020830152610120820190615e4d6040840188805182526020810151602083015260408101516040830152606081015160608301525050565b9490941660c082015260e081019290925261010090910152939250505056fe360894a13ba1a3210667c828492db98dca3e2076cc3735a920a3ca505d382bbc416464726573733a206c6f772d6c6576656c2064656c65676174652063616c6c206661696c6564f0832fe058ed4ffda256632e9c3d7b50283fb2e36310b6beaf08f633b1407057a26469706673582212201576d89c624bfa55e7aa2c2fb272d8579ffb8b8f60de956c1a53ccf3e0b64b6564736f6c634300080d0033",
  "linkReferences": {},
  "deployedLinkReferences": {}
}