{
  "_format": "hh-sol-artifact-1",
  "contractName": "ProductsModule",
  "sourceName": "contracts/ProductsModule.sol",
  "abi": [
    {
      "inputs": [],
      "name": "ActiveListing",
      "type": "error"
    },
    {
      "inputs": [],
      "name": "ExceedsMaxValue",
      "type": "error"
    },
    {
      "inputs": [],
      "name": "InexistentPool",
      "type": "error"
    },
    {
      "inputs": [],
      "name": "InexistentProduct",
      "type": "error"
    },
    {
      "inputs": [],
      "name": "InsufficientPayment",
      "type": "error"
    },
    {
      "inputs": [],
      "name": "Invalid",
      "type": "error"
    },
    {
      "inputs": [],
      "name": "NoDelegatecall",
      "type": "error"
    },
    {
      "inputs": [],
      "name": "NotAuthorized",
      "type": "error"
    },
    {
      "inputs": [],
      "name": "NotPurchased",
      "type": "error"
    },
    {
      "inputs": [],
      "name": "NotSuccessful",
      "type": "error"
    },
    {
      "inputs": [],
      "name": "TooSoon",
      "type": "error"
    },
    {
      "inputs": [],
      "name": "WrongCurrency",
      "type": "error"
    },
    {
      "anonymous": false,
      "inputs": [
        {
          "indexed": false,
          "internalType": "address",
          "name": "previousAdmin",
          "type": "address"
        },
        {
          "indexed": false,
          "internalType": "address",
          "name": "newAdmin",
          "type": "address"
        }
      ],
      "name": "AdminChanged",
      "type": "event"
    },
    {
      "anonymous": false,
      "inputs": [
        {
          "indexed": true,
          "internalType": "address",
          "name": "beacon",
          "type": "address"
        }
      ],
      "name": "BeaconUpgraded",
      "type": "event"
    },
    {
      "anonymous": false,
      "inputs": [
        {
          "indexed": true,
          "internalType": "uint256",
          "name": "slicerId",
          "type": "uint256"
        },
        {
          "indexed": true,
          "internalType": "address",
          "name": "contractAddress",
          "type": "address"
        },
        {
          "indexed": true,
          "internalType": "uint256",
          "name": "tokenId",
          "type": "uint256"
        },
        {
          "indexed": false,
          "internalType": "uint256",
          "name": "currentAmount",
          "type": "uint256"
        }
      ],
      "name": "ERC1155ListingChanged",
      "type": "event"
    },
    {
      "anonymous": false,
      "inputs": [
        {
          "indexed": true,
          "internalType": "uint256",
          "name": "slicerId",
          "type": "uint256"
        },
        {
          "indexed": true,
          "internalType": "address",
          "name": "contractAddress",
          "type": "address"
        },
        {
          "indexed": true,
          "internalType": "uint256",
          "name": "tokenId",
          "type": "uint256"
        },
        {
          "indexed": false,
          "internalType": "bool",
          "name": "isActive",
          "type": "bool"
        }
      ],
      "name": "ERC721ListingChanged",
      "type": "event"
    },
    {
      "anonymous": false,
      "inputs": [
        {
          "indexed": true,
          "internalType": "address",
          "name": "previousOwner",
          "type": "address"
        },
        {
          "indexed": true,
          "internalType": "address",
          "name": "newOwner",
          "type": "address"
        }
      ],
      "name": "OwnershipTransferred",
      "type": "event"
    },
    {
      "anonymous": false,
      "inputs": [
        {
          "indexed": false,
          "internalType": "address",
          "name": "account",
          "type": "address"
        }
      ],
      "name": "Paused",
      "type": "event"
    },
    {
      "anonymous": false,
      "inputs": [
        {
          "indexed": true,
          "internalType": "uint256",
          "name": "slicerId",
          "type": "uint256"
        },
        {
          "indexed": true,
          "internalType": "uint256",
          "name": "productId",
          "type": "uint256"
        },
        {
          "indexed": true,
          "internalType": "uint256",
          "name": "categoryIndex",
          "type": "uint256"
        },
        {
          "indexed": false,
          "internalType": "address",
          "name": "creator",
          "type": "address"
        },
        {
          "components": [
            {
              "components": [
                {
                  "internalType": "uint128",
                  "name": "subSlicerId",
                  "type": "uint128"
                },
                {
                  "internalType": "uint32",
                  "name": "subProductId",
                  "type": "uint32"
                }
              ],
              "internalType": "struct SubSlicerProduct[]",
              "name": "subSlicerProducts",
              "type": "tuple[]"
            },
            {
              "components": [
                {
                  "internalType": "uint248",
                  "name": "value",
                  "type": "uint248"
                },
                {
                  "internalType": "bool",
                  "name": "dynamicPricing",
                  "type": "bool"
                },
                {
                  "internalType": "address",
                  "name": "currency",
                  "type": "address"
                }
              ],
              "internalType": "struct CurrencyPrice[]",
              "name": "currencyPrices",
              "type": "tuple[]"
            },
            {
              "internalType": "bytes",
              "name": "data",
              "type": "bytes"
            },
            {
              "internalType": "bytes",
              "name": "purchaseData",
              "type": "bytes"
            },
            {
              "internalType": "uint32",
              "name": "availableUnits",
              "type": "uint32"
            },
            {
              "internalType": "uint8",
              "name": "maxUnitsPerBuyer",
              "type": "uint8"
            },
            {
              "internalType": "bool",
              "name": "isFree",
              "type": "bool"
            },
            {
              "internalType": "bool",
              "name": "isInfinite",
              "type": "bool"
            },
            {
              "internalType": "bool",
              "name": "isExternalCallPaymentRelative",
              "type": "bool"
            },
            {
              "internalType": "bool",
              "name": "isExternalCallPreferredToken",
              "type": "bool"
            }
          ],
          "indexed": false,
          "internalType": "struct ProductParams",
          "name": "params",
          "type": "tuple"
        },
        {
          "components": [
            {
              "internalType": "bytes",
              "name": "data",
              "type": "bytes"
            },
            {
              "internalType": "uint256",
              "name": "value",
              "type": "uint256"
            },
            {
              "internalType": "address",
              "name": "externalAddress",
              "type": "address"
            },
            {
              "internalType": "bytes4",
              "name": "checkFunctionSignature",
              "type": "bytes4"
            },
            {
              "internalType": "bytes4",
              "name": "execFunctionSignature",
              "type": "bytes4"
            }
          ],
          "indexed": false,
          "internalType": "struct Function",
          "name": "externalCall",
          "type": "tuple"
        }
      ],
      "name": "ProductAdded",
      "type": "event"
    },
    {
      "anonymous": false,
      "inputs": [
        {
          "indexed": true,
          "internalType": "uint256",
          "name": "slicerId",
          "type": "uint256"
        },
        {
          "indexed": true,
          "internalType": "uint256",
          "name": "productId",
          "type": "uint256"
        },
        {
          "indexed": false,
          "internalType": "uint8",
          "name": "maxUnitsPerBuyer",
          "type": "uint8"
        },
        {
          "indexed": false,
          "internalType": "bool",
          "name": "isFree",
          "type": "bool"
        },
        {
          "indexed": false,
          "internalType": "bool",
          "name": "isInfinite",
          "type": "bool"
        },
        {
          "indexed": false,
          "internalType": "uint256",
          "name": "newUnits",
          "type": "uint256"
        },
        {
          "components": [
            {
              "internalType": "uint248",
              "name": "value",
              "type": "uint248"
            },
            {
              "internalType": "bool",
              "name": "dynamicPricing",
              "type": "bool"
            },
            {
              "internalType": "address",
              "name": "currency",
              "type": "address"
            }
          ],
          "indexed": false,
          "internalType": "struct CurrencyPrice[]",
          "name": "currencyPrices",
          "type": "tuple[]"
        }
      ],
      "name": "ProductInfoChanged",
      "type": "event"
    },
    {
      "anonymous": false,
      "inputs": [
        {
          "indexed": true,
          "internalType": "uint256",
          "name": "slicerId",
          "type": "uint256"
        },
        {
          "indexed": true,
          "internalType": "uint256",
          "name": "productId",
          "type": "uint256"
        },
        {
          "indexed": false,
          "internalType": "uint256",
          "name": "quantity",
          "type": "uint256"
        },
        {
          "indexed": true,
          "internalType": "address",
          "name": "buyer",
          "type": "address"
        },
        {
          "indexed": false,
          "internalType": "address",
          "name": "currency",
          "type": "address"
        },
        {
          "components": [
            {
              "internalType": "uint256",
              "name": "eth",
              "type": "uint256"
            },
            {
              "internalType": "uint256",
              "name": "currency",
              "type": "uint256"
            },
            {
              "internalType": "uint256",
              "name": "ethExternalCall",
              "type": "uint256"
            },
            {
              "internalType": "uint256",
              "name": "currencyExternalCall",
              "type": "uint256"
            }
          ],
          "indexed": false,
          "internalType": "struct Price",
          "name": "price",
          "type": "tuple"
        }
      ],
      "name": "ProductPaid",
      "type": "event"
    },
    {
      "anonymous": false,
      "inputs": [
        {
          "indexed": true,
          "internalType": "uint256",
          "name": "slicerId",
          "type": "uint256"
        },
        {
          "indexed": true,
          "internalType": "uint256",
          "name": "productId",
          "type": "uint256"
        }
      ],
      "name": "ProductRemoved",
      "type": "event"
    },
    {
      "anonymous": false,
      "inputs": [
        {
          "indexed": true,
          "internalType": "uint256",
          "name": "slicerId",
          "type": "uint256"
        },
        {
          "indexed": false,
          "internalType": "uint256",
          "name": "ethToRelease",
          "type": "uint256"
        }
      ],
      "name": "ReleasedToSlicer",
      "type": "event"
    },
    {
      "anonymous": false,
      "inputs": [
        {
          "indexed": false,
          "internalType": "address",
          "name": "account",
          "type": "address"
        }
      ],
      "name": "Unpaused",
      "type": "event"
    },
    {
      "anonymous": false,
      "inputs": [
        {
          "indexed": true,
          "internalType": "address",
          "name": "implementation",
          "type": "address"
        }
      ],
      "name": "Upgraded",
      "type": "event"
    },
    {
      "inputs": [],
      "name": "_togglePause",
      "outputs": [],
      "stateMutability": "nonpayable",
      "type": "function"
    },
    {
      "inputs": [
        {
          "internalType": "uint256",
          "name": "slicerId",
          "type": "uint256"
        },
        {
          "components": [
            {
              "components": [
                {
                  "internalType": "uint128",
                  "name": "subSlicerId",
                  "type": "uint128"
                },
                {
                  "internalType": "uint32",
                  "name": "subProductId",
                  "type": "uint32"
                }
              ],
              "internalType": "struct SubSlicerProduct[]",
              "name": "subSlicerProducts",
              "type": "tuple[]"
            },
            {
              "components": [
                {
                  "internalType": "uint248",
                  "name": "value",
                  "type": "uint248"
                },
                {
                  "internalType": "bool",
                  "name": "dynamicPricing",
                  "type": "bool"
                },
                {
                  "internalType": "address",
                  "name": "currency",
                  "type": "address"
                }
              ],
              "internalType": "struct CurrencyPrice[]",
              "name": "currencyPrices",
              "type": "tuple[]"
            },
            {
              "internalType": "bytes",
              "name": "data",
              "type": "bytes"
            },
            {
              "internalType": "bytes",
              "name": "purchaseData",
              "type": "bytes"
            },
            {
              "internalType": "uint32",
              "name": "availableUnits",
              "type": "uint32"
            },
            {
              "internalType": "uint8",
              "name": "maxUnitsPerBuyer",
              "type": "uint8"
            },
            {
              "internalType": "bool",
              "name": "isFree",
              "type": "bool"
            },
            {
              "internalType": "bool",
              "name": "isInfinite",
              "type": "bool"
            },
            {
              "internalType": "bool",
              "name": "isExternalCallPaymentRelative",
              "type": "bool"
            },
            {
              "internalType": "bool",
              "name": "isExternalCallPreferredToken",
              "type": "bool"
            }
          ],
          "internalType": "struct ProductParams",
          "name": "params",
          "type": "tuple"
        },
        {
          "components": [
            {
              "internalType": "bytes",
              "name": "data",
              "type": "bytes"
            },
            {
              "internalType": "uint256",
              "name": "value",
              "type": "uint256"
            },
            {
              "internalType": "address",
              "name": "externalAddress",
              "type": "address"
            },
            {
              "internalType": "bytes4",
              "name": "checkFunctionSignature",
              "type": "bytes4"
            },
            {
              "internalType": "bytes4",
              "name": "execFunctionSignature",
              "type": "bytes4"
            }
          ],
          "internalType": "struct Function",
          "name": "externalCall_",
          "type": "tuple"
        }
      ],
      "name": "addProduct",
      "outputs": [],
      "stateMutability": "nonpayable",
      "type": "function"
    },
    {
      "inputs": [
        {
          "internalType": "uint256",
          "name": "slicerId",
          "type": "uint256"
        }
      ],
      "name": "ethBalance",
      "outputs": [
        {
          "internalType": "uint256",
          "name": "",
          "type": "uint256"
        }
      ],
      "stateMutability": "view",
      "type": "function"
    },
    {
      "inputs": [],
      "name": "initialize",
      "outputs": [],
      "stateMutability": "nonpayable",
      "type": "function"
    },
    {
      "inputs": [],
      "name": "owner",
      "outputs": [
        {
          "internalType": "address",
          "name": "",
          "type": "address"
        }
      ],
      "stateMutability": "view",
      "type": "function"
    },
    {
      "inputs": [],
      "name": "paused",
      "outputs": [
        {
          "internalType": "bool",
          "name": "",
          "type": "bool"
        }
      ],
      "stateMutability": "view",
      "type": "function"
    },
    {
      "inputs": [
        {
          "internalType": "address",
          "name": "buyer",
          "type": "address"
        },
        {
          "components": [
            {
              "internalType": "uint128",
              "name": "slicerId",
              "type": "uint128"
            },
            {
              "internalType": "uint32",
              "name": "quantity",
              "type": "uint32"
            },
            {
              "internalType": "address",
              "name": "currency",
              "type": "address"
            },
            {
              "internalType": "uint32",
              "name": "productId",
              "type": "uint32"
            },
            {
              "internalType": "bytes",
              "name": "buyerCustomData",
              "type": "bytes"
            }
          ],
          "internalType": "struct PurchaseParams[]",
          "name": "purchases",
          "type": "tuple[]"
        }
      ],
      "name": "payProducts",
      "outputs": [],
      "stateMutability": "payable",
      "type": "function"
    },
    {
      "inputs": [
        {
          "internalType": "uint256",
          "name": "slicerId",
          "type": "uint256"
        },
        {
          "internalType": "uint32",
          "name": "productId",
          "type": "uint32"
        },
        {
          "internalType": "address",
          "name": "currency",
          "type": "address"
        },
        {
          "internalType": "uint256",
          "name": "quantity",
          "type": "uint256"
        }
      ],
      "name": "productPrice",
      "outputs": [
        {
          "components": [
            {
              "internalType": "uint256",
              "name": "eth",
              "type": "uint256"
            },
            {
              "internalType": "uint256",
              "name": "currency",
              "type": "uint256"
            },
            {
              "internalType": "uint256",
              "name": "ethExternalCall",
              "type": "uint256"
            },
            {
              "internalType": "uint256",
              "name": "currencyExternalCall",
              "type": "uint256"
            }
          ],
          "internalType": "struct Price",
          "name": "price",
          "type": "tuple"
        }
      ],
      "stateMutability": "view",
      "type": "function"
    },
    {
      "inputs": [],
      "name": "proxiableUUID",
      "outputs": [
        {
          "internalType": "bytes32",
          "name": "",
          "type": "bytes32"
        }
      ],
      "stateMutability": "view",
      "type": "function"
    },
    {
      "inputs": [
        {
          "internalType": "uint256",
          "name": "slicerId",
          "type": "uint256"
        }
      ],
      "name": "releaseEthToSlicer",
      "outputs": [],
      "stateMutability": "nonpayable",
      "type": "function"
    },
    {
      "inputs": [
        {
          "internalType": "uint256",
          "name": "slicerId",
          "type": "uint256"
        },
        {
          "internalType": "uint32",
          "name": "productId",
          "type": "uint32"
        }
      ],
      "name": "removeProduct",
      "outputs": [],
      "stateMutability": "nonpayable",
      "type": "function"
    },
    {
      "inputs": [],
      "name": "renounceOwnership",
      "outputs": [],
      "stateMutability": "nonpayable",
      "type": "function"
    },
    {
      "inputs": [
        {
          "internalType": "uint256",
          "name": "slicerId",
          "type": "uint256"
        },
        {
          "internalType": "uint32",
          "name": "productId",
          "type": "uint32"
        },
        {
          "internalType": "uint8",
          "name": "newMaxUnits",
          "type": "uint8"
        },
        {
          "internalType": "bool",
          "name": "isFree",
          "type": "bool"
        },
        {
          "internalType": "bool",
          "name": "isInfinite",
          "type": "bool"
        },
        {
          "internalType": "uint32",
          "name": "newUnits",
          "type": "uint32"
        },
        {
          "components": [
            {
              "internalType": "uint248",
              "name": "value",
              "type": "uint248"
            },
            {
              "internalType": "bool",
              "name": "dynamicPricing",
              "type": "bool"
            },
            {
              "internalType": "address",
              "name": "currency",
              "type": "address"
            }
          ],
          "internalType": "struct CurrencyPrice[]",
          "name": "currencyPrices",
          "type": "tuple[]"
        }
      ],
      "name": "setProductInfo",
      "outputs": [],
      "stateMutability": "nonpayable",
      "type": "function"
    },
    {
      "inputs": [
        {
          "internalType": "address",
          "name": "newOwner",
          "type": "address"
        }
      ],
      "name": "transferOwnership",
      "outputs": [],
      "stateMutability": "nonpayable",
      "type": "function"
    },
    {
      "inputs": [
        {
          "internalType": "address",
          "name": "newImplementation",
          "type": "address"
        }
      ],
      "name": "upgradeTo",
      "outputs": [],
      "stateMutability": "nonpayable",
      "type": "function"
    },
    {
      "inputs": [
        {
          "internalType": "address",
          "name": "newImplementation",
          "type": "address"
        },
        {
          "internalType": "bytes",
          "name": "data",
          "type": "bytes"
        }
      ],
      "name": "upgradeToAndCall",
      "outputs": [],
      "stateMutability": "payable",
      "type": "function"
    },
    {
      "inputs": [
        {
          "internalType": "uint256",
          "name": "slicerId",
          "type": "uint256"
        },
        {
          "internalType": "uint32",
          "name": "productId",
          "type": "uint32"
        }
      ],
      "name": "validatePurchase",
      "outputs": [
        {
          "internalType": "uint256",
          "name": "purchases",
          "type": "uint256"
        },
        {
          "internalType": "bytes",
          "name": "purchaseData",
          "type": "bytes"
        }
      ],
      "stateMutability": "view",
      "type": "function"
    },
    {
      "inputs": [
        {
          "internalType": "address",
          "name": "account",
          "type": "address"
        },
        {
          "internalType": "uint256",
          "name": "slicerId",
          "type": "uint256"
        },
        {
          "internalType": "uint32",
          "name": "productId",
          "type": "uint32"
        }
      ],
      "name": "validatePurchaseUnits",
      "outputs": [
        {
          "internalType": "uint256",
          "name": "purchases",
          "type": "uint256"
        }
      ],
      "stateMutability": "view",
      "type": "function"
    }
  ],
  "bytecode": "0x60a06040523060805234801561001457600080fd5b506080516159656200004d6000396000818161034d0152818161039601528181610deb01528181610e2b0152610ebe01526159656000f3fe6080604052600436106101095760003560e01c8063715018a611610095578063c577233211610064578063c577233214610288578063c993a08d146102a8578063eba31148146102c8578063f2fde38b146102f5578063f9820ba41461031557600080fd5b8063715018a6146102165780638129fc1c1461022b5780638da5cb5b14610240578063bf17f2f21461026857600080fd5b80634f1ef286116100dc5780634f1ef2861461018557806352d1902d1461019857806354ed778b146101c05780635c975abb146101d3578063642d0dfc146101f657600080fd5b80633659cfe61461010e578063376dab391461013057806337fcbc3314610150578063405b4c3614610170575b600080fd5b34801561011a57600080fd5b5061012e610129366004614415565b610343565b005b34801561013c57600080fd5b5061012e61014b36600461447e565b61042b565b34801561015c57600080fd5b5061012e61016b366004614555565b610ad0565b34801561017c57600080fd5b5061012e610d9a565b61012e6101933660046146c5565b610de1565b3480156101a457600080fd5b506101ad610eb1565b6040519081526020015b60405180910390f35b61012e6101ce36600461474e565b610f64565b3480156101df57600080fd5b5060c95460ff1660405190151581526020016101b7565b34801561020257600080fd5b5061012e610211366004614a8c565b611015565b34801561022257600080fd5b5061012e611c9c565b34801561023757600080fd5b5061012e611cd0565b34801561024c57600080fd5b506097546040516001600160a01b0390911681526020016101b7565b34801561027457600080fd5b506101ad610283366004614bfb565b611d90565b34801561029457600080fd5b506101ad6102a3366004614c14565b611dcd565b3480156102b457600080fd5b5061012e6102c3366004614bfb565b611e0e565b3480156102d457600080fd5b506102e86102e3366004614c52565b611e91565b6040516101b79190614c98565b34801561030157600080fd5b5061012e610310366004614415565b611ef3565b34801561032157600080fd5b50610335610330366004614555565b611f8b565b6040516101b7929190614d1b565b6001600160a01b037f00000000000000000000000000000000000000000000000000000000000000001630036103945760405162461bcd60e51b815260040161038b90614d34565b60405180910390fd5b7f00000000000000000000000000000000000000000000000000000000000000006001600160a01b03166103dd6000805160206158c9833981519152546001600160a01b031690565b6001600160a01b0316146104035760405162461bcd60e51b815260040161038b90614d80565b61040c816120eb565b6040805160008082526020820190925261042891839190612115565b50565b600088815260fb60209081526040808320600381015463ffffffff8c16855260019091019092529091206001600160a01b0390911690819061046d8183612280565b83156108f65760088101546201518064ffffffffff600160a01b909204821601164210156104ae57604051636fed7d8560e01b815260040160405180910390fd5b60088101805464ffffffffff60a01b1916600160a01b4264ffffffffff160217905560005b848110156108f45760008686838181106104ef576104ef614dcc565b90506060020160400160208101906105079190614415565b6001600160a01b03161415801561056457507356639db16ac50a89228026e42a316b30179a537686868381811061054057610540614dcc565b90506060020160400160208101906105589190614415565b6001600160a01b031614155b1561062757826001600160a01b031663b25e9c3987878481811061058a5761058a614dcc565b90506060020160400160208101906105a29190614415565b6040516001600160e01b031960e084901b1681526001600160a01b039091166004820152602401602060405180830381865afa1580156105e6573d6000803e3d6000fd5b505050506040513d601f19601f8201168201806040525081019061060a9190614de2565b61062757604051630b27db6160e11b815260040160405180910390fd5b81600101600087878481811061063f5761063f614dcc565b90506060020160400160208101906106579190614415565b6001600160a01b031681526020810191909152604001600020546001600160f81b031686868381811061068c5761068c614dcc565b6106a29260206060909202019081019150614dff565b6001600160f81b031614610740578585828181106106c2576106c2614dcc565b6106d89260206060909202019081019150614dff565b8260010160008888858181106106f0576106f0614dcc565b90506060020160400160208101906107089190614415565b6001600160a01b03168152602081019190915260400160002080546001600160f81b0319166001600160f81b03929092169190911790555b81600101600087878481811061075857610758614dcc565b90506060020160400160208101906107709190614415565b6001600160a01b03168152602081019190915260400160002054600160f81b900460ff1615158686838181106107a8576107a8614dcc565b90506060020160200160208101906107c09190614e1a565b1515146108ec5760008686838181106107db576107db614dcc565b90506060020160400160208101906107f39190614415565b6001600160a01b03161461085c57600061083587878481811061081857610818614dcc565b90506060020160400160208101906108309190614415565b6123b0565b6001600160a01b03160361085c57604051632b9bb16560e11b815260040160405180910390fd5b85858281811061086e5761086e614dcc565b90506060020160200160208101906108869190614e1a565b82600101600088888581811061089e5761089e614dcc565b90506060020160400160208101906108b69190614415565b6001600160a01b0316815260208101919091526040016000208054911515600160f81b026001600160f81b039092169190911790555b6001016104d3565b505b6109098b84898963ffffffff1685612501565b878015610925575060088101546001600160f01b909104811614155b8061094657508715801561094657506008810154600160f01b900460011615155b156109715760088101805460ff600160f01b80830482166001189091160260ff60f01b199091161790555b86801561098f57506008810154600160f01b9004600190811c811614155b806109b35750861580156109b357506008810154600160f01b9004600190811c1615155b156109de5760088101805460ff600160f01b80830482166002189091160260ff60f01b199091161790555b600881015460ff8a8116600160e81b9092041614610a115760088101805460ff60e81b1916600160e81b60ff8c16021790555b8615610a2e5760088101805463ffffffff60c81b19169055610a6a565b600881015463ffffffff878116600160c81b9092041614610a6a5760088101805463ffffffff60c81b1916600160c81b63ffffffff8916021790555b600881015460405163ffffffff808d16928e927f4cc6ba108a00a1be4dd5e4ad63e0a06ef9035bb73b84634f4d44319190af5a7e92610abb928f928f928f92600160c81b900416908d908d90614e37565b60405180910390a35050505050505050505050565b600082815260fb60209081526040808320600381015463ffffffff8616855260019091019092529091206001600160a01b03909116908190610b128183612280565b60058101546001600160a01b03808516911603610d3857600080826003016000018054610b3e90614ee3565b80601f0160208091040260200160405190810160405280929190818152602001828054610b6a90614ee3565b8015610bb75780601f10610b8c57610100808354040283529160200191610bb7565b820191906000526020600020905b815481529060010190602001808311610b9a57829003601f168201915b5050505050806020019051810190610bcf9190614f1d565b600585015491935091506302868bf960e11b600160c01b90910460e01b6001600160e01b03191601610c6a57600087815260fc602090815260408083206001600160a01b0386168085529083528184208585528352818420805460ff191690559051928352839290918a917f76529e1c5add2962fbfae2a36bbcf688a5c01516b043ad429f1d81830687a2db910160405180910390a4610d35565b600583015462fc808960e71b600160c01b90910460e01b6001600160e01b03191601610d35576008830154600088815260fd602090815260408083206001600160a01b0387168452825280832085845290915281208054600160c81b90930463ffffffff1692909190610cde908490614f61565b9091555050600087815260fd602090815260408083206001600160a01b0386168085529083528184208585528352928190205490519081528392918a91600080516020615910833981519152910160405180910390a45b50505b600881018054600168ffffffff000000000160a01b0319169055610d6060068201600061432d565b60405163ffffffff85169086907fd647384cccbd8b477a7b02b9e866072937e9a23b473b9de13fc0c6cb1d392a0a90600090a35050505050565b6097546001600160a01b03163314610dc45760405162461bcd60e51b815260040161038b90614f78565b60c95460ff1615610dd957610dd76127d4565b565b610dd7612867565b6001600160a01b037f0000000000000000000000000000000000000000000000000000000000000000163003610e295760405162461bcd60e51b815260040161038b90614d34565b7f00000000000000000000000000000000000000000000000000000000000000006001600160a01b0316610e726000805160206158c9833981519152546001600160a01b031690565b6001600160a01b031614610e985760405162461bcd60e51b815260040161038b90614d80565b610ea1826120eb565b610ead82826001612115565b5050565b6000306001600160a01b037f00000000000000000000000000000000000000000000000000000000000000001614610f515760405162461bcd60e51b815260206004820152603860248201527f555550535570677261646561626c653a206d757374206e6f742062652063616c60448201527f6c6564207468726f7567682064656c656761746563616c6c0000000000000000606482015260840161038b565b506000805160206158c983398151915290565b60c95460ff1615610faa5760405162461bcd60e51b815260206004820152601060248201526f14185d5cd8589b194e881c185d5cd95960821b604482015260640161038b565b6000805b8251811015610fee57610fda84848381518110610fcd57610fcd614dcc565b60200260200101516128e2565b610fe49083614fad565b9150600101610fae565b50803410156110105760405163cd1c886760e01b815260040160405180910390fd5b505050565b600083815260fb6020526040902080546001019081905563ffffffff81111561105157604051636dac6a0960e01b815260040160405180910390fd5b8060010361119b57604051630bafd3f560e11b81526004810185905260009073e7f1725e7734ce288f8367e1bb143e90bb3f05129063175fa7ea90602401602060405180830381865afa1580156110ac573d6000803e3d6000fd5b505050506040513d601f19601f820116820180604052508101906110d09190614fc5565b6001600160a01b0316036110f757604051636dac6a0960e01b815260040160405180910390fd5b604051630bafd3f560e11b81526004810185905273e7f1725e7734ce288f8367e1bb143e90bb3f05129063175fa7ea90602401602060405180830381865afa158015611147573d6000803e3d6000fd5b505050506040513d601f19601f8201168201806040525081019061116b9190614fc5565b600085815260fb6020526040902060030180546001600160a01b0319166001600160a01b03929092169190911790555b600084815260fb60205260409081902060030154905163166eb15b60e21b81523360048201526001600160a01b039091169081906359bac56c90602401602060405180830381865afa1580156111f5573d6000803e3d6000fd5b505050506040513d601f19601f820116820180604052508101906112199190614de2565b6112365760405163ea8e4eb560e01b815260040160405180910390fd5b600085815260fb6020908152604080832063ffffffff8616845260010190915290208451511561135f5760005b85515181101561135d576112ed60fb60008860000151848151811061128a5761128a614dcc565b6020026020010151600001516001600160801b031681526020019081526020016000206001016000886000015184815181106112c8576112c8614dcc565b60200260200101516020015163ffffffff1681526020019081526020016000206133b5565b816002018660000151828151811061130757611307614dcc565b602090810291909101810151825460018181018555600094855293839020825191018054929093015163ffffffff16600160801b026001600160a01b03199092166001600160801b039091161717905501611263565b505b602085015151156116435760005b8560200151518110156116415760006001600160a01b03168660200151828151811061139b5761139b614dcc565b6020026020010151604001516001600160a01b03161415801561140557507356639db16ac50a89228026e42a316b30179a53766001600160a01b0316866020015182815181106113ed576113ed614dcc565b6020026020010151604001516001600160a01b031614155b80156114ab5750826001600160a01b031663b25e9c398760200151838151811061143157611431614dcc565b6020026020010151604001516040518263ffffffff1660e01b815260040161146891906001600160a01b0391909116815260200190565b602060405180830381865afa158015611485573d6000803e3d6000fd5b505050506040513d601f19601f820116820180604052508101906114a99190614de2565b155b156114c957604051630b27db6160e11b815260040160405180910390fd5b856020015181815181106114df576114df614dcc565b6020026020010151600001516001600160f81b031660001461158d578560200151818151811061151157611511614dcc565b6020026020010151600001518260010160008860200151848151811061153957611539614dcc565b6020026020010151604001516001600160a01b03166001600160a01b0316815260200190815260200160002060000160006101000a8154816001600160f81b0302191690836001600160f81b031602179055505b856020015181815181106115a3576115a3614dcc565b6020026020010151602001511561163957856020015181815181106115ca576115ca614dcc565b602002602001015160200151826001016000886020015184815181106115f2576115f2614dcc565b6020026020010151604001516001600160a01b03166001600160a01b03168152602001908152602001600020600001601f6101000a81548160ff0219169083151502179055505b60010161136d565b505b60408401516001600160a01b031615611b3257816001600160a01b031684604001516001600160a01b0316036119d357600080856000015180602001905181019061168e9190614f1d565b608088015191935091506001600160e01b0319166302868bf960e11b0161183c57866080015163ffffffff1660011415806116d157508660a0015160ff16600114155b806116dd57508660e001515b8061175d57506040516331a9108f60e11b8152600481018290526001600160a01b038086169190841690636352211e90602401602060405180830381865afa15801561172d573d6000803e3d6000fd5b505050506040513d601f19601f820116820180604052508101906117519190614fc5565b6001600160a01b031614155b1561177b5760405163ea8e4eb560e01b815260040160405180910390fd5b600088815260fc602090815260408083206001600160a01b0386168452825280832084845290915290205460ff16156117c7576040516319e7a92b60e31b815260040160405180910390fd5b600088815260fc602090815260408083206001600160a01b038616808552908352818420858552835292819020805460ff1916600190811790915590519081528392918b917f76529e1c5add2962fbfae2a36bbcf688a5c01516b043ad429f1d81830687a2db910160405180910390a46119d0565b60808601516001600160e01b03191662fc808960e71b016119d0578660e00151806119135750604051627eeac760e11b81526001600160a01b0385811660048301526024820183905283169062fdd58e90604401602060405180830381865afa1580156118ad573d6000803e3d6000fd5b505050506040513d601f19601f820116820180604052508101906118d19190614fe2565b600089815260fd602090815260408083206001600160a01b038716845282528083208584529091529020546080890151611911919063ffffffff16614fad565b115b1561193157604051636dac6a0960e01b815260040160405180910390fd5b6080870151600089815260fd602090815260408083206001600160a01b038716845282528083208584529091528120805463ffffffff90931692909190611979908490614fad565b9091555050600088815260fd602090815260408083206001600160a01b0386168085529083528184208585528352928190205490519081528392918b91600080516020615910833981519152910160405180910390a45b50505b60408401516005820180546001600160a01b0319166001600160a01b0390921691909117905560808401516001600160e01b03191615611a7457608084015160058201805460e09290921c600160c01b0263ffffffff60c01b1990921691909117905560608401516001600160e01b03191615611a7457606084015160058201805460e09290921c600160a01b0263ffffffff60a01b199092169190911790555b83515115611a965783518051611a94916003840191602090910190614367565b505b602084015115611aab57602084015160048201555b84610120015115611ada5760088101805460ff60f01b1981166004600160f01b9283900460ff16179091021790555b84610100015115611b325761271084602001511115611b0c57604051633806212b60e21b815260040160405180910390fd5b6008818101805460ff60f01b198116600160f01b9182900460ff16909317029190911790555b6008810180546001600160a01b0319163317905560c085015115611b745760088101805460ff60f01b1981166001600160f01b9283900460ff16179091021790555b60a085015160ff1615611ba75760a085015160088201805460ff909216600160e81b0260ff60e81b199092169190911790555b8460e0015115611bd95760088101805460ff60f01b1981166002600160f01b9283900460ff1617909102179055611c05565b608085015160088201805463ffffffff909216600160c81b0263ffffffff60c81b199092169190911790555b60408501515115611c2d5760408501518051611c2b916006840191602090910190614367565b505b60608501515115611c555760608501518051611c53916007840191602090910190614367565b505b600083877fc353bc3081e561101327852116c925781611933382625bd4c443ca5047c86ec7338989604051611c8c9392919061510b565b60405180910390a4505050505050565b6097546001600160a01b03163314611cc65760405162461bcd60e51b815260040161038b90614f78565b610dd760006133e0565b600054610100900460ff16611ceb5760005460ff1615611cef565b303b155b611d525760405162461bcd60e51b815260206004820152602e60248201527f496e697469616c697a61626c653a20636f6e747261637420697320616c72656160448201526d191e481a5b9a5d1a585b1a5e995960921b606482015260840161038b565b600054610100900460ff16158015611d74576000805461ffff19166101011790555b611d7c613432565b8015610428576000805461ff001916905550565b600081815260fb6020526040812060020154600110611db0576000611dc7565b600082815260fb6020526040902060020154600019015b92915050565b600082815260fb6020908152604080832063ffffffff8086168552600190910183528184206001600160a01b038816855290925290912054165b9392505050565b6000611e1982611d90565b90508015610ead57600082815260fb60205260409020600381015460016002909201919091556001600160a01b0316611e528183613461565b827f04cc711f7db61e897a32f3fe3e3faa9861b68d7d19fd9a669348213087b2272683604051611e8491815260200190565b60405180910390a2505050565b611ebc6040518060800160405280600081526020016000815260200160008152602001600081525090565b600085815260fb6020908152604080832063ffffffff881684526001019091529020611ee98185856134b2565b9695505050505050565b6097546001600160a01b03163314611f1d5760405162461bcd60e51b815260040161038b90614f78565b6001600160a01b038116611f825760405162461bcd60e51b815260206004820152602660248201527f4f776e61626c653a206e6577206f776e657220697320746865207a65726f206160448201526564647265737360d01b606482015260840161038b565b610428816133e0565b6000606030739fe46736679d2d9a65f0992f2272de9f3c7fa6e014611fc35760405163acbcffa760e01b815260040160405180910390fd5b600084815260fb6020908152604080832063ffffffff808816855260019091018352818420338552909252822054169003612011576040516363aae7a360e01b815260040160405180910390fd5b600084815260fb6020908152604080832063ffffffff80881680865260019092018085528386203387528086529386205492909552939092526007018054919092169190819061206090614ee3565b80601f016020809104026020016040519081016040528092919081815260200182805461208c90614ee3565b80156120d95780601f106120ae576101008083540402835291602001916120d9565b820191906000526020600020905b8154815290600101906020018083116120bc57829003601f168201915b50505050509050915091509250929050565b6097546001600160a01b031633146104285760405162461bcd60e51b815260040161038b90614f78565b7f4910fdfa16fed3260ed0e7147f7cc6da11a60208b5b9406d12a635614ffd91435460ff16156121485761101083613813565b826001600160a01b03166352d1902d6040518163ffffffff1660e01b8152600401602060405180830381865afa9250505080156121a2575060408051601f3d908101601f1916820190925261219f91810190614fe2565b60015b6122055760405162461bcd60e51b815260206004820152602e60248201527f45524331393637557067726164653a206e657720696d706c656d656e7461746960448201526d6f6e206973206e6f74205555505360901b606482015260840161038b565b6000805160206158c983398151915281146122745760405162461bcd60e51b815260206004820152602960248201527f45524331393637557067726164653a20756e737570706f727465642070726f786044820152681a58589b195555525160ba1b606482015260840161038b565b506110108383836138af565b612289826133b5565b600882015460405163166eb15b60e21b81526001600160a01b039182166004820152908216906359bac56c90602401602060405180830381865afa1580156122d5573d6000803e3d6000fd5b505050506040513d601f19601f820116820180604052508101906122f99190614de2565b1561232b5760088201546001600160a01b03163314610ead5760405163ea8e4eb560e01b815260040160405180910390fd5b60405163166eb15b60e21b81523360048201526001600160a01b038216906359bac56c90602401602060405180830381865afa15801561236f573d6000803e3d6000fd5b505050506040513d601f19601f820116820180604052508101906123939190614de2565b610ead5760405163ea8e4eb560e01b815260040160405180910390fd5b604051630b4c774160e11b81526001600160a01b038216600482015273c778417e063141139fce010982780140aa0cd5ab6024820152610bb860448201526000908190731f98431c8ad98523631ae4a59f267346ea31f98490631698ee8290606401602060405180830381865afa15801561242f573d6000803e3d6000fd5b505050506040513d601f19601f820116820180604052508101906124539190614fc5565b90506001600160a01b038116611dc757604051630b4c774160e11b81526001600160a01b038416600482015273c778417e063141139fce010982780140aa0cd5ab60248201526127106044820152731f98431c8ad98523631ae4a59f267346ea31f98490631698ee8290606401602060405180830381865afa1580156124dd573d6000803e3d6000fd5b505050506040513d601f19601f82011682018060405250810190611e079190614fc5565b60058101546001600160a01b038086169116036127cd5760008082600301600001805461252d90614ee3565b80601f016020809104026020016040519081016040528092919081815260200182805461255990614ee3565b80156125a65780601f1061257b576101008083540402835291602001916125a6565b820191906000526020600020905b81548152906001019060200180831161258957829003601f168201915b50505050508060200190518101906125be9190614f1d565b600585015491935091506302868bf960e11b600160c01b90910460e01b6001600160e01b0319160161262a576008830154600160c81b900463ffffffff16841415806126075750845b1561262557604051636dac6a0960e01b815260040160405180910390fd5b6127ca565b600583015462fc808960e71b600160c01b90910460e01b6001600160e01b031916016127ca57841561266f57604051636dac6a0960e01b815260040160405180910390fd5b6008830154600160c81b900463ffffffff1684146127ca57604051627eeac760e11b81526001600160a01b038781166004830152602482018390526000919084169062fdd58e90604401602060405180830381865afa1580156126d6573d6000803e3d6000fd5b505050506040513d601f19601f820116820180604052508101906126fa9190614fe2565b600885015460008a815260fd602090815260408083206001600160a01b0389168452825280832087845290915281205492935091600160c81b90910463ffffffff1690612748908890614fad565b6127529190614f61565b90508181111561277557604051636dac6a0960e01b815260040160405180910390fd5b600089815260fd602090815260408083206001600160a01b038816808552908352818420878552835292819020849055518381528592918c91600080516020615910833981519152910160405180910390a450505b50505b5050505050565b60c95460ff1661281d5760405162461bcd60e51b815260206004820152601460248201527314185d5cd8589b194e881b9bdd081c185d5cd95960621b604482015260640161038b565b60c9805460ff191690557f5db9ee0a495bf2e6ff9c91a7834c1ba4fdd244a5e8aa4e537bd38aeae4b073aa335b6040516001600160a01b03909116815260200160405180910390a1565b60c95460ff16156128ad5760405162461bcd60e51b815260206004820152601060248201526f14185d5cd8589b194e881c185d5cd95960821b604482015260640161038b565b60c9805460ff191660011790557f62e78cea01bee320cd4e420270b5ea74000d11b0c9f74754ebdbfc544b05a25861284a3390565b6000816020015163ffffffff16600014611dc75781516001600160801b0316600090815260fb60209081526040808320606086015163ffffffff9081168552600190910183528184209186015192860151919392612942928592166134b2565b84516001600160801b0316600090815260fb602052604090206003015460088401549192506001600160a01b031690600160e81b900460ff16156129e55760088301546020868101516001600160a01b038916600090815291869052604090912054600160e81b90920460ff16916129c0919063ffffffff16615210565b63ffffffff1611156129e557604051636dac6a0960e01b815260040160405180910390fd5b6008830154600160f01b9004600190811c16600003612a6d576008830154602086015163ffffffff600160c81b909204821691161115612a3857604051636dac6a0960e01b815260040160405180910390fd5b602085015160088401805463ffffffff600160c81b8083048216949094031690920263ffffffff60c81b199092169190911790555b60408201518251612a7e9190614fad565b825186516001600160801b0316600090815260fb6020526040812060020180549397509192612aae908490614fad565b90915550506020808601516001600160a01b03881660009081529185905260408220805491929091612ae790849063ffffffff16615210565b92506101000a81548163ffffffff021916908363ffffffff1602179055508160200151600014612b9957604080860151602084015191516323b872dd60e01b81526001600160a01b038981166004830152848116602483015260448201939093529116906323b872dd906064016020604051808303816000875af1158015612b73573d6000803e3d6000fd5b505050506040513d601f19601f82011682018060405250810190612b979190614de2565b505b600283015415612c6a5760005b6002840154811015612c6857612c54876040518060a00160405280876002018581548110612bd657612bd6614dcc565b600091825260209182902001546001600160801b031682528a81015163ffffffff16908201526040808b01516001600160a01b03169082015260028801805460609092019186908110612c2b57612c2b614dcc565b60009182526020918290200154600160801b900463ffffffff16825260808b01519101526128e2565b612c5e9086614fad565b9450600101612ba6565b505b60058301546001600160a01b031615613346576005830154600090600160c01b900460e01b6001600160e01b031916156130ac5760058401546001600160a01b03808416911603612fd357600080856003016000018054612cca90614ee3565b80601f0160208091040260200160405190810160405280929190818152602001828054612cf690614ee3565b8015612d435780601f10612d1857610100808354040283529160200191612d43565b820191906000526020600020905b815481529060010190602001808311612d2657829003601f168201915b5050505050806020019051810190612d5b9190614f1d565b600588015491935091506302868bf960e11b600160c01b90910460e01b6001600160e01b03191601612e745760405163ce55982b60e01b81526001600160a01b038a8116600483015283811660248301526044820183905285169063ce55982b90606401600060405180830381600087803b158015612dd957600080fd5b505af1158015612ded573d6000803e3d6000fd5b505089516001600160801b03908116600090815260fc602090815260408083206001600160a01b0389168085529083528184208885528352818420805460ff191690558e519151938452600199508796509450909216917f76529e1c5add2962fbfae2a36bbcf688a5c01516b043ad429f1d81830687a2db910160405180910390a4612fcc565b600586015462fc808960e71b600160c01b90910460e01b6001600160e01b03191601612fcc57602088015160405163296789eb60e11b81526001600160a01b038b81166004830152848116602483015263ffffffff909216604482015260648101839052908516906352cf13d690608401600060405180830381600087803b158015612eff57600080fd5b505af1158015612f13573d6000803e3d6000fd5b5050506020808a01518a516001600160801b0316600090815260fd835260408082206001600160a01b03881683528452808220868352909352918220805463ffffffff90921693509190612f68908490614f61565b909155505087516001600160801b0316600081815260fd602090815260408083206001600160a01b03871680855290835281842086855283529281902054905190815260019650849391600080516020615910833981519152910160405180910390a45b5050613326565b6005840154604080850151885160608a015160208b015160808c015194516001600160a01b038716969495600160c01b90950460e01b946130219493928f92909160038e0191602401615238565b60408051601f198184030181529181526020820180516001600160e01b03166001600160e01b031990941693909317909252905161305f919061532e565b60006040518083038185875af1925050503d806000811461309c576040519150601f19603f3d011682016040523d82523d6000602084013e6130a1565b606091505b505080915050613326565b6060830151156132025773cf7ed3acca5a467e9e704c703e8d87f634fb0fc96001600160a01b03166359fc470a87600001518660030160020160009054906101000a90046001600160a01b0316896040015187606001516103e8886001600160a01b031663ced72f876040518163ffffffff1660e01b8152600401602060405180830381865afa158015613144573d6000803e3d6000fd5b505050506040513d601f19601f820116820180604052508101906131689190614fe2565b8a60600151613177919061534a565b613181919061537f565b6040516001600160e01b031960e088901b1681526001600160801b0390951660048601526001600160a01b0393841660248601529290911660448401526064830152608482015260a401600060405180830381600087803b1580156131e557600080fd5b505af11580156131f9573d6000803e3d6000fd5b50505050613322565b73cf7ed3acca5a467e9e704c703e8d87f634fb0fc96001600160a01b03166339ed512384604001518660030160020160009054906101000a90046001600160a01b03166103e8866001600160a01b031663ced72f876040518163ffffffff1660e01b8152600401602060405180830381865afa158015613286573d6000803e3d6000fd5b505050506040513d601f19601f820116820180604052508101906132aa9190614fe2565b88604001516132b9919061534a565b6132c3919061537f565b6040516001600160e01b031960e086901b1681526001600160a01b03909216600483015260248201526044016000604051808303818588803b15801561330857600080fd5b505af115801561331c573d6000803e3d6000fd5b50505050505b5060015b806133445760405163af6eefa360e01b815260040160405180910390fd5b505b856001600160a01b0316856060015163ffffffff1686600001516001600160801b03167fb5fcbfbc97629da9c45f418c65a8ed3e96873f8e54c6c435180455987431e7a088602001518960400151876040516133a493929190615393565b60405180910390a450505092915050565b60088101546001600160a01b0316610428576040516329c2f8dd60e11b815260040160405180910390fd5b609780546001600160a01b038381166001600160a01b0319831681179093556040519116919082907f8be0079c531659141344cd1fd0a4f28419497f9722a3daafe3b4186f6b6457e090600090a35050565b600054610100900460ff166134595760405162461bcd60e51b815260040161038b906153dd565b610dd76138da565b600080600080600085875af19050806110105760405162461bcd60e51b815260206004820152601360248201527211551217d514905394d1915497d19052531151606a1b604482015260640161038b565b6134dd6040518060800160405280600081526020016000815260200160008152602001600081525090565b6134e6846133b5565b6001600160a01b03831661350f57816134fe8561390a565b613508919061534a565b81526136d5565b6001600160a01b0383166000908152600185016020526040902054600160f81b900460ff161561365c5760008080526001850160205260409020546001600160f81b031615158061358257506001600160a01b03831660009081526001850160205260409020546001600160f81b031615155b15613628576001600160a01b03831660009081526001850160205260408120546001600160f81b031681036135bf576135ba8561390a565b6135e4565b6001600160a01b03841660009081526001860160205260409020546001600160f81b03165b9050826135f3858360646139e2565b6135fd919061534a565b6020830181905260000361362257826136158661390a565b61361f919061534a565b82525b506136d5565b6008840154600160f01b900460011660000361365757604051630b27db6160e11b815260040160405180910390fd5b6136d5565b6001600160a01b03831660009081526001850160205260409020546001600160f81b0316156136be576001600160a01b03831660009081526001850160205260409020546136b49083906001600160f81b031661534a565b60208201526136d5565b816136c88561390a565b6136d2919061534a565b81525b600484015415611e07576008840154600160f01b900460031c60011615801561376d576008850154600160f01b900460021c6001161580159061375157826020015160000361373757604051630b27db6160e11b815260040160405180910390fd5b600486015461374790859061534a565b6060840152613767565b600486015461376190859061534a565b60408401525b5061380b565b6020820151156137c6578261271086600301600101548460200151613792919061534a565b61379c919061537f565b6137a6919061534a565b606083018190526020830180516137be908390614f61565b90525061380b565b600485015482518491612710916137dd919061534a565b6137e7919061537f565b6137f1919061534a565b6040830181905282518390613807908390614f61565b9052505b509392505050565b6001600160a01b0381163b6138805760405162461bcd60e51b815260206004820152602d60248201527f455243313936373a206e657720696d706c656d656e746174696f6e206973206e60448201526c1bdd08184818dbdb9d1c9858dd609a1b606482015260840161038b565b6000805160206158c983398151915280546001600160a01b0319166001600160a01b0392909216919091179055565b6138b883613d28565b6000825111806138c55750805b15611010576138d48383613d68565b50505050565b600054610100900460ff166139015760405162461bcd60e51b815260040161038b906153dd565b610dd7336133e0565b60008080526001820160205260408120546001600160f81b031615801561393d57506008820154600160f01b9004600116155b1561395b57604051630b27db6160e11b815260040160405180910390fd5b6000808052600183016020526040902054600160f81b900460ff166139995760008080526001830160205260409020546001600160f81b0316611dc7565b6139a1613e5c565b60008080526001840160205260409020546139cf906001600160f81b031669d3c21bcecceda1000000615428565b6001600160f81b0316611dc7919061537f565b6000806139ee856123b0565b90506001600160a01b03811615613d1e576000856001600160a01b031663313ce5676040518163ffffffff1660e01b8152600401602060405180830381865afa158015613a3f573d6000803e3d6000fd5b505050506040513d601f19601f82011682018060405250810190613a639190615457565b60ff16905060008460010b600003613af057826001600160a01b0316633850c7bd6040518163ffffffff1660e01b815260040160e060405180830381865afa158015613ab3573d6000803e3d6000fd5b505050506040513d601f19601f82011682018060405250810190613ad79190615486565b50506001600160a01b039094169450613c199350505050565b6040805160028082526060820183526000926020830190803683370190505090508561ffff1681600081518110613b2957613b29614dcc565b63ffffffff9092166020928302919091019091015260405163883bdbfd60e01b81526000906001600160a01b0386169063883bdbfd90613b6d90859060040161551f565b600060405180830381865afa158015613b8a573d6000803e3d6000fd5b505050506040513d6000823e601f3d908101601f19168201604052613bb291908101906155cd565b509050613c0b8760010b82600081518110613bcf57613bcf614dcc565b602002602001015183600181518110613bea57613bea614dcc565b6020026020010151613bfc919061568e565b613c0691906156de565b613ee0565b6001600160a01b0316925050505b600060026060613c2d84633b9aca0061534a565b613c3892911c615800565b9050876001600160a01b0316846001600160a01b0316630dfe16816040518163ffffffff1660e01b8152600401602060405180830381865afa158015613c82573d6000803e3d6000fd5b505050506040513d601f19601f82011682018060405250810190613ca69190614fc5565b6001600160a01b031614613cf257613cbf836018614f61565b613cca90600a61580f565b613cd964e8d4a510008961537f565b613ce3908361534a565b613ced919061537f565b613d13565b8087613cff85600a61580f565b613d09919061534a565b613d13919061537f565b945050505050611e07565b6000915050611e07565b613d3181613813565b6040516001600160a01b038216907fbc7cd75a20ee27fd9adebab32041f755214dbc6bffa90cc0225b39da2e5c2d3b90600090a250565b60606001600160a01b0383163b613dd05760405162461bcd60e51b815260206004820152602660248201527f416464726573733a2064656c65676174652063616c6c20746f206e6f6e2d636f6044820152651b9d1c9858dd60d21b606482015260840161038b565b600080846001600160a01b031684604051613deb919061532e565b600060405180830381855af49150503d8060008114613e26576040519150601f19603f3d011682016040523d82523d6000602084013e613e2b565b606091505b5091509150613e5382826040518060600160405280602781526020016158e9602791396142f4565b95945050505050565b600080738a753747a1fa494ec906ce90e9f37563a8af630e6001600160a01b031663feaf968c6040518163ffffffff1660e01b815260040160a060405180830381865afa158015613eb1573d6000803e3d6000fd5b505050506040513d601f19601f82011682018060405250810190613ed59190615835565b509195945050505050565b60008060008360020b12613ef7578260020b613f04565b8260020b613f0490615885565b9050620d89e8811115613f3d5760405162461bcd60e51b81526020600482015260016024820152601560fa1b604482015260640161038b565b600081600116600003613f5457600160801b613f66565b6ffffcb933bd6fad37aa2d162d1a5940015b70ffffffffffffffffffffffffffffffffff1690506002821615613fa5576080613fa0826ffff97272373d413259a46990580e213a61534a565b901c90505b6004821615613fcf576080613fca826ffff2e50f5f656932ef12357cf3c7fdcc61534a565b901c90505b6008821615613ff9576080613ff4826fffe5caca7e10e4e61c3624eaa0941cd061534a565b901c90505b601082161561402357608061401e826fffcb9843d60f6159c9db58835c92664461534a565b901c90505b602082161561404d576080614048826fff973b41fa98c081472e6896dfb254c061534a565b901c90505b6040821615614077576080614072826fff2ea16466c96a3843ec78b326b5286161534a565b901c90505b60808216156140a157608061409c826ffe5dee046a99a2a811c461f1969c305361534a565b901c90505b6101008216156140cc5760806140c7826ffcbe86c7900a88aedcffc83b479aa3a461534a565b901c90505b6102008216156140f75760806140f2826ff987a7253ac413176f2b074cf7815e5461534a565b901c90505b61040082161561412257608061411d826ff3392b0822b70005940c7a398e4b70f361534a565b901c90505b61080082161561414d576080614148826fe7159475a2c29b7443b29c7fa6e889d961534a565b901c90505b611000821615614178576080614173826fd097f3bdfd2022b8845ad8f792aa582561534a565b901c90505b6120008216156141a357608061419e826fa9f746462d870fdf8a65dc1f90e061e561534a565b901c90505b6140008216156141ce5760806141c9826f70d869a156d2a1b890bb3df62baf32f761534a565b901c90505b6180008216156141f95760806141f4826f31be135f97d08fd981231505542fcfa661534a565b901c90505b62010000821615614225576080614220826f09aa508b5b7a84e1c677de54f3e99bc961534a565b901c90505b6202000082161561425057608061424b826e5d6af8dedb81196699c329225ee60461534a565b901c90505b6204000082161561427a576080614275826d2216e584f5fa1ea926041bedfe9861534a565b901c90505b620800008216156142a257608061429d826b048a170391f7dc42444e8fa261534a565b901c90505b60008460020b13156142bd576142ba8160001961537f565b90505b6142cc640100000000826158a1565b156142d85760016142db565b60005b6142ec9060ff16602083901c614fad565b949350505050565b60608315614303575081611e07565b8251156143135782518084602001fd5b8160405162461bcd60e51b815260040161038b91906158b5565b50805461433990614ee3565b6000825580601f10614349575050565b601f01602090049060005260206000209081019061042891906143eb565b82805461437390614ee3565b90600052602060002090601f01602090048101928261439557600085556143db565b82601f106143ae57805160ff19168380011785556143db565b828001600101855582156143db579182015b828111156143db5782518255916020019190600101906143c0565b506143e79291506143eb565b5090565b5b808211156143e757600081556001016143ec565b6001600160a01b038116811461042857600080fd5b60006020828403121561442757600080fd5b8135611e0781614400565b803563ffffffff8116811461444657600080fd5b919050565b60ff8116811461042857600080fd5b80356144468161444b565b801515811461042857600080fd5b803561444681614465565b60008060008060008060008060e0898b03121561449a57600080fd5b883597506144aa60208a01614432565b965060408901356144ba8161444b565b955060608901356144ca81614465565b945060808901356144da81614465565b93506144e860a08a01614432565b925060c08901356001600160401b038082111561450457600080fd5b818b0191508b601f83011261451857600080fd5b81358181111561452757600080fd5b8c602060608302850101111561453c57600080fd5b6020830194508093505050509295985092959890939650565b6000806040838503121561456857600080fd5b8235915061457860208401614432565b90509250929050565b634e487b7160e01b600052604160045260246000fd5b60405160a081016001600160401b03811182821017156145b9576145b9614581565b60405290565b604080519081016001600160401b03811182821017156145b9576145b9614581565b604051606081016001600160401b03811182821017156145b9576145b9614581565b60405161014081016001600160401b03811182821017156145b9576145b9614581565b604051601f8201601f191681016001600160401b038111828210171561464e5761464e614581565b604052919050565b600082601f83011261466757600080fd5b81356001600160401b0381111561468057614680614581565b614693601f8201601f1916602001614626565b8181528460208386010111156146a857600080fd5b816020850160208301376000918101602001919091529392505050565b600080604083850312156146d857600080fd5b82356146e381614400565b915060208301356001600160401b038111156146fe57600080fd5b61470a85828601614656565b9150509250929050565b60006001600160401b0382111561472d5761472d614581565b5060051b60200190565b80356001600160801b038116811461444657600080fd5b6000806040838503121561476157600080fd5b823561476c81614400565b91506020838101356001600160401b038082111561478957600080fd5b818601915086601f83011261479d57600080fd5b81356147b06147ab82614714565b614626565b81815260059190911b830184019084810190898311156147cf57600080fd5b8585015b83811015614881578035858111156147ea57600080fd5b860160a0818d03601f190112156148015760008081fd5b614809614597565b614814898301614737565b815261482260408301614432565b8982015260608083013561483581614400565b60408301526080614847848201614432565b8284015260a08401359150888211156148605760008081fd5b61486e8f8c84870101614656565b90830152508452509186019186016147d3565b508096505050505050509250929050565b600082601f8301126148a357600080fd5b813560206148b36147ab83614714565b82815260069290921b840181019181810190868411156148d257600080fd5b8286015b8481101561491f57604081890312156148ef5760008081fd5b6148f76145bf565b61490082614737565b815261490d858301614432565b818601528352918301916040016148d6565b509695505050505050565b80356001600160f81b038116811461444657600080fd5b600082601f83011261495257600080fd5b813560206149626147ab83614714565b8281526060928302850182019282820191908785111561498157600080fd5b8387015b858110156149e15781818a03121561499d5760008081fd5b6149a56145e1565b6149ae8261492a565b8152858201356149bd81614465565b818701526040828101356149d081614400565b908201528452928401928101614985565b5090979650505050505050565b80356001600160e01b03198116811461444657600080fd5b600060a08284031215614a1857600080fd5b614a20614597565b905081356001600160401b03811115614a3857600080fd5b614a4484828501614656565b825250602082013560208201526040820135614a5f81614400565b6040820152614a70606083016149ee565b6060820152614a81608083016149ee565b608082015292915050565b600080600060608486031215614aa157600080fd5b8335925060208401356001600160401b0380821115614abf57600080fd5b908501906101408288031215614ad457600080fd5b614adc614603565b823582811115614aeb57600080fd5b614af789828601614892565b825250602083013582811115614b0c57600080fd5b614b1889828601614941565b602083015250604083013582811115614b3057600080fd5b614b3c89828601614656565b604083015250606083013582811115614b5457600080fd5b614b6089828601614656565b606083015250614b7260808401614432565b6080820152614b8360a0840161445a565b60a0820152614b9460c08401614473565b60c0820152614ba560e08401614473565b60e0820152610100614bb8818501614473565b90820152610120614bca848201614473565b9082015293506040860135915080821115614be457600080fd5b50614bf186828701614a06565b9150509250925092565b600060208284031215614c0d57600080fd5b5035919050565b600080600060608486031215614c2957600080fd5b8335614c3481614400565b925060208401359150614c4960408501614432565b90509250925092565b60008060008060808587031215614c6857600080fd5b84359350614c7860208601614432565b92506040850135614c8881614400565b9396929550929360600135925050565b8151815260208083015190820152604080830151908201526060808301519082015260808101611dc7565b60005b83811015614cde578181015183820152602001614cc6565b838111156138d45750506000910152565b60008151808452614d07816020860160208601614cc3565b601f01601f19169290920160200192915050565b8281526040602082015260006142ec6040830184614cef565b6020808252602c908201527f46756e6374696f6e206d7573742062652063616c6c6564207468726f7567682060408201526b19195b1959d85d1958d85b1b60a21b606082015260800190565b6020808252602c908201527f46756e6374696f6e206d7573742062652063616c6c6564207468726f7567682060408201526b6163746976652070726f787960a01b606082015260800190565b634e487b7160e01b600052603260045260246000fd5b600060208284031215614df457600080fd5b8151611e0781614465565b600060208284031215614e1157600080fd5b611e078261492a565b600060208284031215614e2c57600080fd5b8135611e0781614465565b600060a0820160ff89168352602088151581850152604088151581860152606063ffffffff89168187015260a060808701528387855260c08701905088945060005b88811015614ed2576001600160f81b03614e928761492a565b16825284860135614ea281614465565b15158286015285840135614eb581614400565b6001600160a01b0316828501529482019490820190600101614e79565b509c9b505050505050505050505050565b600181811c90821680614ef757607f821691505b602082108103614f1757634e487b7160e01b600052602260045260246000fd5b50919050565b60008060408385031215614f3057600080fd5b8251614f3b81614400565b6020939093015192949293505050565b634e487b7160e01b600052601160045260246000fd5b600082821015614f7357614f73614f4b565b500390565b6020808252818101527f4f776e61626c653a2063616c6c6572206973206e6f7420746865206f776e6572604082015260600190565b60008219821115614fc057614fc0614f4b565b500190565b600060208284031215614fd757600080fd5b8151611e0781614400565b600060208284031215614ff457600080fd5b5051919050565b600081518084526020808501945080840160005b8381101561504557815180516001600160801b0316885283015163ffffffff16838801526040909601959082019060010161500f565b509495945050505050565b600081518084526020808501945080840160005b8381101561504557815180516001600160f81b03168852838101511515848901526040908101516001600160a01b03169088015260609096019590820190600101615064565b6000815160a084526150bf60a0850182614cef565b602084810151908601526040808501516001600160a01b0316908601526060808501516001600160e01b0319908116918701919091526080948501511693909401929092525090919050565b60018060a01b038416815260606020820152600083516101408060608501526151386101a0850183614ffb565b91506020860151605f19808685030160808701526151568483615050565b935060408801519150808685030160a08701526151738483614cef565b935060608801519150808685030160c0870152506151918382614cef565b92505060808601516151ab60e086018263ffffffff169052565b5060a08601516101006151c28187018360ff169052565b60c088015191506101206151d98188018415159052565b60e089015115159387019390935287015115156101608601525085015115156101808401528281036040840152611ee981856150aa565b600063ffffffff80831681851680830382111561522f5761522f614f4b565b01949350505050565b6001600160801b038716815263ffffffff8681166020808401919091526001600160a01b0387166040840152908516606083015260c060808301528354600091908290600181811c908281168061529057607f831692505b85831081036152ad57634e487b7160e01b85526022600452602485fd5b60c0880183905260e088018180156152cc57600181146152dd57615308565b60ff19861682528782019650615308565b60008c81526020902060005b86811015615302578154848201529085019089016152e9565b83019750505b50505050505083810360a08501526153208186614cef565b9a9950505050505050505050565b60008251615340818460208701614cc3565b9190910192915050565b600081600019048311821515161561536457615364614f4b565b500290565b634e487b7160e01b600052601260045260246000fd5b60008261538e5761538e615369565b500490565b63ffffffff841681526001600160a01b038316602082015260c081016142ec6040830184805182526020810151602083015260408101516040830152606081015160608301525050565b6020808252602b908201527f496e697469616c697a61626c653a20636f6e7472616374206973206e6f74206960408201526a6e697469616c697a696e6760a81b606082015260800190565b60006001600160f81b038281168482168115158284048211161561544e5761544e614f4b565b02949350505050565b60006020828403121561546957600080fd5b8151611e078161444b565b805161ffff8116811461444657600080fd5b600080600080600080600060e0888a0312156154a157600080fd5b87516154ac81614400565b8097505060208801518060020b81146154c457600080fd5b95506154d260408901615474565b94506154e060608901615474565b93506154ee60808901615474565b925060a08801516154fe8161444b565b60c089015190925061550f81614465565b8091505092959891949750929550565b6020808252825182820181905260009190848201906040850190845b8181101561555d57835163ffffffff168352928401929184019160010161553b565b50909695505050505050565b600082601f83011261557a57600080fd5b8151602061558a6147ab83614714565b82815260059290921b840181019181810190868411156155a957600080fd5b8286015b8481101561491f5780516155c081614400565b83529183019183016155ad565b600080604083850312156155e057600080fd5b82516001600160401b03808211156155f757600080fd5b818501915085601f83011261560b57600080fd5b8151602061561b6147ab83614714565b82815260059290921b8401810191818101908984111561563a57600080fd5b948201945b838610156156685785518060060b81146156595760008081fd5b8252948201949082019061563f565b9188015191965090935050508082111561568157600080fd5b5061470a85828601615569565b60008160060b8360060b6000811281667fffffffffffff19018312811516156156b9576156b9614f4b565b81667fffffffffffff0183138116156156d4576156d4614f4b565b5090039392505050565b60008160060b8360060b806156f5576156f5615369565b667fffffffffffff1982146000198214161561571357615713614f4b565b90059392505050565b600181815b8085111561575757816000190482111561573d5761573d614f4b565b8085161561574a57918102915b93841c9390800290615721565b509250929050565b60008261576e57506001611dc7565b8161577b57506000611dc7565b8160018114615791576002811461579b576157b7565b6001915050611dc7565b60ff8411156157ac576157ac614f4b565b50506001821b611dc7565b5060208310610133831016604e8410600b84101617156157da575081810a611dc7565b6157e4838361571c565b80600019048211156157f8576157f8614f4b565b029392505050565b6000611e0760ff84168361575f565b6000611e07838361575f565b805169ffffffffffffffffffff8116811461444657600080fd5b600080600080600060a0868803121561584d57600080fd5b6158568661581b565b94506020860151935060408601519250606086015191506158796080870161581b565b90509295509295909350565b6000600160ff1b820161589a5761589a614f4b565b5060000390565b6000826158b0576158b0615369565b500690565b602081526000611e076020830184614cef56fe360894a13ba1a3210667c828492db98dca3e2076cc3735a920a3ca505d382bbc416464726573733a206c6f772d6c6576656c2064656c65676174652063616c6c206661696c6564f0832fe058ed4ffda256632e9c3d7b50283fb2e36310b6beaf08f633b1407057a2646970667358221220dd3c238d57178a0e4cddcd944cbb34067047ac9d591847f076747d61fa85928664736f6c634300080d0033",
  "linkReferences": {},
  "deployedLinkReferences": {}
}