{
  "_format": "hh-sol-artifact-1",
  "contractName": "ProductsModule",
  "sourceName": "contracts/ProductsModule.sol",
  "abi": [
    {
      "inputs": [],
      "name": "ActiveListing",
      "type": "error"
    },
    {
      "inputs": [],
      "name": "ExceedsMaxValue",
      "type": "error"
    },
    {
      "inputs": [],
      "name": "InexistentPool",
      "type": "error"
    },
    {
      "inputs": [],
      "name": "InexistentProduct",
      "type": "error"
    },
    {
      "inputs": [],
      "name": "InsufficientPayment",
      "type": "error"
    },
    {
      "inputs": [],
      "name": "Invalid",
      "type": "error"
    },
    {
      "inputs": [],
      "name": "NoDelegatecall",
      "type": "error"
    },
    {
      "inputs": [],
      "name": "NotAuthorized",
      "type": "error"
    },
    {
      "inputs": [],
      "name": "NotPurchased",
      "type": "error"
    },
    {
      "inputs": [],
      "name": "NotSuccessful",
      "type": "error"
    },
    {
      "inputs": [],
      "name": "TooSoon",
      "type": "error"
    },
    {
      "inputs": [],
      "name": "WrongCurrency",
      "type": "error"
    },
    {
      "anonymous": false,
      "inputs": [
        {
          "indexed": false,
          "internalType": "address",
          "name": "previousAdmin",
          "type": "address"
        },
        {
          "indexed": false,
          "internalType": "address",
          "name": "newAdmin",
          "type": "address"
        }
      ],
      "name": "AdminChanged",
      "type": "event"
    },
    {
      "anonymous": false,
      "inputs": [
        {
          "indexed": true,
          "internalType": "address",
          "name": "beacon",
          "type": "address"
        }
      ],
      "name": "BeaconUpgraded",
      "type": "event"
    },
    {
      "anonymous": false,
      "inputs": [
        {
          "indexed": true,
          "internalType": "uint256",
          "name": "slicerId",
          "type": "uint256"
        },
        {
          "indexed": true,
          "internalType": "address",
          "name": "contractAddress",
          "type": "address"
        },
        {
          "indexed": true,
          "internalType": "uint256",
          "name": "tokenId",
          "type": "uint256"
        },
        {
          "indexed": false,
          "internalType": "uint256",
          "name": "currentAmount",
          "type": "uint256"
        }
      ],
      "name": "ERC1155ListingChanged",
      "type": "event"
    },
    {
      "anonymous": false,
      "inputs": [
        {
          "indexed": true,
          "internalType": "uint256",
          "name": "slicerId",
          "type": "uint256"
        },
        {
          "indexed": true,
          "internalType": "address",
          "name": "contractAddress",
          "type": "address"
        },
        {
          "indexed": true,
          "internalType": "uint256",
          "name": "tokenId",
          "type": "uint256"
        },
        {
          "indexed": false,
          "internalType": "bool",
          "name": "isActive",
          "type": "bool"
        }
      ],
      "name": "ERC721ListingChanged",
      "type": "event"
    },
    {
      "anonymous": false,
      "inputs": [
        {
          "indexed": true,
          "internalType": "address",
          "name": "previousOwner",
          "type": "address"
        },
        {
          "indexed": true,
          "internalType": "address",
          "name": "newOwner",
          "type": "address"
        }
      ],
      "name": "OwnershipTransferred",
      "type": "event"
    },
    {
      "anonymous": false,
      "inputs": [
        {
          "indexed": false,
          "internalType": "address",
          "name": "account",
          "type": "address"
        }
      ],
      "name": "Paused",
      "type": "event"
    },
    {
      "anonymous": false,
      "inputs": [
        {
          "indexed": true,
          "internalType": "uint256",
          "name": "slicerId",
          "type": "uint256"
        },
        {
          "indexed": true,
          "internalType": "uint256",
          "name": "productId",
          "type": "uint256"
        },
        {
          "indexed": true,
          "internalType": "uint256",
          "name": "categoryIndex",
          "type": "uint256"
        },
        {
          "indexed": false,
          "internalType": "uint256",
          "name": "availableUnits",
          "type": "uint256"
        },
        {
          "indexed": false,
          "internalType": "address",
          "name": "creator",
          "type": "address"
        },
        {
          "components": [
            {
              "components": [
                {
                  "internalType": "uint128",
                  "name": "subSlicerId",
                  "type": "uint128"
                },
                {
                  "internalType": "uint32",
                  "name": "subProductId",
                  "type": "uint32"
                }
              ],
              "internalType": "struct SubSlicerProduct[]",
              "name": "subSlicerProducts",
              "type": "tuple[]"
            },
            {
              "components": [
                {
                  "internalType": "uint248",
                  "name": "value",
                  "type": "uint248"
                },
                {
                  "internalType": "bool",
                  "name": "dynamicPricing",
                  "type": "bool"
                },
                {
                  "internalType": "address",
                  "name": "currency",
                  "type": "address"
                }
              ],
              "internalType": "struct CurrencyPrice[]",
              "name": "currencyPrices",
              "type": "tuple[]"
            },
            {
              "internalType": "bytes",
              "name": "data",
              "type": "bytes"
            },
            {
              "internalType": "bytes",
              "name": "purchaseData",
              "type": "bytes"
            },
            {
              "internalType": "uint32",
              "name": "availableUnits",
              "type": "uint32"
            },
            {
              "internalType": "uint8",
              "name": "maxUnitsPerBuyer",
              "type": "uint8"
            },
            {
              "internalType": "bool",
              "name": "isFree",
              "type": "bool"
            },
            {
              "internalType": "bool",
              "name": "isInfinite",
              "type": "bool"
            },
            {
              "internalType": "bool",
              "name": "isExternalCallPaymentRelative",
              "type": "bool"
            },
            {
              "internalType": "bool",
              "name": "isExternalCallPreferredToken",
              "type": "bool"
            }
          ],
          "indexed": false,
          "internalType": "struct ProductParams",
          "name": "params",
          "type": "tuple"
        },
        {
          "components": [
            {
              "internalType": "bytes",
              "name": "data",
              "type": "bytes"
            },
            {
              "internalType": "uint256",
              "name": "value",
              "type": "uint256"
            },
            {
              "internalType": "address",
              "name": "externalAddress",
              "type": "address"
            },
            {
              "internalType": "bytes4",
              "name": "checkFunctionSignature",
              "type": "bytes4"
            },
            {
              "internalType": "bytes4",
              "name": "execFunctionSignature",
              "type": "bytes4"
            }
          ],
          "indexed": false,
          "internalType": "struct Function",
          "name": "externalCall",
          "type": "tuple"
        }
      ],
      "name": "ProductAdded",
      "type": "event"
    },
    {
      "anonymous": false,
      "inputs": [
        {
          "indexed": true,
          "internalType": "uint256",
          "name": "slicerId",
          "type": "uint256"
        },
        {
          "indexed": true,
          "internalType": "uint256",
          "name": "productId",
          "type": "uint256"
        },
        {
          "indexed": false,
          "internalType": "uint8",
          "name": "maxUnitsPerBuyer",
          "type": "uint8"
        },
        {
          "indexed": false,
          "internalType": "bool",
          "name": "isFree",
          "type": "bool"
        },
        {
          "indexed": false,
          "internalType": "bool",
          "name": "isInfinite",
          "type": "bool"
        },
        {
          "indexed": false,
          "internalType": "uint256",
          "name": "newUnits",
          "type": "uint256"
        },
        {
          "components": [
            {
              "internalType": "uint248",
              "name": "value",
              "type": "uint248"
            },
            {
              "internalType": "bool",
              "name": "dynamicPricing",
              "type": "bool"
            },
            {
              "internalType": "address",
              "name": "currency",
              "type": "address"
            }
          ],
          "indexed": false,
          "internalType": "struct CurrencyPrice[]",
          "name": "currencyPrices",
          "type": "tuple[]"
        }
      ],
      "name": "ProductInfoChanged",
      "type": "event"
    },
    {
      "anonymous": false,
      "inputs": [
        {
          "indexed": true,
          "internalType": "uint256",
          "name": "slicerId",
          "type": "uint256"
        },
        {
          "indexed": true,
          "internalType": "uint256",
          "name": "productId",
          "type": "uint256"
        },
        {
          "indexed": false,
          "internalType": "uint256",
          "name": "quantity",
          "type": "uint256"
        },
        {
          "indexed": true,
          "internalType": "address",
          "name": "buyer",
          "type": "address"
        },
        {
          "indexed": false,
          "internalType": "address",
          "name": "currency",
          "type": "address"
        },
        {
          "components": [
            {
              "internalType": "uint256",
              "name": "eth",
              "type": "uint256"
            },
            {
              "internalType": "uint256",
              "name": "currency",
              "type": "uint256"
            },
            {
              "internalType": "uint256",
              "name": "ethExternalCall",
              "type": "uint256"
            },
            {
              "internalType": "uint256",
              "name": "currencyExternalCall",
              "type": "uint256"
            }
          ],
          "indexed": false,
          "internalType": "struct Price",
          "name": "price",
          "type": "tuple"
        }
      ],
      "name": "ProductPaid",
      "type": "event"
    },
    {
      "anonymous": false,
      "inputs": [
        {
          "indexed": true,
          "internalType": "uint256",
          "name": "slicerId",
          "type": "uint256"
        },
        {
          "indexed": true,
          "internalType": "uint256",
          "name": "productId",
          "type": "uint256"
        }
      ],
      "name": "ProductRemoved",
      "type": "event"
    },
    {
      "anonymous": false,
      "inputs": [
        {
          "indexed": true,
          "internalType": "uint256",
          "name": "slicerId",
          "type": "uint256"
        },
        {
          "indexed": false,
          "internalType": "uint256",
          "name": "ethToRelease",
          "type": "uint256"
        }
      ],
      "name": "ReleasedToSlicer",
      "type": "event"
    },
    {
      "anonymous": false,
      "inputs": [
        {
          "indexed": false,
          "internalType": "address",
          "name": "account",
          "type": "address"
        }
      ],
      "name": "Unpaused",
      "type": "event"
    },
    {
      "anonymous": false,
      "inputs": [
        {
          "indexed": true,
          "internalType": "address",
          "name": "implementation",
          "type": "address"
        }
      ],
      "name": "Upgraded",
      "type": "event"
    },
    {
      "inputs": [],
      "name": "_togglePause",
      "outputs": [],
      "stateMutability": "nonpayable",
      "type": "function"
    },
    {
      "inputs": [
        {
          "internalType": "uint256",
          "name": "slicerId",
          "type": "uint256"
        },
        {
          "components": [
            {
              "components": [
                {
                  "internalType": "uint128",
                  "name": "subSlicerId",
                  "type": "uint128"
                },
                {
                  "internalType": "uint32",
                  "name": "subProductId",
                  "type": "uint32"
                }
              ],
              "internalType": "struct SubSlicerProduct[]",
              "name": "subSlicerProducts",
              "type": "tuple[]"
            },
            {
              "components": [
                {
                  "internalType": "uint248",
                  "name": "value",
                  "type": "uint248"
                },
                {
                  "internalType": "bool",
                  "name": "dynamicPricing",
                  "type": "bool"
                },
                {
                  "internalType": "address",
                  "name": "currency",
                  "type": "address"
                }
              ],
              "internalType": "struct CurrencyPrice[]",
              "name": "currencyPrices",
              "type": "tuple[]"
            },
            {
              "internalType": "bytes",
              "name": "data",
              "type": "bytes"
            },
            {
              "internalType": "bytes",
              "name": "purchaseData",
              "type": "bytes"
            },
            {
              "internalType": "uint32",
              "name": "availableUnits",
              "type": "uint32"
            },
            {
              "internalType": "uint8",
              "name": "maxUnitsPerBuyer",
              "type": "uint8"
            },
            {
              "internalType": "bool",
              "name": "isFree",
              "type": "bool"
            },
            {
              "internalType": "bool",
              "name": "isInfinite",
              "type": "bool"
            },
            {
              "internalType": "bool",
              "name": "isExternalCallPaymentRelative",
              "type": "bool"
            },
            {
              "internalType": "bool",
              "name": "isExternalCallPreferredToken",
              "type": "bool"
            }
          ],
          "internalType": "struct ProductParams",
          "name": "params",
          "type": "tuple"
        },
        {
          "components": [
            {
              "internalType": "bytes",
              "name": "data",
              "type": "bytes"
            },
            {
              "internalType": "uint256",
              "name": "value",
              "type": "uint256"
            },
            {
              "internalType": "address",
              "name": "externalAddress",
              "type": "address"
            },
            {
              "internalType": "bytes4",
              "name": "checkFunctionSignature",
              "type": "bytes4"
            },
            {
              "internalType": "bytes4",
              "name": "execFunctionSignature",
              "type": "bytes4"
            }
          ],
          "internalType": "struct Function",
          "name": "externalCall_",
          "type": "tuple"
        }
      ],
      "name": "addProduct",
      "outputs": [],
      "stateMutability": "nonpayable",
      "type": "function"
    },
    {
      "inputs": [
        {
          "internalType": "uint256",
          "name": "slicerId",
          "type": "uint256"
        }
      ],
      "name": "ethBalance",
      "outputs": [
        {
          "internalType": "uint256",
          "name": "",
          "type": "uint256"
        }
      ],
      "stateMutability": "view",
      "type": "function"
    },
    {
      "inputs": [],
      "name": "initialize",
      "outputs": [],
      "stateMutability": "nonpayable",
      "type": "function"
    },
    {
      "inputs": [],
      "name": "owner",
      "outputs": [
        {
          "internalType": "address",
          "name": "",
          "type": "address"
        }
      ],
      "stateMutability": "view",
      "type": "function"
    },
    {
      "inputs": [],
      "name": "paused",
      "outputs": [
        {
          "internalType": "bool",
          "name": "",
          "type": "bool"
        }
      ],
      "stateMutability": "view",
      "type": "function"
    },
    {
      "inputs": [
        {
          "internalType": "address",
          "name": "buyer",
          "type": "address"
        },
        {
          "components": [
            {
              "internalType": "uint128",
              "name": "slicerId",
              "type": "uint128"
            },
            {
              "internalType": "uint32",
              "name": "quantity",
              "type": "uint32"
            },
            {
              "internalType": "address",
              "name": "currency",
              "type": "address"
            },
            {
              "internalType": "uint32",
              "name": "productId",
              "type": "uint32"
            },
            {
              "internalType": "bytes",
              "name": "buyerCustomData",
              "type": "bytes"
            }
          ],
          "internalType": "struct PurchaseParams[]",
          "name": "purchases",
          "type": "tuple[]"
        }
      ],
      "name": "payProducts",
      "outputs": [],
      "stateMutability": "payable",
      "type": "function"
    },
    {
      "inputs": [
        {
          "internalType": "uint256",
          "name": "slicerId",
          "type": "uint256"
        },
        {
          "internalType": "uint32",
          "name": "productId",
          "type": "uint32"
        },
        {
          "internalType": "address",
          "name": "currency",
          "type": "address"
        },
        {
          "internalType": "uint256",
          "name": "quantity",
          "type": "uint256"
        }
      ],
      "name": "productPrice",
      "outputs": [
        {
          "components": [
            {
              "internalType": "uint256",
              "name": "eth",
              "type": "uint256"
            },
            {
              "internalType": "uint256",
              "name": "currency",
              "type": "uint256"
            },
            {
              "internalType": "uint256",
              "name": "ethExternalCall",
              "type": "uint256"
            },
            {
              "internalType": "uint256",
              "name": "currencyExternalCall",
              "type": "uint256"
            }
          ],
          "internalType": "struct Price",
          "name": "price",
          "type": "tuple"
        }
      ],
      "stateMutability": "view",
      "type": "function"
    },
    {
      "inputs": [],
      "name": "proxiableUUID",
      "outputs": [
        {
          "internalType": "bytes32",
          "name": "",
          "type": "bytes32"
        }
      ],
      "stateMutability": "view",
      "type": "function"
    },
    {
      "inputs": [
        {
          "internalType": "uint256",
          "name": "slicerId",
          "type": "uint256"
        }
      ],
      "name": "releaseEthToSlicer",
      "outputs": [],
      "stateMutability": "nonpayable",
      "type": "function"
    },
    {
      "inputs": [
        {
          "internalType": "uint256",
          "name": "slicerId",
          "type": "uint256"
        },
        {
          "internalType": "uint32",
          "name": "productId",
          "type": "uint32"
        }
      ],
      "name": "removeProduct",
      "outputs": [],
      "stateMutability": "nonpayable",
      "type": "function"
    },
    {
      "inputs": [],
      "name": "renounceOwnership",
      "outputs": [],
      "stateMutability": "nonpayable",
      "type": "function"
    },
    {
      "inputs": [
        {
          "internalType": "uint256",
          "name": "slicerId",
          "type": "uint256"
        },
        {
          "internalType": "uint32",
          "name": "productId",
          "type": "uint32"
        },
        {
          "internalType": "uint8",
          "name": "newMaxUnits",
          "type": "uint8"
        },
        {
          "internalType": "bool",
          "name": "isFree",
          "type": "bool"
        },
        {
          "internalType": "bool",
          "name": "isInfinite",
          "type": "bool"
        },
        {
          "internalType": "uint32",
          "name": "newUnits",
          "type": "uint32"
        },
        {
          "components": [
            {
              "internalType": "uint248",
              "name": "value",
              "type": "uint248"
            },
            {
              "internalType": "bool",
              "name": "dynamicPricing",
              "type": "bool"
            },
            {
              "internalType": "address",
              "name": "currency",
              "type": "address"
            }
          ],
          "internalType": "struct CurrencyPrice[]",
          "name": "currencyPrices",
          "type": "tuple[]"
        }
      ],
      "name": "setProductInfo",
      "outputs": [],
      "stateMutability": "nonpayable",
      "type": "function"
    },
    {
      "inputs": [
        {
          "internalType": "address",
          "name": "newOwner",
          "type": "address"
        }
      ],
      "name": "transferOwnership",
      "outputs": [],
      "stateMutability": "nonpayable",
      "type": "function"
    },
    {
      "inputs": [
        {
          "internalType": "address",
          "name": "newImplementation",
          "type": "address"
        }
      ],
      "name": "upgradeTo",
      "outputs": [],
      "stateMutability": "nonpayable",
      "type": "function"
    },
    {
      "inputs": [
        {
          "internalType": "address",
          "name": "newImplementation",
          "type": "address"
        },
        {
          "internalType": "bytes",
          "name": "data",
          "type": "bytes"
        }
      ],
      "name": "upgradeToAndCall",
      "outputs": [],
      "stateMutability": "payable",
      "type": "function"
    },
    {
      "inputs": [
        {
          "internalType": "uint256",
          "name": "slicerId",
          "type": "uint256"
        },
        {
          "internalType": "uint32",
          "name": "productId",
          "type": "uint32"
        }
      ],
      "name": "validatePurchase",
      "outputs": [
        {
          "internalType": "uint256",
          "name": "purchases",
          "type": "uint256"
        },
        {
          "internalType": "bytes",
          "name": "purchaseData",
          "type": "bytes"
        }
      ],
      "stateMutability": "view",
      "type": "function"
    },
    {
      "inputs": [
        {
          "internalType": "address",
          "name": "account",
          "type": "address"
        },
        {
          "internalType": "uint256",
          "name": "slicerId",
          "type": "uint256"
        },
        {
          "internalType": "uint32",
          "name": "productId",
          "type": "uint32"
        }
      ],
      "name": "validatePurchaseUnits",
      "outputs": [
        {
          "internalType": "uint256",
          "name": "purchases",
          "type": "uint256"
        }
      ],
      "stateMutability": "view",
      "type": "function"
    }
  ],
  "bytecode": "0x60a06040523060805234801561001457600080fd5b5060805161598b6200004d6000396000818161034d0152818161039601528181610deb01528181610e2b0152610ebe015261598b6000f3fe6080604052600436106101095760003560e01c8063715018a611610095578063c577233211610064578063c577233214610288578063c993a08d146102a8578063eba31148146102c8578063f2fde38b146102f5578063f9820ba41461031557600080fd5b8063715018a6146102165780638129fc1c1461022b5780638da5cb5b14610240578063bf17f2f21461026857600080fd5b80634f1ef286116100dc5780634f1ef2861461018557806352d1902d1461019857806354ed778b146101c05780635c975abb146101d3578063642d0dfc146101f657600080fd5b80633659cfe61461010e578063376dab391461013057806337fcbc3314610150578063405b4c3614610170575b600080fd5b34801561011a57600080fd5b5061012e61012936600461442b565b610343565b005b34801561013c57600080fd5b5061012e61014b366004614494565b61042b565b34801561015c57600080fd5b5061012e61016b36600461456b565b610ad0565b34801561017c57600080fd5b5061012e610d9a565b61012e6101933660046146db565b610de1565b3480156101a457600080fd5b506101ad610eb1565b6040519081526020015b60405180910390f35b61012e6101ce366004614764565b610f64565b3480156101df57600080fd5b5060c95460ff1660405190151581526020016101b7565b34801561020257600080fd5b5061012e610211366004614aa2565b611015565b34801561022257600080fd5b5061012e611cb2565b34801561023757600080fd5b5061012e611ce6565b34801561024c57600080fd5b506097546040516001600160a01b0390911681526020016101b7565b34801561027457600080fd5b506101ad610283366004614c11565b611da6565b34801561029457600080fd5b506101ad6102a3366004614c2a565b611de3565b3480156102b457600080fd5b5061012e6102c3366004614c11565b611e24565b3480156102d457600080fd5b506102e86102e3366004614c68565b611ea7565b6040516101b79190614cae565b34801561030157600080fd5b5061012e61031036600461442b565b611f09565b34801561032157600080fd5b5061033561033036600461456b565b611fa1565b6040516101b7929190614d31565b6001600160a01b037f00000000000000000000000000000000000000000000000000000000000000001630036103945760405162461bcd60e51b815260040161038b90614d4a565b60405180910390fd5b7f00000000000000000000000000000000000000000000000000000000000000006001600160a01b03166103dd6000805160206158ef833981519152546001600160a01b031690565b6001600160a01b0316146104035760405162461bcd60e51b815260040161038b90614d96565b61040c81612101565b604080516000808252602082019092526104289183919061212b565b50565b600088815260fb60209081526040808320600381015463ffffffff8c16855260019091019092529091206001600160a01b0390911690819061046d8183612296565b83156108f65760088101546201518064ffffffffff600160a01b909204821601164210156104ae57604051636fed7d8560e01b815260040160405180910390fd5b60088101805464ffffffffff60a01b1916600160a01b4264ffffffffff160217905560005b848110156108f45760008686838181106104ef576104ef614de2565b9050606002016040016020810190610507919061442b565b6001600160a01b03161415801561056457507356639db16ac50a89228026e42a316b30179a537686868381811061054057610540614de2565b9050606002016040016020810190610558919061442b565b6001600160a01b031614155b1561062757826001600160a01b031663b25e9c3987878481811061058a5761058a614de2565b90506060020160400160208101906105a2919061442b565b6040516001600160e01b031960e084901b1681526001600160a01b039091166004820152602401602060405180830381865afa1580156105e6573d6000803e3d6000fd5b505050506040513d601f19601f8201168201806040525081019061060a9190614df8565b61062757604051630b27db6160e11b815260040160405180910390fd5b81600101600087878481811061063f5761063f614de2565b9050606002016040016020810190610657919061442b565b6001600160a01b031681526020810191909152604001600020546001600160f81b031686868381811061068c5761068c614de2565b6106a29260206060909202019081019150614e15565b6001600160f81b031614610740578585828181106106c2576106c2614de2565b6106d89260206060909202019081019150614e15565b8260010160008888858181106106f0576106f0614de2565b9050606002016040016020810190610708919061442b565b6001600160a01b03168152602081019190915260400160002080546001600160f81b0319166001600160f81b03929092169190911790555b81600101600087878481811061075857610758614de2565b9050606002016040016020810190610770919061442b565b6001600160a01b03168152602081019190915260400160002054600160f81b900460ff1615158686838181106107a8576107a8614de2565b90506060020160200160208101906107c09190614e30565b1515146108ec5760008686838181106107db576107db614de2565b90506060020160400160208101906107f3919061442b565b6001600160a01b03161461085c57600061083587878481811061081857610818614de2565b9050606002016040016020810190610830919061442b565b6123c6565b6001600160a01b03160361085c57604051632b9bb16560e11b815260040160405180910390fd5b85858281811061086e5761086e614de2565b90506060020160200160208101906108869190614e30565b82600101600088888581811061089e5761089e614de2565b90506060020160400160208101906108b6919061442b565b6001600160a01b0316815260208101919091526040016000208054911515600160f81b026001600160f81b039092169190911790555b6001016104d3565b505b6109098b84898963ffffffff1685612517565b878015610925575060088101546001600160f01b909104811614155b8061094657508715801561094657506008810154600160f01b900460011615155b156109715760088101805460ff600160f01b80830482166001189091160260ff60f01b199091161790555b86801561098f57506008810154600160f01b9004600190811c811614155b806109b35750861580156109b357506008810154600160f01b9004600190811c1615155b156109de5760088101805460ff600160f01b80830482166002189091160260ff60f01b199091161790555b600881015460ff8a8116600160e81b9092041614610a115760088101805460ff60e81b1916600160e81b60ff8c16021790555b8615610a2e5760088101805463ffffffff60c81b19169055610a6a565b600881015463ffffffff878116600160c81b9092041614610a6a5760088101805463ffffffff60c81b1916600160c81b63ffffffff8916021790555b600881015460405163ffffffff808d16928e927f4cc6ba108a00a1be4dd5e4ad63e0a06ef9035bb73b84634f4d44319190af5a7e92610abb928f928f928f92600160c81b900416908d908d90614e4d565b60405180910390a35050505050505050505050565b600082815260fb60209081526040808320600381015463ffffffff8616855260019091019092529091206001600160a01b03909116908190610b128183612296565b60058101546001600160a01b03808516911603610d3857600080826003016000018054610b3e90614ef9565b80601f0160208091040260200160405190810160405280929190818152602001828054610b6a90614ef9565b8015610bb75780601f10610b8c57610100808354040283529160200191610bb7565b820191906000526020600020905b815481529060010190602001808311610b9a57829003601f168201915b5050505050806020019051810190610bcf9190614f33565b600585015491935091506302868bf960e11b600160c01b90910460e01b6001600160e01b03191601610c6a57600087815260fc602090815260408083206001600160a01b0386168085529083528184208585528352818420805460ff191690559051928352839290918a917f76529e1c5add2962fbfae2a36bbcf688a5c01516b043ad429f1d81830687a2db910160405180910390a4610d35565b600583015462fc808960e71b600160c01b90910460e01b6001600160e01b03191601610d35576008830154600088815260fd602090815260408083206001600160a01b0387168452825280832085845290915281208054600160c81b90930463ffffffff1692909190610cde908490614f77565b9091555050600087815260fd602090815260408083206001600160a01b0386168085529083528184208585528352928190205490519081528392918a91600080516020615936833981519152910160405180910390a45b50505b600881018054600168ffffffff000000000160a01b0319169055610d60600682016000614343565b60405163ffffffff85169086907fd647384cccbd8b477a7b02b9e866072937e9a23b473b9de13fc0c6cb1d392a0a90600090a35050505050565b6097546001600160a01b03163314610dc45760405162461bcd60e51b815260040161038b90614f8e565b60c95460ff1615610dd957610dd76127ea565b565b610dd761287d565b6001600160a01b037f0000000000000000000000000000000000000000000000000000000000000000163003610e295760405162461bcd60e51b815260040161038b90614d4a565b7f00000000000000000000000000000000000000000000000000000000000000006001600160a01b0316610e726000805160206158ef833981519152546001600160a01b031690565b6001600160a01b031614610e985760405162461bcd60e51b815260040161038b90614d96565b610ea182612101565b610ead8282600161212b565b5050565b6000306001600160a01b037f00000000000000000000000000000000000000000000000000000000000000001614610f515760405162461bcd60e51b815260206004820152603860248201527f555550535570677261646561626c653a206d757374206e6f742062652063616c60448201527f6c6564207468726f7567682064656c656761746563616c6c0000000000000000606482015260840161038b565b506000805160206158ef83398151915290565b60c95460ff1615610faa5760405162461bcd60e51b815260206004820152601060248201526f14185d5cd8589b194e881c185d5cd95960821b604482015260640161038b565b6000805b8251811015610fee57610fda84848381518110610fcd57610fcd614de2565b60200260200101516128f8565b610fe49083614fc3565b9150600101610fae565b50803410156110105760405163cd1c886760e01b815260040160405180910390fd5b505050565b600083815260fb6020526040902080546001019081905563ffffffff81111561105157604051636dac6a0960e01b815260040160405180910390fd5b8060010361119b57604051630bafd3f560e11b81526004810185905260009073e7f1725e7734ce288f8367e1bb143e90bb3f05129063175fa7ea90602401602060405180830381865afa1580156110ac573d6000803e3d6000fd5b505050506040513d601f19601f820116820180604052508101906110d09190614fdb565b6001600160a01b0316036110f757604051636dac6a0960e01b815260040160405180910390fd5b604051630bafd3f560e11b81526004810185905273e7f1725e7734ce288f8367e1bb143e90bb3f05129063175fa7ea90602401602060405180830381865afa158015611147573d6000803e3d6000fd5b505050506040513d601f19601f8201168201806040525081019061116b9190614fdb565b600085815260fb6020526040902060030180546001600160a01b0319166001600160a01b03929092169190911790555b600084815260fb60205260409081902060030154905163166eb15b60e21b81523360048201526001600160a01b039091169081906359bac56c90602401602060405180830381865afa1580156111f5573d6000803e3d6000fd5b505050506040513d601f19601f820116820180604052508101906112199190614df8565b6112365760405163ea8e4eb560e01b815260040160405180910390fd5b600085815260fb6020908152604080832063ffffffff8616845260010190915290208451511561135f5760005b85515181101561135d576112ed60fb60008860000151848151811061128a5761128a614de2565b6020026020010151600001516001600160801b031681526020019081526020016000206001016000886000015184815181106112c8576112c8614de2565b60200260200101516020015163ffffffff1681526020019081526020016000206133cb565b816002018660000151828151811061130757611307614de2565b602090810291909101810151825460018181018555600094855293839020825191018054929093015163ffffffff16600160801b026001600160a01b03199092166001600160801b039091161717905501611263565b505b602085015151156116435760005b8560200151518110156116415760006001600160a01b03168660200151828151811061139b5761139b614de2565b6020026020010151604001516001600160a01b03161415801561140557507356639db16ac50a89228026e42a316b30179a53766001600160a01b0316866020015182815181106113ed576113ed614de2565b6020026020010151604001516001600160a01b031614155b80156114ab5750826001600160a01b031663b25e9c398760200151838151811061143157611431614de2565b6020026020010151604001516040518263ffffffff1660e01b815260040161146891906001600160a01b0391909116815260200190565b602060405180830381865afa158015611485573d6000803e3d6000fd5b505050506040513d601f19601f820116820180604052508101906114a99190614df8565b155b156114c957604051630b27db6160e11b815260040160405180910390fd5b856020015181815181106114df576114df614de2565b6020026020010151600001516001600160f81b031660001461158d578560200151818151811061151157611511614de2565b6020026020010151600001518260010160008860200151848151811061153957611539614de2565b6020026020010151604001516001600160a01b03166001600160a01b0316815260200190815260200160002060000160006101000a8154816001600160f81b0302191690836001600160f81b031602179055505b856020015181815181106115a3576115a3614de2565b6020026020010151602001511561163957856020015181815181106115ca576115ca614de2565b602002602001015160200151826001016000886020015184815181106115f2576115f2614de2565b6020026020010151604001516001600160a01b03166001600160a01b03168152602001908152602001600020600001601f6101000a81548160ff0219169083151502179055505b60010161136d565b505b60408401516001600160a01b031615611b3257816001600160a01b031684604001516001600160a01b0316036119d357600080856000015180602001905181019061168e9190614f33565b608088015191935091506001600160e01b0319166302868bf960e11b0161183c57866080015163ffffffff1660011415806116d157508660a0015160ff16600114155b806116dd57508660e001515b8061175d57506040516331a9108f60e11b8152600481018290526001600160a01b038086169190841690636352211e90602401602060405180830381865afa15801561172d573d6000803e3d6000fd5b505050506040513d601f19601f820116820180604052508101906117519190614fdb565b6001600160a01b031614155b1561177b5760405163ea8e4eb560e01b815260040160405180910390fd5b600088815260fc602090815260408083206001600160a01b0386168452825280832084845290915290205460ff16156117c7576040516319e7a92b60e31b815260040160405180910390fd5b600088815260fc602090815260408083206001600160a01b038616808552908352818420858552835292819020805460ff1916600190811790915590519081528392918b917f76529e1c5add2962fbfae2a36bbcf688a5c01516b043ad429f1d81830687a2db910160405180910390a46119d0565b60808601516001600160e01b03191662fc808960e71b016119d0578660e00151806119135750604051627eeac760e11b81526001600160a01b0385811660048301526024820183905283169062fdd58e90604401602060405180830381865afa1580156118ad573d6000803e3d6000fd5b505050506040513d601f19601f820116820180604052508101906118d19190614ff8565b600089815260fd602090815260408083206001600160a01b038716845282528083208584529091529020546080890151611911919063ffffffff16614fc3565b115b1561193157604051636dac6a0960e01b815260040160405180910390fd5b6080870151600089815260fd602090815260408083206001600160a01b038716845282528083208584529091528120805463ffffffff90931692909190611979908490614fc3565b9091555050600088815260fd602090815260408083206001600160a01b0386168085529083528184208585528352928190205490519081528392918b91600080516020615936833981519152910160405180910390a45b50505b60408401516005820180546001600160a01b0319166001600160a01b0390921691909117905560808401516001600160e01b03191615611a7457608084015160058201805460e09290921c600160c01b0263ffffffff60c01b1990921691909117905560608401516001600160e01b03191615611a7457606084015160058201805460e09290921c600160a01b0263ffffffff60a01b199092169190911790555b83515115611a965783518051611a9491600384019160209091019061437d565b505b602084015115611aab57602084015160048201555b84610120015115611ada5760088101805460ff60f01b1981166004600160f01b9283900460ff16179091021790555b84610100015115611b325761271084602001511115611b0c57604051633806212b60e21b815260040160405180910390fd5b6008818101805460ff60f01b198116600160f01b9182900460ff16909317029190911790555b6008810180546001600160a01b0319163317905560c085015115611b745760088101805460ff60f01b1981166001600160f01b9283900460ff16179091021790555b60a085015160ff1615611ba75760a085015160088201805460ff909216600160e81b0260ff60e81b199092169190911790555b8460e0015115611bd95760088101805460ff60f01b1981166002600160f01b9283900460ff1617909102179055611c05565b608085015160088201805463ffffffff909216600160c81b0263ffffffff60c81b199092169190911790555b60408501515115611c2d5760408501518051611c2b91600684019160209091019061437d565b505b60608501515115611c555760608501518051611c5391600784019160209091019061437d565b505b600083877f51bddd2bd712be7a9e99400ad8d2440adfa02cb030a0c8fdcb6da45023608d388460080160199054906101000a900463ffffffff16338a8a604051611ca29493929190615121565b60405180910390a4505050505050565b6097546001600160a01b03163314611cdc5760405162461bcd60e51b815260040161038b90614f8e565b610dd760006133f6565b600054610100900460ff16611d015760005460ff1615611d05565b303b155b611d685760405162461bcd60e51b815260206004820152602e60248201527f496e697469616c697a61626c653a20636f6e747261637420697320616c72656160448201526d191e481a5b9a5d1a585b1a5e995960921b606482015260840161038b565b600054610100900460ff16158015611d8a576000805461ffff19166101011790555b611d92613448565b8015610428576000805461ff001916905550565b600081815260fb6020526040812060020154600110611dc6576000611ddd565b600082815260fb6020526040902060020154600019015b92915050565b600082815260fb6020908152604080832063ffffffff8086168552600190910183528184206001600160a01b038816855290925290912054165b9392505050565b6000611e2f82611da6565b90508015610ead57600082815260fb60205260409020600381015460016002909201919091556001600160a01b0316611e688183613477565b827f04cc711f7db61e897a32f3fe3e3faa9861b68d7d19fd9a669348213087b2272683604051611e9a91815260200190565b60405180910390a2505050565b611ed26040518060800160405280600081526020016000815260200160008152602001600081525090565b600085815260fb6020908152604080832063ffffffff881684526001019091529020611eff8185856134c8565b9695505050505050565b6097546001600160a01b03163314611f335760405162461bcd60e51b815260040161038b90614f8e565b6001600160a01b038116611f985760405162461bcd60e51b815260206004820152602660248201527f4f776e61626c653a206e6577206f776e657220697320746865207a65726f206160448201526564647265737360d01b606482015260840161038b565b610428816133f6565b6000606030739fe46736679d2d9a65f0992f2272de9f3c7fa6e014611fd95760405163acbcffa760e01b815260040160405180910390fd5b600084815260fb6020908152604080832063ffffffff808816855260019091018352818420338552909252822054169003612027576040516363aae7a360e01b815260040160405180910390fd5b600084815260fb6020908152604080832063ffffffff80881680865260019092018085528386203387528086529386205492909552939092526007018054919092169190819061207690614ef9565b80601f01602080910402602001604051908101604052809291908181526020018280546120a290614ef9565b80156120ef5780601f106120c4576101008083540402835291602001916120ef565b820191906000526020600020905b8154815290600101906020018083116120d257829003601f168201915b50505050509050915091509250929050565b6097546001600160a01b031633146104285760405162461bcd60e51b815260040161038b90614f8e565b7f4910fdfa16fed3260ed0e7147f7cc6da11a60208b5b9406d12a635614ffd91435460ff161561215e5761101083613829565b826001600160a01b03166352d1902d6040518163ffffffff1660e01b8152600401602060405180830381865afa9250505080156121b8575060408051601f3d908101601f191682019092526121b591810190614ff8565b60015b61221b5760405162461bcd60e51b815260206004820152602e60248201527f45524331393637557067726164653a206e657720696d706c656d656e7461746960448201526d6f6e206973206e6f74205555505360901b606482015260840161038b565b6000805160206158ef833981519152811461228a5760405162461bcd60e51b815260206004820152602960248201527f45524331393637557067726164653a20756e737570706f727465642070726f786044820152681a58589b195555525160ba1b606482015260840161038b565b506110108383836138c5565b61229f826133cb565b600882015460405163166eb15b60e21b81526001600160a01b039182166004820152908216906359bac56c90602401602060405180830381865afa1580156122eb573d6000803e3d6000fd5b505050506040513d601f19601f8201168201806040525081019061230f9190614df8565b156123415760088201546001600160a01b03163314610ead5760405163ea8e4eb560e01b815260040160405180910390fd5b60405163166eb15b60e21b81523360048201526001600160a01b038216906359bac56c90602401602060405180830381865afa158015612385573d6000803e3d6000fd5b505050506040513d601f19601f820116820180604052508101906123a99190614df8565b610ead5760405163ea8e4eb560e01b815260040160405180910390fd5b604051630b4c774160e11b81526001600160a01b038216600482015273c778417e063141139fce010982780140aa0cd5ab6024820152610bb860448201526000908190731f98431c8ad98523631ae4a59f267346ea31f98490631698ee8290606401602060405180830381865afa158015612445573d6000803e3d6000fd5b505050506040513d601f19601f820116820180604052508101906124699190614fdb565b90506001600160a01b038116611ddd57604051630b4c774160e11b81526001600160a01b038416600482015273c778417e063141139fce010982780140aa0cd5ab60248201526127106044820152731f98431c8ad98523631ae4a59f267346ea31f98490631698ee8290606401602060405180830381865afa1580156124f3573d6000803e3d6000fd5b505050506040513d601f19601f82011682018060405250810190611e1d9190614fdb565b60058101546001600160a01b038086169116036127e35760008082600301600001805461254390614ef9565b80601f016020809104026020016040519081016040528092919081815260200182805461256f90614ef9565b80156125bc5780601f10612591576101008083540402835291602001916125bc565b820191906000526020600020905b81548152906001019060200180831161259f57829003601f168201915b50505050508060200190518101906125d49190614f33565b600585015491935091506302868bf960e11b600160c01b90910460e01b6001600160e01b03191601612640576008830154600160c81b900463ffffffff168414158061261d5750845b1561263b57604051636dac6a0960e01b815260040160405180910390fd5b6127e0565b600583015462fc808960e71b600160c01b90910460e01b6001600160e01b031916016127e057841561268557604051636dac6a0960e01b815260040160405180910390fd5b6008830154600160c81b900463ffffffff1684146127e057604051627eeac760e11b81526001600160a01b038781166004830152602482018390526000919084169062fdd58e90604401602060405180830381865afa1580156126ec573d6000803e3d6000fd5b505050506040513d601f19601f820116820180604052508101906127109190614ff8565b600885015460008a815260fd602090815260408083206001600160a01b0389168452825280832087845290915281205492935091600160c81b90910463ffffffff169061275e908890614fc3565b6127689190614f77565b90508181111561278b57604051636dac6a0960e01b815260040160405180910390fd5b600089815260fd602090815260408083206001600160a01b038816808552908352818420878552835292819020849055518381528592918c91600080516020615936833981519152910160405180910390a450505b50505b5050505050565b60c95460ff166128335760405162461bcd60e51b815260206004820152601460248201527314185d5cd8589b194e881b9bdd081c185d5cd95960621b604482015260640161038b565b60c9805460ff191690557f5db9ee0a495bf2e6ff9c91a7834c1ba4fdd244a5e8aa4e537bd38aeae4b073aa335b6040516001600160a01b03909116815260200160405180910390a1565b60c95460ff16156128c35760405162461bcd60e51b815260206004820152601060248201526f14185d5cd8589b194e881c185d5cd95960821b604482015260640161038b565b60c9805460ff191660011790557f62e78cea01bee320cd4e420270b5ea74000d11b0c9f74754ebdbfc544b05a2586128603390565b6000816020015163ffffffff16600014611ddd5781516001600160801b0316600090815260fb60209081526040808320606086015163ffffffff9081168552600190910183528184209186015192860151919392612958928592166134c8565b84516001600160801b0316600090815260fb602052604090206003015460088401549192506001600160a01b031690600160e81b900460ff16156129fb5760088301546020868101516001600160a01b038916600090815291869052604090912054600160e81b90920460ff16916129d6919063ffffffff16615236565b63ffffffff1611156129fb57604051636dac6a0960e01b815260040160405180910390fd5b6008830154600160f01b9004600190811c16600003612a83576008830154602086015163ffffffff600160c81b909204821691161115612a4e57604051636dac6a0960e01b815260040160405180910390fd5b602085015160088401805463ffffffff600160c81b8083048216949094031690920263ffffffff60c81b199092169190911790555b60408201518251612a949190614fc3565b825186516001600160801b0316600090815260fb6020526040812060020180549397509192612ac4908490614fc3565b90915550506020808601516001600160a01b03881660009081529185905260408220805491929091612afd90849063ffffffff16615236565b92506101000a81548163ffffffff021916908363ffffffff1602179055508160200151600014612baf57604080860151602084015191516323b872dd60e01b81526001600160a01b038981166004830152848116602483015260448201939093529116906323b872dd906064016020604051808303816000875af1158015612b89573d6000803e3d6000fd5b505050506040513d601f19601f82011682018060405250810190612bad9190614df8565b505b600283015415612c805760005b6002840154811015612c7e57612c6a876040518060a00160405280876002018581548110612bec57612bec614de2565b600091825260209182902001546001600160801b031682528a81015163ffffffff16908201526040808b01516001600160a01b03169082015260028801805460609092019186908110612c4157612c41614de2565b60009182526020918290200154600160801b900463ffffffff16825260808b01519101526128f8565b612c749086614fc3565b9450600101612bbc565b505b60058301546001600160a01b03161561335c576005830154600090600160c01b900460e01b6001600160e01b031916156130c25760058401546001600160a01b03808416911603612fe957600080856003016000018054612ce090614ef9565b80601f0160208091040260200160405190810160405280929190818152602001828054612d0c90614ef9565b8015612d595780601f10612d2e57610100808354040283529160200191612d59565b820191906000526020600020905b815481529060010190602001808311612d3c57829003601f168201915b5050505050806020019051810190612d719190614f33565b600588015491935091506302868bf960e11b600160c01b90910460e01b6001600160e01b03191601612e8a5760405163ce55982b60e01b81526001600160a01b038a8116600483015283811660248301526044820183905285169063ce55982b90606401600060405180830381600087803b158015612def57600080fd5b505af1158015612e03573d6000803e3d6000fd5b505089516001600160801b03908116600090815260fc602090815260408083206001600160a01b0389168085529083528184208885528352818420805460ff191690558e519151938452600199508796509450909216917f76529e1c5add2962fbfae2a36bbcf688a5c01516b043ad429f1d81830687a2db910160405180910390a4612fe2565b600586015462fc808960e71b600160c01b90910460e01b6001600160e01b03191601612fe257602088015160405163296789eb60e11b81526001600160a01b038b81166004830152848116602483015263ffffffff909216604482015260648101839052908516906352cf13d690608401600060405180830381600087803b158015612f1557600080fd5b505af1158015612f29573d6000803e3d6000fd5b5050506020808a01518a516001600160801b0316600090815260fd835260408082206001600160a01b03881683528452808220868352909352918220805463ffffffff90921693509190612f7e908490614f77565b909155505087516001600160801b0316600081815260fd602090815260408083206001600160a01b03871680855290835281842086855283529281902054905190815260019650849391600080516020615936833981519152910160405180910390a45b505061333c565b6005840154604080850151885160608a015160208b015160808c015194516001600160a01b038716969495600160c01b90950460e01b946130379493928f92909160038e019160240161525e565b60408051601f198184030181529181526020820180516001600160e01b03166001600160e01b03199094169390931790925290516130759190615354565b60006040518083038185875af1925050503d80600081146130b2576040519150601f19603f3d011682016040523d82523d6000602084013e6130b7565b606091505b50508091505061333c565b6060830151156132185773cf7ed3acca5a467e9e704c703e8d87f634fb0fc96001600160a01b03166359fc470a87600001518660030160020160009054906101000a90046001600160a01b0316896040015187606001516103e8886001600160a01b031663ced72f876040518163ffffffff1660e01b8152600401602060405180830381865afa15801561315a573d6000803e3d6000fd5b505050506040513d601f19601f8201168201806040525081019061317e9190614ff8565b8a6060015161318d9190615370565b61319791906153a5565b6040516001600160e01b031960e088901b1681526001600160801b0390951660048601526001600160a01b0393841660248601529290911660448401526064830152608482015260a401600060405180830381600087803b1580156131fb57600080fd5b505af115801561320f573d6000803e3d6000fd5b50505050613338565b73cf7ed3acca5a467e9e704c703e8d87f634fb0fc96001600160a01b03166339ed512384604001518660030160020160009054906101000a90046001600160a01b03166103e8866001600160a01b031663ced72f876040518163ffffffff1660e01b8152600401602060405180830381865afa15801561329c573d6000803e3d6000fd5b505050506040513d601f19601f820116820180604052508101906132c09190614ff8565b88604001516132cf9190615370565b6132d991906153a5565b6040516001600160e01b031960e086901b1681526001600160a01b03909216600483015260248201526044016000604051808303818588803b15801561331e57600080fd5b505af1158015613332573d6000803e3d6000fd5b50505050505b5060015b8061335a5760405163af6eefa360e01b815260040160405180910390fd5b505b856001600160a01b0316856060015163ffffffff1686600001516001600160801b03167fb5fcbfbc97629da9c45f418c65a8ed3e96873f8e54c6c435180455987431e7a088602001518960400151876040516133ba939291906153b9565b60405180910390a450505092915050565b60088101546001600160a01b0316610428576040516329c2f8dd60e11b815260040160405180910390fd5b609780546001600160a01b038381166001600160a01b0319831681179093556040519116919082907f8be0079c531659141344cd1fd0a4f28419497f9722a3daafe3b4186f6b6457e090600090a35050565b600054610100900460ff1661346f5760405162461bcd60e51b815260040161038b90615403565b610dd76138f0565b600080600080600085875af19050806110105760405162461bcd60e51b815260206004820152601360248201527211551217d514905394d1915497d19052531151606a1b604482015260640161038b565b6134f36040518060800160405280600081526020016000815260200160008152602001600081525090565b6134fc846133cb565b6001600160a01b038316613525578161351485613920565b61351e9190615370565b81526136eb565b6001600160a01b0383166000908152600185016020526040902054600160f81b900460ff16156136725760008080526001850160205260409020546001600160f81b031615158061359857506001600160a01b03831660009081526001850160205260409020546001600160f81b031615155b1561363e576001600160a01b03831660009081526001850160205260408120546001600160f81b031681036135d5576135d085613920565b6135fa565b6001600160a01b03841660009081526001860160205260409020546001600160f81b03165b905082613609858360646139f8565b6136139190615370565b60208301819052600003613638578261362b86613920565b6136359190615370565b82525b506136eb565b6008840154600160f01b900460011660000361366d57604051630b27db6160e11b815260040160405180910390fd5b6136eb565b6001600160a01b03831660009081526001850160205260409020546001600160f81b0316156136d4576001600160a01b03831660009081526001850160205260409020546136ca9083906001600160f81b0316615370565b60208201526136eb565b816136de85613920565b6136e89190615370565b81525b600484015415611e1d576008840154600160f01b900460031c600116158015613783576008850154600160f01b900460021c6001161580159061376757826020015160000361374d57604051630b27db6160e11b815260040160405180910390fd5b600486015461375d908590615370565b606084015261377d565b6004860154613777908590615370565b60408401525b50613821565b6020820151156137dc5782612710866003016001015484602001516137a89190615370565b6137b291906153a5565b6137bc9190615370565b606083018190526020830180516137d4908390614f77565b905250613821565b600485015482518491612710916137f39190615370565b6137fd91906153a5565b6138079190615370565b604083018190528251839061381d908390614f77565b9052505b509392505050565b6001600160a01b0381163b6138965760405162461bcd60e51b815260206004820152602d60248201527f455243313936373a206e657720696d706c656d656e746174696f6e206973206e60448201526c1bdd08184818dbdb9d1c9858dd609a1b606482015260840161038b565b6000805160206158ef83398151915280546001600160a01b0319166001600160a01b0392909216919091179055565b6138ce83613d3e565b6000825111806138db5750805b15611010576138ea8383613d7e565b50505050565b600054610100900460ff166139175760405162461bcd60e51b815260040161038b90615403565b610dd7336133f6565b60008080526001820160205260408120546001600160f81b031615801561395357506008820154600160f01b9004600116155b1561397157604051630b27db6160e11b815260040160405180910390fd5b6000808052600183016020526040902054600160f81b900460ff166139af5760008080526001830160205260409020546001600160f81b0316611ddd565b6139b7613e72565b60008080526001840160205260409020546139e5906001600160f81b031669d3c21bcecceda100000061544e565b6001600160f81b0316611ddd91906153a5565b600080613a04856123c6565b90506001600160a01b03811615613d34576000856001600160a01b031663313ce5676040518163ffffffff1660e01b8152600401602060405180830381865afa158015613a55573d6000803e3d6000fd5b505050506040513d601f19601f82011682018060405250810190613a79919061547d565b60ff16905060008460010b600003613b0657826001600160a01b0316633850c7bd6040518163ffffffff1660e01b815260040160e060405180830381865afa158015613ac9573d6000803e3d6000fd5b505050506040513d601f19601f82011682018060405250810190613aed91906154ac565b50506001600160a01b039094169450613c2f9350505050565b6040805160028082526060820183526000926020830190803683370190505090508561ffff1681600081518110613b3f57613b3f614de2565b63ffffffff9092166020928302919091019091015260405163883bdbfd60e01b81526000906001600160a01b0386169063883bdbfd90613b83908590600401615545565b600060405180830381865afa158015613ba0573d6000803e3d6000fd5b505050506040513d6000823e601f3d908101601f19168201604052613bc891908101906155f3565b509050613c218760010b82600081518110613be557613be5614de2565b602002602001015183600181518110613c0057613c00614de2565b6020026020010151613c1291906156b4565b613c1c9190615704565b613ef6565b6001600160a01b0316925050505b600060026060613c4384633b9aca00615370565b613c4e92911c615826565b9050876001600160a01b0316846001600160a01b0316630dfe16816040518163ffffffff1660e01b8152600401602060405180830381865afa158015613c98573d6000803e3d6000fd5b505050506040513d601f19601f82011682018060405250810190613cbc9190614fdb565b6001600160a01b031614613d0857613cd5836018614f77565b613ce090600a615835565b613cef64e8d4a51000896153a5565b613cf99083615370565b613d0391906153a5565b613d29565b8087613d1585600a615835565b613d1f9190615370565b613d2991906153a5565b945050505050611e1d565b6000915050611e1d565b613d4781613829565b6040516001600160a01b038216907fbc7cd75a20ee27fd9adebab32041f755214dbc6bffa90cc0225b39da2e5c2d3b90600090a250565b60606001600160a01b0383163b613de65760405162461bcd60e51b815260206004820152602660248201527f416464726573733a2064656c65676174652063616c6c20746f206e6f6e2d636f6044820152651b9d1c9858dd60d21b606482015260840161038b565b600080846001600160a01b031684604051613e019190615354565b600060405180830381855af49150503d8060008114613e3c576040519150601f19603f3d011682016040523d82523d6000602084013e613e41565b606091505b5091509150613e69828260405180606001604052806027815260200161590f6027913961430a565b95945050505050565b600080738a753747a1fa494ec906ce90e9f37563a8af630e6001600160a01b031663feaf968c6040518163ffffffff1660e01b815260040160a060405180830381865afa158015613ec7573d6000803e3d6000fd5b505050506040513d601f19601f82011682018060405250810190613eeb919061585b565b509195945050505050565b60008060008360020b12613f0d578260020b613f1a565b8260020b613f1a906158ab565b9050620d89e8811115613f535760405162461bcd60e51b81526020600482015260016024820152601560fa1b604482015260640161038b565b600081600116600003613f6a57600160801b613f7c565b6ffffcb933bd6fad37aa2d162d1a5940015b70ffffffffffffffffffffffffffffffffff1690506002821615613fbb576080613fb6826ffff97272373d413259a46990580e213a615370565b901c90505b6004821615613fe5576080613fe0826ffff2e50f5f656932ef12357cf3c7fdcc615370565b901c90505b600882161561400f57608061400a826fffe5caca7e10e4e61c3624eaa0941cd0615370565b901c90505b6010821615614039576080614034826fffcb9843d60f6159c9db58835c926644615370565b901c90505b602082161561406357608061405e826fff973b41fa98c081472e6896dfb254c0615370565b901c90505b604082161561408d576080614088826fff2ea16466c96a3843ec78b326b52861615370565b901c90505b60808216156140b75760806140b2826ffe5dee046a99a2a811c461f1969c3053615370565b901c90505b6101008216156140e25760806140dd826ffcbe86c7900a88aedcffc83b479aa3a4615370565b901c90505b61020082161561410d576080614108826ff987a7253ac413176f2b074cf7815e54615370565b901c90505b610400821615614138576080614133826ff3392b0822b70005940c7a398e4b70f3615370565b901c90505b61080082161561416357608061415e826fe7159475a2c29b7443b29c7fa6e889d9615370565b901c90505b61100082161561418e576080614189826fd097f3bdfd2022b8845ad8f792aa5825615370565b901c90505b6120008216156141b95760806141b4826fa9f746462d870fdf8a65dc1f90e061e5615370565b901c90505b6140008216156141e45760806141df826f70d869a156d2a1b890bb3df62baf32f7615370565b901c90505b61800082161561420f57608061420a826f31be135f97d08fd981231505542fcfa6615370565b901c90505b6201000082161561423b576080614236826f09aa508b5b7a84e1c677de54f3e99bc9615370565b901c90505b62020000821615614266576080614261826e5d6af8dedb81196699c329225ee604615370565b901c90505b6204000082161561429057608061428b826d2216e584f5fa1ea926041bedfe98615370565b901c90505b620800008216156142b85760806142b3826b048a170391f7dc42444e8fa2615370565b901c90505b60008460020b13156142d3576142d0816000196153a5565b90505b6142e2640100000000826158c7565b156142ee5760016142f1565b60005b6143029060ff16602083901c614fc3565b949350505050565b60608315614319575081611e1d565b8251156143295782518084602001fd5b8160405162461bcd60e51b815260040161038b91906158db565b50805461434f90614ef9565b6000825580601f1061435f575050565b601f0160209004906000526020600020908101906104289190614401565b82805461438990614ef9565b90600052602060002090601f0160209004810192826143ab57600085556143f1565b82601f106143c457805160ff19168380011785556143f1565b828001600101855582156143f1579182015b828111156143f15782518255916020019190600101906143d6565b506143fd929150614401565b5090565b5b808211156143fd5760008155600101614402565b6001600160a01b038116811461042857600080fd5b60006020828403121561443d57600080fd5b8135611e1d81614416565b803563ffffffff8116811461445c57600080fd5b919050565b60ff8116811461042857600080fd5b803561445c81614461565b801515811461042857600080fd5b803561445c8161447b565b60008060008060008060008060e0898b0312156144b057600080fd5b883597506144c060208a01614448565b965060408901356144d081614461565b955060608901356144e08161447b565b945060808901356144f08161447b565b93506144fe60a08a01614448565b925060c08901356001600160401b038082111561451a57600080fd5b818b0191508b601f83011261452e57600080fd5b81358181111561453d57600080fd5b8c602060608302850101111561455257600080fd5b6020830194508093505050509295985092959890939650565b6000806040838503121561457e57600080fd5b8235915061458e60208401614448565b90509250929050565b634e487b7160e01b600052604160045260246000fd5b60405160a081016001600160401b03811182821017156145cf576145cf614597565b60405290565b604080519081016001600160401b03811182821017156145cf576145cf614597565b604051606081016001600160401b03811182821017156145cf576145cf614597565b60405161014081016001600160401b03811182821017156145cf576145cf614597565b604051601f8201601f191681016001600160401b038111828210171561466457614664614597565b604052919050565b600082601f83011261467d57600080fd5b81356001600160401b0381111561469657614696614597565b6146a9601f8201601f191660200161463c565b8181528460208386010111156146be57600080fd5b816020850160208301376000918101602001919091529392505050565b600080604083850312156146ee57600080fd5b82356146f981614416565b915060208301356001600160401b0381111561471457600080fd5b6147208582860161466c565b9150509250929050565b60006001600160401b0382111561474357614743614597565b5060051b60200190565b80356001600160801b038116811461445c57600080fd5b6000806040838503121561477757600080fd5b823561478281614416565b91506020838101356001600160401b038082111561479f57600080fd5b818601915086601f8301126147b357600080fd5b81356147c66147c18261472a565b61463c565b81815260059190911b830184019084810190898311156147e557600080fd5b8585015b838110156148975780358581111561480057600080fd5b860160a0818d03601f190112156148175760008081fd5b61481f6145ad565b61482a89830161474d565b815261483860408301614448565b8982015260608083013561484b81614416565b6040830152608061485d848201614448565b8284015260a08401359150888211156148765760008081fd5b6148848f8c8487010161466c565b90830152508452509186019186016147e9565b508096505050505050509250929050565b600082601f8301126148b957600080fd5b813560206148c96147c18361472a565b82815260069290921b840181019181810190868411156148e857600080fd5b8286015b8481101561493557604081890312156149055760008081fd5b61490d6145d5565b6149168261474d565b8152614923858301614448565b818601528352918301916040016148ec565b509695505050505050565b80356001600160f81b038116811461445c57600080fd5b600082601f83011261496857600080fd5b813560206149786147c18361472a565b8281526060928302850182019282820191908785111561499757600080fd5b8387015b858110156149f75781818a0312156149b35760008081fd5b6149bb6145f7565b6149c482614940565b8152858201356149d38161447b565b818701526040828101356149e681614416565b90820152845292840192810161499b565b5090979650505050505050565b80356001600160e01b03198116811461445c57600080fd5b600060a08284031215614a2e57600080fd5b614a366145ad565b905081356001600160401b03811115614a4e57600080fd5b614a5a8482850161466c565b825250602082013560208201526040820135614a7581614416565b6040820152614a8660608301614a04565b6060820152614a9760808301614a04565b608082015292915050565b600080600060608486031215614ab757600080fd5b8335925060208401356001600160401b0380821115614ad557600080fd5b908501906101408288031215614aea57600080fd5b614af2614619565b823582811115614b0157600080fd5b614b0d898286016148a8565b825250602083013582811115614b2257600080fd5b614b2e89828601614957565b602083015250604083013582811115614b4657600080fd5b614b528982860161466c565b604083015250606083013582811115614b6a57600080fd5b614b768982860161466c565b606083015250614b8860808401614448565b6080820152614b9960a08401614470565b60a0820152614baa60c08401614489565b60c0820152614bbb60e08401614489565b60e0820152610100614bce818501614489565b90820152610120614be0848201614489565b9082015293506040860135915080821115614bfa57600080fd5b50614c0786828701614a1c565b9150509250925092565b600060208284031215614c2357600080fd5b5035919050565b600080600060608486031215614c3f57600080fd5b8335614c4a81614416565b925060208401359150614c5f60408501614448565b90509250925092565b60008060008060808587031215614c7e57600080fd5b84359350614c8e60208601614448565b92506040850135614c9e81614416565b9396929550929360600135925050565b8151815260208083015190820152604080830151908201526060808301519082015260808101611ddd565b60005b83811015614cf4578181015183820152602001614cdc565b838111156138ea5750506000910152565b60008151808452614d1d816020860160208601614cd9565b601f01601f19169290920160200192915050565b8281526040602082015260006143026040830184614d05565b6020808252602c908201527f46756e6374696f6e206d7573742062652063616c6c6564207468726f7567682060408201526b19195b1959d85d1958d85b1b60a21b606082015260800190565b6020808252602c908201527f46756e6374696f6e206d7573742062652063616c6c6564207468726f7567682060408201526b6163746976652070726f787960a01b606082015260800190565b634e487b7160e01b600052603260045260246000fd5b600060208284031215614e0a57600080fd5b8151611e1d8161447b565b600060208284031215614e2757600080fd5b611e1d82614940565b600060208284031215614e4257600080fd5b8135611e1d8161447b565b600060a0820160ff89168352602088151581850152604088151581860152606063ffffffff89168187015260a060808701528387855260c08701905088945060005b88811015614ee8576001600160f81b03614ea887614940565b16825284860135614eb88161447b565b15158286015285840135614ecb81614416565b6001600160a01b0316828501529482019490820190600101614e8f565b509c9b505050505050505050505050565b600181811c90821680614f0d57607f821691505b602082108103614f2d57634e487b7160e01b600052602260045260246000fd5b50919050565b60008060408385031215614f4657600080fd5b8251614f5181614416565b6020939093015192949293505050565b634e487b7160e01b600052601160045260246000fd5b600082821015614f8957614f89614f61565b500390565b6020808252818101527f4f776e61626c653a2063616c6c6572206973206e6f7420746865206f776e6572604082015260600190565b60008219821115614fd657614fd6614f61565b500190565b600060208284031215614fed57600080fd5b8151611e1d81614416565b60006020828403121561500a57600080fd5b5051919050565b600081518084526020808501945080840160005b8381101561505b57815180516001600160801b0316885283015163ffffffff168388015260409096019590820190600101615025565b509495945050505050565b600081518084526020808501945080840160005b8381101561505b57815180516001600160f81b03168852838101511515848901526040908101516001600160a01b0316908801526060909601959082019060010161507a565b6000815160a084526150d560a0850182614d05565b602084810151908601526040808501516001600160a01b0316908601526060808501516001600160e01b0319908116918701919091526080948501511693909401929092525090919050565b63ffffffff8516815260018060a01b0384166020820152608060408201526000835161014080608085015261515a6101c0850183615011565b91506020860151607f19808685030160a08701526151788483615066565b935060408801519150808685030160c08701526151958483614d05565b935060608801519150808685030160e0870152506151b38382614d05565b92505060808601516101006151cf8187018363ffffffff169052565b60a088015191506101206151e78188018460ff169052565b60c089015115159387019390935260e0880151151561016087015287015115156101808601525085015115156101a0840152828103606084015261522b81856150c0565b979650505050505050565b600063ffffffff80831681851680830382111561525557615255614f61565b01949350505050565b6001600160801b038716815263ffffffff8681166020808401919091526001600160a01b0387166040840152908516606083015260c060808301528354600091908290600181811c90828116806152b657607f831692505b85831081036152d357634e487b7160e01b85526022600452602485fd5b60c0880183905260e088018180156152f257600181146153035761532e565b60ff1986168252878201965061532e565b60008c81526020902060005b868110156153285781548482015290850190890161530f565b83019750505b50505050505083810360a08501526153468186614d05565b9a9950505050505050505050565b60008251615366818460208701614cd9565b9190910192915050565b600081600019048311821515161561538a5761538a614f61565b500290565b634e487b7160e01b600052601260045260246000fd5b6000826153b4576153b461538f565b500490565b63ffffffff841681526001600160a01b038316602082015260c081016143026040830184805182526020810151602083015260408101516040830152606081015160608301525050565b6020808252602b908201527f496e697469616c697a61626c653a20636f6e7472616374206973206e6f74206960408201526a6e697469616c697a696e6760a81b606082015260800190565b60006001600160f81b038281168482168115158284048211161561547457615474614f61565b02949350505050565b60006020828403121561548f57600080fd5b8151611e1d81614461565b805161ffff8116811461445c57600080fd5b600080600080600080600060e0888a0312156154c757600080fd5b87516154d281614416565b8097505060208801518060020b81146154ea57600080fd5b95506154f86040890161549a565b94506155066060890161549a565b93506155146080890161549a565b925060a088015161552481614461565b60c08901519092506155358161447b565b8091505092959891949750929550565b6020808252825182820181905260009190848201906040850190845b8181101561558357835163ffffffff1683529284019291840191600101615561565b50909695505050505050565b600082601f8301126155a057600080fd5b815160206155b06147c18361472a565b82815260059290921b840181019181810190868411156155cf57600080fd5b8286015b848110156149355780516155e681614416565b83529183019183016155d3565b6000806040838503121561560657600080fd5b82516001600160401b038082111561561d57600080fd5b818501915085601f83011261563157600080fd5b815160206156416147c18361472a565b82815260059290921b8401810191818101908984111561566057600080fd5b948201945b8386101561568e5785518060060b811461567f5760008081fd5b82529482019490820190615665565b918801519196509093505050808211156156a757600080fd5b506147208582860161558f565b60008160060b8360060b6000811281667fffffffffffff19018312811516156156df576156df614f61565b81667fffffffffffff0183138116156156fa576156fa614f61565b5090039392505050565b60008160060b8360060b8061571b5761571b61538f565b667fffffffffffff1982146000198214161561573957615739614f61565b90059392505050565b600181815b8085111561577d57816000190482111561576357615763614f61565b8085161561577057918102915b93841c9390800290615747565b509250929050565b60008261579457506001611ddd565b816157a157506000611ddd565b81600181146157b757600281146157c1576157dd565b6001915050611ddd565b60ff8411156157d2576157d2614f61565b50506001821b611ddd565b5060208310610133831016604e8410600b8410161715615800575081810a611ddd565b61580a8383615742565b806000190482111561581e5761581e614f61565b029392505050565b6000611e1d60ff841683615785565b6000611e1d8383615785565b805169ffffffffffffffffffff8116811461445c57600080fd5b600080600080600060a0868803121561587357600080fd5b61587c86615841565b945060208601519350604086015192506060860151915061589f60808701615841565b90509295509295909350565b6000600160ff1b82016158c0576158c0614f61565b5060000390565b6000826158d6576158d661538f565b500690565b602081526000611e1d6020830184614d0556fe360894a13ba1a3210667c828492db98dca3e2076cc3735a920a3ca505d382bbc416464726573733a206c6f772d6c6576656c2064656c65676174652063616c6c206661696c6564f0832fe058ed4ffda256632e9c3d7b50283fb2e36310b6beaf08f633b1407057a264697066735822122011f3c7cd9eebb91a2264b709f537bcc59ed843e0304fc4e1b583f5a91cf0504764736f6c634300080d0033",
  "linkReferences": {},
  "deployedLinkReferences": {}
}