{
  "_format": "hh-sol-artifact-1",
  "contractName": "ProductsModule",
  "sourceName": "contracts/ProductsModule.sol",
  "abi": [
    {
      "inputs": [],
      "stateMutability": "nonpayable",
      "type": "constructor"
    },
    {
      "inputs": [],
      "name": "ActiveListing",
      "type": "error"
    },
    {
      "inputs": [],
      "name": "ExceedsMaxValue",
      "type": "error"
    },
    {
      "inputs": [],
      "name": "InexistentPool",
      "type": "error"
    },
    {
      "inputs": [],
      "name": "InexistentProduct",
      "type": "error"
    },
    {
      "inputs": [],
      "name": "Invalid",
      "type": "error"
    },
    {
      "inputs": [],
      "name": "NoDelegatecall",
      "type": "error"
    },
    {
      "inputs": [],
      "name": "NotAuthorized",
      "type": "error"
    },
    {
      "inputs": [],
      "name": "NotPurchased",
      "type": "error"
    },
    {
      "inputs": [],
      "name": "NotSuccessful",
      "type": "error"
    },
    {
      "inputs": [],
      "name": "StoreNotOpen",
      "type": "error"
    },
    {
      "inputs": [],
      "name": "TooSoon",
      "type": "error"
    },
    {
      "inputs": [],
      "name": "WrongCurrency",
      "type": "error"
    },
    {
      "anonymous": false,
      "inputs": [
        {
          "indexed": false,
          "internalType": "address",
          "name": "previousAdmin",
          "type": "address"
        },
        {
          "indexed": false,
          "internalType": "address",
          "name": "newAdmin",
          "type": "address"
        }
      ],
      "name": "AdminChanged",
      "type": "event"
    },
    {
      "anonymous": false,
      "inputs": [
        {
          "indexed": true,
          "internalType": "address",
          "name": "beacon",
          "type": "address"
        }
      ],
      "name": "BeaconUpgraded",
      "type": "event"
    },
    {
      "anonymous": false,
      "inputs": [
        {
          "indexed": true,
          "internalType": "uint256",
          "name": "slicerId",
          "type": "uint256"
        },
        {
          "indexed": true,
          "internalType": "address",
          "name": "contractAddress",
          "type": "address"
        },
        {
          "indexed": true,
          "internalType": "uint256",
          "name": "tokenId",
          "type": "uint256"
        },
        {
          "indexed": false,
          "internalType": "uint256",
          "name": "currentAmount",
          "type": "uint256"
        }
      ],
      "name": "ERC1155ListingChanged",
      "type": "event"
    },
    {
      "anonymous": false,
      "inputs": [
        {
          "indexed": true,
          "internalType": "uint256",
          "name": "slicerId",
          "type": "uint256"
        },
        {
          "indexed": true,
          "internalType": "address",
          "name": "contractAddress",
          "type": "address"
        },
        {
          "indexed": true,
          "internalType": "uint256",
          "name": "tokenId",
          "type": "uint256"
        },
        {
          "indexed": false,
          "internalType": "bool",
          "name": "isActive",
          "type": "bool"
        }
      ],
      "name": "ERC721ListingChanged",
      "type": "event"
    },
    {
      "anonymous": false,
      "inputs": [
        {
          "indexed": false,
          "internalType": "uint8",
          "name": "version",
          "type": "uint8"
        }
      ],
      "name": "Initialized",
      "type": "event"
    },
    {
      "anonymous": false,
      "inputs": [
        {
          "indexed": true,
          "internalType": "address",
          "name": "previousOwner",
          "type": "address"
        },
        {
          "indexed": true,
          "internalType": "address",
          "name": "newOwner",
          "type": "address"
        }
      ],
      "name": "OwnershipTransferred",
      "type": "event"
    },
    {
      "anonymous": false,
      "inputs": [
        {
          "indexed": false,
          "internalType": "address",
          "name": "account",
          "type": "address"
        }
      ],
      "name": "Paused",
      "type": "event"
    },
    {
      "anonymous": false,
      "inputs": [
        {
          "indexed": true,
          "internalType": "uint256",
          "name": "slicerId",
          "type": "uint256"
        },
        {
          "indexed": true,
          "internalType": "uint256",
          "name": "productId",
          "type": "uint256"
        },
        {
          "indexed": true,
          "internalType": "uint256",
          "name": "categoryIndex",
          "type": "uint256"
        },
        {
          "indexed": false,
          "internalType": "address",
          "name": "creator",
          "type": "address"
        },
        {
          "components": [
            {
              "components": [
                {
                  "internalType": "uint128",
                  "name": "subSlicerId",
                  "type": "uint128"
                },
                {
                  "internalType": "uint32",
                  "name": "subProductId",
                  "type": "uint32"
                }
              ],
              "internalType": "struct SubSlicerProduct[]",
              "name": "subSlicerProducts",
              "type": "tuple[]"
            },
            {
              "components": [
                {
                  "internalType": "uint248",
                  "name": "value",
                  "type": "uint248"
                },
                {
                  "internalType": "bool",
                  "name": "dynamicPricing",
                  "type": "bool"
                },
                {
                  "internalType": "address",
                  "name": "externalAddress",
                  "type": "address"
                },
                {
                  "internalType": "address",
                  "name": "currency",
                  "type": "address"
                }
              ],
              "internalType": "struct CurrencyPrice[]",
              "name": "currencyPrices",
              "type": "tuple[]"
            },
            {
              "internalType": "bytes",
              "name": "data",
              "type": "bytes"
            },
            {
              "internalType": "bytes",
              "name": "purchaseData",
              "type": "bytes"
            },
            {
              "internalType": "uint32",
              "name": "availableUnits",
              "type": "uint32"
            },
            {
              "internalType": "uint8",
              "name": "maxUnitsPerBuyer",
              "type": "uint8"
            },
            {
              "internalType": "bool",
              "name": "isFree",
              "type": "bool"
            },
            {
              "internalType": "bool",
              "name": "isInfinite",
              "type": "bool"
            },
            {
              "internalType": "bool",
              "name": "isExternalCallPaymentRelative",
              "type": "bool"
            },
            {
              "internalType": "bool",
              "name": "isExternalCallPreferredToken",
              "type": "bool"
            }
          ],
          "indexed": false,
          "internalType": "struct ProductParams",
          "name": "params",
          "type": "tuple"
        },
        {
          "components": [
            {
              "internalType": "bytes",
              "name": "data",
              "type": "bytes"
            },
            {
              "internalType": "uint256",
              "name": "value",
              "type": "uint256"
            },
            {
              "internalType": "address",
              "name": "externalAddress",
              "type": "address"
            },
            {
              "internalType": "bytes4",
              "name": "checkFunctionSignature",
              "type": "bytes4"
            },
            {
              "internalType": "bytes4",
              "name": "execFunctionSignature",
              "type": "bytes4"
            }
          ],
          "indexed": false,
          "internalType": "struct Function",
          "name": "externalCall",
          "type": "tuple"
        }
      ],
      "name": "ProductAdded",
      "type": "event"
    },
    {
      "anonymous": false,
      "inputs": [
        {
          "indexed": true,
          "internalType": "uint256",
          "name": "slicerId",
          "type": "uint256"
        },
        {
          "indexed": true,
          "internalType": "uint256",
          "name": "productId",
          "type": "uint256"
        },
        {
          "indexed": false,
          "internalType": "uint8",
          "name": "maxUnitsPerBuyer",
          "type": "uint8"
        },
        {
          "indexed": false,
          "internalType": "bool",
          "name": "isFree",
          "type": "bool"
        },
        {
          "indexed": false,
          "internalType": "bool",
          "name": "isInfinite",
          "type": "bool"
        },
        {
          "indexed": false,
          "internalType": "uint256",
          "name": "newUnits",
          "type": "uint256"
        },
        {
          "components": [
            {
              "internalType": "uint248",
              "name": "value",
              "type": "uint248"
            },
            {
              "internalType": "bool",
              "name": "dynamicPricing",
              "type": "bool"
            },
            {
              "internalType": "address",
              "name": "externalAddress",
              "type": "address"
            },
            {
              "internalType": "address",
              "name": "currency",
              "type": "address"
            }
          ],
          "indexed": false,
          "internalType": "struct CurrencyPrice[]",
          "name": "currencyPrices",
          "type": "tuple[]"
        }
      ],
      "name": "ProductInfoChanged",
      "type": "event"
    },
    {
      "anonymous": false,
      "inputs": [
        {
          "indexed": true,
          "internalType": "uint256",
          "name": "slicerId",
          "type": "uint256"
        },
        {
          "indexed": true,
          "internalType": "uint256",
          "name": "productId",
          "type": "uint256"
        },
        {
          "indexed": false,
          "internalType": "uint256",
          "name": "quantity",
          "type": "uint256"
        },
        {
          "indexed": true,
          "internalType": "address",
          "name": "buyer",
          "type": "address"
        },
        {
          "indexed": false,
          "internalType": "address",
          "name": "currency",
          "type": "address"
        },
        {
          "components": [
            {
              "internalType": "uint256",
              "name": "eth",
              "type": "uint256"
            },
            {
              "internalType": "uint256",
              "name": "currency",
              "type": "uint256"
            },
            {
              "internalType": "uint256",
              "name": "ethExternalCall",
              "type": "uint256"
            },
            {
              "internalType": "uint256",
              "name": "currencyExternalCall",
              "type": "uint256"
            }
          ],
          "indexed": false,
          "internalType": "struct Price",
          "name": "price",
          "type": "tuple"
        }
      ],
      "name": "ProductPaid",
      "type": "event"
    },
    {
      "anonymous": false,
      "inputs": [
        {
          "indexed": true,
          "internalType": "uint256",
          "name": "slicerId",
          "type": "uint256"
        },
        {
          "indexed": true,
          "internalType": "uint256",
          "name": "productId",
          "type": "uint256"
        }
      ],
      "name": "ProductRemoved",
      "type": "event"
    },
    {
      "anonymous": false,
      "inputs": [
        {
          "indexed": true,
          "internalType": "uint256",
          "name": "slicerId",
          "type": "uint256"
        },
        {
          "indexed": false,
          "internalType": "uint256",
          "name": "ethToRelease",
          "type": "uint256"
        }
      ],
      "name": "ReleasedToSlicer",
      "type": "event"
    },
    {
      "anonymous": false,
      "inputs": [
        {
          "indexed": true,
          "internalType": "uint256",
          "name": "slicerId",
          "type": "uint256"
        },
        {
          "indexed": false,
          "internalType": "bool",
          "name": "isStoreClosed",
          "type": "bool"
        }
      ],
      "name": "StoreClosed",
      "type": "event"
    },
    {
      "anonymous": false,
      "inputs": [
        {
          "indexed": false,
          "internalType": "address",
          "name": "account",
          "type": "address"
        }
      ],
      "name": "Unpaused",
      "type": "event"
    },
    {
      "anonymous": false,
      "inputs": [
        {
          "indexed": true,
          "internalType": "address",
          "name": "implementation",
          "type": "address"
        }
      ],
      "name": "Upgraded",
      "type": "event"
    },
    {
      "inputs": [],
      "name": "MINT_PRODUCT_AMOUNT",
      "outputs": [
        {
          "internalType": "uint256",
          "name": "",
          "type": "uint256"
        }
      ],
      "stateMutability": "view",
      "type": "function"
    },
    {
      "inputs": [
        {
          "internalType": "uint256",
          "name": "slicerId",
          "type": "uint256"
        },
        {
          "internalType": "bool",
          "name": "isClosed",
          "type": "bool"
        }
      ],
      "name": "_setStoreClosed",
      "outputs": [],
      "stateMutability": "nonpayable",
      "type": "function"
    },
    {
      "inputs": [],
      "name": "_togglePause",
      "outputs": [],
      "stateMutability": "nonpayable",
      "type": "function"
    },
    {
      "inputs": [
        {
          "internalType": "uint256",
          "name": "slicerId",
          "type": "uint256"
        },
        {
          "components": [
            {
              "components": [
                {
                  "internalType": "uint128",
                  "name": "subSlicerId",
                  "type": "uint128"
                },
                {
                  "internalType": "uint32",
                  "name": "subProductId",
                  "type": "uint32"
                }
              ],
              "internalType": "struct SubSlicerProduct[]",
              "name": "subSlicerProducts",
              "type": "tuple[]"
            },
            {
              "components": [
                {
                  "internalType": "uint248",
                  "name": "value",
                  "type": "uint248"
                },
                {
                  "internalType": "bool",
                  "name": "dynamicPricing",
                  "type": "bool"
                },
                {
                  "internalType": "address",
                  "name": "externalAddress",
                  "type": "address"
                },
                {
                  "internalType": "address",
                  "name": "currency",
                  "type": "address"
                }
              ],
              "internalType": "struct CurrencyPrice[]",
              "name": "currencyPrices",
              "type": "tuple[]"
            },
            {
              "internalType": "bytes",
              "name": "data",
              "type": "bytes"
            },
            {
              "internalType": "bytes",
              "name": "purchaseData",
              "type": "bytes"
            },
            {
              "internalType": "uint32",
              "name": "availableUnits",
              "type": "uint32"
            },
            {
              "internalType": "uint8",
              "name": "maxUnitsPerBuyer",
              "type": "uint8"
            },
            {
              "internalType": "bool",
              "name": "isFree",
              "type": "bool"
            },
            {
              "internalType": "bool",
              "name": "isInfinite",
              "type": "bool"
            },
            {
              "internalType": "bool",
              "name": "isExternalCallPaymentRelative",
              "type": "bool"
            },
            {
              "internalType": "bool",
              "name": "isExternalCallPreferredToken",
              "type": "bool"
            }
          ],
          "internalType": "struct ProductParams",
          "name": "params",
          "type": "tuple"
        },
        {
          "components": [
            {
              "internalType": "bytes",
              "name": "data",
              "type": "bytes"
            },
            {
              "internalType": "uint256",
              "name": "value",
              "type": "uint256"
            },
            {
              "internalType": "address",
              "name": "externalAddress",
              "type": "address"
            },
            {
              "internalType": "bytes4",
              "name": "checkFunctionSignature",
              "type": "bytes4"
            },
            {
              "internalType": "bytes4",
              "name": "execFunctionSignature",
              "type": "bytes4"
            }
          ],
          "internalType": "struct Function",
          "name": "externalCall_",
          "type": "tuple"
        }
      ],
      "name": "addProduct",
      "outputs": [],
      "stateMutability": "nonpayable",
      "type": "function"
    },
    {
      "inputs": [
        {
          "internalType": "uint256",
          "name": "slicerId",
          "type": "uint256"
        },
        {
          "internalType": "uint256",
          "name": "productId",
          "type": "uint256"
        }
      ],
      "name": "availableUnits",
      "outputs": [
        {
          "internalType": "uint256",
          "name": "units",
          "type": "uint256"
        },
        {
          "internalType": "bool",
          "name": "isInfinite",
          "type": "bool"
        }
      ],
      "stateMutability": "view",
      "type": "function"
    },
    {
      "inputs": [
        {
          "internalType": "uint256",
          "name": "slicerId",
          "type": "uint256"
        }
      ],
      "name": "ethBalance",
      "outputs": [
        {
          "internalType": "uint256",
          "name": "",
          "type": "uint256"
        }
      ],
      "stateMutability": "view",
      "type": "function"
    },
    {
      "inputs": [],
      "name": "fundsModule",
      "outputs": [
        {
          "internalType": "contract IFundsModule",
          "name": "",
          "type": "address"
        }
      ],
      "stateMutability": "view",
      "type": "function"
    },
    {
      "inputs": [],
      "name": "initialize",
      "outputs": [],
      "stateMutability": "nonpayable",
      "type": "function"
    },
    {
      "inputs": [
        {
          "internalType": "uint256",
          "name": "slicerId",
          "type": "uint256"
        },
        {
          "internalType": "uint256",
          "name": "productId",
          "type": "uint256"
        },
        {
          "internalType": "address",
          "name": "account",
          "type": "address"
        }
      ],
      "name": "isProductOwner",
      "outputs": [
        {
          "internalType": "bool",
          "name": "isAllowed",
          "type": "bool"
        }
      ],
      "stateMutability": "view",
      "type": "function"
    },
    {
      "inputs": [],
      "name": "owner",
      "outputs": [
        {
          "internalType": "address",
          "name": "",
          "type": "address"
        }
      ],
      "stateMutability": "view",
      "type": "function"
    },
    {
      "inputs": [],
      "name": "paused",
      "outputs": [
        {
          "internalType": "bool",
          "name": "",
          "type": "bool"
        }
      ],
      "stateMutability": "view",
      "type": "function"
    },
    {
      "inputs": [
        {
          "components": [
            {
              "internalType": "address",
              "name": "buyer",
              "type": "address"
            },
            {
              "internalType": "uint128",
              "name": "slicerId",
              "type": "uint128"
            },
            {
              "internalType": "uint32",
              "name": "quantity",
              "type": "uint32"
            },
            {
              "internalType": "address",
              "name": "currency",
              "type": "address"
            },
            {
              "internalType": "uint32",
              "name": "productId",
              "type": "uint32"
            },
            {
              "internalType": "bytes",
              "name": "buyerCustomData",
              "type": "bytes"
            }
          ],
          "internalType": "struct PurchaseParams[]",
          "name": "purchases",
          "type": "tuple[]"
        }
      ],
      "name": "payProducts",
      "outputs": [],
      "stateMutability": "payable",
      "type": "function"
    },
    {
      "inputs": [],
      "name": "priceFeed",
      "outputs": [
        {
          "internalType": "contract IPriceFeed",
          "name": "",
          "type": "address"
        }
      ],
      "stateMutability": "view",
      "type": "function"
    },
    {
      "inputs": [
        {
          "internalType": "uint256",
          "name": "slicerId",
          "type": "uint256"
        },
        {
          "internalType": "uint256",
          "name": "productId",
          "type": "uint256"
        },
        {
          "internalType": "address",
          "name": "currency",
          "type": "address"
        },
        {
          "internalType": "uint256",
          "name": "quantity",
          "type": "uint256"
        },
        {
          "internalType": "address",
          "name": "buyer",
          "type": "address"
        },
        {
          "internalType": "bytes",
          "name": "data",
          "type": "bytes"
        }
      ],
      "name": "productPrice",
      "outputs": [
        {
          "components": [
            {
              "internalType": "uint256",
              "name": "eth",
              "type": "uint256"
            },
            {
              "internalType": "uint256",
              "name": "currency",
              "type": "uint256"
            },
            {
              "internalType": "uint256",
              "name": "ethExternalCall",
              "type": "uint256"
            },
            {
              "internalType": "uint256",
              "name": "currencyExternalCall",
              "type": "uint256"
            }
          ],
          "internalType": "struct Price",
          "name": "price",
          "type": "tuple"
        }
      ],
      "stateMutability": "view",
      "type": "function"
    },
    {
      "inputs": [],
      "name": "proxiableUUID",
      "outputs": [
        {
          "internalType": "bytes32",
          "name": "",
          "type": "bytes32"
        }
      ],
      "stateMutability": "view",
      "type": "function"
    },
    {
      "inputs": [
        {
          "internalType": "uint256",
          "name": "slicerId",
          "type": "uint256"
        }
      ],
      "name": "releaseEthToSlicer",
      "outputs": [],
      "stateMutability": "nonpayable",
      "type": "function"
    },
    {
      "inputs": [
        {
          "internalType": "uint256",
          "name": "slicerId",
          "type": "uint256"
        },
        {
          "internalType": "uint256",
          "name": "productId",
          "type": "uint256"
        }
      ],
      "name": "removeProduct",
      "outputs": [],
      "stateMutability": "nonpayable",
      "type": "function"
    },
    {
      "inputs": [],
      "name": "renounceOwnership",
      "outputs": [],
      "stateMutability": "nonpayable",
      "type": "function"
    },
    {
      "inputs": [
        {
          "internalType": "uint256",
          "name": "slicerId",
          "type": "uint256"
        },
        {
          "internalType": "uint256",
          "name": "productId",
          "type": "uint256"
        },
        {
          "internalType": "uint8",
          "name": "newMaxUnits",
          "type": "uint8"
        },
        {
          "internalType": "bool",
          "name": "isFree",
          "type": "bool"
        },
        {
          "internalType": "bool",
          "name": "isInfinite",
          "type": "bool"
        },
        {
          "internalType": "uint32",
          "name": "newUnits",
          "type": "uint32"
        },
        {
          "components": [
            {
              "internalType": "uint248",
              "name": "value",
              "type": "uint248"
            },
            {
              "internalType": "bool",
              "name": "dynamicPricing",
              "type": "bool"
            },
            {
              "internalType": "address",
              "name": "externalAddress",
              "type": "address"
            },
            {
              "internalType": "address",
              "name": "currency",
              "type": "address"
            }
          ],
          "internalType": "struct CurrencyPrice[]",
          "name": "currencyPrices",
          "type": "tuple[]"
        }
      ],
      "name": "setProductInfo",
      "outputs": [],
      "stateMutability": "nonpayable",
      "type": "function"
    },
    {
      "inputs": [],
      "name": "sliceCore",
      "outputs": [
        {
          "internalType": "contract ISliceCore",
          "name": "",
          "type": "address"
        }
      ],
      "stateMutability": "view",
      "type": "function"
    },
    {
      "inputs": [
        {
          "internalType": "address",
          "name": "newOwner",
          "type": "address"
        }
      ],
      "name": "transferOwnership",
      "outputs": [],
      "stateMutability": "nonpayable",
      "type": "function"
    },
    {
      "inputs": [
        {
          "internalType": "address",
          "name": "newImplementation",
          "type": "address"
        }
      ],
      "name": "upgradeTo",
      "outputs": [],
      "stateMutability": "nonpayable",
      "type": "function"
    },
    {
      "inputs": [
        {
          "internalType": "address",
          "name": "newImplementation",
          "type": "address"
        },
        {
          "internalType": "bytes",
          "name": "data",
          "type": "bytes"
        }
      ],
      "name": "upgradeToAndCall",
      "outputs": [],
      "stateMutability": "payable",
      "type": "function"
    },
    {
      "inputs": [
        {
          "internalType": "uint256",
          "name": "slicerId",
          "type": "uint256"
        },
        {
          "internalType": "uint256",
          "name": "productId",
          "type": "uint256"
        }
      ],
      "name": "validatePurchase",
      "outputs": [
        {
          "internalType": "uint256",
          "name": "purchases",
          "type": "uint256"
        },
        {
          "internalType": "bytes",
          "name": "purchaseData",
          "type": "bytes"
        }
      ],
      "stateMutability": "view",
      "type": "function"
    },
    {
      "inputs": [
        {
          "internalType": "address",
          "name": "account",
          "type": "address"
        },
        {
          "internalType": "uint256",
          "name": "slicerId",
          "type": "uint256"
        },
        {
          "internalType": "uint256",
          "name": "productId",
          "type": "uint256"
        }
      ],
      "name": "validatePurchaseUnits",
      "outputs": [
        {
          "internalType": "uint256",
          "name": "purchases",
          "type": "uint256"
        }
      ],
      "stateMutability": "view",
      "type": "function"
    }
  ],
  "bytecode": "0x60a0604052306080523480156200001557600080fd5b506200002062000026565b620000e8565b600054610100900460ff1615620000935760405162461bcd60e51b815260206004820152602760248201527f496e697469616c697a61626c653a20636f6e747261637420697320696e697469604482015266616c697a696e6760c81b606482015260840160405180910390fd5b60005460ff9081161015620000e6576000805460ff191660ff9081179091556040519081527f7f26b83ff96e1f2b6a682f133852f6798a09c465da95921460cefb38474024989060200160405180910390a15b565b6080516153db6200012060003960008181610a8e01528181610ad701528181610cef01528181610d2f015261109e01526153db6000f3fe6080604052600436106101665760003560e01c80637a77fa45116100d1578063c993a08d1161008a578063e6e9280811610064578063e6e928081461046f578063f2fde38b1461048f578063f4c76363146104af578063ff3ef63f146104d757600080fd5b8063c993a08d1461040f578063d2c5ca9a1461042f578063d7a3d0c81461044257600080fd5b80637a77fa451461035f5780638129fc1c1461037f5780638da5cb5b1461039457806395f23704146103b2578063b79811e2146103d2578063bf17f2f2146103ef57600080fd5b80635287d535116101235780635287d5351461027b57806352d1902d1461029b5780635c975abb146102be5780636740ff40146102e2578063715018a614610322578063741bef1a1461033757600080fd5b80630d24c6701461016b5780631eafafb41461018d5780633659cfe614610205578063405b4c36146102255780634c04e9c61461023a5780634f1ef28614610268575b600080fd5b34801561017757600080fd5b5061018b6101863660046140e3565b6104f7565b005b34801561019957600080fd5b506101eb6101a83660046141b1565b600091825260fb60209081526040808420928452600192830190915290912060080154600160c81b810463ffffffff1692600160f01b909104821c909116151590565b604080519283529015156020830152015b60405180910390f35b34801561021157600080fd5b5061018b6102203660046141e8565b610a84565b34801561023157600080fd5b5061018b610b6c565b34801561024657600080fd5b5061025a6102553660046141b1565b610b91565b6040516101fc92919061425d565b61018b6102763660046143ba565b610ce5565b34801561028757600080fd5b5061018b6102963660046141b1565b610db5565b3480156102a757600080fd5b506102b0611091565b6040519081526020016101fc565b3480156102ca57600080fd5b5060c95460ff165b60405190151581526020016101fc565b3480156102ee57600080fd5b5061030a735cef0380ce0ad3daeefef8bdb85dbded7965adf981565b6040516001600160a01b0390911681526020016101fc565b34801561032e57600080fd5b5061018b611144565b34801561034357600080fd5b5061030a7371c96edd5d36935d5c8d6b78bccd4113725297e381565b34801561036b57600080fd5b5061018b61037a366004614409565b611156565b34801561038b57600080fd5b5061018b61125c565b3480156103a057600080fd5b506097546001600160a01b031661030a565b3480156103be57600080fd5b506102b06103cd366004614439565b61136c565b3480156103de57600080fd5b506102b0686c6b935b8bbd40000081565b3480156103fb57600080fd5b506102b061040a36600461446e565b6113a8565b34801561041b57600080fd5b5061018b61042a36600461446e565b6113d3565b61018b61043d3660046144c1565b611456565b34801561044e57600080fd5b5061046261045d366004614608565b61153f565b6040516101fc9190614685565b34801561047b57600080fd5b506102d261048a3660046146b0565b6115a1565b34801561049b57600080fd5b5061018b6104aa3660046141e8565b6115e7565b3480156104bb57600080fd5b5061030a73ae38a794e839d045460839abe288a8e5c28b0fc681565b3480156104e357600080fd5b5061018b6104f236600461491d565b61165d565b600088815260fb6020908152604080832060038101548b855260019091019092529091206001600160a01b039091169081906105348183336122f2565b6105515760405163ea8e4eb560e01b815260040160405180910390fd5b83156108b1576040805160808101825260008082526020820181905291810182905260608101829052905b858110156108ae5786868281811061059657610596614a8c565b9050608002018036038101906105ac9190614aa2565b60608101519092506001600160a01b03161561064f57606082015160405163b25e9c3960e01b81526001600160a01b0391821660048201529085169063b25e9c3990602401602060405180830381865afa15801561060e573d6000803e3d6000fd5b505050506040513d601f19601f820116820180604052508101906106329190614abe565b61064f57604051630b27db6160e11b815260040160405180910390fd5b60608201516001600160a01b0316600090815260018401602052604090205482516001600160f81b039081169116146106c057815160608301516001600160a01b03166000908152600185016020526040902080546001600160f81b0319166001600160f81b039092169190911790555b60608201516001600160a01b0316600090815260018401602090815260409091205490830151600160f81b90910460ff161515901515146108345760608201516001600160a01b0316156107f257606082015160405163a2d7046f60e01b815273c02aaa39b223fe8d0a0e5c4f27ead9083c756cc260048201526001600160a01b03909116602482015262093a806044820152600260648201526000907371c96edd5d36935d5c8d6b78bccd4113725297e39063a2d7046f906084016000604051808303816000875af115801561079b573d6000803e3d6000fd5b505050506040513d6000823e601f3d908101601f191682016040526107c39190810190614b51565b505080519091506001600160a01b03166107f057604051632b9bb16560e11b815260040160405180910390fd5b505b60208083015160608401516001600160a01b031660009081526001860190925260409091208054911515600160f81b026001600160f81b039092169190911790555b60608201516001600160a01b039081166000908152600180860160205260409182902001549084015182169116146108a65760408281015160608401516001600160a01b039081166000908152600187810160205293902090920180546001600160a01b031916929091169190911790555b60010161057c565b50505b6108c48b84898963ffffffff16856123fd565b8780156108dd57506008810154600160f01b9004600116155b806108fe5750871580156108fe57506008810154600160f01b900460011615155b156109295760088101805460ff600160f01b80830482166001189091160260ff60f01b199091161790555b86801561094557506008810154600160f01b9004600190811c16155b8061096957508615801561096957506008810154600160f01b9004600190811c1615155b156109945760088101805460ff600160f01b80830482166002189091160260ff60f01b199091161790555b600881015460ff8a8116600160e81b90920416146109c75760088101805460ff60e81b1916600160e81b60ff8c16021790555b86156109e45760088101805463ffffffff60c81b19169055610a20565b600881015463ffffffff878116600160c81b9092041614610a205760088101805463ffffffff60c81b1916600160c81b63ffffffff8916021790555b898b7f47ed3606b96c516c076d9567a4deb8181f5da7370bdb1fedb883a7d3d5e890b98b8b8b8660080160199054906101000a900463ffffffff168b8b604051610a6f96959493929190614c1e565b60405180910390a35050505050505050505050565b6001600160a01b037f0000000000000000000000000000000000000000000000000000000000000000163003610ad55760405162461bcd60e51b8152600401610acc90614ce1565b60405180910390fd5b7f00000000000000000000000000000000000000000000000000000000000000006001600160a01b0316610b1e60008051602061533f833981519152546001600160a01b031690565b6001600160a01b031614610b445760405162461bcd60e51b8152600401610acc90614d2d565b610b4d816126d0565b60408051600080825260208201909252610b69918391906126d8565b50565b610b74612843565b60c95460ff1615610b8957610b8761289d565b565b610b876128ef565b6000606030730fd0d9aa44a05ee158ddf6f01d7dcf503388781d14610bc95760405163acbcffa760e01b815260040160405180910390fd5b600084815260fb60209081526040808320868452600101825280832033845290915281205463ffffffff169003610c13576040516363aae7a360e01b815260040160405180910390fd5b600084815260fb602090815260408083208684526001018083528184203385528084529184205493879052909152600701805463ffffffff909216918190610c5a90614d79565b80601f0160208091040260200160405190810160405280929190818152602001828054610c8690614d79565b8015610cd35780601f10610ca857610100808354040283529160200191610cd3565b820191906000526020600020905b815481529060010190602001808311610cb657829003601f168201915b50505050509050915091509250929050565b6001600160a01b037f0000000000000000000000000000000000000000000000000000000000000000163003610d2d5760405162461bcd60e51b8152600401610acc90614ce1565b7f00000000000000000000000000000000000000000000000000000000000000006001600160a01b0316610d7660008051602061533f833981519152546001600160a01b031690565b6001600160a01b031614610d9c5760405162461bcd60e51b8152600401610acc90614d2d565b610da5826126d0565b610db1828260016126d8565b5050565b600082815260fb60209081526040808320600381015485855260019091019092529091206001600160a01b03909116908190610df28183336122f2565b610e0f5760405163ea8e4eb560e01b815260040160405180910390fd5b60058101546001600160a01b0380851691160361103557600080826003016000018054610e3b90614d79565b80601f0160208091040260200160405190810160405280929190818152602001828054610e6790614d79565b8015610eb45780601f10610e8957610100808354040283529160200191610eb4565b820191906000526020600020905b815481529060010190602001808311610e9757829003601f168201915b5050505050806020019051810190610ecc9190614db3565b600585015491935091506302868bf960e11b600160c01b90910460e01b6001600160e01b03191601610f6757600087815260fc602090815260408083206001600160a01b0386168085529083528184208585528352818420805460ff191690559051928352839290918a917f76529e1c5add2962fbfae2a36bbcf688a5c01516b043ad429f1d81830687a2db910160405180910390a4611032565b600583015462fc808960e71b600160c01b90910460e01b6001600160e01b03191601611032576008830154600088815260fd602090815260408083206001600160a01b0387168452825280832085845290915281208054600160c81b90930463ffffffff1692909190610fdb908490614df7565b9091555050600087815260fd602090815260408083206001600160a01b0386168085529083528184208585528352928190205490519081528392918a91600080516020615386833981519152910160405180910390a45b50505b600881018054600168ffffffff000000000160a01b031916905561105d600682016000613fd2565b604051849086907fd647384cccbd8b477a7b02b9e866072937e9a23b473b9de13fc0c6cb1d392a0a90600090a35050505050565b6000306001600160a01b037f000000000000000000000000000000000000000000000000000000000000000016146111315760405162461bcd60e51b815260206004820152603860248201527f555550535570677261646561626c653a206d757374206e6f742062652063616c60448201527f6c6564207468726f7567682064656c656761746563616c6c00000000000000006064820152608401610acc565b5060008051602061533f83398151915290565b61114c612843565b610b87600061292c565b600082815260fb60205260409081902060030154905163166eb15b60e21b81523360048201526001600160a01b039091169081906359bac56c90602401602060405180830381865afa1580156111b0573d6000803e3d6000fd5b505050506040513d601f19601f820116820180604052508101906111d49190614abe565b6111f15760405163ea8e4eb560e01b815260040160405180910390fd5b827f8c6e9bb8cde5fe30df326b2ec6bd9b6a0cc6cb8b2ec744b72baa06ac3de60ade83604051611225911515815260200190565b60405180910390a250600091825260fb60205260409091206003018054911515600160a01b0260ff60a01b19909216919091179055565b600054610100900460ff161580801561127c5750600054600160ff909116105b806112965750303b158015611296575060005460ff166001145b6112f95760405162461bcd60e51b815260206004820152602e60248201527f496e697469616c697a61626c653a20636f6e747261637420697320616c72656160448201526d191e481a5b9a5d1a585b1a5e995960921b6064820152608401610acc565b6000805460ff19166001179055801561131c576000805461ff0019166101001790555b61132461297e565b8015610b69576000805461ff0019169055604051600181527f7f26b83ff96e1f2b6a682f133852f6798a09c465da95921460cefb38474024989060200160405180910390a150565b600082815260fb6020908152604080832084845260010182528083206001600160a01b038716845290915290205463ffffffff165b9392505050565b600081815260fb6020526040812060020154600181116113c95760006113a1565b6000190192915050565b60006113de826113a8565b90508015610db157600082815260fb60205260409020600381015460016002909201919091556001600160a01b031661141781836129ad565b827f04cc711f7db61e897a32f3fe3e3faa9861b68d7d19fd9a669348213087b227268360405161144991815260200190565b60405180910390a2505050565b61145e6129fe565b6000805b82518110156114a15761148d83828151811061148057611480614a8c565b6020026020010151612a44565b6114979083614e0e565b9150600101611462565b5081516040516340c10f1960e01b8152336004820152686c6b935b8bbd4000009091026024820152730ff87dfaa798489dff93df8c1236e67539141483906340c10f1990604401600060405180830381600087803b15801561150257600080fd5b505af1158015611516573d6000803e3d6000fd5b50505050600081346115289190614df7565b9050801561153a5761153a33826129ad565b505050565b61156a6040518060800160405280600081526020016000815260200160008152602001600081525090565b600087815260fb60209081526040808320898452600101909152902061159581898989898989613650565b98975050505050505050565b600083815260fb6020818152604080842086855260018101835290842087855292909152600301546001600160a01b03166115dd8282866122f2565b9695505050505050565b6115ef612843565b6001600160a01b0381166116545760405162461bcd60e51b815260206004820152602660248201527f4f776e61626c653a206e6577206f776e657220697320746865207a65726f206160448201526564647265737360d01b6064820152608401610acc565b610b698161292c565b600083815260fb6020526040902080546001019081905563ffffffff81111561169957604051636dac6a0960e01b815260040160405180910390fd5b806001036117e357604051630bafd3f560e11b81526004810185905260009073ae38a794e839d045460839abe288a8e5c28b0fc69063175fa7ea90602401602060405180830381865afa1580156116f4573d6000803e3d6000fd5b505050506040513d601f19601f820116820180604052508101906117189190614e26565b6001600160a01b03160361173f57604051636dac6a0960e01b815260040160405180910390fd5b604051630bafd3f560e11b81526004810185905273ae38a794e839d045460839abe288a8e5c28b0fc69063175fa7ea90602401602060405180830381865afa15801561178f573d6000803e3d6000fd5b505050506040513d601f19601f820116820180604052508101906117b39190614e26565b600085815260fb6020526040902060030180546001600160a01b0319166001600160a01b03929092169190911790555b600084815260fb60205260409081902060030154905163166eb15b60e21b81523360048201526001600160a01b039091169081906359bac56c90602401602060405180830381865afa15801561183d573d6000803e3d6000fd5b505050506040513d601f19601f820116820180604052508101906118619190614abe565b61187e5760405163ea8e4eb560e01b815260040160405180910390fd5b600085815260fb6020908152604080832063ffffffff861684526001019091529020845151156119a75760005b8551518110156119a55761193560fb6000886000015184815181106118d2576118d2614a8c565b6020026020010151600001516001600160801b0316815260200190815260200160002060010160008860000151848151811061191057611910614a8c565b60200260200101516020015163ffffffff168152602001908152602001600020613b7e565b816002018660000151828151811061194f5761194f614a8c565b602090810291909101810151825460018181018555600094855293839020825191018054929093015163ffffffff16600160801b026001600160a01b03199092166001600160801b0390911617179055016118ab565b505b6040805160808101825260008082526020820181905291810182905260608101829052905b866020015151811015611c9757866020015181815181106119ef576119ef614a8c565b6020026020010151915060006001600160a01b031682606001516001600160a01b031614158015611a8d5750606082015160405163b25e9c3960e01b81526001600160a01b0391821660048201529085169063b25e9c3990602401602060405180830381865afa158015611a67573d6000803e3d6000fd5b505050506040513d601f19601f82011682018060405250810190611a8b9190614abe565b155b15611aab57604051630b27db6160e11b815260040160405180910390fd5b81516001600160f81b031615611af957815160608301516001600160a01b03166000908152600185016020526040902080546001600160f81b0319166001600160f81b039092169190911790555b816020015115611c3c5760608201516001600160a01b031615611bfa57606082015160405163a2d7046f60e01b815273c02aaa39b223fe8d0a0e5c4f27ead9083c756cc260048201526001600160a01b03909116602482015262093a806044820152600260648201526000907371c96edd5d36935d5c8d6b78bccd4113725297e39063a2d7046f906084016000604051808303816000875af1158015611ba3573d6000803e3d6000fd5b505050506040513d6000823e601f3d908101601f19168201604052611bcb9190810190614b51565b505080519091506001600160a01b0316611bf857604051632b9bb16560e11b815260040160405180910390fd5b505b60208083015160608401516001600160a01b031660009081526001860190925260409091208054911515600160f81b026001600160f81b039092169190911790555b60408201516001600160a01b031615611c8f5760408281015160608401516001600160a01b039081166000908152600187810160205293902090920180546001600160a01b031916929091169190911790555b6001016119cc565b5060408501516001600160a01b03161561218757826001600160a01b031685604001516001600160a01b031603612028576000808660000151806020019051810190611ce39190614db3565b608089015191935091506001600160e01b0319166302868bf960e11b01611e9157876080015163ffffffff166001141580611d2657508760a0015160ff16600114155b80611d3257508760e001515b80611db257506040516331a9108f60e11b8152600481018290526001600160a01b038087169190841690636352211e90602401602060405180830381865afa158015611d82573d6000803e3d6000fd5b505050506040513d601f19601f82011682018060405250810190611da69190614e26565b6001600160a01b031614155b15611dd05760405163ea8e4eb560e01b815260040160405180910390fd5b600089815260fc602090815260408083206001600160a01b0386168452825280832084845290915290205460ff1615611e1c576040516319e7a92b60e31b815260040160405180910390fd5b600089815260fc602090815260408083206001600160a01b038616808552908352818420858552835292819020805460ff1916600190811790915590519081528392918c917f76529e1c5add2962fbfae2a36bbcf688a5c01516b043ad429f1d81830687a2db910160405180910390a4612025565b60808701516001600160e01b03191662fc808960e71b01612025578760e0015180611f685750604051627eeac760e11b81526001600160a01b0386811660048301526024820183905283169062fdd58e90604401602060405180830381865afa158015611f02573d6000803e3d6000fd5b505050506040513d601f19601f82011682018060405250810190611f269190614e43565b60008a815260fd602090815260408083206001600160a01b0387168452825280832085845290915290205460808a0151611f66919063ffffffff16614e0e565b115b15611f8657604051636dac6a0960e01b815260040160405180910390fd5b608088015160008a815260fd602090815260408083206001600160a01b038716845282528083208584529091528120805463ffffffff90931692909190611fce908490614e0e565b9091555050600089815260fd602090815260408083206001600160a01b0386168085529083528184208585528352928190205490519081528392918c91600080516020615386833981519152910160405180910390a45b50505b60408501516005830180546001600160a01b0319166001600160a01b0390921691909117905560808501516001600160e01b031916156120c957608085015160058301805460e09290921c600160c01b0263ffffffff60c01b1990921691909117905560608501516001600160e01b031916156120c957606085015160058301805460e09290921c600160a01b0263ffffffff60a01b199092169190911790555b845151156120eb57845180516120e991600385019160209091019061400c565b505b60208501511561210057602085015160048301555b8561012001511561212f5760088201805460ff60f01b1981166004600160f01b9283900460ff16179091021790555b85610100015115612187576127108560200151111561216157604051633806212b60e21b815260040160405180910390fd5b6008828101805460ff60f01b198116600160f01b9182900460ff16909317029190911790555b6008820180546001600160a01b0319163317905560c0860151156121c95760088201805460ff60f01b1981166001600160f01b9283900460ff16179091021790555b60a086015160ff16156121fc5760a086015160088301805460ff909216600160e81b0260ff60e81b199092169190911790555b8560e001511561222e5760088201805460ff60f01b1981166002600160f01b9283900460ff161790910217905561225a565b608086015160088301805463ffffffff909216600160c81b0263ffffffff60c81b199092169190911790555b60408601515115612282576040860151805161228091600685019160209091019061400c565b505b606086015151156122aa57606086015180516122a891600785019160209091019061400c565b505b600084887f029a4465749d55fe5b28a7e348370e8ef8083bf6deb663e933b59f8dbe7500e7338a8a6040516122e193929190614f7c565b60405180910390a450505050505050565b60006122fd84613b7e565b600884015460405163166eb15b60e21b81526001600160a01b039182166004820152908416906359bac56c90602401602060405180830381865afa158015612349573d6000803e3d6000fd5b505050506040513d601f19601f8201168201806040525081019061236d9190614abe565b1561238b575060088301546001600160a01b038281169116146113a1565b60405163166eb15b60e21b81526001600160a01b0383811660048301528416906359bac56c90602401602060405180830381865afa1580156123d1573d6000803e3d6000fd5b505050506040513d601f19601f820116820180604052508101906123f59190614abe565b949350505050565b60058101546001600160a01b038086169116036126c95760008082600301600001805461242990614d79565b80601f016020809104026020016040519081016040528092919081815260200182805461245590614d79565b80156124a25780601f10612477576101008083540402835291602001916124a2565b820191906000526020600020905b81548152906001019060200180831161248557829003601f168201915b50505050508060200190518101906124ba9190614db3565b600585015491935091506302868bf960e11b600160c01b90910460e01b6001600160e01b03191601612526576008830154600160c81b900463ffffffff16841415806125035750845b1561252157604051636dac6a0960e01b815260040160405180910390fd5b6126c6565b600583015462fc808960e71b600160c01b90910460e01b6001600160e01b031916016126c657841561256b57604051636dac6a0960e01b815260040160405180910390fd5b6008830154600160c81b900463ffffffff1684146126c657604051627eeac760e11b81526001600160a01b038781166004830152602482018390526000919084169062fdd58e90604401602060405180830381865afa1580156125d2573d6000803e3d6000fd5b505050506040513d601f19601f820116820180604052508101906125f69190614e43565b600885015460008a815260fd602090815260408083206001600160a01b0389168452825280832087845290915281205492935091600160c81b90910463ffffffff1690612644908890614e0e565b61264e9190614df7565b90508181111561267157604051636dac6a0960e01b815260040160405180910390fd5b600089815260fd602090815260408083206001600160a01b038816808552908352818420878552835292819020849055518381528592918c91600080516020615386833981519152910160405180910390a450505b50505b5050505050565b610b69612843565b7f4910fdfa16fed3260ed0e7147f7cc6da11a60208b5b9406d12a635614ffd91435460ff161561270b5761153a83613ba9565b826001600160a01b03166352d1902d6040518163ffffffff1660e01b8152600401602060405180830381865afa925050508015612765575060408051601f3d908101601f1916820190925261276291810190614e43565b60015b6127c85760405162461bcd60e51b815260206004820152602e60248201527f45524331393637557067726164653a206e657720696d706c656d656e7461746960448201526d6f6e206973206e6f74205555505360901b6064820152608401610acc565b60008051602061533f83398151915281146128375760405162461bcd60e51b815260206004820152602960248201527f45524331393637557067726164653a20756e737570706f727465642070726f786044820152681a58589b195555525160ba1b6064820152608401610acc565b5061153a838383613c45565b6097546001600160a01b03163314610b875760405162461bcd60e51b815260206004820181905260248201527f4f776e61626c653a2063616c6c6572206973206e6f7420746865206f776e65726044820152606401610acc565b6128a5613c70565b60c9805460ff191690557f5db9ee0a495bf2e6ff9c91a7834c1ba4fdd244a5e8aa4e537bd38aeae4b073aa335b6040516001600160a01b03909116815260200160405180910390a1565b6128f76129fe565b60c9805460ff191660011790557f62e78cea01bee320cd4e420270b5ea74000d11b0c9f74754ebdbfc544b05a2586128d23390565b609780546001600160a01b038381166001600160a01b0319831681179093556040519116919082907f8be0079c531659141344cd1fd0a4f28419497f9722a3daafe3b4186f6b6457e090600090a35050565b600054610100900460ff166129a55760405162461bcd60e51b8152600401610acc90615081565b610b87613cb9565b600080600080600085875af190508061153a5760405162461bcd60e51b815260206004820152601360248201527211551217d514905394d1915497d19052531151606a1b6044820152606401610acc565b60c95460ff1615610b875760405162461bcd60e51b815260206004820152601060248201526f14185d5cd8589b194e881c185d5cd95960821b6044820152606401610acc565b6000816040015163ffffffff1660001461364b576020828101516001600160801b0316600090815260fb9091526040902060030154600160a01b900460ff1615612aa157604051632149aed960e21b815260040160405180910390fd5b600060fb600084602001516001600160801b031681526020019081526020016000206001016000846080015163ffffffff16815260200190815260200160002090506000612b218285602001516001600160801b0316866080015163ffffffff168760600151886040015163ffffffff1689600001518a60a00151613650565b6020858101516001600160801b0316600090815260fb909152604090206003015460088401549192506001600160a01b031690600160e81b900460ff1615612bc957600883015460408681015187516001600160a01b0316600090815260208790529190912054600160e81b90920460ff1691612ba4919063ffffffff166150cc565b63ffffffff161115612bc957604051636dac6a0960e01b815260040160405180910390fd5b6008830154600160f01b9004600190811c16600003612c51576008830154604086015163ffffffff600160c81b909204821691161115612c1c57604051636dac6a0960e01b815260040160405180910390fd5b604085015160088401805463ffffffff600160c81b8083048216949094031690920263ffffffff60c81b199092169190911790555b60408201518251612c629190614e0e565b8251909450612c7b906001600160a01b038316906129ad565b60408086015186516001600160a01b031660009081526020869052918220805491929091612cb090849063ffffffff166150cc565b92506101000a81548163ffffffff021916908363ffffffff1602179055508160200151600014612d64576060850151855160208401516040516323b872dd60e01b81526001600160a01b039283166004820152848316602482015260448101919091529116906323b872dd906064016020604051808303816000875af1158015612d3e573d6000803e3d6000fd5b505050506040513d601f19601f82011682018060405250810190612d629190614abe565b505b600283015415612e595760005b6002840154811015612e5757612e436040518060c0016040528088600001516001600160a01b03168152602001866002018481548110612db357612db3614a8c565b9060005260206000200160000160009054906101000a90046001600160801b03166001600160801b03168152602001886040015163ffffffff16815260200188606001516001600160a01b03168152602001866002018481548110612e1a57612e1a614a8c565b60009182526020918290200154600160801b900463ffffffff16825260a08a0151910152612a44565b612e4d9086614e0e565b9450600101612d71565b505b60058301546001600160a01b0316156135dd576005830154600090600160c01b900460e01b6001600160e01b031916156132a85760058401546001600160a01b038084169116036131cc57600080856003016000018054612eb990614d79565b80601f0160208091040260200160405190810160405280929190818152602001828054612ee590614d79565b8015612f325780601f10612f0757610100808354040283529160200191612f32565b820191906000526020600020905b815481529060010190602001808311612f1557829003601f168201915b5050505050806020019051810190612f4a9190614db3565b600588015491935091506302868bf960e11b600160c01b90910460e01b6001600160e01b0319160161306657875160405163ce55982b60e01b81526001600160a01b0391821660048201528382166024820152604481018390529085169063ce55982b90606401600060405180830381600087803b158015612fcb57600080fd5b505af1158015612fdf573d6000803e3d6000fd5b50505050602088810180516001600160801b03908116600090815260fc845260408082206001600160a01b0388168084529086528183208784528652818320805460ff19169055935190519182526001975085949216917f76529e1c5add2962fbfae2a36bbcf688a5c01516b043ad429f1d81830687a2db910160405180910390a46131c5565b600586015462fc808960e71b600160c01b90910460e01b6001600160e01b031916016131c55787516040808a0151905163296789eb60e11b81526001600160a01b039283166004820152848316602482015263ffffffff909116604482015260648101839052908516906352cf13d690608401600060405180830381600087803b1580156130f357600080fd5b505af1158015613107573d6000803e3d6000fd5b5050506040808a01516020808c01516001600160801b0316600090815260fd82528381206001600160a01b03881682528252838120868252909152918220805463ffffffff9092169350919061315e908490614df7565b90915550506020888101516001600160801b0316600081815260fd835260408082206001600160a01b038716808452908552818320868452855291819020549051908152600196508493919291600080516020615386833981519152910160405180910390a45b50506135bd565b6005840154604080850151602089015160808a01518a518b85015160a08d015195516001600160a01b038816979596600160c01b90960460e01b9561321d959493929160038e0191906024016150f4565b60408051601f198184030181529181526020820180516001600160e01b03166001600160e01b031990941693909317909252905161325b91906151ea565b60006040518083038185875af1925050503d8060008114613298576040519150601f19603f3d011682016040523d82523d6000602084013e61329d565b606091505b5050809150506135bd565b606083015115613499576060868101518751918501516040516323b872dd60e01b81526001600160a01b039384166004820152735cef0380ce0ad3daeefef8bdb85dbded7965adf9602482015260448101919091529116906323b872dd906064016020604051808303816000875af1158015613328573d6000803e3d6000fd5b505050506040513d601f19601f8201168201806040525081019061334c9190614abe565b50735cef0380ce0ad3daeefef8bdb85dbded7965adf96001600160a01b03166359fc470a87602001518660030160020160009054906101000a90046001600160a01b0316896060015187606001516103e8886001600160a01b031663ced72f876040518163ffffffff1660e01b8152600401602060405180830381865afa1580156133db573d6000803e3d6000fd5b505050506040513d601f19601f820116820180604052508101906133ff9190614e43565b8a6060015161340e9190615206565b6134189190615225565b6040516001600160e01b031960e088901b1681526001600160801b0390951660048601526001600160a01b0393841660248601529290911660448401526064830152608482015260a401600060405180830381600087803b15801561347c57600080fd5b505af1158015613490573d6000803e3d6000fd5b505050506135b9565b735cef0380ce0ad3daeefef8bdb85dbded7965adf96001600160a01b03166339ed512384604001518660030160020160009054906101000a90046001600160a01b03166103e8866001600160a01b031663ced72f876040518163ffffffff1660e01b8152600401602060405180830381865afa15801561351d573d6000803e3d6000fd5b505050506040513d601f19601f820116820180604052508101906135419190614e43565b88604001516135509190615206565b61355a9190615225565b6040516001600160e01b031960e086901b1681526001600160a01b03909216600483015260248201526044016000604051808303818588803b15801561359f57600080fd5b505af11580156135b3573d6000803e3d6000fd5b50505050505b5060015b806135db5760405163af6eefa360e01b815260040160405180910390fd5b505b84600001516001600160a01b0316856080015163ffffffff1686602001516001600160801b03167fb5fcbfbc97629da9c45f418c65a8ed3e96873f8e54c6c435180455987431e7a0886040015189606001518760405161363f93929190615247565b60405180910390a45050505b919050565b61367b6040518060800160405280600081526020016000815260200160008152602001600081525090565b61368488613b7e565b6001600160a01b0380861660009081526001808b016020908152604092839020835160608101855281546001600160f81b038116825260ff600160f81b909104811615159382019390935292015490931691810182905260088b01549092600160f01b90910416906139e6576001600160a01b03871661371f578561370e83600184161515613ce9565b6137189190615206565b8352613a68565b81602001511561395657600080805260018b0160205260409020546001600160f81b0316151580613759575081516001600160f81b031615155b1561392d5781516000906001600160f81b031681036137d657600080805260018c81016020908152604092839020835160608101855281546001600160f81b0381168252600160f81b900460ff161515928101929092528201546001600160a01b0316928101929092526137d1919084161515613ce9565b6137e2565b82516001600160f81b03165b90506001600160801b0381111561380c57604051633806212b60e21b815260040160405180910390fd5b6040516331b889b160e11b815287907371c96edd5d36935d5c8d6b78bccd4113725297e39063637113629061386190859073c02aaa39b223fe8d0a0e5c4f27ead9083c756cc2908e9061070890600401615291565b602060405180830381865afa15801561387e573d6000803e3d6000fd5b505050506040513d601f19601f820116820180604052508101906138a29190614e43565b6138ac9190615206565b6020850181905260000361392757600080805260018c81016020908152604092839020835160608101855281546001600160f81b0381168252600160f81b900460ff161515928101929092528201546001600160a01b031692810192909252889161391a9185161515613ce9565b6139249190615206565b84525b50613a68565b6001811660000361395157604051630b27db6160e11b815260040160405180910390fd5b613a68565b81516001600160f81b03161561398657815161397c9087906001600160f81b0316615206565b6020840152613a68565b600080805260018b81016020908152604092839020835160608101855281546001600160f81b0381168252600160f81b900460ff161515928101929092528201546001600160a01b031692810192909252879161370e9184161515613ce9565b81604001516001600160a01b031663d7a3d0c88a8a8a8a8a8a6040518763ffffffff1660e01b8152600401613a20969594939291906152c7565b6040805180830381865afa158015613a3c573d6000803e3d6000fd5b505050506040513d601f19601f82011682018060405250810190613a609190615307565b602085015283525b60048a015415613b71576001600382901c16158015613aec576001600283901c1615801590613ad0578460200151600003613ab657604051630b27db6160e11b815260040160405180910390fd5b60048c0154613ac6908990615206565b6060860152613ae6565b60048c0154613ae0908990615206565b60408601525b50613b6f565b602084015115613b375760048b0154602085015161271091613b0d91615206565b613b179190615225565b60608501819052602085018051613b2f908390614df7565b905250613b6f565b60048b0154845161271091613b4b91615206565b613b559190615225565b6040850181905284518590613b6b908390614df7565b9052505b505b5050979650505050505050565b60088101546001600160a01b0316610b69576040516329c2f8dd60e11b815260040160405180910390fd5b6001600160a01b0381163b613c165760405162461bcd60e51b815260206004820152602d60248201527f455243313936373a206e657720696d706c656d656e746174696f6e206973206e60448201526c1bdd08184818dbdb9d1c9858dd609a1b6064820152608401610acc565b60008051602061533f83398151915280546001600160a01b0319166001600160a01b0392909216919091179055565b613c4e83613e60565b600082511180613c5b5750805b1561153a57613c6a8383613ea0565b50505050565b60c95460ff16610b875760405162461bcd60e51b815260206004820152601460248201527314185d5cd8589b194e881b9bdd081c185d5cd95960621b6044820152606401610acc565b600054610100900460ff16613ce05760405162461bcd60e51b8152600401610acc90615081565b610b873361292c565b81516000906001600160f81b0316158015613d02575081155b15613d2057604051630b27db6160e11b815260040160405180910390fd5b826020015115613e4d5782516001600160801b036001600160f81b039091161115613d5e57604051633806212b60e21b815260040160405180910390fd5b82516040516331b889b160e11b81527371c96edd5d36935d5c8d6b78bccd4113725297e391636371136291613dc6919073ac5d25bda7821ce87d997981e52b53bdfbb5d7b49073c02aaa39b223fe8d0a0e5c4f27ead9083c756cc29061070890600401615291565b602060405180830381865afa158015613de3573d6000803e3d6000fd5b505050506040513d601f19601f82011682018060405250810190613e079190614e43565b905080600003613e485760405162461bcd60e51b815260206004820152600c60248201526b125b9d985b1a59081c1bdbdb60a21b6044820152606401610acc565b613e5a565b5081516001600160f81b03165b92915050565b613e6981613ba9565b6040516001600160a01b038216907fbc7cd75a20ee27fd9adebab32041f755214dbc6bffa90cc0225b39da2e5c2d3b90600090a250565b60606001600160a01b0383163b613f085760405162461bcd60e51b815260206004820152602660248201527f416464726573733a2064656c65676174652063616c6c20746f206e6f6e2d636f6044820152651b9d1c9858dd60d21b6064820152608401610acc565b600080846001600160a01b031684604051613f2391906151ea565b600060405180830381855af49150503d8060008114613f5e576040519150601f19603f3d011682016040523d82523d6000602084013e613f63565b606091505b5091509150613f8b828260405180606001604052806027815260200161535f60279139613f94565b95945050505050565b60608315613fa35750816113a1565b6113a18383815115613fb85781518083602001fd5b8060405162461bcd60e51b8152600401610acc919061532b565b508054613fde90614d79565b6000825580601f10613fee575050565b601f016020900490600052602060002090810190610b699190614090565b82805461401890614d79565b90600052602060002090601f01602090048101928261403a5760008555614080565b82601f1061405357805160ff1916838001178555614080565b82800160010185558215614080579182015b82811115614080578251825591602001919060010190614065565b5061408c929150614090565b5090565b5b8082111561408c5760008155600101614091565b803560ff8116811461364b57600080fd5b8015158114610b6957600080fd5b803561364b816140b6565b803563ffffffff8116811461364b57600080fd5b60008060008060008060008060e0898b0312156140ff57600080fd5b883597506020890135965061411660408a016140a5565b95506060890135614126816140b6565b94506080890135614136816140b6565b935061414460a08a016140cf565b925060c08901356001600160401b038082111561416057600080fd5b818b0191508b601f83011261417457600080fd5b81358181111561418357600080fd5b8c60208260071b850101111561419857600080fd5b6020830194508093505050509295985092959890939650565b600080604083850312156141c457600080fd5b50508035926020909101359150565b6001600160a01b0381168114610b6957600080fd5b6000602082840312156141fa57600080fd5b81356113a1816141d3565b60005b83811015614220578181015183820152602001614208565b83811115613c6a5750506000910152565b60008151808452614249816020860160208601614205565b601f01601f19169290920160200192915050565b8281526040602082015260006123f56040830184614231565b634e487b7160e01b600052604160045260246000fd5b60405160c081016001600160401b03811182821017156142ae576142ae614276565b60405290565b604080519081016001600160401b03811182821017156142ae576142ae614276565b604051608081016001600160401b03811182821017156142ae576142ae614276565b60405161014081016001600160401b03811182821017156142ae576142ae614276565b604051601f8201601f191681016001600160401b038111828210171561434357614343614276565b604052919050565b600082601f83011261435c57600080fd5b81356001600160401b0381111561437557614375614276565b614388601f8201601f191660200161431b565b81815284602083860101111561439d57600080fd5b816020850160208301376000918101602001919091529392505050565b600080604083850312156143cd57600080fd5b82356143d8816141d3565b915060208301356001600160401b038111156143f357600080fd5b6143ff8582860161434b565b9150509250929050565b6000806040838503121561441c57600080fd5b82359150602083013561442e816140b6565b809150509250929050565b60008060006060848603121561444e57600080fd5b8335614459816141d3565b95602085013595506040909401359392505050565b60006020828403121561448057600080fd5b5035919050565b60006001600160401b038211156144a0576144a0614276565b5060051b60200190565b80356001600160801b038116811461364b57600080fd5b600060208083850312156144d457600080fd5b82356001600160401b03808211156144eb57600080fd5b818501915085601f8301126144ff57600080fd5b813561451261450d82614487565b61431b565b81815260059190911b8301840190848101908883111561453157600080fd5b8585015b838110156145fb5780358581111561454d5760008081fd5b860160c0818c03601f19018113156145655760008081fd5b61456d61428c565b8983013561457a816141d3565b815260406145898482016144aa565b8b830152606061459a8186016140cf565b8284015260809150818501356145af816141d3565b9083015260a06145c08582016140cf565b838301529284013592898411156145d957600091508182fd5b6145e78f8d8688010161434b565b908301525085525050918601918601614535565b5098975050505050505050565b60008060008060008060c0878903121561462157600080fd5b8635955060208701359450604087013561463a816141d3565b9350606087013592506080870135614651816141d3565b915060a08701356001600160401b0381111561466c57600080fd5b61467889828a0161434b565b9150509295509295509295565b8151815260208083015190820152604080830151908201526060808301519082015260808101613e5a565b6000806000606084860312156146c557600080fd5b833592506020840135915060408401356146de816141d3565b809150509250925092565b600082601f8301126146fa57600080fd5b8135602061470a61450d83614487565b82815260069290921b8401810191818101908684111561472957600080fd5b8286015b8481101561477657604081890312156147465760008081fd5b61474e6142b4565b614757826144aa565b81526147648583016140cf565b8186015283529183019160400161472d565b509695505050505050565b80356001600160f81b038116811461364b57600080fd5b6000608082840312156147aa57600080fd5b6147b26142d6565b90506147bd82614781565b815260208201356147cd816140b6565b602082015260408201356147e0816141d3565b604082015260608201356147f3816141d3565b606082015292915050565b600082601f83011261480f57600080fd5b8135602061481f61450d83614487565b82815260079290921b8401810191818101908684111561483e57600080fd5b8286015b84811015614776576148548882614798565b835291830191608001614842565b80356001600160e01b03198116811461364b57600080fd5b600060a0828403121561488c57600080fd5b60405160a081016001600160401b0382821081831117156148af576148af614276565b8160405282935084359150808211156148c757600080fd5b506148d48582860161434b565b8252506020830135602082015260408301356148ef816141d3565b604082015261490060608401614862565b606082015261491160808401614862565b60808201525092915050565b60008060006060848603121561493257600080fd5b8335925060208401356001600160401b038082111561495057600080fd5b90850190610140828803121561496557600080fd5b61496d6142f8565b82358281111561497c57600080fd5b614988898286016146e9565b82525060208301358281111561499d57600080fd5b6149a9898286016147fe565b6020830152506040830135828111156149c157600080fd5b6149cd8982860161434b565b6040830152506060830135828111156149e557600080fd5b6149f18982860161434b565b606083015250614a03608084016140cf565b6080820152614a1460a084016140a5565b60a0820152614a2560c084016140c4565b60c0820152614a3660e084016140c4565b60e0820152610100614a498185016140c4565b90820152610120614a5b8482016140c4565b9082015293506040860135915080821115614a7557600080fd5b50614a828682870161487a565b9150509250925092565b634e487b7160e01b600052603260045260246000fd5b600060808284031215614ab457600080fd5b6113a18383614798565b600060208284031215614ad057600080fd5b81516113a1816140b6565b600082601f830112614aec57600080fd5b81516020614afc61450d83614487565b82815260059290921b84018101918181019086841115614b1b57600080fd5b8286015b848110156147765780518060060b8114614b395760008081fd5b8352918301918301614b1f565b805161364b816141d3565b600080600083850360c0811215614b6757600080fd5b6080811215614b7557600080fd5b50614b7e6142d6565b8451614b89816141d3565b8152602085015162ffffff81168114614ba157600080fd5b6020820152604085015165ffffffffffff81168114614bbf57600080fd5b6040820152606085015161ffff81168114614bd957600080fd5b606082015260808501519093506001600160401b03811115614bfa57600080fd5b614c0686828701614adb565b925050614c1560a08501614b46565b90509250925092565b600060a0820160ff89168352602088151581850152604088151581860152606063ffffffff891681870152608060a0818801528488865260c08801905089955060005b89811015614ccf576001600160f81b03614c7a88614781565b16825285870135614c8a816140b6565b15158287015286850135614c9d816141d3565b6001600160a01b03908116838701528785013590614cba826141d3565b16828501529582019590820190600101614c61565b509d9c50505050505050505050505050565b6020808252602c908201527f46756e6374696f6e206d7573742062652063616c6c6564207468726f7567682060408201526b19195b1959d85d1958d85b1b60a21b606082015260800190565b6020808252602c908201527f46756e6374696f6e206d7573742062652063616c6c6564207468726f7567682060408201526b6163746976652070726f787960a01b606082015260800190565b600181811c90821680614d8d57607f821691505b602082108103614dad57634e487b7160e01b600052602260045260246000fd5b50919050565b60008060408385031215614dc657600080fd5b8251614dd1816141d3565b6020939093015192949293505050565b634e487b7160e01b600052601160045260246000fd5b600082821015614e0957614e09614de1565b500390565b60008219821115614e2157614e21614de1565b500190565b600060208284031215614e3857600080fd5b81516113a1816141d3565b600060208284031215614e5557600080fd5b5051919050565b600081518084526020808501945080840160005b83811015614ea657815180516001600160801b0316885283015163ffffffff168388015260409096019590820190600101614e70565b509495945050505050565b600081518084526020808501945080840160005b83811015614ea657815180516001600160f81b03168852838101511515848901526040808201516001600160a01b03908116918a0191909152606091820151169088015260809096019590820190600101614ec5565b6000815160a08452614f3060a0850182614231565b602084810151908601526040808501516001600160a01b0316908601526060808501516001600160e01b0319908116918701919091526080948501511693909401929092525090919050565b60018060a01b03841681526060602082015260008351610140806060850152614fa96101a0850183614e5c565b91506020860151605f1980868503016080870152614fc78483614eb1565b935060408801519150808685030160a0870152614fe48483614231565b935060608801519150808685030160c0870152506150028382614231565b925050608086015161501c60e086018263ffffffff169052565b5060a08601516101006150338187018360ff169052565b60c0880151915061012061504a8188018415159052565b60e0890151151593870193909352870151151561016086015250850151151561018084015282810360408401526115dd8185614f1b565b6020808252602b908201527f496e697469616c697a61626c653a20636f6e7472616374206973206e6f74206960408201526a6e697469616c697a696e6760a81b606082015260800190565b600063ffffffff8083168185168083038211156150eb576150eb614de1565b01949350505050565b6001600160801b038716815263ffffffff8681166020808401919091526001600160a01b0387166040840152908516606083015260c060808301528354600091908290600181811c908281168061514c57607f831692505b858310810361516957634e487b7160e01b85526022600452602485fd5b60c0880183905260e088018180156151885760018114615199576151c4565b60ff198616825287820196506151c4565b60008c81526020902060005b868110156151be578154848201529085019089016151a5565b83019750505b50505050505083810360a08501526151dc8186614231565b9a9950505050505050505050565b600082516151fc818460208701614205565b9190910192915050565b600081600019048311821515161561522057615220614de1565b500290565b60008261524257634e487b7160e01b600052601260045260246000fd5b500490565b63ffffffff841681526001600160a01b038316602082015260c081016123f56040830184805182526020810151602083015260408101516040830152606081015160608301525050565b6001600160801b039490941684526001600160a01b0392831660208501529116604083015263ffffffff16606082015260800190565b868152602081018690526001600160a01b038581166040830152606082018590528316608082015260c060a0820181905260009061159590830184614231565b6000806040838503121561531a57600080fd5b505080516020909101519092909150565b6020815260006113a1602083018461423156fe360894a13ba1a3210667c828492db98dca3e2076cc3735a920a3ca505d382bbc416464726573733a206c6f772d6c6576656c2064656c65676174652063616c6c206661696c6564f0832fe058ed4ffda256632e9c3d7b50283fb2e36310b6beaf08f633b1407057a26469706673582212203cb75189e2f89ec660698eb936d68eb3141a710ac6e97aec733e739a68bb7dbc64736f6c634300080d0033",
  "linkReferences": {},
  "deployedLinkReferences": {}
}