{
  "_format": "hh-sol-artifact-1",
  "contractName": "ProductsModule",
  "sourceName": "contracts/ProductsModule.sol",
  "abi": [
    {
      "inputs": [],
      "stateMutability": "nonpayable",
      "type": "constructor"
    },
    {
      "inputs": [],
      "name": "ActiveListing",
      "type": "error"
    },
    {
      "inputs": [],
      "name": "ExceedsMaxValue",
      "type": "error"
    },
    {
      "inputs": [],
      "name": "InexistentPool",
      "type": "error"
    },
    {
      "inputs": [],
      "name": "InexistentProduct",
      "type": "error"
    },
    {
      "inputs": [],
      "name": "Invalid",
      "type": "error"
    },
    {
      "inputs": [],
      "name": "NoDelegatecall",
      "type": "error"
    },
    {
      "inputs": [],
      "name": "NotAuthorized",
      "type": "error"
    },
    {
      "inputs": [],
      "name": "NotPurchased",
      "type": "error"
    },
    {
      "inputs": [],
      "name": "NotSuccessful",
      "type": "error"
    },
    {
      "inputs": [],
      "name": "StoreNotOpen",
      "type": "error"
    },
    {
      "inputs": [],
      "name": "TooSoon",
      "type": "error"
    },
    {
      "inputs": [],
      "name": "WrongCurrency",
      "type": "error"
    },
    {
      "anonymous": false,
      "inputs": [
        {
          "indexed": false,
          "internalType": "address",
          "name": "previousAdmin",
          "type": "address"
        },
        {
          "indexed": false,
          "internalType": "address",
          "name": "newAdmin",
          "type": "address"
        }
      ],
      "name": "AdminChanged",
      "type": "event"
    },
    {
      "anonymous": false,
      "inputs": [
        {
          "indexed": true,
          "internalType": "address",
          "name": "beacon",
          "type": "address"
        }
      ],
      "name": "BeaconUpgraded",
      "type": "event"
    },
    {
      "anonymous": false,
      "inputs": [
        {
          "indexed": true,
          "internalType": "uint256",
          "name": "slicerId",
          "type": "uint256"
        },
        {
          "indexed": true,
          "internalType": "address",
          "name": "contractAddress",
          "type": "address"
        },
        {
          "indexed": true,
          "internalType": "uint256",
          "name": "tokenId",
          "type": "uint256"
        },
        {
          "indexed": false,
          "internalType": "uint256",
          "name": "currentAmount",
          "type": "uint256"
        }
      ],
      "name": "ERC1155ListingChanged",
      "type": "event"
    },
    {
      "anonymous": false,
      "inputs": [
        {
          "indexed": true,
          "internalType": "uint256",
          "name": "slicerId",
          "type": "uint256"
        },
        {
          "indexed": true,
          "internalType": "address",
          "name": "contractAddress",
          "type": "address"
        },
        {
          "indexed": true,
          "internalType": "uint256",
          "name": "tokenId",
          "type": "uint256"
        },
        {
          "indexed": false,
          "internalType": "bool",
          "name": "isActive",
          "type": "bool"
        }
      ],
      "name": "ERC721ListingChanged",
      "type": "event"
    },
    {
      "anonymous": false,
      "inputs": [
        {
          "indexed": false,
          "internalType": "uint8",
          "name": "version",
          "type": "uint8"
        }
      ],
      "name": "Initialized",
      "type": "event"
    },
    {
      "anonymous": false,
      "inputs": [
        {
          "indexed": true,
          "internalType": "address",
          "name": "previousOwner",
          "type": "address"
        },
        {
          "indexed": true,
          "internalType": "address",
          "name": "newOwner",
          "type": "address"
        }
      ],
      "name": "OwnershipTransferred",
      "type": "event"
    },
    {
      "anonymous": false,
      "inputs": [
        {
          "indexed": false,
          "internalType": "address",
          "name": "account",
          "type": "address"
        }
      ],
      "name": "Paused",
      "type": "event"
    },
    {
      "anonymous": false,
      "inputs": [
        {
          "indexed": true,
          "internalType": "uint256",
          "name": "slicerId",
          "type": "uint256"
        },
        {
          "indexed": true,
          "internalType": "uint256",
          "name": "productId",
          "type": "uint256"
        },
        {
          "indexed": true,
          "internalType": "uint256",
          "name": "categoryIndex",
          "type": "uint256"
        },
        {
          "indexed": false,
          "internalType": "address",
          "name": "creator",
          "type": "address"
        },
        {
          "components": [
            {
              "components": [
                {
                  "internalType": "uint128",
                  "name": "subSlicerId",
                  "type": "uint128"
                },
                {
                  "internalType": "uint32",
                  "name": "subProductId",
                  "type": "uint32"
                }
              ],
              "internalType": "struct SubSlicerProduct[]",
              "name": "subSlicerProducts",
              "type": "tuple[]"
            },
            {
              "components": [
                {
                  "internalType": "uint248",
                  "name": "value",
                  "type": "uint248"
                },
                {
                  "internalType": "bool",
                  "name": "dynamicPricing",
                  "type": "bool"
                },
                {
                  "internalType": "address",
                  "name": "externalAddress",
                  "type": "address"
                },
                {
                  "internalType": "address",
                  "name": "currency",
                  "type": "address"
                }
              ],
              "internalType": "struct CurrencyPrice[]",
              "name": "currencyPrices",
              "type": "tuple[]"
            },
            {
              "internalType": "bytes",
              "name": "data",
              "type": "bytes"
            },
            {
              "internalType": "bytes",
              "name": "purchaseData",
              "type": "bytes"
            },
            {
              "internalType": "uint32",
              "name": "availableUnits",
              "type": "uint32"
            },
            {
              "internalType": "uint8",
              "name": "maxUnitsPerBuyer",
              "type": "uint8"
            },
            {
              "internalType": "bool",
              "name": "isFree",
              "type": "bool"
            },
            {
              "internalType": "bool",
              "name": "isInfinite",
              "type": "bool"
            },
            {
              "internalType": "bool",
              "name": "isExternalCallPaymentRelative",
              "type": "bool"
            },
            {
              "internalType": "bool",
              "name": "isExternalCallPreferredToken",
              "type": "bool"
            }
          ],
          "indexed": false,
          "internalType": "struct ProductParams",
          "name": "params",
          "type": "tuple"
        },
        {
          "components": [
            {
              "internalType": "bytes",
              "name": "data",
              "type": "bytes"
            },
            {
              "internalType": "uint256",
              "name": "value",
              "type": "uint256"
            },
            {
              "internalType": "address",
              "name": "externalAddress",
              "type": "address"
            },
            {
              "internalType": "bytes4",
              "name": "checkFunctionSignature",
              "type": "bytes4"
            },
            {
              "internalType": "bytes4",
              "name": "execFunctionSignature",
              "type": "bytes4"
            }
          ],
          "indexed": false,
          "internalType": "struct Function",
          "name": "externalCall",
          "type": "tuple"
        }
      ],
      "name": "ProductAdded",
      "type": "event"
    },
    {
      "anonymous": false,
      "inputs": [
        {
          "indexed": true,
          "internalType": "uint256",
          "name": "slicerId",
          "type": "uint256"
        },
        {
          "indexed": true,
          "internalType": "uint256",
          "name": "productId",
          "type": "uint256"
        },
        {
          "components": [
            {
              "internalType": "bytes",
              "name": "data",
              "type": "bytes"
            },
            {
              "internalType": "uint256",
              "name": "value",
              "type": "uint256"
            },
            {
              "internalType": "address",
              "name": "externalAddress",
              "type": "address"
            },
            {
              "internalType": "bytes4",
              "name": "checkFunctionSignature",
              "type": "bytes4"
            },
            {
              "internalType": "bytes4",
              "name": "execFunctionSignature",
              "type": "bytes4"
            }
          ],
          "indexed": false,
          "internalType": "struct Function",
          "name": "externalCall",
          "type": "tuple"
        }
      ],
      "name": "ProductExternalCallUpdated",
      "type": "event"
    },
    {
      "anonymous": false,
      "inputs": [
        {
          "indexed": true,
          "internalType": "uint256",
          "name": "slicerId",
          "type": "uint256"
        },
        {
          "indexed": true,
          "internalType": "uint256",
          "name": "productId",
          "type": "uint256"
        },
        {
          "indexed": false,
          "internalType": "uint8",
          "name": "maxUnitsPerBuyer",
          "type": "uint8"
        },
        {
          "indexed": false,
          "internalType": "bool",
          "name": "isFree",
          "type": "bool"
        },
        {
          "indexed": false,
          "internalType": "bool",
          "name": "isInfinite",
          "type": "bool"
        },
        {
          "indexed": false,
          "internalType": "uint256",
          "name": "newUnits",
          "type": "uint256"
        },
        {
          "components": [
            {
              "internalType": "uint248",
              "name": "value",
              "type": "uint248"
            },
            {
              "internalType": "bool",
              "name": "dynamicPricing",
              "type": "bool"
            },
            {
              "internalType": "address",
              "name": "externalAddress",
              "type": "address"
            },
            {
              "internalType": "address",
              "name": "currency",
              "type": "address"
            }
          ],
          "indexed": false,
          "internalType": "struct CurrencyPrice[]",
          "name": "currencyPrices",
          "type": "tuple[]"
        }
      ],
      "name": "ProductInfoChanged",
      "type": "event"
    },
    {
      "anonymous": false,
      "inputs": [
        {
          "indexed": true,
          "internalType": "uint256",
          "name": "slicerId",
          "type": "uint256"
        },
        {
          "indexed": true,
          "internalType": "uint256",
          "name": "productId",
          "type": "uint256"
        },
        {
          "indexed": false,
          "internalType": "uint256",
          "name": "quantity",
          "type": "uint256"
        },
        {
          "indexed": true,
          "internalType": "address",
          "name": "buyer",
          "type": "address"
        },
        {
          "indexed": false,
          "internalType": "address",
          "name": "currency",
          "type": "address"
        },
        {
          "components": [
            {
              "internalType": "uint256",
              "name": "eth",
              "type": "uint256"
            },
            {
              "internalType": "uint256",
              "name": "currency",
              "type": "uint256"
            },
            {
              "internalType": "uint256",
              "name": "ethExternalCall",
              "type": "uint256"
            },
            {
              "internalType": "uint256",
              "name": "currencyExternalCall",
              "type": "uint256"
            }
          ],
          "indexed": false,
          "internalType": "struct Price",
          "name": "price",
          "type": "tuple"
        }
      ],
      "name": "ProductPaid",
      "type": "event"
    },
    {
      "anonymous": false,
      "inputs": [
        {
          "indexed": true,
          "internalType": "uint256",
          "name": "slicerId",
          "type": "uint256"
        },
        {
          "indexed": true,
          "internalType": "uint256",
          "name": "productId",
          "type": "uint256"
        }
      ],
      "name": "ProductRemoved",
      "type": "event"
    },
    {
      "anonymous": false,
      "inputs": [
        {
          "indexed": true,
          "internalType": "uint256",
          "name": "slicerId",
          "type": "uint256"
        },
        {
          "indexed": false,
          "internalType": "uint256",
          "name": "ethToRelease",
          "type": "uint256"
        }
      ],
      "name": "ReleasedToSlicer",
      "type": "event"
    },
    {
      "anonymous": false,
      "inputs": [
        {
          "indexed": true,
          "internalType": "uint256",
          "name": "slicerId",
          "type": "uint256"
        },
        {
          "indexed": false,
          "internalType": "bool",
          "name": "isStoreClosed",
          "type": "bool"
        }
      ],
      "name": "StoreClosed",
      "type": "event"
    },
    {
      "anonymous": false,
      "inputs": [
        {
          "indexed": false,
          "internalType": "address",
          "name": "account",
          "type": "address"
        }
      ],
      "name": "Unpaused",
      "type": "event"
    },
    {
      "anonymous": false,
      "inputs": [
        {
          "indexed": true,
          "internalType": "address",
          "name": "implementation",
          "type": "address"
        }
      ],
      "name": "Upgraded",
      "type": "event"
    },
    {
      "inputs": [],
      "name": "MINT_PRODUCT_AMOUNT",
      "outputs": [
        {
          "internalType": "uint256",
          "name": "",
          "type": "uint256"
        }
      ],
      "stateMutability": "view",
      "type": "function"
    },
    {
      "inputs": [
        {
          "internalType": "uint256",
          "name": "slicerId",
          "type": "uint256"
        },
        {
          "internalType": "bool",
          "name": "isClosed",
          "type": "bool"
        }
      ],
      "name": "_setStoreClosed",
      "outputs": [],
      "stateMutability": "nonpayable",
      "type": "function"
    },
    {
      "inputs": [],
      "name": "_togglePause",
      "outputs": [],
      "stateMutability": "nonpayable",
      "type": "function"
    },
    {
      "inputs": [
        {
          "internalType": "uint256",
          "name": "slicerId",
          "type": "uint256"
        },
        {
          "components": [
            {
              "components": [
                {
                  "internalType": "uint128",
                  "name": "subSlicerId",
                  "type": "uint128"
                },
                {
                  "internalType": "uint32",
                  "name": "subProductId",
                  "type": "uint32"
                }
              ],
              "internalType": "struct SubSlicerProduct[]",
              "name": "subSlicerProducts",
              "type": "tuple[]"
            },
            {
              "components": [
                {
                  "internalType": "uint248",
                  "name": "value",
                  "type": "uint248"
                },
                {
                  "internalType": "bool",
                  "name": "dynamicPricing",
                  "type": "bool"
                },
                {
                  "internalType": "address",
                  "name": "externalAddress",
                  "type": "address"
                },
                {
                  "internalType": "address",
                  "name": "currency",
                  "type": "address"
                }
              ],
              "internalType": "struct CurrencyPrice[]",
              "name": "currencyPrices",
              "type": "tuple[]"
            },
            {
              "internalType": "bytes",
              "name": "data",
              "type": "bytes"
            },
            {
              "internalType": "bytes",
              "name": "purchaseData",
              "type": "bytes"
            },
            {
              "internalType": "uint32",
              "name": "availableUnits",
              "type": "uint32"
            },
            {
              "internalType": "uint8",
              "name": "maxUnitsPerBuyer",
              "type": "uint8"
            },
            {
              "internalType": "bool",
              "name": "isFree",
              "type": "bool"
            },
            {
              "internalType": "bool",
              "name": "isInfinite",
              "type": "bool"
            },
            {
              "internalType": "bool",
              "name": "isExternalCallPaymentRelative",
              "type": "bool"
            },
            {
              "internalType": "bool",
              "name": "isExternalCallPreferredToken",
              "type": "bool"
            }
          ],
          "internalType": "struct ProductParams",
          "name": "params",
          "type": "tuple"
        },
        {
          "components": [
            {
              "internalType": "bytes",
              "name": "data",
              "type": "bytes"
            },
            {
              "internalType": "uint256",
              "name": "value",
              "type": "uint256"
            },
            {
              "internalType": "address",
              "name": "externalAddress",
              "type": "address"
            },
            {
              "internalType": "bytes4",
              "name": "checkFunctionSignature",
              "type": "bytes4"
            },
            {
              "internalType": "bytes4",
              "name": "execFunctionSignature",
              "type": "bytes4"
            }
          ],
          "internalType": "struct Function",
          "name": "externalCall_",
          "type": "tuple"
        }
      ],
      "name": "addProduct",
      "outputs": [],
      "stateMutability": "nonpayable",
      "type": "function"
    },
    {
      "inputs": [
        {
          "internalType": "uint256",
          "name": "slicerId",
          "type": "uint256"
        },
        {
          "internalType": "uint256",
          "name": "productId",
          "type": "uint256"
        }
      ],
      "name": "availableUnits",
      "outputs": [
        {
          "internalType": "uint256",
          "name": "units",
          "type": "uint256"
        },
        {
          "internalType": "bool",
          "name": "isInfinite",
          "type": "bool"
        }
      ],
      "stateMutability": "view",
      "type": "function"
    },
    {
      "inputs": [
        {
          "internalType": "uint256",
          "name": "slicerId",
          "type": "uint256"
        }
      ],
      "name": "ethBalance",
      "outputs": [
        {
          "internalType": "uint256",
          "name": "",
          "type": "uint256"
        }
      ],
      "stateMutability": "view",
      "type": "function"
    },
    {
      "inputs": [],
      "name": "fundsModule",
      "outputs": [
        {
          "internalType": "contract IFundsModule",
          "name": "",
          "type": "address"
        }
      ],
      "stateMutability": "view",
      "type": "function"
    },
    {
      "inputs": [],
      "name": "initialize",
      "outputs": [],
      "stateMutability": "nonpayable",
      "type": "function"
    },
    {
      "inputs": [
        {
          "internalType": "uint256",
          "name": "slicerId",
          "type": "uint256"
        },
        {
          "internalType": "uint256",
          "name": "productId",
          "type": "uint256"
        },
        {
          "internalType": "address",
          "name": "account",
          "type": "address"
        }
      ],
      "name": "isProductOwner",
      "outputs": [
        {
          "internalType": "bool",
          "name": "isAllowed",
          "type": "bool"
        }
      ],
      "stateMutability": "view",
      "type": "function"
    },
    {
      "inputs": [
        {
          "internalType": "uint256",
          "name": "slicerId",
          "type": "uint256"
        }
      ],
      "name": "nextProductId",
      "outputs": [
        {
          "internalType": "uint256",
          "name": "",
          "type": "uint256"
        }
      ],
      "stateMutability": "view",
      "type": "function"
    },
    {
      "inputs": [],
      "name": "owner",
      "outputs": [
        {
          "internalType": "address",
          "name": "",
          "type": "address"
        }
      ],
      "stateMutability": "view",
      "type": "function"
    },
    {
      "inputs": [],
      "name": "paused",
      "outputs": [
        {
          "internalType": "bool",
          "name": "",
          "type": "bool"
        }
      ],
      "stateMutability": "view",
      "type": "function"
    },
    {
      "inputs": [
        {
          "components": [
            {
              "internalType": "address",
              "name": "buyer",
              "type": "address"
            },
            {
              "internalType": "uint32",
              "name": "quantity",
              "type": "uint32"
            },
            {
              "internalType": "uint32",
              "name": "productId",
              "type": "uint32"
            },
            {
              "internalType": "bytes",
              "name": "buyerCustomData",
              "type": "bytes"
            }
          ],
          "internalType": "struct ReducedPurchaseParams[]",
          "name": "purchases",
          "type": "tuple[]"
        }
      ],
      "name": "payDeframeProducts",
      "outputs": [],
      "stateMutability": "payable",
      "type": "function"
    },
    {
      "inputs": [
        {
          "components": [
            {
              "internalType": "address",
              "name": "buyer",
              "type": "address"
            },
            {
              "internalType": "uint128",
              "name": "slicerId",
              "type": "uint128"
            },
            {
              "internalType": "uint32",
              "name": "quantity",
              "type": "uint32"
            },
            {
              "internalType": "address",
              "name": "currency",
              "type": "address"
            },
            {
              "internalType": "uint32",
              "name": "productId",
              "type": "uint32"
            },
            {
              "internalType": "bytes",
              "name": "buyerCustomData",
              "type": "bytes"
            }
          ],
          "internalType": "struct PurchaseParams[]",
          "name": "purchases",
          "type": "tuple[]"
        }
      ],
      "name": "payProducts",
      "outputs": [],
      "stateMutability": "payable",
      "type": "function"
    },
    {
      "inputs": [
        {
          "components": [
            {
              "internalType": "address",
              "name": "buyer",
              "type": "address"
            },
            {
              "internalType": "uint128",
              "name": "slicerId",
              "type": "uint128"
            },
            {
              "internalType": "uint32",
              "name": "quantity",
              "type": "uint32"
            },
            {
              "internalType": "address",
              "name": "currency",
              "type": "address"
            },
            {
              "internalType": "uint32",
              "name": "productId",
              "type": "uint32"
            },
            {
              "internalType": "bytes",
              "name": "buyerCustomData",
              "type": "bytes"
            }
          ],
          "internalType": "struct PurchaseParams[]",
          "name": "purchases",
          "type": "tuple[]"
        },
        {
          "components": [
            {
              "internalType": "address",
              "name": "from",
              "type": "address"
            },
            {
              "internalType": "uint256",
              "name": "value",
              "type": "uint256"
            },
            {
              "internalType": "uint256",
              "name": "validAfter",
              "type": "uint256"
            },
            {
              "internalType": "uint256",
              "name": "validBefore",
              "type": "uint256"
            },
            {
              "internalType": "bytes32",
              "name": "nonce",
              "type": "bytes32"
            },
            {
              "internalType": "uint8",
              "name": "v",
              "type": "uint8"
            },
            {
              "internalType": "bytes32",
              "name": "r",
              "type": "bytes32"
            },
            {
              "internalType": "bytes32",
              "name": "s",
              "type": "bytes32"
            }
          ],
          "internalType": "struct PayWithAuthorizationParams",
          "name": "authorizationParams",
          "type": "tuple"
        }
      ],
      "name": "payWithAuthorization",
      "outputs": [],
      "stateMutability": "payable",
      "type": "function"
    },
    {
      "inputs": [],
      "name": "priceFeed",
      "outputs": [
        {
          "internalType": "contract IPriceFeed",
          "name": "",
          "type": "address"
        }
      ],
      "stateMutability": "view",
      "type": "function"
    },
    {
      "inputs": [
        {
          "internalType": "uint256",
          "name": "slicerId",
          "type": "uint256"
        },
        {
          "internalType": "uint256",
          "name": "productId",
          "type": "uint256"
        },
        {
          "internalType": "address",
          "name": "currency",
          "type": "address"
        },
        {
          "internalType": "uint256",
          "name": "quantity",
          "type": "uint256"
        },
        {
          "internalType": "address",
          "name": "buyer",
          "type": "address"
        },
        {
          "internalType": "bytes",
          "name": "data",
          "type": "bytes"
        }
      ],
      "name": "productPrice",
      "outputs": [
        {
          "components": [
            {
              "internalType": "uint256",
              "name": "eth",
              "type": "uint256"
            },
            {
              "internalType": "uint256",
              "name": "currency",
              "type": "uint256"
            },
            {
              "internalType": "uint256",
              "name": "ethExternalCall",
              "type": "uint256"
            },
            {
              "internalType": "uint256",
              "name": "currencyExternalCall",
              "type": "uint256"
            }
          ],
          "internalType": "struct Price",
          "name": "price",
          "type": "tuple"
        }
      ],
      "stateMutability": "view",
      "type": "function"
    },
    {
      "inputs": [],
      "name": "proxiableUUID",
      "outputs": [
        {
          "internalType": "bytes32",
          "name": "",
          "type": "bytes32"
        }
      ],
      "stateMutability": "view",
      "type": "function"
    },
    {
      "inputs": [
        {
          "internalType": "uint256",
          "name": "slicerId",
          "type": "uint256"
        }
      ],
      "name": "releaseEthToSlicer",
      "outputs": [],
      "stateMutability": "nonpayable",
      "type": "function"
    },
    {
      "inputs": [
        {
          "internalType": "uint256",
          "name": "slicerId",
          "type": "uint256"
        },
        {
          "internalType": "uint256",
          "name": "productId",
          "type": "uint256"
        }
      ],
      "name": "removeProduct",
      "outputs": [],
      "stateMutability": "nonpayable",
      "type": "function"
    },
    {
      "inputs": [],
      "name": "renounceOwnership",
      "outputs": [],
      "stateMutability": "nonpayable",
      "type": "function"
    },
    {
      "inputs": [
        {
          "internalType": "uint256",
          "name": "slicerId",
          "type": "uint256"
        },
        {
          "internalType": "uint256",
          "name": "productId",
          "type": "uint256"
        },
        {
          "components": [
            {
              "internalType": "bytes",
              "name": "data",
              "type": "bytes"
            },
            {
              "internalType": "uint256",
              "name": "value",
              "type": "uint256"
            },
            {
              "internalType": "address",
              "name": "externalAddress",
              "type": "address"
            },
            {
              "internalType": "bytes4",
              "name": "checkFunctionSignature",
              "type": "bytes4"
            },
            {
              "internalType": "bytes4",
              "name": "execFunctionSignature",
              "type": "bytes4"
            }
          ],
          "internalType": "struct Function",
          "name": "externalCall_",
          "type": "tuple"
        }
      ],
      "name": "setProductExternalCall",
      "outputs": [],
      "stateMutability": "nonpayable",
      "type": "function"
    },
    {
      "inputs": [
        {
          "internalType": "uint256",
          "name": "slicerId",
          "type": "uint256"
        },
        {
          "internalType": "uint256",
          "name": "productId",
          "type": "uint256"
        },
        {
          "internalType": "uint8",
          "name": "newMaxUnits",
          "type": "uint8"
        },
        {
          "internalType": "bool",
          "name": "isFree",
          "type": "bool"
        },
        {
          "internalType": "bool",
          "name": "isInfinite",
          "type": "bool"
        },
        {
          "internalType": "uint32",
          "name": "newUnits",
          "type": "uint32"
        },
        {
          "components": [
            {
              "internalType": "uint248",
              "name": "value",
              "type": "uint248"
            },
            {
              "internalType": "bool",
              "name": "dynamicPricing",
              "type": "bool"
            },
            {
              "internalType": "address",
              "name": "externalAddress",
              "type": "address"
            },
            {
              "internalType": "address",
              "name": "currency",
              "type": "address"
            }
          ],
          "internalType": "struct CurrencyPrice[]",
          "name": "currencyPrices",
          "type": "tuple[]"
        }
      ],
      "name": "setProductInfo",
      "outputs": [],
      "stateMutability": "nonpayable",
      "type": "function"
    },
    {
      "inputs": [],
      "name": "sliceCore",
      "outputs": [
        {
          "internalType": "contract ISliceCore",
          "name": "",
          "type": "address"
        }
      ],
      "stateMutability": "view",
      "type": "function"
    },
    {
      "inputs": [
        {
          "internalType": "address",
          "name": "newOwner",
          "type": "address"
        }
      ],
      "name": "transferOwnership",
      "outputs": [],
      "stateMutability": "nonpayable",
      "type": "function"
    },
    {
      "inputs": [
        {
          "internalType": "address",
          "name": "newImplementation",
          "type": "address"
        }
      ],
      "name": "upgradeTo",
      "outputs": [],
      "stateMutability": "nonpayable",
      "type": "function"
    },
    {
      "inputs": [
        {
          "internalType": "address",
          "name": "newImplementation",
          "type": "address"
        },
        {
          "internalType": "bytes",
          "name": "data",
          "type": "bytes"
        }
      ],
      "name": "upgradeToAndCall",
      "outputs": [],
      "stateMutability": "payable",
      "type": "function"
    },
    {
      "inputs": [
        {
          "internalType": "uint256",
          "name": "slicerId",
          "type": "uint256"
        },
        {
          "internalType": "uint256",
          "name": "productId",
          "type": "uint256"
        }
      ],
      "name": "validatePurchase",
      "outputs": [
        {
          "internalType": "uint256",
          "name": "purchases",
          "type": "uint256"
        },
        {
          "internalType": "bytes",
          "name": "purchaseData",
          "type": "bytes"
        }
      ],
      "stateMutability": "view",
      "type": "function"
    },
    {
      "inputs": [
        {
          "internalType": "address",
          "name": "account",
          "type": "address"
        },
        {
          "internalType": "uint256",
          "name": "slicerId",
          "type": "uint256"
        },
        {
          "internalType": "uint256",
          "name": "productId",
          "type": "uint256"
        }
      ],
      "name": "validatePurchaseUnits",
      "outputs": [
        {
          "internalType": "uint256",
          "name": "purchases",
          "type": "uint256"
        }
      ],
      "stateMutability": "view",
      "type": "function"
    }
  ],
  "bytecode": "0x60a0604052306080523480156200001557600080fd5b506200002062000026565b620000e8565b600054610100900460ff1615620000935760405162461bcd60e51b815260206004820152602760248201527f496e697469616c697a61626c653a20636f6e747261637420697320696e697469604482015266616c697a696e6760c81b606482015260840160405180910390fd5b60005460ff9081161015620000e6576000805460ff191660ff9081179091556040519081527f7f26b83ff96e1f2b6a682f133852f6798a09c465da95921460cefb38474024989060200160405180910390a15b565b608051615bef6200012060003960008181610c6e01528181610cb701528181610ecf01528181610f0f015261127e0152615bef6000f3fe6080604052600436106101c15760003560e01c80638129fc1c116100f7578063c993a08d11610095578063f2fde38b11610064578063f2fde38b1461054d578063f4c763631461056d578063f5dbf04914610595578063ff3ef63f146105a857600080fd5b8063c993a08d146104cd578063d2c5ca9a146104ed578063d7a3d0c814610500578063e6e928081461052d57600080fd5b806395f23704116100d157806395f2370414610440578063b79811e214610460578063bf17f2f21461047d578063c1226f801461049d57600080fd5b80638129fc1c146103fa5780638a0fdce41461040f5780638da5cb5b1461042257600080fd5b80635287d535116101645780636740ff401161013e5780636740ff401461035d578063715018a61461039d578063741bef1a146103b25780637a77fa45146103da57600080fd5b80635287d535146102f657806352d1902d146103165780635c975abb1461033957600080fd5b80633659cfe6116101a05780633659cfe614610280578063405b4c36146102a05780634c04e9c6146102b55780634f1ef286146102e357600080fd5b806204aa87146101c65780630d24c670146101e85780631eafafb414610208575b600080fd5b3480156101d257600080fd5b506101e66101e13660046148ab565b6105c8565b005b3480156101f457600080fd5b506101e6610203366004614938565b6106e4565b34801561021457600080fd5b50610266610223366004614a06565b600091825260fb60209081526040808420928452600192830190915290912060080154600160c81b810463ffffffff1692600160f01b909104821c909116151590565b604080519283529015156020830152015b60405180910390f35b34801561028c57600080fd5b506101e661029b366004614a28565b610c64565b3480156102ac57600080fd5b506101e6610d4c565b3480156102c157600080fd5b506102d56102d0366004614a06565b610d71565b604051610277929190614a9d565b6101e66102f1366004614ab6565b610ec5565b34801561030257600080fd5b506101e6610311366004614a06565b610f95565b34801561032257600080fd5b5061032b611271565b604051908152602001610277565b34801561034557600080fd5b5060c95460ff165b6040519015158152602001610277565b34801561036957600080fd5b506103857361bcd1ed11fc03c958a847a6687b1875f5eacaaf81565b6040516001600160a01b039091168152602001610277565b3480156103a957600080fd5b506101e6611324565b3480156103be57600080fd5b50610385732b3eee365ce2c8a21096a348fc9005233229b58f81565b3480156103e657600080fd5b506101e66103f5366004614b05565b611336565b34801561040657600080fd5b506101e66114a0565b6101e661041d366004614c94565b6115b0565b34801561042e57600080fd5b506097546001600160a01b0316610385565b34801561044c57600080fd5b5061032b61045b366004614d53565b611789565b34801561046c57600080fd5b5061032b686c6b935b8bbd40000081565b34801561048957600080fd5b5061032b610498366004614d88565b6117c5565b3480156104a957600080fd5b5061032b6104b8366004614d88565b600090815260fb602052604090205460010190565b3480156104d957600080fd5b506101e66104e8366004614d88565b6117f0565b6101e66104fb366004614da1565b611873565b34801561050c57600080fd5b5061052061051b366004614dd5565b61187e565b6040516102779190614e52565b34801561053957600080fd5b5061034d610548366004614e7d565b6118e0565b34801561055957600080fd5b506101e6610568366004614a28565b611926565b34801561057957600080fd5b50610385735cef0380ce0ad3daeefef8bdb85dbded7965adf981565b6101e66105a3366004614eb6565b61199c565b3480156105b457600080fd5b506101e66105c3366004615098565b611b15565b600083815260fb60209081526040808320600381015486855260019091019092529091206001600160a01b0390911690819061060581833361279d565b6106225760405163ea8e4eb560e01b815260040160405180910390fd5b835180518591600384019161063e9183916020909101906145a0565b50602082015160018201556040808301516002909201805460608501516080909501516001600160a01b039094166001600160c01b031990911617600160a01b60e095861c021763ffffffff60c01b1916600160c01b9390941c9290920292909217905551859087907f1dc9b6a2e759a6aba0408c06b83deb0f57c90dee629f039e0b31423a1337785d906106d490889061525e565b60405180910390a3505050505050565b600088815260fb6020908152604080832060038101548b855260019091019092529091206001600160a01b0390911690819061072181833361279d565b61073e5760405163ea8e4eb560e01b815260040160405180910390fd5b8315610a91576040805160808101825260008082526020820181905291810182905260608101829052905b85811015610a8e5786868281811061078357610783615271565b9050608002018036038101906107999190615287565b60608101519092506001600160a01b03161561083c57606082015160405163b25e9c3960e01b81526001600160a01b0391821660048201529085169063b25e9c3990602401602060405180830381865afa1580156107fb573d6000803e3d6000fd5b505050506040513d601f19601f8201168201806040525081019061081f91906152a3565b61083c57604051630b27db6160e11b815260040160405180910390fd5b60608201516001600160a01b0316600090815260018401602052604090205482516001600160f81b039081169116146108ad57815160608301516001600160a01b03166000908152600185016020526040902080546001600160f81b0319166001600160f81b039092169190911790555b60608201516001600160a01b0316600090815260018401602090815260409091205490830151600160f81b90910460ff16151590151514610a145760608201516001600160a01b0316156109d257606082015160405163a2d7046f60e01b81526006602160991b0160048201526001600160a01b03909116602482015262093a80604482015260026064820152600090732b3eee365ce2c8a21096a348fc9005233229b58f9063a2d7046f906084016000604051808303816000875af115801561097b573d6000803e3d6000fd5b505050506040513d6000823e601f3d908101601f191682016040526109a39190810190615336565b505080519091506001600160a01b03166109d057604051632b9bb16560e11b815260040160405180910390fd5b505b60208083015160608401516001600160a01b031660009081526001860190925260409091208054911515600160f81b026001600160f81b039092169190911790555b60608201516001600160a01b03908116600090815260018086016020526040918290200154908401518216911614610a865760408281015160608401516001600160a01b039081166000908152600187810160205293902090920180546001600160a01b031916929091169190911790555b600101610769565b50505b610aa48b84898963ffffffff16856128a8565b878015610abd57506008810154600160f01b9004600116155b80610ade575087158015610ade57506008810154600160f01b900460011615155b15610b095760088101805460ff600160f01b80830482166001189091160260ff60f01b199091161790555b868015610b2557506008810154600160f01b9004600190811c16155b80610b49575086158015610b4957506008810154600160f01b9004600190811c1615155b15610b745760088101805460ff600160f01b80830482166002189091160260ff60f01b199091161790555b600881015460ff8a8116600160e81b9092041614610ba75760088101805460ff60e81b1916600160e81b60ff8c16021790555b8615610bc45760088101805463ffffffff60c81b19169055610c00565b600881015463ffffffff878116600160c81b9092041614610c005760088101805463ffffffff60c81b1916600160c81b63ffffffff8916021790555b898b7f47ed3606b96c516c076d9567a4deb8181f5da7370bdb1fedb883a7d3d5e890b98b8b8b8660080160199054906101000a900463ffffffff168b8b604051610c4f96959493929190615403565b60405180910390a35050505050505050505050565b6001600160a01b037f0000000000000000000000000000000000000000000000000000000000000000163003610cb55760405162461bcd60e51b8152600401610cac906154c6565b60405180910390fd5b7f00000000000000000000000000000000000000000000000000000000000000006001600160a01b0316610cfe600080516020615b53833981519152546001600160a01b031690565b6001600160a01b031614610d245760405162461bcd60e51b8152600401610cac90615512565b610d2d81612b7a565b60408051600080825260208201909252610d4991839190612b82565b50565b610d54612ced565b60c95460ff1615610d6957610d67612d47565b565b610d67612d99565b600060603073b9d5b99d5d0fa04dd7eb2b0cd7753317c2ea1a8414610da95760405163acbcffa760e01b815260040160405180910390fd5b600084815260fb60209081526040808320868452600101825280832033845290915281205463ffffffff169003610df3576040516363aae7a360e01b815260040160405180910390fd5b600084815260fb602090815260408083208684526001018083528184203385528084529184205493879052909152600701805463ffffffff909216918190610e3a9061555e565b80601f0160208091040260200160405190810160405280929190818152602001828054610e669061555e565b8015610eb35780601f10610e8857610100808354040283529160200191610eb3565b820191906000526020600020905b815481529060010190602001808311610e9657829003601f168201915b50505050509050915091509250929050565b6001600160a01b037f0000000000000000000000000000000000000000000000000000000000000000163003610f0d5760405162461bcd60e51b8152600401610cac906154c6565b7f00000000000000000000000000000000000000000000000000000000000000006001600160a01b0316610f56600080516020615b53833981519152546001600160a01b031690565b6001600160a01b031614610f7c5760405162461bcd60e51b8152600401610cac90615512565b610f8582612b7a565b610f9182826001612b82565b5050565b600082815260fb60209081526040808320600381015485855260019091019092529091206001600160a01b03909116908190610fd281833361279d565b610fef5760405163ea8e4eb560e01b815260040160405180910390fd5b60058101546001600160a01b038085169116036112155760008082600301600001805461101b9061555e565b80601f01602080910402602001604051908101604052809291908181526020018280546110479061555e565b80156110945780601f1061106957610100808354040283529160200191611094565b820191906000526020600020905b81548152906001019060200180831161107757829003601f168201915b50505050508060200190518101906110ac9190615598565b600585015491935091506302868bf960e11b600160c01b90910460e01b6001600160e01b0319160161114757600087815260fc602090815260408083206001600160a01b0386168085529083528184208585528352818420805460ff191690559051928352839290918a917f76529e1c5add2962fbfae2a36bbcf688a5c01516b043ad429f1d81830687a2db910160405180910390a4611212565b600583015462fc808960e71b600160c01b90910460e01b6001600160e01b03191601611212576008830154600088815260fd602090815260408083206001600160a01b0387168452825280832085845290915281208054600160c81b90930463ffffffff16929091906111bb9084906155dc565b9091555050600087815260fd602090815260408083206001600160a01b0386168085529083528184208585528352928190205490519081528392918a91600080516020615b9a833981519152910160405180910390a45b50505b600881018054600168ffffffff000000000160a01b031916905561123d600682016000614624565b604051849086907fd647384cccbd8b477a7b02b9e866072937e9a23b473b9de13fc0c6cb1d392a0a90600090a35050505050565b6000306001600160a01b037f000000000000000000000000000000000000000000000000000000000000000016146113115760405162461bcd60e51b815260206004820152603860248201527f555550535570677261646561626c653a206d757374206e6f742062652063616c60448201527f6c6564207468726f7567682064656c656761746563616c6c00000000000000006064820152608401610cac565b50600080516020615b5383398151915290565b61132c612ced565b610d676000612dd6565b604051630bafd3f560e11b815260048101839052600090735cef0380ce0ad3daeefef8bdb85dbded7965adf99063175fa7ea90602401602060405180830381865afa158015611389573d6000803e3d6000fd5b505050506040513d601f19601f820116820180604052508101906113ad91906155f3565b60405163166eb15b60e21b81523360048201529091506001600160a01b038216906359bac56c90602401602060405180830381865afa1580156113f4573d6000803e3d6000fd5b505050506040513d601f19601f8201168201806040525081019061141891906152a3565b6114355760405163ea8e4eb560e01b815260040160405180910390fd5b827f8c6e9bb8cde5fe30df326b2ec6bd9b6a0cc6cb8b2ec744b72baa06ac3de60ade83604051611469911515815260200190565b60405180910390a250600091825260fb60205260409091206003018054911515600160a01b0260ff60a01b19909216919091179055565b600054610100900460ff16158080156114c05750600054600160ff909116105b806114da5750303b1580156114da575060005460ff166001145b61153d5760405162461bcd60e51b815260206004820152602e60248201527f496e697469616c697a61626c653a20636f6e747261637420697320616c72656160448201526d191e481a5b9a5d1a585b1a5e995960921b6064820152608401610cac565b6000805460ff191660011790558015611560576000805461ff0019166101001790555b611568612e28565b8015610d49576000805461ff0019169055604051600181527f7f26b83ff96e1f2b6a682f133852f6798a09c465da95921460cefb38474024989060200160405180910390a150565b805160208201516040808401516060850151608086015160a087015160c088015160e089015195516371f70b0760e11b81526001600160a01b03909816600489015230602489015260448801969096526064870193909352608486019190915260a485015260ff1660c484015260e483019190915261010482015273833589fcd6edb6e08f4c7c32d4f71b54bda029139063e3ee160e9061012401600060405180830381600087803b15801561166557600080fd5b505af1158015611679573d6000803e3d6000fd5b50505050611688826001612e57565b6040516370a0823160e01b815230600482015260009073833589fcd6edb6e08f4c7c32d4f71b54bda02913906370a0823190602401602060405180830381865afa1580156116da573d6000803e3d6000fd5b505050506040513d601f19601f820116820180604052508101906116fe9190615610565b905080156117845760405163a9059cbb60e01b81523360048201526024810182905273833589fcd6edb6e08f4c7c32d4f71b54bda029139063a9059cbb906044016020604051808303816000875af115801561175e573d6000803e3d6000fd5b505050506040513d601f19601f8201168201806040525081019061178291906152a3565b505b505050565b600082815260fb6020908152604080832084845260010182528083206001600160a01b038716845290915290205463ffffffff165b9392505050565b600081815260fb6020526040812060020154600181116117e65760006117be565b6000190192915050565b60006117fb826117c5565b90508015610f9157600082815260fb60205260409020600381015460016002909201919091556001600160a01b03166118348183612ebe565b827f04cc711f7db61e897a32f3fe3e3faa9861b68d7d19fd9a669348213087b227268360405161186691815260200190565b60405180910390a2505050565b610d49816000612e57565b6118a96040518060800160405280600081526020016000815260200160008152602001600081525090565b600087815260fb6020908152604080832089845260010190915290206118d481898989898989612f0f565b98975050505050505050565b600083815260fb6020818152604080842086855260018101835290842087855292909152600301546001600160a01b031661191c82828661279d565b9695505050505050565b61192e612ced565b6001600160a01b0381166119935760405162461bcd60e51b815260206004820152602660248201527f4f776e61626c653a206e6577206f776e657220697320746865207a65726f206160448201526564647265737360d01b6064820152608401610cac565b610d4981612dd6565b806000816001600160401b038111156119b7576119b761466f565b604051908082528060200260200182016040528015611a1957816020015b6040805160c081018252600080825260208083018290529282018190526060808301829052608083019190915260a082015282526000199092019101816119d55790505b50604080516080810182526000808252602082018190529181018290526060808201529192505b83811015611b0257858582818110611a5a57611a5a615271565b9050602002810190611a6c9190615629565b611a7590615649565b91506040518060c0016040528083600001516001600160a01b0316815260200160c06001600160801b03168152602001836020015163ffffffff16815260200160006001600160a01b03168152602001836040015163ffffffff1681526020018360600151815250838281518110611aef57611aef615271565b6020908102919091010152600101611a40565b50611b0e826000612e57565b5050505050565b600083815260fb6020526040902080546001019081905563ffffffff811115611b5157604051636dac6a0960e01b815260040160405180910390fd5b80600103611c9b57604051630bafd3f560e11b815260048101859052600090735cef0380ce0ad3daeefef8bdb85dbded7965adf99063175fa7ea90602401602060405180830381865afa158015611bac573d6000803e3d6000fd5b505050506040513d601f19601f82011682018060405250810190611bd091906155f3565b6001600160a01b031603611bf757604051636dac6a0960e01b815260040160405180910390fd5b604051630bafd3f560e11b815260048101859052735cef0380ce0ad3daeefef8bdb85dbded7965adf99063175fa7ea90602401602060405180830381865afa158015611c47573d6000803e3d6000fd5b505050506040513d601f19601f82011682018060405250810190611c6b91906155f3565b600085815260fb6020526040902060030180546001600160a01b0319166001600160a01b03929092169190911790555b600084815260fb60205260409081902060030154905163166eb15b60e21b81523360048201526001600160a01b039091169081906359bac56c90602401602060405180830381865afa158015611cf5573d6000803e3d6000fd5b505050506040513d601f19601f82011682018060405250810190611d1991906152a3565b611d365760405163ea8e4eb560e01b815260040160405180910390fd5b600085815260fb6020908152604080832063ffffffff86168452600101909152902084515115611e5f5760005b855151811015611e5d57611ded60fb600088600001518481518110611d8a57611d8a615271565b6020026020010151600001516001600160801b03168152602001908152602001600020600101600088600001518481518110611dc857611dc8615271565b60200260200101516020015163ffffffff168152602001908152602001600020613430565b8160020186600001518281518110611e0757611e07615271565b602090810291909101810151825460018181018555600094855293839020825191018054929093015163ffffffff16600160801b026001600160a01b03199092166001600160801b039091161717905501611d63565b505b6040805160808101825260008082526020820181905291810182905260608101829052905b8660200151518110156121425786602001518181518110611ea757611ea7615271565b6020026020010151915060006001600160a01b031682606001516001600160a01b031614158015611f455750606082015160405163b25e9c3960e01b81526001600160a01b0391821660048201529085169063b25e9c3990602401602060405180830381865afa158015611f1f573d6000803e3d6000fd5b505050506040513d601f19601f82011682018060405250810190611f4391906152a3565b155b15611f6357604051630b27db6160e11b815260040160405180910390fd5b81516001600160f81b031615611fb157815160608301516001600160a01b03166000908152600185016020526040902080546001600160f81b0319166001600160f81b039092169190911790555b8160200151156120e75760608201516001600160a01b0316156120a557606082015160405163a2d7046f60e01b81526006602160991b0160048201526001600160a01b03909116602482015262093a80604482015260026064820152600090732b3eee365ce2c8a21096a348fc9005233229b58f9063a2d7046f906084016000604051808303816000875af115801561204e573d6000803e3d6000fd5b505050506040513d6000823e601f3d908101601f191682016040526120769190810190615336565b505080519091506001600160a01b03166120a357604051632b9bb16560e11b815260040160405180910390fd5b505b60208083015160608401516001600160a01b031660009081526001860190925260409091208054911515600160f81b026001600160f81b039092169190911790555b60408201516001600160a01b03161561213a5760408281015160608401516001600160a01b039081166000908152600187810160205293902090920180546001600160a01b031916929091169190911790555b600101611e84565b5060408501516001600160a01b03161561263257826001600160a01b031685604001516001600160a01b0316036124d357600080866000015180602001905181019061218e9190615598565b608089015191935091506001600160e01b0319166302868bf960e11b0161233c57876080015163ffffffff1660011415806121d157508760a0015160ff16600114155b806121dd57508760e001515b8061225d57506040516331a9108f60e11b8152600481018290526001600160a01b038087169190841690636352211e90602401602060405180830381865afa15801561222d573d6000803e3d6000fd5b505050506040513d601f19601f8201168201806040525081019061225191906155f3565b6001600160a01b031614155b1561227b5760405163ea8e4eb560e01b815260040160405180910390fd5b600089815260fc602090815260408083206001600160a01b0386168452825280832084845290915290205460ff16156122c7576040516319e7a92b60e31b815260040160405180910390fd5b600089815260fc602090815260408083206001600160a01b038616808552908352818420858552835292819020805460ff1916600190811790915590519081528392918c917f76529e1c5add2962fbfae2a36bbcf688a5c01516b043ad429f1d81830687a2db910160405180910390a46124d0565b60808701516001600160e01b03191662fc808960e71b016124d0578760e00151806124135750604051627eeac760e11b81526001600160a01b0386811660048301526024820183905283169062fdd58e90604401602060405180830381865afa1580156123ad573d6000803e3d6000fd5b505050506040513d601f19601f820116820180604052508101906123d19190615610565b60008a815260fd602090815260408083206001600160a01b0387168452825280832085845290915290205460808a0151612411919063ffffffff166156c3565b115b1561243157604051636dac6a0960e01b815260040160405180910390fd5b608088015160008a815260fd602090815260408083206001600160a01b038716845282528083208584529091528120805463ffffffff909316929091906124799084906156c3565b9091555050600089815260fd602090815260408083206001600160a01b0386168085529083528184208585528352928190205490519081528392918c91600080516020615b9a833981519152910160405180910390a45b50505b60408501516005830180546001600160a01b0319166001600160a01b0390921691909117905560808501516001600160e01b0319161561257457608085015160058301805460e09290921c600160c01b0263ffffffff60c01b1990921691909117905560608501516001600160e01b0319161561257457606085015160058301805460e09290921c600160a01b0263ffffffff60a01b199092169190911790555b8451511561259657845180516125949160038501916020909101906145a0565b505b6020850151156125ab57602085015160048301555b856101200151156125da5760088201805460ff60f01b1981166004600160f01b9283900460ff16179091021790555b85610100015115612632576127108560200151111561260c57604051633806212b60e21b815260040160405180910390fd5b6008828101805460ff60f01b198116600160f01b9182900460ff16909317029190911790555b6008820180546001600160a01b0319163317905560c0860151156126745760088201805460ff60f01b1981166001600160f01b9283900460ff16179091021790555b60a086015160ff16156126a75760a086015160088301805460ff909216600160e81b0260ff60e81b199092169190911790555b8560e00151156126d95760088201805460ff60f01b1981166002600160f01b9283900460ff1617909102179055612705565b608086015160088301805463ffffffff909216600160c81b0263ffffffff60c81b199092169190911790555b6040860151511561272d576040860151805161272b9160068501916020909101906145a0565b505b6060860151511561275557606086015180516127539160078501916020909101906145a0565b505b600084887f029a4465749d55fe5b28a7e348370e8ef8083bf6deb663e933b59f8dbe7500e7338a8a60405161278c9392919061579a565b60405180910390a450505050505050565b60006127a884613430565b600884015460405163166eb15b60e21b81526001600160a01b039182166004820152908416906359bac56c90602401602060405180830381865afa1580156127f4573d6000803e3d6000fd5b505050506040513d601f19601f8201168201806040525081019061281891906152a3565b15612836575060088301546001600160a01b038281169116146117be565b60405163166eb15b60e21b81526001600160a01b0383811660048301528416906359bac56c90602401602060405180830381865afa15801561287c573d6000803e3d6000fd5b505050506040513d601f19601f820116820180604052508101906128a091906152a3565b949350505050565b60058101546001600160a01b03808616911603611b0e576000808260030160000180546128d49061555e565b80601f01602080910402602001604051908101604052809291908181526020018280546129009061555e565b801561294d5780601f106129225761010080835404028352916020019161294d565b820191906000526020600020905b81548152906001019060200180831161293057829003601f168201915b50505050508060200190518101906129659190615598565b600585015491935091506302868bf960e11b600160c01b90910460e01b6001600160e01b031916016129d1576008830154600160c81b900463ffffffff16841415806129ae5750845b156129cc57604051636dac6a0960e01b815260040160405180910390fd5b612b71565b600583015462fc808960e71b600160c01b90910460e01b6001600160e01b03191601612b71578415612a1657604051636dac6a0960e01b815260040160405180910390fd5b6008830154600160c81b900463ffffffff168414612b7157604051627eeac760e11b81526001600160a01b038781166004830152602482018390526000919084169062fdd58e90604401602060405180830381865afa158015612a7d573d6000803e3d6000fd5b505050506040513d601f19601f82011682018060405250810190612aa19190615610565b600885015460008a815260fd602090815260408083206001600160a01b0389168452825280832087845290915281205492935091600160c81b90910463ffffffff1690612aef9088906156c3565b612af991906155dc565b905081811115612b1c57604051636dac6a0960e01b815260040160405180910390fd5b600089815260fd602090815260408083206001600160a01b038816808552908352818420878552835292819020849055518381528592918c91600080516020615b9a833981519152910160405180910390a450505b50505050505050565b610d49612ced565b7f4910fdfa16fed3260ed0e7147f7cc6da11a60208b5b9406d12a635614ffd91435460ff1615612bb5576117848361345b565b826001600160a01b03166352d1902d6040518163ffffffff1660e01b8152600401602060405180830381865afa925050508015612c0f575060408051601f3d908101601f19168201909252612c0c91810190615610565b60015b612c725760405162461bcd60e51b815260206004820152602e60248201527f45524331393637557067726164653a206e657720696d706c656d656e7461746960448201526d6f6e206973206e6f74205555505360901b6064820152608401610cac565b600080516020615b538339815191528114612ce15760405162461bcd60e51b815260206004820152602960248201527f45524331393637557067726164653a20756e737570706f727465642070726f786044820152681a58589b195555525160ba1b6064820152608401610cac565b506117848383836134f7565b6097546001600160a01b03163314610d675760405162461bcd60e51b815260206004820181905260248201527f4f776e61626c653a2063616c6c6572206973206e6f7420746865206f776e65726044820152606401610cac565b612d4f61351c565b60c9805460ff191690557f5db9ee0a495bf2e6ff9c91a7834c1ba4fdd244a5e8aa4e537bd38aeae4b073aa335b6040516001600160a01b03909116815260200160405180910390a1565b612da1613565565b60c9805460ff191660011790557f62e78cea01bee320cd4e420270b5ea74000d11b0c9f74754ebdbfc544b05a258612d7c3390565b609780546001600160a01b038381166001600160a01b0319831681179093556040519116919082907f8be0079c531659141344cd1fd0a4f28419497f9722a3daafe3b4186f6b6457e090600090a35050565b600054610100900460ff16612e4f5760405162461bcd60e51b8152600401610cac9061589f565b610d676135ab565b612e5f613565565b6000805b8351811015612ea357612e8f848281518110612e8157612e81615271565b6020026020010151846135db565b612e9990836156c3565b9150600101612e63565b506000612eb082346155dc565b905080156117825761178233825b600080600080600085875af19050806117845760405162461bcd60e51b815260206004820152601360248201527211551217d514905394d1915497d19052531151606a1b6044820152606401610cac565b612f3a6040518060800160405280600081526020016000815260200160008152602001600081525090565b612f4388613430565b6001600160a01b0380861660009081526001808b016020908152604092839020835160608101855281546001600160f81b038116825260ff600160f81b909104811615159382019390935292015490931691810182905260088b01549092600160f01b9091041690613298576001600160a01b038716612fde5785612fcd836001841615156142c8565b612fd791906158ea565b835261331a565b81602001511561320857600080805260018b0160205260409020546001600160f81b0316151580613018575081516001600160f81b031615155b156131df5781516000906001600160f81b0316810361309557600080805260018c81016020908152604092839020835160608101855281546001600160f81b0381168252600160f81b900460ff161515928101929092528201546001600160a01b0316928101929092526130909190841615156142c8565b6130a1565b82516001600160f81b03165b90506001600160801b038111156130cb57604051633806212b60e21b815260040160405180910390fd5b6040516331b889b160e11b81528790732b3eee365ce2c8a21096a348fc9005233229b58f906363711362906131139085906006602160991b01908e9061070890600401615909565b602060405180830381865afa158015613130573d6000803e3d6000fd5b505050506040513d601f19601f820116820180604052508101906131549190615610565b61315e91906158ea565b602085018190526000036131d957600080805260018c81016020908152604092839020835160608101855281546001600160f81b0381168252600160f81b900460ff161515928101929092528201546001600160a01b03169281019290925288916131cc91851615156142c8565b6131d691906158ea565b84525b5061331a565b6001811660000361320357604051630b27db6160e11b815260040160405180910390fd5b61331a565b81516001600160f81b03161561323857815161322e9087906001600160f81b03166158ea565b602084015261331a565b600080805260018b81016020908152604092839020835160608101855281546001600160f81b0381168252600160f81b900460ff161515928101929092528201546001600160a01b0316928101929092528791612fcd91841615156142c8565b81604001516001600160a01b031663d7a3d0c88a8a8a8a8a8a6040518763ffffffff1660e01b81526004016132d29695949392919061593f565b6040805180830381865afa1580156132ee573d6000803e3d6000fd5b505050506040513d601f19601f82011682018060405250810190613312919061597f565b602085015283525b60048a015415613423576001600382901c1615801561339e576001600283901c161580159061338257846020015160000361336857604051630b27db6160e11b815260040160405180910390fd5b60048c01546133789089906158ea565b6060860152613398565b60048c01546133929089906158ea565b60408601525b50613421565b6020840151156133e95760048b01546020850151612710916133bf916158ea565b6133c991906159a3565b606085018190526020850180516133e19083906155dc565b905250613421565b60048b01548451612710916133fd916158ea565b61340791906159a3565b604085018190528451859061341d9083906155dc565b9052505b505b5050979650505050505050565b60088101546001600160a01b0316610d49576040516329c2f8dd60e11b815260040160405180910390fd5b6001600160a01b0381163b6134c85760405162461bcd60e51b815260206004820152602d60248201527f455243313936373a206e657720696d706c656d656e746174696f6e206973206e60448201526c1bdd08184818dbdb9d1c9858dd609a1b6064820152608401610cac565b600080516020615b5383398151915280546001600160a01b0319166001600160a01b0392909216919091179055565b6135008361442e565b60008251118061350d5750805b1561178457611782838361446e565b60c95460ff16610d675760405162461bcd60e51b815260206004820152601460248201527314185d5cd8589b194e881b9bdd081c185d5cd95960621b6044820152606401610cac565b60c95460ff1615610d675760405162461bcd60e51b815260206004820152601060248201526f14185d5cd8589b194e881c185d5cd95960821b6044820152606401610cac565b600054610100900460ff166135d25760405162461bcd60e51b8152600401610cac9061589f565b610d6733612dd6565b6000826040015163ffffffff166000146142c2576020838101516001600160801b0316600090815260fb9091526040902060030154600160a01b900460ff161561363857604051632149aed960e21b815260040160405180910390fd5b600060fb600085602001516001600160801b031681526020019081526020016000206001016000856080015163ffffffff168152602001908152602001600020905060006136b88286602001516001600160801b0316876080015163ffffffff168860600151896040015163ffffffff168a600001518b60a00151612f0f565b6020868101516001600160801b0316600090815260fb909152604090206003015460088401549192506001600160a01b031690600160e81b900460ff161561376057600883015460408781015188516001600160a01b0316600090815260208790529190912054600160e81b90920460ff169161373b919063ffffffff166159c5565b63ffffffff16111561376057604051636dac6a0960e01b815260040160405180910390fd5b6008830154600160f01b9004600190811c166000036137e8576008830154604087015163ffffffff600160c81b9092048216911611156137b357604051636dac6a0960e01b815260040160405180910390fd5b604086015160088401805463ffffffff600160c81b8083048216949094031690920263ffffffff60c81b199092169190911790555b604082015182516137f991906156c3565b8251909450613812906001600160a01b03831690612ebe565b60408087015187516001600160a01b03166000908152602086905291822080549192909161384790849063ffffffff166159c5565b92506101000a81548163ffffffff021916908363ffffffff1602179055508160200151600014613980578461390057606086015160208301516040516323b872dd60e01b81523360048201526001600160a01b03848116602483015260448201929092529116906323b872dd906064016020604051808303816000875af11580156138d6573d6000803e3d6000fd5b505050506040513d601f19601f820116820180604052508101906138fa91906152a3565b50613980565b6060860151602083015160405163a9059cbb60e01b81526001600160a01b038481166004830152602482019290925291169063a9059cbb906044016020604051808303816000875af115801561395a573d6000803e3d6000fd5b505050506040513d601f19601f8201168201806040525081019061397e91906152a3565b505b600283015415613a765760005b6002840154811015613a7457613a606040518060c0016040528089600001516001600160a01b031681526020018660020184815481106139cf576139cf615271565b9060005260206000200160000160009054906101000a90046001600160801b03166001600160801b03168152602001896040015163ffffffff16815260200189606001516001600160a01b03168152602001866002018481548110613a3657613a36615271565b60009182526020918290200154600160801b900463ffffffff16825260a08b0151910152876135db565b613a6a90866156c3565b945060010161398d565b505b60058301546001600160a01b031615614254576005830154600090600160c01b900460e01b6001600160e01b03191615613ec55760058401546001600160a01b03808416911603613de957600080856003016000018054613ad69061555e565b80601f0160208091040260200160405190810160405280929190818152602001828054613b029061555e565b8015613b4f5780601f10613b2457610100808354040283529160200191613b4f565b820191906000526020600020905b815481529060010190602001808311613b3257829003601f168201915b5050505050806020019051810190613b679190615598565b600588015491935091506302868bf960e11b600160c01b90910460e01b6001600160e01b03191601613c8357885160405163ce55982b60e01b81526001600160a01b0391821660048201528382166024820152604481018390529085169063ce55982b90606401600060405180830381600087803b158015613be857600080fd5b505af1158015613bfc573d6000803e3d6000fd5b50505050602089810180516001600160801b03908116600090815260fc845260408082206001600160a01b0388168084529086528183208784528652818320805460ff19169055935190519182526001975085949216917f76529e1c5add2962fbfae2a36bbcf688a5c01516b043ad429f1d81830687a2db910160405180910390a4613de2565b600586015462fc808960e71b600160c01b90910460e01b6001600160e01b03191601613de25788516040808b0151905163296789eb60e11b81526001600160a01b039283166004820152848316602482015263ffffffff909116604482015260648101839052908516906352cf13d690608401600060405180830381600087803b158015613d1057600080fd5b505af1158015613d24573d6000803e3d6000fd5b5050506040808b01516020808d01516001600160801b0316600090815260fd82528381206001600160a01b03881682528252838120868252909152918220805463ffffffff90921693509190613d7b9084906155dc565b90915550506020898101516001600160801b0316600081815260fd835260408082206001600160a01b038716808452908552818320868452855291819020549051908152600196508493919291600080516020615b9a833981519152910160405180910390a45b5050614234565b600584015460408085015160208a015160808b01518b518c85015160a08e015195516001600160a01b038816979596600160c01b90960460e01b95613e3a959493929160038e0191906024016159ed565b60408051601f198184030181529181526020820180516001600160e01b03166001600160e01b0319909416939093179092529051613e789190615ae3565b60006040518083038185875af1925050503d8060008114613eb5576040519150601f19603f3d011682016040523d82523d6000602084013e613eba565b606091505b505080915050614234565b6060830151156141365785613f7157606080880151908401516040516323b872dd60e01b81523360048201527361bcd1ed11fc03c958a847a6687b1875f5eacaaf602482015260448101919091526001600160a01b03909116906323b872dd906064016020604051808303816000875af1158015613f47573d6000803e3d6000fd5b505050506040513d601f19601f82011682018060405250810190613f6b91906152a3565b50614004565b6060808801519084015160405163a9059cbb60e01b81527361bcd1ed11fc03c958a847a6687b1875f5eacaaf600482015260248101919091526001600160a01b039091169063a9059cbb906044016020604051808303816000875af1158015613fde573d6000803e3d6000fd5b505050506040513d601f19601f8201168201806040525081019061400291906152a3565b505b602087015160058501546060808a0151908601516040808801519051630b90c4a560e11b815260048101919091526001600160a01b0380841660248301527361bcd1ed11fc03c958a847a6687b1875f5eacaaf956359fc470a9590949082169390929091891690631721894a90604401602060405180830381865afa158015614091573d6000803e3d6000fd5b505050506040513d601f19601f820116820180604052508101906140b59190615610565b6040516001600160e01b031960e088901b1681526001600160801b0390951660048601526001600160a01b0393841660248601529290911660448401526064830152608482015260a401600060405180830381600087803b15801561411957600080fd5b505af115801561412d573d6000803e3d6000fd5b50505050614230565b60408381015160058601549151630b90c4a560e11b815260048101829052600060248201527361bcd1ed11fc03c958a847a6687b1875f5eacaaf926339ed512392916001600160a01b0391821691871690631721894a90604401602060405180830381865afa1580156141ad573d6000803e3d6000fd5b505050506040513d601f19601f820116820180604052508101906141d19190615610565b6040516001600160e01b031960e086901b1681526001600160a01b03909216600483015260248201526044016000604051808303818588803b15801561421657600080fd5b505af115801561422a573d6000803e3d6000fd5b50505050505b5060015b806142525760405163af6eefa360e01b815260040160405180910390fd5b505b85600001516001600160a01b0316866080015163ffffffff1687602001516001600160801b03167fb5fcbfbc97629da9c45f418c65a8ed3e96873f8e54c6c435180455987431e7a089604001518a60600151876040516142b693929190615af5565b60405180910390a45050505b92915050565b81516000906001600160f81b03161580156142e1575081155b156142ff57604051630b27db6160e11b815260040160405180910390fd5b82602001511561441f5782516001600160801b036001600160f81b03909116111561433d57604051633806212b60e21b815260040160405180910390fd5b82516040516331b889b160e11b8152732b3eee365ce2c8a21096a348fc9005233229b58f91636371136291614398919073833589fcd6edb6e08f4c7c32d4f71b54bda02913906006602160991b019061070890600401615909565b602060405180830381865afa1580156143b5573d6000803e3d6000fd5b505050506040513d601f19601f820116820180604052508101906143d99190615610565b90508060000361441a5760405162461bcd60e51b815260206004820152600c60248201526b125b9d985b1a59081c1bdbdb60a21b6044820152606401610cac565b6142c2565b5050516001600160f81b031690565b6144378161345b565b6040516001600160a01b038216907fbc7cd75a20ee27fd9adebab32041f755214dbc6bffa90cc0225b39da2e5c2d3b90600090a250565b60606001600160a01b0383163b6144d65760405162461bcd60e51b815260206004820152602660248201527f416464726573733a2064656c65676174652063616c6c20746f206e6f6e2d636f6044820152651b9d1c9858dd60d21b6064820152608401610cac565b600080846001600160a01b0316846040516144f19190615ae3565b600060405180830381855af49150503d806000811461452c576040519150601f19603f3d011682016040523d82523d6000602084013e614531565b606091505b50915091506145598282604051806060016040528060278152602001615b7360279139614562565b95945050505050565b606083156145715750816117be565b6117be83838151156145865781518083602001fd5b8060405162461bcd60e51b8152600401610cac9190615b3f565b8280546145ac9061555e565b90600052602060002090601f0160209004810192826145ce5760008555614614565b82601f106145e757805160ff1916838001178555614614565b82800160010185558215614614579182015b828111156146145782518255916020019190600101906145f9565b5061462092915061465a565b5090565b5080546146309061555e565b6000825580601f10614640575050565b601f016020900490600052602060002090810190610d4991905b5b80821115614620576000815560010161465b565b634e487b7160e01b600052604160045260246000fd5b60405160c081016001600160401b03811182821017156146a7576146a761466f565b60405290565b60405161010081016001600160401b03811182821017156146a7576146a761466f565b604080519081016001600160401b03811182821017156146a7576146a761466f565b604051608081016001600160401b03811182821017156146a7576146a761466f565b60405161014081016001600160401b03811182821017156146a7576146a761466f565b604051601f8201601f191681016001600160401b038111828210171561475f5761475f61466f565b604052919050565b600082601f83011261477857600080fd5b81356001600160401b038111156147915761479161466f565b6147a4601f8201601f1916602001614737565b8181528460208386010111156147b957600080fd5b816020850160208301376000918101602001919091529392505050565b6001600160a01b0381168114610d4957600080fd5b80356001600160e01b03198116811461480357600080fd5b919050565b600060a0828403121561481a57600080fd5b60405160a081016001600160401b03828210818311171561483d5761483d61466f565b81604052829350843591508082111561485557600080fd5b5061486285828601614767565b82525060208301356020820152604083013561487d816147d6565b604082015261488e606084016147eb565b606082015261489f608084016147eb565b60808201525092915050565b6000806000606084860312156148c057600080fd5b833592506020840135915060408401356001600160401b038111156148e457600080fd5b6148f086828701614808565b9150509250925092565b803560ff8116811461480357600080fd5b8015158114610d4957600080fd5b80356148038161490b565b803563ffffffff8116811461480357600080fd5b60008060008060008060008060e0898b03121561495457600080fd5b883597506020890135965061496b60408a016148fa565b9550606089013561497b8161490b565b9450608089013561498b8161490b565b935061499960a08a01614924565b925060c08901356001600160401b03808211156149b557600080fd5b818b0191508b601f8301126149c957600080fd5b8135818111156149d857600080fd5b8c60208260071b85010111156149ed57600080fd5b6020830194508093505050509295985092959890939650565b60008060408385031215614a1957600080fd5b50508035926020909101359150565b600060208284031215614a3a57600080fd5b81356117be816147d6565b60005b83811015614a60578181015183820152602001614a48565b838111156117825750506000910152565b60008151808452614a89816020860160208601614a45565b601f01601f19169290920160200192915050565b8281526040602082015260006128a06040830184614a71565b60008060408385031215614ac957600080fd5b8235614ad4816147d6565b915060208301356001600160401b03811115614aef57600080fd5b614afb85828601614767565b9150509250929050565b60008060408385031215614b1857600080fd5b823591506020830135614b2a8161490b565b809150509250929050565b60006001600160401b03821115614b4e57614b4e61466f565b5060051b60200190565b80356001600160801b038116811461480357600080fd5b600082601f830112614b8057600080fd5b81356020614b95614b9083614b35565b614737565b82815260059290921b84018101918181019086841115614bb457600080fd5b8286015b84811015614c895780356001600160401b0380821115614bd85760008081fd5b9088019060c0828b03601f1901811315614bf25760008081fd5b614bfa614685565b87840135614c07816147d6565b81526040614c16858201614b58565b898301526060614c27818701614924565b828401526080915081860135614c3c816147d6565b9083015260a0614c4d868201614924565b83830152928501359284841115614c6657600091508182fd5b614c748e8b86890101614767565b90830152508652505050918301918301614bb8565b509695505050505050565b600080828403610120811215614ca957600080fd5b83356001600160401b03811115614cbf57600080fd5b614ccb86828701614b6f565b93505061010080601f1983011215614ce257600080fd5b614cea6146ad565b91506020850135614cfa816147d6565b8083525060408501356020830152606085013560408301526080850135606083015260a08501356080830152614d3260c086016148fa565b60a083015260e08581013560c0840152940135938101939093525092909150565b600080600060608486031215614d6857600080fd5b8335614d73816147d6565b95602085013595506040909401359392505050565b600060208284031215614d9a57600080fd5b5035919050565b600060208284031215614db357600080fd5b81356001600160401b03811115614dc957600080fd5b6128a084828501614b6f565b60008060008060008060c08789031215614dee57600080fd5b86359550602087013594506040870135614e07816147d6565b9350606087013592506080870135614e1e816147d6565b915060a08701356001600160401b03811115614e3957600080fd5b614e4589828a01614767565b9150509295509295509295565b81518152602080830151908201526040808301519082015260608083015190820152608081016142c2565b600080600060608486031215614e9257600080fd5b83359250602084013591506040840135614eab816147d6565b809150509250925092565b60008060208385031215614ec957600080fd5b82356001600160401b0380821115614ee057600080fd5b818501915085601f830112614ef457600080fd5b813581811115614f0357600080fd5b8660208260051b8501011115614f1857600080fd5b60209290920196919550909350505050565b600082601f830112614f3b57600080fd5b81356020614f4b614b9083614b35565b82815260069290921b84018101918181019086841115614f6a57600080fd5b8286015b84811015614c895760408189031215614f875760008081fd5b614f8f6146d0565b614f9882614b58565b8152614fa5858301614924565b81860152835291830191604001614f6e565b80356001600160f81b038116811461480357600080fd5b600060808284031215614fe057600080fd5b614fe86146f2565b9050614ff382614fb7565b815260208201356150038161490b565b60208201526040820135615016816147d6565b60408201526060820135615029816147d6565b606082015292915050565b600082601f83011261504557600080fd5b81356020615055614b9083614b35565b82815260079290921b8401810191818101908684111561507457600080fd5b8286015b84811015614c895761508a8882614fce565b835291830191608001615078565b6000806000606084860312156150ad57600080fd5b8335925060208401356001600160401b03808211156150cb57600080fd5b9085019061014082880312156150e057600080fd5b6150e8614714565b8235828111156150f757600080fd5b61510389828601614f2a565b82525060208301358281111561511857600080fd5b61512489828601615034565b60208301525060408301358281111561513c57600080fd5b61514889828601614767565b60408301525060608301358281111561516057600080fd5b61516c89828601614767565b60608301525061517e60808401614924565b608082015261518f60a084016148fa565b60a08201526151a060c08401614919565b60c08201526151b160e08401614919565b60e08201526101006151c4818501614919565b908201526101206151d6848201614919565b90820152935060408601359150808211156151f057600080fd5b506148f086828701614808565b6000815160a0845261521260a0850182614a71565b602084810151908601526040808501516001600160a01b0316908601526060808501516001600160e01b0319908116918701919091526080948501511693909401929092525090919050565b6020815260006117be60208301846151fd565b634e487b7160e01b600052603260045260246000fd5b60006080828403121561529957600080fd5b6117be8383614fce565b6000602082840312156152b557600080fd5b81516117be8161490b565b600082601f8301126152d157600080fd5b815160206152e1614b9083614b35565b82815260059290921b8401810191818101908684111561530057600080fd5b8286015b84811015614c895780518060060b811461531e5760008081fd5b8352918301918301615304565b8051614803816147d6565b600080600083850360c081121561534c57600080fd5b608081121561535a57600080fd5b506153636146f2565b845161536e816147d6565b8152602085015162ffffff8116811461538657600080fd5b6020820152604085015165ffffffffffff811681146153a457600080fd5b6040820152606085015161ffff811681146153be57600080fd5b606082015260808501519093506001600160401b038111156153df57600080fd5b6153eb868287016152c0565b9250506153fa60a0850161532b565b90509250925092565b600060a0820160ff89168352602088151581850152604088151581860152606063ffffffff891681870152608060a0818801528488865260c08801905089955060005b898110156154b4576001600160f81b0361545f88614fb7565b1682528587013561546f8161490b565b15158287015286850135615482816147d6565b6001600160a01b0390811683870152878501359061549f826147d6565b16828501529582019590820190600101615446565b509d9c50505050505050505050505050565b6020808252602c908201527f46756e6374696f6e206d7573742062652063616c6c6564207468726f7567682060408201526b19195b1959d85d1958d85b1b60a21b606082015260800190565b6020808252602c908201527f46756e6374696f6e206d7573742062652063616c6c6564207468726f7567682060408201526b6163746976652070726f787960a01b606082015260800190565b600181811c9082168061557257607f821691505b60208210810361559257634e487b7160e01b600052602260045260246000fd5b50919050565b600080604083850312156155ab57600080fd5b82516155b6816147d6565b6020939093015192949293505050565b634e487b7160e01b600052601160045260246000fd5b6000828210156155ee576155ee6155c6565b500390565b60006020828403121561560557600080fd5b81516117be816147d6565b60006020828403121561562257600080fd5b5051919050565b60008235607e1983360301811261563f57600080fd5b9190910192915050565b60006080823603121561565b57600080fd5b6156636146f2565b823561566e816147d6565b815261567c60208401614924565b602082015261568d60408401614924565b604082015260608301356001600160401b038111156156ab57600080fd5b6156b736828601614767565b60608301525092915050565b600082198211156156d6576156d66155c6565b500190565b600081518084526020808501945080840160005b8381101561572557815180516001600160801b0316885283015163ffffffff1683880152604090960195908201906001016156ef565b509495945050505050565b600081518084526020808501945080840160005b8381101561572557815180516001600160f81b03168852838101511515848901526040808201516001600160a01b03908116918a0191909152606091820151169088015260809096019590820190600101615744565b60018060a01b038416815260606020820152600083516101408060608501526157c76101a08501836156db565b91506020860151605f19808685030160808701526157e58483615730565b935060408801519150808685030160a08701526158028483614a71565b935060608801519150808685030160c0870152506158208382614a71565b925050608086015161583a60e086018263ffffffff169052565b5060a08601516101006158518187018360ff169052565b60c088015191506101206158688188018415159052565b60e08901511515938701939093528701511515610160860152508501511515610180840152828103604084015261191c81856151fd565b6020808252602b908201527f496e697469616c697a61626c653a20636f6e7472616374206973206e6f74206960408201526a6e697469616c697a696e6760a81b606082015260800190565b6000816000190483118215151615615904576159046155c6565b500290565b6001600160801b039490941684526001600160a01b0392831660208501529116604083015263ffffffff16606082015260800190565b868152602081018690526001600160a01b038581166040830152606082018590528316608082015260c060a082018190526000906118d490830184614a71565b6000806040838503121561599257600080fd5b505080516020909101519092909150565b6000826159c057634e487b7160e01b600052601260045260246000fd5b500490565b600063ffffffff8083168185168083038211156159e4576159e46155c6565b01949350505050565b6001600160801b038716815263ffffffff8681166020808401919091526001600160a01b0387166040840152908516606083015260c060808301528354600091908290600181811c9082811680615a4557607f831692505b8583108103615a6257634e487b7160e01b85526022600452602485fd5b60c0880183905260e08801818015615a815760018114615a9257615abd565b60ff19861682528782019650615abd565b60008c81526020902060005b86811015615ab757815484820152908501908901615a9e565b83019750505b50505050505083810360a0850152615ad58186614a71565b9a9950505050505050505050565b6000825161563f818460208701614a45565b63ffffffff841681526001600160a01b038316602082015260c081016128a06040830184805182526020810151602083015260408101516040830152606081015160608301525050565b6020815260006117be6020830184614a7156fe360894a13ba1a3210667c828492db98dca3e2076cc3735a920a3ca505d382bbc416464726573733a206c6f772d6c6576656c2064656c65676174652063616c6c206661696c6564f0832fe058ed4ffda256632e9c3d7b50283fb2e36310b6beaf08f633b1407057a2646970667358221220108191971c591ec25d123290f265f1966ef2b29ac815c03c03ead41aa2314d8c64736f6c634300080d0033",
  "linkReferences": {},
  "deployedLinkReferences": {}
}