{
  "_format": "hh-sol-artifact-1",
  "contractName": "ProductsModule",
  "sourceName": "contracts/ProductsModule.sol",
  "abi": [
    {
      "inputs": [],
      "stateMutability": "nonpayable",
      "type": "constructor"
    },
    {
      "inputs": [],
      "name": "ActiveListing",
      "type": "error"
    },
    {
      "inputs": [],
      "name": "ExceedsMaxValue",
      "type": "error"
    },
    {
      "inputs": [],
      "name": "InexistentPool",
      "type": "error"
    },
    {
      "inputs": [],
      "name": "InexistentProduct",
      "type": "error"
    },
    {
      "inputs": [],
      "name": "Invalid",
      "type": "error"
    },
    {
      "inputs": [],
      "name": "NoDelegatecall",
      "type": "error"
    },
    {
      "inputs": [],
      "name": "NotAuthorized",
      "type": "error"
    },
    {
      "inputs": [],
      "name": "NotPurchased",
      "type": "error"
    },
    {
      "inputs": [],
      "name": "NotSuccessful",
      "type": "error"
    },
    {
      "inputs": [],
      "name": "StoreNotOpen",
      "type": "error"
    },
    {
      "inputs": [],
      "name": "TooSoon",
      "type": "error"
    },
    {
      "inputs": [],
      "name": "WrongCurrency",
      "type": "error"
    },
    {
      "anonymous": false,
      "inputs": [
        {
          "indexed": false,
          "internalType": "address",
          "name": "previousAdmin",
          "type": "address"
        },
        {
          "indexed": false,
          "internalType": "address",
          "name": "newAdmin",
          "type": "address"
        }
      ],
      "name": "AdminChanged",
      "type": "event"
    },
    {
      "anonymous": false,
      "inputs": [
        {
          "indexed": true,
          "internalType": "address",
          "name": "beacon",
          "type": "address"
        }
      ],
      "name": "BeaconUpgraded",
      "type": "event"
    },
    {
      "anonymous": false,
      "inputs": [
        {
          "indexed": true,
          "internalType": "uint256",
          "name": "slicerId",
          "type": "uint256"
        },
        {
          "indexed": true,
          "internalType": "address",
          "name": "contractAddress",
          "type": "address"
        },
        {
          "indexed": true,
          "internalType": "uint256",
          "name": "tokenId",
          "type": "uint256"
        },
        {
          "indexed": false,
          "internalType": "uint256",
          "name": "currentAmount",
          "type": "uint256"
        }
      ],
      "name": "ERC1155ListingChanged",
      "type": "event"
    },
    {
      "anonymous": false,
      "inputs": [
        {
          "indexed": true,
          "internalType": "uint256",
          "name": "slicerId",
          "type": "uint256"
        },
        {
          "indexed": true,
          "internalType": "address",
          "name": "contractAddress",
          "type": "address"
        },
        {
          "indexed": true,
          "internalType": "uint256",
          "name": "tokenId",
          "type": "uint256"
        },
        {
          "indexed": false,
          "internalType": "bool",
          "name": "isActive",
          "type": "bool"
        }
      ],
      "name": "ERC721ListingChanged",
      "type": "event"
    },
    {
      "anonymous": false,
      "inputs": [
        {
          "indexed": true,
          "internalType": "address",
          "name": "currency",
          "type": "address"
        },
        {
          "indexed": true,
          "internalType": "address",
          "name": "recipient",
          "type": "address"
        },
        {
          "indexed": true,
          "internalType": "uint256",
          "name": "amount",
          "type": "uint256"
        },
        {
          "indexed": false,
          "internalType": "string",
          "name": "description",
          "type": "string"
        }
      ],
      "name": "ExtraCostPaid",
      "type": "event"
    },
    {
      "anonymous": false,
      "inputs": [
        {
          "indexed": false,
          "internalType": "uint8",
          "name": "version",
          "type": "uint8"
        }
      ],
      "name": "Initialized",
      "type": "event"
    },
    {
      "anonymous": false,
      "inputs": [
        {
          "indexed": true,
          "internalType": "address",
          "name": "previousOwner",
          "type": "address"
        },
        {
          "indexed": true,
          "internalType": "address",
          "name": "newOwner",
          "type": "address"
        }
      ],
      "name": "OwnershipTransferred",
      "type": "event"
    },
    {
      "anonymous": false,
      "inputs": [
        {
          "indexed": false,
          "internalType": "address",
          "name": "account",
          "type": "address"
        }
      ],
      "name": "Paused",
      "type": "event"
    },
    {
      "anonymous": false,
      "inputs": [
        {
          "indexed": true,
          "internalType": "uint256",
          "name": "slicerId",
          "type": "uint256"
        },
        {
          "indexed": true,
          "internalType": "uint256",
          "name": "productId",
          "type": "uint256"
        },
        {
          "indexed": true,
          "internalType": "uint256",
          "name": "categoryIndex",
          "type": "uint256"
        },
        {
          "indexed": false,
          "internalType": "address",
          "name": "creator",
          "type": "address"
        },
        {
          "components": [
            {
              "components": [
                {
                  "internalType": "uint128",
                  "name": "subSlicerId",
                  "type": "uint128"
                },
                {
                  "internalType": "uint32",
                  "name": "subProductId",
                  "type": "uint32"
                }
              ],
              "internalType": "struct SubSlicerProduct[]",
              "name": "subSlicerProducts",
              "type": "tuple[]"
            },
            {
              "components": [
                {
                  "internalType": "uint248",
                  "name": "value",
                  "type": "uint248"
                },
                {
                  "internalType": "bool",
                  "name": "dynamicPricing",
                  "type": "bool"
                },
                {
                  "internalType": "address",
                  "name": "externalAddress",
                  "type": "address"
                },
                {
                  "internalType": "address",
                  "name": "currency",
                  "type": "address"
                }
              ],
              "internalType": "struct CurrencyPrice[]",
              "name": "currencyPrices",
              "type": "tuple[]"
            },
            {
              "internalType": "bytes",
              "name": "data",
              "type": "bytes"
            },
            {
              "internalType": "bytes",
              "name": "purchaseData",
              "type": "bytes"
            },
            {
              "internalType": "uint32",
              "name": "availableUnits",
              "type": "uint32"
            },
            {
              "internalType": "uint8",
              "name": "maxUnitsPerBuyer",
              "type": "uint8"
            },
            {
              "internalType": "bool",
              "name": "isFree",
              "type": "bool"
            },
            {
              "internalType": "bool",
              "name": "isInfinite",
              "type": "bool"
            },
            {
              "internalType": "bool",
              "name": "isExternalCallPaymentRelative",
              "type": "bool"
            },
            {
              "internalType": "bool",
              "name": "isExternalCallPreferredToken",
              "type": "bool"
            }
          ],
          "indexed": false,
          "internalType": "struct ProductParams",
          "name": "params",
          "type": "tuple"
        },
        {
          "components": [
            {
              "internalType": "bytes",
              "name": "data",
              "type": "bytes"
            },
            {
              "internalType": "uint256",
              "name": "value",
              "type": "uint256"
            },
            {
              "internalType": "address",
              "name": "externalAddress",
              "type": "address"
            },
            {
              "internalType": "bytes4",
              "name": "checkFunctionSignature",
              "type": "bytes4"
            },
            {
              "internalType": "bytes4",
              "name": "execFunctionSignature",
              "type": "bytes4"
            }
          ],
          "indexed": false,
          "internalType": "struct Function",
          "name": "externalCall",
          "type": "tuple"
        }
      ],
      "name": "ProductAdded",
      "type": "event"
    },
    {
      "anonymous": false,
      "inputs": [
        {
          "indexed": true,
          "internalType": "uint256",
          "name": "slicerId",
          "type": "uint256"
        },
        {
          "indexed": true,
          "internalType": "uint256",
          "name": "productId",
          "type": "uint256"
        },
        {
          "components": [
            {
              "internalType": "bytes",
              "name": "data",
              "type": "bytes"
            },
            {
              "internalType": "uint256",
              "name": "value",
              "type": "uint256"
            },
            {
              "internalType": "address",
              "name": "externalAddress",
              "type": "address"
            },
            {
              "internalType": "bytes4",
              "name": "checkFunctionSignature",
              "type": "bytes4"
            },
            {
              "internalType": "bytes4",
              "name": "execFunctionSignature",
              "type": "bytes4"
            }
          ],
          "indexed": false,
          "internalType": "struct Function",
          "name": "externalCall",
          "type": "tuple"
        }
      ],
      "name": "ProductExternalCallUpdated",
      "type": "event"
    },
    {
      "anonymous": false,
      "inputs": [
        {
          "indexed": true,
          "internalType": "uint256",
          "name": "slicerId",
          "type": "uint256"
        },
        {
          "indexed": true,
          "internalType": "uint256",
          "name": "productId",
          "type": "uint256"
        },
        {
          "indexed": false,
          "internalType": "uint8",
          "name": "maxUnitsPerBuyer",
          "type": "uint8"
        },
        {
          "indexed": false,
          "internalType": "bool",
          "name": "isFree",
          "type": "bool"
        },
        {
          "indexed": false,
          "internalType": "bool",
          "name": "isInfinite",
          "type": "bool"
        },
        {
          "indexed": false,
          "internalType": "uint256",
          "name": "newUnits",
          "type": "uint256"
        },
        {
          "components": [
            {
              "internalType": "uint248",
              "name": "value",
              "type": "uint248"
            },
            {
              "internalType": "bool",
              "name": "dynamicPricing",
              "type": "bool"
            },
            {
              "internalType": "address",
              "name": "externalAddress",
              "type": "address"
            },
            {
              "internalType": "address",
              "name": "currency",
              "type": "address"
            }
          ],
          "indexed": false,
          "internalType": "struct CurrencyPrice[]",
          "name": "currencyPrices",
          "type": "tuple[]"
        }
      ],
      "name": "ProductInfoChanged",
      "type": "event"
    },
    {
      "anonymous": false,
      "inputs": [
        {
          "indexed": true,
          "internalType": "uint256",
          "name": "slicerId",
          "type": "uint256"
        },
        {
          "indexed": true,
          "internalType": "uint256",
          "name": "productId",
          "type": "uint256"
        },
        {
          "indexed": false,
          "internalType": "uint256",
          "name": "quantity",
          "type": "uint256"
        },
        {
          "indexed": true,
          "internalType": "address",
          "name": "buyer",
          "type": "address"
        },
        {
          "indexed": false,
          "internalType": "address",
          "name": "currency",
          "type": "address"
        },
        {
          "components": [
            {
              "internalType": "uint256",
              "name": "eth",
              "type": "uint256"
            },
            {
              "internalType": "uint256",
              "name": "currency",
              "type": "uint256"
            },
            {
              "internalType": "uint256",
              "name": "ethExternalCall",
              "type": "uint256"
            },
            {
              "internalType": "uint256",
              "name": "currencyExternalCall",
              "type": "uint256"
            }
          ],
          "indexed": false,
          "internalType": "struct Price",
          "name": "price",
          "type": "tuple"
        }
      ],
      "name": "ProductPaid",
      "type": "event"
    },
    {
      "anonymous": false,
      "inputs": [
        {
          "indexed": true,
          "internalType": "uint256",
          "name": "slicerId",
          "type": "uint256"
        },
        {
          "indexed": true,
          "internalType": "uint256",
          "name": "productId",
          "type": "uint256"
        }
      ],
      "name": "ProductRemoved",
      "type": "event"
    },
    {
      "anonymous": false,
      "inputs": [
        {
          "indexed": true,
          "internalType": "uint256",
          "name": "slicerId",
          "type": "uint256"
        },
        {
          "indexed": false,
          "internalType": "uint256",
          "name": "ethToRelease",
          "type": "uint256"
        }
      ],
      "name": "ReleasedToSlicer",
      "type": "event"
    },
    {
      "anonymous": false,
      "inputs": [
        {
          "indexed": true,
          "internalType": "uint256",
          "name": "slicerId",
          "type": "uint256"
        },
        {
          "indexed": false,
          "internalType": "bool",
          "name": "isStoreClosed",
          "type": "bool"
        }
      ],
      "name": "StoreClosed",
      "type": "event"
    },
    {
      "anonymous": false,
      "inputs": [
        {
          "indexed": false,
          "internalType": "address",
          "name": "account",
          "type": "address"
        }
      ],
      "name": "Unpaused",
      "type": "event"
    },
    {
      "anonymous": false,
      "inputs": [
        {
          "indexed": true,
          "internalType": "address",
          "name": "implementation",
          "type": "address"
        }
      ],
      "name": "Upgraded",
      "type": "event"
    },
    {
      "inputs": [],
      "name": "MINT_PRODUCT_AMOUNT",
      "outputs": [
        {
          "internalType": "uint256",
          "name": "",
          "type": "uint256"
        }
      ],
      "stateMutability": "view",
      "type": "function"
    },
    {
      "inputs": [
        {
          "internalType": "uint256",
          "name": "slicerId",
          "type": "uint256"
        },
        {
          "internalType": "bool",
          "name": "isClosed",
          "type": "bool"
        }
      ],
      "name": "_setStoreClosed",
      "outputs": [],
      "stateMutability": "nonpayable",
      "type": "function"
    },
    {
      "inputs": [],
      "name": "_togglePause",
      "outputs": [],
      "stateMutability": "nonpayable",
      "type": "function"
    },
    {
      "inputs": [
        {
          "internalType": "uint256",
          "name": "slicerId",
          "type": "uint256"
        },
        {
          "components": [
            {
              "components": [
                {
                  "internalType": "uint128",
                  "name": "subSlicerId",
                  "type": "uint128"
                },
                {
                  "internalType": "uint32",
                  "name": "subProductId",
                  "type": "uint32"
                }
              ],
              "internalType": "struct SubSlicerProduct[]",
              "name": "subSlicerProducts",
              "type": "tuple[]"
            },
            {
              "components": [
                {
                  "internalType": "uint248",
                  "name": "value",
                  "type": "uint248"
                },
                {
                  "internalType": "bool",
                  "name": "dynamicPricing",
                  "type": "bool"
                },
                {
                  "internalType": "address",
                  "name": "externalAddress",
                  "type": "address"
                },
                {
                  "internalType": "address",
                  "name": "currency",
                  "type": "address"
                }
              ],
              "internalType": "struct CurrencyPrice[]",
              "name": "currencyPrices",
              "type": "tuple[]"
            },
            {
              "internalType": "bytes",
              "name": "data",
              "type": "bytes"
            },
            {
              "internalType": "bytes",
              "name": "purchaseData",
              "type": "bytes"
            },
            {
              "internalType": "uint32",
              "name": "availableUnits",
              "type": "uint32"
            },
            {
              "internalType": "uint8",
              "name": "maxUnitsPerBuyer",
              "type": "uint8"
            },
            {
              "internalType": "bool",
              "name": "isFree",
              "type": "bool"
            },
            {
              "internalType": "bool",
              "name": "isInfinite",
              "type": "bool"
            },
            {
              "internalType": "bool",
              "name": "isExternalCallPaymentRelative",
              "type": "bool"
            },
            {
              "internalType": "bool",
              "name": "isExternalCallPreferredToken",
              "type": "bool"
            }
          ],
          "internalType": "struct ProductParams",
          "name": "params",
          "type": "tuple"
        },
        {
          "components": [
            {
              "internalType": "bytes",
              "name": "data",
              "type": "bytes"
            },
            {
              "internalType": "uint256",
              "name": "value",
              "type": "uint256"
            },
            {
              "internalType": "address",
              "name": "externalAddress",
              "type": "address"
            },
            {
              "internalType": "bytes4",
              "name": "checkFunctionSignature",
              "type": "bytes4"
            },
            {
              "internalType": "bytes4",
              "name": "execFunctionSignature",
              "type": "bytes4"
            }
          ],
          "internalType": "struct Function",
          "name": "externalCall_",
          "type": "tuple"
        }
      ],
      "name": "addProduct",
      "outputs": [],
      "stateMutability": "nonpayable",
      "type": "function"
    },
    {
      "inputs": [
        {
          "internalType": "uint256",
          "name": "slicerId",
          "type": "uint256"
        },
        {
          "internalType": "uint256",
          "name": "productId",
          "type": "uint256"
        }
      ],
      "name": "availableUnits",
      "outputs": [
        {
          "internalType": "uint256",
          "name": "units",
          "type": "uint256"
        },
        {
          "internalType": "bool",
          "name": "isInfinite",
          "type": "bool"
        }
      ],
      "stateMutability": "view",
      "type": "function"
    },
    {
      "inputs": [
        {
          "internalType": "uint256",
          "name": "slicerId",
          "type": "uint256"
        }
      ],
      "name": "ethBalance",
      "outputs": [
        {
          "internalType": "uint256",
          "name": "",
          "type": "uint256"
        }
      ],
      "stateMutability": "view",
      "type": "function"
    },
    {
      "inputs": [],
      "name": "fundsModule",
      "outputs": [
        {
          "internalType": "contract IFundsModule",
          "name": "",
          "type": "address"
        }
      ],
      "stateMutability": "view",
      "type": "function"
    },
    {
      "inputs": [],
      "name": "initialize",
      "outputs": [],
      "stateMutability": "nonpayable",
      "type": "function"
    },
    {
      "inputs": [
        {
          "internalType": "uint256",
          "name": "slicerId",
          "type": "uint256"
        },
        {
          "internalType": "uint256",
          "name": "productId",
          "type": "uint256"
        },
        {
          "internalType": "address",
          "name": "account",
          "type": "address"
        }
      ],
      "name": "isProductOwner",
      "outputs": [
        {
          "internalType": "bool",
          "name": "isAllowed",
          "type": "bool"
        }
      ],
      "stateMutability": "view",
      "type": "function"
    },
    {
      "inputs": [
        {
          "internalType": "uint256",
          "name": "slicerId",
          "type": "uint256"
        }
      ],
      "name": "nextProductId",
      "outputs": [
        {
          "internalType": "uint256",
          "name": "",
          "type": "uint256"
        }
      ],
      "stateMutability": "view",
      "type": "function"
    },
    {
      "inputs": [],
      "name": "owner",
      "outputs": [
        {
          "internalType": "address",
          "name": "",
          "type": "address"
        }
      ],
      "stateMutability": "view",
      "type": "function"
    },
    {
      "inputs": [],
      "name": "paused",
      "outputs": [
        {
          "internalType": "bool",
          "name": "",
          "type": "bool"
        }
      ],
      "stateMutability": "view",
      "type": "function"
    },
    {
      "inputs": [
        {
          "components": [
            {
              "internalType": "address",
              "name": "buyer",
              "type": "address"
            },
            {
              "internalType": "uint128",
              "name": "slicerId",
              "type": "uint128"
            },
            {
              "internalType": "uint32",
              "name": "quantity",
              "type": "uint32"
            },
            {
              "internalType": "address",
              "name": "currency",
              "type": "address"
            },
            {
              "internalType": "uint32",
              "name": "productId",
              "type": "uint32"
            },
            {
              "internalType": "bytes",
              "name": "buyerCustomData",
              "type": "bytes"
            }
          ],
          "internalType": "struct PurchaseParams[]",
          "name": "purchases",
          "type": "tuple[]"
        },
        {
          "components": [
            {
              "internalType": "address",
              "name": "recipient",
              "type": "address"
            },
            {
              "internalType": "uint128",
              "name": "slicerId",
              "type": "uint128"
            },
            {
              "internalType": "uint128",
              "name": "amount",
              "type": "uint128"
            },
            {
              "internalType": "address",
              "name": "currency",
              "type": "address"
            },
            {
              "internalType": "string",
              "name": "description",
              "type": "string"
            }
          ],
          "internalType": "struct ExtraCost[]",
          "name": "extraCosts",
          "type": "tuple[]"
        }
      ],
      "name": "payProducts",
      "outputs": [],
      "stateMutability": "payable",
      "type": "function"
    },
    {
      "inputs": [
        {
          "components": [
            {
              "internalType": "address",
              "name": "buyer",
              "type": "address"
            },
            {
              "internalType": "uint128",
              "name": "slicerId",
              "type": "uint128"
            },
            {
              "internalType": "uint32",
              "name": "quantity",
              "type": "uint32"
            },
            {
              "internalType": "address",
              "name": "currency",
              "type": "address"
            },
            {
              "internalType": "uint32",
              "name": "productId",
              "type": "uint32"
            },
            {
              "internalType": "bytes",
              "name": "buyerCustomData",
              "type": "bytes"
            }
          ],
          "internalType": "struct PurchaseParams[]",
          "name": "purchases",
          "type": "tuple[]"
        }
      ],
      "name": "payProducts",
      "outputs": [],
      "stateMutability": "payable",
      "type": "function"
    },
    {
      "inputs": [
        {
          "components": [
            {
              "internalType": "address",
              "name": "buyer",
              "type": "address"
            },
            {
              "internalType": "uint128",
              "name": "slicerId",
              "type": "uint128"
            },
            {
              "internalType": "uint32",
              "name": "quantity",
              "type": "uint32"
            },
            {
              "internalType": "address",
              "name": "currency",
              "type": "address"
            },
            {
              "internalType": "uint32",
              "name": "productId",
              "type": "uint32"
            },
            {
              "internalType": "bytes",
              "name": "buyerCustomData",
              "type": "bytes"
            }
          ],
          "internalType": "struct PurchaseParams[]",
          "name": "purchases",
          "type": "tuple[]"
        },
        {
          "components": [
            {
              "internalType": "address",
              "name": "from",
              "type": "address"
            },
            {
              "internalType": "uint256",
              "name": "value",
              "type": "uint256"
            },
            {
              "internalType": "uint256",
              "name": "validAfter",
              "type": "uint256"
            },
            {
              "internalType": "uint256",
              "name": "validBefore",
              "type": "uint256"
            },
            {
              "internalType": "bytes32",
              "name": "nonce",
              "type": "bytes32"
            },
            {
              "internalType": "uint8",
              "name": "v",
              "type": "uint8"
            },
            {
              "internalType": "bytes32",
              "name": "r",
              "type": "bytes32"
            },
            {
              "internalType": "bytes32",
              "name": "s",
              "type": "bytes32"
            }
          ],
          "internalType": "struct PayWithAuthorizationParams",
          "name": "authorizationParams",
          "type": "tuple"
        },
        {
          "components": [
            {
              "internalType": "address",
              "name": "recipient",
              "type": "address"
            },
            {
              "internalType": "uint128",
              "name": "slicerId",
              "type": "uint128"
            },
            {
              "internalType": "uint128",
              "name": "amount",
              "type": "uint128"
            },
            {
              "internalType": "address",
              "name": "currency",
              "type": "address"
            },
            {
              "internalType": "string",
              "name": "description",
              "type": "string"
            }
          ],
          "internalType": "struct ExtraCost[]",
          "name": "extraCosts",
          "type": "tuple[]"
        }
      ],
      "name": "payWithAuthorization",
      "outputs": [],
      "stateMutability": "payable",
      "type": "function"
    },
    {
      "inputs": [
        {
          "components": [
            {
              "internalType": "address",
              "name": "buyer",
              "type": "address"
            },
            {
              "internalType": "uint128",
              "name": "slicerId",
              "type": "uint128"
            },
            {
              "internalType": "uint32",
              "name": "quantity",
              "type": "uint32"
            },
            {
              "internalType": "address",
              "name": "currency",
              "type": "address"
            },
            {
              "internalType": "uint32",
              "name": "productId",
              "type": "uint32"
            },
            {
              "internalType": "bytes",
              "name": "buyerCustomData",
              "type": "bytes"
            }
          ],
          "internalType": "struct PurchaseParams[]",
          "name": "purchases",
          "type": "tuple[]"
        },
        {
          "components": [
            {
              "internalType": "address",
              "name": "from",
              "type": "address"
            },
            {
              "internalType": "uint256",
              "name": "value",
              "type": "uint256"
            },
            {
              "internalType": "uint256",
              "name": "validAfter",
              "type": "uint256"
            },
            {
              "internalType": "uint256",
              "name": "validBefore",
              "type": "uint256"
            },
            {
              "internalType": "bytes32",
              "name": "nonce",
              "type": "bytes32"
            },
            {
              "internalType": "uint8",
              "name": "v",
              "type": "uint8"
            },
            {
              "internalType": "bytes32",
              "name": "r",
              "type": "bytes32"
            },
            {
              "internalType": "bytes32",
              "name": "s",
              "type": "bytes32"
            }
          ],
          "internalType": "struct PayWithAuthorizationParams",
          "name": "authorizationParams",
          "type": "tuple"
        }
      ],
      "name": "payWithAuthorization",
      "outputs": [],
      "stateMutability": "payable",
      "type": "function"
    },
    {
      "inputs": [],
      "name": "priceFeed",
      "outputs": [
        {
          "internalType": "contract IPriceFeed",
          "name": "",
          "type": "address"
        }
      ],
      "stateMutability": "view",
      "type": "function"
    },
    {
      "inputs": [
        {
          "internalType": "uint256",
          "name": "slicerId",
          "type": "uint256"
        },
        {
          "internalType": "uint256",
          "name": "productId",
          "type": "uint256"
        },
        {
          "internalType": "address",
          "name": "currency",
          "type": "address"
        },
        {
          "internalType": "uint256",
          "name": "quantity",
          "type": "uint256"
        },
        {
          "internalType": "address",
          "name": "buyer",
          "type": "address"
        },
        {
          "internalType": "bytes",
          "name": "data",
          "type": "bytes"
        }
      ],
      "name": "productPrice",
      "outputs": [
        {
          "components": [
            {
              "internalType": "uint256",
              "name": "eth",
              "type": "uint256"
            },
            {
              "internalType": "uint256",
              "name": "currency",
              "type": "uint256"
            },
            {
              "internalType": "uint256",
              "name": "ethExternalCall",
              "type": "uint256"
            },
            {
              "internalType": "uint256",
              "name": "currencyExternalCall",
              "type": "uint256"
            }
          ],
          "internalType": "struct Price",
          "name": "price",
          "type": "tuple"
        }
      ],
      "stateMutability": "view",
      "type": "function"
    },
    {
      "inputs": [],
      "name": "proxiableUUID",
      "outputs": [
        {
          "internalType": "bytes32",
          "name": "",
          "type": "bytes32"
        }
      ],
      "stateMutability": "view",
      "type": "function"
    },
    {
      "inputs": [
        {
          "internalType": "uint256",
          "name": "slicerId",
          "type": "uint256"
        }
      ],
      "name": "releaseEthToSlicer",
      "outputs": [],
      "stateMutability": "nonpayable",
      "type": "function"
    },
    {
      "inputs": [
        {
          "internalType": "uint256",
          "name": "slicerId",
          "type": "uint256"
        },
        {
          "internalType": "uint256",
          "name": "productId",
          "type": "uint256"
        }
      ],
      "name": "removeProduct",
      "outputs": [],
      "stateMutability": "nonpayable",
      "type": "function"
    },
    {
      "inputs": [],
      "name": "renounceOwnership",
      "outputs": [],
      "stateMutability": "nonpayable",
      "type": "function"
    },
    {
      "inputs": [
        {
          "internalType": "uint256",
          "name": "slicerId",
          "type": "uint256"
        },
        {
          "internalType": "uint256",
          "name": "productId",
          "type": "uint256"
        },
        {
          "components": [
            {
              "internalType": "bytes",
              "name": "data",
              "type": "bytes"
            },
            {
              "internalType": "uint256",
              "name": "value",
              "type": "uint256"
            },
            {
              "internalType": "address",
              "name": "externalAddress",
              "type": "address"
            },
            {
              "internalType": "bytes4",
              "name": "checkFunctionSignature",
              "type": "bytes4"
            },
            {
              "internalType": "bytes4",
              "name": "execFunctionSignature",
              "type": "bytes4"
            }
          ],
          "internalType": "struct Function",
          "name": "externalCall_",
          "type": "tuple"
        }
      ],
      "name": "setProductExternalCall",
      "outputs": [],
      "stateMutability": "nonpayable",
      "type": "function"
    },
    {
      "inputs": [
        {
          "internalType": "uint256",
          "name": "slicerId",
          "type": "uint256"
        },
        {
          "internalType": "uint256",
          "name": "productId",
          "type": "uint256"
        },
        {
          "internalType": "uint8",
          "name": "newMaxUnits",
          "type": "uint8"
        },
        {
          "internalType": "bool",
          "name": "isFree",
          "type": "bool"
        },
        {
          "internalType": "bool",
          "name": "isInfinite",
          "type": "bool"
        },
        {
          "internalType": "uint32",
          "name": "newUnits",
          "type": "uint32"
        },
        {
          "components": [
            {
              "internalType": "uint248",
              "name": "value",
              "type": "uint248"
            },
            {
              "internalType": "bool",
              "name": "dynamicPricing",
              "type": "bool"
            },
            {
              "internalType": "address",
              "name": "externalAddress",
              "type": "address"
            },
            {
              "internalType": "address",
              "name": "currency",
              "type": "address"
            }
          ],
          "internalType": "struct CurrencyPrice[]",
          "name": "currencyPrices",
          "type": "tuple[]"
        }
      ],
      "name": "setProductInfo",
      "outputs": [],
      "stateMutability": "nonpayable",
      "type": "function"
    },
    {
      "inputs": [],
      "name": "sliceCore",
      "outputs": [
        {
          "internalType": "contract ISliceCore",
          "name": "",
          "type": "address"
        }
      ],
      "stateMutability": "view",
      "type": "function"
    },
    {
      "inputs": [
        {
          "internalType": "address",
          "name": "newOwner",
          "type": "address"
        }
      ],
      "name": "transferOwnership",
      "outputs": [],
      "stateMutability": "nonpayable",
      "type": "function"
    },
    {
      "inputs": [
        {
          "internalType": "address",
          "name": "newImplementation",
          "type": "address"
        }
      ],
      "name": "upgradeTo",
      "outputs": [],
      "stateMutability": "nonpayable",
      "type": "function"
    },
    {
      "inputs": [
        {
          "internalType": "address",
          "name": "newImplementation",
          "type": "address"
        },
        {
          "internalType": "bytes",
          "name": "data",
          "type": "bytes"
        }
      ],
      "name": "upgradeToAndCall",
      "outputs": [],
      "stateMutability": "payable",
      "type": "function"
    },
    {
      "inputs": [
        {
          "internalType": "uint256",
          "name": "slicerId",
          "type": "uint256"
        },
        {
          "internalType": "uint256",
          "name": "productId",
          "type": "uint256"
        }
      ],
      "name": "validatePurchase",
      "outputs": [
        {
          "internalType": "uint256",
          "name": "purchases",
          "type": "uint256"
        },
        {
          "internalType": "bytes",
          "name": "purchaseData",
          "type": "bytes"
        }
      ],
      "stateMutability": "view",
      "type": "function"
    },
    {
      "inputs": [
        {
          "internalType": "address",
          "name": "account",
          "type": "address"
        },
        {
          "internalType": "uint256",
          "name": "slicerId",
          "type": "uint256"
        },
        {
          "internalType": "uint256",
          "name": "productId",
          "type": "uint256"
        }
      ],
      "name": "validatePurchaseUnits",
      "outputs": [
        {
          "internalType": "uint256",
          "name": "purchases",
          "type": "uint256"
        }
      ],
      "stateMutability": "view",
      "type": "function"
    }
  ],
  "bytecode": "0x60a0604052306080523480156200001557600080fd5b506200002062000026565b620000e8565b600054610100900460ff1615620000935760405162461bcd60e51b815260206004820152602760248201527f496e697469616c697a61626c653a20636f6e747261637420697320696e697469604482015266616c697a696e6760c81b606482015260840160405180910390fd5b60005460ff9081161015620000e6576000805460ff191660ff9081179091556040519081527f7f26b83ff96e1f2b6a682f133852f6798a09c465da95921460cefb38474024989060200160405180910390a15b565b608051615f5c6200012060003960008181610c9901528181610ce201528181610efa01528181610f3a01526112a90152615f5c6000f3fe6080604052600436106101cc5760003560e01c806383b7e298116100f7578063c1226f8011610095578063e6e9280811610064578063e6e928081461055e578063f2fde38b1461057e578063f4c763631461059e578063ff3ef63f146105c657600080fd5b8063c1226f80146104ce578063c993a08d146104fe578063d2c5ca9a1461051e578063d7a3d0c81461053157600080fd5b806395f23704116100d157806395f237041461045e5780639c01c06d1461047e578063b79811e214610491578063bf17f2f2146104ae57600080fd5b806383b7e2981461041a5780638a0fdce41461042d5780638da5cb5b1461044057600080fd5b80635287d5351161016f578063715018a61161013e578063715018a6146103a8578063741bef1a146103bd5780637a77fa45146103e55780638129fc1c1461040557600080fd5b80635287d5351461030157806352d1902d146103215780635c975abb146103445780636740ff401461036857600080fd5b80633659cfe6116101ab5780633659cfe61461028b578063405b4c36146102ab5780634c04e9c6146102c05780634f1ef286146102ee57600080fd5b806204aa87146101d15780630d24c670146101f35780631eafafb414610213575b600080fd5b3480156101dd57600080fd5b506101f16101ec366004614b09565b6105e6565b005b3480156101ff57600080fd5b506101f161020e366004614b96565b610702565b34801561021f57600080fd5b5061027161022e366004614c64565b600091825260fb60209081526040808420928452600192830190915290912060080154600160c81b810463ffffffff1692600160f01b909104821c909116151590565b604080519283529015156020830152015b60405180910390f35b34801561029757600080fd5b506101f16102a6366004614c86565b610c8f565b3480156102b757600080fd5b506101f1610d77565b3480156102cc57600080fd5b506102e06102db366004614c64565b610d9c565b604051610282929190614cfb565b6101f16102fc366004614d14565b610ef0565b34801561030d57600080fd5b506101f161031c366004614c64565b610fc0565b34801561032d57600080fd5b5061033661129c565b604051908152602001610282565b34801561035057600080fd5b5060c95460ff165b6040519015158152602001610282565b34801561037457600080fd5b5061039073cf7ed3acca5a467e9e704c703e8d87f634fb0fc981565b6040516001600160a01b039091168152602001610282565b3480156103b457600080fd5b506101f161134f565b3480156103c957600080fd5b50610390731613beb3b2c4f22ee086b2b38c1476a3ce7f78e881565b3480156103f157600080fd5b506101f1610400366004614d63565b611361565b34801561041157600080fd5b506101f16114cb565b6101f16104283660046150b0565b6115db565b6101f161043b36600461511c565b6117b6565b34801561044c57600080fd5b506097546001600160a01b0316610390565b34801561046a57600080fd5b5061033661047936600461516b565b611816565b6101f161048c3660046151a0565b611852565b34801561049d57600080fd5b50610336686c6b935b8bbd40000081565b3480156104ba57600080fd5b506103366104c93660046151f9565b61185e565b3480156104da57600080fd5b506103366104e93660046151f9565b600090815260fb602052604090205460010190565b34801561050a57600080fd5b506101f16105193660046151f9565b611889565b6101f161052c366004615212565b61190c565b34801561053d57600080fd5b5061055161054c366004615246565b61196b565b60405161028291906152c3565b34801561056a57600080fd5b506103586105793660046152ee565b6119cd565b34801561058a57600080fd5b506101f1610599366004614c86565b611a13565b3480156105aa57600080fd5b5061039073e7f1725e7734ce288f8367e1bb143e90bb3f051281565b3480156105d257600080fd5b506101f16105e1366004615495565b611a89565b600083815260fb60209081526040808320600381015486855260019091019092529091206001600160a01b0390911690819061062381833361271e565b6106405760405163ea8e4eb560e01b815260040160405180910390fd5b835180518591600384019161065c918391602090910190614814565b50602082015160018201556040808301516002909201805460608501516080909501516001600160a01b039094166001600160c01b031990911617600160a01b60e095861c021763ffffffff60c01b1916600160c01b9390941c9290920292909217905551859087907f1dc9b6a2e759a6aba0408c06b83deb0f57c90dee629f039e0b31423a1337785d906106f290889061565b565b60405180910390a3505050505050565b600088815260fb6020908152604080832060038101548b855260019091019092529091206001600160a01b0390911690819061073f81833361271e565b61075c5760405163ea8e4eb560e01b815260040160405180910390fd5b8315610abc576040805160808101825260008082526020820181905291810182905260608101829052905b85811015610ab9578686828181106107a1576107a161566e565b9050608002018036038101906107b79190615684565b60608101519092506001600160a01b03161561085a57606082015160405163b25e9c3960e01b81526001600160a01b0391821660048201529085169063b25e9c3990602401602060405180830381865afa158015610819573d6000803e3d6000fd5b505050506040513d601f19601f8201168201806040525081019061083d91906156a0565b61085a57604051630b27db6160e11b815260040160405180910390fd5b60608201516001600160a01b0316600090815260018401602052604090205482516001600160f81b039081169116146108cb57815160608301516001600160a01b03166000908152600185016020526040902080546001600160f81b0319166001600160f81b039092169190911790555b60608201516001600160a01b0316600090815260018401602090815260409091205490830151600160f81b90910460ff16151590151514610a3f5760608201516001600160a01b0316156109fd57606082015160405163a2d7046f60e01b815273b4fbf271143f4fbf7b91a5ded31805e42b2208d660048201526001600160a01b03909116602482015262093a80604482015260026064820152600090731613beb3b2c4f22ee086b2b38c1476a3ce7f78e89063a2d7046f906084016000604051808303816000875af11580156109a6573d6000803e3d6000fd5b505050506040513d6000823e601f3d908101601f191682016040526109ce9190810190615733565b505080519091506001600160a01b03166109fb57604051632b9bb16560e11b815260040160405180910390fd5b505b60208083015160608401516001600160a01b031660009081526001860190925260409091208054911515600160f81b026001600160f81b039092169190911790555b60608201516001600160a01b03908116600090815260018086016020526040918290200154908401518216911614610ab15760408281015160608401516001600160a01b039081166000908152600187810160205293902090920180546001600160a01b031916929091169190911790555b600101610787565b50505b610acf8b84898963ffffffff1685612829565b878015610ae857506008810154600160f01b9004600116155b80610b09575087158015610b0957506008810154600160f01b900460011615155b15610b345760088101805460ff600160f01b80830482166001189091160260ff60f01b199091161790555b868015610b5057506008810154600160f01b9004600190811c16155b80610b74575086158015610b7457506008810154600160f01b9004600190811c1615155b15610b9f5760088101805460ff600160f01b80830482166002189091160260ff60f01b199091161790555b600881015460ff8a8116600160e81b9092041614610bd25760088101805460ff60e81b1916600160e81b60ff8c16021790555b8615610bef5760088101805463ffffffff60c81b19169055610c2b565b600881015463ffffffff878116600160c81b9092041614610c2b5760088101805463ffffffff60c81b1916600160c81b63ffffffff8916021790555b898b7f47ed3606b96c516c076d9567a4deb8181f5da7370bdb1fedb883a7d3d5e890b98b8b8b8660080160199054906101000a900463ffffffff168b8b604051610c7a96959493929190615800565b60405180910390a35050505050505050505050565b6001600160a01b037f0000000000000000000000000000000000000000000000000000000000000000163003610ce05760405162461bcd60e51b8152600401610cd7906158c3565b60405180910390fd5b7f00000000000000000000000000000000000000000000000000000000000000006001600160a01b0316610d29600080516020615ec0833981519152546001600160a01b031690565b6001600160a01b031614610d4f5760405162461bcd60e51b8152600401610cd79061590f565b610d5881612afb565b60408051600080825260208201909252610d7491839190612b03565b50565b610d7f612c73565b60c95460ff1615610d9457610d92612ccd565b565b610d92612d1f565b6000606030739fe46736679d2d9a65f0992f2272de9f3c7fa6e014610dd45760405163acbcffa760e01b815260040160405180910390fd5b600084815260fb60209081526040808320868452600101825280832033845290915281205463ffffffff169003610e1e576040516363aae7a360e01b815260040160405180910390fd5b600084815260fb602090815260408083208684526001018083528184203385528084529184205493879052909152600701805463ffffffff909216918190610e659061595b565b80601f0160208091040260200160405190810160405280929190818152602001828054610e919061595b565b8015610ede5780601f10610eb357610100808354040283529160200191610ede565b820191906000526020600020905b815481529060010190602001808311610ec157829003601f168201915b50505050509050915091509250929050565b6001600160a01b037f0000000000000000000000000000000000000000000000000000000000000000163003610f385760405162461bcd60e51b8152600401610cd7906158c3565b7f00000000000000000000000000000000000000000000000000000000000000006001600160a01b0316610f81600080516020615ec0833981519152546001600160a01b031690565b6001600160a01b031614610fa75760405162461bcd60e51b8152600401610cd79061590f565b610fb082612afb565b610fbc82826001612b03565b5050565b600082815260fb60209081526040808320600381015485855260019091019092529091206001600160a01b03909116908190610ffd81833361271e565b61101a5760405163ea8e4eb560e01b815260040160405180910390fd5b60058101546001600160a01b03808516911603611240576000808260030160000180546110469061595b565b80601f01602080910402602001604051908101604052809291908181526020018280546110729061595b565b80156110bf5780601f10611094576101008083540402835291602001916110bf565b820191906000526020600020905b8154815290600101906020018083116110a257829003601f168201915b50505050508060200190518101906110d79190615995565b600585015491935091506302868bf960e11b600160c01b90910460e01b6001600160e01b0319160161117257600087815260fc602090815260408083206001600160a01b0386168085529083528184208585528352818420805460ff191690559051928352839290918a917f76529e1c5add2962fbfae2a36bbcf688a5c01516b043ad429f1d81830687a2db910160405180910390a461123d565b600583015462fc808960e71b600160c01b90910460e01b6001600160e01b0319160161123d576008830154600088815260fd602090815260408083206001600160a01b0387168452825280832085845290915281208054600160c81b90930463ffffffff16929091906111e69084906159d9565b9091555050600087815260fd602090815260408083206001600160a01b0386168085529083528184208585528352928190205490519081528392918a91600080516020615f07833981519152910160405180910390a45b50505b600881018054600168ffffffff000000000160a01b0319169055611268600682016000614898565b604051849086907fd647384cccbd8b477a7b02b9e866072937e9a23b473b9de13fc0c6cb1d392a0a90600090a35050505050565b6000306001600160a01b037f0000000000000000000000000000000000000000000000000000000000000000161461133c5760405162461bcd60e51b815260206004820152603860248201527f555550535570677261646561626c653a206d757374206e6f742062652063616c60448201527f6c6564207468726f7567682064656c656761746563616c6c00000000000000006064820152608401610cd7565b50600080516020615ec083398151915290565b611357612c73565b610d926000612d5c565b604051630bafd3f560e11b81526004810183905260009073e7f1725e7734ce288f8367e1bb143e90bb3f05129063175fa7ea90602401602060405180830381865afa1580156113b4573d6000803e3d6000fd5b505050506040513d601f19601f820116820180604052508101906113d891906159f0565b60405163166eb15b60e21b81523360048201529091506001600160a01b038216906359bac56c90602401602060405180830381865afa15801561141f573d6000803e3d6000fd5b505050506040513d601f19601f8201168201806040525081019061144391906156a0565b6114605760405163ea8e4eb560e01b815260040160405180910390fd5b827f8c6e9bb8cde5fe30df326b2ec6bd9b6a0cc6cb8b2ec744b72baa06ac3de60ade83604051611494911515815260200190565b60405180910390a250600091825260fb60205260409091206003018054911515600160a01b0260ff60a01b19909216919091179055565b600054610100900460ff16158080156114eb5750600054600160ff909116105b806115055750303b158015611505575060005460ff166001145b6115685760405162461bcd60e51b815260206004820152602e60248201527f496e697469616c697a61626c653a20636f6e747261637420697320616c72656160448201526d191e481a5b9a5d1a585b1a5e995960921b6064820152608401610cd7565b6000805460ff19166001179055801561158b576000805461ff0019166101001790555b611593612dae565b8015610d74576000805461ff0019169055604051600181527f7f26b83ff96e1f2b6a682f133852f6798a09c465da95921460cefb38474024989060200160405180910390a150565b815160208301516040808501516060860151608087015160a088015160c089015160e08a015195516371f70b0760e11b81526001600160a01b03909816600489015230602489015260448801969096526064870193909352608486019190915260a485015260ff1660c484015260e48301919091526101048201527356639db16ac50a89228026e42a316b30179a53769063e3ee160e9061012401600060405180830381600087803b15801561169057600080fd5b505af11580156116a4573d6000803e3d6000fd5b505050506116b483600183612ddd565b6040516370a0823160e01b81523060048201526000907356639db16ac50a89228026e42a316b30179a5376906370a0823190602401602060405180830381865afa158015611706573d6000803e3d6000fd5b505050506040513d601f19601f8201168201806040525081019061172a9190615a0d565b905080156117b05760405163a9059cbb60e01b8152336004820152602481018290527356639db16ac50a89228026e42a316b30179a53769063a9059cbb906044016020604051808303816000875af115801561178a573d6000803e3d6000fd5b505050506040513d601f19601f820116820180604052508101906117ae91906156a0565b505b50505050565b60408051600080825260208201909252610fbc9184918491611810565b6040805160a08101825260008082526020808301829052928201819052606080830191909152608082015282526000199092019101816117d35790505b506115db565b600082815260fb6020908152604080832084845260010182528083206001600160a01b038716845290915290205463ffffffff165b9392505050565b610fbc82600083612ddd565b600081815260fb60205260408120600201546001811161187f57600061184b565b6000190192915050565b60006118948261185e565b90508015610fbc57600082815260fb60205260409020600381015460016002909201919091556001600160a01b03166118cd8183613118565b827f04cc711f7db61e897a32f3fe3e3faa9861b68d7d19fd9a669348213087b22726836040516118ff91815260200190565b60405180910390a2505050565b60408051600080825260208201909252610d7491839181611965565b6040805160a08101825260008082526020808301829052928201819052606080830191909152608082015282526000199092019101816119285790505b50612ddd565b6119966040518060800160405280600081526020016000815260200160008152602001600081525090565b600087815260fb6020908152604080832089845260010190915290206119c181898989898989613169565b98975050505050505050565b600083815260fb6020818152604080842086855260018101835290842087855292909152600301546001600160a01b0316611a0982828661271e565b9695505050505050565b611a1b612c73565b6001600160a01b038116611a805760405162461bcd60e51b815260206004820152602660248201527f4f776e61626c653a206e6577206f776e657220697320746865207a65726f206160448201526564647265737360d01b6064820152608401610cd7565b610d7481612d5c565b600083815260fb6020526040902080546001019081905563ffffffff811115611ac557604051636dac6a0960e01b815260040160405180910390fd5b80600103611c0f57604051630bafd3f560e11b81526004810185905260009073e7f1725e7734ce288f8367e1bb143e90bb3f05129063175fa7ea90602401602060405180830381865afa158015611b20573d6000803e3d6000fd5b505050506040513d601f19601f82011682018060405250810190611b4491906159f0565b6001600160a01b031603611b6b57604051636dac6a0960e01b815260040160405180910390fd5b604051630bafd3f560e11b81526004810185905273e7f1725e7734ce288f8367e1bb143e90bb3f05129063175fa7ea90602401602060405180830381865afa158015611bbb573d6000803e3d6000fd5b505050506040513d601f19601f82011682018060405250810190611bdf91906159f0565b600085815260fb6020526040902060030180546001600160a01b0319166001600160a01b03929092169190911790555b600084815260fb60205260409081902060030154905163166eb15b60e21b81523360048201526001600160a01b039091169081906359bac56c90602401602060405180830381865afa158015611c69573d6000803e3d6000fd5b505050506040513d601f19601f82011682018060405250810190611c8d91906156a0565b611caa5760405163ea8e4eb560e01b815260040160405180910390fd5b600085815260fb6020908152604080832063ffffffff86168452600101909152902084515115611dd35760005b855151811015611dd157611d6160fb600088600001518481518110611cfe57611cfe61566e565b6020026020010151600001516001600160801b03168152602001908152602001600020600101600088600001518481518110611d3c57611d3c61566e565b60200260200101516020015163ffffffff168152602001908152602001600020613697565b8160020186600001518281518110611d7b57611d7b61566e565b602090810291909101810151825460018181018555600094855293839020825191018054929093015163ffffffff16600160801b026001600160a01b03199092166001600160801b039091161717905501611cd7565b505b6040805160808101825260008082526020820181905291810182905260608101829052905b8660200151518110156120c35786602001518181518110611e1b57611e1b61566e565b6020026020010151915060006001600160a01b031682606001516001600160a01b031614158015611eb95750606082015160405163b25e9c3960e01b81526001600160a01b0391821660048201529085169063b25e9c3990602401602060405180830381865afa158015611e93573d6000803e3d6000fd5b505050506040513d601f19601f82011682018060405250810190611eb791906156a0565b155b15611ed757604051630b27db6160e11b815260040160405180910390fd5b81516001600160f81b031615611f2557815160608301516001600160a01b03166000908152600185016020526040902080546001600160f81b0319166001600160f81b039092169190911790555b8160200151156120685760608201516001600160a01b03161561202657606082015160405163a2d7046f60e01b815273b4fbf271143f4fbf7b91a5ded31805e42b2208d660048201526001600160a01b03909116602482015262093a80604482015260026064820152600090731613beb3b2c4f22ee086b2b38c1476a3ce7f78e89063a2d7046f906084016000604051808303816000875af1158015611fcf573d6000803e3d6000fd5b505050506040513d6000823e601f3d908101601f19168201604052611ff79190810190615733565b505080519091506001600160a01b031661202457604051632b9bb16560e11b815260040160405180910390fd5b505b60208083015160608401516001600160a01b031660009081526001860190925260409091208054911515600160f81b026001600160f81b039092169190911790555b60408201516001600160a01b0316156120bb5760408281015160608401516001600160a01b039081166000908152600187810160205293902090920180546001600160a01b031916929091169190911790555b600101611df8565b5060408501516001600160a01b0316156125b357826001600160a01b031685604001516001600160a01b03160361245457600080866000015180602001905181019061210f9190615995565b608089015191935091506001600160e01b0319166302868bf960e11b016122bd57876080015163ffffffff16600114158061215257508760a0015160ff16600114155b8061215e57508760e001515b806121de57506040516331a9108f60e11b8152600481018290526001600160a01b038087169190841690636352211e90602401602060405180830381865afa1580156121ae573d6000803e3d6000fd5b505050506040513d601f19601f820116820180604052508101906121d291906159f0565b6001600160a01b031614155b156121fc5760405163ea8e4eb560e01b815260040160405180910390fd5b600089815260fc602090815260408083206001600160a01b0386168452825280832084845290915290205460ff1615612248576040516319e7a92b60e31b815260040160405180910390fd5b600089815260fc602090815260408083206001600160a01b038616808552908352818420858552835292819020805460ff1916600190811790915590519081528392918c917f76529e1c5add2962fbfae2a36bbcf688a5c01516b043ad429f1d81830687a2db910160405180910390a4612451565b60808701516001600160e01b03191662fc808960e71b01612451578760e00151806123945750604051627eeac760e11b81526001600160a01b0386811660048301526024820183905283169062fdd58e90604401602060405180830381865afa15801561232e573d6000803e3d6000fd5b505050506040513d601f19601f820116820180604052508101906123529190615a0d565b60008a815260fd602090815260408083206001600160a01b0387168452825280832085845290915290205460808a0151612392919063ffffffff16615a26565b115b156123b257604051636dac6a0960e01b815260040160405180910390fd5b608088015160008a815260fd602090815260408083206001600160a01b038716845282528083208584529091528120805463ffffffff909316929091906123fa908490615a26565b9091555050600089815260fd602090815260408083206001600160a01b0386168085529083528184208585528352928190205490519081528392918c91600080516020615f07833981519152910160405180910390a45b50505b60408501516005830180546001600160a01b0319166001600160a01b0390921691909117905560808501516001600160e01b031916156124f557608085015160058301805460e09290921c600160c01b0263ffffffff60c01b1990921691909117905560608501516001600160e01b031916156124f557606085015160058301805460e09290921c600160a01b0263ffffffff60a01b199092169190911790555b845151156125175784518051612515916003850191602090910190614814565b505b60208501511561252c57602085015160048301555b8561012001511561255b5760088201805460ff60f01b1981166004600160f01b9283900460ff16179091021790555b856101000151156125b3576127108560200151111561258d57604051633806212b60e21b815260040160405180910390fd5b6008828101805460ff60f01b198116600160f01b9182900460ff16909317029190911790555b6008820180546001600160a01b0319163317905560c0860151156125f55760088201805460ff60f01b1981166001600160f01b9283900460ff16179091021790555b60a086015160ff16156126285760a086015160088301805460ff909216600160e81b0260ff60e81b199092169190911790555b8560e001511561265a5760088201805460ff60f01b1981166002600160f01b9283900460ff1617909102179055612686565b608086015160088301805463ffffffff909216600160c81b0263ffffffff60c81b199092169190911790555b604086015151156126ae57604086015180516126ac916006850191602090910190614814565b505b606086015151156126d657606086015180516126d4916007850191602090910190614814565b505b600084887f029a4465749d55fe5b28a7e348370e8ef8083bf6deb663e933b59f8dbe7500e7338a8a60405161270d93929190615afd565b60405180910390a450505050505050565b600061272984613697565b600884015460405163166eb15b60e21b81526001600160a01b039182166004820152908416906359bac56c90602401602060405180830381865afa158015612775573d6000803e3d6000fd5b505050506040513d601f19601f8201168201806040525081019061279991906156a0565b156127b7575060088301546001600160a01b0382811691161461184b565b60405163166eb15b60e21b81526001600160a01b0383811660048301528416906359bac56c90602401602060405180830381865afa1580156127fd573d6000803e3d6000fd5b505050506040513d601f19601f8201168201806040525081019061282191906156a0565b949350505050565b60058101546001600160a01b038086169116036117ae576000808260030160000180546128559061595b565b80601f01602080910402602001604051908101604052809291908181526020018280546128819061595b565b80156128ce5780601f106128a3576101008083540402835291602001916128ce565b820191906000526020600020905b8154815290600101906020018083116128b157829003601f168201915b50505050508060200190518101906128e69190615995565b600585015491935091506302868bf960e11b600160c01b90910460e01b6001600160e01b03191601612952576008830154600160c81b900463ffffffff168414158061292f5750845b1561294d57604051636dac6a0960e01b815260040160405180910390fd5b612af2565b600583015462fc808960e71b600160c01b90910460e01b6001600160e01b03191601612af257841561299757604051636dac6a0960e01b815260040160405180910390fd5b6008830154600160c81b900463ffffffff168414612af257604051627eeac760e11b81526001600160a01b038781166004830152602482018390526000919084169062fdd58e90604401602060405180830381865afa1580156129fe573d6000803e3d6000fd5b505050506040513d601f19601f82011682018060405250810190612a229190615a0d565b600885015460008a815260fd602090815260408083206001600160a01b0389168452825280832087845290915281205492935091600160c81b90910463ffffffff1690612a70908890615a26565b612a7a91906159d9565b905081811115612a9d57604051636dac6a0960e01b815260040160405180910390fd5b600089815260fd602090815260408083206001600160a01b038816808552908352818420878552835292819020849055518381528592918c91600080516020615f07833981519152910160405180910390a450505b50505050505050565b610d74612c73565b7f4910fdfa16fed3260ed0e7147f7cc6da11a60208b5b9406d12a635614ffd91435460ff1615612b3b57612b36836136c2565b505050565b826001600160a01b03166352d1902d6040518163ffffffff1660e01b8152600401602060405180830381865afa925050508015612b95575060408051601f3d908101601f19168201909252612b9291810190615a0d565b60015b612bf85760405162461bcd60e51b815260206004820152602e60248201527f45524331393637557067726164653a206e657720696d706c656d656e7461746960448201526d6f6e206973206e6f74205555505360901b6064820152608401610cd7565b600080516020615ec08339815191528114612c675760405162461bcd60e51b815260206004820152602960248201527f45524331393637557067726164653a20756e737570706f727465642070726f786044820152681a58589b195555525160ba1b6064820152608401610cd7565b50612b3683838361375e565b6097546001600160a01b03163314610d925760405162461bcd60e51b815260206004820181905260248201527f4f776e61626c653a2063616c6c6572206973206e6f7420746865206f776e65726044820152606401610cd7565b612cd5613783565b60c9805460ff191690557f5db9ee0a495bf2e6ff9c91a7834c1ba4fdd244a5e8aa4e537bd38aeae4b073aa335b6040516001600160a01b03909116815260200160405180910390a1565b612d276137cc565b60c9805460ff191660011790557f62e78cea01bee320cd4e420270b5ea74000d11b0c9f74754ebdbfc544b05a258612d023390565b609780546001600160a01b038381166001600160a01b0319831681179093556040519116919082907f8be0079c531659141344cd1fd0a4f28419497f9722a3daafe3b4186f6b6457e090600090a35050565b600054610100900460ff16612dd55760405162461bcd60e51b8152600401610cd790615c02565b610d92613812565b612de56137cc565b6000805b8451811015612e2957612e15858281518110612e0757612e0761566e565b602002602001015185613842565b612e1f9083615a26565b9150600101612de9565b506040805160a0810182526000808252602082018190529181018290526060808201839052608082015290805b84518110156130fd57848181518110612e7157612e7161566e565b602090810291909101015180519093506001600160a01b0316612f15576020830151604051630bafd3f560e11b81526001600160801b03909116600482015273e7f1725e7734ce288f8367e1bb143e90bb3f05129063175fa7ea90602401602060405180830381865afa158015612eec573d6000803e3d6000fd5b505050506040513d601f19601f82011682018060405250810190612f1091906159f0565b612f18565b82515b60608401519092506001600160a01b0316612f75576040830151612f45906001600160801b031685615a26565b9350612f7083604001516001600160801b0316836001600160a01b031661311890919063ffffffff16565b613094565b8561300c57606083015160408085015190516323b872dd60e01b81523360048201526001600160a01b0385811660248301526001600160801b0390921660448201529116906323b872dd906064016020604051808303816000875af1158015612fe2573d6000803e3d6000fd5b505050506040513d601f19601f8201168201806040525081019061300691906156a0565b50613094565b6060830151604080850151905163a9059cbb60e01b81526001600160a01b0385811660048301526001600160801b03909216602482015291169063a9059cbb906044016020604051808303816000875af115801561306e573d6000803e3d6000fd5b505050506040513d601f19601f8201168201806040525081019061309291906156a0565b505b82604001516001600160801b0316826001600160a01b031684606001516001600160a01b03167faf4e8fbdf3eeda1bb461f86b73d9341aad76a124175886910acc8ce457007ced86608001516040516130ed9190615c4d565b60405180910390a4600101612e56565b50600061310a84346159d9565b90508015612af257612af233825b600080600080600085875af1905080612b365760405162461bcd60e51b815260206004820152601360248201527211551217d514905394d1915497d19052531151606a1b6044820152606401610cd7565b6131946040518060800160405280600081526020016000815260200160008152602001600081525090565b61319d88613697565b6001600160a01b0380861660009081526001808b016020908152604092839020835160608101855281546001600160f81b038116825260ff600160f81b909104811615159382019390935292015490931691810182905260088b01549092600160f01b90910416906134ff576001600160a01b03871661323857856132278360018416151561452f565b6132319190615c60565b8352613581565b81602001511561346f57600080805260018b0160205260409020546001600160f81b0316151580613272575081516001600160f81b031615155b156134465781516000906001600160f81b031681036132ef57600080805260018c81016020908152604092839020835160608101855281546001600160f81b0381168252600160f81b900460ff161515928101929092528201546001600160a01b0316928101929092526132ea91908416151561452f565b6132fb565b82516001600160f81b03165b90506001600160801b0381111561332557604051633806212b60e21b815260040160405180910390fd5b6040516331b889b160e11b81528790731613beb3b2c4f22ee086b2b38c1476a3ce7f78e89063637113629061337a90859073b4fbf271143f4fbf7b91a5ded31805e42b2208d6908e9061070890600401615c7f565b602060405180830381865afa158015613397573d6000803e3d6000fd5b505050506040513d601f19601f820116820180604052508101906133bb9190615a0d565b6133c59190615c60565b6020850181905260000361344057600080805260018c81016020908152604092839020835160608101855281546001600160f81b0381168252600160f81b900460ff161515928101929092528201546001600160a01b0316928101929092528891613433918516151561452f565b61343d9190615c60565b84525b50613581565b6001811660000361346a57604051630b27db6160e11b815260040160405180910390fd5b613581565b81516001600160f81b03161561349f5781516134959087906001600160f81b0316615c60565b6020840152613581565b600080805260018b81016020908152604092839020835160608101855281546001600160f81b0381168252600160f81b900460ff161515928101929092528201546001600160a01b0316928101929092528791613227918416151561452f565b81604001516001600160a01b031663d7a3d0c88a8a8a8a8a8a6040518763ffffffff1660e01b815260040161353996959493929190615cb5565b6040805180830381865afa158015613555573d6000803e3d6000fd5b505050506040513d601f19601f820116820180604052508101906135799190615cf5565b602085015283525b60048a01541561368a576001600382901c16158015613605576001600283901c16158015906135e95784602001516000036135cf57604051630b27db6160e11b815260040160405180910390fd5b60048c01546135df908990615c60565b60608601526135ff565b60048c01546135f9908990615c60565b60408601525b50613688565b6020840151156136505760048b015460208501516127109161362691615c60565b6136309190615d19565b606085018190526020850180516136489083906159d9565b905250613688565b60048b015484516127109161366491615c60565b61366e9190615d19565b60408501819052845185906136849083906159d9565b9052505b505b5050979650505050505050565b60088101546001600160a01b0316610d74576040516329c2f8dd60e11b815260040160405180910390fd5b6001600160a01b0381163b61372f5760405162461bcd60e51b815260206004820152602d60248201527f455243313936373a206e657720696d706c656d656e746174696f6e206973206e60448201526c1bdd08184818dbdb9d1c9858dd609a1b6064820152608401610cd7565b600080516020615ec083398151915280546001600160a01b0319166001600160a01b0392909216919091179055565b613767836146a2565b6000825111806137745750805b15612b36576117b083836146e2565b60c95460ff16610d925760405162461bcd60e51b815260206004820152601460248201527314185d5cd8589b194e881b9bdd081c185d5cd95960621b6044820152606401610cd7565b60c95460ff1615610d925760405162461bcd60e51b815260206004820152601060248201526f14185d5cd8589b194e881c185d5cd95960821b6044820152606401610cd7565b600054610100900460ff166138395760405162461bcd60e51b8152600401610cd790615c02565b610d9233612d5c565b6000826040015163ffffffff16600014614529576020838101516001600160801b0316600090815260fb9091526040902060030154600160a01b900460ff161561389f57604051632149aed960e21b815260040160405180910390fd5b600060fb600085602001516001600160801b031681526020019081526020016000206001016000856080015163ffffffff1681526020019081526020016000209050600061391f8286602001516001600160801b0316876080015163ffffffff168860600151896040015163ffffffff168a600001518b60a00151613169565b6020868101516001600160801b0316600090815260fb909152604090206003015460088401549192506001600160a01b031690600160e81b900460ff16156139c757600883015460408781015188516001600160a01b0316600090815260208790529190912054600160e81b90920460ff16916139a2919063ffffffff16615d3b565b63ffffffff1611156139c757604051636dac6a0960e01b815260040160405180910390fd5b6008830154600160f01b9004600190811c16600003613a4f576008830154604087015163ffffffff600160c81b909204821691161115613a1a57604051636dac6a0960e01b815260040160405180910390fd5b604086015160088401805463ffffffff600160c81b8083048216949094031690920263ffffffff60c81b199092169190911790555b60408201518251613a609190615a26565b8251909450613a79906001600160a01b03831690613118565b60408087015187516001600160a01b031660009081526020869052918220805491929091613aae90849063ffffffff16615d3b565b92506101000a81548163ffffffff021916908363ffffffff1602179055508160200151600014613be75784613b6757606086015160208301516040516323b872dd60e01b81523360048201526001600160a01b03848116602483015260448201929092529116906323b872dd906064016020604051808303816000875af1158015613b3d573d6000803e3d6000fd5b505050506040513d601f19601f82011682018060405250810190613b6191906156a0565b50613be7565b6060860151602083015160405163a9059cbb60e01b81526001600160a01b038481166004830152602482019290925291169063a9059cbb906044016020604051808303816000875af1158015613bc1573d6000803e3d6000fd5b505050506040513d601f19601f82011682018060405250810190613be591906156a0565b505b600283015415613cdd5760005b6002840154811015613cdb57613cc76040518060c0016040528089600001516001600160a01b03168152602001866002018481548110613c3657613c3661566e565b9060005260206000200160000160009054906101000a90046001600160801b03166001600160801b03168152602001896040015163ffffffff16815260200189606001516001600160a01b03168152602001866002018481548110613c9d57613c9d61566e565b60009182526020918290200154600160801b900463ffffffff16825260a08b015191015287613842565b613cd19086615a26565b9450600101613bf4565b505b60058301546001600160a01b0316156144bb576005830154600090600160c01b900460e01b6001600160e01b0319161561412c5760058401546001600160a01b0380841691160361405057600080856003016000018054613d3d9061595b565b80601f0160208091040260200160405190810160405280929190818152602001828054613d699061595b565b8015613db65780601f10613d8b57610100808354040283529160200191613db6565b820191906000526020600020905b815481529060010190602001808311613d9957829003601f168201915b5050505050806020019051810190613dce9190615995565b600588015491935091506302868bf960e11b600160c01b90910460e01b6001600160e01b03191601613eea57885160405163ce55982b60e01b81526001600160a01b0391821660048201528382166024820152604481018390529085169063ce55982b90606401600060405180830381600087803b158015613e4f57600080fd5b505af1158015613e63573d6000803e3d6000fd5b50505050602089810180516001600160801b03908116600090815260fc845260408082206001600160a01b0388168084529086528183208784528652818320805460ff19169055935190519182526001975085949216917f76529e1c5add2962fbfae2a36bbcf688a5c01516b043ad429f1d81830687a2db910160405180910390a4614049565b600586015462fc808960e71b600160c01b90910460e01b6001600160e01b031916016140495788516040808b0151905163296789eb60e11b81526001600160a01b039283166004820152848316602482015263ffffffff909116604482015260648101839052908516906352cf13d690608401600060405180830381600087803b158015613f7757600080fd5b505af1158015613f8b573d6000803e3d6000fd5b5050506040808b01516020808d01516001600160801b0316600090815260fd82528381206001600160a01b03881682528252838120868252909152918220805463ffffffff90921693509190613fe29084906159d9565b90915550506020898101516001600160801b0316600081815260fd835260408082206001600160a01b038716808452908552818320868452855291819020549051908152600196508493919291600080516020615f07833981519152910160405180910390a45b505061449b565b600584015460408085015160208a015160808b01518b518c85015160a08e015195516001600160a01b038816979596600160c01b90960460e01b956140a1959493929160038e019190602401615d63565b60408051601f198184030181529181526020820180516001600160e01b03166001600160e01b03199094169390931790925290516140df9190615e59565b60006040518083038185875af1925050503d806000811461411c576040519150601f19603f3d011682016040523d82523d6000602084013e614121565b606091505b50508091505061449b565b60608301511561439d57856141d857606080880151908401516040516323b872dd60e01b815233600482015273cf7ed3acca5a467e9e704c703e8d87f634fb0fc9602482015260448101919091526001600160a01b03909116906323b872dd906064016020604051808303816000875af11580156141ae573d6000803e3d6000fd5b505050506040513d601f19601f820116820180604052508101906141d291906156a0565b5061426b565b6060808801519084015160405163a9059cbb60e01b815273cf7ed3acca5a467e9e704c703e8d87f634fb0fc9600482015260248101919091526001600160a01b039091169063a9059cbb906044016020604051808303816000875af1158015614245573d6000803e3d6000fd5b505050506040513d601f19601f8201168201806040525081019061426991906156a0565b505b602087015160058501546060808a0151908601516040808801519051630b90c4a560e11b815260048101919091526001600160a01b03808416602483015273cf7ed3acca5a467e9e704c703e8d87f634fb0fc9956359fc470a9590949082169390929091891690631721894a90604401602060405180830381865afa1580156142f8573d6000803e3d6000fd5b505050506040513d601f19601f8201168201806040525081019061431c9190615a0d565b6040516001600160e01b031960e088901b1681526001600160801b0390951660048601526001600160a01b0393841660248601529290911660448401526064830152608482015260a401600060405180830381600087803b15801561438057600080fd5b505af1158015614394573d6000803e3d6000fd5b50505050614497565b60408381015160058601549151630b90c4a560e11b8152600481018290526000602482015273cf7ed3acca5a467e9e704c703e8d87f634fb0fc9926339ed512392916001600160a01b0391821691871690631721894a90604401602060405180830381865afa158015614414573d6000803e3d6000fd5b505050506040513d601f19601f820116820180604052508101906144389190615a0d565b6040516001600160e01b031960e086901b1681526001600160a01b03909216600483015260248201526044016000604051808303818588803b15801561447d57600080fd5b505af1158015614491573d6000803e3d6000fd5b50505050505b5060015b806144b95760405163af6eefa360e01b815260040160405180910390fd5b505b85600001516001600160a01b0316866080015163ffffffff1687602001516001600160801b03167fb5fcbfbc97629da9c45f418c65a8ed3e96873f8e54c6c435180455987431e7a089604001518a606001518760405161451d93929190615e75565b60405180910390a45050505b92915050565b81516000906001600160f81b0316158015614548575081155b1561456657604051630b27db6160e11b815260040160405180910390fd5b8260200151156146935782516001600160801b036001600160f81b0390911611156145a457604051633806212b60e21b815260040160405180910390fd5b82516040516331b889b160e11b8152731613beb3b2c4f22ee086b2b38c1476a3ce7f78e89163637113629161460c91907356639db16ac50a89228026e42a316b30179a53769073b4fbf271143f4fbf7b91a5ded31805e42b2208d69061070890600401615c7f565b602060405180830381865afa158015614629573d6000803e3d6000fd5b505050506040513d601f19601f8201168201806040525081019061464d9190615a0d565b90508060000361468e5760405162461bcd60e51b815260206004820152600c60248201526b125b9d985b1a59081c1bdbdb60a21b6044820152606401610cd7565b614529565b5050516001600160f81b031690565b6146ab816136c2565b6040516001600160a01b038216907fbc7cd75a20ee27fd9adebab32041f755214dbc6bffa90cc0225b39da2e5c2d3b90600090a250565b60606001600160a01b0383163b61474a5760405162461bcd60e51b815260206004820152602660248201527f416464726573733a2064656c65676174652063616c6c20746f206e6f6e2d636f6044820152651b9d1c9858dd60d21b6064820152608401610cd7565b600080846001600160a01b0316846040516147659190615e59565b600060405180830381855af49150503d80600081146147a0576040519150601f19603f3d011682016040523d82523d6000602084013e6147a5565b606091505b50915091506147cd8282604051806060016040528060278152602001615ee0602791396147d6565b95945050505050565b606083156147e557508161184b565b61184b83838151156147fa5781518083602001fd5b8060405162461bcd60e51b8152600401610cd79190615c4d565b8280546148209061595b565b90600052602060002090601f0160209004810192826148425760008555614888565b82601f1061485b57805160ff1916838001178555614888565b82800160010185558215614888579182015b8281111561488857825182559160200191906001019061486d565b506148949291506148ce565b5090565b5080546148a49061595b565b6000825580601f106148b4575050565b601f016020900490600052602060002090810190610d7491905b5b8082111561489457600081556001016148cf565b634e487b7160e01b600052604160045260246000fd5b60405160a081016001600160401b038111828210171561491b5761491b6148e3565b60405290565b60405160c081016001600160401b038111828210171561491b5761491b6148e3565b604080519081016001600160401b038111828210171561491b5761491b6148e3565b604051608081016001600160401b038111828210171561491b5761491b6148e3565b60405161014081016001600160401b038111828210171561491b5761491b6148e3565b604051601f8201601f191681016001600160401b03811182821017156149d2576149d26148e3565b604052919050565b60006001600160401b038311156149f3576149f36148e3565b614a06601f8401601f19166020016149aa565b9050828152838383011115614a1a57600080fd5b828260208301376000602084830101529392505050565b600082601f830112614a4257600080fd5b61184b838335602085016149da565b6001600160a01b0381168114610d7457600080fd5b80356001600160e01b031981168114614a7e57600080fd5b919050565b600060a08284031215614a9557600080fd5b614a9d6148f9565b905081356001600160401b03811115614ab557600080fd5b614ac184828501614a31565b825250602082013560208201526040820135614adc81614a51565b6040820152614aed60608301614a66565b6060820152614afe60808301614a66565b608082015292915050565b600080600060608486031215614b1e57600080fd5b833592506020840135915060408401356001600160401b03811115614b4257600080fd5b614b4e86828701614a83565b9150509250925092565b803560ff81168114614a7e57600080fd5b8015158114610d7457600080fd5b8035614a7e81614b69565b803563ffffffff81168114614a7e57600080fd5b60008060008060008060008060e0898b031215614bb257600080fd5b8835975060208901359650614bc960408a01614b58565b95506060890135614bd981614b69565b94506080890135614be981614b69565b9350614bf760a08a01614b82565b925060c08901356001600160401b0380821115614c1357600080fd5b818b0191508b601f830112614c2757600080fd5b813581811115614c3657600080fd5b8c60208260071b8501011115614c4b57600080fd5b6020830194508093505050509295985092959890939650565b60008060408385031215614c7757600080fd5b50508035926020909101359150565b600060208284031215614c9857600080fd5b813561184b81614a51565b60005b83811015614cbe578181015183820152602001614ca6565b838111156117b05750506000910152565b60008151808452614ce7816020860160208601614ca3565b601f01601f19169290920160200192915050565b8281526040602082015260006128216040830184614ccf565b60008060408385031215614d2757600080fd5b8235614d3281614a51565b915060208301356001600160401b03811115614d4d57600080fd5b614d5985828601614a31565b9150509250929050565b60008060408385031215614d7657600080fd5b823591506020830135614d8881614b69565b809150509250929050565b60006001600160401b03821115614dac57614dac6148e3565b5060051b60200190565b80356001600160801b0381168114614a7e57600080fd5b600082601f830112614dde57600080fd5b81356020614df3614dee83614d93565b6149aa565b82815260059290921b84018101918181019086841115614e1257600080fd5b8286015b84811015614ee75780356001600160401b0380821115614e365760008081fd5b9088019060c0828b03601f1901811315614e505760008081fd5b614e58614921565b87840135614e6581614a51565b81526040614e74858201614db6565b898301526060614e85818701614b82565b828401526080915081860135614e9a81614a51565b9083015260a0614eab868201614b82565b83830152928501359284841115614ec457600091508182fd5b614ed28e8b86890101614a31565b90830152508652505050918301918301614e16565b509695505050505050565b6000610100808385031215614f0657600080fd5b604051908101906001600160401b0382118183101715614f2857614f286148e3565b8160405280925083359150614f3c82614a51565b81815260208401356020820152604084013560408201526060840135606082015260808401356080820152614f7360a08501614b58565b60a082015260c084013560c082015260e084013560e0820152505092915050565b600082601f830112614fa557600080fd5b81356020614fb5614dee83614d93565b82815260059290921b84018101918181019086841115614fd457600080fd5b8286015b84811015614ee75780356001600160401b0380821115614ff85760008081fd5b9088019060a0828b03601f19018113156150125760008081fd5b61501a6148f9565b8784013561502781614a51565b81526040615036858201614db6565b898301526060615047818701614db6565b8284015260808087013561505a81614a51565b8483015293860135938585111561507357600091508182fd5b84870196508e603f88011261508a57600095508586fd5b61509a8f8c890135858a016149da565b9084015250508652505050918301918301614fd8565b600080600061014084860312156150c657600080fd5b83356001600160401b03808211156150dd57600080fd5b6150e987838801614dcd565b94506150f88760208801614ef2565b935061012086013591508082111561510f57600080fd5b50614b4e86828701614f94565b600080610120838503121561513057600080fd5b82356001600160401b0381111561514657600080fd5b61515285828601614dcd565b9250506151628460208501614ef2565b90509250929050565b60008060006060848603121561518057600080fd5b833561518b81614a51565b95602085013595506040909401359392505050565b600080604083850312156151b357600080fd5b82356001600160401b03808211156151ca57600080fd5b6151d686838701614dcd565b935060208501359150808211156151ec57600080fd5b50614d5985828601614f94565b60006020828403121561520b57600080fd5b5035919050565b60006020828403121561522457600080fd5b81356001600160401b0381111561523a57600080fd5b61282184828501614dcd565b60008060008060008060c0878903121561525f57600080fd5b8635955060208701359450604087013561527881614a51565b935060608701359250608087013561528f81614a51565b915060a08701356001600160401b038111156152aa57600080fd5b6152b689828a01614a31565b9150509295509295509295565b8151815260208083015190820152604080830151908201526060808301519082015260808101614529565b60008060006060848603121561530357600080fd5b8335925060208401359150604084013561531c81614a51565b809150509250925092565b600082601f83011261533857600080fd5b81356020615348614dee83614d93565b82815260069290921b8401810191818101908684111561536757600080fd5b8286015b84811015614ee757604081890312156153845760008081fd5b61538c614943565b61539582614db6565b81526153a2858301614b82565b8186015283529183019160400161536b565b80356001600160f81b0381168114614a7e57600080fd5b6000608082840312156153dd57600080fd5b6153e5614965565b90506153f0826153b4565b8152602082013561540081614b69565b6020820152604082013561541381614a51565b6040820152606082013561542681614a51565b606082015292915050565b600082601f83011261544257600080fd5b81356020615452614dee83614d93565b82815260079290921b8401810191818101908684111561547157600080fd5b8286015b84811015614ee75761548788826153cb565b835291830191608001615475565b6000806000606084860312156154aa57600080fd5b8335925060208401356001600160401b03808211156154c857600080fd5b9085019061014082880312156154dd57600080fd5b6154e5614987565b8235828111156154f457600080fd5b61550089828601615327565b82525060208301358281111561551557600080fd5b61552189828601615431565b60208301525060408301358281111561553957600080fd5b61554589828601614a31565b60408301525060608301358281111561555d57600080fd5b61556989828601614a31565b60608301525061557b60808401614b82565b608082015261558c60a08401614b58565b60a082015261559d60c08401614b77565b60c08201526155ae60e08401614b77565b60e08201526101006155c1818501614b77565b908201526101206155d3848201614b77565b90820152935060408601359150808211156155ed57600080fd5b50614b4e86828701614a83565b6000815160a0845261560f60a0850182614ccf565b602084810151908601526040808501516001600160a01b0316908601526060808501516001600160e01b0319908116918701919091526080948501511693909401929092525090919050565b60208152600061184b60208301846155fa565b634e487b7160e01b600052603260045260246000fd5b60006080828403121561569657600080fd5b61184b83836153cb565b6000602082840312156156b257600080fd5b815161184b81614b69565b600082601f8301126156ce57600080fd5b815160206156de614dee83614d93565b82815260059290921b840181019181810190868411156156fd57600080fd5b8286015b84811015614ee75780518060060b811461571b5760008081fd5b8352918301918301615701565b8051614a7e81614a51565b600080600083850360c081121561574957600080fd5b608081121561575757600080fd5b50615760614965565b845161576b81614a51565b8152602085015162ffffff8116811461578357600080fd5b6020820152604085015165ffffffffffff811681146157a157600080fd5b6040820152606085015161ffff811681146157bb57600080fd5b606082015260808501519093506001600160401b038111156157dc57600080fd5b6157e8868287016156bd565b9250506157f760a08501615728565b90509250925092565b600060a0820160ff89168352602088151581850152604088151581860152606063ffffffff891681870152608060a0818801528488865260c08801905089955060005b898110156158b1576001600160f81b0361585c886153b4565b1682528587013561586c81614b69565b1515828701528685013561587f81614a51565b6001600160a01b0390811683870152878501359061589c82614a51565b16828501529582019590820190600101615843565b509d9c50505050505050505050505050565b6020808252602c908201527f46756e6374696f6e206d7573742062652063616c6c6564207468726f7567682060408201526b19195b1959d85d1958d85b1b60a21b606082015260800190565b6020808252602c908201527f46756e6374696f6e206d7573742062652063616c6c6564207468726f7567682060408201526b6163746976652070726f787960a01b606082015260800190565b600181811c9082168061596f57607f821691505b60208210810361598f57634e487b7160e01b600052602260045260246000fd5b50919050565b600080604083850312156159a857600080fd5b82516159b381614a51565b6020939093015192949293505050565b634e487b7160e01b600052601160045260246000fd5b6000828210156159eb576159eb6159c3565b500390565b600060208284031215615a0257600080fd5b815161184b81614a51565b600060208284031215615a1f57600080fd5b5051919050565b60008219821115615a3957615a396159c3565b500190565b600081518084526020808501945080840160005b83811015615a8857815180516001600160801b0316885283015163ffffffff168388015260409096019590820190600101615a52565b509495945050505050565b600081518084526020808501945080840160005b83811015615a8857815180516001600160f81b03168852838101511515848901526040808201516001600160a01b03908116918a0191909152606091820151169088015260809096019590820190600101615aa7565b60018060a01b03841681526060602082015260008351610140806060850152615b2a6101a0850183615a3e565b91506020860151605f1980868503016080870152615b488483615a93565b935060408801519150808685030160a0870152615b658483614ccf565b935060608801519150808685030160c087015250615b838382614ccf565b9250506080860151615b9d60e086018263ffffffff169052565b5060a0860151610100615bb48187018360ff169052565b60c08801519150610120615bcb8188018415159052565b60e089015115159387019390935287015115156101608601525085015115156101808401528281036040840152611a0981856155fa565b6020808252602b908201527f496e697469616c697a61626c653a20636f6e7472616374206973206e6f74206960408201526a6e697469616c697a696e6760a81b606082015260800190565b60208152600061184b6020830184614ccf565b6000816000190483118215151615615c7a57615c7a6159c3565b500290565b6001600160801b039490941684526001600160a01b0392831660208501529116604083015263ffffffff16606082015260800190565b868152602081018690526001600160a01b038581166040830152606082018590528316608082015260c060a082018190526000906119c190830184614ccf565b60008060408385031215615d0857600080fd5b505080516020909101519092909150565b600082615d3657634e487b7160e01b600052601260045260246000fd5b500490565b600063ffffffff808316818516808303821115615d5a57615d5a6159c3565b01949350505050565b6001600160801b038716815263ffffffff8681166020808401919091526001600160a01b0387166040840152908516606083015260c060808301528354600091908290600181811c9082811680615dbb57607f831692505b8583108103615dd857634e487b7160e01b85526022600452602485fd5b60c0880183905260e08801818015615df75760018114615e0857615e33565b60ff19861682528782019650615e33565b60008c81526020902060005b86811015615e2d57815484820152908501908901615e14565b83019750505b50505050505083810360a0850152615e4b8186614ccf565b9a9950505050505050505050565b60008251615e6b818460208701614ca3565b9190910192915050565b63ffffffff841681526001600160a01b038316602082015260c08101612821604083018480518252602081015160208301526040810151604083015260608101516060830152505056fe360894a13ba1a3210667c828492db98dca3e2076cc3735a920a3ca505d382bbc416464726573733a206c6f772d6c6576656c2064656c65676174652063616c6c206661696c6564f0832fe058ed4ffda256632e9c3d7b50283fb2e36310b6beaf08f633b1407057a2646970667358221220734211598786bc03f07f4740fd32312b76711c1b774d47460c16c07ab3dd74bc64736f6c634300080d0033",
  "linkReferences": {},
  "deployedLinkReferences": {}
}