{
  "_format": "hh-sol-artifact-1",
  "contractName": "Slicer",
  "sourceName": "contracts/Slicer.sol",
  "abi": [
    {
      "inputs": [],
      "name": "Invalid",
      "type": "error"
    },
    {
      "inputs": [],
      "name": "NotAuthorized",
      "type": "error"
    },
    {
      "inputs": [],
      "name": "NotSuccessful",
      "type": "error"
    },
    {
      "inputs": [],
      "name": "PaymentLoop",
      "type": "error"
    },
    {
      "inputs": [],
      "name": "ReentrancyBlock",
      "type": "error"
    },
    {
      "inputs": [],
      "name": "releaseLocked",
      "type": "error"
    },
    {
      "anonymous": false,
      "inputs": [
        {
          "indexed": true,
          "internalType": "uint256",
          "name": "slicerId",
          "type": "uint256"
        },
        {
          "indexed": false,
          "internalType": "bool",
          "name": "addChildSlicerMode",
          "type": "bool"
        }
      ],
      "name": "ChildSlicerSet",
      "type": "event"
    },
    {
      "anonymous": false,
      "inputs": [
        {
          "indexed": false,
          "internalType": "address[]",
          "name": "currencies",
          "type": "address[]"
        }
      ],
      "name": "CurrenciesAdded",
      "type": "event"
    },
    {
      "anonymous": false,
      "inputs": [
        {
          "indexed": false,
          "internalType": "bool",
          "name": "customFeeActive",
          "type": "bool"
        },
        {
          "indexed": false,
          "internalType": "uint256",
          "name": "customFee",
          "type": "uint256"
        }
      ],
      "name": "CustomFeeSet",
      "type": "event"
    },
    {
      "anonymous": false,
      "inputs": [
        {
          "indexed": true,
          "internalType": "address",
          "name": "contractAddress",
          "type": "address"
        },
        {
          "indexed": true,
          "internalType": "address",
          "name": "from",
          "type": "address"
        },
        {
          "indexed": false,
          "internalType": "uint256[]",
          "name": "tokenIds",
          "type": "uint256[]"
        },
        {
          "indexed": false,
          "internalType": "uint256[]",
          "name": "amounts",
          "type": "uint256[]"
        }
      ],
      "name": "ERC1155BatchReceived",
      "type": "event"
    },
    {
      "anonymous": false,
      "inputs": [
        {
          "indexed": true,
          "internalType": "address",
          "name": "contractAddress",
          "type": "address"
        },
        {
          "indexed": true,
          "internalType": "address",
          "name": "from",
          "type": "address"
        },
        {
          "indexed": false,
          "internalType": "uint256",
          "name": "tokenId",
          "type": "uint256"
        },
        {
          "indexed": false,
          "internalType": "uint256",
          "name": "amount",
          "type": "uint256"
        }
      ],
      "name": "ERC1155Received",
      "type": "event"
    },
    {
      "anonymous": false,
      "inputs": [
        {
          "indexed": true,
          "internalType": "address",
          "name": "contractAddress",
          "type": "address"
        },
        {
          "indexed": true,
          "internalType": "address",
          "name": "from",
          "type": "address"
        },
        {
          "indexed": false,
          "internalType": "uint256",
          "name": "tokenId",
          "type": "uint256"
        }
      ],
      "name": "ERC721Received",
      "type": "event"
    },
    {
      "anonymous": false,
      "inputs": [
        {
          "indexed": true,
          "internalType": "address",
          "name": "payee",
          "type": "address"
        },
        {
          "indexed": true,
          "internalType": "address",
          "name": "currency",
          "type": "address"
        },
        {
          "indexed": false,
          "internalType": "uint256",
          "name": "amountReleased",
          "type": "uint256"
        },
        {
          "indexed": false,
          "internalType": "uint256",
          "name": "protocolPayment",
          "type": "uint256"
        }
      ],
      "name": "Released",
      "type": "event"
    },
    {
      "inputs": [
        {
          "internalType": "address[]",
          "name": "currencies",
          "type": "address[]"
        }
      ],
      "name": "_addCurrencies",
      "outputs": [],
      "stateMutability": "nonpayable",
      "type": "function"
    },
    {
      "inputs": [
        {
          "internalType": "address",
          "name": "buyer",
          "type": "address"
        },
        {
          "internalType": "address",
          "name": "contractAddress",
          "type": "address"
        },
        {
          "internalType": "uint256",
          "name": "quantity",
          "type": "uint256"
        },
        {
          "internalType": "uint256",
          "name": "tokenId",
          "type": "uint256"
        }
      ],
      "name": "_handle1155Purchase",
      "outputs": [],
      "stateMutability": "nonpayable",
      "type": "function"
    },
    {
      "inputs": [
        {
          "internalType": "address",
          "name": "buyer",
          "type": "address"
        },
        {
          "internalType": "address",
          "name": "contractAddress",
          "type": "address"
        },
        {
          "internalType": "uint256",
          "name": "tokenId",
          "type": "uint256"
        }
      ],
      "name": "_handle721Purchase",
      "outputs": [],
      "stateMutability": "nonpayable",
      "type": "function"
    },
    {
      "inputs": [
        {
          "internalType": "uint256",
          "name": "tokenId_",
          "type": "uint256"
        },
        {
          "internalType": "bool",
          "name": "isImmutable_",
          "type": "bool"
        },
        {
          "internalType": "bool",
          "name": "isControlled_",
          "type": "bool"
        },
        {
          "internalType": "uint8",
          "name": "flags_",
          "type": "uint8"
        },
        {
          "internalType": "address",
          "name": "slicerCreator_",
          "type": "address"
        },
        {
          "internalType": "uint256",
          "name": "minimumShares_",
          "type": "uint256"
        },
        {
          "internalType": "uint256",
          "name": "releaseTimelock_",
          "type": "uint256"
        },
        {
          "internalType": "address[]",
          "name": "currencies_",
          "type": "address[]"
        }
      ],
      "name": "_initialize",
      "outputs": [],
      "stateMutability": "nonpayable",
      "type": "function"
    },
    {
      "inputs": [
        {
          "internalType": "address",
          "name": "account",
          "type": "address"
        },
        {
          "internalType": "address",
          "name": "currency",
          "type": "address"
        }
      ],
      "name": "_releaseFromFundsModule",
      "outputs": [
        {
          "internalType": "uint256",
          "name": "amount",
          "type": "uint256"
        },
        {
          "internalType": "uint256",
          "name": "protocolPayment",
          "type": "uint256"
        }
      ],
      "stateMutability": "nonpayable",
      "type": "function"
    },
    {
      "inputs": [
        {
          "internalType": "address",
          "name": "account",
          "type": "address"
        },
        {
          "internalType": "address",
          "name": "currency",
          "type": "address"
        },
        {
          "internalType": "uint256",
          "name": "accountSlices",
          "type": "uint256"
        }
      ],
      "name": "_releaseFromSliceCore",
      "outputs": [],
      "stateMutability": "nonpayable",
      "type": "function"
    },
    {
      "inputs": [
        {
          "internalType": "uint256",
          "name": "id",
          "type": "uint256"
        },
        {
          "internalType": "bool",
          "name": "isAdded",
          "type": "bool"
        }
      ],
      "name": "_setChildSlicer",
      "outputs": [],
      "stateMutability": "nonpayable",
      "type": "function"
    },
    {
      "inputs": [
        {
          "internalType": "bool",
          "name": "customFeeActive",
          "type": "bool"
        },
        {
          "internalType": "uint256",
          "name": "customFee",
          "type": "uint256"
        }
      ],
      "name": "_setCustomFee",
      "outputs": [],
      "stateMutability": "nonpayable",
      "type": "function"
    },
    {
      "inputs": [
        {
          "internalType": "uint256",
          "name": "totalShares",
          "type": "uint256"
        }
      ],
      "name": "_setTotalShares",
      "outputs": [],
      "stateMutability": "nonpayable",
      "type": "function"
    },
    {
      "inputs": [
        {
          "internalType": "address payable",
          "name": "sender",
          "type": "address"
        },
        {
          "internalType": "address",
          "name": "receiver",
          "type": "address"
        },
        {
          "internalType": "bool",
          "name": "toRelease",
          "type": "bool"
        },
        {
          "internalType": "uint256",
          "name": "senderShares",
          "type": "uint256"
        },
        {
          "internalType": "uint256",
          "name": "transferredShares",
          "type": "uint256"
        }
      ],
      "name": "_updatePayees",
      "outputs": [],
      "stateMutability": "nonpayable",
      "type": "function"
    },
    {
      "inputs": [
        {
          "internalType": "address payable[]",
          "name": "accounts",
          "type": "address[]"
        },
        {
          "internalType": "int32[]",
          "name": "tokensDiffs",
          "type": "int32[]"
        },
        {
          "internalType": "uint32",
          "name": "totalSupply",
          "type": "uint32"
        }
      ],
      "name": "_updatePayeesReslice",
      "outputs": [],
      "stateMutability": "nonpayable",
      "type": "function"
    },
    {
      "inputs": [
        {
          "internalType": "address",
          "name": "currency",
          "type": "address"
        }
      ],
      "name": "acceptsCurrency",
      "outputs": [
        {
          "internalType": "bool",
          "name": "",
          "type": "bool"
        }
      ],
      "stateMutability": "view",
      "type": "function"
    },
    {
      "inputs": [
        {
          "internalType": "address[]",
          "name": "accounts",
          "type": "address[]"
        },
        {
          "internalType": "address",
          "name": "currency",
          "type": "address"
        },
        {
          "internalType": "bool",
          "name": "withdraw",
          "type": "bool"
        }
      ],
      "name": "batchReleaseAccounts",
      "outputs": [],
      "stateMutability": "nonpayable",
      "type": "function"
    },
    {
      "inputs": [],
      "name": "getFee",
      "outputs": [
        {
          "internalType": "uint256",
          "name": "fee",
          "type": "uint256"
        }
      ],
      "stateMutability": "view",
      "type": "function"
    },
    {
      "inputs": [
        {
          "internalType": "address",
          "name": "payee",
          "type": "address"
        }
      ],
      "name": "isPayeeAllowed",
      "outputs": [
        {
          "internalType": "bool",
          "name": "",
          "type": "bool"
        }
      ],
      "stateMutability": "view",
      "type": "function"
    },
    {
      "inputs": [
        {
          "internalType": "address",
          "name": "",
          "type": "address"
        },
        {
          "internalType": "address",
          "name": "from",
          "type": "address"
        },
        {
          "internalType": "uint256[]",
          "name": "tokenIds",
          "type": "uint256[]"
        },
        {
          "internalType": "uint256[]",
          "name": "amounts",
          "type": "uint256[]"
        },
        {
          "internalType": "bytes",
          "name": "",
          "type": "bytes"
        }
      ],
      "name": "onERC1155BatchReceived",
      "outputs": [
        {
          "internalType": "bytes4",
          "name": "",
          "type": "bytes4"
        }
      ],
      "stateMutability": "nonpayable",
      "type": "function"
    },
    {
      "inputs": [
        {
          "internalType": "address",
          "name": "",
          "type": "address"
        },
        {
          "internalType": "address",
          "name": "from",
          "type": "address"
        },
        {
          "internalType": "uint256",
          "name": "tokenId",
          "type": "uint256"
        },
        {
          "internalType": "uint256",
          "name": "amount",
          "type": "uint256"
        },
        {
          "internalType": "bytes",
          "name": "",
          "type": "bytes"
        }
      ],
      "name": "onERC1155Received",
      "outputs": [
        {
          "internalType": "bytes4",
          "name": "",
          "type": "bytes4"
        }
      ],
      "stateMutability": "nonpayable",
      "type": "function"
    },
    {
      "inputs": [
        {
          "internalType": "address",
          "name": "",
          "type": "address"
        },
        {
          "internalType": "address",
          "name": "from",
          "type": "address"
        },
        {
          "internalType": "uint256",
          "name": "tokenId",
          "type": "uint256"
        },
        {
          "internalType": "bytes",
          "name": "",
          "type": "bytes"
        }
      ],
      "name": "onERC721Received",
      "outputs": [
        {
          "internalType": "bytes4",
          "name": "",
          "type": "bytes4"
        }
      ],
      "stateMutability": "nonpayable",
      "type": "function"
    },
    {
      "inputs": [
        {
          "internalType": "address",
          "name": "account",
          "type": "address"
        },
        {
          "internalType": "address",
          "name": "currency",
          "type": "address"
        },
        {
          "internalType": "bool",
          "name": "withdraw",
          "type": "bool"
        }
      ],
      "name": "release",
      "outputs": [],
      "stateMutability": "nonpayable",
      "type": "function"
    },
    {
      "inputs": [],
      "name": "slicerInfo",
      "outputs": [
        {
          "internalType": "uint256",
          "name": "tokenId",
          "type": "uint256"
        },
        {
          "internalType": "uint256",
          "name": "minimumShares",
          "type": "uint256"
        },
        {
          "internalType": "address",
          "name": "creator",
          "type": "address"
        },
        {
          "internalType": "bool",
          "name": "isImmutable",
          "type": "bool"
        },
        {
          "internalType": "bool",
          "name": "isControlled",
          "type": "bool"
        },
        {
          "internalType": "address[]",
          "name": "currencies",
          "type": "address[]"
        }
      ],
      "stateMutability": "view",
      "type": "function"
    },
    {
      "inputs": [
        {
          "internalType": "bytes4",
          "name": "interfaceId",
          "type": "bytes4"
        }
      ],
      "name": "supportsInterface",
      "outputs": [
        {
          "internalType": "bool",
          "name": "",
          "type": "bool"
        }
      ],
      "stateMutability": "view",
      "type": "function"
    },
    {
      "inputs": [
        {
          "internalType": "address",
          "name": "account",
          "type": "address"
        },
        {
          "internalType": "address",
          "name": "currency",
          "type": "address"
        }
      ],
      "name": "unreleased",
      "outputs": [
        {
          "internalType": "uint256",
          "name": "unreleasedAmount",
          "type": "uint256"
        }
      ],
      "stateMutability": "view",
      "type": "function"
    },
    {
      "stateMutability": "payable",
      "type": "receive"
    }
  ],
  "bytecode": "0x608060405234801561001057600080fd5b50613390806100206000396000f3fe6080604052600436106101395760003560e01c8063bc197c81116100ab578063dd8b33e71161006f578063dd8b33e714610394578063e32cf851146103b4578063e6a1be00146103d4578063ecd3620a146103f4578063f23a6e6114610414578063fc2686191461043457600080fd5b8063bc197c81146102f1578063ce55982b14610311578063ced72f8714610331578063d3c6575414610354578063d9749edf1461037457600080fd5b8063926b0125116100fd578063926b012514610215578063957e07b6146102355780639d24e1861461025c578063a46880171461027c578063b230074a146102b1578063b25e9c39146102d157600080fd5b806301ffc9a714610145578063150b7a021461017a57806319fc05b5146101b357806352cf13d6146101d557806359bac56c146101f557600080fd5b3661014057005b600080fd5b34801561015157600080fd5b506101656101603660046128c7565b610454565b60405190151581526020015b60405180910390f35b34801561018657600080fd5b5061019a6101953660046129c0565b61048b565b6040516001600160e01b03199091168152602001610171565b3480156101bf57600080fd5b506101d36101ce366004612a3a565b6104eb565b005b3480156101e157600080fd5b506101d36101f0366004612a85565b610637565b34801561020157600080fd5b50610165610210366004612acb565b610875565b34801561022157600080fd5b506101d3610230366004612ae8565b610b90565b34801561024157600080fd5b5061024a610ce2565b60405161017196959493929190612b58565b34801561026857600080fd5b506101d3610277366004612ba1565b610d5c565b34801561028857600080fd5b5061029c610297366004612bba565b610d8a565b60408051928352602083019190915201610171565b3480156102bd57600080fd5b506101d36102cc366004612bf3565b61103e565b3480156102dd57600080fd5b506101656102ec366004612acb565b6110ab565b3480156102fd57600080fd5b5061019a61030c366004612cdd565b6110b8565b34801561031d57600080fd5b506101d361032c366004612d8b565b611196565b34801561033d57600080fd5b50610346611237565b604051908152602001610171565b34801561036057600080fd5b506101d361036f366004612d8b565b611278565b34801561038057600080fd5b5061034661038f366004612bba565b611322565b3480156103a057600080fd5b506101d36103af366004612e30565b611444565b3480156103c057600080fd5b506101d36103cf366004612f5f565b6115e5565b3480156103e057600080fd5b506101d36103ef366004613031565b6117b5565b34801561040057600080fd5b506101d361040f36600461307a565b611bc3565b34801561042057600080fd5b5061019a61042f36600461309f565b611cd4565b34801561044057600080fd5b506101d361044f366004613108565b611d73565b60006001600160e01b03198216630271189760e51b148061048557506301ffc9a760e01b6001600160e01b03198316145b92915050565b6000836001600160a01b0316336001600160a01b03167f941a9d9a9af7f97737c018d13918859e12f44e16c4b4c6ac922dacf021cfbf14856040516104d291815260200190565b60405180910390a350630a85bd0160e11b949350505050565b606b54600160c01b900464ffffffffff1642101561051c5760405163510040cb60e01b815260040160405180910390fd5b60006105288484611322565b905080156106315760008061053b611237565b905080156105505761054d8382611ecb565b91505b6001600160a01b0385166000908152606960205260408120805485929061057890849061315b565b9091555061058b90508686858588611eeb565b831561062e5760006001600160a01b038616156105a95760006105ab565b835b606b54604051630f1daf8f60e31b815291925073cf7ed3acca5a467e9e704c703e8d87f634fb0fc9916378ed7c789184916105fa916001600160801b0316908c908c908b908b90600401613173565b6000604051808303818588803b15801561061357600080fd5b505af1158015610627573d6000803e3d6000fd5b5050505050505b50505b50505050565b33739fe46736679d2d9a65f0992f2272de9f3c7fa6e01461066b5760405163ea8e4eb560e01b815260040160405180910390fd5b73e7f1725e7734ce288f8367e1bb143e90bb3f0511196001600160a01b038416016107f257604051627eeac760e11b81523060048201526024810182905273e7f1725e7734ce288f8367e1bb143e90bb3f05129062fdd58e90604401602060405180830381865afa1580156106e4573d6000803e3d6000fd5b505050506040513d601f19601f8201168201806040525081019061070891906131ad565b82036107f257604051630bafd3f560e11b81526004810182905273e7f1725e7734ce288f8367e1bb143e90bb3f05129063175fa7ea90602401602060405180830381865afa15801561075e573d6000803e3d6000fd5b505050506040513d601f19601f8201168201806040525081019061078291906131c6565b606b54604051637669b10560e11b81526001600160801b039091166004820152600060248201526001600160a01b03919091169063ecd3620a90604401600060405180830381600087803b1580156107d957600080fd5b505af11580156107ed573d6000803e3d6000fd5b505050505b604051637921219560e11b81523060048201526001600160a01b038581166024830152604482018390526064820184905260a06084830152600060a483015284169063f242432a9060c401600060405180830381600087803b15801561085757600080fd5b505af115801561086b573d6000803e3d6000fd5b5050505050505050565b606c54600090600160a81b900460ff161561092557606b5460405163a468f1c760e01b81526001600160801b03909116600482015273e7f1725e7734ce288f8367e1bb143e90bb3f05129063a468f1c790602401602060405180830381865afa1580156108e6573d6000803e3d6000fd5b505050506040513d601f19601f8201168201806040525081019061090a91906131c6565b6001600160a01b0316826001600160a01b0316149050919050565b606b54604051627eeac760e11b815263ffffffff600160a01b8304169173e7f1725e7734ce288f8367e1bb143e90bb3f05129162fdd58e916109759187916001600160801b0316906004016131e3565b602060405180830381865afa158015610992573d6000803e3d6000fd5b505050506040513d601f19601f820116820180604052508101906109b691906131ad565b106109c357506001919050565b6109cd60676121a2565b15610b885760005b6109df60676121a2565b811015610b8657600073e7f1725e7734ce288f8367e1bb143e90bb3f051263175fa7ea610a0d6067856121ac565b6040518263ffffffff1660e01b8152600401610a2b91815260200190565b602060405180830381865afa158015610a48573d6000803e3d6000fd5b505050506040513d601f19601f82011682018060405250810190610a6c91906131c6565b606b54604051627eeac760e11b815291925063ffffffff600160a01b8204169173e7f1725e7734ce288f8367e1bb143e90bb3f05129162fdd58e91610ac19186916001600160801b03909116906004016131e3565b602060405180830381865afa158015610ade573d6000803e3d6000fd5b505050506040513d601f19601f82011682018060405250810190610b0291906131ad565b10610b7d5760405163166eb15b60e21b81526001600160a01b0385811660048301528291908216906359bac56c90602401602060405180830381865afa158015610b50573d6000803e3d6000fd5b505050506040513d601f19601f82011682018060405250810190610b749190613205565b95945050505050565b506001016109d5565b505b506000919050565b73e7f1725e7734ce288f8367e1bb143e90bb3f05126001600160a01b0316638da5cb5b6040518163ffffffff1660e01b8152600401602060405180830381865afa158015610be2573d6000803e3d6000fd5b505050506040513d601f19601f82011682018060405250810190610c0691906131c6565b6001600160a01b0316336001600160a01b031614610c375760405163ea8e4eb560e01b815260040160405180910390fd5b610c4360196004613222565b60ff16811180610c5457506103e881115b15610c7257604051636dac6a0960e01b815260040160405180910390fd5b606b80546001600160e81b0316600160f81b84151590810261ffff60e81b191691909117600160e81b61ffff8516021790915560408051918252602082018390527fe2fdfbdee41a353c6bb67e41dccbcf559b5d0c120375397b10247dc13065ca45910160405180910390a15050565b606b54606c5460009182918291829182916060916001600160801b0382169163ffffffff600160a01b9182900416916001600160a01b0381169160ff908204811691600160a81b900416610d3660656121b8565b6001600160801b03959095169b63ffffffff949094169a50919850965094509092509050565b610d646121c5565b606b805463ffffffff909216600160801b0263ffffffff60801b19909216919091179055565b6000803373cf7ed3acca5a467e9e704c703e8d87f634fb0fc914610dc15760405163ea8e4eb560e01b815260040160405180910390fd5b606b54600160c01b900464ffffffffff16421015610df25760405163510040cb60e01b815260040160405180910390fd5b610dfc8484611322565b91508115611037576000610e0e611237565b90508015610e2357610e208382611ecb565b91505b6001600160a01b03841660009081526069602052604081208054859290610e4b90849061315b565b90915550506001600160a01b038085166000818152606a60209081526040808320948a16835293905291909120805485019055610f055760405160009073cf7ed3acca5a467e9e704c703e8d87f634fb0fc99085908381818185875af1925050503d8060008114610ed8576040519150601f19603f3d011682016040523d82523d6000602084013e610edd565b606091505b5050905080610eff5760405163af6eefa360e01b815260040160405180910390fd5b50610fdf565b6001600160a01b0384167356639db16ac50a89228026e42a316b30179a537614801590610f3a5750610f386065856121fb565b155b15610f585760405163ea8e4eb560e01b815260040160405180910390fd5b60405163a9059cbb60e01b815273cf7ed3acca5a467e9e704c703e8d87f634fb0fc96004820152602481018490526001600160a01b0385169063a9059cbb906044016020604051808303816000875af1158015610fb9573d6000803e3d6000fd5b505050506040513d601f19601f82011682018060405250810190610fdd9190613205565b505b836001600160a01b0316856001600160a01b03167f29e9bc035f01bfa0da19263257dbbaeb34bf6c9c780d975b99cb802aecfcf1a2858560405161102d929190918252602082015260400190565b60405180910390a3505b9250929050565b6110466121c5565b6110556000868684868861221d565b6110777356639db16ac50a89228026e42a316b30179a5376868684868861221d565b60005b61108460656121a2565b81101561062e576110a36110996065836121ac565b878785878961221d565b60010161107a565b60006104856065836121fb565b600073e7f1725e7734ce288f8367e1bb143e90bb3f05111933016111375760005b84518110156111355761110f8582815181106110f7576110f761324b565b6020026020010151606761237890919063ffffffff16565b1561112d576040516368ee781960e11b815260040160405180910390fd5b6001016110d9565b505b846001600160a01b0316336001600160a01b03167f1edfbe4132ea17d8154ccc1c03cdbf3f2406087a6989a7d7ebe742504adeb546868660405161117c929190613291565b60405180910390a35063bc197c8160e01b95945050505050565b33739fe46736679d2d9a65f0992f2272de9f3c7fa6e0146111ca5760405163ea8e4eb560e01b815260040160405180910390fd5b604051632142170760e11b81523060048201526001600160a01b038481166024830152604482018390528316906342842e0e90606401600060405180830381600087803b15801561121a57600080fd5b505af115801561122e573d6000803e3d6000fd5b50505050505050565b606b54600090600160f81b900460ff161561127257606b54600160e81b900461ffff161561126f5750606b54600160e81b900461ffff165b90565b50601990565b6112806121c5565b606b54600160c01b900464ffffffffff164210156112b15760405163510040cb60e01b815260040160405180910390fd5b60006112be848484612390565b90508015610631576000806112d1611237565b905080156112e6576112e38382611ecb565b91505b6001600160a01b0385166000908152606960205260408120805485929061130e90849061315b565b9091555061062e9050868685856000611eeb565b60008061132e8361243f565b9050801561143d57606b54604051627eeac760e11b815260009163ffffffff600160801b8204169173e7f1725e7734ce288f8367e1bb143e90bb3f05129162fdd58e9161138b918a916001600160801b03909116906004016131e3565b602060405180830381865afa1580156113a8573d6000803e3d6000fd5b505050506040513d601f19601f820116820180604052508101906113cc91906131ad565b6113d690846132b6565b6113e091906132d5565b6001600160a01b038086166000908152606a60209081526040808320938a168352929052205490915081111561143b576001600160a01b038085166000908152606a6020908152604080832093891683529290522054810392505b505b5092915050565b33735fc8d32690cc91d4c39d9d3abcbd16989f875707146114785760405163ea8e4eb560e01b815260040160405180910390fd5b606c546001600160a01b031615158061149757506001600160801b0388115b156114b55760405163af6eefa360e01b815260040160405180910390fd5b606b805463ffffffff8516600160a01b0277ffffffff00000000ffffffffffffffffffffffffffffffff199091166001600160801b038b1617179055811561151857606b805464ffffffffff60c01b1916600160c01b64ffffffffff8516021790555b606c80546001600160a01b0319166001600160a01b038616179055861561155157606c805460ff60a01b1916600160a01b891515021790555b851561156f57606c805460ff60a81b1916600160a81b881515021790555b60ff85161561159157606c805460ff60b01b1916600160b01b60ff8816021790555b80511561086b5760005b81518110156115da576115d18282815181106115b9576115b961324b565b602002602001015160656124fc90919063ffffffff16565b5060010161159b565b505050505050505050565b6115ed6121c5565b60006115f9600061243f565b9050600061161a7356639db16ac50a89228026e42a316b30179a537661243f565b905060005b61162960656121a2565b81101561175357600061163d6065836121ac565b9050600061164a8261243f565b905060005b885181101561173757836000036116f15761169f60008a83815181106116775761167761324b565b60200260200101518a84815181106116915761169161324b565b602002602001015189612511565b6116f17356639db16ac50a89228026e42a316b30179a53768a83815181106116c9576116c961324b565b60200260200101518a84815181106116e3576116e361324b565b602002602001015188612511565b61172f838a83815181106117075761170761324b565b60200260200101518a84815181106117215761172161324b565b602002602001015185612511565b60010161164f565b50611749828763ffffffff1683612607565b505060010161161f565b5061176660008463ffffffff1684612607565b61178b7356639db16ac50a89228026e42a316b30179a53768463ffffffff1683612607565b5050606b805463ffffffff909216600160801b0263ffffffff60801b199092169190911790555050565b606b54600160c01b900464ffffffffff164210156117e65760405163510040cb60e01b815260040160405180910390fd5b60006117f0611237565b6001600160a01b03841660008181526069602052604081205492935082911561188c576040516370a0823160e01b815230600482015282906001600160a01b038816906370a0823190602401602060405180830381865afa158015611859573d6000803e3d6000fd5b505050506040513d601f19601f8201168201806040525081019061187d91906131ad565b611887919061315b565b611896565b611896824761315b565b905060005b8751811015611b6657606b548851600091600160801b900463ffffffff169073e7f1725e7734ce288f8367e1bb143e90bb3f05129062fdd58e908c90869081106118e7576118e761324b565b6020908102919091010151606b546040516001600160e01b031960e085901b16815261192092916001600160801b0316906004016131e3565b602060405180830381865afa15801561193d573d6000803e3d6000fd5b505050506040513d601f19601f8201168201806040525081019061196191906131ad565b61196b90856132b6565b61197591906132d5565b9050600080606a60008b6001600160a01b03166001600160a01b0316815260200190815260200160002060008c86815181106119b3576119b361324b565b60200260200101516001600160a01b03166001600160a01b0316815260200190815260200160002054831115611a40576001600160a01b038a166000908152606a602052604081208c519091908d9087908110611a1257611a1261324b565b60200260200101516001600160a01b03166001600160a01b0316815260200190815260200160002054830391505b8115611a8b578715611a5957611a568289611ecb565b90505b611a63828761315b565b9550611a8b8b8581518110611a7a57611a7a61324b565b60200260200101518b84848d611eeb565b8815611b585760006001600160a01b038b1615611aa9576000611aab565b825b905073cf7ed3acca5a467e9e704c703e8d87f634fb0fc96001600160a01b03166378ed7c7882606b60009054906101000a90046001600160801b03168f8981518110611af957611af961324b565b60200260200101518f88886040518763ffffffff1660e01b8152600401611b24959493929190613173565b6000604051808303818588803b158015611b3d57600080fd5b505af1158015611b51573d6000803e3d6000fd5b5050505050505b83600101935050505061189b565b506001600160a01b0386166000908152606960205260409020548314611b9f5760405163cdcbf42760e01b815260040160405180910390fd5b506001600160a01b0390941660009081526069602052604090209390935550505050565b8015611be257611bd16121c5565b611bdc6067836126e7565b50611c94565b604051630bafd3f560e11b81526004810183905273e7f1725e7734ce288f8367e1bb143e90bb3f05129063175fa7ea90602401602060405180830381865afa158015611c32573d6000803e3d6000fd5b505050506040513d601f19601f82011682018060405250810190611c5691906131c6565b6001600160a01b0316336001600160a01b031614611c875760405163ea8e4eb560e01b815260040160405180910390fd5b611c926067836126f3565b505b817f495f78c7b11cb5ca67202c06f9e12693d4882ef82c8248b59a740154ba8859f882604051611cc8911515815260200190565b60405180910390a25050565b600073e7f1725e7734ce288f8367e1bb143e90bb3f0511193301611d1b57611cfd606785612378565b15611d1b576040516368ee781960e11b815260040160405180910390fd5b60408051858152602081018590526001600160a01b0387169133917ffae60880665b87af033fc873390c3749e126b4cd010b87a7f1191dbd2b32f197910160405180910390a35063f23a6e6160e01b95945050505050565b606c54600160a81b900460ff1615611e3b57606b5460405163a468f1c760e01b81526001600160801b03909116600482015273e7f1725e7734ce288f8367e1bb143e90bb3f05129063a468f1c790602401602060405180830381865afa158015611de1573d6000803e3d6000fd5b505050506040513d601f19601f82011682018060405250810190611e0591906131c6565b6001600160a01b0316336001600160a01b031614611e365760405163ea8e4eb560e01b815260040160405180910390fd5b611e66565b606c546001600160a01b03163314611e665760405163ea8e4eb560e01b815260040160405180910390fd5b60005b8151811015611e9057611e878282815181106115b9576115b961324b565b50600101611e69565b507fa2f33c128ca00170a527ea94ce234c292389e4606240101eb1e7966442646f6a81604051611ec091906132f7565b60405180910390a150565b60006103e8611eda83856132b6565b611ee491906132d5565b9392505050565b6001600160a01b038085166000818152606a60209081526040808320948a16835293905291909120805485019055611f9e5780611f99576040516339ed512360e01b81526001600160a01b03861660048201526024810183905273cf7ed3acca5a467e9e704c703e8d87f634fb0fc9906339ed51239085906044016000604051808303818588803b158015611f7f57600080fd5b505af1158015611f93573d6000803e3d6000fd5b50505050505b612145565b6001600160a01b0384167356639db16ac50a89228026e42a316b30179a537614801590611fd35750611fd16065856121fb565b155b1561203d57606c54600160b01b90046001161561202457336001600160a01b038616146120135760405163ea8e4eb560e01b815260040160405180910390fd5b61201e6065856124fc565b5061203d565b60405163ea8e4eb560e01b815260040160405180910390fd5b60405163a9059cbb60e01b815273cf7ed3acca5a467e9e704c703e8d87f634fb0fc96004820152602481018490526001600160a01b0385169063a9059cbb906044016020604051808303816000875af115801561209e573d6000803e3d6000fd5b505050506040513d601f19601f820116820180604052508101906120c29190613205565b508061214557606b54604051632cfe238560e11b815273cf7ed3acca5a467e9e704c703e8d87f634fb0fc9916359fc470a91612112916001600160801b0316908990899089908990600401613173565b600060405180830381600087803b15801561212c57600080fd5b505af1158015612140573d6000803e3d6000fd5b505050505b836001600160a01b0316856001600160a01b03167f29e9bc035f01bfa0da19263257dbbaeb34bf6c9c780d975b99cb802aecfcf1a28585604051612193929190918252602082015260400190565b60405180910390a35050505050565b6000610485825490565b6000611ee483836126ff565b60606000611ee483612729565b3373e7f1725e7734ce288f8367e1bb143e90bb3f0512146121f95760405163ea8e4eb560e01b815260040160405180910390fd5b565b6001600160a01b03811660009081526001830160205260408120541515611ee4565b80156122ca57606b54600160c01b900464ffffffffff164210156122545760405163510040cb60e01b815260040160405180910390fd5b6000612261868885612390565b905080156122c857600080612274611237565b90508015612289576122868382611ecb565b91505b6001600160a01b038916600090815260696020526040812080548592906122b190849061315b565b909155506122c59050888a85856000611eeb565b50505b505b6001600160a01b038087166000908152606a60209081526040808320938916835292905220541561062e576001600160a01b038087166000908152606a60209081526040808320938916835292905290812054839061232a9086906132b6565b61233491906132d5565b6001600160a01b039788166000908152606a60209081526040808320988b168352979052868120805483019055969097168652505050912080549290920390915550565b60008181526001830160205260408120541515611ee4565b60008115611ee45760006123a38461243f565b9050801561243757606b54600090600160801b900463ffffffff166123c885846132b6565b6123d291906132d5565b6001600160a01b038087166000908152606a60209081526040808320938b1683529290522054909150811115612435576001600160a01b038086166000908152606a60209081526040808320938a1683529290522054612432908261330a565b92505b505b509392505050565b60006001600160a01b038216156124d9576001600160a01b038216600081815260696020526040908190205490516370a0823160e01b81523060048201529091906370a0823190602401602060405180830381865afa1580156124a6573d6000803e3d6000fd5b505050506040513d601f19601f820116820180604052508101906124ca91906131ad565b6124d4919061315b565b610485565b6001600160a01b038216600090815260696020526040902054610485904761315b565b6000611ee4836001600160a01b038416612785565b80156106315760008260030b1361259857606b54600160801b900463ffffffff168161253c84613321565b63ffffffff1661254c91906132b6565b61255691906132d5565b6001600160a01b038086166000908152606a602090815260408083209388168352929052908120805490919061258d90849061330a565b925050819055612600565b606b5463ffffffff600160801b9091048116906125b890839085166132b6565b6125c291906132d5565b6001600160a01b038086166000908152606a60209081526040808320938816835292905290812080549091906125f990849061315b565b9250508190555b5050505050565b80156126e257606b54600160801b900463ffffffff16821161268557606b54600160801b900463ffffffff168161263e848361330a565b61264891906132b6565b61265291906132d5565b6001600160a01b0384166000908152606960205260408120805490919061267a90849061330a565b925050819055610631565b606b54600160801b900463ffffffff16816126a0828561330a565b6126aa91906132b6565b6126b491906132d5565b6001600160a01b038416600090815260696020526040812080549091906126dc90849061315b565b90915550505b505050565b6000611ee48383612785565b6000611ee483836127d4565b60008260000182815481106127165761271661324b565b9060005260206000200154905092915050565b60608160000180548060200260200160405190810160405280929190818152602001828054801561277957602002820191906000526020600020905b815481526020019060010190808311612765575b50505050509050919050565b60008181526001830160205260408120546127cc57508154600181810184556000848152602080822090930184905584548482528286019093526040902091909155610485565b506000610485565b600081815260018301602052604081205480156128bd5760006127f860018361330a565b855490915060009061280c9060019061330a565b905081811461287157600086600001828154811061282c5761282c61324b565b906000526020600020015490508087600001848154811061284f5761284f61324b565b6000918252602080832090910192909255918252600188019052604090208390555b855486908061288257612882613344565b600190038181906000526020600020016000905590558560010160008681526020019081526020016000206000905560019350505050610485565b6000915050610485565b6000602082840312156128d957600080fd5b81356001600160e01b031981168114611ee457600080fd5b6001600160a01b038116811461290657600080fd5b50565b634e487b7160e01b600052604160045260246000fd5b604051601f8201601f1916810167ffffffffffffffff8111828210171561294857612948612909565b604052919050565b600082601f83011261296157600080fd5b813567ffffffffffffffff81111561297b5761297b612909565b61298e601f8201601f191660200161291f565b8181528460208386010111156129a357600080fd5b816020850160208301376000918101602001919091529392505050565b600080600080608085870312156129d657600080fd5b84356129e1816128f1565b935060208501356129f1816128f1565b925060408501359150606085013567ffffffffffffffff811115612a1457600080fd5b612a2087828801612950565b91505092959194509250565b801515811461290657600080fd5b600080600060608486031215612a4f57600080fd5b8335612a5a816128f1565b92506020840135612a6a816128f1565b91506040840135612a7a81612a2c565b809150509250925092565b60008060008060808587031215612a9b57600080fd5b8435612aa6816128f1565b93506020850135612ab6816128f1565b93969395505050506040820135916060013590565b600060208284031215612add57600080fd5b8135611ee4816128f1565b60008060408385031215612afb57600080fd5b8235612b0681612a2c565b946020939093013593505050565b600081518084526020808501945080840160005b83811015612b4d5781516001600160a01b031687529582019590820190600101612b28565b509495945050505050565b86815285602082015260018060a01b03851660408201528315156060820152821515608082015260c060a08201526000612b9560c0830184612b14565b98975050505050505050565b600060208284031215612bb357600080fd5b5035919050565b60008060408385031215612bcd57600080fd5b8235612bd8816128f1565b91506020830135612be8816128f1565b809150509250929050565b600080600080600060a08688031215612c0b57600080fd5b8535612c16816128f1565b94506020860135612c26816128f1565b93506040860135612c3681612a2c565b94979396509394606081013594506080013592915050565b600067ffffffffffffffff821115612c6857612c68612909565b5060051b60200190565b600082601f830112612c8357600080fd5b81356020612c98612c9383612c4e565b61291f565b82815260059290921b84018101918181019086841115612cb757600080fd5b8286015b84811015612cd25780358352918301918301612cbb565b509695505050505050565b600080600080600060a08688031215612cf557600080fd5b8535612d00816128f1565b94506020860135612d10816128f1565b9350604086013567ffffffffffffffff80821115612d2d57600080fd5b612d3989838a01612c72565b94506060880135915080821115612d4f57600080fd5b612d5b89838a01612c72565b93506080880135915080821115612d7157600080fd5b50612d7e88828901612950565b9150509295509295909350565b600080600060608486031215612da057600080fd5b8335612dab816128f1565b92506020840135612dbb816128f1565b929592945050506040919091013590565b600082601f830112612ddd57600080fd5b81356020612ded612c9383612c4e565b82815260059290921b84018101918181019086841115612e0c57600080fd5b8286015b84811015612cd2578035612e23816128f1565b8352918301918301612e10565b600080600080600080600080610100898b031215612e4d57600080fd5b883597506020890135612e5f81612a2c565b96506040890135612e6f81612a2c565b9550606089013560ff81168114612e8557600080fd5b94506080890135612e95816128f1565b935060a0890135925060c0890135915060e089013567ffffffffffffffff811115612ebf57600080fd5b612ecb8b828c01612dcc565b9150509295985092959890939650565b600082601f830112612eec57600080fd5b81356020612efc612c9383612c4e565b82815260059290921b84018101918181019086841115612f1b57600080fd5b8286015b84811015612cd25780358060030b8114612f395760008081fd5b8352918301918301612f1f565b803563ffffffff81168114612f5a57600080fd5b919050565b600080600060608486031215612f7457600080fd5b833567ffffffffffffffff80821115612f8c57600080fd5b818601915086601f830112612fa057600080fd5b81356020612fb0612c9383612c4e565b82815260059290921b8401810191818101908a841115612fcf57600080fd5b948201945b83861015612ff6578535612fe7816128f1565b82529482019490820190612fd4565b9750508701359250508082111561300c57600080fd5b5061301986828701612edb565b92505061302860408501612f46565b90509250925092565b60008060006060848603121561304657600080fd5b833567ffffffffffffffff81111561305d57600080fd5b61306986828701612dcc565b9350506020840135612a6a816128f1565b6000806040838503121561308d57600080fd5b823591506020830135612be881612a2c565b600080600080600060a086880312156130b757600080fd5b85356130c2816128f1565b945060208601356130d2816128f1565b93506040860135925060608601359150608086013567ffffffffffffffff8111156130fc57600080fd5b612d7e88828901612950565b60006020828403121561311a57600080fd5b813567ffffffffffffffff81111561313157600080fd5b61313d84828501612dcc565b949350505050565b634e487b7160e01b600052601160045260246000fd5b6000821982111561316e5761316e613145565b500190565b6001600160801b039590951685526001600160a01b0393841660208601529190921660408401526060830191909152608082015260a00190565b6000602082840312156131bf57600080fd5b5051919050565b6000602082840312156131d857600080fd5b8151611ee4816128f1565b6001600160a01b039290921682526001600160801b0316602082015260400190565b60006020828403121561321757600080fd5b8151611ee481612a2c565b600060ff821660ff84168160ff048111821515161561324357613243613145565b029392505050565b634e487b7160e01b600052603260045260246000fd5b600081518084526020808501945080840160005b83811015612b4d57815187529582019590820190600101613275565b6040815260006132a46040830185613261565b8281036020840152610b748185613261565b60008160001904831182151516156132d0576132d0613145565b500290565b6000826132f257634e487b7160e01b600052601260045260246000fd5b500490565b602081526000611ee46020830184612b14565b60008282101561331c5761331c613145565b500390565b60008160030b637fffffff19810361333b5761333b613145565b60000392915050565b634e487b7160e01b600052603160045260246000fdfea2646970667358221220e8708396b508e92497a753c9fd818782056d7840ec77e50e373afacee8fd6c2f64736f6c634300080d0033",
  "linkReferences": {},
  "deployedLinkReferences": {}
}