{
  "_format": "hh-sol-artifact-1",
  "contractName": "Slicer",
  "sourceName": "contracts/Slicer.sol",
  "abi": [
    {
      "inputs": [],
      "name": "Invalid",
      "type": "error"
    },
    {
      "inputs": [],
      "name": "NotAuthorized",
      "type": "error"
    },
    {
      "inputs": [],
      "name": "NotSuccessful",
      "type": "error"
    },
    {
      "inputs": [],
      "name": "PaymentLoop",
      "type": "error"
    },
    {
      "inputs": [],
      "name": "ReentrancyBlock",
      "type": "error"
    },
    {
      "inputs": [],
      "name": "releaseLocked",
      "type": "error"
    },
    {
      "anonymous": false,
      "inputs": [
        {
          "indexed": true,
          "internalType": "uint256",
          "name": "slicerId",
          "type": "uint256"
        },
        {
          "indexed": false,
          "internalType": "bool",
          "name": "addChildSlicerMode",
          "type": "bool"
        }
      ],
      "name": "ChildSlicerSet",
      "type": "event"
    },
    {
      "anonymous": false,
      "inputs": [
        {
          "indexed": false,
          "internalType": "address[]",
          "name": "currencies",
          "type": "address[]"
        }
      ],
      "name": "CurrenciesAdded",
      "type": "event"
    },
    {
      "anonymous": false,
      "inputs": [
        {
          "indexed": false,
          "internalType": "bool",
          "name": "customFeeActive",
          "type": "bool"
        },
        {
          "indexed": false,
          "internalType": "uint256",
          "name": "customFee",
          "type": "uint256"
        }
      ],
      "name": "CustomFeeSet",
      "type": "event"
    },
    {
      "anonymous": false,
      "inputs": [
        {
          "indexed": true,
          "internalType": "address",
          "name": "contractAddress",
          "type": "address"
        },
        {
          "indexed": true,
          "internalType": "address",
          "name": "from",
          "type": "address"
        },
        {
          "indexed": false,
          "internalType": "uint256[]",
          "name": "tokenIds",
          "type": "uint256[]"
        },
        {
          "indexed": false,
          "internalType": "uint256[]",
          "name": "amounts",
          "type": "uint256[]"
        }
      ],
      "name": "ERC1155BatchReceived",
      "type": "event"
    },
    {
      "anonymous": false,
      "inputs": [
        {
          "indexed": true,
          "internalType": "address",
          "name": "contractAddress",
          "type": "address"
        },
        {
          "indexed": true,
          "internalType": "address",
          "name": "from",
          "type": "address"
        },
        {
          "indexed": false,
          "internalType": "uint256",
          "name": "tokenId",
          "type": "uint256"
        },
        {
          "indexed": false,
          "internalType": "uint256",
          "name": "amount",
          "type": "uint256"
        }
      ],
      "name": "ERC1155Received",
      "type": "event"
    },
    {
      "anonymous": false,
      "inputs": [
        {
          "indexed": true,
          "internalType": "address",
          "name": "contractAddress",
          "type": "address"
        },
        {
          "indexed": true,
          "internalType": "address",
          "name": "from",
          "type": "address"
        },
        {
          "indexed": false,
          "internalType": "uint256",
          "name": "tokenId",
          "type": "uint256"
        }
      ],
      "name": "ERC721Received",
      "type": "event"
    },
    {
      "anonymous": false,
      "inputs": [
        {
          "indexed": true,
          "internalType": "address",
          "name": "payee",
          "type": "address"
        },
        {
          "indexed": true,
          "internalType": "address",
          "name": "currency",
          "type": "address"
        },
        {
          "indexed": false,
          "internalType": "uint256",
          "name": "amountReleased",
          "type": "uint256"
        },
        {
          "indexed": false,
          "internalType": "uint256",
          "name": "protocolPayment",
          "type": "uint256"
        }
      ],
      "name": "Released",
      "type": "event"
    },
    {
      "inputs": [
        {
          "internalType": "address[]",
          "name": "currencies",
          "type": "address[]"
        }
      ],
      "name": "_addCurrencies",
      "outputs": [],
      "stateMutability": "nonpayable",
      "type": "function"
    },
    {
      "inputs": [
        {
          "internalType": "address",
          "name": "buyer",
          "type": "address"
        },
        {
          "internalType": "address",
          "name": "contractAddress",
          "type": "address"
        },
        {
          "internalType": "uint256",
          "name": "quantity",
          "type": "uint256"
        },
        {
          "internalType": "uint256",
          "name": "tokenId",
          "type": "uint256"
        }
      ],
      "name": "_handle1155Purchase",
      "outputs": [],
      "stateMutability": "nonpayable",
      "type": "function"
    },
    {
      "inputs": [
        {
          "internalType": "address",
          "name": "buyer",
          "type": "address"
        },
        {
          "internalType": "address",
          "name": "contractAddress",
          "type": "address"
        },
        {
          "internalType": "uint256",
          "name": "tokenId",
          "type": "uint256"
        }
      ],
      "name": "_handle721Purchase",
      "outputs": [],
      "stateMutability": "nonpayable",
      "type": "function"
    },
    {
      "inputs": [
        {
          "internalType": "uint256",
          "name": "tokenId_",
          "type": "uint256"
        },
        {
          "internalType": "uint8",
          "name": "flags_",
          "type": "uint8"
        },
        {
          "internalType": "address",
          "name": "slicerCreator_",
          "type": "address"
        },
        {
          "internalType": "uint256",
          "name": "minimumShares_",
          "type": "uint256"
        },
        {
          "internalType": "uint256",
          "name": "releaseTimelock_",
          "type": "uint256"
        },
        {
          "internalType": "address[]",
          "name": "currencies_",
          "type": "address[]"
        }
      ],
      "name": "_initialize",
      "outputs": [],
      "stateMutability": "nonpayable",
      "type": "function"
    },
    {
      "inputs": [
        {
          "internalType": "address",
          "name": "account",
          "type": "address"
        },
        {
          "internalType": "address",
          "name": "currency",
          "type": "address"
        }
      ],
      "name": "_releaseFromFundsModule",
      "outputs": [
        {
          "internalType": "uint256",
          "name": "amount",
          "type": "uint256"
        },
        {
          "internalType": "uint256",
          "name": "protocolPayment",
          "type": "uint256"
        }
      ],
      "stateMutability": "nonpayable",
      "type": "function"
    },
    {
      "inputs": [
        {
          "internalType": "address",
          "name": "account",
          "type": "address"
        },
        {
          "internalType": "address",
          "name": "currency",
          "type": "address"
        },
        {
          "internalType": "uint256",
          "name": "accountSlices",
          "type": "uint256"
        }
      ],
      "name": "_releaseFromSliceCore",
      "outputs": [],
      "stateMutability": "nonpayable",
      "type": "function"
    },
    {
      "inputs": [
        {
          "internalType": "uint256",
          "name": "id",
          "type": "uint256"
        },
        {
          "internalType": "bool",
          "name": "isAdded",
          "type": "bool"
        }
      ],
      "name": "_setChildSlicer",
      "outputs": [],
      "stateMutability": "nonpayable",
      "type": "function"
    },
    {
      "inputs": [
        {
          "internalType": "bool",
          "name": "customFeeActive",
          "type": "bool"
        },
        {
          "internalType": "uint256",
          "name": "customFee",
          "type": "uint256"
        }
      ],
      "name": "_setCustomFee",
      "outputs": [],
      "stateMutability": "nonpayable",
      "type": "function"
    },
    {
      "inputs": [
        {
          "internalType": "uint256",
          "name": "totalShares",
          "type": "uint256"
        }
      ],
      "name": "_setTotalShares",
      "outputs": [],
      "stateMutability": "nonpayable",
      "type": "function"
    },
    {
      "inputs": [
        {
          "internalType": "address payable",
          "name": "sender",
          "type": "address"
        },
        {
          "internalType": "address",
          "name": "receiver",
          "type": "address"
        },
        {
          "internalType": "bool",
          "name": "toRelease",
          "type": "bool"
        },
        {
          "internalType": "uint256",
          "name": "senderShares",
          "type": "uint256"
        },
        {
          "internalType": "uint256",
          "name": "transferredShares",
          "type": "uint256"
        }
      ],
      "name": "_updatePayees",
      "outputs": [],
      "stateMutability": "nonpayable",
      "type": "function"
    },
    {
      "inputs": [
        {
          "internalType": "address payable[]",
          "name": "accounts",
          "type": "address[]"
        },
        {
          "internalType": "int32[]",
          "name": "tokensDiffs",
          "type": "int32[]"
        },
        {
          "internalType": "uint32",
          "name": "totalSupply",
          "type": "uint32"
        }
      ],
      "name": "_updatePayeesReslice",
      "outputs": [],
      "stateMutability": "nonpayable",
      "type": "function"
    },
    {
      "inputs": [
        {
          "internalType": "address",
          "name": "currency",
          "type": "address"
        }
      ],
      "name": "acceptsCurrency",
      "outputs": [
        {
          "internalType": "bool",
          "name": "",
          "type": "bool"
        }
      ],
      "stateMutability": "view",
      "type": "function"
    },
    {
      "inputs": [
        {
          "internalType": "address[]",
          "name": "accounts",
          "type": "address[]"
        },
        {
          "internalType": "address",
          "name": "currency",
          "type": "address"
        },
        {
          "internalType": "bool",
          "name": "withdraw",
          "type": "bool"
        }
      ],
      "name": "batchReleaseAccounts",
      "outputs": [],
      "stateMutability": "nonpayable",
      "type": "function"
    },
    {
      "inputs": [],
      "name": "getFee",
      "outputs": [
        {
          "internalType": "uint256",
          "name": "fee",
          "type": "uint256"
        }
      ],
      "stateMutability": "view",
      "type": "function"
    },
    {
      "inputs": [
        {
          "internalType": "address",
          "name": "payee",
          "type": "address"
        }
      ],
      "name": "isPayeeAllowed",
      "outputs": [
        {
          "internalType": "bool",
          "name": "",
          "type": "bool"
        }
      ],
      "stateMutability": "view",
      "type": "function"
    },
    {
      "inputs": [
        {
          "internalType": "address",
          "name": "",
          "type": "address"
        },
        {
          "internalType": "address",
          "name": "from",
          "type": "address"
        },
        {
          "internalType": "uint256[]",
          "name": "tokenIds",
          "type": "uint256[]"
        },
        {
          "internalType": "uint256[]",
          "name": "amounts",
          "type": "uint256[]"
        },
        {
          "internalType": "bytes",
          "name": "",
          "type": "bytes"
        }
      ],
      "name": "onERC1155BatchReceived",
      "outputs": [
        {
          "internalType": "bytes4",
          "name": "",
          "type": "bytes4"
        }
      ],
      "stateMutability": "nonpayable",
      "type": "function"
    },
    {
      "inputs": [
        {
          "internalType": "address",
          "name": "",
          "type": "address"
        },
        {
          "internalType": "address",
          "name": "from",
          "type": "address"
        },
        {
          "internalType": "uint256",
          "name": "tokenId",
          "type": "uint256"
        },
        {
          "internalType": "uint256",
          "name": "amount",
          "type": "uint256"
        },
        {
          "internalType": "bytes",
          "name": "",
          "type": "bytes"
        }
      ],
      "name": "onERC1155Received",
      "outputs": [
        {
          "internalType": "bytes4",
          "name": "",
          "type": "bytes4"
        }
      ],
      "stateMutability": "nonpayable",
      "type": "function"
    },
    {
      "inputs": [
        {
          "internalType": "address",
          "name": "",
          "type": "address"
        },
        {
          "internalType": "address",
          "name": "from",
          "type": "address"
        },
        {
          "internalType": "uint256",
          "name": "tokenId",
          "type": "uint256"
        },
        {
          "internalType": "bytes",
          "name": "",
          "type": "bytes"
        }
      ],
      "name": "onERC721Received",
      "outputs": [
        {
          "internalType": "bytes4",
          "name": "",
          "type": "bytes4"
        }
      ],
      "stateMutability": "nonpayable",
      "type": "function"
    },
    {
      "inputs": [
        {
          "internalType": "address",
          "name": "account",
          "type": "address"
        },
        {
          "internalType": "address",
          "name": "currency",
          "type": "address"
        },
        {
          "internalType": "bool",
          "name": "withdraw",
          "type": "bool"
        }
      ],
      "name": "release",
      "outputs": [],
      "stateMutability": "nonpayable",
      "type": "function"
    },
    {
      "inputs": [],
      "name": "slicerInfo",
      "outputs": [
        {
          "internalType": "uint256",
          "name": "tokenId",
          "type": "uint256"
        },
        {
          "internalType": "uint256",
          "name": "minimumShares",
          "type": "uint256"
        },
        {
          "internalType": "address",
          "name": "creator",
          "type": "address"
        },
        {
          "internalType": "bool",
          "name": "isImmutable",
          "type": "bool"
        },
        {
          "internalType": "bool",
          "name": "currenciesControlled",
          "type": "bool"
        },
        {
          "internalType": "bool",
          "name": "productsControlled",
          "type": "bool"
        },
        {
          "internalType": "bool",
          "name": "acceptsAllCurrencies",
          "type": "bool"
        },
        {
          "internalType": "address[]",
          "name": "currencies",
          "type": "address[]"
        }
      ],
      "stateMutability": "view",
      "type": "function"
    },
    {
      "inputs": [
        {
          "internalType": "bytes4",
          "name": "interfaceId",
          "type": "bytes4"
        }
      ],
      "name": "supportsInterface",
      "outputs": [
        {
          "internalType": "bool",
          "name": "",
          "type": "bool"
        }
      ],
      "stateMutability": "view",
      "type": "function"
    },
    {
      "inputs": [
        {
          "internalType": "address",
          "name": "account",
          "type": "address"
        },
        {
          "internalType": "address",
          "name": "currency",
          "type": "address"
        }
      ],
      "name": "unreleased",
      "outputs": [
        {
          "internalType": "uint256",
          "name": "unreleasedAmount",
          "type": "uint256"
        }
      ],
      "stateMutability": "view",
      "type": "function"
    },
    {
      "stateMutability": "payable",
      "type": "receive"
    }
  ],
  "bytecode": "0x608060405234801561001057600080fd5b50613423806100206000396000f3fe6080604052600436106101395760003560e01c8063bc197c81116100ab578063d9749edf1161006f578063d9749edf14610396578063e32cf851146103b6578063e6a1be00146103d6578063ecd3620a146103f6578063f23a6e6114610416578063fc2686191461043657600080fd5b8063bc197c81146102f3578063be9be3b614610313578063ce55982b14610333578063ced72f8714610353578063d3c657541461037657600080fd5b8063926b0125116100fd578063926b012514610215578063957e07b6146102355780639d24e1861461025e578063a46880171461027e578063b230074a146102b3578063b25e9c39146102d357600080fd5b806301ffc9a714610145578063150b7a021461017a57806319fc05b5146101b357806352cf13d6146101d557806359bac56c146101f557600080fd5b3661014057005b600080fd5b34801561015157600080fd5b50610165610160366004612960565b610456565b60405190151581526020015b60405180910390f35b34801561018657600080fd5b5061019a610195366004612a59565b61048d565b6040516001600160e01b03199091168152602001610171565b3480156101bf57600080fd5b506101d36101ce366004612ad3565b6104ed565b005b3480156101e157600080fd5b506101d36101f0366004612b1e565b610639565b34801561020157600080fd5b50610165610210366004612b64565b610877565b34801561022157600080fd5b506101d3610230366004612b81565b610b9e565b34801561024157600080fd5b5061024a610cf0565b604051610171989796959493929190612bf1565b34801561026a57600080fd5b506101d3610279366004612c52565b610d8f565b34801561028a57600080fd5b5061029e610299366004612c6b565b610dbd565b60408051928352602083019190915201610171565b3480156102bf57600080fd5b506101d36102ce366004612ca4565b611071565b3480156102df57600080fd5b506101656102ee366004612b64565b6110de565b3480156102ff57600080fd5b5061019a61030e366004612d8e565b611104565b34801561031f57600080fd5b506101d361032e366004612ea0565b6111e2565b34801561033f57600080fd5b506101d361034e366004612f24565b611345565b34801561035f57600080fd5b506103686113dd565b604051908152602001610171565b34801561038257600080fd5b506101d3610391366004612f24565b61141e565b3480156103a257600080fd5b506103686103b1366004612c6b565b6114c8565b3480156103c257600080fd5b506101d36103d1366004612fe9565b6115ea565b3480156103e257600080fd5b506101d36103f13660046130bb565b6117ba565b34801561040257600080fd5b506101d3610411366004613104565b611bc8565b34801561042257600080fd5b5061019a610431366004613129565b611cd9565b34801561044257600080fd5b506101d3610451366004613192565b611d78565b60006001600160e01b03198216630271189760e51b148061048757506301ffc9a760e01b6001600160e01b03198316145b92915050565b6000836001600160a01b0316336001600160a01b03167f941a9d9a9af7f97737c018d13918859e12f44e16c4b4c6ac922dacf021cfbf14856040516104d491815260200190565b60405180910390a350630a85bd0160e11b949350505050565b606b54600160c01b900464ffffffffff1642101561051e5760405163510040cb60e01b815260040160405180910390fd5b600061052a84846114c8565b905080156106335760008061053d6113dd565b905080156105525761054f8382611ed3565b91505b6001600160a01b0385166000908152606960205260408120805485929061057a9084906131e5565b9091555061058d90508686858588611ef3565b83156106305760006001600160a01b038616156105ab5760006105ad565b835b606b54604051630f1daf8f60e31b815291925073cf7ed3acca5a467e9e704c703e8d87f634fb0fc9916378ed7c789184916105fc916001600160801b0316908c908c908b908b906004016131fd565b6000604051808303818588803b15801561061557600080fd5b505af1158015610629573d6000803e3d6000fd5b5050505050505b50505b50505050565b33739fe46736679d2d9a65f0992f2272de9f3c7fa6e01461066d5760405163ea8e4eb560e01b815260040160405180910390fd5b73e7f1725e7734ce288f8367e1bb143e90bb3f0511196001600160a01b038416016107f457604051627eeac760e11b81523060048201526024810182905273e7f1725e7734ce288f8367e1bb143e90bb3f05129062fdd58e90604401602060405180830381865afa1580156106e6573d6000803e3d6000fd5b505050506040513d601f19601f8201168201806040525081019061070a9190613237565b82036107f457604051630bafd3f560e11b81526004810182905273e7f1725e7734ce288f8367e1bb143e90bb3f05129063175fa7ea90602401602060405180830381865afa158015610760573d6000803e3d6000fd5b505050506040513d601f19601f820116820180604052508101906107849190613250565b606b54604051637669b10560e11b81526001600160801b039091166004820152600060248201526001600160a01b03919091169063ecd3620a90604401600060405180830381600087803b1580156107db57600080fd5b505af11580156107ef573d6000803e3d6000fd5b505050505b604051637921219560e11b81523060048201526001600160a01b038581166024830152604482018390526064820184905260a06084830152600060a483015284169063f242432a9060c401600060405180830381600087803b15801561085957600080fd5b505af115801561086d573d6000803e3d6000fd5b5050505050505050565b606c54600090600160a01b900460ff81169060021c6001161561093057606b5460405163a468f1c760e01b81526001600160801b03909116600482015273e7f1725e7734ce288f8367e1bb143e90bb3f05129063a468f1c790602401602060405180830381865afa1580156108f0573d6000803e3d6000fd5b505050506040513d601f19601f820116820180604052508101906109149190613250565b6001600160a01b0316836001600160a01b031614915050919050565b606b54604051627eeac760e11b815263ffffffff600160a01b8304169173e7f1725e7734ce288f8367e1bb143e90bb3f05129162fdd58e916109809188916001600160801b03169060040161326d565b602060405180830381865afa15801561099d573d6000803e3d6000fd5b505050506040513d601f19601f820116820180604052508101906109c19190613237565b106109cf5750600192915050565b6109d9606761223b565b15610b955760005b6109eb606761223b565b811015610b9357600073e7f1725e7734ce288f8367e1bb143e90bb3f051263175fa7ea610a19606785612245565b6040518263ffffffff1660e01b8152600401610a3791815260200190565b602060405180830381865afa158015610a54573d6000803e3d6000fd5b505050506040513d601f19601f82011682018060405250810190610a789190613250565b606b54604051627eeac760e11b815291925063ffffffff600160a01b8204169173e7f1725e7734ce288f8367e1bb143e90bb3f05129162fdd58e91610acd9186916001600160801b039091169060040161326d565b602060405180830381865afa158015610aea573d6000803e3d6000fd5b505050506040513d601f19601f82011682018060405250810190610b0e9190613237565b10610b8a5760405163166eb15b60e21b81526001600160a01b0386811660048301528291908216906359bac56c90602401602060405180830381865afa158015610b5c573d6000803e3d6000fd5b505050506040513d601f19601f82011682018060405250810190610b80919061328f565b9695505050505050565b506001016109e1565b505b50600092915050565b73e7f1725e7734ce288f8367e1bb143e90bb3f05126001600160a01b0316638da5cb5b6040518163ffffffff1660e01b8152600401602060405180830381865afa158015610bf0573d6000803e3d6000fd5b505050506040513d601f19601f82011682018060405250810190610c149190613250565b6001600160a01b0316336001600160a01b031614610c455760405163ea8e4eb560e01b815260040160405180910390fd5b610c51601960046132ac565b60ff16811180610c6257506103e881115b15610c8057604051636dac6a0960e01b815260040160405180910390fd5b606b80546001600160e81b0316600160f81b84151590810261ffff60e81b191691909117600160e81b61ffff8516021790915560408051918252602082018390527fe2fdfbdee41a353c6bb67e41dccbcf559b5d0c120375397b10247dc13065ca45910160405180910390a15050565b606c54606b54600091829182916001600160a01b80830482811615159481841c8416151594600283901c8516151594600384901c1615159360609360ff16926001600160801b0381169263ffffffff9290910491909116906001600160a01b031688888888610d5f6065612251565b876001600160801b031697508663ffffffff16965098509850985098509850985098509850509091929394959697565b610d9761225e565b606b805463ffffffff909216600160801b0263ffffffff60801b19909216919091179055565b6000803373cf7ed3acca5a467e9e704c703e8d87f634fb0fc914610df45760405163ea8e4eb560e01b815260040160405180910390fd5b606b54600160c01b900464ffffffffff16421015610e255760405163510040cb60e01b815260040160405180910390fd5b610e2f84846114c8565b9150811561106a576000610e416113dd565b90508015610e5657610e538382611ed3565b91505b6001600160a01b03841660009081526069602052604081208054859290610e7e9084906131e5565b90915550506001600160a01b038085166000818152606a60209081526040808320948a16835293905291909120805485019055610f385760405160009073cf7ed3acca5a467e9e704c703e8d87f634fb0fc99085908381818185875af1925050503d8060008114610f0b576040519150601f19603f3d011682016040523d82523d6000602084013e610f10565b606091505b5050905080610f325760405163af6eefa360e01b815260040160405180910390fd5b50611012565b6001600160a01b0384167356639db16ac50a89228026e42a316b30179a537614801590610f6d5750610f6b606585612294565b155b15610f8b5760405163ea8e4eb560e01b815260040160405180910390fd5b60405163a9059cbb60e01b815273cf7ed3acca5a467e9e704c703e8d87f634fb0fc96004820152602481018490526001600160a01b0385169063a9059cbb906044016020604051808303816000875af1158015610fec573d6000803e3d6000fd5b505050506040513d601f19601f82011682018060405250810190611010919061328f565b505b836001600160a01b0316856001600160a01b03167f29e9bc035f01bfa0da19263257dbbaeb34bf6c9c780d975b99cb802aecfcf1a28585604051611060929190918252602082015260400190565b60405180910390a3505b9250929050565b61107961225e565b611088600086868486886122b6565b6110aa7356639db16ac50a89228026e42a316b30179a537686868486886122b6565b60005b6110b7606561223b565b811015610630576110d66110cc606583612245565b87878587896122b6565b6001016110ad565b606c54600090600160a01b900460031c6001161515806104875750610487606583612294565b600073e7f1725e7734ce288f8367e1bb143e90bb3f05111933016111835760005b84518110156111815761115b858281518110611143576111436132d5565b6020026020010151606761241190919063ffffffff16565b15611179576040516368ee781960e11b815260040160405180910390fd5b600101611125565b505b846001600160a01b0316336001600160a01b03167f1edfbe4132ea17d8154ccc1c03cdbf3f2406087a6989a7d7ebe742504adeb54686866040516111c892919061331b565b60405180910390a35063bc197c8160e01b95945050505050565b33735fc8d32690cc91d4c39d9d3abcbd16989f875707146112165760405163ea8e4eb560e01b815260040160405180910390fd5b606c546001600160a01b031615158061123557506001600160801b0386115b156112535760405163af6eefa360e01b815260040160405180910390fd5b606b805463ffffffff8516600160a01b0277ffffffff00000000ffffffffffffffffffffffffffffffff199091166001600160801b0389161717905581156112b657606b805464ffffffffff60c01b1916600160c01b64ffffffffff8516021790555b606c80546001600160a01b0319166001600160a01b03861617905560ff8516156112f357606c805460ff60a01b1916600160a01b60ff8816021790555b8051156106305760005b815181101561133c5761133382828151811061131b5761131b6132d5565b6020026020010151606561242990919063ffffffff16565b506001016112fd565b50505050505050565b33739fe46736679d2d9a65f0992f2272de9f3c7fa6e0146113795760405163ea8e4eb560e01b815260040160405180910390fd5b604051632142170760e11b81523060048201526001600160a01b038481166024830152604482018390528316906342842e0e90606401600060405180830381600087803b1580156113c957600080fd5b505af115801561133c573d6000803e3d6000fd5b606b54600090600160f81b900460ff161561141857606b54600160e81b900461ffff16156114155750606b54600160e81b900461ffff165b90565b50601990565b61142661225e565b606b54600160c01b900464ffffffffff164210156114575760405163510040cb60e01b815260040160405180910390fd5b600061146484848461243e565b90508015610633576000806114776113dd565b9050801561148c576114898382611ed3565b91505b6001600160a01b038516600090815260696020526040812080548592906114b49084906131e5565b909155506106309050868685856000611ef3565b6000806114d4836124ed565b905080156115e357606b54604051627eeac760e11b815260009163ffffffff600160801b8204169173e7f1725e7734ce288f8367e1bb143e90bb3f05129162fdd58e91611531918a916001600160801b039091169060040161326d565b602060405180830381865afa15801561154e573d6000803e3d6000fd5b505050506040513d601f19601f820116820180604052508101906115729190613237565b61157c9084613349565b6115869190613368565b6001600160a01b038086166000908152606a60209081526040808320938a16835292905220549091508111156115e1576001600160a01b038085166000908152606a6020908152604080832093891683529290522054810392505b505b5092915050565b6115f261225e565b60006115fe60006124ed565b9050600061161f7356639db16ac50a89228026e42a316b30179a53766124ed565b905060005b61162e606561223b565b811015611758576000611642606583612245565b9050600061164f826124ed565b905060005b885181101561173c57836000036116f6576116a460008a838151811061167c5761167c6132d5565b60200260200101518a8481518110611696576116966132d5565b6020026020010151896125aa565b6116f67356639db16ac50a89228026e42a316b30179a53768a83815181106116ce576116ce6132d5565b60200260200101518a84815181106116e8576116e86132d5565b6020026020010151886125aa565b611734838a838151811061170c5761170c6132d5565b60200260200101518a8481518110611726576117266132d5565b6020026020010151856125aa565b600101611654565b5061174e828763ffffffff16836126a0565b5050600101611624565b5061176b60008463ffffffff16846126a0565b6117907356639db16ac50a89228026e42a316b30179a53768463ffffffff16836126a0565b5050606b805463ffffffff909216600160801b0263ffffffff60801b199092169190911790555050565b606b54600160c01b900464ffffffffff164210156117eb5760405163510040cb60e01b815260040160405180910390fd5b60006117f56113dd565b6001600160a01b038416600081815260696020526040812054929350829115611891576040516370a0823160e01b815230600482015282906001600160a01b038816906370a0823190602401602060405180830381865afa15801561185e573d6000803e3d6000fd5b505050506040513d601f19601f820116820180604052508101906118829190613237565b61188c91906131e5565b61189b565b61189b82476131e5565b905060005b8751811015611b6b57606b548851600091600160801b900463ffffffff169073e7f1725e7734ce288f8367e1bb143e90bb3f05129062fdd58e908c90869081106118ec576118ec6132d5565b6020908102919091010151606b546040516001600160e01b031960e085901b16815261192592916001600160801b03169060040161326d565b602060405180830381865afa158015611942573d6000803e3d6000fd5b505050506040513d601f19601f820116820180604052508101906119669190613237565b6119709085613349565b61197a9190613368565b9050600080606a60008b6001600160a01b03166001600160a01b0316815260200190815260200160002060008c86815181106119b8576119b86132d5565b60200260200101516001600160a01b03166001600160a01b0316815260200190815260200160002054831115611a45576001600160a01b038a166000908152606a602052604081208c519091908d9087908110611a1757611a176132d5565b60200260200101516001600160a01b03166001600160a01b0316815260200190815260200160002054830391505b8115611a90578715611a5e57611a5b8289611ed3565b90505b611a6882876131e5565b9550611a908b8581518110611a7f57611a7f6132d5565b60200260200101518b84848d611ef3565b8815611b5d5760006001600160a01b038b1615611aae576000611ab0565b825b905073cf7ed3acca5a467e9e704c703e8d87f634fb0fc96001600160a01b03166378ed7c7882606b60009054906101000a90046001600160801b03168f8981518110611afe57611afe6132d5565b60200260200101518f88886040518763ffffffff1660e01b8152600401611b299594939291906131fd565b6000604051808303818588803b158015611b4257600080fd5b505af1158015611b56573d6000803e3d6000fd5b5050505050505b8360010193505050506118a0565b506001600160a01b0386166000908152606960205260409020548314611ba45760405163cdcbf42760e01b815260040160405180910390fd5b506001600160a01b0390941660009081526069602052604090209390935550505050565b8015611be757611bd661225e565b611be1606783612780565b50611c99565b604051630bafd3f560e11b81526004810183905273e7f1725e7734ce288f8367e1bb143e90bb3f05129063175fa7ea90602401602060405180830381865afa158015611c37573d6000803e3d6000fd5b505050506040513d601f19601f82011682018060405250810190611c5b9190613250565b6001600160a01b0316336001600160a01b031614611c8c5760405163ea8e4eb560e01b815260040160405180910390fd5b611c9760678361278c565b505b817f495f78c7b11cb5ca67202c06f9e12693d4882ef82c8248b59a740154ba8859f882604051611ccd911515815260200190565b60405180910390a25050565b600073e7f1725e7734ce288f8367e1bb143e90bb3f0511193301611d2057611d02606785612411565b15611d20576040516368ee781960e11b815260040160405180910390fd5b60408051858152602081018590526001600160a01b0387169133917ffae60880665b87af033fc873390c3749e126b4cd010b87a7f1191dbd2b32f197910160405180910390a35063f23a6e6160e01b95945050505050565b606c54600160a01b9004600190811c1615611e4357606b5460405163a468f1c760e01b81526001600160801b03909116600482015273e7f1725e7734ce288f8367e1bb143e90bb3f05129063a468f1c790602401602060405180830381865afa158015611de9573d6000803e3d6000fd5b505050506040513d601f19601f82011682018060405250810190611e0d9190613250565b6001600160a01b0316336001600160a01b031614611e3e5760405163ea8e4eb560e01b815260040160405180910390fd5b611e6e565b606c546001600160a01b03163314611e6e5760405163ea8e4eb560e01b815260040160405180910390fd5b60005b8151811015611e9857611e8f82828151811061131b5761131b6132d5565b50600101611e71565b507fa2f33c128ca00170a527ea94ce234c292389e4606240101eb1e7966442646f6a81604051611ec8919061338a565b60405180910390a150565b60006103e8611ee28385613349565b611eec9190613368565b9392505050565b6001600160a01b038085166000818152606a60209081526040808320948a16835293905291909120805485019055611fa65780611fa1576040516339ed512360e01b81526001600160a01b03861660048201526024810183905273cf7ed3acca5a467e9e704c703e8d87f634fb0fc9906339ed51239085906044016000604051808303818588803b158015611f8757600080fd5b505af1158015611f9b573d6000803e3d6000fd5b50505050505b6121de565b6001600160a01b0384167356639db16ac50a89228026e42a316b30179a537614801590611fdb5750611fd9606585612294565b155b156120d657606c54600160a01b900460031c600116156120bd57336001600160a01b0386161461201e5760405163ea8e4eb560e01b815260040160405180910390fd5b612029606585612429565b50604080516001808252818301909252600091602080830190803683370190505090508481600081518110612060576120606132d5565b60200260200101906001600160a01b031690816001600160a01b0316815250507fa2f33c128ca00170a527ea94ce234c292389e4606240101eb1e7966442646f6a816040516120af919061338a565b60405180910390a1506120d6565b60405163ea8e4eb560e01b815260040160405180910390fd5b60405163a9059cbb60e01b815273cf7ed3acca5a467e9e704c703e8d87f634fb0fc96004820152602481018490526001600160a01b0385169063a9059cbb906044016020604051808303816000875af1158015612137573d6000803e3d6000fd5b505050506040513d601f19601f8201168201806040525081019061215b919061328f565b50806121de57606b54604051632cfe238560e11b815273cf7ed3acca5a467e9e704c703e8d87f634fb0fc9916359fc470a916121ab916001600160801b03169089908990899089906004016131fd565b600060405180830381600087803b1580156121c557600080fd5b505af11580156121d9573d6000803e3d6000fd5b505050505b836001600160a01b0316856001600160a01b03167f29e9bc035f01bfa0da19263257dbbaeb34bf6c9c780d975b99cb802aecfcf1a2858560405161222c929190918252602082015260400190565b60405180910390a35050505050565b6000610487825490565b6000611eec8383612798565b60606000611eec836127c2565b3373e7f1725e7734ce288f8367e1bb143e90bb3f0512146122925760405163ea8e4eb560e01b815260040160405180910390fd5b565b6001600160a01b03811660009081526001830160205260408120541515611eec565b801561236357606b54600160c01b900464ffffffffff164210156122ed5760405163510040cb60e01b815260040160405180910390fd5b60006122fa86888561243e565b905080156123615760008061230d6113dd565b905080156123225761231f8382611ed3565b91505b6001600160a01b0389166000908152606960205260408120805485929061234a9084906131e5565b9091555061235e9050888a85856000611ef3565b50505b505b6001600160a01b038087166000908152606a602090815260408083209389168352929052205415610630576001600160a01b038087166000908152606a6020908152604080832093891683529290529081205483906123c3908690613349565b6123cd9190613368565b6001600160a01b039788166000908152606a60209081526040808320988b168352979052868120805483019055969097168652505050912080549290920390915550565b60008181526001830160205260408120541515611eec565b6000611eec836001600160a01b03841661281e565b60008115611eec576000612451846124ed565b905080156124e557606b54600090600160801b900463ffffffff166124768584613349565b6124809190613368565b6001600160a01b038087166000908152606a60209081526040808320938b16835292905220549091508111156124e3576001600160a01b038086166000908152606a60209081526040808320938a16835292905220546124e0908261339d565b92505b505b509392505050565b60006001600160a01b03821615612587576001600160a01b038216600081815260696020526040908190205490516370a0823160e01b81523060048201529091906370a0823190602401602060405180830381865afa158015612554573d6000803e3d6000fd5b505050506040513d601f19601f820116820180604052508101906125789190613237565b61258291906131e5565b610487565b6001600160a01b03821660009081526069602052604090205461048790476131e5565b80156106335760008260030b1361263157606b54600160801b900463ffffffff16816125d5846133b4565b63ffffffff166125e59190613349565b6125ef9190613368565b6001600160a01b038086166000908152606a602090815260408083209388168352929052908120805490919061262690849061339d565b925050819055612699565b606b5463ffffffff600160801b9091048116906126519083908516613349565b61265b9190613368565b6001600160a01b038086166000908152606a60209081526040808320938816835292905290812080549091906126929084906131e5565b9250508190555b5050505050565b801561277b57606b54600160801b900463ffffffff16821161271e57606b54600160801b900463ffffffff16816126d7848361339d565b6126e19190613349565b6126eb9190613368565b6001600160a01b0384166000908152606960205260408120805490919061271390849061339d565b925050819055610633565b606b54600160801b900463ffffffff1681612739828561339d565b6127439190613349565b61274d9190613368565b6001600160a01b038416600090815260696020526040812080549091906127759084906131e5565b90915550505b505050565b6000611eec838361281e565b6000611eec838361286d565b60008260000182815481106127af576127af6132d5565b9060005260206000200154905092915050565b60608160000180548060200260200160405190810160405280929190818152602001828054801561281257602002820191906000526020600020905b8154815260200190600101908083116127fe575b50505050509050919050565b600081815260018301602052604081205461286557508154600181810184556000848152602080822090930184905584548482528286019093526040902091909155610487565b506000610487565b6000818152600183016020526040812054801561295657600061289160018361339d565b85549091506000906128a59060019061339d565b905081811461290a5760008660000182815481106128c5576128c56132d5565b90600052602060002001549050808760000184815481106128e8576128e86132d5565b6000918252602080832090910192909255918252600188019052604090208390555b855486908061291b5761291b6133d7565b600190038181906000526020600020016000905590558560010160008681526020019081526020016000206000905560019350505050610487565b6000915050610487565b60006020828403121561297257600080fd5b81356001600160e01b031981168114611eec57600080fd5b6001600160a01b038116811461299f57600080fd5b50565b634e487b7160e01b600052604160045260246000fd5b604051601f8201601f1916810167ffffffffffffffff811182821017156129e1576129e16129a2565b604052919050565b600082601f8301126129fa57600080fd5b813567ffffffffffffffff811115612a1457612a146129a2565b612a27601f8201601f19166020016129b8565b818152846020838601011115612a3c57600080fd5b816020850160208301376000918101602001919091529392505050565b60008060008060808587031215612a6f57600080fd5b8435612a7a8161298a565b93506020850135612a8a8161298a565b925060408501359150606085013567ffffffffffffffff811115612aad57600080fd5b612ab9878288016129e9565b91505092959194509250565b801515811461299f57600080fd5b600080600060608486031215612ae857600080fd5b8335612af38161298a565b92506020840135612b038161298a565b91506040840135612b1381612ac5565b809150509250925092565b60008060008060808587031215612b3457600080fd5b8435612b3f8161298a565b93506020850135612b4f8161298a565b93969395505050506040820135916060013590565b600060208284031215612b7657600080fd5b8135611eec8161298a565b60008060408385031215612b9457600080fd5b8235612b9f81612ac5565b946020939093013593505050565b600081518084526020808501945080840160005b83811015612be65781516001600160a01b031687529582019590820190600101612bc1565b509495945050505050565b888152602081018890526001600160a01b03871660408201528515156060820152841515608082015283151560a082015282151560c082015261010060e08201819052600090612c4383820185612bad565b9b9a5050505050505050505050565b600060208284031215612c6457600080fd5b5035919050565b60008060408385031215612c7e57600080fd5b8235612c898161298a565b91506020830135612c998161298a565b809150509250929050565b600080600080600060a08688031215612cbc57600080fd5b8535612cc78161298a565b94506020860135612cd78161298a565b93506040860135612ce781612ac5565b94979396509394606081013594506080013592915050565b600067ffffffffffffffff821115612d1957612d196129a2565b5060051b60200190565b600082601f830112612d3457600080fd5b81356020612d49612d4483612cff565b6129b8565b82815260059290921b84018101918181019086841115612d6857600080fd5b8286015b84811015612d835780358352918301918301612d6c565b509695505050505050565b600080600080600060a08688031215612da657600080fd5b8535612db18161298a565b94506020860135612dc18161298a565b9350604086013567ffffffffffffffff80821115612dde57600080fd5b612dea89838a01612d23565b94506060880135915080821115612e0057600080fd5b612e0c89838a01612d23565b93506080880135915080821115612e2257600080fd5b50612e2f888289016129e9565b9150509295509295909350565b600082601f830112612e4d57600080fd5b81356020612e5d612d4483612cff565b82815260059290921b84018101918181019086841115612e7c57600080fd5b8286015b84811015612d83578035612e938161298a565b8352918301918301612e80565b60008060008060008060c08789031215612eb957600080fd5b86359550602087013560ff81168114612ed157600080fd5b94506040870135612ee18161298a565b9350606087013592506080870135915060a087013567ffffffffffffffff811115612f0b57600080fd5b612f1789828a01612e3c565b9150509295509295509295565b600080600060608486031215612f3957600080fd5b8335612f448161298a565b92506020840135612f548161298a565b929592945050506040919091013590565b600082601f830112612f7657600080fd5b81356020612f86612d4483612cff565b82815260059290921b84018101918181019086841115612fa557600080fd5b8286015b84811015612d835780358060030b8114612fc35760008081fd5b8352918301918301612fa9565b803563ffffffff81168114612fe457600080fd5b919050565b600080600060608486031215612ffe57600080fd5b833567ffffffffffffffff8082111561301657600080fd5b818601915086601f83011261302a57600080fd5b8135602061303a612d4483612cff565b82815260059290921b8401810191818101908a84111561305957600080fd5b948201945b838610156130805785356130718161298a565b8252948201949082019061305e565b9750508701359250508082111561309657600080fd5b506130a386828701612f65565b9250506130b260408501612fd0565b90509250925092565b6000806000606084860312156130d057600080fd5b833567ffffffffffffffff8111156130e757600080fd5b6130f386828701612e3c565b9350506020840135612b038161298a565b6000806040838503121561311757600080fd5b823591506020830135612c9981612ac5565b600080600080600060a0868803121561314157600080fd5b853561314c8161298a565b9450602086013561315c8161298a565b93506040860135925060608601359150608086013567ffffffffffffffff81111561318657600080fd5b612e2f888289016129e9565b6000602082840312156131a457600080fd5b813567ffffffffffffffff8111156131bb57600080fd5b6131c784828501612e3c565b949350505050565b634e487b7160e01b600052601160045260246000fd5b600082198211156131f8576131f86131cf565b500190565b6001600160801b039590951685526001600160a01b0393841660208601529190921660408401526060830191909152608082015260a00190565b60006020828403121561324957600080fd5b5051919050565b60006020828403121561326257600080fd5b8151611eec8161298a565b6001600160a01b039290921682526001600160801b0316602082015260400190565b6000602082840312156132a157600080fd5b8151611eec81612ac5565b600060ff821660ff84168160ff04811182151516156132cd576132cd6131cf565b029392505050565b634e487b7160e01b600052603260045260246000fd5b600081518084526020808501945080840160005b83811015612be6578151875295820195908201906001016132ff565b60408152600061332e60408301856132eb565b828103602084015261334081856132eb565b95945050505050565b6000816000190483118215151615613363576133636131cf565b500290565b60008261338557634e487b7160e01b600052601260045260246000fd5b500490565b602081526000611eec6020830184612bad565b6000828210156133af576133af6131cf565b500390565b60008160030b637fffffff1981036133ce576133ce6131cf565b60000392915050565b634e487b7160e01b600052603160045260246000fdfea26469706673582212206121d5effc434f8ace023e8e16def636f540059b967258bb7c0433d094f81eff64736f6c634300080d0033",
  "linkReferences": {},
  "deployedLinkReferences": {}
}