{
  "_format": "hh-sol-artifact-1",
  "contractName": "Slicer",
  "sourceName": "contracts/Slicer.sol",
  "abi": [
    {
      "inputs": [],
      "name": "Invalid",
      "type": "error"
    },
    {
      "inputs": [],
      "name": "NotAuthorized",
      "type": "error"
    },
    {
      "inputs": [],
      "name": "NotSuccessful",
      "type": "error"
    },
    {
      "inputs": [],
      "name": "PaymentLoop",
      "type": "error"
    },
    {
      "inputs": [],
      "name": "ReentrancyBlock",
      "type": "error"
    },
    {
      "inputs": [],
      "name": "releaseLocked",
      "type": "error"
    },
    {
      "anonymous": false,
      "inputs": [
        {
          "indexed": true,
          "internalType": "uint256",
          "name": "slicerId",
          "type": "uint256"
        },
        {
          "indexed": false,
          "internalType": "bool",
          "name": "addChildSlicerMode",
          "type": "bool"
        }
      ],
      "name": "ChildSlicerSet",
      "type": "event"
    },
    {
      "anonymous": false,
      "inputs": [
        {
          "indexed": false,
          "internalType": "address[]",
          "name": "currencies",
          "type": "address[]"
        }
      ],
      "name": "CurrenciesAdded",
      "type": "event"
    },
    {
      "anonymous": false,
      "inputs": [
        {
          "indexed": false,
          "internalType": "bool",
          "name": "customFeeActive",
          "type": "bool"
        },
        {
          "indexed": false,
          "internalType": "uint256",
          "name": "customFee",
          "type": "uint256"
        }
      ],
      "name": "CustomFeeSet",
      "type": "event"
    },
    {
      "anonymous": false,
      "inputs": [
        {
          "indexed": true,
          "internalType": "address",
          "name": "contractAddress",
          "type": "address"
        },
        {
          "indexed": true,
          "internalType": "address",
          "name": "from",
          "type": "address"
        },
        {
          "indexed": false,
          "internalType": "uint256[]",
          "name": "tokenIds",
          "type": "uint256[]"
        },
        {
          "indexed": false,
          "internalType": "uint256[]",
          "name": "amounts",
          "type": "uint256[]"
        }
      ],
      "name": "ERC1155BatchReceived",
      "type": "event"
    },
    {
      "anonymous": false,
      "inputs": [
        {
          "indexed": true,
          "internalType": "address",
          "name": "contractAddress",
          "type": "address"
        },
        {
          "indexed": true,
          "internalType": "address",
          "name": "from",
          "type": "address"
        },
        {
          "indexed": false,
          "internalType": "uint256",
          "name": "tokenId",
          "type": "uint256"
        },
        {
          "indexed": false,
          "internalType": "uint256",
          "name": "amount",
          "type": "uint256"
        }
      ],
      "name": "ERC1155Received",
      "type": "event"
    },
    {
      "anonymous": false,
      "inputs": [
        {
          "indexed": true,
          "internalType": "address",
          "name": "contractAddress",
          "type": "address"
        },
        {
          "indexed": true,
          "internalType": "address",
          "name": "from",
          "type": "address"
        },
        {
          "indexed": false,
          "internalType": "uint256",
          "name": "tokenId",
          "type": "uint256"
        }
      ],
      "name": "ERC721Received",
      "type": "event"
    },
    {
      "anonymous": false,
      "inputs": [
        {
          "indexed": true,
          "internalType": "address",
          "name": "payee",
          "type": "address"
        },
        {
          "indexed": true,
          "internalType": "address",
          "name": "currency",
          "type": "address"
        },
        {
          "indexed": false,
          "internalType": "uint256",
          "name": "amountReleased",
          "type": "uint256"
        },
        {
          "indexed": false,
          "internalType": "uint256",
          "name": "protocolPayment",
          "type": "uint256"
        }
      ],
      "name": "Released",
      "type": "event"
    },
    {
      "inputs": [
        {
          "internalType": "address[]",
          "name": "currencies",
          "type": "address[]"
        }
      ],
      "name": "_addCurrencies",
      "outputs": [],
      "stateMutability": "nonpayable",
      "type": "function"
    },
    {
      "inputs": [
        {
          "internalType": "address",
          "name": "buyer",
          "type": "address"
        },
        {
          "internalType": "address",
          "name": "contractAddress",
          "type": "address"
        },
        {
          "internalType": "uint256",
          "name": "quantity",
          "type": "uint256"
        },
        {
          "internalType": "uint256",
          "name": "tokenId",
          "type": "uint256"
        }
      ],
      "name": "_handle1155Purchase",
      "outputs": [],
      "stateMutability": "nonpayable",
      "type": "function"
    },
    {
      "inputs": [
        {
          "internalType": "address",
          "name": "buyer",
          "type": "address"
        },
        {
          "internalType": "address",
          "name": "contractAddress",
          "type": "address"
        },
        {
          "internalType": "uint256",
          "name": "tokenId",
          "type": "uint256"
        }
      ],
      "name": "_handle721Purchase",
      "outputs": [],
      "stateMutability": "nonpayable",
      "type": "function"
    },
    {
      "inputs": [
        {
          "internalType": "uint256",
          "name": "tokenId_",
          "type": "uint256"
        },
        {
          "internalType": "uint8",
          "name": "flags_",
          "type": "uint8"
        },
        {
          "internalType": "address",
          "name": "slicerCreator_",
          "type": "address"
        },
        {
          "internalType": "uint256",
          "name": "minimumShares_",
          "type": "uint256"
        },
        {
          "internalType": "uint256",
          "name": "releaseTimelock_",
          "type": "uint256"
        },
        {
          "internalType": "address[]",
          "name": "currencies_",
          "type": "address[]"
        }
      ],
      "name": "_initialize",
      "outputs": [],
      "stateMutability": "nonpayable",
      "type": "function"
    },
    {
      "inputs": [
        {
          "internalType": "address",
          "name": "account",
          "type": "address"
        },
        {
          "internalType": "address",
          "name": "currency",
          "type": "address"
        }
      ],
      "name": "_releaseFromFundsModule",
      "outputs": [
        {
          "internalType": "uint256",
          "name": "amount",
          "type": "uint256"
        },
        {
          "internalType": "uint256",
          "name": "protocolPayment",
          "type": "uint256"
        }
      ],
      "stateMutability": "nonpayable",
      "type": "function"
    },
    {
      "inputs": [
        {
          "internalType": "address",
          "name": "account",
          "type": "address"
        },
        {
          "internalType": "address",
          "name": "currency",
          "type": "address"
        },
        {
          "internalType": "uint256",
          "name": "accountSlices",
          "type": "uint256"
        }
      ],
      "name": "_releaseFromSliceCore",
      "outputs": [],
      "stateMutability": "nonpayable",
      "type": "function"
    },
    {
      "inputs": [
        {
          "internalType": "uint256",
          "name": "id",
          "type": "uint256"
        },
        {
          "internalType": "bool",
          "name": "isAdded",
          "type": "bool"
        }
      ],
      "name": "_setChildSlicer",
      "outputs": [],
      "stateMutability": "nonpayable",
      "type": "function"
    },
    {
      "inputs": [
        {
          "internalType": "bool",
          "name": "customFeeActive",
          "type": "bool"
        },
        {
          "internalType": "uint256",
          "name": "customFee",
          "type": "uint256"
        }
      ],
      "name": "_setCustomFee",
      "outputs": [],
      "stateMutability": "nonpayable",
      "type": "function"
    },
    {
      "inputs": [
        {
          "internalType": "uint256",
          "name": "totalShares",
          "type": "uint256"
        }
      ],
      "name": "_setTotalShares",
      "outputs": [],
      "stateMutability": "nonpayable",
      "type": "function"
    },
    {
      "inputs": [
        {
          "internalType": "address payable",
          "name": "sender",
          "type": "address"
        },
        {
          "internalType": "address",
          "name": "receiver",
          "type": "address"
        },
        {
          "internalType": "bool",
          "name": "toRelease",
          "type": "bool"
        },
        {
          "internalType": "uint256",
          "name": "senderShares",
          "type": "uint256"
        },
        {
          "internalType": "uint256",
          "name": "transferredShares",
          "type": "uint256"
        }
      ],
      "name": "_updatePayees",
      "outputs": [],
      "stateMutability": "nonpayable",
      "type": "function"
    },
    {
      "inputs": [
        {
          "internalType": "address payable[]",
          "name": "accounts",
          "type": "address[]"
        },
        {
          "internalType": "int32[]",
          "name": "tokensDiffs",
          "type": "int32[]"
        },
        {
          "internalType": "uint32",
          "name": "totalSupply",
          "type": "uint32"
        }
      ],
      "name": "_updatePayeesReslice",
      "outputs": [],
      "stateMutability": "nonpayable",
      "type": "function"
    },
    {
      "inputs": [
        {
          "internalType": "address",
          "name": "currency",
          "type": "address"
        }
      ],
      "name": "acceptsCurrency",
      "outputs": [
        {
          "internalType": "bool",
          "name": "",
          "type": "bool"
        }
      ],
      "stateMutability": "view",
      "type": "function"
    },
    {
      "inputs": [
        {
          "internalType": "address[]",
          "name": "accounts",
          "type": "address[]"
        },
        {
          "internalType": "address",
          "name": "currency",
          "type": "address"
        },
        {
          "internalType": "bool",
          "name": "withdraw",
          "type": "bool"
        }
      ],
      "name": "batchReleaseAccounts",
      "outputs": [],
      "stateMutability": "nonpayable",
      "type": "function"
    },
    {
      "inputs": [],
      "name": "getFee",
      "outputs": [
        {
          "internalType": "uint256",
          "name": "fee",
          "type": "uint256"
        }
      ],
      "stateMutability": "view",
      "type": "function"
    },
    {
      "inputs": [
        {
          "internalType": "address",
          "name": "payee",
          "type": "address"
        }
      ],
      "name": "isPayeeAllowed",
      "outputs": [
        {
          "internalType": "bool",
          "name": "",
          "type": "bool"
        }
      ],
      "stateMutability": "view",
      "type": "function"
    },
    {
      "inputs": [
        {
          "internalType": "address",
          "name": "",
          "type": "address"
        },
        {
          "internalType": "address",
          "name": "from",
          "type": "address"
        },
        {
          "internalType": "uint256[]",
          "name": "tokenIds",
          "type": "uint256[]"
        },
        {
          "internalType": "uint256[]",
          "name": "amounts",
          "type": "uint256[]"
        },
        {
          "internalType": "bytes",
          "name": "",
          "type": "bytes"
        }
      ],
      "name": "onERC1155BatchReceived",
      "outputs": [
        {
          "internalType": "bytes4",
          "name": "",
          "type": "bytes4"
        }
      ],
      "stateMutability": "nonpayable",
      "type": "function"
    },
    {
      "inputs": [
        {
          "internalType": "address",
          "name": "",
          "type": "address"
        },
        {
          "internalType": "address",
          "name": "from",
          "type": "address"
        },
        {
          "internalType": "uint256",
          "name": "tokenId",
          "type": "uint256"
        },
        {
          "internalType": "uint256",
          "name": "amount",
          "type": "uint256"
        },
        {
          "internalType": "bytes",
          "name": "",
          "type": "bytes"
        }
      ],
      "name": "onERC1155Received",
      "outputs": [
        {
          "internalType": "bytes4",
          "name": "",
          "type": "bytes4"
        }
      ],
      "stateMutability": "nonpayable",
      "type": "function"
    },
    {
      "inputs": [
        {
          "internalType": "address",
          "name": "",
          "type": "address"
        },
        {
          "internalType": "address",
          "name": "from",
          "type": "address"
        },
        {
          "internalType": "uint256",
          "name": "tokenId",
          "type": "uint256"
        },
        {
          "internalType": "bytes",
          "name": "",
          "type": "bytes"
        }
      ],
      "name": "onERC721Received",
      "outputs": [
        {
          "internalType": "bytes4",
          "name": "",
          "type": "bytes4"
        }
      ],
      "stateMutability": "nonpayable",
      "type": "function"
    },
    {
      "inputs": [
        {
          "internalType": "address",
          "name": "account",
          "type": "address"
        },
        {
          "internalType": "address",
          "name": "currency",
          "type": "address"
        },
        {
          "internalType": "bool",
          "name": "withdraw",
          "type": "bool"
        }
      ],
      "name": "release",
      "outputs": [],
      "stateMutability": "nonpayable",
      "type": "function"
    },
    {
      "inputs": [],
      "name": "slicerInfo",
      "outputs": [
        {
          "internalType": "uint256",
          "name": "tokenId",
          "type": "uint256"
        },
        {
          "internalType": "uint256",
          "name": "minimumShares",
          "type": "uint256"
        },
        {
          "internalType": "address",
          "name": "creator",
          "type": "address"
        },
        {
          "internalType": "bool",
          "name": "isImmutable",
          "type": "bool"
        },
        {
          "internalType": "bool",
          "name": "currenciesControlled",
          "type": "bool"
        },
        {
          "internalType": "bool",
          "name": "productsControlled",
          "type": "bool"
        },
        {
          "internalType": "bool",
          "name": "acceptsAllCurrencies",
          "type": "bool"
        },
        {
          "internalType": "address[]",
          "name": "currencies",
          "type": "address[]"
        }
      ],
      "stateMutability": "view",
      "type": "function"
    },
    {
      "inputs": [
        {
          "internalType": "bytes4",
          "name": "interfaceId",
          "type": "bytes4"
        }
      ],
      "name": "supportsInterface",
      "outputs": [
        {
          "internalType": "bool",
          "name": "",
          "type": "bool"
        }
      ],
      "stateMutability": "view",
      "type": "function"
    },
    {
      "inputs": [
        {
          "internalType": "address",
          "name": "account",
          "type": "address"
        },
        {
          "internalType": "address",
          "name": "currency",
          "type": "address"
        }
      ],
      "name": "unreleased",
      "outputs": [
        {
          "internalType": "uint256",
          "name": "unreleasedAmount",
          "type": "uint256"
        }
      ],
      "stateMutability": "view",
      "type": "function"
    },
    {
      "stateMutability": "payable",
      "type": "receive"
    }
  ],
  "bytecode": "0x608060405234801561001057600080fd5b5061340a806100206000396000f3fe6080604052600436106101395760003560e01c8063bc197c81116100ab578063d9749edf1161006f578063d9749edf14610396578063e32cf851146103b6578063e6a1be00146103d6578063ecd3620a146103f6578063f23a6e6114610416578063fc2686191461043657600080fd5b8063bc197c81146102f3578063be9be3b614610313578063ce55982b14610333578063ced72f8714610353578063d3c657541461037657600080fd5b8063926b0125116100fd578063926b012514610215578063957e07b6146102355780639d24e1861461025e578063a46880171461027e578063b230074a146102b3578063b25e9c39146102d357600080fd5b806301ffc9a714610145578063150b7a021461017a57806319fc05b5146101b357806352cf13d6146101d557806359bac56c146101f557600080fd5b3661014057005b600080fd5b34801561015157600080fd5b50610165610160366004612947565b610456565b60405190151581526020015b60405180910390f35b34801561018657600080fd5b5061019a610195366004612a40565b61048d565b6040516001600160e01b03199091168152602001610171565b3480156101bf57600080fd5b506101d36101ce366004612aba565b6104ed565b005b3480156101e157600080fd5b506101d36101f0366004612b05565b610639565b34801561020157600080fd5b50610165610210366004612b4b565b610877565b34801561022157600080fd5b506101d3610230366004612b68565b610b9e565b34801561024157600080fd5b5061024a610cf0565b604051610171989796959493929190612bd8565b34801561026a57600080fd5b506101d3610279366004612c39565b610d8f565b34801561028a57600080fd5b5061029e610299366004612c52565b610dbd565b60408051928352602083019190915201610171565b3480156102bf57600080fd5b506101d36102ce366004612c8b565b611071565b3480156102df57600080fd5b506101656102ee366004612b4b565b6110de565b3480156102ff57600080fd5b5061019a61030e366004612d75565b6110eb565b34801561031f57600080fd5b506101d361032e366004612e87565b6111c9565b34801561033f57600080fd5b506101d361034e366004612f0b565b61132c565b34801561035f57600080fd5b506103686113c4565b604051908152602001610171565b34801561038257600080fd5b506101d3610391366004612f0b565b611405565b3480156103a257600080fd5b506103686103b1366004612c52565b6114af565b3480156103c257600080fd5b506101d36103d1366004612fd0565b6115d1565b3480156103e257600080fd5b506101d36103f13660046130a2565b6117a1565b34801561040257600080fd5b506101d36104113660046130eb565b611baf565b34801561042257600080fd5b5061019a610431366004613110565b611cc0565b34801561044257600080fd5b506101d3610451366004613179565b611d5f565b60006001600160e01b03198216630271189760e51b148061048757506301ffc9a760e01b6001600160e01b03198316145b92915050565b6000836001600160a01b0316336001600160a01b03167f941a9d9a9af7f97737c018d13918859e12f44e16c4b4c6ac922dacf021cfbf14856040516104d491815260200190565b60405180910390a350630a85bd0160e11b949350505050565b606b54600160c01b900464ffffffffff1642101561051e5760405163510040cb60e01b815260040160405180910390fd5b600061052a84846114af565b905080156106335760008061053d6113c4565b905080156105525761054f8382611eba565b91505b6001600160a01b0385166000908152606960205260408120805485929061057a9084906131cc565b9091555061058d90508686858588611eda565b83156106305760006001600160a01b038616156105ab5760006105ad565b835b606b54604051630f1daf8f60e31b815291925073cf7ed3acca5a467e9e704c703e8d87f634fb0fc9916378ed7c789184916105fc916001600160801b0316908c908c908b908b906004016131e4565b6000604051808303818588803b15801561061557600080fd5b505af1158015610629573d6000803e3d6000fd5b5050505050505b50505b50505050565b33739fe46736679d2d9a65f0992f2272de9f3c7fa6e01461066d5760405163ea8e4eb560e01b815260040160405180910390fd5b73e7f1725e7734ce288f8367e1bb143e90bb3f0511196001600160a01b038416016107f457604051627eeac760e11b81523060048201526024810182905273e7f1725e7734ce288f8367e1bb143e90bb3f05129062fdd58e90604401602060405180830381865afa1580156106e6573d6000803e3d6000fd5b505050506040513d601f19601f8201168201806040525081019061070a919061321e565b82036107f457604051630bafd3f560e11b81526004810182905273e7f1725e7734ce288f8367e1bb143e90bb3f05129063175fa7ea90602401602060405180830381865afa158015610760573d6000803e3d6000fd5b505050506040513d601f19601f820116820180604052508101906107849190613237565b606b54604051637669b10560e11b81526001600160801b039091166004820152600060248201526001600160a01b03919091169063ecd3620a90604401600060405180830381600087803b1580156107db57600080fd5b505af11580156107ef573d6000803e3d6000fd5b505050505b604051637921219560e11b81523060048201526001600160a01b038581166024830152604482018390526064820184905260a06084830152600060a483015284169063f242432a9060c401600060405180830381600087803b15801561085957600080fd5b505af115801561086d573d6000803e3d6000fd5b5050505050505050565b606c54600090600160a01b900460ff81169060021c6001161561093057606b5460405163a468f1c760e01b81526001600160801b03909116600482015273e7f1725e7734ce288f8367e1bb143e90bb3f05129063a468f1c790602401602060405180830381865afa1580156108f0573d6000803e3d6000fd5b505050506040513d601f19601f820116820180604052508101906109149190613237565b6001600160a01b0316836001600160a01b031614915050919050565b606b54604051627eeac760e11b815263ffffffff600160a01b8304169173e7f1725e7734ce288f8367e1bb143e90bb3f05129162fdd58e916109809188916001600160801b031690600401613254565b602060405180830381865afa15801561099d573d6000803e3d6000fd5b505050506040513d601f19601f820116820180604052508101906109c1919061321e565b106109cf5750600192915050565b6109d96067612222565b15610b955760005b6109eb6067612222565b811015610b9357600073e7f1725e7734ce288f8367e1bb143e90bb3f051263175fa7ea610a1960678561222c565b6040518263ffffffff1660e01b8152600401610a3791815260200190565b602060405180830381865afa158015610a54573d6000803e3d6000fd5b505050506040513d601f19601f82011682018060405250810190610a789190613237565b606b54604051627eeac760e11b815291925063ffffffff600160a01b8204169173e7f1725e7734ce288f8367e1bb143e90bb3f05129162fdd58e91610acd9186916001600160801b0390911690600401613254565b602060405180830381865afa158015610aea573d6000803e3d6000fd5b505050506040513d601f19601f82011682018060405250810190610b0e919061321e565b10610b8a5760405163166eb15b60e21b81526001600160a01b0386811660048301528291908216906359bac56c90602401602060405180830381865afa158015610b5c573d6000803e3d6000fd5b505050506040513d601f19601f82011682018060405250810190610b809190613276565b9695505050505050565b506001016109e1565b505b50600092915050565b73e7f1725e7734ce288f8367e1bb143e90bb3f05126001600160a01b0316638da5cb5b6040518163ffffffff1660e01b8152600401602060405180830381865afa158015610bf0573d6000803e3d6000fd5b505050506040513d601f19601f82011682018060405250810190610c149190613237565b6001600160a01b0316336001600160a01b031614610c455760405163ea8e4eb560e01b815260040160405180910390fd5b610c5160196004613293565b60ff16811180610c6257506103e881115b15610c8057604051636dac6a0960e01b815260040160405180910390fd5b606b80546001600160e81b0316600160f81b84151590810261ffff60e81b191691909117600160e81b61ffff8516021790915560408051918252602082018390527fe2fdfbdee41a353c6bb67e41dccbcf559b5d0c120375397b10247dc13065ca45910160405180910390a15050565b606c54606b54600091829182916001600160a01b80830482811615159481841c8416151594600283901c8516151594600384901c1615159360609360ff16926001600160801b0381169263ffffffff9290910491909116906001600160a01b031688888888610d5f6065612238565b876001600160801b031697508663ffffffff16965098509850985098509850985098509850509091929394959697565b610d97612245565b606b805463ffffffff909216600160801b0263ffffffff60801b19909216919091179055565b6000803373cf7ed3acca5a467e9e704c703e8d87f634fb0fc914610df45760405163ea8e4eb560e01b815260040160405180910390fd5b606b54600160c01b900464ffffffffff16421015610e255760405163510040cb60e01b815260040160405180910390fd5b610e2f84846114af565b9150811561106a576000610e416113c4565b90508015610e5657610e538382611eba565b91505b6001600160a01b03841660009081526069602052604081208054859290610e7e9084906131cc565b90915550506001600160a01b038085166000818152606a60209081526040808320948a16835293905291909120805485019055610f385760405160009073cf7ed3acca5a467e9e704c703e8d87f634fb0fc99085908381818185875af1925050503d8060008114610f0b576040519150601f19603f3d011682016040523d82523d6000602084013e610f10565b606091505b5050905080610f325760405163af6eefa360e01b815260040160405180910390fd5b50611012565b6001600160a01b0384167356639db16ac50a89228026e42a316b30179a537614801590610f6d5750610f6b60658561227b565b155b15610f8b5760405163ea8e4eb560e01b815260040160405180910390fd5b60405163a9059cbb60e01b815273cf7ed3acca5a467e9e704c703e8d87f634fb0fc96004820152602481018490526001600160a01b0385169063a9059cbb906044016020604051808303816000875af1158015610fec573d6000803e3d6000fd5b505050506040513d601f19601f820116820180604052508101906110109190613276565b505b836001600160a01b0316856001600160a01b03167f29e9bc035f01bfa0da19263257dbbaeb34bf6c9c780d975b99cb802aecfcf1a28585604051611060929190918252602082015260400190565b60405180910390a3505b9250929050565b611079612245565b6110886000868684868861229d565b6110aa7356639db16ac50a89228026e42a316b30179a5376868684868861229d565b60005b6110b76065612222565b811015610630576110d66110cc60658361222c565b878785878961229d565b6001016110ad565b600061048760658361227b565b600073e7f1725e7734ce288f8367e1bb143e90bb3f051119330161116a5760005b84518110156111685761114285828151811061112a5761112a6132bc565b602002602001015160676123f890919063ffffffff16565b15611160576040516368ee781960e11b815260040160405180910390fd5b60010161110c565b505b846001600160a01b0316336001600160a01b03167f1edfbe4132ea17d8154ccc1c03cdbf3f2406087a6989a7d7ebe742504adeb54686866040516111af929190613302565b60405180910390a35063bc197c8160e01b95945050505050565b33735fc8d32690cc91d4c39d9d3abcbd16989f875707146111fd5760405163ea8e4eb560e01b815260040160405180910390fd5b606c546001600160a01b031615158061121c57506001600160801b0386115b1561123a5760405163af6eefa360e01b815260040160405180910390fd5b606b805463ffffffff8516600160a01b0277ffffffff00000000ffffffffffffffffffffffffffffffff199091166001600160801b03891617179055811561129d57606b805464ffffffffff60c01b1916600160c01b64ffffffffff8516021790555b606c80546001600160a01b0319166001600160a01b03861617905560ff8516156112da57606c805460ff60a01b1916600160a01b60ff8816021790555b8051156106305760005b81518110156113235761131a828281518110611302576113026132bc565b6020026020010151606561241090919063ffffffff16565b506001016112e4565b50505050505050565b33739fe46736679d2d9a65f0992f2272de9f3c7fa6e0146113605760405163ea8e4eb560e01b815260040160405180910390fd5b604051632142170760e11b81523060048201526001600160a01b038481166024830152604482018390528316906342842e0e90606401600060405180830381600087803b1580156113b057600080fd5b505af1158015611323573d6000803e3d6000fd5b606b54600090600160f81b900460ff16156113ff57606b54600160e81b900461ffff16156113fc5750606b54600160e81b900461ffff165b90565b50601990565b61140d612245565b606b54600160c01b900464ffffffffff1642101561143e5760405163510040cb60e01b815260040160405180910390fd5b600061144b848484612425565b905080156106335760008061145e6113c4565b90508015611473576114708382611eba565b91505b6001600160a01b0385166000908152606960205260408120805485929061149b9084906131cc565b909155506106309050868685856000611eda565b6000806114bb836124d4565b905080156115ca57606b54604051627eeac760e11b815260009163ffffffff600160801b8204169173e7f1725e7734ce288f8367e1bb143e90bb3f05129162fdd58e91611518918a916001600160801b0390911690600401613254565b602060405180830381865afa158015611535573d6000803e3d6000fd5b505050506040513d601f19601f82011682018060405250810190611559919061321e565b6115639084613330565b61156d919061334f565b6001600160a01b038086166000908152606a60209081526040808320938a16835292905220549091508111156115c8576001600160a01b038085166000908152606a6020908152604080832093891683529290522054810392505b505b5092915050565b6115d9612245565b60006115e560006124d4565b905060006116067356639db16ac50a89228026e42a316b30179a53766124d4565b905060005b6116156065612222565b81101561173f57600061162960658361222c565b90506000611636826124d4565b905060005b885181101561172357836000036116dd5761168b60008a8381518110611663576116636132bc565b60200260200101518a848151811061167d5761167d6132bc565b602002602001015189612591565b6116dd7356639db16ac50a89228026e42a316b30179a53768a83815181106116b5576116b56132bc565b60200260200101518a84815181106116cf576116cf6132bc565b602002602001015188612591565b61171b838a83815181106116f3576116f36132bc565b60200260200101518a848151811061170d5761170d6132bc565b602002602001015185612591565b60010161163b565b50611735828763ffffffff1683612687565b505060010161160b565b5061175260008463ffffffff1684612687565b6117777356639db16ac50a89228026e42a316b30179a53768463ffffffff1683612687565b5050606b805463ffffffff909216600160801b0263ffffffff60801b199092169190911790555050565b606b54600160c01b900464ffffffffff164210156117d25760405163510040cb60e01b815260040160405180910390fd5b60006117dc6113c4565b6001600160a01b038416600081815260696020526040812054929350829115611878576040516370a0823160e01b815230600482015282906001600160a01b038816906370a0823190602401602060405180830381865afa158015611845573d6000803e3d6000fd5b505050506040513d601f19601f82011682018060405250810190611869919061321e565b61187391906131cc565b611882565b61188282476131cc565b905060005b8751811015611b5257606b548851600091600160801b900463ffffffff169073e7f1725e7734ce288f8367e1bb143e90bb3f05129062fdd58e908c90869081106118d3576118d36132bc565b6020908102919091010151606b546040516001600160e01b031960e085901b16815261190c92916001600160801b031690600401613254565b602060405180830381865afa158015611929573d6000803e3d6000fd5b505050506040513d601f19601f8201168201806040525081019061194d919061321e565b6119579085613330565b611961919061334f565b9050600080606a60008b6001600160a01b03166001600160a01b0316815260200190815260200160002060008c868151811061199f5761199f6132bc565b60200260200101516001600160a01b03166001600160a01b0316815260200190815260200160002054831115611a2c576001600160a01b038a166000908152606a602052604081208c519091908d90879081106119fe576119fe6132bc565b60200260200101516001600160a01b03166001600160a01b0316815260200190815260200160002054830391505b8115611a77578715611a4557611a428289611eba565b90505b611a4f82876131cc565b9550611a778b8581518110611a6657611a666132bc565b60200260200101518b84848d611eda565b8815611b445760006001600160a01b038b1615611a95576000611a97565b825b905073cf7ed3acca5a467e9e704c703e8d87f634fb0fc96001600160a01b03166378ed7c7882606b60009054906101000a90046001600160801b03168f8981518110611ae557611ae56132bc565b60200260200101518f88886040518763ffffffff1660e01b8152600401611b109594939291906131e4565b6000604051808303818588803b158015611b2957600080fd5b505af1158015611b3d573d6000803e3d6000fd5b5050505050505b836001019350505050611887565b506001600160a01b0386166000908152606960205260409020548314611b8b5760405163cdcbf42760e01b815260040160405180910390fd5b506001600160a01b0390941660009081526069602052604090209390935550505050565b8015611bce57611bbd612245565b611bc8606783612767565b50611c80565b604051630bafd3f560e11b81526004810183905273e7f1725e7734ce288f8367e1bb143e90bb3f05129063175fa7ea90602401602060405180830381865afa158015611c1e573d6000803e3d6000fd5b505050506040513d601f19601f82011682018060405250810190611c429190613237565b6001600160a01b0316336001600160a01b031614611c735760405163ea8e4eb560e01b815260040160405180910390fd5b611c7e606783612773565b505b817f495f78c7b11cb5ca67202c06f9e12693d4882ef82c8248b59a740154ba8859f882604051611cb4911515815260200190565b60405180910390a25050565b600073e7f1725e7734ce288f8367e1bb143e90bb3f0511193301611d0757611ce96067856123f8565b15611d07576040516368ee781960e11b815260040160405180910390fd5b60408051858152602081018590526001600160a01b0387169133917ffae60880665b87af033fc873390c3749e126b4cd010b87a7f1191dbd2b32f197910160405180910390a35063f23a6e6160e01b95945050505050565b606c54600160a01b9004600190811c1615611e2a57606b5460405163a468f1c760e01b81526001600160801b03909116600482015273e7f1725e7734ce288f8367e1bb143e90bb3f05129063a468f1c790602401602060405180830381865afa158015611dd0573d6000803e3d6000fd5b505050506040513d601f19601f82011682018060405250810190611df49190613237565b6001600160a01b0316336001600160a01b031614611e255760405163ea8e4eb560e01b815260040160405180910390fd5b611e55565b606c546001600160a01b03163314611e555760405163ea8e4eb560e01b815260040160405180910390fd5b60005b8151811015611e7f57611e76828281518110611302576113026132bc565b50600101611e58565b507fa2f33c128ca00170a527ea94ce234c292389e4606240101eb1e7966442646f6a81604051611eaf9190613371565b60405180910390a150565b60006103e8611ec98385613330565b611ed3919061334f565b9392505050565b6001600160a01b038085166000818152606a60209081526040808320948a16835293905291909120805485019055611f8d5780611f88576040516339ed512360e01b81526001600160a01b03861660048201526024810183905273cf7ed3acca5a467e9e704c703e8d87f634fb0fc9906339ed51239085906044016000604051808303818588803b158015611f6e57600080fd5b505af1158015611f82573d6000803e3d6000fd5b50505050505b6121c5565b6001600160a01b0384167356639db16ac50a89228026e42a316b30179a537614801590611fc25750611fc060658561227b565b155b156120bd57606c54600160a01b900460031c600116156120a457336001600160a01b038616146120055760405163ea8e4eb560e01b815260040160405180910390fd5b612010606585612410565b50604080516001808252818301909252600091602080830190803683370190505090508481600081518110612047576120476132bc565b60200260200101906001600160a01b031690816001600160a01b0316815250507fa2f33c128ca00170a527ea94ce234c292389e4606240101eb1e7966442646f6a816040516120969190613371565b60405180910390a1506120bd565b60405163ea8e4eb560e01b815260040160405180910390fd5b60405163a9059cbb60e01b815273cf7ed3acca5a467e9e704c703e8d87f634fb0fc96004820152602481018490526001600160a01b0385169063a9059cbb906044016020604051808303816000875af115801561211e573d6000803e3d6000fd5b505050506040513d601f19601f820116820180604052508101906121429190613276565b50806121c557606b54604051632cfe238560e11b815273cf7ed3acca5a467e9e704c703e8d87f634fb0fc9916359fc470a91612192916001600160801b03169089908990899089906004016131e4565b600060405180830381600087803b1580156121ac57600080fd5b505af11580156121c0573d6000803e3d6000fd5b505050505b836001600160a01b0316856001600160a01b03167f29e9bc035f01bfa0da19263257dbbaeb34bf6c9c780d975b99cb802aecfcf1a28585604051612213929190918252602082015260400190565b60405180910390a35050505050565b6000610487825490565b6000611ed3838361277f565b60606000611ed3836127a9565b3373e7f1725e7734ce288f8367e1bb143e90bb3f0512146122795760405163ea8e4eb560e01b815260040160405180910390fd5b565b6001600160a01b03811660009081526001830160205260408120541515611ed3565b801561234a57606b54600160c01b900464ffffffffff164210156122d45760405163510040cb60e01b815260040160405180910390fd5b60006122e1868885612425565b90508015612348576000806122f46113c4565b90508015612309576123068382611eba565b91505b6001600160a01b038916600090815260696020526040812080548592906123319084906131cc565b909155506123459050888a85856000611eda565b50505b505b6001600160a01b038087166000908152606a602090815260408083209389168352929052205415610630576001600160a01b038087166000908152606a6020908152604080832093891683529290529081205483906123aa908690613330565b6123b4919061334f565b6001600160a01b039788166000908152606a60209081526040808320988b168352979052868120805483019055969097168652505050912080549290920390915550565b60008181526001830160205260408120541515611ed3565b6000611ed3836001600160a01b038416612805565b60008115611ed3576000612438846124d4565b905080156124cc57606b54600090600160801b900463ffffffff1661245d8584613330565b612467919061334f565b6001600160a01b038087166000908152606a60209081526040808320938b16835292905220549091508111156124ca576001600160a01b038086166000908152606a60209081526040808320938a16835292905220546124c79082613384565b92505b505b509392505050565b60006001600160a01b0382161561256e576001600160a01b038216600081815260696020526040908190205490516370a0823160e01b81523060048201529091906370a0823190602401602060405180830381865afa15801561253b573d6000803e3d6000fd5b505050506040513d601f19601f8201168201806040525081019061255f919061321e565b61256991906131cc565b610487565b6001600160a01b03821660009081526069602052604090205461048790476131cc565b80156106335760008260030b1361261857606b54600160801b900463ffffffff16816125bc8461339b565b63ffffffff166125cc9190613330565b6125d6919061334f565b6001600160a01b038086166000908152606a602090815260408083209388168352929052908120805490919061260d908490613384565b925050819055612680565b606b5463ffffffff600160801b9091048116906126389083908516613330565b612642919061334f565b6001600160a01b038086166000908152606a60209081526040808320938816835292905290812080549091906126799084906131cc565b9250508190555b5050505050565b801561276257606b54600160801b900463ffffffff16821161270557606b54600160801b900463ffffffff16816126be8483613384565b6126c89190613330565b6126d2919061334f565b6001600160a01b038416600090815260696020526040812080549091906126fa908490613384565b925050819055610633565b606b54600160801b900463ffffffff16816127208285613384565b61272a9190613330565b612734919061334f565b6001600160a01b0384166000908152606960205260408120805490919061275c9084906131cc565b90915550505b505050565b6000611ed38383612805565b6000611ed38383612854565b6000826000018281548110612796576127966132bc565b9060005260206000200154905092915050565b6060816000018054806020026020016040519081016040528092919081815260200182805480156127f957602002820191906000526020600020905b8154815260200190600101908083116127e5575b50505050509050919050565b600081815260018301602052604081205461284c57508154600181810184556000848152602080822090930184905584548482528286019093526040902091909155610487565b506000610487565b6000818152600183016020526040812054801561293d576000612878600183613384565b855490915060009061288c90600190613384565b90508181146128f15760008660000182815481106128ac576128ac6132bc565b90600052602060002001549050808760000184815481106128cf576128cf6132bc565b6000918252602080832090910192909255918252600188019052604090208390555b8554869080612902576129026133be565b600190038181906000526020600020016000905590558560010160008681526020019081526020016000206000905560019350505050610487565b6000915050610487565b60006020828403121561295957600080fd5b81356001600160e01b031981168114611ed357600080fd5b6001600160a01b038116811461298657600080fd5b50565b634e487b7160e01b600052604160045260246000fd5b604051601f8201601f1916810167ffffffffffffffff811182821017156129c8576129c8612989565b604052919050565b600082601f8301126129e157600080fd5b813567ffffffffffffffff8111156129fb576129fb612989565b612a0e601f8201601f191660200161299f565b818152846020838601011115612a2357600080fd5b816020850160208301376000918101602001919091529392505050565b60008060008060808587031215612a5657600080fd5b8435612a6181612971565b93506020850135612a7181612971565b925060408501359150606085013567ffffffffffffffff811115612a9457600080fd5b612aa0878288016129d0565b91505092959194509250565b801515811461298657600080fd5b600080600060608486031215612acf57600080fd5b8335612ada81612971565b92506020840135612aea81612971565b91506040840135612afa81612aac565b809150509250925092565b60008060008060808587031215612b1b57600080fd5b8435612b2681612971565b93506020850135612b3681612971565b93969395505050506040820135916060013590565b600060208284031215612b5d57600080fd5b8135611ed381612971565b60008060408385031215612b7b57600080fd5b8235612b8681612aac565b946020939093013593505050565b600081518084526020808501945080840160005b83811015612bcd5781516001600160a01b031687529582019590820190600101612ba8565b509495945050505050565b888152602081018890526001600160a01b03871660408201528515156060820152841515608082015283151560a082015282151560c082015261010060e08201819052600090612c2a83820185612b94565b9b9a5050505050505050505050565b600060208284031215612c4b57600080fd5b5035919050565b60008060408385031215612c6557600080fd5b8235612c7081612971565b91506020830135612c8081612971565b809150509250929050565b600080600080600060a08688031215612ca357600080fd5b8535612cae81612971565b94506020860135612cbe81612971565b93506040860135612cce81612aac565b94979396509394606081013594506080013592915050565b600067ffffffffffffffff821115612d0057612d00612989565b5060051b60200190565b600082601f830112612d1b57600080fd5b81356020612d30612d2b83612ce6565b61299f565b82815260059290921b84018101918181019086841115612d4f57600080fd5b8286015b84811015612d6a5780358352918301918301612d53565b509695505050505050565b600080600080600060a08688031215612d8d57600080fd5b8535612d9881612971565b94506020860135612da881612971565b9350604086013567ffffffffffffffff80821115612dc557600080fd5b612dd189838a01612d0a565b94506060880135915080821115612de757600080fd5b612df389838a01612d0a565b93506080880135915080821115612e0957600080fd5b50612e16888289016129d0565b9150509295509295909350565b600082601f830112612e3457600080fd5b81356020612e44612d2b83612ce6565b82815260059290921b84018101918181019086841115612e6357600080fd5b8286015b84811015612d6a578035612e7a81612971565b8352918301918301612e67565b60008060008060008060c08789031215612ea057600080fd5b86359550602087013560ff81168114612eb857600080fd5b94506040870135612ec881612971565b9350606087013592506080870135915060a087013567ffffffffffffffff811115612ef257600080fd5b612efe89828a01612e23565b9150509295509295509295565b600080600060608486031215612f2057600080fd5b8335612f2b81612971565b92506020840135612f3b81612971565b929592945050506040919091013590565b600082601f830112612f5d57600080fd5b81356020612f6d612d2b83612ce6565b82815260059290921b84018101918181019086841115612f8c57600080fd5b8286015b84811015612d6a5780358060030b8114612faa5760008081fd5b8352918301918301612f90565b803563ffffffff81168114612fcb57600080fd5b919050565b600080600060608486031215612fe557600080fd5b833567ffffffffffffffff80821115612ffd57600080fd5b818601915086601f83011261301157600080fd5b81356020613021612d2b83612ce6565b82815260059290921b8401810191818101908a84111561304057600080fd5b948201945b8386101561306757853561305881612971565b82529482019490820190613045565b9750508701359250508082111561307d57600080fd5b5061308a86828701612f4c565b92505061309960408501612fb7565b90509250925092565b6000806000606084860312156130b757600080fd5b833567ffffffffffffffff8111156130ce57600080fd5b6130da86828701612e23565b9350506020840135612aea81612971565b600080604083850312156130fe57600080fd5b823591506020830135612c8081612aac565b600080600080600060a0868803121561312857600080fd5b853561313381612971565b9450602086013561314381612971565b93506040860135925060608601359150608086013567ffffffffffffffff81111561316d57600080fd5b612e16888289016129d0565b60006020828403121561318b57600080fd5b813567ffffffffffffffff8111156131a257600080fd5b6131ae84828501612e23565b949350505050565b634e487b7160e01b600052601160045260246000fd5b600082198211156131df576131df6131b6565b500190565b6001600160801b039590951685526001600160a01b0393841660208601529190921660408401526060830191909152608082015260a00190565b60006020828403121561323057600080fd5b5051919050565b60006020828403121561324957600080fd5b8151611ed381612971565b6001600160a01b039290921682526001600160801b0316602082015260400190565b60006020828403121561328857600080fd5b8151611ed381612aac565b600060ff821660ff84168160ff04811182151516156132b4576132b46131b6565b029392505050565b634e487b7160e01b600052603260045260246000fd5b600081518084526020808501945080840160005b83811015612bcd578151875295820195908201906001016132e6565b60408152600061331560408301856132d2565b828103602084015261332781856132d2565b95945050505050565b600081600019048311821515161561334a5761334a6131b6565b500290565b60008261336c57634e487b7160e01b600052601260045260246000fd5b500490565b602081526000611ed36020830184612b94565b600082821015613396576133966131b6565b500390565b60008160030b637fffffff1981036133b5576133b56131b6565b60000392915050565b634e487b7160e01b600052603160045260246000fdfea2646970667358221220f64e9af6a83e075049567b604b32f18a9a26ccad415a9f1f20bba497115478e264736f6c634300080d0033",
  "linkReferences": {},
  "deployedLinkReferences": {}
}