{
  "_format": "hh-sol-artifact-1",
  "contractName": "Slicer",
  "sourceName": "contracts/Slicer.sol",
  "abi": [
    {
      "inputs": [],
      "name": "Invalid",
      "type": "error"
    },
    {
      "inputs": [],
      "name": "NotAuthorized",
      "type": "error"
    },
    {
      "inputs": [],
      "name": "NotSuccessful",
      "type": "error"
    },
    {
      "inputs": [],
      "name": "PaymentLoop",
      "type": "error"
    },
    {
      "inputs": [],
      "name": "ReentrancyBlock",
      "type": "error"
    },
    {
      "inputs": [],
      "name": "releaseLocked",
      "type": "error"
    },
    {
      "anonymous": false,
      "inputs": [
        {
          "indexed": true,
          "internalType": "uint256",
          "name": "slicerId",
          "type": "uint256"
        },
        {
          "indexed": false,
          "internalType": "bool",
          "name": "addChildSlicerMode",
          "type": "bool"
        }
      ],
      "name": "ChildSlicerSet",
      "type": "event"
    },
    {
      "anonymous": false,
      "inputs": [
        {
          "indexed": false,
          "internalType": "address[]",
          "name": "currencies",
          "type": "address[]"
        }
      ],
      "name": "CurrenciesAdded",
      "type": "event"
    },
    {
      "anonymous": false,
      "inputs": [
        {
          "indexed": false,
          "internalType": "bool",
          "name": "customFeeActive",
          "type": "bool"
        },
        {
          "indexed": false,
          "internalType": "uint256",
          "name": "customFee",
          "type": "uint256"
        }
      ],
      "name": "CustomFeeSet",
      "type": "event"
    },
    {
      "anonymous": false,
      "inputs": [
        {
          "indexed": true,
          "internalType": "address",
          "name": "contractAddress",
          "type": "address"
        },
        {
          "indexed": true,
          "internalType": "address",
          "name": "from",
          "type": "address"
        },
        {
          "indexed": false,
          "internalType": "uint256[]",
          "name": "tokenIds",
          "type": "uint256[]"
        },
        {
          "indexed": false,
          "internalType": "uint256[]",
          "name": "amounts",
          "type": "uint256[]"
        }
      ],
      "name": "ERC1155BatchReceived",
      "type": "event"
    },
    {
      "anonymous": false,
      "inputs": [
        {
          "indexed": true,
          "internalType": "address",
          "name": "contractAddress",
          "type": "address"
        },
        {
          "indexed": true,
          "internalType": "address",
          "name": "from",
          "type": "address"
        },
        {
          "indexed": false,
          "internalType": "uint256",
          "name": "tokenId",
          "type": "uint256"
        },
        {
          "indexed": false,
          "internalType": "uint256",
          "name": "amount",
          "type": "uint256"
        }
      ],
      "name": "ERC1155Received",
      "type": "event"
    },
    {
      "anonymous": false,
      "inputs": [
        {
          "indexed": true,
          "internalType": "address",
          "name": "contractAddress",
          "type": "address"
        },
        {
          "indexed": true,
          "internalType": "address",
          "name": "from",
          "type": "address"
        },
        {
          "indexed": false,
          "internalType": "uint256",
          "name": "tokenId",
          "type": "uint256"
        }
      ],
      "name": "ERC721Received",
      "type": "event"
    },
    {
      "anonymous": false,
      "inputs": [
        {
          "indexed": true,
          "internalType": "address",
          "name": "payee",
          "type": "address"
        },
        {
          "indexed": true,
          "internalType": "address",
          "name": "currency",
          "type": "address"
        },
        {
          "indexed": false,
          "internalType": "uint256",
          "name": "amountReleased",
          "type": "uint256"
        },
        {
          "indexed": false,
          "internalType": "uint256",
          "name": "protocolPayment",
          "type": "uint256"
        }
      ],
      "name": "Released",
      "type": "event"
    },
    {
      "inputs": [
        {
          "internalType": "address[]",
          "name": "currencies",
          "type": "address[]"
        }
      ],
      "name": "_addCurrencies",
      "outputs": [],
      "stateMutability": "nonpayable",
      "type": "function"
    },
    {
      "inputs": [
        {
          "internalType": "address",
          "name": "buyer",
          "type": "address"
        },
        {
          "internalType": "address",
          "name": "contractAddress",
          "type": "address"
        },
        {
          "internalType": "uint256",
          "name": "quantity",
          "type": "uint256"
        },
        {
          "internalType": "uint256",
          "name": "tokenId",
          "type": "uint256"
        }
      ],
      "name": "_handle1155Purchase",
      "outputs": [],
      "stateMutability": "nonpayable",
      "type": "function"
    },
    {
      "inputs": [
        {
          "internalType": "address",
          "name": "buyer",
          "type": "address"
        },
        {
          "internalType": "address",
          "name": "contractAddress",
          "type": "address"
        },
        {
          "internalType": "uint256",
          "name": "tokenId",
          "type": "uint256"
        }
      ],
      "name": "_handle721Purchase",
      "outputs": [],
      "stateMutability": "nonpayable",
      "type": "function"
    },
    {
      "inputs": [
        {
          "internalType": "uint256",
          "name": "tokenId_",
          "type": "uint256"
        },
        {
          "internalType": "bool",
          "name": "isImmutable_",
          "type": "bool"
        },
        {
          "internalType": "bool",
          "name": "isControlled_",
          "type": "bool"
        },
        {
          "internalType": "uint8",
          "name": "flags_",
          "type": "uint8"
        },
        {
          "internalType": "address",
          "name": "slicerCreator_",
          "type": "address"
        },
        {
          "internalType": "uint256",
          "name": "minimumShares_",
          "type": "uint256"
        },
        {
          "internalType": "uint256",
          "name": "releaseTimelock_",
          "type": "uint256"
        },
        {
          "internalType": "address[]",
          "name": "currencies_",
          "type": "address[]"
        }
      ],
      "name": "_initialize",
      "outputs": [],
      "stateMutability": "nonpayable",
      "type": "function"
    },
    {
      "inputs": [
        {
          "internalType": "address",
          "name": "account",
          "type": "address"
        },
        {
          "internalType": "address",
          "name": "currency",
          "type": "address"
        }
      ],
      "name": "_releaseFromFundsModule",
      "outputs": [
        {
          "internalType": "uint256",
          "name": "amount",
          "type": "uint256"
        },
        {
          "internalType": "uint256",
          "name": "protocolPayment",
          "type": "uint256"
        }
      ],
      "stateMutability": "nonpayable",
      "type": "function"
    },
    {
      "inputs": [
        {
          "internalType": "address",
          "name": "account",
          "type": "address"
        },
        {
          "internalType": "address",
          "name": "currency",
          "type": "address"
        },
        {
          "internalType": "uint256",
          "name": "accountSlices",
          "type": "uint256"
        }
      ],
      "name": "_releaseFromSliceCore",
      "outputs": [],
      "stateMutability": "nonpayable",
      "type": "function"
    },
    {
      "inputs": [
        {
          "internalType": "uint256",
          "name": "id",
          "type": "uint256"
        },
        {
          "internalType": "bool",
          "name": "isAdded",
          "type": "bool"
        }
      ],
      "name": "_setChildSlicer",
      "outputs": [],
      "stateMutability": "nonpayable",
      "type": "function"
    },
    {
      "inputs": [
        {
          "internalType": "bool",
          "name": "customFeeActive",
          "type": "bool"
        },
        {
          "internalType": "uint256",
          "name": "customFee",
          "type": "uint256"
        }
      ],
      "name": "_setCustomFee",
      "outputs": [],
      "stateMutability": "nonpayable",
      "type": "function"
    },
    {
      "inputs": [
        {
          "internalType": "uint40",
          "name": "releaseTimelock",
          "type": "uint40"
        }
      ],
      "name": "_setReleaseTimelock",
      "outputs": [],
      "stateMutability": "nonpayable",
      "type": "function"
    },
    {
      "inputs": [
        {
          "internalType": "uint256",
          "name": "totalShares",
          "type": "uint256"
        }
      ],
      "name": "_setTotalShares",
      "outputs": [],
      "stateMutability": "nonpayable",
      "type": "function"
    },
    {
      "inputs": [
        {
          "internalType": "address payable",
          "name": "sender",
          "type": "address"
        },
        {
          "internalType": "address",
          "name": "receiver",
          "type": "address"
        },
        {
          "internalType": "bool",
          "name": "toRelease",
          "type": "bool"
        },
        {
          "internalType": "uint256",
          "name": "senderShares",
          "type": "uint256"
        },
        {
          "internalType": "uint256",
          "name": "transferredShares",
          "type": "uint256"
        }
      ],
      "name": "_updatePayees",
      "outputs": [],
      "stateMutability": "nonpayable",
      "type": "function"
    },
    {
      "inputs": [
        {
          "internalType": "address payable[]",
          "name": "accounts",
          "type": "address[]"
        },
        {
          "internalType": "int32[]",
          "name": "tokensDiffs",
          "type": "int32[]"
        },
        {
          "internalType": "uint32",
          "name": "totalSupply",
          "type": "uint32"
        }
      ],
      "name": "_updatePayeesReslice",
      "outputs": [],
      "stateMutability": "nonpayable",
      "type": "function"
    },
    {
      "inputs": [
        {
          "internalType": "address",
          "name": "currency",
          "type": "address"
        }
      ],
      "name": "acceptsCurrency",
      "outputs": [
        {
          "internalType": "bool",
          "name": "",
          "type": "bool"
        }
      ],
      "stateMutability": "view",
      "type": "function"
    },
    {
      "inputs": [
        {
          "internalType": "address[]",
          "name": "accounts",
          "type": "address[]"
        },
        {
          "internalType": "address",
          "name": "currency",
          "type": "address"
        },
        {
          "internalType": "bool",
          "name": "withdraw",
          "type": "bool"
        }
      ],
      "name": "batchReleaseAccounts",
      "outputs": [],
      "stateMutability": "nonpayable",
      "type": "function"
    },
    {
      "inputs": [],
      "name": "getFee",
      "outputs": [
        {
          "internalType": "uint256",
          "name": "fee",
          "type": "uint256"
        }
      ],
      "stateMutability": "view",
      "type": "function"
    },
    {
      "inputs": [
        {
          "internalType": "address",
          "name": "payee",
          "type": "address"
        }
      ],
      "name": "isPayeeAllowed",
      "outputs": [
        {
          "internalType": "bool",
          "name": "",
          "type": "bool"
        }
      ],
      "stateMutability": "view",
      "type": "function"
    },
    {
      "inputs": [
        {
          "internalType": "address",
          "name": "",
          "type": "address"
        },
        {
          "internalType": "address",
          "name": "from",
          "type": "address"
        },
        {
          "internalType": "uint256[]",
          "name": "tokenIds",
          "type": "uint256[]"
        },
        {
          "internalType": "uint256[]",
          "name": "amounts",
          "type": "uint256[]"
        },
        {
          "internalType": "bytes",
          "name": "",
          "type": "bytes"
        }
      ],
      "name": "onERC1155BatchReceived",
      "outputs": [
        {
          "internalType": "bytes4",
          "name": "",
          "type": "bytes4"
        }
      ],
      "stateMutability": "nonpayable",
      "type": "function"
    },
    {
      "inputs": [
        {
          "internalType": "address",
          "name": "",
          "type": "address"
        },
        {
          "internalType": "address",
          "name": "from",
          "type": "address"
        },
        {
          "internalType": "uint256",
          "name": "tokenId",
          "type": "uint256"
        },
        {
          "internalType": "uint256",
          "name": "amount",
          "type": "uint256"
        },
        {
          "internalType": "bytes",
          "name": "",
          "type": "bytes"
        }
      ],
      "name": "onERC1155Received",
      "outputs": [
        {
          "internalType": "bytes4",
          "name": "",
          "type": "bytes4"
        }
      ],
      "stateMutability": "nonpayable",
      "type": "function"
    },
    {
      "inputs": [
        {
          "internalType": "address",
          "name": "",
          "type": "address"
        },
        {
          "internalType": "address",
          "name": "from",
          "type": "address"
        },
        {
          "internalType": "uint256",
          "name": "tokenId",
          "type": "uint256"
        },
        {
          "internalType": "bytes",
          "name": "",
          "type": "bytes"
        }
      ],
      "name": "onERC721Received",
      "outputs": [
        {
          "internalType": "bytes4",
          "name": "",
          "type": "bytes4"
        }
      ],
      "stateMutability": "nonpayable",
      "type": "function"
    },
    {
      "inputs": [
        {
          "internalType": "address",
          "name": "account",
          "type": "address"
        },
        {
          "internalType": "address",
          "name": "currency",
          "type": "address"
        },
        {
          "internalType": "bool",
          "name": "withdraw",
          "type": "bool"
        }
      ],
      "name": "release",
      "outputs": [],
      "stateMutability": "nonpayable",
      "type": "function"
    },
    {
      "inputs": [],
      "name": "slicerInfo",
      "outputs": [
        {
          "internalType": "uint256",
          "name": "tokenId",
          "type": "uint256"
        },
        {
          "internalType": "uint256",
          "name": "minimumShares",
          "type": "uint256"
        },
        {
          "internalType": "address",
          "name": "creator",
          "type": "address"
        },
        {
          "internalType": "bool",
          "name": "isImmutable",
          "type": "bool"
        },
        {
          "internalType": "bool",
          "name": "isControlled",
          "type": "bool"
        },
        {
          "internalType": "address[]",
          "name": "currencies",
          "type": "address[]"
        }
      ],
      "stateMutability": "view",
      "type": "function"
    },
    {
      "inputs": [
        {
          "internalType": "bytes4",
          "name": "interfaceId",
          "type": "bytes4"
        }
      ],
      "name": "supportsInterface",
      "outputs": [
        {
          "internalType": "bool",
          "name": "",
          "type": "bool"
        }
      ],
      "stateMutability": "view",
      "type": "function"
    },
    {
      "inputs": [
        {
          "internalType": "address",
          "name": "account",
          "type": "address"
        },
        {
          "internalType": "address",
          "name": "currency",
          "type": "address"
        }
      ],
      "name": "unreleased",
      "outputs": [
        {
          "internalType": "uint256",
          "name": "unreleasedAmount",
          "type": "uint256"
        }
      ],
      "stateMutability": "view",
      "type": "function"
    },
    {
      "stateMutability": "payable",
      "type": "receive"
    }
  ],
  "bytecode": "0x608060405234801561001057600080fd5b50613412806100206000396000f3fe6080604052600436106101445760003560e01c8063b25e9c39116100b6578063dd8b33e71161006f578063dd8b33e7146103bf578063e32cf851146103df578063e6a1be00146103ff578063ecd3620a1461041f578063f23a6e611461043f578063fc2686191461045f57600080fd5b8063b25e9c39146102fc578063bc197c811461031c578063ce55982b1461033c578063ced72f871461035c578063d3c657541461037f578063d9749edf1461039f57600080fd5b8063853990c311610108578063853990c314610220578063926b012514610240578063957e07b6146102605780639d24e18614610287578063a4688017146102a7578063b230074a146102dc57600080fd5b806301ffc9a714610150578063150b7a021461018557806319fc05b5146101be57806352cf13d6146101e057806359bac56c1461020057600080fd5b3661014b57005b600080fd5b34801561015c57600080fd5b5061017061016b366004612922565b61047f565b60405190151581526020015b60405180910390f35b34801561019157600080fd5b506101a56101a0366004612a1b565b6104b6565b6040516001600160e01b0319909116815260200161017c565b3480156101ca57600080fd5b506101de6101d9366004612a95565b610516565b005b3480156101ec57600080fd5b506101de6101fb366004612ae0565b610662565b34801561020c57600080fd5b5061017061021b366004612b26565b6108a0565b34801561022c57600080fd5b506101de61023b366004612b43565b610bbb565b34801561024c57600080fd5b506101de61025b366004612b6a565b610beb565b34801561026c57600080fd5b50610275610d3d565b60405161017c96959493929190612bda565b34801561029357600080fd5b506101de6102a2366004612c23565b610db7565b3480156102b357600080fd5b506102c76102c2366004612c3c565b610de5565b6040805192835260208301919091520161017c565b3480156102e857600080fd5b506101de6102f7366004612c75565b611099565b34801561030857600080fd5b50610170610317366004612b26565b611106565b34801561032857600080fd5b506101a5610337366004612d5f565b611113565b34801561034857600080fd5b506101de610357366004612e0d565b6111f1565b34801561036857600080fd5b50610371611292565b60405190815260200161017c565b34801561038b57600080fd5b506101de61039a366004612e0d565b6112d3565b3480156103ab57600080fd5b506103716103ba366004612c3c565b61137d565b3480156103cb57600080fd5b506101de6103da366004612eb2565b61149f565b3480156103eb57600080fd5b506101de6103fa366004612fe1565b611640565b34801561040b57600080fd5b506101de61041a3660046130b3565b611810565b34801561042b57600080fd5b506101de61043a3660046130fc565b611c1e565b34801561044b57600080fd5b506101a561045a366004613121565b611d2f565b34801561046b57600080fd5b506101de61047a36600461318a565b611dce565b60006001600160e01b03198216630271189760e51b14806104b057506301ffc9a760e01b6001600160e01b03198316145b92915050565b6000836001600160a01b0316336001600160a01b03167f941a9d9a9af7f97737c018d13918859e12f44e16c4b4c6ac922dacf021cfbf14856040516104fd91815260200190565b60405180910390a350630a85bd0160e11b949350505050565b606b54600160c01b900464ffffffffff164210156105475760405163510040cb60e01b815260040160405180910390fd5b6000610553848461137d565b9050801561065c57600080610566611292565b9050801561057b576105788382611f26565b91505b6001600160a01b038516600090815260696020526040812080548592906105a39084906131dd565b909155506105b690508686858588611f46565b83156106595760006001600160a01b038616156105d45760006105d6565b835b606b54604051630f1daf8f60e31b815291925073cf7ed3acca5a467e9e704c703e8d87f634fb0fc9916378ed7c78918491610625916001600160801b0316908c908c908b908b906004016131f5565b6000604051808303818588803b15801561063e57600080fd5b505af1158015610652573d6000803e3d6000fd5b5050505050505b50505b50505050565b33739fe46736679d2d9a65f0992f2272de9f3c7fa6e0146106965760405163ea8e4eb560e01b815260040160405180910390fd5b73e7f1725e7734ce288f8367e1bb143e90bb3f0511196001600160a01b0384160161081d57604051627eeac760e11b81523060048201526024810182905273e7f1725e7734ce288f8367e1bb143e90bb3f05129062fdd58e90604401602060405180830381865afa15801561070f573d6000803e3d6000fd5b505050506040513d601f19601f82011682018060405250810190610733919061322f565b820361081d57604051630bafd3f560e11b81526004810182905273e7f1725e7734ce288f8367e1bb143e90bb3f05129063175fa7ea90602401602060405180830381865afa158015610789573d6000803e3d6000fd5b505050506040513d601f19601f820116820180604052508101906107ad9190613248565b606b54604051637669b10560e11b81526001600160801b039091166004820152600060248201526001600160a01b03919091169063ecd3620a90604401600060405180830381600087803b15801561080457600080fd5b505af1158015610818573d6000803e3d6000fd5b505050505b604051637921219560e11b81523060048201526001600160a01b038581166024830152604482018390526064820184905260a06084830152600060a483015284169063f242432a9060c401600060405180830381600087803b15801561088257600080fd5b505af1158015610896573d6000803e3d6000fd5b5050505050505050565b606c54600090600160a81b900460ff161561095057606b5460405163a468f1c760e01b81526001600160801b03909116600482015273e7f1725e7734ce288f8367e1bb143e90bb3f05129063a468f1c790602401602060405180830381865afa158015610911573d6000803e3d6000fd5b505050506040513d601f19601f820116820180604052508101906109359190613248565b6001600160a01b0316826001600160a01b0316149050919050565b606b54604051627eeac760e11b815263ffffffff600160a01b8304169173e7f1725e7734ce288f8367e1bb143e90bb3f05129162fdd58e916109a09187916001600160801b031690600401613265565b602060405180830381865afa1580156109bd573d6000803e3d6000fd5b505050506040513d601f19601f820116820180604052508101906109e1919061322f565b106109ee57506001919050565b6109f860676121fd565b15610bb35760005b610a0a60676121fd565b811015610bb157600073e7f1725e7734ce288f8367e1bb143e90bb3f051263175fa7ea610a38606785612207565b6040518263ffffffff1660e01b8152600401610a5691815260200190565b602060405180830381865afa158015610a73573d6000803e3d6000fd5b505050506040513d601f19601f82011682018060405250810190610a979190613248565b606b54604051627eeac760e11b815291925063ffffffff600160a01b8204169173e7f1725e7734ce288f8367e1bb143e90bb3f05129162fdd58e91610aec9186916001600160801b0390911690600401613265565b602060405180830381865afa158015610b09573d6000803e3d6000fd5b505050506040513d601f19601f82011682018060405250810190610b2d919061322f565b10610ba85760405163166eb15b60e21b81526001600160a01b0385811660048301528291908216906359bac56c90602401602060405180830381865afa158015610b7b573d6000803e3d6000fd5b505050506040513d601f19601f82011682018060405250810190610b9f9190613287565b95945050505050565b50600101610a00565b505b506000919050565b610bc3612213565b606b805464ffffffffff909216600160c01b0264ffffffffff60c01b19909216919091179055565b73e7f1725e7734ce288f8367e1bb143e90bb3f05126001600160a01b0316638da5cb5b6040518163ffffffff1660e01b8152600401602060405180830381865afa158015610c3d573d6000803e3d6000fd5b505050506040513d601f19601f82011682018060405250810190610c619190613248565b6001600160a01b0316336001600160a01b031614610c925760405163ea8e4eb560e01b815260040160405180910390fd5b610c9e601960046132a4565b60ff16811180610caf57506103e881115b15610ccd57604051636dac6a0960e01b815260040160405180910390fd5b606b80546001600160e81b0316600160f81b84151590810261ffff60e81b191691909117600160e81b61ffff8516021790915560408051918252602082018390527fe2fdfbdee41a353c6bb67e41dccbcf559b5d0c120375397b10247dc13065ca45910160405180910390a15050565b606b54606c5460009182918291829182916060916001600160801b0382169163ffffffff600160a01b9182900416916001600160a01b0381169160ff908204811691600160a81b900416610d916065612249565b6001600160801b03959095169b63ffffffff949094169a50919850965094509092509050565b610dbf612213565b606b805463ffffffff909216600160801b0263ffffffff60801b19909216919091179055565b6000803373cf7ed3acca5a467e9e704c703e8d87f634fb0fc914610e1c5760405163ea8e4eb560e01b815260040160405180910390fd5b606b54600160c01b900464ffffffffff16421015610e4d5760405163510040cb60e01b815260040160405180910390fd5b610e57848461137d565b91508115611092576000610e69611292565b90508015610e7e57610e7b8382611f26565b91505b6001600160a01b03841660009081526069602052604081208054859290610ea69084906131dd565b90915550506001600160a01b038085166000818152606a60209081526040808320948a16835293905291909120805485019055610f605760405160009073cf7ed3acca5a467e9e704c703e8d87f634fb0fc99085908381818185875af1925050503d8060008114610f33576040519150601f19603f3d011682016040523d82523d6000602084013e610f38565b606091505b5050905080610f5a5760405163af6eefa360e01b815260040160405180910390fd5b5061103a565b6001600160a01b0384167356639db16ac50a89228026e42a316b30179a537614801590610f955750610f93606585612256565b155b15610fb35760405163ea8e4eb560e01b815260040160405180910390fd5b60405163a9059cbb60e01b815273cf7ed3acca5a467e9e704c703e8d87f634fb0fc96004820152602481018490526001600160a01b0385169063a9059cbb906044016020604051808303816000875af1158015611014573d6000803e3d6000fd5b505050506040513d601f19601f820116820180604052508101906110389190613287565b505b836001600160a01b0316856001600160a01b03167f29e9bc035f01bfa0da19263257dbbaeb34bf6c9c780d975b99cb802aecfcf1a28585604051611088929190918252602082015260400190565b60405180910390a3505b9250929050565b6110a1612213565b6110b060008686848688612278565b6110d27356639db16ac50a89228026e42a316b30179a53768686848688612278565b60005b6110df60656121fd565b811015610659576110fe6110f4606583612207565b8787858789612278565b6001016110d5565b60006104b0606583612256565b600073e7f1725e7734ce288f8367e1bb143e90bb3f05111933016111925760005b84518110156111905761116a858281518110611152576111526132cd565b602002602001015160676123d390919063ffffffff16565b15611188576040516368ee781960e11b815260040160405180910390fd5b600101611134565b505b846001600160a01b0316336001600160a01b03167f1edfbe4132ea17d8154ccc1c03cdbf3f2406087a6989a7d7ebe742504adeb54686866040516111d7929190613313565b60405180910390a35063bc197c8160e01b95945050505050565b33739fe46736679d2d9a65f0992f2272de9f3c7fa6e0146112255760405163ea8e4eb560e01b815260040160405180910390fd5b604051632142170760e11b81523060048201526001600160a01b038481166024830152604482018390528316906342842e0e90606401600060405180830381600087803b15801561127557600080fd5b505af1158015611289573d6000803e3d6000fd5b50505050505050565b606b54600090600160f81b900460ff16156112cd57606b54600160e81b900461ffff16156112ca5750606b54600160e81b900461ffff165b90565b50601990565b6112db612213565b606b54600160c01b900464ffffffffff1642101561130c5760405163510040cb60e01b815260040160405180910390fd5b60006113198484846123eb565b9050801561065c5760008061132c611292565b905080156113415761133e8382611f26565b91505b6001600160a01b038516600090815260696020526040812080548592906113699084906131dd565b909155506106599050868685856000611f46565b6000806113898361249a565b9050801561149857606b54604051627eeac760e11b815260009163ffffffff600160801b8204169173e7f1725e7734ce288f8367e1bb143e90bb3f05129162fdd58e916113e6918a916001600160801b0390911690600401613265565b602060405180830381865afa158015611403573d6000803e3d6000fd5b505050506040513d601f19601f82011682018060405250810190611427919061322f565b6114319084613338565b61143b9190613357565b6001600160a01b038086166000908152606a60209081526040808320938a1683529290522054909150811115611496576001600160a01b038085166000908152606a6020908152604080832093891683529290522054810392505b505b5092915050565b33735fc8d32690cc91d4c39d9d3abcbd16989f875707146114d35760405163ea8e4eb560e01b815260040160405180910390fd5b606c546001600160a01b03161515806114f257506001600160801b0388115b156115105760405163af6eefa360e01b815260040160405180910390fd5b606b805463ffffffff8516600160a01b0277ffffffff00000000ffffffffffffffffffffffffffffffff199091166001600160801b038b1617179055811561157357606b805464ffffffffff60c01b1916600160c01b64ffffffffff8516021790555b606c80546001600160a01b0319166001600160a01b03861617905586156115ac57606c805460ff60a01b1916600160a01b891515021790555b85156115ca57606c805460ff60a81b1916600160a81b881515021790555b60ff8516156115ec57606c805460ff60b01b1916600160b01b60ff8816021790555b8051156108965760005b81518110156116355761162c828281518110611614576116146132cd565b6020026020010151606561255790919063ffffffff16565b506001016115f6565b505050505050505050565b611648612213565b6000611654600061249a565b905060006116757356639db16ac50a89228026e42a316b30179a537661249a565b905060005b61168460656121fd565b8110156117ae576000611698606583612207565b905060006116a58261249a565b905060005b8851811015611792578360000361174c576116fa60008a83815181106116d2576116d26132cd565b60200260200101518a84815181106116ec576116ec6132cd565b60200260200101518961256c565b61174c7356639db16ac50a89228026e42a316b30179a53768a8381518110611724576117246132cd565b60200260200101518a848151811061173e5761173e6132cd565b60200260200101518861256c565b61178a838a8381518110611762576117626132cd565b60200260200101518a848151811061177c5761177c6132cd565b60200260200101518561256c565b6001016116aa565b506117a4828763ffffffff1683612662565b505060010161167a565b506117c160008463ffffffff1684612662565b6117e67356639db16ac50a89228026e42a316b30179a53768463ffffffff1683612662565b5050606b805463ffffffff909216600160801b0263ffffffff60801b199092169190911790555050565b606b54600160c01b900464ffffffffff164210156118415760405163510040cb60e01b815260040160405180910390fd5b600061184b611292565b6001600160a01b0384166000818152606960205260408120549293508291156118e7576040516370a0823160e01b815230600482015282906001600160a01b038816906370a0823190602401602060405180830381865afa1580156118b4573d6000803e3d6000fd5b505050506040513d601f19601f820116820180604052508101906118d8919061322f565b6118e291906131dd565b6118f1565b6118f182476131dd565b905060005b8751811015611bc157606b548851600091600160801b900463ffffffff169073e7f1725e7734ce288f8367e1bb143e90bb3f05129062fdd58e908c9086908110611942576119426132cd565b6020908102919091010151606b546040516001600160e01b031960e085901b16815261197b92916001600160801b031690600401613265565b602060405180830381865afa158015611998573d6000803e3d6000fd5b505050506040513d601f19601f820116820180604052508101906119bc919061322f565b6119c69085613338565b6119d09190613357565b9050600080606a60008b6001600160a01b03166001600160a01b0316815260200190815260200160002060008c8681518110611a0e57611a0e6132cd565b60200260200101516001600160a01b03166001600160a01b0316815260200190815260200160002054831115611a9b576001600160a01b038a166000908152606a602052604081208c519091908d9087908110611a6d57611a6d6132cd565b60200260200101516001600160a01b03166001600160a01b0316815260200190815260200160002054830391505b8115611ae6578715611ab457611ab18289611f26565b90505b611abe82876131dd565b9550611ae68b8581518110611ad557611ad56132cd565b60200260200101518b84848d611f46565b8815611bb35760006001600160a01b038b1615611b04576000611b06565b825b905073cf7ed3acca5a467e9e704c703e8d87f634fb0fc96001600160a01b03166378ed7c7882606b60009054906101000a90046001600160801b03168f8981518110611b5457611b546132cd565b60200260200101518f88886040518763ffffffff1660e01b8152600401611b7f9594939291906131f5565b6000604051808303818588803b158015611b9857600080fd5b505af1158015611bac573d6000803e3d6000fd5b5050505050505b8360010193505050506118f6565b506001600160a01b0386166000908152606960205260409020548314611bfa5760405163cdcbf42760e01b815260040160405180910390fd5b506001600160a01b0390941660009081526069602052604090209390935550505050565b8015611c3d57611c2c612213565b611c37606783612742565b50611cef565b604051630bafd3f560e11b81526004810183905273e7f1725e7734ce288f8367e1bb143e90bb3f05129063175fa7ea90602401602060405180830381865afa158015611c8d573d6000803e3d6000fd5b505050506040513d601f19601f82011682018060405250810190611cb19190613248565b6001600160a01b0316336001600160a01b031614611ce25760405163ea8e4eb560e01b815260040160405180910390fd5b611ced60678361274e565b505b817f495f78c7b11cb5ca67202c06f9e12693d4882ef82c8248b59a740154ba8859f882604051611d23911515815260200190565b60405180910390a25050565b600073e7f1725e7734ce288f8367e1bb143e90bb3f0511193301611d7657611d586067856123d3565b15611d76576040516368ee781960e11b815260040160405180910390fd5b60408051858152602081018590526001600160a01b0387169133917ffae60880665b87af033fc873390c3749e126b4cd010b87a7f1191dbd2b32f197910160405180910390a35063f23a6e6160e01b95945050505050565b606c54600160a81b900460ff1615611e9657606b5460405163a468f1c760e01b81526001600160801b03909116600482015273e7f1725e7734ce288f8367e1bb143e90bb3f05129063a468f1c790602401602060405180830381865afa158015611e3c573d6000803e3d6000fd5b505050506040513d601f19601f82011682018060405250810190611e609190613248565b6001600160a01b0316336001600160a01b031614611e915760405163ea8e4eb560e01b815260040160405180910390fd5b611ec1565b606c546001600160a01b03163314611ec15760405163ea8e4eb560e01b815260040160405180910390fd5b60005b8151811015611eeb57611ee2828281518110611614576116146132cd565b50600101611ec4565b507fa2f33c128ca00170a527ea94ce234c292389e4606240101eb1e7966442646f6a81604051611f1b9190613379565b60405180910390a150565b60006103e8611f358385613338565b611f3f9190613357565b9392505050565b6001600160a01b038085166000818152606a60209081526040808320948a16835293905291909120805485019055611ff95780611ff4576040516339ed512360e01b81526001600160a01b03861660048201526024810183905273cf7ed3acca5a467e9e704c703e8d87f634fb0fc9906339ed51239085906044016000604051808303818588803b158015611fda57600080fd5b505af1158015611fee573d6000803e3d6000fd5b50505050505b6121a0565b6001600160a01b0384167356639db16ac50a89228026e42a316b30179a53761480159061202e575061202c606585612256565b155b1561209857606c54600160b01b90046001161561207f57336001600160a01b0386161461206e5760405163ea8e4eb560e01b815260040160405180910390fd5b612079606585612557565b50612098565b60405163ea8e4eb560e01b815260040160405180910390fd5b60405163a9059cbb60e01b815273cf7ed3acca5a467e9e704c703e8d87f634fb0fc96004820152602481018490526001600160a01b0385169063a9059cbb906044016020604051808303816000875af11580156120f9573d6000803e3d6000fd5b505050506040513d601f19601f8201168201806040525081019061211d9190613287565b50806121a057606b54604051632cfe238560e11b815273cf7ed3acca5a467e9e704c703e8d87f634fb0fc9916359fc470a9161216d916001600160801b03169089908990899089906004016131f5565b600060405180830381600087803b15801561218757600080fd5b505af115801561219b573d6000803e3d6000fd5b505050505b836001600160a01b0316856001600160a01b03167f29e9bc035f01bfa0da19263257dbbaeb34bf6c9c780d975b99cb802aecfcf1a285856040516121ee929190918252602082015260400190565b60405180910390a35050505050565b60006104b0825490565b6000611f3f838361275a565b3373e7f1725e7734ce288f8367e1bb143e90bb3f0512146122475760405163ea8e4eb560e01b815260040160405180910390fd5b565b60606000611f3f83612784565b6001600160a01b03811660009081526001830160205260408120541515611f3f565b801561232557606b54600160c01b900464ffffffffff164210156122af5760405163510040cb60e01b815260040160405180910390fd5b60006122bc8688856123eb565b90508015612323576000806122cf611292565b905080156122e4576122e18382611f26565b91505b6001600160a01b0389166000908152606960205260408120805485929061230c9084906131dd565b909155506123209050888a85856000611f46565b50505b505b6001600160a01b038087166000908152606a602090815260408083209389168352929052205415610659576001600160a01b038087166000908152606a602090815260408083209389168352929052908120548390612385908690613338565b61238f9190613357565b6001600160a01b039788166000908152606a60209081526040808320988b168352979052868120805483019055969097168652505050912080549290920390915550565b60008181526001830160205260408120541515611f3f565b60008115611f3f5760006123fe8461249a565b9050801561249257606b54600090600160801b900463ffffffff166124238584613338565b61242d9190613357565b6001600160a01b038087166000908152606a60209081526040808320938b1683529290522054909150811115612490576001600160a01b038086166000908152606a60209081526040808320938a168352929052205461248d908261338c565b92505b505b509392505050565b60006001600160a01b03821615612534576001600160a01b038216600081815260696020526040908190205490516370a0823160e01b81523060048201529091906370a0823190602401602060405180830381865afa158015612501573d6000803e3d6000fd5b505050506040513d601f19601f82011682018060405250810190612525919061322f565b61252f91906131dd565b6104b0565b6001600160a01b0382166000908152606960205260409020546104b090476131dd565b6000611f3f836001600160a01b0384166127e0565b801561065c5760008260030b136125f357606b54600160801b900463ffffffff1681612597846133a3565b63ffffffff166125a79190613338565b6125b19190613357565b6001600160a01b038086166000908152606a60209081526040808320938816835292905290812080549091906125e890849061338c565b92505081905561265b565b606b5463ffffffff600160801b9091048116906126139083908516613338565b61261d9190613357565b6001600160a01b038086166000908152606a60209081526040808320938816835292905290812080549091906126549084906131dd565b9250508190555b5050505050565b801561273d57606b54600160801b900463ffffffff1682116126e057606b54600160801b900463ffffffff1681612699848361338c565b6126a39190613338565b6126ad9190613357565b6001600160a01b038416600090815260696020526040812080549091906126d590849061338c565b92505081905561065c565b606b54600160801b900463ffffffff16816126fb828561338c565b6127059190613338565b61270f9190613357565b6001600160a01b038416600090815260696020526040812080549091906127379084906131dd565b90915550505b505050565b6000611f3f83836127e0565b6000611f3f838361282f565b6000826000018281548110612771576127716132cd565b9060005260206000200154905092915050565b6060816000018054806020026020016040519081016040528092919081815260200182805480156127d457602002820191906000526020600020905b8154815260200190600101908083116127c0575b50505050509050919050565b6000818152600183016020526040812054612827575081546001818101845560008481526020808220909301849055845484825282860190935260409020919091556104b0565b5060006104b0565b6000818152600183016020526040812054801561291857600061285360018361338c565b85549091506000906128679060019061338c565b90508181146128cc576000866000018281548110612887576128876132cd565b90600052602060002001549050808760000184815481106128aa576128aa6132cd565b6000918252602080832090910192909255918252600188019052604090208390555b85548690806128dd576128dd6133c6565b6001900381819060005260206000200160009055905585600101600086815260200190815260200160002060009055600193505050506104b0565b60009150506104b0565b60006020828403121561293457600080fd5b81356001600160e01b031981168114611f3f57600080fd5b6001600160a01b038116811461296157600080fd5b50565b634e487b7160e01b600052604160045260246000fd5b604051601f8201601f1916810167ffffffffffffffff811182821017156129a3576129a3612964565b604052919050565b600082601f8301126129bc57600080fd5b813567ffffffffffffffff8111156129d6576129d6612964565b6129e9601f8201601f191660200161297a565b8181528460208386010111156129fe57600080fd5b816020850160208301376000918101602001919091529392505050565b60008060008060808587031215612a3157600080fd5b8435612a3c8161294c565b93506020850135612a4c8161294c565b925060408501359150606085013567ffffffffffffffff811115612a6f57600080fd5b612a7b878288016129ab565b91505092959194509250565b801515811461296157600080fd5b600080600060608486031215612aaa57600080fd5b8335612ab58161294c565b92506020840135612ac58161294c565b91506040840135612ad581612a87565b809150509250925092565b60008060008060808587031215612af657600080fd5b8435612b018161294c565b93506020850135612b118161294c565b93969395505050506040820135916060013590565b600060208284031215612b3857600080fd5b8135611f3f8161294c565b600060208284031215612b5557600080fd5b813564ffffffffff81168114611f3f57600080fd5b60008060408385031215612b7d57600080fd5b8235612b8881612a87565b946020939093013593505050565b600081518084526020808501945080840160005b83811015612bcf5781516001600160a01b031687529582019590820190600101612baa565b509495945050505050565b86815285602082015260018060a01b03851660408201528315156060820152821515608082015260c060a08201526000612c1760c0830184612b96565b98975050505050505050565b600060208284031215612c3557600080fd5b5035919050565b60008060408385031215612c4f57600080fd5b8235612c5a8161294c565b91506020830135612c6a8161294c565b809150509250929050565b600080600080600060a08688031215612c8d57600080fd5b8535612c988161294c565b94506020860135612ca88161294c565b93506040860135612cb881612a87565b94979396509394606081013594506080013592915050565b600067ffffffffffffffff821115612cea57612cea612964565b5060051b60200190565b600082601f830112612d0557600080fd5b81356020612d1a612d1583612cd0565b61297a565b82815260059290921b84018101918181019086841115612d3957600080fd5b8286015b84811015612d545780358352918301918301612d3d565b509695505050505050565b600080600080600060a08688031215612d7757600080fd5b8535612d828161294c565b94506020860135612d928161294c565b9350604086013567ffffffffffffffff80821115612daf57600080fd5b612dbb89838a01612cf4565b94506060880135915080821115612dd157600080fd5b612ddd89838a01612cf4565b93506080880135915080821115612df357600080fd5b50612e00888289016129ab565b9150509295509295909350565b600080600060608486031215612e2257600080fd5b8335612e2d8161294c565b92506020840135612e3d8161294c565b929592945050506040919091013590565b600082601f830112612e5f57600080fd5b81356020612e6f612d1583612cd0565b82815260059290921b84018101918181019086841115612e8e57600080fd5b8286015b84811015612d54578035612ea58161294c565b8352918301918301612e92565b600080600080600080600080610100898b031215612ecf57600080fd5b883597506020890135612ee181612a87565b96506040890135612ef181612a87565b9550606089013560ff81168114612f0757600080fd5b94506080890135612f178161294c565b935060a0890135925060c0890135915060e089013567ffffffffffffffff811115612f4157600080fd5b612f4d8b828c01612e4e565b9150509295985092959890939650565b600082601f830112612f6e57600080fd5b81356020612f7e612d1583612cd0565b82815260059290921b84018101918181019086841115612f9d57600080fd5b8286015b84811015612d545780358060030b8114612fbb5760008081fd5b8352918301918301612fa1565b803563ffffffff81168114612fdc57600080fd5b919050565b600080600060608486031215612ff657600080fd5b833567ffffffffffffffff8082111561300e57600080fd5b818601915086601f83011261302257600080fd5b81356020613032612d1583612cd0565b82815260059290921b8401810191818101908a84111561305157600080fd5b948201945b838610156130785785356130698161294c565b82529482019490820190613056565b9750508701359250508082111561308e57600080fd5b5061309b86828701612f5d565b9250506130aa60408501612fc8565b90509250925092565b6000806000606084860312156130c857600080fd5b833567ffffffffffffffff8111156130df57600080fd5b6130eb86828701612e4e565b9350506020840135612ac58161294c565b6000806040838503121561310f57600080fd5b823591506020830135612c6a81612a87565b600080600080600060a0868803121561313957600080fd5b85356131448161294c565b945060208601356131548161294c565b93506040860135925060608601359150608086013567ffffffffffffffff81111561317e57600080fd5b612e00888289016129ab565b60006020828403121561319c57600080fd5b813567ffffffffffffffff8111156131b357600080fd5b6131bf84828501612e4e565b949350505050565b634e487b7160e01b600052601160045260246000fd5b600082198211156131f0576131f06131c7565b500190565b6001600160801b039590951685526001600160a01b0393841660208601529190921660408401526060830191909152608082015260a00190565b60006020828403121561324157600080fd5b5051919050565b60006020828403121561325a57600080fd5b8151611f3f8161294c565b6001600160a01b039290921682526001600160801b0316602082015260400190565b60006020828403121561329957600080fd5b8151611f3f81612a87565b600060ff821660ff84168160ff04811182151516156132c5576132c56131c7565b029392505050565b634e487b7160e01b600052603260045260246000fd5b600081518084526020808501945080840160005b83811015612bcf578151875295820195908201906001016132f7565b60408152600061332660408301856132e3565b8281036020840152610b9f81856132e3565b6000816000190483118215151615613352576133526131c7565b500290565b60008261337457634e487b7160e01b600052601260045260246000fd5b500490565b602081526000611f3f6020830184612b96565b60008282101561339e5761339e6131c7565b500390565b60008160030b637fffffff1981036133bd576133bd6131c7565b60000392915050565b634e487b7160e01b600052603160045260246000fdfea2646970667358221220503598b5abe2f9007ec5aa1832173d3b7ed72b2761f159658aaf9a2fc2a23a3c64736f6c634300080d0033",
  "linkReferences": {},
  "deployedLinkReferences": {}
}