{
  "_format": "hh-sol-artifact-1",
  "contractName": "SliceCore",
  "sourceName": "contracts/SliceCore.sol",
  "abi": [
    {
      "inputs": [],
      "name": "Invalid",
      "type": "error"
    },
    {
      "inputs": [],
      "name": "IsPaused",
      "type": "error"
    },
    {
      "inputs": [],
      "name": "NotAuthorized",
      "type": "error"
    },
    {
      "inputs": [],
      "name": "NotSuccessful",
      "type": "error"
    },
    {
      "inputs": [],
      "name": "PaymentLoop",
      "type": "error"
    },
    {
      "inputs": [],
      "name": "transferLocked",
      "type": "error"
    },
    {
      "anonymous": false,
      "inputs": [
        {
          "indexed": false,
          "internalType": "address",
          "name": "previousAdmin",
          "type": "address"
        },
        {
          "indexed": false,
          "internalType": "address",
          "name": "newAdmin",
          "type": "address"
        }
      ],
      "name": "AdminChanged",
      "type": "event"
    },
    {
      "anonymous": false,
      "inputs": [
        {
          "indexed": true,
          "internalType": "address",
          "name": "account",
          "type": "address"
        },
        {
          "indexed": true,
          "internalType": "address",
          "name": "operator",
          "type": "address"
        },
        {
          "indexed": false,
          "internalType": "bool",
          "name": "approved",
          "type": "bool"
        }
      ],
      "name": "ApprovalForAll",
      "type": "event"
    },
    {
      "anonymous": false,
      "inputs": [
        {
          "indexed": true,
          "internalType": "address",
          "name": "beacon",
          "type": "address"
        }
      ],
      "name": "BeaconUpgraded",
      "type": "event"
    },
    {
      "anonymous": false,
      "inputs": [
        {
          "indexed": true,
          "internalType": "address",
          "name": "previousOwner",
          "type": "address"
        },
        {
          "indexed": true,
          "internalType": "address",
          "name": "newOwner",
          "type": "address"
        }
      ],
      "name": "OwnershipTransferred",
      "type": "event"
    },
    {
      "anonymous": false,
      "inputs": [
        {
          "indexed": false,
          "internalType": "address",
          "name": "account",
          "type": "address"
        }
      ],
      "name": "Paused",
      "type": "event"
    },
    {
      "anonymous": false,
      "inputs": [
        {
          "indexed": true,
          "internalType": "uint256",
          "name": "tokenId",
          "type": "uint256"
        },
        {
          "indexed": false,
          "internalType": "bool",
          "name": "isSlicer",
          "type": "bool"
        },
        {
          "indexed": false,
          "internalType": "bool",
          "name": "isActive",
          "type": "bool"
        },
        {
          "indexed": false,
          "internalType": "uint256",
          "name": "royaltyPercentage",
          "type": "uint256"
        }
      ],
      "name": "RoyaltySet",
      "type": "event"
    },
    {
      "anonymous": false,
      "inputs": [
        {
          "indexed": true,
          "internalType": "uint256",
          "name": "tokenId",
          "type": "uint256"
        },
        {
          "indexed": true,
          "internalType": "address",
          "name": "slicerController",
          "type": "address"
        }
      ],
      "name": "SlicerControllerSet",
      "type": "event"
    },
    {
      "anonymous": false,
      "inputs": [
        {
          "indexed": true,
          "internalType": "uint256",
          "name": "tokenId",
          "type": "uint256"
        },
        {
          "indexed": false,
          "internalType": "address payable[]",
          "name": "accounts",
          "type": "address[]"
        },
        {
          "indexed": false,
          "internalType": "int32[]",
          "name": "tokensDiffs",
          "type": "int32[]"
        }
      ],
      "name": "TokenResliced",
      "type": "event"
    },
    {
      "anonymous": false,
      "inputs": [
        {
          "indexed": true,
          "internalType": "address",
          "name": "slicerAddress",
          "type": "address"
        },
        {
          "indexed": true,
          "internalType": "uint256",
          "name": "tokenId",
          "type": "uint256"
        },
        {
          "components": [
            {
              "components": [
                {
                  "internalType": "address",
                  "name": "account",
                  "type": "address"
                },
                {
                  "internalType": "uint32",
                  "name": "shares",
                  "type": "uint32"
                },
                {
                  "internalType": "bool",
                  "name": "transfersAllowedWhileLocked",
                  "type": "bool"
                }
              ],
              "internalType": "struct Payee[]",
              "name": "payees",
              "type": "tuple[]"
            },
            {
              "internalType": "uint256",
              "name": "minimumShares",
              "type": "uint256"
            },
            {
              "internalType": "address[]",
              "name": "currencies",
              "type": "address[]"
            },
            {
              "internalType": "uint256",
              "name": "releaseTimelock",
              "type": "uint256"
            },
            {
              "internalType": "uint40",
              "name": "transferTimelock",
              "type": "uint40"
            },
            {
              "internalType": "address",
              "name": "controller",
              "type": "address"
            },
            {
              "internalType": "uint8",
              "name": "slicerFlags",
              "type": "uint8"
            },
            {
              "internalType": "uint8",
              "name": "sliceCoreFlags",
              "type": "uint8"
            }
          ],
          "indexed": false,
          "internalType": "struct SliceParams",
          "name": "params",
          "type": "tuple"
        },
        {
          "indexed": true,
          "internalType": "uint256",
          "name": "slicerVersion",
          "type": "uint256"
        }
      ],
      "name": "TokenSliced",
      "type": "event"
    },
    {
      "anonymous": false,
      "inputs": [
        {
          "indexed": true,
          "internalType": "address",
          "name": "operator",
          "type": "address"
        },
        {
          "indexed": true,
          "internalType": "address",
          "name": "from",
          "type": "address"
        },
        {
          "indexed": true,
          "internalType": "address",
          "name": "to",
          "type": "address"
        },
        {
          "indexed": false,
          "internalType": "uint256[]",
          "name": "ids",
          "type": "uint256[]"
        },
        {
          "indexed": false,
          "internalType": "uint256[]",
          "name": "values",
          "type": "uint256[]"
        }
      ],
      "name": "TransferBatch",
      "type": "event"
    },
    {
      "anonymous": false,
      "inputs": [
        {
          "indexed": true,
          "internalType": "address",
          "name": "operator",
          "type": "address"
        },
        {
          "indexed": true,
          "internalType": "address",
          "name": "from",
          "type": "address"
        },
        {
          "indexed": true,
          "internalType": "address",
          "name": "to",
          "type": "address"
        },
        {
          "indexed": false,
          "internalType": "uint256",
          "name": "id",
          "type": "uint256"
        },
        {
          "indexed": false,
          "internalType": "uint256",
          "name": "value",
          "type": "uint256"
        }
      ],
      "name": "TransferSingle",
      "type": "event"
    },
    {
      "anonymous": false,
      "inputs": [
        {
          "indexed": false,
          "internalType": "string",
          "name": "value",
          "type": "string"
        },
        {
          "indexed": true,
          "internalType": "uint256",
          "name": "id",
          "type": "uint256"
        }
      ],
      "name": "URI",
      "type": "event"
    },
    {
      "anonymous": false,
      "inputs": [
        {
          "indexed": false,
          "internalType": "address",
          "name": "account",
          "type": "address"
        }
      ],
      "name": "Unpaused",
      "type": "event"
    },
    {
      "anonymous": false,
      "inputs": [
        {
          "indexed": true,
          "internalType": "address",
          "name": "implementation",
          "type": "address"
        }
      ],
      "name": "Upgraded",
      "type": "event"
    },
    {
      "inputs": [
        {
          "internalType": "string",
          "name": "basePath_",
          "type": "string"
        }
      ],
      "name": "_setBasePath",
      "outputs": [],
      "stateMutability": "nonpayable",
      "type": "function"
    },
    {
      "inputs": [],
      "name": "_togglePause",
      "outputs": [],
      "stateMutability": "nonpayable",
      "type": "function"
    },
    {
      "inputs": [
        {
          "internalType": "address",
          "name": "account",
          "type": "address"
        },
        {
          "internalType": "uint256",
          "name": "id",
          "type": "uint256"
        }
      ],
      "name": "balanceOf",
      "outputs": [
        {
          "internalType": "uint256",
          "name": "",
          "type": "uint256"
        }
      ],
      "stateMutability": "view",
      "type": "function"
    },
    {
      "inputs": [
        {
          "internalType": "address[]",
          "name": "accounts",
          "type": "address[]"
        },
        {
          "internalType": "uint256[]",
          "name": "ids",
          "type": "uint256[]"
        }
      ],
      "name": "balanceOfBatch",
      "outputs": [
        {
          "internalType": "uint256[]",
          "name": "",
          "type": "uint256[]"
        }
      ],
      "stateMutability": "view",
      "type": "function"
    },
    {
      "inputs": [
        {
          "internalType": "uint256",
          "name": "id",
          "type": "uint256"
        }
      ],
      "name": "controller",
      "outputs": [
        {
          "internalType": "address",
          "name": "",
          "type": "address"
        }
      ],
      "stateMutability": "view",
      "type": "function"
    },
    {
      "inputs": [
        {
          "internalType": "uint256",
          "name": "id",
          "type": "uint256"
        }
      ],
      "name": "exists",
      "outputs": [
        {
          "internalType": "bool",
          "name": "",
          "type": "bool"
        }
      ],
      "stateMutability": "view",
      "type": "function"
    },
    {
      "inputs": [],
      "name": "initialize",
      "outputs": [],
      "stateMutability": "nonpayable",
      "type": "function"
    },
    {
      "inputs": [
        {
          "internalType": "address",
          "name": "account",
          "type": "address"
        },
        {
          "internalType": "address",
          "name": "operator",
          "type": "address"
        }
      ],
      "name": "isApprovedForAll",
      "outputs": [
        {
          "internalType": "bool",
          "name": "",
          "type": "bool"
        }
      ],
      "stateMutability": "view",
      "type": "function"
    },
    {
      "inputs": [],
      "name": "owner",
      "outputs": [
        {
          "internalType": "address",
          "name": "",
          "type": "address"
        }
      ],
      "stateMutability": "view",
      "type": "function"
    },
    {
      "inputs": [],
      "name": "paused",
      "outputs": [
        {
          "internalType": "bool",
          "name": "",
          "type": "bool"
        }
      ],
      "stateMutability": "view",
      "type": "function"
    },
    {
      "inputs": [],
      "name": "proxiableUUID",
      "outputs": [
        {
          "internalType": "bytes32",
          "name": "",
          "type": "bytes32"
        }
      ],
      "stateMutability": "view",
      "type": "function"
    },
    {
      "inputs": [],
      "name": "renounceOwnership",
      "outputs": [],
      "stateMutability": "nonpayable",
      "type": "function"
    },
    {
      "inputs": [
        {
          "internalType": "uint256",
          "name": "tokenId",
          "type": "uint256"
        },
        {
          "internalType": "address payable[]",
          "name": "accounts",
          "type": "address[]"
        },
        {
          "internalType": "int32[]",
          "name": "tokensDiffs",
          "type": "int32[]"
        }
      ],
      "name": "reslice",
      "outputs": [],
      "stateMutability": "nonpayable",
      "type": "function"
    },
    {
      "inputs": [
        {
          "internalType": "uint256",
          "name": "tokenId",
          "type": "uint256"
        },
        {
          "internalType": "uint256",
          "name": "salePrice",
          "type": "uint256"
        }
      ],
      "name": "royaltyInfo",
      "outputs": [
        {
          "internalType": "address",
          "name": "receiver",
          "type": "address"
        },
        {
          "internalType": "uint256",
          "name": "royaltyAmount",
          "type": "uint256"
        }
      ],
      "stateMutability": "view",
      "type": "function"
    },
    {
      "inputs": [
        {
          "internalType": "address",
          "name": "from",
          "type": "address"
        },
        {
          "internalType": "address",
          "name": "to",
          "type": "address"
        },
        {
          "internalType": "uint256[]",
          "name": "ids",
          "type": "uint256[]"
        },
        {
          "internalType": "uint256[]",
          "name": "amounts",
          "type": "uint256[]"
        },
        {
          "internalType": "bytes",
          "name": "data",
          "type": "bytes"
        }
      ],
      "name": "safeBatchTransferFrom",
      "outputs": [],
      "stateMutability": "nonpayable",
      "type": "function"
    },
    {
      "inputs": [
        {
          "internalType": "address",
          "name": "from",
          "type": "address"
        },
        {
          "internalType": "address",
          "name": "to",
          "type": "address"
        },
        {
          "internalType": "uint256",
          "name": "id",
          "type": "uint256"
        },
        {
          "internalType": "uint256",
          "name": "amount",
          "type": "uint256"
        },
        {
          "internalType": "bytes",
          "name": "data",
          "type": "bytes"
        }
      ],
      "name": "safeTransferFrom",
      "outputs": [],
      "stateMutability": "nonpayable",
      "type": "function"
    },
    {
      "inputs": [
        {
          "internalType": "address",
          "name": "from",
          "type": "address"
        },
        {
          "internalType": "address",
          "name": "to",
          "type": "address"
        },
        {
          "internalType": "uint256",
          "name": "id",
          "type": "uint256"
        },
        {
          "internalType": "uint256",
          "name": "amount",
          "type": "uint256"
        },
        {
          "internalType": "bytes",
          "name": "data",
          "type": "bytes"
        }
      ],
      "name": "safeTransferFromUnreleased",
      "outputs": [],
      "stateMutability": "nonpayable",
      "type": "function"
    },
    {
      "inputs": [
        {
          "internalType": "address",
          "name": "operator",
          "type": "address"
        },
        {
          "internalType": "bool",
          "name": "approved",
          "type": "bool"
        }
      ],
      "name": "setApprovalForAll",
      "outputs": [],
      "stateMutability": "nonpayable",
      "type": "function"
    },
    {
      "inputs": [
        {
          "internalType": "uint256",
          "name": "id",
          "type": "uint256"
        },
        {
          "internalType": "address",
          "name": "newController",
          "type": "address"
        }
      ],
      "name": "setController",
      "outputs": [],
      "stateMutability": "nonpayable",
      "type": "function"
    },
    {
      "inputs": [
        {
          "internalType": "uint256",
          "name": "tokenId",
          "type": "uint256"
        },
        {
          "internalType": "bool",
          "name": "isSlicer",
          "type": "bool"
        },
        {
          "internalType": "bool",
          "name": "isActive",
          "type": "bool"
        },
        {
          "internalType": "uint256",
          "name": "royaltyPercentage",
          "type": "uint256"
        }
      ],
      "name": "setRoyalty",
      "outputs": [],
      "stateMutability": "nonpayable",
      "type": "function"
    },
    {
      "inputs": [
        {
          "components": [
            {
              "components": [
                {
                  "internalType": "address",
                  "name": "account",
                  "type": "address"
                },
                {
                  "internalType": "uint32",
                  "name": "shares",
                  "type": "uint32"
                },
                {
                  "internalType": "bool",
                  "name": "transfersAllowedWhileLocked",
                  "type": "bool"
                }
              ],
              "internalType": "struct Payee[]",
              "name": "payees",
              "type": "tuple[]"
            },
            {
              "internalType": "uint256",
              "name": "minimumShares",
              "type": "uint256"
            },
            {
              "internalType": "address[]",
              "name": "currencies",
              "type": "address[]"
            },
            {
              "internalType": "uint256",
              "name": "releaseTimelock",
              "type": "uint256"
            },
            {
              "internalType": "uint40",
              "name": "transferTimelock",
              "type": "uint40"
            },
            {
              "internalType": "address",
              "name": "controller",
              "type": "address"
            },
            {
              "internalType": "uint8",
              "name": "slicerFlags",
              "type": "uint8"
            },
            {
              "internalType": "uint8",
              "name": "sliceCoreFlags",
              "type": "uint8"
            }
          ],
          "internalType": "struct SliceParams",
          "name": "params",
          "type": "tuple"
        }
      ],
      "name": "slice",
      "outputs": [],
      "stateMutability": "nonpayable",
      "type": "function"
    },
    {
      "inputs": [
        {
          "internalType": "address",
          "name": "from",
          "type": "address"
        },
        {
          "internalType": "address[]",
          "name": "recipients",
          "type": "address[]"
        },
        {
          "internalType": "uint256",
          "name": "id",
          "type": "uint256"
        },
        {
          "internalType": "uint256[]",
          "name": "amounts",
          "type": "uint256[]"
        },
        {
          "internalType": "bool",
          "name": "toRelease",
          "type": "bool"
        }
      ],
      "name": "slicerBatchTransfer",
      "outputs": [],
      "stateMutability": "nonpayable",
      "type": "function"
    },
    {
      "inputs": [
        {
          "internalType": "uint256",
          "name": "id",
          "type": "uint256"
        }
      ],
      "name": "slicers",
      "outputs": [
        {
          "internalType": "address",
          "name": "",
          "type": "address"
        }
      ],
      "stateMutability": "view",
      "type": "function"
    },
    {
      "inputs": [],
      "name": "supply",
      "outputs": [
        {
          "internalType": "uint256",
          "name": "",
          "type": "uint256"
        }
      ],
      "stateMutability": "view",
      "type": "function"
    },
    {
      "inputs": [
        {
          "internalType": "bytes4",
          "name": "interfaceId",
          "type": "bytes4"
        }
      ],
      "name": "supportsInterface",
      "outputs": [
        {
          "internalType": "bool",
          "name": "",
          "type": "bool"
        }
      ],
      "stateMutability": "view",
      "type": "function"
    },
    {
      "inputs": [
        {
          "internalType": "uint256",
          "name": "id",
          "type": "uint256"
        }
      ],
      "name": "totalSupply",
      "outputs": [
        {
          "internalType": "uint256",
          "name": "",
          "type": "uint256"
        }
      ],
      "stateMutability": "view",
      "type": "function"
    },
    {
      "inputs": [
        {
          "internalType": "address",
          "name": "newOwner",
          "type": "address"
        }
      ],
      "name": "transferOwnership",
      "outputs": [],
      "stateMutability": "nonpayable",
      "type": "function"
    },
    {
      "inputs": [
        {
          "internalType": "address",
          "name": "newImplementation",
          "type": "address"
        }
      ],
      "name": "upgradeTo",
      "outputs": [],
      "stateMutability": "nonpayable",
      "type": "function"
    },
    {
      "inputs": [
        {
          "internalType": "address",
          "name": "newImplementation",
          "type": "address"
        },
        {
          "internalType": "bytes",
          "name": "data",
          "type": "bytes"
        }
      ],
      "name": "upgradeToAndCall",
      "outputs": [],
      "stateMutability": "payable",
      "type": "function"
    },
    {
      "inputs": [
        {
          "internalType": "uint256",
          "name": "",
          "type": "uint256"
        }
      ],
      "name": "uri",
      "outputs": [
        {
          "internalType": "string",
          "name": "",
          "type": "string"
        }
      ],
      "stateMutability": "view",
      "type": "function"
    }
  ],
  "bytecode": "0x60a06040523060805234801561001457600080fd5b506080516149d861004c60003960008181611476015281816114b60152818161175e0152818161179e015261185201526149d86000f3fe6080604052600436106101cc5760003560e01c80634f558e79116100f7578063a468f1c711610095578063d0137a2c11610064578063d0137a2c14610589578063e985e9c5146105a9578063f242432a146105f2578063f2fde38b1461061257600080fd5b8063a468f1c7146104d1578063a58fa7c41461050b578063bd85b0391461052b578063c3592b0c1461056957600080fd5b8063715018a6116100d1578063715018a6146104695780638129fc1c1461047e5780638da5cb5b14610493578063a22cb465146104b157600080fd5b80634f558e791461041b57806352d1902d1461043b5780635c975abb1461045057600080fd5b806326b7fb481161016f5780633e5779ee1161013e5780633e5779ee146103a6578063405b4c36146103c65780634e1273f4146103db5780634f1ef2861461040857600080fd5b806326b7fb48146103075780632a55205a146103275780632eb2c2d6146103665780633659cfe61461038657600080fd5b8063059f424f116101ab578063059f424f146102495780630da9450a1461026b5780630e89341c1461028b578063175fa7ea146102b857600080fd5b8062fdd58e146101d157806301ffc9a714610204578063047fc9aa14610234575b600080fd5b3480156101dd57600080fd5b506101f16101ec36600461366d565b610632565b6040519081526020015b60405180910390f35b34801561021057600080fd5b5061022461021f3660046136af565b6106cb565b60405190151581526020016101fb565b34801561024057600080fd5b506101f161071d565b34801561025557600080fd5b506102696102643660046136cc565b61072e565b005b34801561027757600080fd5b5061026961028636600461374b565b610786565b34801561029757600080fd5b506102ab6102a6366004613793565b6109ba565b6040516101fb9190613804565b3480156102c457600080fd5b506102ef6102d3366004613793565b600090815261016060205260409020546001600160a01b031690565b6040516001600160a01b0390911681526020016101fb565b34801561031357600080fd5b50610269610322366004613862565b610a4e565b34801561033357600080fd5b506103476103423660046138db565b6110c3565b604080516001600160a01b0390931683526020830191909152016101fb565b34801561037257600080fd5b50610269610381366004613a46565b61123f565b34801561039257600080fd5b506102696103a1366004613af3565b61146c565b3480156103b257600080fd5b506102696103c1366004613b10565b61154b565b3480156103d257600080fd5b506102696115e3565b3480156103e757600080fd5b506103fb6103f6366004613baf565b61162b565b6040516101fb9190613c4d565b610269610416366004613c60565b611754565b34801561042757600080fd5b50610224610436366004613793565b611820565b34801561044757600080fd5b506101f1611845565b34801561045c57600080fd5b5061012d5460ff16610224565b34801561047557600080fd5b506102696118f9565b34801561048a57600080fd5b5061026961192d565b34801561049f57600080fd5b506097546001600160a01b03166102ef565b3480156104bd57600080fd5b506102696104cc366004613ca5565b6119ed565b3480156104dd57600080fd5b506102ef6104ec366004613793565b600090815261016060205260409020600101546001600160a01b031690565b34801561051757600080fd5b50610269610526366004613cd3565b6119f8565b34801561053757600080fd5b506101f1610546366004613793565b60009081526101606020526040902060010154600160c81b900463ffffffff1690565b34801561057557600080fd5b50610269610584366004613d67565b611b9e565b34801561059557600080fd5b506102696105a4366004613dcf565b611c5e565b3480156105b557600080fd5b506102246105c4366004613e0a565b6001600160a01b03918216600090815260fc6020908152604080832093909416825291909152205460ff1690565b3480156105fe57600080fd5b5061026961060d366004613d67565b612138565b34801561061e57600080fd5b5061026961062d366004613af3565b61220a565b60006001600160a01b0383166106a35760405162461bcd60e51b815260206004820152602b60248201527f455243313135353a2062616c616e636520717565727920666f7220746865207a60448201526a65726f206164647265737360a81b60648201526084015b60405180910390fd5b50600090815260fb602090815260408083206001600160a01b03949094168352929052205490565b60006001600160e01b03198216636cdb3d1360e11b14806106fc57506001600160e01b031982166303a24d0760e21b145b8061071757506301ffc9a760e01b6001600160e01b03198316145b92915050565b600061072961015f5490565b905090565b6097546001600160a01b031633146107585760405162461bcd60e51b815260040161069a90613e38565b610782828260405160200161076e929190613e6d565b6040516020818303038152906040526122a2565b5050565b61078f84611820565b158061079b5750606481115b156107b957604051636dac6a0960e01b815260040160405180910390fd5b600084815261016060205260409020600101546001600160a01b03161561081a57600084815261016060205260409020600101546001600160a01b031633146108155760405163ea8e4eb560e01b815260040160405180910390fd5b6108d3565b60008481526101606020526040808220548151634abf03db60e11b815291516001600160a01b039091169163957e07b691600480830192869291908290030181865afa15801561086e573d6000803e3d6000fd5b505050506040513d6000823e601f3d908101601f191682016040526108969190810190613ef5565b505050505092505050806001600160a01b0316336001600160a01b0316146108d15760405163ea8e4eb560e01b815260040160405180910390fd5b505b600084815261016060205260409020600101805460ff60e81b1916600160e81b60ff8416021790558115610936576000848152610160602052604090206001908101805460ff60f01b198116600160f01b9182900460ff16909317029190911790555b821561096e57600084815261016060205260409020600101805460ff60f01b1981166002600160f01b9283900460ff16179091021790555b604080518415158152831515602082015290810182905284907f4fbf3dc0947ba89435d8dee95cfad6b2e458d3474fb5b840ce6d4a41f5e707c99060600160405180910390a250505050565b606060fd80546109c990613fa7565b80601f01602080910402602001604051908101604052809291908181526020018280546109f590613fa7565b8015610a425780601f10610a1757610100808354040283529160200191610a42565b820191906000526020600020905b815481529060010190602001808311610a2557829003601f168201915b50505050509050919050565b600085815261016060205260409020600190810154600160f01b900460021c161580610a955750600085815261016060205260409020600101546001600160a01b03163314155b15610ab35760405163ea8e4eb560e01b815260040160405180910390fd5b828114610ad357604051636dac6a0960e01b815260040160405180910390fd5b60008581526101606020526040808220548151634abf03db60e11b815291516001600160a01b039091169163957e07b691600480830192869291908290030181865afa158015610b27573d6000803e3d6000fd5b505050506040513d6000823e601f3d908101601f19168201604052610b4f9190810190613ef5565b97505050505050505060008060005b86811015610f2b57610b96888883818110610b7b57610b7b613fe1565b9050602002016020810190610b909190613af3565b8a610632565b60008a815261016060205260409020549092506001600160a01b031663d3c65754898984818110610bc957610bc9613fe1565b9050602002016020810190610bde9190613af3565b6040516001600160e01b031960e084901b1681526001600160a01b0390911660048201526000602482015260448101859052606401600060405180830381600087803b158015610c2d57600080fd5b505af1158015610c41573d6000803e3d6000fd5b50505060008a815261016060205260409020546001600160a01b0316905063d3c65754898984818110610c7657610c76613fe1565b9050602002016020810190610c8b9190613af3565b6040516001600160e01b031960e084901b1681526001600160a01b0390911660048201527356639db16ac50a89228026e42a316b30179a5376602482015260448101859052606401600060405180830381600087803b158015610ced57600080fd5b505af1158015610d01573d6000803e3d6000fd5b5050505060005b8451811015610de55760008a815261016060205260409020546001600160a01b031663d3c657548a8a85818110610d4157610d41613fe1565b9050602002016020810190610d569190613af3565b878481518110610d6857610d68613fe1565b60209081029190910101516040516001600160e01b031960e085901b1681526001600160a01b0392831660048201529116602482015260448101869052606401600060405180830381600087803b158015610dc257600080fd5b505af1158015610dd6573d6000803e3d6000fd5b50505050806001019050610d08565b506000868683818110610dfa57610dfa613fe1565b9050602002016020810190610e0f9190614009565b60030b1315610e8a57610e85888883818110610e2d57610e2d613fe1565b9050602002016020810190610e429190613af3565b8a888885818110610e5557610e55613fe1565b9050602002016020810190610e6a9190614009565b63ffffffff16604051806020016040528060008152506122b5565b610ef0565b610ef0888883818110610e9f57610e9f613fe1565b9050602002016020810190610eb49190613af3565b8a888885818110610ec757610ec7613fe1565b9050602002016020810190610edc9190614009565b610ee59061403a565b63ffffffff166123c7565b858582818110610f0257610f02613fe1565b9050602002016020810190610f179190614009565b610f21908461405d565b9250600101610b5e565b5060008260030b1315610f8d576000888152610160602052604090206001018054839190601990610f6a908490600160c81b900463ffffffff166140a6565b92506101000a81548163ffffffff021916908363ffffffff160217905550610ff0565b60008260030b1215610ff057610fa28261403a565b6000898152610160602052604090206001018054601990610fd1908490600160c81b900463ffffffff166140ce565b92506101000a81548163ffffffff021916908363ffffffff1602179055505b60008881526101606020526040908190208054600190910154915163e32cf85160e01b81526001600160a01b039091169163e32cf85191611049918b918b918b918b91600160c81b900463ffffffff1690600401614167565b600060405180830381600087803b15801561106357600080fd5b505af1158015611077573d6000803e3d6000fd5b50505050877f50ab7f68b6b57e8f7634376d5e840c72b2b7f3e69bc52a6a12e3c777061b36b0888888886040516110b194939291906141a7565b60405180910390a25050505050505050565b6000806110cf84611820565b6110ec57604051636dac6a0960e01b815260040160405180910390fd5b600084815261016060205260408120600180820154919291600160f01b9004168103611119576032611129565b6001820154600160e81b900460ff165b60ff1690506103e861113b82876141d9565b61114591906141f8565b600183810154919450600160f01b909104811c161561117e57600086815261016060205260409020546001600160a01b03169350611236565b60008681526101606020526040808220548151634abf03db60e11b8152915183926001600160a01b039092169163957e07b691600480830192869291908290030181865afa1580156111d4573d6000803e3d6000fd5b505050506040513d6000823e601f3d908101601f191682016040526111fc9190810190613ef5565b50505094505093505050801561122f57600088815261016060205260409020600101546001600160a01b03169550611233565b8195505b50505b50509250929050565b600083516001600160401b0381111561125a5761125a6138fd565b604051908082528060200260200182016040528015611283578160200160208202803683370190505b50905060006001600160a01b0387163314806112a457506112a487336105c4565b905060005b8551811015611446576112d58682815181106112c7576112c7613fe1565b60200260200101518961253a565b600061016060008884815181106112ee576112ee613fe1565b6020026020010151815260200190815260200160002060010160009054906101000a90046001600160a01b031690506003610160600089858151811061133657611336613fe1565b60200260200101518152602001908152602001600020600101601e9054906101000a900460ff1660ff16901c60011660ff1660001415801561138057506001600160a01b03811615155b156113b2576001600160a01b03811633146113ad5760405162461bcd60e51b815260040161069a9061421a565b6113cf565b826113cf5760405162461bcd60e51b815260040161069a90614251565b61016060008884815181106113e6576113e6613fe1565b6020026020010151815260200190815260200160002060000160009054906101000a90046001600160a01b031684838151811061142557611425613fe1565b6001600160a01b0390921660209283029190910190910152506001016112a9565b50611456878787858860016125ae565b611463878787878761275e565b50505050505050565b6001600160a01b037f00000000000000000000000000000000000000000000000000000000000000001630036114b45760405162461bcd60e51b815260040161069a9061429a565b7f00000000000000000000000000000000000000000000000000000000000000006001600160a01b03166114fd60008051602061495c833981519152546001600160a01b031690565b6001600160a01b0316146115235760405162461bcd60e51b815260040161069a906142e6565b61152c8161294c565b6040805160008082526020820190925261154891839190612976565b50565b600082815261016060205260409020600101546001600160a01b031633146115865760405163ea8e4eb560e01b815260040160405180910390fd5b6000828152610160602052604080822060010180546001600160a01b0319166001600160a01b0385169081179091559051909184917f2f1bd54f0cb5e0788fcb50aa92b6c88987bd2459fee273daa38b57af0717bd649190a35050565b6097546001600160a01b0316331461160d5760405162461bcd60e51b815260040161069a90613e38565b61012d5460ff161561162357611621612ae6565b565b611621612b7b565b606081518351146116905760405162461bcd60e51b815260206004820152602960248201527f455243313135353a206163636f756e747320616e6420696473206c656e677468604482015268040dad2e6dac2e8c6d60bb1b606482015260840161069a565b600083516001600160401b038111156116ab576116ab6138fd565b6040519080825280602002602001820160405280156116d4578160200160208202803683370190505b50905060005b845181101561174c5761171f8582815181106116f8576116f8613fe1565b602002602001015185838151811061171257611712613fe1565b6020026020010151610632565b82828151811061173157611731613fe1565b602090810291909101015261174581614332565b90506116da565b509392505050565b6001600160a01b037f000000000000000000000000000000000000000000000000000000000000000016300361179c5760405162461bcd60e51b815260040161069a9061429a565b7f00000000000000000000000000000000000000000000000000000000000000006001600160a01b03166117e560008051602061495c833981519152546001600160a01b031690565b6001600160a01b03161461180b5760405162461bcd60e51b815260040161069a906142e6565b6118148261294c565b61078282826001612976565b60009081526101606020526040902060010154600160c81b900463ffffffff16151590565b6000306001600160a01b037f000000000000000000000000000000000000000000000000000000000000000016146118e55760405162461bcd60e51b815260206004820152603860248201527f555550535570677261646561626c653a206d757374206e6f742062652063616c60448201527f6c6564207468726f7567682064656c656761746563616c6c0000000000000000606482015260840161069a565b5060008051602061495c8339815191525b90565b6097546001600160a01b031633146119235760405162461bcd60e51b815260040161069a90613e38565b6116216000612bf8565b600054610100900460ff166119485760005460ff161561194c565b303b155b6119af5760405162461bcd60e51b815260206004820152602e60248201527f496e697469616c697a61626c653a20636f6e747261637420697320616c72656160448201526d191e481a5b9a5d1a585b1a5e995960921b606482015260840161069a565b600054610100900460ff161580156119d1576000805461ffff19166101011790555b6119d9612c4a565b8015611548576000805461ff001916905550565b610782338383612c79565b8151845114611a1a57604051636dac6a0960e01b815260040160405180910390fd5b60008381526101606020526040902060010154600160f01b900460ff168180611a4957506001600282901c1615155b8015611a5b57506001600382901c1615155b8015611a815750600084815261016060205260409020600101546001600160a01b031615155b15611ac557600084815261016060205260409020600101546001600160a01b03163314611ac05760405162461bcd60e51b815260040161069a9061421a565b611afd565b6001600160a01b038616331480611ae15750611ae186336105c4565b611afd5760405162461bcd60e51b815260040161069a90614251565b60005b855181101561146357611b4887878381518110611b1f57611b1f613fe1565b602002602001015187878581518110611b3a57611b3a613fe1565b602002602001015187612d59565b611b9687878381518110611b5e57611b5e613fe1565b602002602001015187878581518110611b7957611b79613fe1565b602002602001015160405180602001604052806000815250612e68565b600101611b00565b600083815261016060205260409020600190810154600160f01b900460031c1615801590611be65750600083815261016060205260409020600101546001600160a01b031615155b15611c045760405163ea8e4eb560e01b815260040160405180910390fd5b6001600160a01b038516331480611c205750611c2085336105c4565b611c3c5760405162461bcd60e51b815260040161069a90614251565b611c4a858585856000612d59565b611c578585858585612e68565b5050505050565b61012d5460ff1615611ca55760405162461bcd60e51b815260206004820152601060248201526f14185d5cd8589b194e881c185d5cd95960821b604482015260640161069a565b8060200135600003611cca57604051636dac6a0960e01b815260040160405180910390fd5b6000611cd661015f5490565b6040516331d3055160e01b8152909150600090735fc8d32690cc91d4c39d9d3abcbd16989f875707906331d3055190611d179033908690889060040161452a565b6020604051808303816000875af1158015611d36573d6000803e3d6000fd5b505050506040513d601f19601f82011682018060405250810190611d5a9190614551565b90506000611d6e60c0850160a08601613af3565b6001600160a01b031614611dbd57611d8c60c0840160a08501613af3565b60008381526101606020526040902060010180546001600160a01b0319166001600160a01b03929092169190911790555b611dcd60a084016080850161456e565b64ffffffffff1615611e2157611de960a084016080850161456e565b600083815261016060205260409020600101805464ffffffffff92909216600160a01b0264ffffffffff60a01b199092169190911790555b6004611e3360e0850160c08601614589565b60ff16901c60ff16600014611e5b57604051636dac6a0960e01b815260040160405180910390fd5b611e6c610100840160e08501614589565b60ff1615611ef0576004611e87610100850160e08601614589565b60ff16901c60ff16600014611eaf57604051636dac6a0960e01b815260040160405180910390fd5b611ec0610100840160e08501614589565b600083815261016060205260409020600101805460ff92909216600160f01b0260ff60f01b199092169190911790555b60008281526101606020908152604080832080546001600160a01b0319166001600160a01b0386161790558051606081018252838152918201839052810182905260005b611f3e86806145a4565b905081101561201957611f5186806145a4565b82818110611f6157611f61613fe1565b905060600201803603810190611f7791906145ec565b80519092506001600160a01b03163b15611f9b57611f9b8483600001516001612f80565b611fc4826000015186846020015163ffffffff16604051806020016040528060008152506122b5565b8160400151156120015760008581526101606020908152604080832085516001600160a01b031684526002019091529020805460ff191660011790555b602082015163ffffffff169290920191600101611f34565b5081158061202a575063ffffffff82115b806120385750818560200135115b1561205657604051636dac6a0960e01b815260040160405180910390fd5b6000848152610160602052604090819020600101805463ffffffff60c81b1916600160c81b63ffffffff86160217905551634e9270c360e11b8152600481018390526001600160a01b03841690639d24e18690602401600060405180830381600087803b1580156120c657600080fd5b505af11580156120da573d6000803e3d6000fd5b505050506120ed61015f80546001019055565b600084846001600160a01b03167f1a745e1b60f6dec9004d9002b50154d758f015c01c2b80ca2f88458bee69801188604051612129919061465b565b60405180910390a45050505050565b600083815261016060205260409020600190810154600160f01b900460031c16158015906121805750600083815261016060205260409020600101546001600160a01b031615155b156121c457600083815261016060205260409020600101546001600160a01b031633146121bf5760405162461bcd60e51b815260040161069a9061421a565b6121fc565b6001600160a01b0385163314806121e057506121e085336105c4565b6121fc5760405162461bcd60e51b815260040161069a90614251565b611c4a858585856001612d59565b6097546001600160a01b031633146122345760405162461bcd60e51b815260040161069a90613e38565b6001600160a01b0381166122995760405162461bcd60e51b815260206004820152602660248201527f4f776e61626c653a206e6577206f776e657220697320746865207a65726f206160448201526564647265737360d01b606482015260840161069a565b61154881612bf8565b80516107829060fd9060208401906135af565b6001600160a01b0384166123155760405162461bcd60e51b815260206004820152602160248201527f455243313135353a206d696e7420746f20746865207a65726f206164647265736044820152607360f81b606482015260840161069a565b3361233581600087612326886130be565b61232f886130be565b87613109565b600084815260fb602090815260408083206001600160a01b03891684529091528120805485929061236790849061466e565b909155505060408051858152602081018590526001600160a01b0380881692600092918516917fc3d58168c5ae7397731d063d5bbf3d657854427343f4c083240f7aacaa2d0f62910160405180910390a4611c578160008787878761312e565b6001600160a01b0383166124295760405162461bcd60e51b815260206004820152602360248201527f455243313135353a206275726e2066726f6d20746865207a65726f206164647260448201526265737360e81b606482015260840161069a565b336124588185600061243a876130be565b612443876130be565b60405180602001604052806000815250613109565b600083815260fb602090815260408083206001600160a01b0388168452909152902054828110156124d75760405162461bcd60e51b8152602060048201526024808201527f455243313135353a206275726e20616d6f756e7420657863656564732062616c604482015263616e636560e01b606482015260840161069a565b600084815260fb602090815260408083206001600160a01b03898116808652918452828520888703905582518981529384018890529092908616917fc3d58168c5ae7397731d063d5bbf3d657854427343f4c083240f7aacaa2d0f629101612129565b60008281526101606020526040902060010154600160a01b900464ffffffffff164210801561259057506000828152610160602090815260408083206001600160a01b038516845260020190915290205460ff16155b1561078257604051630934355760e11b815260040160405180910390fd5b6001600160a01b0385163b151560005b8451811015612754578381815181106125d9576125d9613fe1565b602002602001015160000361260157604051636dac6a0960e01b815260040160405180910390fd5b81156126775784818151811061261957612619613fe1565b60200260200101516001600160a01b0316876001600160a01b031603612652576040516368ee781960e11b815260040160405180910390fd5b61267785828151811061266757612667613fe1565b6020026020010151886001612f80565b84818151811061268957612689613fe1565b60200260200101516001600160a01b031663b230074a8989866126b88d8c888151811061171257611712613fe1565b8987815181106126ca576126ca613fe1565b60209081029190910101516040516001600160e01b031960e088901b1681526001600160a01b03958616600482015294909316602485015290151560448401526064830152608482015260a401600060405180830381600087803b15801561273157600080fd5b505af1158015612745573d6000803e3d6000fd5b505050508060010190506125be565b5050505050505050565b81518351146127c05760405162461bcd60e51b815260206004820152602860248201527f455243313135353a2069647320616e6420616d6f756e7473206c656e677468206044820152670dad2e6dac2e8c6d60c31b606482015260840161069a565b6001600160a01b0384166127e65760405162461bcd60e51b815260040161069a90614686565b336127f5818787878787613109565b60005b84518110156128de57600085828151811061281557612815613fe1565b60200260200101519050600085838151811061283357612833613fe1565b602090810291909101810151600084815260fb835260408082206001600160a01b038e1683529093529190912054909150818110156128845760405162461bcd60e51b815260040161069a906146cb565b600083815260fb602090815260408083206001600160a01b038e8116855292528083208585039055908b168252812080548492906128c390849061466e565b92505081905550505050806128d790614332565b90506127f8565b50846001600160a01b0316866001600160a01b0316826001600160a01b03167f4a39dc06d4c0dbc64b70af90fd698a233a518aa5d07e595d983b8c0526c8f7fb878760405161292e929190614715565b60405180910390a4612944818787878787613289565b505050505050565b6097546001600160a01b031633146115485760405162461bcd60e51b815260040161069a90613e38565b7f4910fdfa16fed3260ed0e7147f7cc6da11a60208b5b9406d12a635614ffd91435460ff16156129ae576129a983613344565b505050565b826001600160a01b03166352d1902d6040518163ffffffff1660e01b8152600401602060405180830381865afa925050508015612a08575060408051601f3d908101601f19168201909252612a059181019061473a565b60015b612a6b5760405162461bcd60e51b815260206004820152602e60248201527f45524331393637557067726164653a206e657720696d706c656d656e7461746960448201526d6f6e206973206e6f74205555505360901b606482015260840161069a565b60008051602061495c8339815191528114612ada5760405162461bcd60e51b815260206004820152602960248201527f45524331393637557067726164653a20756e737570706f727465642070726f786044820152681a58589b195555525160ba1b606482015260840161069a565b506129a98383836133e0565b61012d5460ff16612b305760405162461bcd60e51b815260206004820152601460248201527314185d5cd8589b194e881b9bdd081c185d5cd95960621b604482015260640161069a565b61012d805460ff191690557f5db9ee0a495bf2e6ff9c91a7834c1ba4fdd244a5e8aa4e537bd38aeae4b073aa335b6040516001600160a01b03909116815260200160405180910390a1565b61012d5460ff1615612bc25760405162461bcd60e51b815260206004820152601060248201526f14185d5cd8589b194e881c185d5cd95960821b604482015260640161069a565b61012d805460ff191660011790557f62e78cea01bee320cd4e420270b5ea74000d11b0c9f74754ebdbfc544b05a258612b5e3390565b609780546001600160a01b038381166001600160a01b0319831681179093556040519116919082907f8be0079c531659141344cd1fd0a4f28419497f9722a3daafe3b4186f6b6457e090600090a35050565b600054610100900460ff16612c715760405162461bcd60e51b815260040161069a90614753565b61162161340b565b816001600160a01b0316836001600160a01b031603612cec5760405162461bcd60e51b815260206004820152602960248201527f455243313135353a2073657474696e6720617070726f76616c20737461747573604482015268103337b91039b2b63360b91b606482015260840161069a565b6001600160a01b03838116600081815260fc6020908152604080832094871680845294825291829020805460ff191686151590811790915591519182527f17307eab39ab6107e8899845ad3d59bd9653f200f220920489ca2b5937696c31910160405180910390a3505050565b612d63838661253a565b60408051600180825281830190925260009160208083019080368337505060408051600180825281830190925292935060009291506020808301908036833750506040805160018082528183019092529293506000929150602080830190803683370190505090508583600081518110612ddf57612ddf613fe1565b6020908102919091018101919091526000878152610160909152604081205483516001600160a01b03909116918491612e1a57612e1a613fe1565b60200260200101906001600160a01b031690816001600160a01b0316815250508481600081518110612e4e57612e4e613fe1565b6020026020010181815250506127548888858585896125ae565b6001600160a01b038416612e8e5760405162461bcd60e51b815260040161069a90614686565b33612e9e818787612326886130be565b600084815260fb602090815260408083206001600160a01b038a16845290915290205483811015612ee15760405162461bcd60e51b815260040161069a906146cb565b600085815260fb602090815260408083206001600160a01b038b8116855292528083208785039055908816825281208054869290612f2090849061466e565b909155505060408051868152602081018690526001600160a01b03808916928a821692918616917fc3d58168c5ae7397731d063d5bbf3d657854427343f4c083240f7aacaa2d0f62910160405180910390a461146382888888888861312e565b60408051600481526024810182526020810180516001600160e01b0316634abf03db60e11b179052905160009182916001600160a01b03861691612fc39161479e565b600060405180830381855afa9150503d8060008114612ffe576040519150601f19603f3d011682016040523d82523d6000602084013e613003565b606091505b50915091508115611c57576000818060200190518101906130249190613ef5565b505050600085815261016060205260409020549495505050506001600160a01b03878116921691909103905061294457604051637669b10560e11b81526004810182905284151560248201526001600160a01b0387169063ecd3620a90604401600060405180830381600087803b15801561309e57600080fd5b505af11580156130b2573d6000803e3d6000fd5b50505050505050505050565b604080516001808252818301909252606091600091906020808301908036833701905050905082816000815181106130f8576130f8613fe1565b602090810291909101015292915050565b61012d5460ff161561294457604051631309a56360e01b815260040160405180910390fd5b6001600160a01b0384163b156129445760405163f23a6e6160e01b81526001600160a01b0385169063f23a6e619061317290899089908890889088906004016147ba565b6020604051808303816000875af19250505080156131ad575060408051601f3d908101601f191682019092526131aa918101906147f4565b60015b613259576131b9614811565b806308c379a0036131f257506131cd61482c565b806131d857506131f4565b8060405162461bcd60e51b815260040161069a9190613804565b505b60405162461bcd60e51b815260206004820152603460248201527f455243313135353a207472616e7366657220746f206e6f6e20455243313135356044820152732932b1b2b4bb32b91034b6b83632b6b2b73a32b960611b606482015260840161069a565b6001600160e01b0319811663f23a6e6160e01b146114635760405162461bcd60e51b815260040161069a906148b5565b6001600160a01b0384163b156129445760405163bc197c8160e01b81526001600160a01b0385169063bc197c81906132cd90899089908890889088906004016148fd565b6020604051808303816000875af1925050508015613308575060408051601f3d908101601f19168201909252613305918101906147f4565b60015b613314576131b9614811565b6001600160e01b0319811663bc197c8160e01b146114635760405162461bcd60e51b815260040161069a906148b5565b6001600160a01b0381163b6133b15760405162461bcd60e51b815260206004820152602d60248201527f455243313936373a206e657720696d706c656d656e746174696f6e206973206e60448201526c1bdd08184818dbdb9d1c9858dd609a1b606482015260840161069a565b60008051602061495c83398151915280546001600160a01b0319166001600160a01b0392909216919091179055565b6133e98361343b565b6000825111806133f65750805b156129a957613405838361347b565b50505050565b600054610100900460ff166134325760405162461bcd60e51b815260040161069a90614753565b61162133612bf8565b61344481613344565b6040516001600160a01b038216907fbc7cd75a20ee27fd9adebab32041f755214dbc6bffa90cc0225b39da2e5c2d3b90600090a250565b60606001600160a01b0383163b6134e35760405162461bcd60e51b815260206004820152602660248201527f416464726573733a2064656c65676174652063616c6c20746f206e6f6e2d636f6044820152651b9d1c9858dd60d21b606482015260840161069a565b600080846001600160a01b0316846040516134fe919061479e565b600060405180830381855af49150503d8060008114613539576040519150601f19603f3d011682016040523d82523d6000602084013e61353e565b606091505b5091509150613566828260405180606001604052806027815260200161497c6027913961356f565b95945050505050565b6060831561357e5750816135a8565b82511561358e5782518084602001fd5b8160405162461bcd60e51b815260040161069a9190613804565b9392505050565b8280546135bb90613fa7565b90600052602060002090601f0160209004810192826135dd5760008555613623565b82601f106135f657805160ff1916838001178555613623565b82800160010185558215613623579182015b82811115613623578251825591602001919060010190613608565b5061362f929150613633565b5090565b5b8082111561362f5760008155600101613634565b6001600160a01b038116811461154857600080fd5b803561366881613648565b919050565b6000806040838503121561368057600080fd5b823561368b81613648565b946020939093013593505050565b6001600160e01b03198116811461154857600080fd5b6000602082840312156136c157600080fd5b81356135a881613699565b600080602083850312156136df57600080fd5b82356001600160401b03808211156136f657600080fd5b818501915085601f83011261370a57600080fd5b81358181111561371957600080fd5b86602082850101111561372b57600080fd5b60209290920196919550909350505050565b801515811461154857600080fd5b6000806000806080858703121561376157600080fd5b8435935060208501356137738161373d565b925060408501356137838161373d565b9396929550929360600135925050565b6000602082840312156137a557600080fd5b5035919050565b60005b838110156137c75781810151838201526020016137af565b838111156134055750506000910152565b600081518084526137f08160208601602086016137ac565b601f01601f19169290920160200192915050565b6020815260006135a860208301846137d8565b60008083601f84011261382957600080fd5b5081356001600160401b0381111561384057600080fd5b6020830191508360208260051b850101111561385b57600080fd5b9250929050565b60008060008060006060868803121561387a57600080fd5b8535945060208601356001600160401b038082111561389857600080fd5b6138a489838a01613817565b909650945060408801359150808211156138bd57600080fd5b506138ca88828901613817565b969995985093965092949392505050565b600080604083850312156138ee57600080fd5b50508035926020909101359150565b634e487b7160e01b600052604160045260246000fd5b601f8201601f191681016001600160401b0381118282101715613938576139386138fd565b6040525050565b60006001600160401b03821115613958576139586138fd565b5060051b60200190565b600082601f83011261397357600080fd5b813560206139808261393f565b60405161398d8282613913565b83815260059390931b85018201928281019150868411156139ad57600080fd5b8286015b848110156139c857803583529183019183016139b1565b509695505050505050565b600082601f8301126139e457600080fd5b81356001600160401b038111156139fd576139fd6138fd565b604051613a14601f8301601f191660200182613913565b818152846020838601011115613a2957600080fd5b816020850160208301376000918101602001919091529392505050565b600080600080600060a08688031215613a5e57600080fd5b8535613a6981613648565b94506020860135613a7981613648565b935060408601356001600160401b0380821115613a9557600080fd5b613aa189838a01613962565b94506060880135915080821115613ab757600080fd5b613ac389838a01613962565b93506080880135915080821115613ad957600080fd5b50613ae6888289016139d3565b9150509295509295909350565b600060208284031215613b0557600080fd5b81356135a881613648565b60008060408385031215613b2357600080fd5b823591506020830135613b3581613648565b809150509250929050565b600082601f830112613b5157600080fd5b81356020613b5e8261393f565b604051613b6b8282613913565b83815260059390931b8501820192828101915086841115613b8b57600080fd5b8286015b848110156139c8578035613ba281613648565b8352918301918301613b8f565b60008060408385031215613bc257600080fd5b82356001600160401b0380821115613bd957600080fd5b613be586838701613b40565b93506020850135915080821115613bfb57600080fd5b50613c0885828601613962565b9150509250929050565b600081518084526020808501945080840160005b83811015613c4257815187529582019590820190600101613c26565b509495945050505050565b6020815260006135a86020830184613c12565b60008060408385031215613c7357600080fd5b8235613c7e81613648565b915060208301356001600160401b03811115613c9957600080fd5b613c08858286016139d3565b60008060408385031215613cb857600080fd5b8235613cc381613648565b91506020830135613b358161373d565b600080600080600060a08688031215613ceb57600080fd5b8535613cf681613648565b945060208601356001600160401b0380821115613d1257600080fd5b613d1e89838a01613b40565b9550604088013594506060880135915080821115613d3b57600080fd5b50613d4888828901613962565b9250506080860135613d598161373d565b809150509295509295909350565b600080600080600060a08688031215613d7f57600080fd5b8535613d8a81613648565b94506020860135613d9a81613648565b9350604086013592506060860135915060808601356001600160401b03811115613dc357600080fd5b613ae6888289016139d3565b600060208284031215613de157600080fd5b81356001600160401b03811115613df757600080fd5b820161010081850312156135a857600080fd5b60008060408385031215613e1d57600080fd5b8235613e2881613648565b91506020830135613b3581613648565b6020808252818101527f4f776e61626c653a2063616c6c6572206973206e6f7420746865206f776e6572604082015260600190565b81838237637b69647d60e01b9101908152600401919050565b600082601f830112613e9757600080fd5b81516020613ea48261393f565b604051613eb18282613913565b83815260059390931b8501820192828101915086841115613ed157600080fd5b8286015b848110156139c8578051613ee881613648565b8352918301918301613ed5565b600080600080600080600080610100898b031215613f1257600080fd5b88519750602089015196506040890151613f2b81613648565b60608a0151909650613f3c8161373d565b60808a0151909550613f4d8161373d565b60a08a0151909450613f5e8161373d565b60c08a0151909350613f6f8161373d565b60e08a01519092506001600160401b03811115613f8b57600080fd5b613f978b828c01613e86565b9150509295985092959890939650565b600181811c90821680613fbb57607f821691505b602082108103613fdb57634e487b7160e01b600052602260045260246000fd5b50919050565b634e487b7160e01b600052603260045260246000fd5b8035600381900b811461366857600080fd5b60006020828403121561401b57600080fd5b6135a882613ff7565b634e487b7160e01b600052601160045260246000fd5b60008160030b637fffffff19810361405457614054614024565b60000392915050565b60008160030b8360030b6000821282637fffffff0382138115161561408457614084614024565b82637fffffff1903821281161561409d5761409d614024565b50019392505050565b600063ffffffff8083168185168083038211156140c5576140c5614024565b01949350505050565b600063ffffffff838116908316818110156140eb576140eb614024565b039392505050565b8183526000602080850194508260005b85811015613c4257813561411681613648565b6001600160a01b031687529582019590820190600101614103565b8183526000602080850194508260005b85811015613c425761415282613ff7565b60030b87529582019590820190600101614141565b60608152600061417b6060830187896140f3565b828103602084015261418e818688614131565b91505063ffffffff831660408301529695505050505050565b6040815260006141bb6040830186886140f3565b82810360208401526141ce818587614131565b979650505050505050565b60008160001904831182151516156141f3576141f3614024565b500290565b60008261421557634e487b7160e01b600052601260045260246000fd5b500490565b60208082526018908201527f43616c6c6572206973206e6f7420636f6e74726f6c6c65720000000000000000604082015260600190565b60208082526029908201527f455243313135353a2063616c6c6572206973206e6f74206f776e6572206e6f7260408201526808185c1c1c9bdd995960ba1b606082015260800190565b6020808252602c908201527f46756e6374696f6e206d7573742062652063616c6c6564207468726f7567682060408201526b19195b1959d85d1958d85b1b60a21b606082015260800190565b6020808252602c908201527f46756e6374696f6e206d7573742062652063616c6c6564207468726f7567682060408201526b6163746976652070726f787960a01b606082015260800190565b60006001820161434457614344614024565b5060010190565b803563ffffffff8116811461366857600080fd5b8183526000602080850194508260005b85811015613c4257813561438281613648565b6001600160a01b0316875263ffffffff61439d83850161434b565b16838801526040808301356143b18161373d565b151590880152606096870196919091019060010161436f565b6000808335601e198436030181126143e157600080fd5b83016020810192503590506001600160401b0381111561440057600080fd5b8060051b360383131561385b57600080fd5b803564ffffffffff8116811461366857600080fd5b803560ff8116811461366857600080fd5b60006101008235601e1984360301811261445157600080fd5b830180356001600160401b0381111561446957600080fd5b60608102360385131561447b57600080fd5b82865261448e838701826020850161435f565b92505050602083013560208501526144a960408401846143ca565b85830360408701526144bc8382846140f3565b92505050606083013560608501526144d660808401614412565b64ffffffffff1660808501526144ee60a0840161365d565b6001600160a01b031660a085015261450860c08401614427565b60ff1660c085015261451c60e08401614427565b60ff811660e086015261174c565b60018060a01b03841681528260208201526060604082015260006135666060830184614438565b60006020828403121561456357600080fd5b81516135a881613648565b60006020828403121561458057600080fd5b6135a882614412565b60006020828403121561459b57600080fd5b6135a882614427565b6000808335601e198436030181126145bb57600080fd5b8301803591506001600160401b038211156145d557600080fd5b602001915060608102360382131561385b57600080fd5b6000606082840312156145fe57600080fd5b604051606081018181106001600160401b0382111715614620576146206138fd565b604052823561462e81613648565b815261463c6020840161434b565b6020820152604083013561464f8161373d565b60408201529392505050565b6020815260006135a86020830184614438565b6000821982111561468157614681614024565b500190565b60208082526025908201527f455243313135353a207472616e7366657220746f20746865207a65726f206164604082015264647265737360d81b606082015260800190565b6020808252602a908201527f455243313135353a20696e73756666696369656e742062616c616e636520666f60408201526939103a3930b739b332b960b11b606082015260800190565b6040815260006147286040830185613c12565b82810360208401526135668185613c12565b60006020828403121561474c57600080fd5b5051919050565b6020808252602b908201527f496e697469616c697a61626c653a20636f6e7472616374206973206e6f74206960408201526a6e697469616c697a696e6760a81b606082015260800190565b600082516147b08184602087016137ac565b9190910192915050565b6001600160a01b03868116825285166020820152604081018490526060810183905260a0608082018190526000906141ce908301846137d8565b60006020828403121561480657600080fd5b81516135a881613699565b600060033d11156118f65760046000803e5060005160e01c90565b600060443d101561483a5790565b6040516003193d81016004833e81513d6001600160401b03816024840111818411171561486957505050505090565b82850191508151818111156148815750505050505090565b843d870101602082850101111561489b5750505050505090565b6148aa60208286010187613913565b509095945050505050565b60208082526028908201527f455243313135353a204552433131353552656365697665722072656a656374656040820152676420746f6b656e7360c01b606082015260800190565b6001600160a01b0386811682528516602082015260a06040820181905260009061492990830186613c12565b828103606084015261493b8186613c12565b9050828103608084015261494f81856137d8565b9897505050505050505056fe360894a13ba1a3210667c828492db98dca3e2076cc3735a920a3ca505d382bbc416464726573733a206c6f772d6c6576656c2064656c65676174652063616c6c206661696c6564a26469706673582212200ac186d295877188d703d58616d260d1fd6a91e8ad17ec223972b46f552e638064736f6c634300080d0033",
  "linkReferences": {},
  "deployedLinkReferences": {}
}