{
  "_format": "hh-sol-artifact-1",
  "contractName": "SliceCore",
  "sourceName": "contracts/SliceCore.sol",
  "abi": [
    {
      "inputs": [],
      "name": "Invalid",
      "type": "error"
    },
    {
      "inputs": [],
      "name": "IsPaused",
      "type": "error"
    },
    {
      "inputs": [],
      "name": "NotAuthorized",
      "type": "error"
    },
    {
      "inputs": [],
      "name": "NotSuccessful",
      "type": "error"
    },
    {
      "inputs": [],
      "name": "PaymentLoop",
      "type": "error"
    },
    {
      "inputs": [],
      "name": "TimelocksResetNotAllowed",
      "type": "error"
    },
    {
      "inputs": [],
      "name": "transferLocked",
      "type": "error"
    },
    {
      "anonymous": false,
      "inputs": [
        {
          "indexed": false,
          "internalType": "address",
          "name": "previousAdmin",
          "type": "address"
        },
        {
          "indexed": false,
          "internalType": "address",
          "name": "newAdmin",
          "type": "address"
        }
      ],
      "name": "AdminChanged",
      "type": "event"
    },
    {
      "anonymous": false,
      "inputs": [
        {
          "indexed": true,
          "internalType": "address",
          "name": "account",
          "type": "address"
        },
        {
          "indexed": true,
          "internalType": "address",
          "name": "operator",
          "type": "address"
        },
        {
          "indexed": false,
          "internalType": "bool",
          "name": "approved",
          "type": "bool"
        }
      ],
      "name": "ApprovalForAll",
      "type": "event"
    },
    {
      "anonymous": false,
      "inputs": [
        {
          "indexed": true,
          "internalType": "address",
          "name": "beacon",
          "type": "address"
        }
      ],
      "name": "BeaconUpgraded",
      "type": "event"
    },
    {
      "anonymous": false,
      "inputs": [
        {
          "indexed": true,
          "internalType": "address",
          "name": "previousOwner",
          "type": "address"
        },
        {
          "indexed": true,
          "internalType": "address",
          "name": "newOwner",
          "type": "address"
        }
      ],
      "name": "OwnershipTransferred",
      "type": "event"
    },
    {
      "anonymous": false,
      "inputs": [
        {
          "indexed": false,
          "internalType": "address",
          "name": "account",
          "type": "address"
        }
      ],
      "name": "Paused",
      "type": "event"
    },
    {
      "anonymous": false,
      "inputs": [
        {
          "indexed": true,
          "internalType": "uint256",
          "name": "tokenId",
          "type": "uint256"
        },
        {
          "indexed": false,
          "internalType": "bool",
          "name": "isSlicer",
          "type": "bool"
        },
        {
          "indexed": false,
          "internalType": "bool",
          "name": "isActive",
          "type": "bool"
        },
        {
          "indexed": false,
          "internalType": "uint256",
          "name": "royaltyPercentage",
          "type": "uint256"
        }
      ],
      "name": "RoyaltySet",
      "type": "event"
    },
    {
      "anonymous": false,
      "inputs": [
        {
          "indexed": true,
          "internalType": "uint256",
          "name": "tokenId",
          "type": "uint256"
        },
        {
          "indexed": true,
          "internalType": "address",
          "name": "slicerController",
          "type": "address"
        }
      ],
      "name": "SlicerControllerSet",
      "type": "event"
    },
    {
      "anonymous": false,
      "inputs": [
        {
          "indexed": true,
          "internalType": "uint256",
          "name": "tokenId",
          "type": "uint256"
        },
        {
          "indexed": false,
          "internalType": "uint40",
          "name": "transferMintTimelock",
          "type": "uint40"
        },
        {
          "indexed": false,
          "internalType": "uint40",
          "name": "releaseTimelock",
          "type": "uint40"
        }
      ],
      "name": "TimelocksSet",
      "type": "event"
    },
    {
      "anonymous": false,
      "inputs": [
        {
          "indexed": true,
          "internalType": "uint256",
          "name": "tokenId",
          "type": "uint256"
        },
        {
          "indexed": false,
          "internalType": "address payable[]",
          "name": "accounts",
          "type": "address[]"
        },
        {
          "indexed": false,
          "internalType": "int32[]",
          "name": "tokensDiffs",
          "type": "int32[]"
        }
      ],
      "name": "TokenResliced",
      "type": "event"
    },
    {
      "anonymous": false,
      "inputs": [
        {
          "indexed": true,
          "internalType": "address",
          "name": "slicerAddress",
          "type": "address"
        },
        {
          "indexed": true,
          "internalType": "uint256",
          "name": "tokenId",
          "type": "uint256"
        },
        {
          "components": [
            {
              "components": [
                {
                  "internalType": "address",
                  "name": "account",
                  "type": "address"
                },
                {
                  "internalType": "uint32",
                  "name": "shares",
                  "type": "uint32"
                }
              ],
              "internalType": "struct Payee[]",
              "name": "payees",
              "type": "tuple[]"
            },
            {
              "internalType": "uint256",
              "name": "minimumShares",
              "type": "uint256"
            },
            {
              "internalType": "address[]",
              "name": "currencies",
              "type": "address[]"
            },
            {
              "internalType": "uint256",
              "name": "releaseTimelock",
              "type": "uint256"
            },
            {
              "internalType": "uint40",
              "name": "transferMintTimelock",
              "type": "uint40"
            },
            {
              "internalType": "bool",
              "name": "isImmutable",
              "type": "bool"
            },
            {
              "internalType": "bool",
              "name": "isControlled",
              "type": "bool"
            },
            {
              "internalType": "uint8",
              "name": "slicerFlags",
              "type": "uint8"
            },
            {
              "internalType": "uint8",
              "name": "sliceCoreFlags",
              "type": "uint8"
            }
          ],
          "indexed": false,
          "internalType": "struct SliceParams",
          "name": "params",
          "type": "tuple"
        },
        {
          "indexed": true,
          "internalType": "uint256",
          "name": "slicerVersion",
          "type": "uint256"
        }
      ],
      "name": "TokenSliced",
      "type": "event"
    },
    {
      "anonymous": false,
      "inputs": [
        {
          "indexed": true,
          "internalType": "address",
          "name": "operator",
          "type": "address"
        },
        {
          "indexed": true,
          "internalType": "address",
          "name": "from",
          "type": "address"
        },
        {
          "indexed": true,
          "internalType": "address",
          "name": "to",
          "type": "address"
        },
        {
          "indexed": false,
          "internalType": "uint256[]",
          "name": "ids",
          "type": "uint256[]"
        },
        {
          "indexed": false,
          "internalType": "uint256[]",
          "name": "values",
          "type": "uint256[]"
        }
      ],
      "name": "TransferBatch",
      "type": "event"
    },
    {
      "anonymous": false,
      "inputs": [
        {
          "indexed": true,
          "internalType": "address",
          "name": "operator",
          "type": "address"
        },
        {
          "indexed": true,
          "internalType": "address",
          "name": "from",
          "type": "address"
        },
        {
          "indexed": true,
          "internalType": "address",
          "name": "to",
          "type": "address"
        },
        {
          "indexed": false,
          "internalType": "uint256",
          "name": "id",
          "type": "uint256"
        },
        {
          "indexed": false,
          "internalType": "uint256",
          "name": "value",
          "type": "uint256"
        }
      ],
      "name": "TransferSingle",
      "type": "event"
    },
    {
      "anonymous": false,
      "inputs": [
        {
          "indexed": false,
          "internalType": "string",
          "name": "value",
          "type": "string"
        },
        {
          "indexed": true,
          "internalType": "uint256",
          "name": "id",
          "type": "uint256"
        }
      ],
      "name": "URI",
      "type": "event"
    },
    {
      "anonymous": false,
      "inputs": [
        {
          "indexed": false,
          "internalType": "address",
          "name": "account",
          "type": "address"
        }
      ],
      "name": "Unpaused",
      "type": "event"
    },
    {
      "anonymous": false,
      "inputs": [
        {
          "indexed": true,
          "internalType": "address",
          "name": "implementation",
          "type": "address"
        }
      ],
      "name": "Upgraded",
      "type": "event"
    },
    {
      "inputs": [
        {
          "internalType": "string",
          "name": "basePath_",
          "type": "string"
        }
      ],
      "name": "_setBasePath",
      "outputs": [],
      "stateMutability": "nonpayable",
      "type": "function"
    },
    {
      "inputs": [],
      "name": "_togglePause",
      "outputs": [],
      "stateMutability": "nonpayable",
      "type": "function"
    },
    {
      "inputs": [
        {
          "internalType": "address",
          "name": "account",
          "type": "address"
        },
        {
          "internalType": "uint256",
          "name": "id",
          "type": "uint256"
        }
      ],
      "name": "balanceOf",
      "outputs": [
        {
          "internalType": "uint256",
          "name": "",
          "type": "uint256"
        }
      ],
      "stateMutability": "view",
      "type": "function"
    },
    {
      "inputs": [
        {
          "internalType": "address[]",
          "name": "accounts",
          "type": "address[]"
        },
        {
          "internalType": "uint256[]",
          "name": "ids",
          "type": "uint256[]"
        }
      ],
      "name": "balanceOfBatch",
      "outputs": [
        {
          "internalType": "uint256[]",
          "name": "",
          "type": "uint256[]"
        }
      ],
      "stateMutability": "view",
      "type": "function"
    },
    {
      "inputs": [
        {
          "internalType": "uint256",
          "name": "id",
          "type": "uint256"
        }
      ],
      "name": "controller",
      "outputs": [
        {
          "internalType": "address",
          "name": "",
          "type": "address"
        }
      ],
      "stateMutability": "view",
      "type": "function"
    },
    {
      "inputs": [
        {
          "internalType": "uint256",
          "name": "id",
          "type": "uint256"
        }
      ],
      "name": "exists",
      "outputs": [
        {
          "internalType": "bool",
          "name": "",
          "type": "bool"
        }
      ],
      "stateMutability": "view",
      "type": "function"
    },
    {
      "inputs": [],
      "name": "initialize",
      "outputs": [],
      "stateMutability": "nonpayable",
      "type": "function"
    },
    {
      "inputs": [
        {
          "internalType": "address",
          "name": "account",
          "type": "address"
        },
        {
          "internalType": "address",
          "name": "operator",
          "type": "address"
        }
      ],
      "name": "isApprovedForAll",
      "outputs": [
        {
          "internalType": "bool",
          "name": "",
          "type": "bool"
        }
      ],
      "stateMutability": "view",
      "type": "function"
    },
    {
      "inputs": [],
      "name": "owner",
      "outputs": [
        {
          "internalType": "address",
          "name": "",
          "type": "address"
        }
      ],
      "stateMutability": "view",
      "type": "function"
    },
    {
      "inputs": [],
      "name": "paused",
      "outputs": [
        {
          "internalType": "bool",
          "name": "",
          "type": "bool"
        }
      ],
      "stateMutability": "view",
      "type": "function"
    },
    {
      "inputs": [],
      "name": "proxiableUUID",
      "outputs": [
        {
          "internalType": "bytes32",
          "name": "",
          "type": "bytes32"
        }
      ],
      "stateMutability": "view",
      "type": "function"
    },
    {
      "inputs": [],
      "name": "renounceOwnership",
      "outputs": [],
      "stateMutability": "nonpayable",
      "type": "function"
    },
    {
      "inputs": [
        {
          "internalType": "uint256",
          "name": "tokenId",
          "type": "uint256"
        },
        {
          "internalType": "address payable[]",
          "name": "accounts",
          "type": "address[]"
        },
        {
          "internalType": "int32[]",
          "name": "tokensDiffs",
          "type": "int32[]"
        }
      ],
      "name": "reslice",
      "outputs": [],
      "stateMutability": "nonpayable",
      "type": "function"
    },
    {
      "inputs": [
        {
          "internalType": "uint256",
          "name": "tokenId",
          "type": "uint256"
        },
        {
          "internalType": "uint256",
          "name": "salePrice",
          "type": "uint256"
        }
      ],
      "name": "royaltyInfo",
      "outputs": [
        {
          "internalType": "address",
          "name": "receiver",
          "type": "address"
        },
        {
          "internalType": "uint256",
          "name": "royaltyAmount",
          "type": "uint256"
        }
      ],
      "stateMutability": "view",
      "type": "function"
    },
    {
      "inputs": [
        {
          "internalType": "address",
          "name": "from",
          "type": "address"
        },
        {
          "internalType": "address",
          "name": "to",
          "type": "address"
        },
        {
          "internalType": "uint256[]",
          "name": "ids",
          "type": "uint256[]"
        },
        {
          "internalType": "uint256[]",
          "name": "amounts",
          "type": "uint256[]"
        },
        {
          "internalType": "bytes",
          "name": "data",
          "type": "bytes"
        }
      ],
      "name": "safeBatchTransferFrom",
      "outputs": [],
      "stateMutability": "nonpayable",
      "type": "function"
    },
    {
      "inputs": [
        {
          "internalType": "address",
          "name": "from",
          "type": "address"
        },
        {
          "internalType": "address",
          "name": "to",
          "type": "address"
        },
        {
          "internalType": "uint256",
          "name": "id",
          "type": "uint256"
        },
        {
          "internalType": "uint256",
          "name": "amount",
          "type": "uint256"
        },
        {
          "internalType": "bytes",
          "name": "data",
          "type": "bytes"
        }
      ],
      "name": "safeTransferFrom",
      "outputs": [],
      "stateMutability": "nonpayable",
      "type": "function"
    },
    {
      "inputs": [
        {
          "internalType": "address",
          "name": "from",
          "type": "address"
        },
        {
          "internalType": "address",
          "name": "to",
          "type": "address"
        },
        {
          "internalType": "uint256",
          "name": "id",
          "type": "uint256"
        },
        {
          "internalType": "uint256",
          "name": "amount",
          "type": "uint256"
        },
        {
          "internalType": "bytes",
          "name": "data",
          "type": "bytes"
        }
      ],
      "name": "safeTransferFromUnreleased",
      "outputs": [],
      "stateMutability": "nonpayable",
      "type": "function"
    },
    {
      "inputs": [
        {
          "internalType": "address",
          "name": "operator",
          "type": "address"
        },
        {
          "internalType": "bool",
          "name": "approved",
          "type": "bool"
        }
      ],
      "name": "setApprovalForAll",
      "outputs": [],
      "stateMutability": "nonpayable",
      "type": "function"
    },
    {
      "inputs": [
        {
          "internalType": "uint256",
          "name": "id",
          "type": "uint256"
        },
        {
          "internalType": "address",
          "name": "newController",
          "type": "address"
        }
      ],
      "name": "setController",
      "outputs": [],
      "stateMutability": "nonpayable",
      "type": "function"
    },
    {
      "inputs": [
        {
          "internalType": "uint256",
          "name": "tokenId",
          "type": "uint256"
        },
        {
          "internalType": "bool",
          "name": "isSlicer",
          "type": "bool"
        },
        {
          "internalType": "bool",
          "name": "isActive",
          "type": "bool"
        },
        {
          "internalType": "uint256",
          "name": "royaltyPercentage",
          "type": "uint256"
        }
      ],
      "name": "setRoyalty",
      "outputs": [],
      "stateMutability": "nonpayable",
      "type": "function"
    },
    {
      "inputs": [
        {
          "internalType": "uint256",
          "name": "id",
          "type": "uint256"
        },
        {
          "internalType": "uint40",
          "name": "transferMintTimelock",
          "type": "uint40"
        },
        {
          "internalType": "uint40",
          "name": "releaseTimelock",
          "type": "uint40"
        }
      ],
      "name": "setSlicerTimelocks",
      "outputs": [],
      "stateMutability": "nonpayable",
      "type": "function"
    },
    {
      "inputs": [
        {
          "components": [
            {
              "components": [
                {
                  "internalType": "address",
                  "name": "account",
                  "type": "address"
                },
                {
                  "internalType": "uint32",
                  "name": "shares",
                  "type": "uint32"
                }
              ],
              "internalType": "struct Payee[]",
              "name": "payees",
              "type": "tuple[]"
            },
            {
              "internalType": "uint256",
              "name": "minimumShares",
              "type": "uint256"
            },
            {
              "internalType": "address[]",
              "name": "currencies",
              "type": "address[]"
            },
            {
              "internalType": "uint256",
              "name": "releaseTimelock",
              "type": "uint256"
            },
            {
              "internalType": "uint40",
              "name": "transferMintTimelock",
              "type": "uint40"
            },
            {
              "internalType": "bool",
              "name": "isImmutable",
              "type": "bool"
            },
            {
              "internalType": "bool",
              "name": "isControlled",
              "type": "bool"
            },
            {
              "internalType": "uint8",
              "name": "slicerFlags",
              "type": "uint8"
            },
            {
              "internalType": "uint8",
              "name": "sliceCoreFlags",
              "type": "uint8"
            }
          ],
          "internalType": "struct SliceParams",
          "name": "params",
          "type": "tuple"
        }
      ],
      "name": "slice",
      "outputs": [],
      "stateMutability": "nonpayable",
      "type": "function"
    },
    {
      "inputs": [
        {
          "internalType": "address",
          "name": "from",
          "type": "address"
        },
        {
          "internalType": "address[]",
          "name": "recipients",
          "type": "address[]"
        },
        {
          "internalType": "uint256",
          "name": "id",
          "type": "uint256"
        },
        {
          "internalType": "uint256[]",
          "name": "amounts",
          "type": "uint256[]"
        },
        {
          "internalType": "bool",
          "name": "release",
          "type": "bool"
        }
      ],
      "name": "slicerBatchTransfer",
      "outputs": [],
      "stateMutability": "nonpayable",
      "type": "function"
    },
    {
      "inputs": [
        {
          "internalType": "uint256",
          "name": "id",
          "type": "uint256"
        }
      ],
      "name": "slicers",
      "outputs": [
        {
          "internalType": "address",
          "name": "",
          "type": "address"
        }
      ],
      "stateMutability": "view",
      "type": "function"
    },
    {
      "inputs": [],
      "name": "supply",
      "outputs": [
        {
          "internalType": "uint256",
          "name": "",
          "type": "uint256"
        }
      ],
      "stateMutability": "view",
      "type": "function"
    },
    {
      "inputs": [
        {
          "internalType": "bytes4",
          "name": "interfaceId",
          "type": "bytes4"
        }
      ],
      "name": "supportsInterface",
      "outputs": [
        {
          "internalType": "bool",
          "name": "",
          "type": "bool"
        }
      ],
      "stateMutability": "view",
      "type": "function"
    },
    {
      "inputs": [
        {
          "internalType": "uint256",
          "name": "id",
          "type": "uint256"
        }
      ],
      "name": "totalSupply",
      "outputs": [
        {
          "internalType": "uint256",
          "name": "",
          "type": "uint256"
        }
      ],
      "stateMutability": "view",
      "type": "function"
    },
    {
      "inputs": [
        {
          "internalType": "address",
          "name": "newOwner",
          "type": "address"
        }
      ],
      "name": "transferOwnership",
      "outputs": [],
      "stateMutability": "nonpayable",
      "type": "function"
    },
    {
      "inputs": [
        {
          "internalType": "address",
          "name": "newImplementation",
          "type": "address"
        }
      ],
      "name": "upgradeTo",
      "outputs": [],
      "stateMutability": "nonpayable",
      "type": "function"
    },
    {
      "inputs": [
        {
          "internalType": "address",
          "name": "newImplementation",
          "type": "address"
        },
        {
          "internalType": "bytes",
          "name": "data",
          "type": "bytes"
        }
      ],
      "name": "upgradeToAndCall",
      "outputs": [],
      "stateMutability": "payable",
      "type": "function"
    },
    {
      "inputs": [
        {
          "internalType": "uint256",
          "name": "",
          "type": "uint256"
        }
      ],
      "name": "uri",
      "outputs": [
        {
          "internalType": "string",
          "name": "",
          "type": "string"
        }
      ],
      "stateMutability": "view",
      "type": "function"
    }
  ],
  "bytecode": "0x60a06040523060805234801561001457600080fd5b50608051614b4d61004c600039600081816113c101528181611401015281816116a9015281816116e90152611c100152614b4d6000f3fe6080604052600436106101d75760003560e01c80634f558e7911610102578063a22cb46511610095578063c3592b0c11610064578063c3592b0c146105b4578063e985e9c5146105d4578063f242432a146105f4578063f2fde38b1461061457600080fd5b8063a22cb465146104fc578063a468f1c71461051c578063a58fa7c414610556578063bd85b0391461057657600080fd5b8063715018a6116100d1578063715018a6146104945780637f624d32146104a95780638129fc1c146104c95780638da5cb5b146104de57600080fd5b80634f558e791461042657806351e374cd1461044657806352d1902d146104665780635c975abb1461047b57600080fd5b806326b7fb481161017a5780633e5779ee116101495780633e5779ee146103b1578063405b4c36146103d15780634e1273f4146103e65780634f1ef2861461041357600080fd5b806326b7fb48146103125780632a55205a146103325780632eb2c2d6146103715780633659cfe61461039157600080fd5b8063059f424f116101b6578063059f424f146102545780630da9450a146102765780630e89341c14610296578063175fa7ea146102c357600080fd5b8062fdd58e146101dc57806301ffc9a71461020f578063047fc9aa1461023f575b600080fd5b3480156101e857600080fd5b506101fc6101f73660046137dd565b610634565b6040519081526020015b60405180910390f35b34801561021b57600080fd5b5061022f61022a36600461381f565b6106d0565b6040519015158152602001610206565b34801561024b57600080fd5b506101fc610720565b34801561026057600080fd5b5061027461026f36600461383c565b610731565b005b34801561028257600080fd5b506102746102913660046138cb565b610789565b3480156102a257600080fd5b506102b66102b1366004613913565b610978565b6040516102069190613984565b3480156102cf57600080fd5b506102fa6102de366004613913565b600090815261016060205260409020546001600160a01b031690565b6040516001600160a01b039091168152602001610206565b34801561031e57600080fd5b5061027461032d3660046139e2565b610a0c565b34801561033e57600080fd5b5061035261034d366004613a5b565b61105e565b604080516001600160a01b039093168352602083019190915201610206565b34801561037d57600080fd5b5061027461038c366004613bc6565b611240565b34801561039d57600080fd5b506102746103ac366004613c73565b6113b7565b3480156103bd57600080fd5b506102746103cc366004613c90565b611496565b3480156103dd57600080fd5b5061027461152e565b3480156103f257600080fd5b50610406610401366004613d2f565b611576565b6040516102069190613dcd565b610274610421366004613de0565b61169f565b34801561043257600080fd5b5061022f610441366004613913565b61176b565b34801561045257600080fd5b50610274610461366004613e25565b611790565b34801561047257600080fd5b506101fc611c03565b34801561048757600080fd5b5061012d5460ff1661022f565b3480156104a057600080fd5b50610274611cb7565b3480156104b557600080fd5b506102746104c4366004613e75565b611ceb565b3480156104d557600080fd5b50610274611e2b565b3480156104ea57600080fd5b506097546001600160a01b03166102fa565b34801561050857600080fd5b50610274610517366004613eb1565b611eeb565b34801561052857600080fd5b506102fa610537366004613913565b600090815261016060205260409020600101546001600160a01b031690565b34801561056257600080fd5b50610274610571366004613edf565b611ef6565b34801561058257600080fd5b506101fc610591366004613913565b60009081526101606020526040902060010154600160c81b900463ffffffff1690565b3480156105c057600080fd5b506102746105cf366004613f73565b611fef565b3480156105e057600080fd5b5061022f6105ef366004613fdb565b61214f565b34801561060057600080fd5b5061027461060f366004613f73565b61221c565b34801561062057600080fd5b5061027461062f366004613c73565b612400565b60006001600160a01b0383166106a55760405162461bcd60e51b815260206004820152602b60248201527f455243313135353a2062616c616e636520717565727920666f7220746865207a60448201526a65726f206164647265737360a81b60648201526084015b60405180910390fd5b50600081815260fb602090815260408083206001600160a01b03861684529091529020545b92915050565b60006001600160e01b03198216636cdb3d1360e11b148061070157506001600160e01b031982166303a24d0760e21b145b806106ca57506301ffc9a760e01b6001600160e01b03198316146106ca565b600061072c61015f5490565b905090565b6097546001600160a01b0316331461075b5760405162461bcd60e51b815260040161069c90614009565b610785828260405160200161077192919061403e565b604051602081830303815290604052612498565b5050565b6107928461176b565b158061079e5750606481115b156107bc57604051636dac6a0960e01b815260040160405180910390fd5b600084815261016060205260409020600101546001600160a01b03161561081d57600084815261016060205260409020600101546001600160a01b031633146108185760405163ea8e4eb560e01b815260040160405180910390fd5b6108d4565b60008481526101606020526040808220548151634abf03db60e11b815291516001600160a01b039091169163957e07b691600480830192869291908290030181865afa158015610871573d6000803e3d6000fd5b505050506040513d6000823e601f3d908101601f1916820160405261089991908101906140c6565b50505092505050806001600160a01b0316336001600160a01b0316146108d25760405163ea8e4eb560e01b815260040160405180910390fd5b505b60008481526101606020908152604091829020600101805461ffff60e81b1916600160e81b60ff86160260ff60f01b191617600160f01b861515908102919091176001600160f81b0316600160f81b8815159081029190911790925583519182529181019190915290810182905284907f4fbf3dc0947ba89435d8dee95cfad6b2e458d3474fb5b840ce6d4a41f5e707c9906060015b60405180910390a250505050565b606060fd80546109879061414f565b80601f01602080910402602001604051908101604052809291908181526020018280546109b39061414f565b8015610a005780601f106109d557610100808354040283529160200191610a00565b820191906000526020600020905b8154815290600101906020018083116109e357829003601f168201915b50505050509050919050565b600085815261016060205260409020600101546001600160a01b03163314610a475760405163ea8e4eb560e01b815260040160405180910390fd5b828114610a6757604051636dac6a0960e01b815260040160405180910390fd5b610a70856124ab565b60008581526101606020526040808220548151634abf03db60e11b815291516001600160a01b039091169163957e07b691600480830192869291908290030181865afa158015610ac4573d6000803e3d6000fd5b505050506040513d6000823e601f3d908101601f19168201604052610aec91908101906140c6565b9550505050505060008060005b86811015610ec657610b31888883818110610b1657610b16614189565b9050602002016020810190610b2b9190613c73565b8a610634565b60008a815261016060205260409020549092506001600160a01b031663d3c65754898984818110610b6457610b64614189565b9050602002016020810190610b799190613c73565b6040516001600160e01b031960e084901b1681526001600160a01b0390911660048201526000602482015260448101859052606401600060405180830381600087803b158015610bc857600080fd5b505af1158015610bdc573d6000803e3d6000fd5b50505060008a815261016060205260409020546001600160a01b0316905063d3c65754898984818110610c1157610c11614189565b9050602002016020810190610c269190613c73565b6040516001600160e01b031960e084901b1681526001600160a01b0390911660048201527356639db16ac50a89228026e42a316b30179a5376602482015260448101859052606401600060405180830381600087803b158015610c8857600080fd5b505af1158015610c9c573d6000803e3d6000fd5b5050505060005b8451811015610d805760008a815261016060205260409020546001600160a01b031663d3c657548a8a85818110610cdc57610cdc614189565b9050602002016020810190610cf19190613c73565b878481518110610d0357610d03614189565b60209081029190910101516040516001600160e01b031960e085901b1681526001600160a01b0392831660048201529116602482015260448101869052606401600060405180830381600087803b158015610d5d57600080fd5b505af1158015610d71573d6000803e3d6000fd5b50505050806001019050610ca3565b506000868683818110610d9557610d95614189565b9050602002016020810190610daa91906141b1565b60030b1315610e2557610e20888883818110610dc857610dc8614189565b9050602002016020810190610ddd9190613c73565b8a888885818110610df057610df0614189565b9050602002016020810190610e0591906141b1565b63ffffffff16604051806020016040528060008152506124ec565b610e8b565b610e8b888883818110610e3a57610e3a614189565b9050602002016020810190610e4f9190613c73565b8a888885818110610e6257610e62614189565b9050602002016020810190610e7791906141b1565b610e80906141e2565b63ffffffff166125fe565b858582818110610e9d57610e9d614189565b9050602002016020810190610eb291906141b1565b610ebc9084614205565b9250600101610af9565b5060008260030b1315610f28576000888152610160602052604090206001018054839190601990610f05908490600160c81b900463ffffffff1661424e565b92506101000a81548163ffffffff021916908363ffffffff160217905550610f8b565b60008260030b1215610f8b57610f3d826141e2565b6000898152610160602052604090206001018054601990610f6c908490600160c81b900463ffffffff16614276565b92506101000a81548163ffffffff021916908363ffffffff1602179055505b60008881526101606020526040908190208054600190910154915163e32cf85160e01b81526001600160a01b039091169163e32cf85191610fe4918b918b918b918b91600160c81b900463ffffffff169060040161430f565b600060405180830381600087803b158015610ffe57600080fd5b505af1158015611012573d6000803e3d6000fd5b50505050877f50ab7f68b6b57e8f7634376d5e840c72b2b7f3e69bc52a6a12e3c777061b36b08888888860405161104c949392919061434f565b60405180910390a25050505050505050565b60008061106a8461176b565b61108757604051636dac6a0960e01b815260040160405180910390fd5b60008481526101606020908152604080832081516101008101835281546001600160a01b03908116825260018301549081169482019490945264ffffffffff600160a01b8504169281019290925263ffffffff600160c81b840416606083015260ff600160e81b840481166080840152600160f01b84048116151560a08401819052600160f81b9094048116151560c08401526002909101541660e08201529190611133576032611139565b81608001515b60ff1690506103e861114b8287614381565b61115591906143a0565b92508160c001511561118157600086815261016060205260409020546001600160a01b03169350611237565b60008681526101606020526040808220548151634abf03db60e11b8152915183926001600160a01b039092169163957e07b691600480830192869291908290030181865afa1580156111d7573d6000803e3d6000fd5b505050506040513d6000823e601f3d908101601f191682016040526111ff91908101906140c6565b5094505093505050801561123057600088815261016060205260409020600101546001600160a01b03169550611234565b8195505b50505b50509250929050565b600083516001600160401b0381111561125b5761125b613a7d565b604051908082528060200260200182016040528015611284578160200160208202803683370190505b50905060005b8451811015611392576112b58582815181106112a8576112a8614189565b60200260200101516124ab565b60006001600160a01b031661016060008784815181106112d7576112d7614189565b6020908102919091018101518252810191909152604001600020600101546001600160a01b03161461131c5760405163ea8e4eb560e01b815260040160405180910390fd5b610160600086838151811061133357611333614189565b6020026020010151815260200190815260200160002060000160009054906101000a90046001600160a01b031682828151811061137257611372614189565b6001600160a01b039092166020928302919091019091015260010161128a565b506113a28686868487600161277b565b6113af8686868686612921565b505050505050565b6001600160a01b037f00000000000000000000000000000000000000000000000000000000000000001630036113ff5760405162461bcd60e51b815260040161069c906143c2565b7f00000000000000000000000000000000000000000000000000000000000000006001600160a01b0316611448600080516020614ad1833981519152546001600160a01b031690565b6001600160a01b03161461146e5760405162461bcd60e51b815260040161069c9061440e565b611477816129b1565b60408051600080825260208201909252611493918391906129db565b50565b600082815261016060205260409020600101546001600160a01b031633146114d15760405163ea8e4eb560e01b815260040160405180910390fd5b6000828152610160602052604080822060010180546001600160a01b0319166001600160a01b0385169081179091559051909184917f2f1bd54f0cb5e0788fcb50aa92b6c88987bd2459fee273daa38b57af0717bd649190a35050565b6097546001600160a01b031633146115585760405162461bcd60e51b815260040161069c90614009565b61012d5460ff161561156e5761156c612b4b565b565b61156c612be0565b606081518351146115db5760405162461bcd60e51b815260206004820152602960248201527f455243313135353a206163636f756e747320616e6420696473206c656e677468604482015268040dad2e6dac2e8c6d60bb1b606482015260840161069c565b600083516001600160401b038111156115f6576115f6613a7d565b60405190808252806020026020018201604052801561161f578160200160208202803683370190505b50905060005b84518110156116975761166a85828151811061164357611643614189565b602002602001015185838151811061165d5761165d614189565b6020026020010151610634565b82828151811061167c5761167c614189565b60209081029190910101526116908161445a565b9050611625565b509392505050565b6001600160a01b037f00000000000000000000000000000000000000000000000000000000000000001630036116e75760405162461bcd60e51b815260040161069c906143c2565b7f00000000000000000000000000000000000000000000000000000000000000006001600160a01b0316611730600080516020614ad1833981519152546001600160a01b031690565b6001600160a01b0316146117565760405162461bcd60e51b815260040161069c9061440e565b61175f826129b1565b610785828260016129db565b60009081526101606020526040902060010154600160c81b900463ffffffff16151590565b61012d5460ff16156117d75760405162461bcd60e51b815260206004820152601060248201526f14185d5cd8589b194e881c185d5cd95960821b604482015260640161069c565b80602001356000036117fc57604051636dac6a0960e01b815260040160405180910390fd5b600061180861015f5490565b6040516308122e9960e11b8152909150600090735fc8d32690cc91d4c39d9d3abcbd16989f875707906310245d329061184990339086908890600401614649565b6020604051808303816000875af1158015611868573d6000803e3d6000fd5b505050506040513d601f19601f8201168201806040525081019061188c9190614670565b905061189e60e0840160c0850161468d565b156118c65760008281526101606020526040902060010180546001600160a01b031916331790555b6118d660a08401608085016146aa565b64ffffffffff161561192a576118f260a08401608085016146aa565b600083815261016060205260409020600101805464ffffffffff92909216600160a01b0264ffffffffff60a01b199092169190911790555b61193c610120840161010085016146c5565b60ff161561197b57611956610120840161010085016146c5565b600083815261016060205260409020600201805460ff191660ff929092169190911790555b60008281526101606020526040812080546001600160a01b0319166001600160a01b038416179055805b6119af85806146e0565b9050811015611ae5576119fa6119c586806146e0565b838181106119d5576119d5614189565b6119eb9260206040909202019081019150613c73565b6001600160a01b03163b151590565b15611a3a57611a3a83611a0d87806146e0565b84818110611a1d57611a1d614189565b611a339260206040909202019081019150613c73565b6001612c5d565b611aa0611a4786806146e0565b83818110611a5757611a57614189565b611a6d9260206040909202019081019150613c73565b85611a7888806146e0565b85818110611a8857611a88614189565b9050604002016020016020810190610e059190614729565b611aaa85806146e0565b82818110611aba57611aba614189565b9050604002016020016020810190611ad29190614729565b63ffffffff1691909101906001016119a5565b50801580611af6575063ffffffff81115b80611b045750808460200135115b15611b2257604051636dac6a0960e01b815260040160405180910390fd5b6000838152610160602052604090819020600101805463ffffffff60c81b1916600160c81b63ffffffff85160217905551634e9270c360e11b8152600481018290526001600160a01b03831690639d24e18690602401600060405180830381600087803b158015611b9257600080fd5b505af1158015611ba6573d6000803e3d6000fd5b50505050611bb961015f80546001019055565b600083836001600160a01b03167fc222517c9733e3587af3b8143ebf4da314ea0010c0ded195217f696869e2448287604051611bf59190614744565b60405180910390a450505050565b6000306001600160a01b037f00000000000000000000000000000000000000000000000000000000000000001614611ca35760405162461bcd60e51b815260206004820152603860248201527f555550535570677261646561626c653a206d757374206e6f742062652063616c60448201527f6c6564207468726f7567682064656c656761746563616c6c0000000000000000606482015260840161069c565b50600080516020614ad18339815191525b90565b6097546001600160a01b03163314611ce15760405162461bcd60e51b815260040161069c90614009565b61156c6000612d95565b60008381526101606020526040902060020154600190811614801580611d2c5750600084815261016060205260409020600101546001600160a01b03163314155b15611d4a5760405163325d6f6360e11b815260040160405180910390fd5b600084815261016060205260409081902060018101805464ffffffffff8716600160a01b0264ffffffffff60a01b1990911617905554905163853990c360e01b81526001600160a01b039091169063853990c390611db990859060040164ffffffffff91909116815260200190565b600060405180830381600087803b158015611dd357600080fd5b505af1158015611de7573d6000803e3d6000fd5b50506040805164ffffffffff8088168252861660208201528793507f8df1a47474bd7552c3263c1ed98dbca78bb911b3668e3b5e2c2746062131abbe92500161096a565b600054610100900460ff16611e465760005460ff1615611e4a565b303b155b611ead5760405162461bcd60e51b815260206004820152602e60248201527f496e697469616c697a61626c653a20636f6e747261637420697320616c72656160448201526d191e481a5b9a5d1a585b1a5e995960921b606482015260840161069c565b600054610100900460ff16158015611ecf576000805461ffff19166101011790555b611ed7612de7565b8015611493576000805461ff001916905550565b610785338383612e16565b8151845114611f1857604051636dac6a0960e01b815260040160405180910390fd5b8015611f865760005b8451811015611f8057611f7886868381518110611f4057611f40614189565b602002602001015186868581518110611f5b57611f5b614189565b60200260200101516040518060200160405280600081525061221c565b600101611f21565b50611fe8565b60005b84518110156113af57611fe086868381518110611fa857611fa8614189565b602002602001015186868581518110611fc357611fc3614189565b602002602001015160405180602001604052806000815250611fef565b600101611f89565b5050505050565b611ff8836124ab565b600083815261016060205260409020600101546001600160a01b0316156120325760405163ea8e4eb560e01b815260040160405180910390fd5b604080516001808252818301909252600091602080830190803683375050604080516001808252818301909252929350600092915060208083019080368337505060408051600180825281830190925292935060009291506020808301908036833701905050905085836000815181106120ae576120ae614189565b6020908102919091018101919091526000878152610160909152604081205483516001600160a01b039091169184916120e9576120e9614189565b60200260200101906001600160a01b031690816001600160a01b031681525050848160008151811061211d5761211d614189565b6020026020010181815250506121388888858585600061277b565b6121458888888888612ef6565b5050505050505050565b60405163c455279160e01b81526001600160a01b03838116600483015260009173f57b2c51ded3a29e6891aba85459d600256cf31791841690829063c455279190602401602060405180830381865afa1580156121b0573d6000803e3d6000fd5b505050506040513d601f19601f820116820180604052508101906121d49190614670565b6001600160a01b0316036121ec5760019150506106ca565b50506001600160a01b03918216600090815260fc6020908152604080832093909416825291909152205460ff1690565b612225836124ab565b600083815261016060205260409020600101546001600160a01b0316156122b557600083815261016060205260409020600101546001600160a01b031633146122b05760405162461bcd60e51b815260206004820152601860248201527f43616c6c6572206973206e6f7420636f6e74726f6c6c65720000000000000000604482015260640161069c565b6122ed565b6001600160a01b0385163314806122d157506122d1853361214f565b6122ed5760405162461bcd60e51b815260040161069c90614757565b6040805160018082528183019092526000916020808301908036833750506040805160018082528183019092529293506000929150602080830190803683375050604080516001808252818301909252929350600092915060208083019080368337019050509050858360008151811061236957612369614189565b6020908102919091018101919091526000878152610160909152604081205483516001600160a01b039091169184916123a4576123a4614189565b60200260200101906001600160a01b031690816001600160a01b03168152505084816000815181106123d8576123d8614189565b6020026020010181815250506123f38888858585600161277b565b6121458888888888612f37565b6097546001600160a01b0316331461242a5760405162461bcd60e51b815260040161069c90614009565b6001600160a01b03811661248f5760405162461bcd60e51b815260206004820152602660248201527f4f776e61626c653a206e6577206f776e657220697320746865207a65726f206160448201526564647265737360d01b606482015260840161069c565b61149381612d95565b80516107859060fd90602084019061372f565b60008181526101606020526040902060010154600160a01b900464ffffffffff1642101561149357604051630934355760e11b815260040160405180910390fd5b6001600160a01b03841661254c5760405162461bcd60e51b815260206004820152602160248201527f455243313135353a206d696e7420746f20746865207a65726f206164647265736044820152607360f81b606482015260840161069c565b3361256c8160008761255d88613058565b61256688613058565b876130a3565b600084815260fb602090815260408083206001600160a01b03891684529091528120805485929061259e9084906147a0565b909155505060408051858152602081018590526001600160a01b0380881692600092918516917fc3d58168c5ae7397731d063d5bbf3d657854427343f4c083240f7aacaa2d0f62910160405180910390a4611fe8816000878787876130c8565b6001600160a01b0383166126605760405162461bcd60e51b815260206004820152602360248201527f455243313135353a206275726e2066726f6d20746865207a65726f206164647260448201526265737360e81b606482015260840161069c565b3361268f8185600061267187613058565b61267a87613058565b604051806020016040528060008152506130a3565b600083815260fb602090815260408083206001600160a01b03881684529091529020548281101561270e5760405162461bcd60e51b8152602060048201526024808201527f455243313135353a206275726e20616d6f756e7420657863656564732062616c604482015263616e636560e01b606482015260840161069c565b600084815260fb602090815260408083206001600160a01b03898116808652918452828520888703905582518981529384018890529092908616917fc3d58168c5ae7397731d063d5bbf3d657854427343f4c083240f7aacaa2d0f62910160405180910390a45050505050565b6001600160a01b0385163b151560005b8451811015612145578381815181106127a6576127a6614189565b60200260200101516000036127ce57604051636dac6a0960e01b815260040160405180910390fd5b8115612844578481815181106127e6576127e6614189565b60200260200101516001600160a01b0316876001600160a01b03160361281f576040516368ee781960e11b815260040160405180910390fd5b61284485828151811061283457612834614189565b6020026020010151886001612c5d565b84818151811061285657612856614189565b60200260200101516001600160a01b031663b230074a8989866128858d8c888151811061165d5761165d614189565b89878151811061289757612897614189565b60209081029190910101516040516001600160e01b031960e088901b1681526001600160a01b03958616600482015294909316602485015290151560448401526064830152608482015260a401600060405180830381600087803b1580156128fe57600080fd5b505af1158015612912573d6000803e3d6000fd5b5050505080600101905061278b565b6001600160a01b03851633148061293d575061293d853361214f565b6129a45760405162461bcd60e51b815260206004820152603260248201527f455243313135353a207472616e736665722063616c6c6572206973206e6f74206044820152711bdddb995c881b9bdc88185c1c1c9bdd995960721b606482015260840161069c565b611fe88585858585613223565b6097546001600160a01b031633146114935760405162461bcd60e51b815260040161069c90614009565b7f4910fdfa16fed3260ed0e7147f7cc6da11a60208b5b9406d12a635614ffd91435460ff1615612a1357612a0e83613409565b505050565b826001600160a01b03166352d1902d6040518163ffffffff1660e01b8152600401602060405180830381865afa925050508015612a6d575060408051601f3d908101601f19168201909252612a6a918101906147b8565b60015b612ad05760405162461bcd60e51b815260206004820152602e60248201527f45524331393637557067726164653a206e657720696d706c656d656e7461746960448201526d6f6e206973206e6f74205555505360901b606482015260840161069c565b600080516020614ad18339815191528114612b3f5760405162461bcd60e51b815260206004820152602960248201527f45524331393637557067726164653a20756e737570706f727465642070726f786044820152681a58589b195555525160ba1b606482015260840161069c565b50612a0e8383836134a5565b61012d5460ff16612b955760405162461bcd60e51b815260206004820152601460248201527314185d5cd8589b194e881b9bdd081c185d5cd95960621b604482015260640161069c565b61012d805460ff191690557f5db9ee0a495bf2e6ff9c91a7834c1ba4fdd244a5e8aa4e537bd38aeae4b073aa335b6040516001600160a01b03909116815260200160405180910390a1565b61012d5460ff1615612c275760405162461bcd60e51b815260206004820152601060248201526f14185d5cd8589b194e881c185d5cd95960821b604482015260640161069c565b61012d805460ff191660011790557f62e78cea01bee320cd4e420270b5ea74000d11b0c9f74754ebdbfc544b05a258612bc33390565b60408051600481526024810182526020810180516001600160e01b0316634abf03db60e11b179052905160009182916001600160a01b03861691612ca0916147d1565b600060405180830381855afa9150503d8060008114612cdb576040519150601f19603f3d011682016040523d82523d6000602084013e612ce0565b606091505b50915091508115611fe857600081806020019051810190612d0191906147ed565b5050506000838152610160602052604090205492935050506001600160a01b038087169116036113af57604051637669b10560e11b81526004810182905284151560248201526001600160a01b0387169063ecd3620a90604401600060405180830381600087803b158015612d7557600080fd5b505af1158015612d89573d6000803e3d6000fd5b50505050505050505050565b609780546001600160a01b038381166001600160a01b0319831681179093556040519116919082907f8be0079c531659141344cd1fd0a4f28419497f9722a3daafe3b4186f6b6457e090600090a35050565b600054610100900460ff16612e0e5760405162461bcd60e51b815260040161069c90614830565b61156c6134d0565b816001600160a01b0316836001600160a01b031603612e895760405162461bcd60e51b815260206004820152602960248201527f455243313135353a2073657474696e6720617070726f76616c20737461747573604482015268103337b91039b2b63360b91b606482015260840161069c565b6001600160a01b03838116600081815260fc6020908152604080832094871680845294825291829020805460ff191686151590811790915591519182527f17307eab39ab6107e8899845ad3d59bd9653f200f220920489ca2b5937696c31910160405180910390a3505050565b6001600160a01b038516331480612f125750612f12853361214f565b612f2e5760405162461bcd60e51b815260040161069c90614757565b611fe885858585855b6001600160a01b038416612f5d5760405162461bcd60e51b815260040161069c9061487b565b33612f6d81878761255d88613058565b600084815260fb602090815260408083206001600160a01b038a16845290915290205483811015612fb05760405162461bcd60e51b815260040161069c906148c0565b600085815260fb602090815260408083206001600160a01b038b8116855292528083208785039055908816825281208054869290612fef9084906147a0565b909155505060408051868152602081018690526001600160a01b03808916928a821692918616917fc3d58168c5ae7397731d063d5bbf3d657854427343f4c083240f7aacaa2d0f62910160405180910390a461304f8288888888886130c8565b50505050505050565b6040805160018082528183019092526060916000919060208083019080368337019050509050828160008151811061309257613092614189565b602090810291909101015292915050565b61012d5460ff16156113af57604051631309a56360e01b815260040160405180910390fd5b6001600160a01b0384163b156113af5760405163f23a6e6160e01b81526001600160a01b0385169063f23a6e619061310c908990899088908890889060040161490a565b6020604051808303816000875af1925050508015613147575060408051601f3d908101601f1916820190925261314491810190614944565b60015b6131f357613153614961565b806308c379a00361318c575061316761497c565b80613172575061318e565b8060405162461bcd60e51b815260040161069c9190613984565b505b60405162461bcd60e51b815260206004820152603460248201527f455243313135353a207472616e7366657220746f206e6f6e20455243313135356044820152732932b1b2b4bb32b91034b6b83632b6b2b73a32b960611b606482015260840161069c565b6001600160e01b0319811663f23a6e6160e01b1461304f5760405162461bcd60e51b815260040161069c90614a05565b81518351146132855760405162461bcd60e51b815260206004820152602860248201527f455243313135353a2069647320616e6420616d6f756e7473206c656e677468206044820152670dad2e6dac2e8c6d60c31b606482015260840161069c565b6001600160a01b0384166132ab5760405162461bcd60e51b815260040161069c9061487b565b336132ba8187878787876130a3565b60005b84518110156133a35760008582815181106132da576132da614189565b6020026020010151905060008583815181106132f8576132f8614189565b602090810291909101810151600084815260fb835260408082206001600160a01b038e1683529093529190912054909150818110156133495760405162461bcd60e51b815260040161069c906148c0565b600083815260fb602090815260408083206001600160a01b038e8116855292528083208585039055908b168252812080548492906133889084906147a0565b925050819055505050508061339c9061445a565b90506132bd565b50846001600160a01b0316866001600160a01b0316826001600160a01b03167f4a39dc06d4c0dbc64b70af90fd698a233a518aa5d07e595d983b8c0526c8f7fb87876040516133f3929190614a4d565b60405180910390a46113af818787878787613500565b6001600160a01b0381163b6134765760405162461bcd60e51b815260206004820152602d60248201527f455243313936373a206e657720696d706c656d656e746174696f6e206973206e60448201526c1bdd08184818dbdb9d1c9858dd609a1b606482015260840161069c565b600080516020614ad183398151915280546001600160a01b0319166001600160a01b0392909216919091179055565b6134ae836135bb565b6000825111806134bb5750805b15612a0e576134ca83836135fb565b50505050565b600054610100900460ff166134f75760405162461bcd60e51b815260040161069c90614830565b61156c33612d95565b6001600160a01b0384163b156113af5760405163bc197c8160e01b81526001600160a01b0385169063bc197c81906135449089908990889088908890600401614a72565b6020604051808303816000875af192505050801561357f575060408051601f3d908101601f1916820190925261357c91810190614944565b60015b61358b57613153614961565b6001600160e01b0319811663bc197c8160e01b1461304f5760405162461bcd60e51b815260040161069c90614a05565b6135c481613409565b6040516001600160a01b038216907fbc7cd75a20ee27fd9adebab32041f755214dbc6bffa90cc0225b39da2e5c2d3b90600090a250565b60606001600160a01b0383163b6136635760405162461bcd60e51b815260206004820152602660248201527f416464726573733a2064656c65676174652063616c6c20746f206e6f6e2d636f6044820152651b9d1c9858dd60d21b606482015260840161069c565b600080846001600160a01b03168460405161367e91906147d1565b600060405180830381855af49150503d80600081146136b9576040519150601f19603f3d011682016040523d82523d6000602084013e6136be565b606091505b50915091506136e68282604051806060016040528060278152602001614af1602791396136ef565b95945050505050565b606083156136fe575081613728565b82511561370e5782518084602001fd5b8160405162461bcd60e51b815260040161069c9190613984565b9392505050565b82805461373b9061414f565b90600052602060002090601f01602090048101928261375d57600085556137a3565b82601f1061377657805160ff19168380011785556137a3565b828001600101855582156137a3579182015b828111156137a3578251825591602001919060010190613788565b506137af9291506137b3565b5090565b5b808211156137af57600081556001016137b4565b6001600160a01b038116811461149357600080fd5b600080604083850312156137f057600080fd5b82356137fb816137c8565b946020939093013593505050565b6001600160e01b03198116811461149357600080fd5b60006020828403121561383157600080fd5b813561372881613809565b6000806020838503121561384f57600080fd5b82356001600160401b038082111561386657600080fd5b818501915085601f83011261387a57600080fd5b81358181111561388957600080fd5b86602082850101111561389b57600080fd5b60209290920196919550909350505050565b801515811461149357600080fd5b80356138c6816138ad565b919050565b600080600080608085870312156138e157600080fd5b8435935060208501356138f3816138ad565b92506040850135613903816138ad565b9396929550929360600135925050565b60006020828403121561392557600080fd5b5035919050565b60005b8381101561394757818101518382015260200161392f565b838111156134ca5750506000910152565b6000815180845261397081602086016020860161392c565b601f01601f19169290920160200192915050565b6020815260006137286020830184613958565b60008083601f8401126139a957600080fd5b5081356001600160401b038111156139c057600080fd5b6020830191508360208260051b85010111156139db57600080fd5b9250929050565b6000806000806000606086880312156139fa57600080fd5b8535945060208601356001600160401b0380821115613a1857600080fd5b613a2489838a01613997565b90965094506040880135915080821115613a3d57600080fd5b50613a4a88828901613997565b969995985093965092949392505050565b60008060408385031215613a6e57600080fd5b50508035926020909101359150565b634e487b7160e01b600052604160045260246000fd5b601f8201601f191681016001600160401b0381118282101715613ab857613ab8613a7d565b6040525050565b60006001600160401b03821115613ad857613ad8613a7d565b5060051b60200190565b600082601f830112613af357600080fd5b81356020613b0082613abf565b604051613b0d8282613a93565b83815260059390931b8501820192828101915086841115613b2d57600080fd5b8286015b84811015613b485780358352918301918301613b31565b509695505050505050565b600082601f830112613b6457600080fd5b81356001600160401b03811115613b7d57613b7d613a7d565b604051613b94601f8301601f191660200182613a93565b818152846020838601011115613ba957600080fd5b816020850160208301376000918101602001919091529392505050565b600080600080600060a08688031215613bde57600080fd5b8535613be9816137c8565b94506020860135613bf9816137c8565b935060408601356001600160401b0380821115613c1557600080fd5b613c2189838a01613ae2565b94506060880135915080821115613c3757600080fd5b613c4389838a01613ae2565b93506080880135915080821115613c5957600080fd5b50613c6688828901613b53565b9150509295509295909350565b600060208284031215613c8557600080fd5b8135613728816137c8565b60008060408385031215613ca357600080fd5b823591506020830135613cb5816137c8565b809150509250929050565b600082601f830112613cd157600080fd5b81356020613cde82613abf565b604051613ceb8282613a93565b83815260059390931b8501820192828101915086841115613d0b57600080fd5b8286015b84811015613b48578035613d22816137c8565b8352918301918301613d0f565b60008060408385031215613d4257600080fd5b82356001600160401b0380821115613d5957600080fd5b613d6586838701613cc0565b93506020850135915080821115613d7b57600080fd5b50613d8885828601613ae2565b9150509250929050565b600081518084526020808501945080840160005b83811015613dc257815187529582019590820190600101613da6565b509495945050505050565b6020815260006137286020830184613d92565b60008060408385031215613df357600080fd5b8235613dfe816137c8565b915060208301356001600160401b03811115613e1957600080fd5b613d8885828601613b53565b600060208284031215613e3757600080fd5b81356001600160401b03811115613e4d57600080fd5b8201610120818503121561372857600080fd5b803564ffffffffff811681146138c657600080fd5b600080600060608486031215613e8a57600080fd5b83359250613e9a60208501613e60565b9150613ea860408501613e60565b90509250925092565b60008060408385031215613ec457600080fd5b8235613ecf816137c8565b91506020830135613cb5816138ad565b600080600080600060a08688031215613ef757600080fd5b8535613f02816137c8565b945060208601356001600160401b0380821115613f1e57600080fd5b613f2a89838a01613cc0565b9550604088013594506060880135915080821115613f4757600080fd5b50613f5488828901613ae2565b9250506080860135613f65816138ad565b809150509295509295909350565b600080600080600060a08688031215613f8b57600080fd5b8535613f96816137c8565b94506020860135613fa6816137c8565b9350604086013592506060860135915060808601356001600160401b03811115613fcf57600080fd5b613c6688828901613b53565b60008060408385031215613fee57600080fd5b8235613ff9816137c8565b91506020830135613cb5816137c8565b6020808252818101527f4f776e61626c653a2063616c6c6572206973206e6f7420746865206f776e6572604082015260600190565b81838237637b69647d60e01b9101908152600401919050565b600082601f83011261406857600080fd5b8151602061407582613abf565b6040516140828282613a93565b83815260059390931b85018201928281019150868411156140a257600080fd5b8286015b84811015613b485780516140b9816137c8565b83529183019183016140a6565b60008060008060008060c087890312156140df57600080fd5b865195506020870151945060408701516140f8816137c8565b6060880151909450614109816138ad565b608088015190935061411a816138ad565b60a08801519092506001600160401b0381111561413657600080fd5b61414289828a01614057565b9150509295509295509295565b600181811c9082168061416357607f821691505b60208210810361418357634e487b7160e01b600052602260045260246000fd5b50919050565b634e487b7160e01b600052603260045260246000fd5b8035600381900b81146138c657600080fd5b6000602082840312156141c357600080fd5b6137288261419f565b634e487b7160e01b600052601160045260246000fd5b60008160030b637fffffff1981036141fc576141fc6141cc565b60000392915050565b60008160030b8360030b6000821282637fffffff0382138115161561422c5761422c6141cc565b82637fffffff19038212811615614245576142456141cc565b50019392505050565b600063ffffffff80831681851680830382111561426d5761426d6141cc565b01949350505050565b600063ffffffff83811690831681811015614293576142936141cc565b039392505050565b8183526000602080850194508260005b85811015613dc25781356142be816137c8565b6001600160a01b0316875295820195908201906001016142ab565b8183526000602080850194508260005b85811015613dc2576142fa8261419f565b60030b875295820195908201906001016142e9565b60608152600061432360608301878961429b565b82810360208401526143368186886142d9565b91505063ffffffff831660408301529695505050505050565b60408152600061436360408301868861429b565b82810360208401526143768185876142d9565b979650505050505050565b600081600019048311821515161561439b5761439b6141cc565b500290565b6000826143bd57634e487b7160e01b600052601260045260246000fd5b500490565b6020808252602c908201527f46756e6374696f6e206d7573742062652063616c6c6564207468726f7567682060408201526b19195b1959d85d1958d85b1b60a21b606082015260800190565b6020808252602c908201527f46756e6374696f6e206d7573742062652063616c6c6564207468726f7567682060408201526b6163746976652070726f787960a01b606082015260800190565b60006001820161446c5761446c6141cc565b5060010190565b6000808335601e1984360301811261448a57600080fd5b83016020810192503590506001600160401b038111156144a957600080fd5b8060061b36038313156139db57600080fd5b803563ffffffff811681146138c657600080fd5b8183526000602080850194508260005b85811015613dc25781356144f2816137c8565b6001600160a01b0316875263ffffffff61450d8385016144bb565b168784015260409687019691909101906001016144df565b6000808335601e1984360301811261453c57600080fd5b83016020810192503590506001600160401b0381111561455b57600080fd5b8060051b36038313156139db57600080fd5b803560ff811681146138c657600080fd5b600061012061458d8384614473565b82865261459d83870182846144cf565b92505050602083013560208501526145b86040840184614525565b85830360408701526145cb83828461429b565b92505050606083013560608501526145e560808401613e60565b64ffffffffff1660808501526145fd60a084016138bb565b151560a085015261461060c084016138bb565b151560c085015261462360e0840161456d565b60ff1660e085015261010061463984820161456d565b60ff169401939093525090919050565b60018060a01b03841681528260208201526060604082015260006136e6606083018461457e565b60006020828403121561468257600080fd5b8151613728816137c8565b60006020828403121561469f57600080fd5b8135613728816138ad565b6000602082840312156146bc57600080fd5b61372882613e60565b6000602082840312156146d757600080fd5b6137288261456d565b6000808335601e198436030181126146f757600080fd5b8301803591506001600160401b0382111561471157600080fd5b6020019150600681901b36038213156139db57600080fd5b60006020828403121561473b57600080fd5b613728826144bb565b602081526000613728602083018461457e565b60208082526029908201527f455243313135353a2063616c6c6572206973206e6f74206f776e6572206e6f7260408201526808185c1c1c9bdd995960ba1b606082015260800190565b600082198211156147b3576147b36141cc565b500190565b6000602082840312156147ca57600080fd5b5051919050565b600082516147e381846020870161392c565b9190910192915050565b60008060008060008060c0878903121561480657600080fd5b865195506020870151614818816137c8565b604088015160608901519196509450614109816138ad565b6020808252602b908201527f496e697469616c697a61626c653a20636f6e7472616374206973206e6f74206960408201526a6e697469616c697a696e6760a81b606082015260800190565b60208082526025908201527f455243313135353a207472616e7366657220746f20746865207a65726f206164604082015264647265737360d81b606082015260800190565b6020808252602a908201527f455243313135353a20696e73756666696369656e742062616c616e636520666f60408201526939103a3930b739b332b960b11b606082015260800190565b6001600160a01b03868116825285166020820152604081018490526060810183905260a06080820181905260009061437690830184613958565b60006020828403121561495657600080fd5b815161372881613809565b600060033d1115611cb45760046000803e5060005160e01c90565b600060443d101561498a5790565b6040516003193d81016004833e81513d6001600160401b0381602484011181841117156149b957505050505090565b82850191508151818111156149d15750505050505090565b843d87010160208285010111156149eb5750505050505090565b6149fa60208286010187613a93565b509095945050505050565b60208082526028908201527f455243313135353a204552433131353552656365697665722072656a656374656040820152676420746f6b656e7360c01b606082015260800190565b604081526000614a606040830185613d92565b82810360208401526136e68185613d92565b6001600160a01b0386811682528516602082015260a060408201819052600090614a9e90830186613d92565b8281036060840152614ab08186613d92565b90508281036080840152614ac48185613958565b9897505050505050505056fe360894a13ba1a3210667c828492db98dca3e2076cc3735a920a3ca505d382bbc416464726573733a206c6f772d6c6576656c2064656c65676174652063616c6c206661696c6564a2646970667358221220b74c4ea0b17a9fb6f1ac37f9e62216fdc8ae5d5070962687ba3a95fd15975c6d64736f6c634300080d0033",
  "linkReferences": {},
  "deployedLinkReferences": {}
}