{
  "_format": "hh-sol-artifact-1",
  "contractName": "SliceCore",
  "sourceName": "contracts/SliceCore.sol",
  "abi": [
    {
      "inputs": [],
      "name": "Invalid",
      "type": "error"
    },
    {
      "inputs": [],
      "name": "IsPaused",
      "type": "error"
    },
    {
      "inputs": [],
      "name": "NotAuthorized",
      "type": "error"
    },
    {
      "inputs": [],
      "name": "NotSuccessful",
      "type": "error"
    },
    {
      "inputs": [],
      "name": "PaymentLoop",
      "type": "error"
    },
    {
      "inputs": [],
      "name": "transferLocked",
      "type": "error"
    },
    {
      "anonymous": false,
      "inputs": [
        {
          "indexed": false,
          "internalType": "address",
          "name": "previousAdmin",
          "type": "address"
        },
        {
          "indexed": false,
          "internalType": "address",
          "name": "newAdmin",
          "type": "address"
        }
      ],
      "name": "AdminChanged",
      "type": "event"
    },
    {
      "anonymous": false,
      "inputs": [
        {
          "indexed": true,
          "internalType": "address",
          "name": "account",
          "type": "address"
        },
        {
          "indexed": true,
          "internalType": "address",
          "name": "operator",
          "type": "address"
        },
        {
          "indexed": false,
          "internalType": "bool",
          "name": "approved",
          "type": "bool"
        }
      ],
      "name": "ApprovalForAll",
      "type": "event"
    },
    {
      "anonymous": false,
      "inputs": [
        {
          "indexed": true,
          "internalType": "address",
          "name": "beacon",
          "type": "address"
        }
      ],
      "name": "BeaconUpgraded",
      "type": "event"
    },
    {
      "anonymous": false,
      "inputs": [
        {
          "indexed": true,
          "internalType": "address",
          "name": "previousOwner",
          "type": "address"
        },
        {
          "indexed": true,
          "internalType": "address",
          "name": "newOwner",
          "type": "address"
        }
      ],
      "name": "OwnershipTransferred",
      "type": "event"
    },
    {
      "anonymous": false,
      "inputs": [
        {
          "indexed": false,
          "internalType": "address",
          "name": "account",
          "type": "address"
        }
      ],
      "name": "Paused",
      "type": "event"
    },
    {
      "anonymous": false,
      "inputs": [
        {
          "indexed": true,
          "internalType": "uint256",
          "name": "tokenId",
          "type": "uint256"
        },
        {
          "indexed": false,
          "internalType": "bool",
          "name": "isSlicer",
          "type": "bool"
        },
        {
          "indexed": false,
          "internalType": "bool",
          "name": "isActive",
          "type": "bool"
        },
        {
          "indexed": false,
          "internalType": "uint256",
          "name": "royaltyPercentage",
          "type": "uint256"
        }
      ],
      "name": "RoyaltySet",
      "type": "event"
    },
    {
      "anonymous": false,
      "inputs": [
        {
          "indexed": true,
          "internalType": "uint256",
          "name": "tokenId",
          "type": "uint256"
        },
        {
          "indexed": true,
          "internalType": "address",
          "name": "slicerController",
          "type": "address"
        }
      ],
      "name": "SlicerControllerSet",
      "type": "event"
    },
    {
      "anonymous": false,
      "inputs": [
        {
          "indexed": true,
          "internalType": "uint256",
          "name": "tokenId",
          "type": "uint256"
        },
        {
          "indexed": false,
          "internalType": "address payable[]",
          "name": "accounts",
          "type": "address[]"
        },
        {
          "indexed": false,
          "internalType": "int32[]",
          "name": "tokensDiffs",
          "type": "int32[]"
        }
      ],
      "name": "TokenResliced",
      "type": "event"
    },
    {
      "anonymous": false,
      "inputs": [
        {
          "indexed": true,
          "internalType": "address",
          "name": "slicerAddress",
          "type": "address"
        },
        {
          "indexed": true,
          "internalType": "uint256",
          "name": "tokenId",
          "type": "uint256"
        },
        {
          "components": [
            {
              "components": [
                {
                  "internalType": "address",
                  "name": "account",
                  "type": "address"
                },
                {
                  "internalType": "uint32",
                  "name": "shares",
                  "type": "uint32"
                }
              ],
              "internalType": "struct Payee[]",
              "name": "payees",
              "type": "tuple[]"
            },
            {
              "internalType": "uint256",
              "name": "minimumShares",
              "type": "uint256"
            },
            {
              "internalType": "address[]",
              "name": "currencies",
              "type": "address[]"
            },
            {
              "internalType": "uint256",
              "name": "releaseTimelock",
              "type": "uint256"
            },
            {
              "internalType": "uint40",
              "name": "transferTimelock",
              "type": "uint40"
            },
            {
              "internalType": "address",
              "name": "controller",
              "type": "address"
            },
            {
              "internalType": "bool",
              "name": "isImmutable",
              "type": "bool"
            },
            {
              "internalType": "uint8",
              "name": "slicerFlags",
              "type": "uint8"
            },
            {
              "internalType": "uint8",
              "name": "sliceCoreFlags",
              "type": "uint8"
            }
          ],
          "indexed": false,
          "internalType": "struct SliceParams",
          "name": "params",
          "type": "tuple"
        },
        {
          "indexed": true,
          "internalType": "uint256",
          "name": "slicerVersion",
          "type": "uint256"
        }
      ],
      "name": "TokenSliced",
      "type": "event"
    },
    {
      "anonymous": false,
      "inputs": [
        {
          "indexed": true,
          "internalType": "address",
          "name": "operator",
          "type": "address"
        },
        {
          "indexed": true,
          "internalType": "address",
          "name": "from",
          "type": "address"
        },
        {
          "indexed": true,
          "internalType": "address",
          "name": "to",
          "type": "address"
        },
        {
          "indexed": false,
          "internalType": "uint256[]",
          "name": "ids",
          "type": "uint256[]"
        },
        {
          "indexed": false,
          "internalType": "uint256[]",
          "name": "values",
          "type": "uint256[]"
        }
      ],
      "name": "TransferBatch",
      "type": "event"
    },
    {
      "anonymous": false,
      "inputs": [
        {
          "indexed": true,
          "internalType": "address",
          "name": "operator",
          "type": "address"
        },
        {
          "indexed": true,
          "internalType": "address",
          "name": "from",
          "type": "address"
        },
        {
          "indexed": true,
          "internalType": "address",
          "name": "to",
          "type": "address"
        },
        {
          "indexed": false,
          "internalType": "uint256",
          "name": "id",
          "type": "uint256"
        },
        {
          "indexed": false,
          "internalType": "uint256",
          "name": "value",
          "type": "uint256"
        }
      ],
      "name": "TransferSingle",
      "type": "event"
    },
    {
      "anonymous": false,
      "inputs": [
        {
          "indexed": false,
          "internalType": "string",
          "name": "value",
          "type": "string"
        },
        {
          "indexed": true,
          "internalType": "uint256",
          "name": "id",
          "type": "uint256"
        }
      ],
      "name": "URI",
      "type": "event"
    },
    {
      "anonymous": false,
      "inputs": [
        {
          "indexed": false,
          "internalType": "address",
          "name": "account",
          "type": "address"
        }
      ],
      "name": "Unpaused",
      "type": "event"
    },
    {
      "anonymous": false,
      "inputs": [
        {
          "indexed": true,
          "internalType": "address",
          "name": "implementation",
          "type": "address"
        }
      ],
      "name": "Upgraded",
      "type": "event"
    },
    {
      "inputs": [
        {
          "internalType": "string",
          "name": "basePath_",
          "type": "string"
        }
      ],
      "name": "_setBasePath",
      "outputs": [],
      "stateMutability": "nonpayable",
      "type": "function"
    },
    {
      "inputs": [],
      "name": "_togglePause",
      "outputs": [],
      "stateMutability": "nonpayable",
      "type": "function"
    },
    {
      "inputs": [
        {
          "internalType": "address",
          "name": "account",
          "type": "address"
        },
        {
          "internalType": "uint256",
          "name": "id",
          "type": "uint256"
        }
      ],
      "name": "balanceOf",
      "outputs": [
        {
          "internalType": "uint256",
          "name": "",
          "type": "uint256"
        }
      ],
      "stateMutability": "view",
      "type": "function"
    },
    {
      "inputs": [
        {
          "internalType": "address[]",
          "name": "accounts",
          "type": "address[]"
        },
        {
          "internalType": "uint256[]",
          "name": "ids",
          "type": "uint256[]"
        }
      ],
      "name": "balanceOfBatch",
      "outputs": [
        {
          "internalType": "uint256[]",
          "name": "",
          "type": "uint256[]"
        }
      ],
      "stateMutability": "view",
      "type": "function"
    },
    {
      "inputs": [
        {
          "internalType": "uint256",
          "name": "id",
          "type": "uint256"
        }
      ],
      "name": "controller",
      "outputs": [
        {
          "internalType": "address",
          "name": "",
          "type": "address"
        }
      ],
      "stateMutability": "view",
      "type": "function"
    },
    {
      "inputs": [
        {
          "internalType": "uint256",
          "name": "id",
          "type": "uint256"
        }
      ],
      "name": "exists",
      "outputs": [
        {
          "internalType": "bool",
          "name": "",
          "type": "bool"
        }
      ],
      "stateMutability": "view",
      "type": "function"
    },
    {
      "inputs": [],
      "name": "initialize",
      "outputs": [],
      "stateMutability": "nonpayable",
      "type": "function"
    },
    {
      "inputs": [
        {
          "internalType": "address",
          "name": "account",
          "type": "address"
        },
        {
          "internalType": "address",
          "name": "operator",
          "type": "address"
        }
      ],
      "name": "isApprovedForAll",
      "outputs": [
        {
          "internalType": "bool",
          "name": "",
          "type": "bool"
        }
      ],
      "stateMutability": "view",
      "type": "function"
    },
    {
      "inputs": [],
      "name": "owner",
      "outputs": [
        {
          "internalType": "address",
          "name": "",
          "type": "address"
        }
      ],
      "stateMutability": "view",
      "type": "function"
    },
    {
      "inputs": [],
      "name": "paused",
      "outputs": [
        {
          "internalType": "bool",
          "name": "",
          "type": "bool"
        }
      ],
      "stateMutability": "view",
      "type": "function"
    },
    {
      "inputs": [],
      "name": "proxiableUUID",
      "outputs": [
        {
          "internalType": "bytes32",
          "name": "",
          "type": "bytes32"
        }
      ],
      "stateMutability": "view",
      "type": "function"
    },
    {
      "inputs": [],
      "name": "renounceOwnership",
      "outputs": [],
      "stateMutability": "nonpayable",
      "type": "function"
    },
    {
      "inputs": [
        {
          "internalType": "uint256",
          "name": "tokenId",
          "type": "uint256"
        },
        {
          "internalType": "address payable[]",
          "name": "accounts",
          "type": "address[]"
        },
        {
          "internalType": "int32[]",
          "name": "tokensDiffs",
          "type": "int32[]"
        }
      ],
      "name": "reslice",
      "outputs": [],
      "stateMutability": "nonpayable",
      "type": "function"
    },
    {
      "inputs": [
        {
          "internalType": "uint256",
          "name": "tokenId",
          "type": "uint256"
        },
        {
          "internalType": "uint256",
          "name": "salePrice",
          "type": "uint256"
        }
      ],
      "name": "royaltyInfo",
      "outputs": [
        {
          "internalType": "address",
          "name": "receiver",
          "type": "address"
        },
        {
          "internalType": "uint256",
          "name": "royaltyAmount",
          "type": "uint256"
        }
      ],
      "stateMutability": "view",
      "type": "function"
    },
    {
      "inputs": [
        {
          "internalType": "address",
          "name": "from",
          "type": "address"
        },
        {
          "internalType": "address",
          "name": "to",
          "type": "address"
        },
        {
          "internalType": "uint256[]",
          "name": "ids",
          "type": "uint256[]"
        },
        {
          "internalType": "uint256[]",
          "name": "amounts",
          "type": "uint256[]"
        },
        {
          "internalType": "bytes",
          "name": "data",
          "type": "bytes"
        }
      ],
      "name": "safeBatchTransferFrom",
      "outputs": [],
      "stateMutability": "nonpayable",
      "type": "function"
    },
    {
      "inputs": [
        {
          "internalType": "address",
          "name": "from",
          "type": "address"
        },
        {
          "internalType": "address",
          "name": "to",
          "type": "address"
        },
        {
          "internalType": "uint256",
          "name": "id",
          "type": "uint256"
        },
        {
          "internalType": "uint256",
          "name": "amount",
          "type": "uint256"
        },
        {
          "internalType": "bytes",
          "name": "data",
          "type": "bytes"
        }
      ],
      "name": "safeTransferFrom",
      "outputs": [],
      "stateMutability": "nonpayable",
      "type": "function"
    },
    {
      "inputs": [
        {
          "internalType": "address",
          "name": "from",
          "type": "address"
        },
        {
          "internalType": "address",
          "name": "to",
          "type": "address"
        },
        {
          "internalType": "uint256",
          "name": "id",
          "type": "uint256"
        },
        {
          "internalType": "uint256",
          "name": "amount",
          "type": "uint256"
        },
        {
          "internalType": "bytes",
          "name": "data",
          "type": "bytes"
        }
      ],
      "name": "safeTransferFromUnreleased",
      "outputs": [],
      "stateMutability": "nonpayable",
      "type": "function"
    },
    {
      "inputs": [
        {
          "internalType": "address",
          "name": "operator",
          "type": "address"
        },
        {
          "internalType": "bool",
          "name": "approved",
          "type": "bool"
        }
      ],
      "name": "setApprovalForAll",
      "outputs": [],
      "stateMutability": "nonpayable",
      "type": "function"
    },
    {
      "inputs": [
        {
          "internalType": "uint256",
          "name": "id",
          "type": "uint256"
        },
        {
          "internalType": "address",
          "name": "newController",
          "type": "address"
        }
      ],
      "name": "setController",
      "outputs": [],
      "stateMutability": "nonpayable",
      "type": "function"
    },
    {
      "inputs": [
        {
          "internalType": "uint256",
          "name": "tokenId",
          "type": "uint256"
        },
        {
          "internalType": "bool",
          "name": "isSlicer",
          "type": "bool"
        },
        {
          "internalType": "bool",
          "name": "isActive",
          "type": "bool"
        },
        {
          "internalType": "uint256",
          "name": "royaltyPercentage",
          "type": "uint256"
        }
      ],
      "name": "setRoyalty",
      "outputs": [],
      "stateMutability": "nonpayable",
      "type": "function"
    },
    {
      "inputs": [
        {
          "components": [
            {
              "components": [
                {
                  "internalType": "address",
                  "name": "account",
                  "type": "address"
                },
                {
                  "internalType": "uint32",
                  "name": "shares",
                  "type": "uint32"
                }
              ],
              "internalType": "struct Payee[]",
              "name": "payees",
              "type": "tuple[]"
            },
            {
              "internalType": "uint256",
              "name": "minimumShares",
              "type": "uint256"
            },
            {
              "internalType": "address[]",
              "name": "currencies",
              "type": "address[]"
            },
            {
              "internalType": "uint256",
              "name": "releaseTimelock",
              "type": "uint256"
            },
            {
              "internalType": "uint40",
              "name": "transferTimelock",
              "type": "uint40"
            },
            {
              "internalType": "address",
              "name": "controller",
              "type": "address"
            },
            {
              "internalType": "bool",
              "name": "isImmutable",
              "type": "bool"
            },
            {
              "internalType": "uint8",
              "name": "slicerFlags",
              "type": "uint8"
            },
            {
              "internalType": "uint8",
              "name": "sliceCoreFlags",
              "type": "uint8"
            }
          ],
          "internalType": "struct SliceParams",
          "name": "params",
          "type": "tuple"
        }
      ],
      "name": "slice",
      "outputs": [],
      "stateMutability": "nonpayable",
      "type": "function"
    },
    {
      "inputs": [
        {
          "internalType": "address",
          "name": "from",
          "type": "address"
        },
        {
          "internalType": "address[]",
          "name": "recipients",
          "type": "address[]"
        },
        {
          "internalType": "uint256",
          "name": "id",
          "type": "uint256"
        },
        {
          "internalType": "uint256[]",
          "name": "amounts",
          "type": "uint256[]"
        },
        {
          "internalType": "bool",
          "name": "release",
          "type": "bool"
        }
      ],
      "name": "slicerBatchTransfer",
      "outputs": [],
      "stateMutability": "nonpayable",
      "type": "function"
    },
    {
      "inputs": [
        {
          "internalType": "uint256",
          "name": "id",
          "type": "uint256"
        }
      ],
      "name": "slicers",
      "outputs": [
        {
          "internalType": "address",
          "name": "",
          "type": "address"
        }
      ],
      "stateMutability": "view",
      "type": "function"
    },
    {
      "inputs": [],
      "name": "supply",
      "outputs": [
        {
          "internalType": "uint256",
          "name": "",
          "type": "uint256"
        }
      ],
      "stateMutability": "view",
      "type": "function"
    },
    {
      "inputs": [
        {
          "internalType": "bytes4",
          "name": "interfaceId",
          "type": "bytes4"
        }
      ],
      "name": "supportsInterface",
      "outputs": [
        {
          "internalType": "bool",
          "name": "",
          "type": "bool"
        }
      ],
      "stateMutability": "view",
      "type": "function"
    },
    {
      "inputs": [
        {
          "internalType": "uint256",
          "name": "id",
          "type": "uint256"
        }
      ],
      "name": "totalSupply",
      "outputs": [
        {
          "internalType": "uint256",
          "name": "",
          "type": "uint256"
        }
      ],
      "stateMutability": "view",
      "type": "function"
    },
    {
      "inputs": [
        {
          "internalType": "address",
          "name": "newOwner",
          "type": "address"
        }
      ],
      "name": "transferOwnership",
      "outputs": [],
      "stateMutability": "nonpayable",
      "type": "function"
    },
    {
      "inputs": [
        {
          "internalType": "address",
          "name": "newImplementation",
          "type": "address"
        }
      ],
      "name": "upgradeTo",
      "outputs": [],
      "stateMutability": "nonpayable",
      "type": "function"
    },
    {
      "inputs": [
        {
          "internalType": "address",
          "name": "newImplementation",
          "type": "address"
        },
        {
          "internalType": "bytes",
          "name": "data",
          "type": "bytes"
        }
      ],
      "name": "upgradeToAndCall",
      "outputs": [],
      "stateMutability": "payable",
      "type": "function"
    },
    {
      "inputs": [
        {
          "internalType": "uint256",
          "name": "",
          "type": "uint256"
        }
      ],
      "name": "uri",
      "outputs": [
        {
          "internalType": "string",
          "name": "",
          "type": "string"
        }
      ],
      "stateMutability": "view",
      "type": "function"
    }
  ],
  "bytecode": "0x60a06040523060805234801561001457600080fd5b506080516149ba61004c6000396000818161138c015281816113cc01528181611674015281816116b4015261176801526149ba6000f3fe6080604052600436106101cc5760003560e01c80634f558e79116100f7578063a22cb46511610095578063c3592b0c11610064578063c3592b0c14610589578063e985e9c5146105a9578063f242432a146105c9578063f2fde38b146105e957600080fd5b8063a22cb465146104d1578063a468f1c7146104f1578063a58fa7c41461052b578063bd85b0391461054b57600080fd5b8063715018a6116100d1578063715018a614610469578063806ec1fd1461047e5780638129fc1c1461049e5780638da5cb5b146104b357600080fd5b80634f558e791461041b57806352d1902d1461043b5780635c975abb1461045057600080fd5b806326b7fb481161016f5780633e5779ee1161013e5780633e5779ee146103a6578063405b4c36146103c65780634e1273f4146103db5780634f1ef2861461040857600080fd5b806326b7fb48146103075780632a55205a146103275780632eb2c2d6146103665780633659cfe61461038657600080fd5b8063059f424f116101ab578063059f424f146102495780630da9450a1461026b5780630e89341c1461028b578063175fa7ea146102b857600080fd5b8062fdd58e146101d157806301ffc9a714610204578063047fc9aa14610234575b600080fd5b3480156101dd57600080fd5b506101f16101ec3660046136a1565b610609565b6040519081526020015b60405180910390f35b34801561021057600080fd5b5061022461021f3660046136e3565b6106a5565b60405190151581526020016101fb565b34801561024057600080fd5b506101f16106f5565b34801561025557600080fd5b50610269610264366004613700565b610706565b005b34801561027757600080fd5b5061026961028636600461378a565b61075e565b34801561029757600080fd5b506102ab6102a63660046137d2565b61094c565b6040516101fb9190613843565b3480156102c457600080fd5b506102ef6102d33660046137d2565b600090815261016060205260409020546001600160a01b031690565b6040516001600160a01b0390911681526020016101fb565b34801561031357600080fd5b506102696103223660046138a1565b6109e0565b34801561033357600080fd5b5061034761034236600461391a565b611029565b604080516001600160a01b0390931683526020830191909152016101fb565b34801561037257600080fd5b50610269610381366004613a85565b61120b565b34801561039257600080fd5b506102696103a1366004613b32565b611382565b3480156103b257600080fd5b506102696103c1366004613b4f565b611461565b3480156103d257600080fd5b506102696114f9565b3480156103e757600080fd5b506103fb6103f6366004613bee565b611541565b6040516101fb9190613c8c565b610269610416366004613c9f565b61166a565b34801561042757600080fd5b506102246104363660046137d2565b611736565b34801561044757600080fd5b506101f161175b565b34801561045c57600080fd5b5061012d5460ff16610224565b34801561047557600080fd5b5061026961180f565b34801561048a57600080fd5b50610269610499366004613ce4565b611843565b3480156104aa57600080fd5b50610269611cdf565b3480156104bf57600080fd5b506097546001600160a01b03166102ef565b3480156104dd57600080fd5b506102696104ec366004613d1f565b611d9f565b3480156104fd57600080fd5b506102ef61050c3660046137d2565b600090815261016060205260409020600101546001600160a01b031690565b34801561053757600080fd5b50610269610546366004613d4d565b611daa565b34801561055757600080fd5b506101f16105663660046137d2565b60009081526101606020526040902060010154600160c81b900463ffffffff1690565b34801561059557600080fd5b506102696105a4366004613de1565b611ea3565b3480156105b557600080fd5b506102246105c4366004613e49565b612003565b3480156105d557600080fd5b506102696105e4366004613de1565b6120d0565b3480156105f557600080fd5b50610269610604366004613b32565b6122b4565b60006001600160a01b03831661067a5760405162461bcd60e51b815260206004820152602b60248201527f455243313135353a2062616c616e636520717565727920666f7220746865207a60448201526a65726f206164647265737360a81b60648201526084015b60405180910390fd5b50600081815260fb602090815260408083206001600160a01b03861684529091529020545b92915050565b60006001600160e01b03198216636cdb3d1360e11b14806106d657506001600160e01b031982166303a24d0760e21b145b8061069f57506301ffc9a760e01b6001600160e01b031983161461069f565b600061070161015f5490565b905090565b6097546001600160a01b031633146107305760405162461bcd60e51b815260040161067190613e77565b61075a8282604051602001610746929190613eac565b60405160208183030381529060405261234c565b5050565b61076784611736565b15806107735750606481115b1561079157604051636dac6a0960e01b815260040160405180910390fd5b600084815261016060205260409020600101546001600160a01b0316156107f257600084815261016060205260409020600101546001600160a01b031633146107ed5760405163ea8e4eb560e01b815260040160405180910390fd5b6108a9565b60008481526101606020526040808220548151634abf03db60e11b815291516001600160a01b039091169163957e07b691600480830192869291908290030181865afa158015610846573d6000803e3d6000fd5b505050506040513d6000823e601f3d908101601f1916820160405261086e9190810190613f34565b50505092505050806001600160a01b0316336001600160a01b0316146108a75760405163ea8e4eb560e01b815260040160405180910390fd5b505b60008481526101606020908152604091829020600101805461ffff60e81b1916600160e81b60ff86160260ff60f01b191617600160f01b861515908102919091176001600160f81b0316600160f81b8815159081029190911790925583519182529181019190915290810182905284907f4fbf3dc0947ba89435d8dee95cfad6b2e458d3474fb5b840ce6d4a41f5e707c99060600160405180910390a250505050565b606060fd805461095b90613fbd565b80601f016020809104026020016040519081016040528092919081815260200182805461098790613fbd565b80156109d45780601f106109a9576101008083540402835291602001916109d4565b820191906000526020600020905b8154815290600101906020018083116109b757829003601f168201915b50505050509050919050565b600085815261016060205260409020600101546001600160a01b03163314610a1b5760405163ea8e4eb560e01b815260040160405180910390fd5b828114610a3b57604051636dac6a0960e01b815260040160405180910390fd5b60008581526101606020526040808220548151634abf03db60e11b815291516001600160a01b039091169163957e07b691600480830192869291908290030181865afa158015610a8f573d6000803e3d6000fd5b505050506040513d6000823e601f3d908101601f19168201604052610ab79190810190613f34565b9550505050505060008060005b86811015610e9157610afc888883818110610ae157610ae1613ff7565b9050602002016020810190610af69190613b32565b8a610609565b60008a815261016060205260409020549092506001600160a01b031663d3c65754898984818110610b2f57610b2f613ff7565b9050602002016020810190610b449190613b32565b6040516001600160e01b031960e084901b1681526001600160a01b0390911660048201526000602482015260448101859052606401600060405180830381600087803b158015610b9357600080fd5b505af1158015610ba7573d6000803e3d6000fd5b50505060008a815261016060205260409020546001600160a01b0316905063d3c65754898984818110610bdc57610bdc613ff7565b9050602002016020810190610bf19190613b32565b6040516001600160e01b031960e084901b1681526001600160a01b0390911660048201527356639db16ac50a89228026e42a316b30179a5376602482015260448101859052606401600060405180830381600087803b158015610c5357600080fd5b505af1158015610c67573d6000803e3d6000fd5b5050505060005b8451811015610d4b5760008a815261016060205260409020546001600160a01b031663d3c657548a8a85818110610ca757610ca7613ff7565b9050602002016020810190610cbc9190613b32565b878481518110610cce57610cce613ff7565b60209081029190910101516040516001600160e01b031960e085901b1681526001600160a01b0392831660048201529116602482015260448101869052606401600060405180830381600087803b158015610d2857600080fd5b505af1158015610d3c573d6000803e3d6000fd5b50505050806001019050610c6e565b506000868683818110610d6057610d60613ff7565b9050602002016020810190610d75919061401f565b60030b1315610df057610deb888883818110610d9357610d93613ff7565b9050602002016020810190610da89190613b32565b8a888885818110610dbb57610dbb613ff7565b9050602002016020810190610dd0919061401f565b63ffffffff166040518060200160405280600081525061235f565b610e56565b610e56888883818110610e0557610e05613ff7565b9050602002016020810190610e1a9190613b32565b8a888885818110610e2d57610e2d613ff7565b9050602002016020810190610e42919061401f565b610e4b90614050565b63ffffffff16612471565b858582818110610e6857610e68613ff7565b9050602002016020810190610e7d919061401f565b610e879084614073565b9250600101610ac4565b5060008260030b1315610ef3576000888152610160602052604090206001018054839190601990610ed0908490600160c81b900463ffffffff166140bc565b92506101000a81548163ffffffff021916908363ffffffff160217905550610f56565b60008260030b1215610f5657610f0882614050565b6000898152610160602052604090206001018054601990610f37908490600160c81b900463ffffffff166140e4565b92506101000a81548163ffffffff021916908363ffffffff1602179055505b60008881526101606020526040908190208054600190910154915163e32cf85160e01b81526001600160a01b039091169163e32cf85191610faf918b918b918b918b91600160c81b900463ffffffff169060040161417d565b600060405180830381600087803b158015610fc957600080fd5b505af1158015610fdd573d6000803e3d6000fd5b50505050877f50ab7f68b6b57e8f7634376d5e840c72b2b7f3e69bc52a6a12e3c777061b36b08888888860405161101794939291906141bd565b60405180910390a25050505050505050565b60008061103584611736565b61105257604051636dac6a0960e01b815260040160405180910390fd5b60008481526101606020908152604080832081516101008101835281546001600160a01b03908116825260018301549081169482019490945264ffffffffff600160a01b8504169281019290925263ffffffff600160c81b840416606083015260ff600160e81b840481166080840152600160f01b84048116151560a08401819052600160f81b9094048116151560c08401526002909101541660e082015291906110fe576032611104565b81608001515b60ff1690506103e861111682876141ef565b611120919061420e565b92508160c001511561114c57600086815261016060205260409020546001600160a01b03169350611202565b60008681526101606020526040808220548151634abf03db60e11b8152915183926001600160a01b039092169163957e07b691600480830192869291908290030181865afa1580156111a2573d6000803e3d6000fd5b505050506040513d6000823e601f3d908101601f191682016040526111ca9190810190613f34565b509450509350505080156111fb57600088815261016060205260409020600101546001600160a01b031695506111ff565b8195505b50505b50509250929050565b600083516001600160401b038111156112265761122661393c565b60405190808252806020026020018201604052801561124f578160200160208202803683370190505b50905060005b845181101561135d5761128085828151811061127357611273613ff7565b60200260200101516125ee565b60006001600160a01b031661016060008784815181106112a2576112a2613ff7565b6020908102919091018101518252810191909152604001600020600101546001600160a01b0316146112e75760405163ea8e4eb560e01b815260040160405180910390fd5b61016060008683815181106112fe576112fe613ff7565b6020026020010151815260200190815260200160002060000160009054906101000a90046001600160a01b031682828151811061133d5761133d613ff7565b6001600160a01b0390921660209283029190910190910152600101611255565b5061136d8686868487600161262f565b61137a86868686866127d5565b505050505050565b6001600160a01b037f00000000000000000000000000000000000000000000000000000000000000001630036113ca5760405162461bcd60e51b815260040161067190614230565b7f00000000000000000000000000000000000000000000000000000000000000006001600160a01b031661141360008051602061493e833981519152546001600160a01b031690565b6001600160a01b0316146114395760405162461bcd60e51b81526004016106719061427c565b61144281612865565b6040805160008082526020820190925261145e9183919061288f565b50565b600082815261016060205260409020600101546001600160a01b0316331461149c5760405163ea8e4eb560e01b815260040160405180910390fd5b6000828152610160602052604080822060010180546001600160a01b0319166001600160a01b0385169081179091559051909184917f2f1bd54f0cb5e0788fcb50aa92b6c88987bd2459fee273daa38b57af0717bd649190a35050565b6097546001600160a01b031633146115235760405162461bcd60e51b815260040161067190613e77565b61012d5460ff1615611539576115376129ff565b565b611537612a94565b606081518351146115a65760405162461bcd60e51b815260206004820152602960248201527f455243313135353a206163636f756e747320616e6420696473206c656e677468604482015268040dad2e6dac2e8c6d60bb1b6064820152608401610671565b600083516001600160401b038111156115c1576115c161393c565b6040519080825280602002602001820160405280156115ea578160200160208202803683370190505b50905060005b84518110156116625761163585828151811061160e5761160e613ff7565b602002602001015185838151811061162857611628613ff7565b6020026020010151610609565b82828151811061164757611647613ff7565b602090810291909101015261165b816142c8565b90506115f0565b509392505050565b6001600160a01b037f00000000000000000000000000000000000000000000000000000000000000001630036116b25760405162461bcd60e51b815260040161067190614230565b7f00000000000000000000000000000000000000000000000000000000000000006001600160a01b03166116fb60008051602061493e833981519152546001600160a01b031690565b6001600160a01b0316146117215760405162461bcd60e51b81526004016106719061427c565b61172a82612865565b61075a8282600161288f565b60009081526101606020526040902060010154600160c81b900463ffffffff16151590565b6000306001600160a01b037f000000000000000000000000000000000000000000000000000000000000000016146117fb5760405162461bcd60e51b815260206004820152603860248201527f555550535570677261646561626c653a206d757374206e6f742062652063616c60448201527f6c6564207468726f7567682064656c656761746563616c6c00000000000000006064820152608401610671565b5060008051602061493e8339815191525b90565b6097546001600160a01b031633146118395760405162461bcd60e51b815260040161067190613e77565b6115376000612b11565b61012d5460ff161561188a5760405162461bcd60e51b815260206004820152601060248201526f14185d5cd8589b194e881c185d5cd95960821b6044820152606401610671565b80602001356000036118af57604051636dac6a0960e01b815260040160405180910390fd5b60006118bb61015f5490565b604051637c57f82f60e11b8152909150600090735fc8d32690cc91d4c39d9d3abcbd16989f8757079063f8aff05e906118fc903390869088906004016144d3565b6020604051808303816000875af115801561191b573d6000803e3d6000fd5b505050506040513d601f19601f8201168201806040525081019061193f91906144fa565b9050600061195360c0850160a08601613b32565b6001600160a01b0316146119a25761197160c0840160a08501613b32565b60008381526101606020526040902060010180546001600160a01b0319166001600160a01b03929092169190911790555b6119b260a0840160808501614517565b64ffffffffff1615611a06576119ce60a0840160808501614517565b600083815261016060205260409020600101805464ffffffffff92909216600160a01b0264ffffffffff60a01b199092169190911790555b611a1861012084016101008501614532565b60ff1615611a5757611a3261012084016101008501614532565b600083815261016060205260409020600201805460ff191660ff929092169190911790555b60008281526101606020526040812080546001600160a01b0319166001600160a01b038416179055805b611a8b858061454d565b9050811015611bc157611ad6611aa1868061454d565b83818110611ab157611ab1613ff7565b611ac79260206040909202019081019150613b32565b6001600160a01b03163b151590565b15611b1657611b1683611ae9878061454d565b84818110611af957611af9613ff7565b611b0f9260206040909202019081019150613b32565b6001612b63565b611b7c611b23868061454d565b83818110611b3357611b33613ff7565b611b499260206040909202019081019150613b32565b85611b54888061454d565b85818110611b6457611b64613ff7565b9050604002016020016020810190610dd09190614596565b611b86858061454d565b82818110611b9657611b96613ff7565b9050604002016020016020810190611bae9190614596565b63ffffffff169190910190600101611a81565b50801580611bd2575063ffffffff81115b80611be05750808460200135115b15611bfe57604051636dac6a0960e01b815260040160405180910390fd5b6000838152610160602052604090819020600101805463ffffffff60c81b1916600160c81b63ffffffff85160217905551634e9270c360e11b8152600481018290526001600160a01b03831690639d24e18690602401600060405180830381600087803b158015611c6e57600080fd5b505af1158015611c82573d6000803e3d6000fd5b50505050611c9561015f80546001019055565b600083836001600160a01b03167fcee6ff7f094ebd7a0ca9f878b95411dc57c85b86d1771ddfc582394a6ffce1cd87604051611cd191906145b1565b60405180910390a450505050565b600054610100900460ff16611cfa5760005460ff1615611cfe565b303b155b611d615760405162461bcd60e51b815260206004820152602e60248201527f496e697469616c697a61626c653a20636f6e747261637420697320616c72656160448201526d191e481a5b9a5d1a585b1a5e995960921b6064820152608401610671565b600054610100900460ff16158015611d83576000805461ffff19166101011790555b611d8b612c9b565b801561145e576000805461ff001916905550565b61075a338383612cca565b8151845114611dcc57604051636dac6a0960e01b815260040160405180910390fd5b8015611e3a5760005b8451811015611e3457611e2c86868381518110611df457611df4613ff7565b602002602001015186868581518110611e0f57611e0f613ff7565b6020026020010151604051806020016040528060008152506120d0565b600101611dd5565b50611e9c565b60005b845181101561137a57611e9486868381518110611e5c57611e5c613ff7565b602002602001015186868581518110611e7757611e77613ff7565b602002602001015160405180602001604052806000815250611ea3565b600101611e3d565b5050505050565b611eac836125ee565b600083815261016060205260409020600101546001600160a01b031615611ee65760405163ea8e4eb560e01b815260040160405180910390fd5b60408051600180825281830190925260009160208083019080368337505060408051600180825281830190925292935060009291506020808301908036833750506040805160018082528183019092529293506000929150602080830190803683370190505090508583600081518110611f6257611f62613ff7565b6020908102919091018101919091526000878152610160909152604081205483516001600160a01b03909116918491611f9d57611f9d613ff7565b60200260200101906001600160a01b031690816001600160a01b0316815250508481600081518110611fd157611fd1613ff7565b602002602001018181525050611fec8888858585600061262f565b611ff98888888888612daa565b5050505050505050565b60405163c455279160e01b81526001600160a01b03838116600483015260009173f57b2c51ded3a29e6891aba85459d600256cf31791841690829063c455279190602401602060405180830381865afa158015612064573d6000803e3d6000fd5b505050506040513d601f19601f8201168201806040525081019061208891906144fa565b6001600160a01b0316036120a057600191505061069f565b50506001600160a01b03918216600090815260fc6020908152604080832093909416825291909152205460ff1690565b6120d9836125ee565b600083815261016060205260409020600101546001600160a01b03161561216957600083815261016060205260409020600101546001600160a01b031633146121645760405162461bcd60e51b815260206004820152601860248201527f43616c6c6572206973206e6f7420636f6e74726f6c6c657200000000000000006044820152606401610671565b6121a1565b6001600160a01b03851633148061218557506121858533612003565b6121a15760405162461bcd60e51b8152600401610671906145c4565b6040805160018082528183019092526000916020808301908036833750506040805160018082528183019092529293506000929150602080830190803683375050604080516001808252818301909252929350600092915060208083019080368337019050509050858360008151811061221d5761221d613ff7565b6020908102919091018101919091526000878152610160909152604081205483516001600160a01b0390911691849161225857612258613ff7565b60200260200101906001600160a01b031690816001600160a01b031681525050848160008151811061228c5761228c613ff7565b6020026020010181815250506122a78888858585600161262f565b611ff98888888888612deb565b6097546001600160a01b031633146122de5760405162461bcd60e51b815260040161067190613e77565b6001600160a01b0381166123435760405162461bcd60e51b815260206004820152602660248201527f4f776e61626c653a206e6577206f776e657220697320746865207a65726f206160448201526564647265737360d01b6064820152608401610671565b61145e81612b11565b805161075a9060fd9060208401906135e3565b6001600160a01b0384166123bf5760405162461bcd60e51b815260206004820152602160248201527f455243313135353a206d696e7420746f20746865207a65726f206164647265736044820152607360f81b6064820152608401610671565b336123df816000876123d088612f0c565b6123d988612f0c565b87612f57565b600084815260fb602090815260408083206001600160a01b03891684529091528120805485929061241190849061460d565b909155505060408051858152602081018590526001600160a01b0380881692600092918516917fc3d58168c5ae7397731d063d5bbf3d657854427343f4c083240f7aacaa2d0f62910160405180910390a4611e9c81600087878787612f7c565b6001600160a01b0383166124d35760405162461bcd60e51b815260206004820152602360248201527f455243313135353a206275726e2066726f6d20746865207a65726f206164647260448201526265737360e81b6064820152608401610671565b33612502818560006124e487612f0c565b6124ed87612f0c565b60405180602001604052806000815250612f57565b600083815260fb602090815260408083206001600160a01b0388168452909152902054828110156125815760405162461bcd60e51b8152602060048201526024808201527f455243313135353a206275726e20616d6f756e7420657863656564732062616c604482015263616e636560e01b6064820152608401610671565b600084815260fb602090815260408083206001600160a01b03898116808652918452828520888703905582518981529384018890529092908616917fc3d58168c5ae7397731d063d5bbf3d657854427343f4c083240f7aacaa2d0f62910160405180910390a45050505050565b60008181526101606020526040902060010154600160a01b900464ffffffffff1642101561145e57604051630934355760e11b815260040160405180910390fd5b6001600160a01b0385163b151560005b8451811015611ff95783818151811061265a5761265a613ff7565b602002602001015160000361268257604051636dac6a0960e01b815260040160405180910390fd5b81156126f85784818151811061269a5761269a613ff7565b60200260200101516001600160a01b0316876001600160a01b0316036126d3576040516368ee781960e11b815260040160405180910390fd5b6126f88582815181106126e8576126e8613ff7565b6020026020010151886001612b63565b84818151811061270a5761270a613ff7565b60200260200101516001600160a01b031663b230074a8989866127398d8c888151811061162857611628613ff7565b89878151811061274b5761274b613ff7565b60209081029190910101516040516001600160e01b031960e088901b1681526001600160a01b03958616600482015294909316602485015290151560448401526064830152608482015260a401600060405180830381600087803b1580156127b257600080fd5b505af11580156127c6573d6000803e3d6000fd5b5050505080600101905061263f565b6001600160a01b0385163314806127f157506127f18533612003565b6128585760405162461bcd60e51b815260206004820152603260248201527f455243313135353a207472616e736665722063616c6c6572206973206e6f74206044820152711bdddb995c881b9bdc88185c1c1c9bdd995960721b6064820152608401610671565b611e9c85858585856130d7565b6097546001600160a01b0316331461145e5760405162461bcd60e51b815260040161067190613e77565b7f4910fdfa16fed3260ed0e7147f7cc6da11a60208b5b9406d12a635614ffd91435460ff16156128c7576128c2836132bd565b505050565b826001600160a01b03166352d1902d6040518163ffffffff1660e01b8152600401602060405180830381865afa925050508015612921575060408051601f3d908101601f1916820190925261291e91810190614625565b60015b6129845760405162461bcd60e51b815260206004820152602e60248201527f45524331393637557067726164653a206e657720696d706c656d656e7461746960448201526d6f6e206973206e6f74205555505360901b6064820152608401610671565b60008051602061493e83398151915281146129f35760405162461bcd60e51b815260206004820152602960248201527f45524331393637557067726164653a20756e737570706f727465642070726f786044820152681a58589b195555525160ba1b6064820152608401610671565b506128c2838383613359565b61012d5460ff16612a495760405162461bcd60e51b815260206004820152601460248201527314185d5cd8589b194e881b9bdd081c185d5cd95960621b6044820152606401610671565b61012d805460ff191690557f5db9ee0a495bf2e6ff9c91a7834c1ba4fdd244a5e8aa4e537bd38aeae4b073aa335b6040516001600160a01b03909116815260200160405180910390a1565b61012d5460ff1615612adb5760405162461bcd60e51b815260206004820152601060248201526f14185d5cd8589b194e881c185d5cd95960821b6044820152606401610671565b61012d805460ff191660011790557f62e78cea01bee320cd4e420270b5ea74000d11b0c9f74754ebdbfc544b05a258612a773390565b609780546001600160a01b038381166001600160a01b0319831681179093556040519116919082907f8be0079c531659141344cd1fd0a4f28419497f9722a3daafe3b4186f6b6457e090600090a35050565b60408051600481526024810182526020810180516001600160e01b0316634abf03db60e11b179052905160009182916001600160a01b03861691612ba69161463e565b600060405180830381855afa9150503d8060008114612be1576040519150601f19603f3d011682016040523d82523d6000602084013e612be6565b606091505b50915091508115611e9c57600081806020019051810190612c07919061465a565b5050506000838152610160602052604090205492935050506001600160a01b0380871691160361137a57604051637669b10560e11b81526004810182905284151560248201526001600160a01b0387169063ecd3620a90604401600060405180830381600087803b158015612c7b57600080fd5b505af1158015612c8f573d6000803e3d6000fd5b50505050505050505050565b600054610100900460ff16612cc25760405162461bcd60e51b81526004016106719061469d565b611537613384565b816001600160a01b0316836001600160a01b031603612d3d5760405162461bcd60e51b815260206004820152602960248201527f455243313135353a2073657474696e6720617070726f76616c20737461747573604482015268103337b91039b2b63360b91b6064820152608401610671565b6001600160a01b03838116600081815260fc6020908152604080832094871680845294825291829020805460ff191686151590811790915591519182527f17307eab39ab6107e8899845ad3d59bd9653f200f220920489ca2b5937696c31910160405180910390a3505050565b6001600160a01b038516331480612dc65750612dc68533612003565b612de25760405162461bcd60e51b8152600401610671906145c4565b611e9c85858585855b6001600160a01b038416612e115760405162461bcd60e51b8152600401610671906146e8565b33612e218187876123d088612f0c565b600084815260fb602090815260408083206001600160a01b038a16845290915290205483811015612e645760405162461bcd60e51b81526004016106719061472d565b600085815260fb602090815260408083206001600160a01b038b8116855292528083208785039055908816825281208054869290612ea390849061460d565b909155505060408051868152602081018690526001600160a01b03808916928a821692918616917fc3d58168c5ae7397731d063d5bbf3d657854427343f4c083240f7aacaa2d0f62910160405180910390a4612f03828888888888612f7c565b50505050505050565b60408051600180825281830190925260609160009190602080830190803683370190505090508281600081518110612f4657612f46613ff7565b602090810291909101015292915050565b61012d5460ff161561137a57604051631309a56360e01b815260040160405180910390fd5b6001600160a01b0384163b1561137a5760405163f23a6e6160e01b81526001600160a01b0385169063f23a6e6190612fc09089908990889088908890600401614777565b6020604051808303816000875af1925050508015612ffb575060408051601f3d908101601f19168201909252612ff8918101906147b1565b60015b6130a7576130076147ce565b806308c379a003613040575061301b6147e9565b806130265750613042565b8060405162461bcd60e51b81526004016106719190613843565b505b60405162461bcd60e51b815260206004820152603460248201527f455243313135353a207472616e7366657220746f206e6f6e20455243313135356044820152732932b1b2b4bb32b91034b6b83632b6b2b73a32b960611b6064820152608401610671565b6001600160e01b0319811663f23a6e6160e01b14612f035760405162461bcd60e51b815260040161067190614872565b81518351146131395760405162461bcd60e51b815260206004820152602860248201527f455243313135353a2069647320616e6420616d6f756e7473206c656e677468206044820152670dad2e6dac2e8c6d60c31b6064820152608401610671565b6001600160a01b03841661315f5760405162461bcd60e51b8152600401610671906146e8565b3361316e818787878787612f57565b60005b845181101561325757600085828151811061318e5761318e613ff7565b6020026020010151905060008583815181106131ac576131ac613ff7565b602090810291909101810151600084815260fb835260408082206001600160a01b038e1683529093529190912054909150818110156131fd5760405162461bcd60e51b81526004016106719061472d565b600083815260fb602090815260408083206001600160a01b038e8116855292528083208585039055908b1682528120805484929061323c90849061460d565b9250508190555050505080613250906142c8565b9050613171565b50846001600160a01b0316866001600160a01b0316826001600160a01b03167f4a39dc06d4c0dbc64b70af90fd698a233a518aa5d07e595d983b8c0526c8f7fb87876040516132a79291906148ba565b60405180910390a461137a8187878787876133b4565b6001600160a01b0381163b61332a5760405162461bcd60e51b815260206004820152602d60248201527f455243313936373a206e657720696d706c656d656e746174696f6e206973206e60448201526c1bdd08184818dbdb9d1c9858dd609a1b6064820152608401610671565b60008051602061493e83398151915280546001600160a01b0319166001600160a01b0392909216919091179055565b6133628361346f565b60008251118061336f5750805b156128c25761337e83836134af565b50505050565b600054610100900460ff166133ab5760405162461bcd60e51b81526004016106719061469d565b61153733612b11565b6001600160a01b0384163b1561137a5760405163bc197c8160e01b81526001600160a01b0385169063bc197c81906133f890899089908890889088906004016148df565b6020604051808303816000875af1925050508015613433575060408051601f3d908101601f19168201909252613430918101906147b1565b60015b61343f576130076147ce565b6001600160e01b0319811663bc197c8160e01b14612f035760405162461bcd60e51b815260040161067190614872565b613478816132bd565b6040516001600160a01b038216907fbc7cd75a20ee27fd9adebab32041f755214dbc6bffa90cc0225b39da2e5c2d3b90600090a250565b60606001600160a01b0383163b6135175760405162461bcd60e51b815260206004820152602660248201527f416464726573733a2064656c65676174652063616c6c20746f206e6f6e2d636f6044820152651b9d1c9858dd60d21b6064820152608401610671565b600080846001600160a01b031684604051613532919061463e565b600060405180830381855af49150503d806000811461356d576040519150601f19603f3d011682016040523d82523d6000602084013e613572565b606091505b509150915061359a828260405180606001604052806027815260200161495e602791396135a3565b95945050505050565b606083156135b25750816135dc565b8251156135c25782518084602001fd5b8160405162461bcd60e51b81526004016106719190613843565b9392505050565b8280546135ef90613fbd565b90600052602060002090601f0160209004810192826136115760008555613657565b82601f1061362a57805160ff1916838001178555613657565b82800160010185558215613657579182015b8281111561365757825182559160200191906001019061363c565b50613663929150613667565b5090565b5b808211156136635760008155600101613668565b6001600160a01b038116811461145e57600080fd5b803561369c8161367c565b919050565b600080604083850312156136b457600080fd5b82356136bf8161367c565b946020939093013593505050565b6001600160e01b03198116811461145e57600080fd5b6000602082840312156136f557600080fd5b81356135dc816136cd565b6000806020838503121561371357600080fd5b82356001600160401b038082111561372a57600080fd5b818501915085601f83011261373e57600080fd5b81358181111561374d57600080fd5b86602082850101111561375f57600080fd5b60209290920196919550909350505050565b801515811461145e57600080fd5b803561369c81613771565b600080600080608085870312156137a057600080fd5b8435935060208501356137b281613771565b925060408501356137c281613771565b9396929550929360600135925050565b6000602082840312156137e457600080fd5b5035919050565b60005b838110156138065781810151838201526020016137ee565b8381111561337e5750506000910152565b6000815180845261382f8160208601602086016137eb565b601f01601f19169290920160200192915050565b6020815260006135dc6020830184613817565b60008083601f84011261386857600080fd5b5081356001600160401b0381111561387f57600080fd5b6020830191508360208260051b850101111561389a57600080fd5b9250929050565b6000806000806000606086880312156138b957600080fd5b8535945060208601356001600160401b03808211156138d757600080fd5b6138e389838a01613856565b909650945060408801359150808211156138fc57600080fd5b5061390988828901613856565b969995985093965092949392505050565b6000806040838503121561392d57600080fd5b50508035926020909101359150565b634e487b7160e01b600052604160045260246000fd5b601f8201601f191681016001600160401b03811182821017156139775761397761393c565b6040525050565b60006001600160401b038211156139975761399761393c565b5060051b60200190565b600082601f8301126139b257600080fd5b813560206139bf8261397e565b6040516139cc8282613952565b83815260059390931b85018201928281019150868411156139ec57600080fd5b8286015b84811015613a0757803583529183019183016139f0565b509695505050505050565b600082601f830112613a2357600080fd5b81356001600160401b03811115613a3c57613a3c61393c565b604051613a53601f8301601f191660200182613952565b818152846020838601011115613a6857600080fd5b816020850160208301376000918101602001919091529392505050565b600080600080600060a08688031215613a9d57600080fd5b8535613aa88161367c565b94506020860135613ab88161367c565b935060408601356001600160401b0380821115613ad457600080fd5b613ae089838a016139a1565b94506060880135915080821115613af657600080fd5b613b0289838a016139a1565b93506080880135915080821115613b1857600080fd5b50613b2588828901613a12565b9150509295509295909350565b600060208284031215613b4457600080fd5b81356135dc8161367c565b60008060408385031215613b6257600080fd5b823591506020830135613b748161367c565b809150509250929050565b600082601f830112613b9057600080fd5b81356020613b9d8261397e565b604051613baa8282613952565b83815260059390931b8501820192828101915086841115613bca57600080fd5b8286015b84811015613a07578035613be18161367c565b8352918301918301613bce565b60008060408385031215613c0157600080fd5b82356001600160401b0380821115613c1857600080fd5b613c2486838701613b7f565b93506020850135915080821115613c3a57600080fd5b50613c47858286016139a1565b9150509250929050565b600081518084526020808501945080840160005b83811015613c8157815187529582019590820190600101613c65565b509495945050505050565b6020815260006135dc6020830184613c51565b60008060408385031215613cb257600080fd5b8235613cbd8161367c565b915060208301356001600160401b03811115613cd857600080fd5b613c4785828601613a12565b600060208284031215613cf657600080fd5b81356001600160401b03811115613d0c57600080fd5b820161012081850312156135dc57600080fd5b60008060408385031215613d3257600080fd5b8235613d3d8161367c565b91506020830135613b7481613771565b600080600080600060a08688031215613d6557600080fd5b8535613d708161367c565b945060208601356001600160401b0380821115613d8c57600080fd5b613d9889838a01613b7f565b9550604088013594506060880135915080821115613db557600080fd5b50613dc2888289016139a1565b9250506080860135613dd381613771565b809150509295509295909350565b600080600080600060a08688031215613df957600080fd5b8535613e048161367c565b94506020860135613e148161367c565b9350604086013592506060860135915060808601356001600160401b03811115613e3d57600080fd5b613b2588828901613a12565b60008060408385031215613e5c57600080fd5b8235613e678161367c565b91506020830135613b748161367c565b6020808252818101527f4f776e61626c653a2063616c6c6572206973206e6f7420746865206f776e6572604082015260600190565b81838237637b69647d60e01b9101908152600401919050565b600082601f830112613ed657600080fd5b81516020613ee38261397e565b604051613ef08282613952565b83815260059390931b8501820192828101915086841115613f1057600080fd5b8286015b84811015613a07578051613f278161367c565b8352918301918301613f14565b60008060008060008060c08789031215613f4d57600080fd5b86519550602087015194506040870151613f668161367c565b6060880151909450613f7781613771565b6080880151909350613f8881613771565b60a08801519092506001600160401b03811115613fa457600080fd5b613fb089828a01613ec5565b9150509295509295509295565b600181811c90821680613fd157607f821691505b602082108103613ff157634e487b7160e01b600052602260045260246000fd5b50919050565b634e487b7160e01b600052603260045260246000fd5b8035600381900b811461369c57600080fd5b60006020828403121561403157600080fd5b6135dc8261400d565b634e487b7160e01b600052601160045260246000fd5b60008160030b637fffffff19810361406a5761406a61403a565b60000392915050565b60008160030b8360030b6000821282637fffffff0382138115161561409a5761409a61403a565b82637fffffff190382128116156140b3576140b361403a565b50019392505050565b600063ffffffff8083168185168083038211156140db576140db61403a565b01949350505050565b600063ffffffff838116908316818110156141015761410161403a565b039392505050565b8183526000602080850194508260005b85811015613c8157813561412c8161367c565b6001600160a01b031687529582019590820190600101614119565b8183526000602080850194508260005b85811015613c81576141688261400d565b60030b87529582019590820190600101614157565b606081526000614191606083018789614109565b82810360208401526141a4818688614147565b91505063ffffffff831660408301529695505050505050565b6040815260006141d1604083018688614109565b82810360208401526141e4818587614147565b979650505050505050565b60008160001904831182151516156142095761420961403a565b500290565b60008261422b57634e487b7160e01b600052601260045260246000fd5b500490565b6020808252602c908201527f46756e6374696f6e206d7573742062652063616c6c6564207468726f7567682060408201526b19195b1959d85d1958d85b1b60a21b606082015260800190565b6020808252602c908201527f46756e6374696f6e206d7573742062652063616c6c6564207468726f7567682060408201526b6163746976652070726f787960a01b606082015260800190565b6000600182016142da576142da61403a565b5060010190565b6000808335601e198436030181126142f857600080fd5b83016020810192503590506001600160401b0381111561431757600080fd5b8060061b360383131561389a57600080fd5b803563ffffffff8116811461369c57600080fd5b8183526000602080850194508260005b85811015613c815781356143608161367c565b6001600160a01b0316875263ffffffff61437b838501614329565b1687840152604096870196919091019060010161434d565b6000808335601e198436030181126143aa57600080fd5b83016020810192503590506001600160401b038111156143c957600080fd5b8060051b360383131561389a57600080fd5b803564ffffffffff8116811461369c57600080fd5b803560ff8116811461369c57600080fd5b600061012061441083846142e1565b828652614420838701828461433d565b925050506020830135602085015261443b6040840184614393565b858303604087015261444e838284614109565b9250505060608301356060850152614468608084016143db565b64ffffffffff16608085015261448060a08401613691565b6001600160a01b031660a085015261449a60c0840161377f565b151560c08501526144ad60e084016143f0565b60ff1660e08501526101006144c38482016143f0565b60ff169401939093525090919050565b60018060a01b038416815282602082015260606040820152600061359a6060830184614401565b60006020828403121561450c57600080fd5b81516135dc8161367c565b60006020828403121561452957600080fd5b6135dc826143db565b60006020828403121561454457600080fd5b6135dc826143f0565b6000808335601e1984360301811261456457600080fd5b8301803591506001600160401b0382111561457e57600080fd5b6020019150600681901b360382131561389a57600080fd5b6000602082840312156145a857600080fd5b6135dc82614329565b6020815260006135dc6020830184614401565b60208082526029908201527f455243313135353a2063616c6c6572206973206e6f74206f776e6572206e6f7260408201526808185c1c1c9bdd995960ba1b606082015260800190565b600082198211156146205761462061403a565b500190565b60006020828403121561463757600080fd5b5051919050565b600082516146508184602087016137eb565b9190910192915050565b60008060008060008060c0878903121561467357600080fd5b8651955060208701516146858161367c565b604088015160608901519196509450613f7781613771565b6020808252602b908201527f496e697469616c697a61626c653a20636f6e7472616374206973206e6f74206960408201526a6e697469616c697a696e6760a81b606082015260800190565b60208082526025908201527f455243313135353a207472616e7366657220746f20746865207a65726f206164604082015264647265737360d81b606082015260800190565b6020808252602a908201527f455243313135353a20696e73756666696369656e742062616c616e636520666f60408201526939103a3930b739b332b960b11b606082015260800190565b6001600160a01b03868116825285166020820152604081018490526060810183905260a0608082018190526000906141e490830184613817565b6000602082840312156147c357600080fd5b81516135dc816136cd565b600060033d111561180c5760046000803e5060005160e01c90565b600060443d10156147f75790565b6040516003193d81016004833e81513d6001600160401b03816024840111818411171561482657505050505090565b828501915081518181111561483e5750505050505090565b843d87010160208285010111156148585750505050505090565b61486760208286010187613952565b509095945050505050565b60208082526028908201527f455243313135353a204552433131353552656365697665722072656a656374656040820152676420746f6b656e7360c01b606082015260800190565b6040815260006148cd6040830185613c51565b828103602084015261359a8185613c51565b6001600160a01b0386811682528516602082015260a06040820181905260009061490b90830186613c51565b828103606084015261491d8186613c51565b905082810360808401526149318185613817565b9897505050505050505056fe360894a13ba1a3210667c828492db98dca3e2076cc3735a920a3ca505d382bbc416464726573733a206c6f772d6c6576656c2064656c65676174652063616c6c206661696c6564a264697066735822122037dd16d94612ab4f26a8665bca9c95920b8d6eff798a74107a411e10cfdf80cb64736f6c634300080d0033",
  "linkReferences": {},
  "deployedLinkReferences": {}
}