{
  "_format": "hh-sol-artifact-1",
  "contractName": "ProductsModule",
  "sourceName": "contracts/ProductsModule.sol",
  "abi": [
    {
      "inputs": [],
      "name": "ActiveListing",
      "type": "error"
    },
    {
      "inputs": [],
      "name": "InexistentPool",
      "type": "error"
    },
    {
      "inputs": [],
      "name": "InexistentProduct",
      "type": "error"
    },
    {
      "inputs": [],
      "name": "InsufficientPayment",
      "type": "error"
    },
    {
      "inputs": [],
      "name": "Invalid",
      "type": "error"
    },
    {
      "inputs": [],
      "name": "NoDelegatecall",
      "type": "error"
    },
    {
      "inputs": [],
      "name": "NotAuthorized",
      "type": "error"
    },
    {
      "inputs": [],
      "name": "NotPurchased",
      "type": "error"
    },
    {
      "inputs": [],
      "name": "NotSuccessful",
      "type": "error"
    },
    {
      "inputs": [],
      "name": "TooSoon",
      "type": "error"
    },
    {
      "inputs": [],
      "name": "WrongCurrency",
      "type": "error"
    },
    {
      "anonymous": false,
      "inputs": [
        {
          "indexed": false,
          "internalType": "address",
          "name": "previousAdmin",
          "type": "address"
        },
        {
          "indexed": false,
          "internalType": "address",
          "name": "newAdmin",
          "type": "address"
        }
      ],
      "name": "AdminChanged",
      "type": "event"
    },
    {
      "anonymous": false,
      "inputs": [
        {
          "indexed": true,
          "internalType": "address",
          "name": "beacon",
          "type": "address"
        }
      ],
      "name": "BeaconUpgraded",
      "type": "event"
    },
    {
      "anonymous": false,
      "inputs": [
        {
          "indexed": true,
          "internalType": "uint256",
          "name": "slicerId",
          "type": "uint256"
        },
        {
          "indexed": true,
          "internalType": "address",
          "name": "contractAddress",
          "type": "address"
        },
        {
          "indexed": true,
          "internalType": "uint256",
          "name": "tokenId",
          "type": "uint256"
        },
        {
          "indexed": false,
          "internalType": "uint256",
          "name": "currentAmount",
          "type": "uint256"
        }
      ],
      "name": "ERC1155ListingChanged",
      "type": "event"
    },
    {
      "anonymous": false,
      "inputs": [
        {
          "indexed": true,
          "internalType": "uint256",
          "name": "slicerId",
          "type": "uint256"
        },
        {
          "indexed": true,
          "internalType": "address",
          "name": "contractAddress",
          "type": "address"
        },
        {
          "indexed": true,
          "internalType": "uint256",
          "name": "tokenId",
          "type": "uint256"
        },
        {
          "indexed": false,
          "internalType": "bool",
          "name": "isActive",
          "type": "bool"
        }
      ],
      "name": "ERC721ListingChanged",
      "type": "event"
    },
    {
      "anonymous": false,
      "inputs": [
        {
          "indexed": true,
          "internalType": "address",
          "name": "previousOwner",
          "type": "address"
        },
        {
          "indexed": true,
          "internalType": "address",
          "name": "newOwner",
          "type": "address"
        }
      ],
      "name": "OwnershipTransferred",
      "type": "event"
    },
    {
      "anonymous": false,
      "inputs": [
        {
          "indexed": false,
          "internalType": "address",
          "name": "account",
          "type": "address"
        }
      ],
      "name": "Paused",
      "type": "event"
    },
    {
      "anonymous": false,
      "inputs": [
        {
          "indexed": true,
          "internalType": "uint256",
          "name": "slicerId",
          "type": "uint256"
        },
        {
          "indexed": true,
          "internalType": "uint256",
          "name": "productId",
          "type": "uint256"
        },
        {
          "indexed": true,
          "internalType": "uint256",
          "name": "categoryIndex",
          "type": "uint256"
        },
        {
          "indexed": false,
          "internalType": "bool",
          "name": "isFree",
          "type": "bool"
        },
        {
          "indexed": false,
          "internalType": "uint8",
          "name": "maxUnitsPerBuyer",
          "type": "uint8"
        },
        {
          "indexed": false,
          "internalType": "bool",
          "name": "isInfinite",
          "type": "bool"
        },
        {
          "indexed": false,
          "internalType": "uint256",
          "name": "availableUnits",
          "type": "uint256"
        },
        {
          "indexed": false,
          "internalType": "address",
          "name": "creator",
          "type": "address"
        },
        {
          "indexed": false,
          "internalType": "bytes",
          "name": "data",
          "type": "bytes"
        },
        {
          "components": [
            {
              "internalType": "uint128",
              "name": "subSlicerId",
              "type": "uint128"
            },
            {
              "internalType": "uint32",
              "name": "subProductId",
              "type": "uint32"
            }
          ],
          "indexed": false,
          "internalType": "struct SubSlicerProduct[]",
          "name": "subSlicerProducts",
          "type": "tuple[]"
        },
        {
          "components": [
            {
              "internalType": "uint248",
              "name": "value",
              "type": "uint248"
            },
            {
              "internalType": "bool",
              "name": "dynamicPricing",
              "type": "bool"
            },
            {
              "internalType": "address",
              "name": "currency",
              "type": "address"
            }
          ],
          "indexed": false,
          "internalType": "struct CurrencyPrice[]",
          "name": "currencyPrices",
          "type": "tuple[]"
        },
        {
          "components": [
            {
              "internalType": "bytes",
              "name": "data",
              "type": "bytes"
            },
            {
              "internalType": "uint256",
              "name": "value",
              "type": "uint256"
            },
            {
              "internalType": "address",
              "name": "externalAddress",
              "type": "address"
            },
            {
              "internalType": "bytes4",
              "name": "checkFunctionSignature",
              "type": "bytes4"
            },
            {
              "internalType": "bytes4",
              "name": "execFunctionSignature",
              "type": "bytes4"
            }
          ],
          "indexed": false,
          "internalType": "struct Function",
          "name": "externalCall",
          "type": "tuple"
        }
      ],
      "name": "ProductAdded",
      "type": "event"
    },
    {
      "anonymous": false,
      "inputs": [
        {
          "indexed": true,
          "internalType": "uint256",
          "name": "slicerId",
          "type": "uint256"
        },
        {
          "indexed": true,
          "internalType": "uint256",
          "name": "productId",
          "type": "uint256"
        },
        {
          "indexed": false,
          "internalType": "uint8",
          "name": "maxUnitsPerBuyer",
          "type": "uint8"
        },
        {
          "indexed": false,
          "internalType": "bool",
          "name": "isFree",
          "type": "bool"
        },
        {
          "indexed": false,
          "internalType": "bool",
          "name": "isInfinite",
          "type": "bool"
        },
        {
          "indexed": false,
          "internalType": "uint256",
          "name": "newUnits",
          "type": "uint256"
        },
        {
          "components": [
            {
              "internalType": "uint248",
              "name": "value",
              "type": "uint248"
            },
            {
              "internalType": "bool",
              "name": "dynamicPricing",
              "type": "bool"
            },
            {
              "internalType": "address",
              "name": "currency",
              "type": "address"
            }
          ],
          "indexed": false,
          "internalType": "struct CurrencyPrice[]",
          "name": "currencyPrices",
          "type": "tuple[]"
        }
      ],
      "name": "ProductInfoChanged",
      "type": "event"
    },
    {
      "anonymous": false,
      "inputs": [
        {
          "indexed": true,
          "internalType": "uint256",
          "name": "slicerId",
          "type": "uint256"
        },
        {
          "indexed": true,
          "internalType": "uint256",
          "name": "productId",
          "type": "uint256"
        },
        {
          "indexed": false,
          "internalType": "uint256",
          "name": "quantity",
          "type": "uint256"
        },
        {
          "indexed": true,
          "internalType": "address",
          "name": "buyer",
          "type": "address"
        },
        {
          "indexed": false,
          "internalType": "address",
          "name": "currency",
          "type": "address"
        },
        {
          "indexed": false,
          "internalType": "uint256",
          "name": "paymentEth",
          "type": "uint256"
        },
        {
          "indexed": false,
          "internalType": "uint256",
          "name": "paymentCurrency",
          "type": "uint256"
        }
      ],
      "name": "ProductPaid",
      "type": "event"
    },
    {
      "anonymous": false,
      "inputs": [
        {
          "indexed": true,
          "internalType": "uint256",
          "name": "slicerId",
          "type": "uint256"
        },
        {
          "indexed": true,
          "internalType": "uint256",
          "name": "productId",
          "type": "uint256"
        }
      ],
      "name": "ProductRemoved",
      "type": "event"
    },
    {
      "anonymous": false,
      "inputs": [
        {
          "indexed": true,
          "internalType": "uint256",
          "name": "slicerId",
          "type": "uint256"
        },
        {
          "indexed": false,
          "internalType": "uint256",
          "name": "ethToRelease",
          "type": "uint256"
        }
      ],
      "name": "ReleasedToSlicer",
      "type": "event"
    },
    {
      "anonymous": false,
      "inputs": [
        {
          "indexed": false,
          "internalType": "address",
          "name": "account",
          "type": "address"
        }
      ],
      "name": "Unpaused",
      "type": "event"
    },
    {
      "anonymous": false,
      "inputs": [
        {
          "indexed": true,
          "internalType": "address",
          "name": "implementation",
          "type": "address"
        }
      ],
      "name": "Upgraded",
      "type": "event"
    },
    {
      "inputs": [],
      "name": "_togglePause",
      "outputs": [],
      "stateMutability": "nonpayable",
      "type": "function"
    },
    {
      "inputs": [
        {
          "internalType": "uint256",
          "name": "slicerId",
          "type": "uint256"
        },
        {
          "components": [
            {
              "components": [
                {
                  "internalType": "uint128",
                  "name": "subSlicerId",
                  "type": "uint128"
                },
                {
                  "internalType": "uint32",
                  "name": "subProductId",
                  "type": "uint32"
                }
              ],
              "internalType": "struct SubSlicerProduct[]",
              "name": "subSlicerProducts",
              "type": "tuple[]"
            },
            {
              "components": [
                {
                  "internalType": "uint248",
                  "name": "value",
                  "type": "uint248"
                },
                {
                  "internalType": "bool",
                  "name": "dynamicPricing",
                  "type": "bool"
                },
                {
                  "internalType": "address",
                  "name": "currency",
                  "type": "address"
                }
              ],
              "internalType": "struct CurrencyPrice[]",
              "name": "currencyPrices",
              "type": "tuple[]"
            },
            {
              "internalType": "bytes",
              "name": "data",
              "type": "bytes"
            },
            {
              "internalType": "bytes",
              "name": "purchaseData",
              "type": "bytes"
            },
            {
              "internalType": "uint32",
              "name": "availableUnits",
              "type": "uint32"
            },
            {
              "internalType": "uint8",
              "name": "maxUnitsPerBuyer",
              "type": "uint8"
            },
            {
              "internalType": "bool",
              "name": "isFree",
              "type": "bool"
            },
            {
              "internalType": "bool",
              "name": "isInfinite",
              "type": "bool"
            }
          ],
          "internalType": "struct ProductParams",
          "name": "params",
          "type": "tuple"
        },
        {
          "components": [
            {
              "internalType": "bytes",
              "name": "data",
              "type": "bytes"
            },
            {
              "internalType": "uint256",
              "name": "value",
              "type": "uint256"
            },
            {
              "internalType": "address",
              "name": "externalAddress",
              "type": "address"
            },
            {
              "internalType": "bytes4",
              "name": "checkFunctionSignature",
              "type": "bytes4"
            },
            {
              "internalType": "bytes4",
              "name": "execFunctionSignature",
              "type": "bytes4"
            }
          ],
          "internalType": "struct Function",
          "name": "externalCall_",
          "type": "tuple"
        }
      ],
      "name": "addProduct",
      "outputs": [],
      "stateMutability": "nonpayable",
      "type": "function"
    },
    {
      "inputs": [
        {
          "internalType": "uint256",
          "name": "slicerId",
          "type": "uint256"
        }
      ],
      "name": "ethBalance",
      "outputs": [
        {
          "internalType": "uint256",
          "name": "",
          "type": "uint256"
        }
      ],
      "stateMutability": "view",
      "type": "function"
    },
    {
      "inputs": [],
      "name": "initialize",
      "outputs": [],
      "stateMutability": "nonpayable",
      "type": "function"
    },
    {
      "inputs": [],
      "name": "owner",
      "outputs": [
        {
          "internalType": "address",
          "name": "",
          "type": "address"
        }
      ],
      "stateMutability": "view",
      "type": "function"
    },
    {
      "inputs": [],
      "name": "paused",
      "outputs": [
        {
          "internalType": "bool",
          "name": "",
          "type": "bool"
        }
      ],
      "stateMutability": "view",
      "type": "function"
    },
    {
      "inputs": [
        {
          "internalType": "address",
          "name": "buyer",
          "type": "address"
        },
        {
          "components": [
            {
              "internalType": "uint128",
              "name": "slicerId",
              "type": "uint128"
            },
            {
              "internalType": "uint32",
              "name": "quantity",
              "type": "uint32"
            },
            {
              "internalType": "address",
              "name": "currency",
              "type": "address"
            },
            {
              "internalType": "uint32",
              "name": "productId",
              "type": "uint32"
            }
          ],
          "internalType": "struct PurchaseParams[]",
          "name": "purchases",
          "type": "tuple[]"
        }
      ],
      "name": "payProducts",
      "outputs": [],
      "stateMutability": "payable",
      "type": "function"
    },
    {
      "inputs": [
        {
          "internalType": "uint256",
          "name": "slicerId",
          "type": "uint256"
        },
        {
          "internalType": "uint32",
          "name": "productId",
          "type": "uint32"
        },
        {
          "internalType": "address",
          "name": "currency",
          "type": "address"
        }
      ],
      "name": "productPrice",
      "outputs": [
        {
          "internalType": "uint256",
          "name": "ethPayment",
          "type": "uint256"
        },
        {
          "internalType": "uint256",
          "name": "currencyPayment",
          "type": "uint256"
        }
      ],
      "stateMutability": "view",
      "type": "function"
    },
    {
      "inputs": [],
      "name": "proxiableUUID",
      "outputs": [
        {
          "internalType": "bytes32",
          "name": "",
          "type": "bytes32"
        }
      ],
      "stateMutability": "view",
      "type": "function"
    },
    {
      "inputs": [
        {
          "internalType": "uint256",
          "name": "slicerId",
          "type": "uint256"
        }
      ],
      "name": "releaseEthToSlicer",
      "outputs": [],
      "stateMutability": "nonpayable",
      "type": "function"
    },
    {
      "inputs": [
        {
          "internalType": "uint256",
          "name": "slicerId",
          "type": "uint256"
        },
        {
          "internalType": "uint32",
          "name": "productId",
          "type": "uint32"
        }
      ],
      "name": "removeProduct",
      "outputs": [],
      "stateMutability": "nonpayable",
      "type": "function"
    },
    {
      "inputs": [],
      "name": "renounceOwnership",
      "outputs": [],
      "stateMutability": "nonpayable",
      "type": "function"
    },
    {
      "inputs": [
        {
          "internalType": "uint256",
          "name": "slicerId",
          "type": "uint256"
        },
        {
          "internalType": "uint32",
          "name": "productId",
          "type": "uint32"
        },
        {
          "internalType": "uint8",
          "name": "newMaxUnits",
          "type": "uint8"
        },
        {
          "internalType": "bool",
          "name": "isFree",
          "type": "bool"
        },
        {
          "internalType": "bool",
          "name": "isInfinite",
          "type": "bool"
        },
        {
          "internalType": "uint32",
          "name": "newUnits",
          "type": "uint32"
        },
        {
          "components": [
            {
              "internalType": "uint248",
              "name": "value",
              "type": "uint248"
            },
            {
              "internalType": "bool",
              "name": "dynamicPricing",
              "type": "bool"
            },
            {
              "internalType": "address",
              "name": "currency",
              "type": "address"
            }
          ],
          "internalType": "struct CurrencyPrice[]",
          "name": "currencyPrices",
          "type": "tuple[]"
        }
      ],
      "name": "setProductInfo",
      "outputs": [],
      "stateMutability": "nonpayable",
      "type": "function"
    },
    {
      "inputs": [
        {
          "internalType": "address",
          "name": "newOwner",
          "type": "address"
        }
      ],
      "name": "transferOwnership",
      "outputs": [],
      "stateMutability": "nonpayable",
      "type": "function"
    },
    {
      "inputs": [
        {
          "internalType": "address",
          "name": "newImplementation",
          "type": "address"
        }
      ],
      "name": "upgradeTo",
      "outputs": [],
      "stateMutability": "nonpayable",
      "type": "function"
    },
    {
      "inputs": [
        {
          "internalType": "address",
          "name": "newImplementation",
          "type": "address"
        },
        {
          "internalType": "bytes",
          "name": "data",
          "type": "bytes"
        }
      ],
      "name": "upgradeToAndCall",
      "outputs": [],
      "stateMutability": "payable",
      "type": "function"
    },
    {
      "inputs": [
        {
          "internalType": "uint256",
          "name": "slicerId",
          "type": "uint256"
        },
        {
          "internalType": "uint32",
          "name": "productId",
          "type": "uint32"
        }
      ],
      "name": "validatePurchase",
      "outputs": [
        {
          "internalType": "uint256",
          "name": "purchases",
          "type": "uint256"
        },
        {
          "internalType": "bytes",
          "name": "purchaseData",
          "type": "bytes"
        }
      ],
      "stateMutability": "view",
      "type": "function"
    },
    {
      "inputs": [
        {
          "internalType": "address",
          "name": "account",
          "type": "address"
        },
        {
          "internalType": "uint256",
          "name": "slicerId",
          "type": "uint256"
        },
        {
          "internalType": "uint32",
          "name": "productId",
          "type": "uint32"
        }
      ],
      "name": "validatePurchaseUnits",
      "outputs": [
        {
          "internalType": "uint256",
          "name": "purchases",
          "type": "uint256"
        }
      ],
      "stateMutability": "view",
      "type": "function"
    }
  ],
  "bytecode": "0x60a06040523060805234801561001457600080fd5b5060805161561d6200004d600039600081816103550152818161039e01528181611a6801528181611aa80152611b3b015261561d6000f3fe6080604052600436106101095760003560e01c8063715018a611610095578063c577233211610064578063c577233214610288578063c7a59657146102a8578063c993a08d146102dd578063f2fde38b146102fd578063f9820ba41461031d57600080fd5b8063715018a6146102165780638129fc1c1461022b5780638da5cb5b14610240578063bf17f2f21461026857600080fd5b806348ddabff116100dc57806348ddabff146101855780634f1ef286146101a557806352d1902d146101b85780635c975abb146101e057806364059f4a1461020357600080fd5b80633659cfe61461010e578063376dab391461013057806337fcbc3314610150578063405b4c3614610170575b600080fd5b34801561011a57600080fd5b5061012e610129366004614201565b61034b565b005b34801561013c57600080fd5b5061012e61014b36600461426a565b610433565b34801561015c57600080fd5b5061012e61016b366004614341565b610b15565b34801561017c57600080fd5b5061012e610ddf565b34801561019157600080fd5b5061012e6101a0366004614707565b610e26565b61012e6101b3366004614852565b611a5e565b3480156101c457600080fd5b506101cd611b2e565b6040519081526020015b60405180910390f35b3480156101ec57600080fd5b5060c95460ff1660405190151581526020016101d7565b61012e6102113660046148a1565b611be1565b34801561022257600080fd5b5061012e611c92565b34801561023757600080fd5b5061012e611cc6565b34801561024c57600080fd5b506097546040516001600160a01b0390911681526020016101d7565b34801561027457600080fd5b506101cd61028336600461499e565b611d86565b34801561029457600080fd5b506101cd6102a33660046149b7565b611dc3565b3480156102b457600080fd5b506102c86102c33660046149f5565b611e04565b604080519283526020830191909152016101d7565b3480156102e957600080fd5b5061012e6102f836600461499e565b611ffa565b34801561030957600080fd5b5061012e610318366004614201565b6120de565b34801561032957600080fd5b5061033d610338366004614341565b612176565b6040516101d7929190614a8d565b6001600160a01b037f000000000000000000000000000000000000000000000000000000000000000016300361039c5760405162461bcd60e51b815260040161039390614aa6565b60405180910390fd5b7f00000000000000000000000000000000000000000000000000000000000000006001600160a01b03166103e5600080516020615581833981519152546001600160a01b031690565b6001600160a01b03161461040b5760405162461bcd60e51b815260040161039390614af2565b610414816122d6565b6040805160008082526020820190925261043091839190612300565b50565b600088815260fb60209081526040808320600381015463ffffffff8c16855260019091019092529091206001600160a01b03909116908190610475818361246b565b83156108fe5760088101546201518064ffffffffff600160a01b909204821601164210156104b657604051636fed7d8560e01b815260040160405180910390fd5b60088101805464ffffffffff60a01b1916600160a01b4264ffffffffff160217905560005b848110156108fc5760008686838181106104f7576104f7614b3e565b905060600201604001602081019061050f9190614201565b6001600160a01b03161415801561056c5750734f6ff17f5dcb4f413c5f1b7ec42d6c18666452b086868381811061054857610548614b3e565b90506060020160400160208101906105609190614201565b6001600160a01b031614155b1561062f57826001600160a01b031663b25e9c3987878481811061059257610592614b3e565b90506060020160400160208101906105aa9190614201565b6040516001600160e01b031960e084901b1681526001600160a01b039091166004820152602401602060405180830381865afa1580156105ee573d6000803e3d6000fd5b505050506040513d601f19601f820116820180604052508101906106129190614b54565b61062f57604051630b27db6160e11b815260040160405180910390fd5b81600101600087878481811061064757610647614b3e565b905060600201604001602081019061065f9190614201565b6001600160a01b031681526020810191909152604001600020546001600160f81b031686868381811061069457610694614b3e565b6106aa9260206060909202019081019150614b71565b6001600160f81b031614610748578585828181106106ca576106ca614b3e565b6106e09260206060909202019081019150614b71565b8260010160008888858181106106f8576106f8614b3e565b90506060020160400160208101906107109190614201565b6001600160a01b03168152602081019190915260400160002080546001600160f81b0319166001600160f81b03929092169190911790555b81600101600087878481811061076057610760614b3e565b90506060020160400160208101906107789190614201565b6001600160a01b03168152602081019190915260400160002054600160f81b900460ff1615158686838181106107b0576107b0614b3e565b90506060020160200160208101906107c89190614b8c565b1515146108f45760008686838181106107e3576107e3614b3e565b90506060020160400160208101906107fb9190614201565b6001600160a01b03161461086457600061083d87878481811061082057610820614b3e565b90506060020160400160208101906108389190614201565b61259b565b6001600160a01b03160361086457604051632b9bb16560e11b815260040160405180910390fd5b85858281811061087657610876614b3e565b905060600201602001602081019061088e9190614b8c565b8260010160008888858181106108a6576108a6614b3e565b90506060020160400160208101906108be9190614201565b6001600160a01b0316815260208101919091526040016000208054911515600160f81b026001600160f81b039092169190911790555b6001016104db565b505b6109118b84898963ffffffff16856126ec565b87801561093c5750600881015461093490600290600160f01b900460ff16614bbf565b60ff16600114155b8061096c57508715801561096c5750600881015461096690600290600160f01b900460ff16614bbf565b60ff1615155b156109975760088101805460ff600160f01b80830482166001189091160260ff60f01b199091161790555b8680156109c5575060088101546109bd90600290600160f01b900460011c607f16614bbf565b60ff16600114155b806109f85750861580156109f8575060088101546109f290600290600160f01b900460011c607f16614bbf565b60ff1615155b15610a235760088101805460ff600160f01b80830482166002189091160260ff60f01b199091161790555b600881015460ff8a8116600160e81b9092041614610a565760088101805460ff60e81b1916600160e81b60ff8c16021790555b8615610a735760088101805463ffffffff60c81b19169055610aaf565b600881015463ffffffff878116600160c81b9092041614610aaf5760088101805463ffffffff60c81b1916600160c81b63ffffffff8916021790555b600881015460405163ffffffff808d16928e927f4cc6ba108a00a1be4dd5e4ad63e0a06ef9035bb73b84634f4d44319190af5a7e92610b00928f928f928f92600160c81b900416908d908d90614be1565b60405180910390a35050505050505050505050565b600082815260fb60209081526040808320600381015463ffffffff8616855260019091019092529091206001600160a01b03909116908190610b57818361246b565b60058101546001600160a01b03808516911603610d7d57600080826003016000018054610b8390614c8d565b80601f0160208091040260200160405190810160405280929190818152602001828054610baf90614c8d565b8015610bfc5780601f10610bd157610100808354040283529160200191610bfc565b820191906000526020600020905b815481529060010190602001808311610bdf57829003601f168201915b5050505050806020019051810190610c149190614cc7565b600585015491935091506302868bf960e11b600160c01b90910460e01b6001600160e01b03191601610caf57600087815260fc602090815260408083206001600160a01b0386168085529083528184208585528352818420805460ff191690559051928352839290918a917f76529e1c5add2962fbfae2a36bbcf688a5c01516b043ad429f1d81830687a2db910160405180910390a4610d7a565b600583015462fc808960e71b600160c01b90910460e01b6001600160e01b03191601610d7a576008830154600088815260fd602090815260408083206001600160a01b0387168452825280832085845290915281208054600160c81b90930463ffffffff1692909190610d23908490614d0b565b9091555050600087815260fd602090815260408083206001600160a01b0386168085529083528184208585528352928190205490519081528392918a916000805160206155c8833981519152910160405180910390a45b50505b600881018054600168ffffffff000000000160a01b0319169055610da5600682016000614119565b60405163ffffffff85169086907fd647384cccbd8b477a7b02b9e866072937e9a23b473b9de13fc0c6cb1d392a0a90600090a35050505050565b6097546001600160a01b03163314610e095760405162461bcd60e51b815260040161039390614d22565b60c95460ff1615610e1e57610e1c6129bf565b565b610e1c612a52565b600083815260fb6020526040902080546001019081905563ffffffff811115610e6257604051636dac6a0960e01b815260040160405180910390fd5b80600103610fac57604051630bafd3f560e11b81526004810185905260009073180550826a266a9b9474539410b934b9a838d4b39063175fa7ea90602401602060405180830381865afa158015610ebd573d6000803e3d6000fd5b505050506040513d601f19601f82011682018060405250810190610ee19190614d57565b6001600160a01b031603610f0857604051636dac6a0960e01b815260040160405180910390fd5b604051630bafd3f560e11b81526004810185905273180550826a266a9b9474539410b934b9a838d4b39063175fa7ea90602401602060405180830381865afa158015610f58573d6000803e3d6000fd5b505050506040513d601f19601f82011682018060405250810190610f7c9190614d57565b600085815260fb6020526040902060030180546001600160a01b0319166001600160a01b03929092169190911790555b600084815260fb60205260409081902060030154905163166eb15b60e21b81523360048201526001600160a01b039091169081906359bac56c90602401602060405180830381865afa158015611006573d6000803e3d6000fd5b505050506040513d601f19601f8201168201806040525081019061102a9190614b54565b6110475760405163ea8e4eb560e01b815260040160405180910390fd5b600085815260fb6020908152604080832063ffffffff861684526001019091529020845151156111705760005b85515181101561116e576110fe60fb60008860000151848151811061109b5761109b614b3e565b6020026020010151600001516001600160801b031681526020019081526020016000206001016000886000015184815181106110d9576110d9614b3e565b60200260200101516020015163ffffffff168152602001908152602001600020612acd565b816002018660000151828151811061111857611118614b3e565b602090810291909101810151825460018181018555600094855293839020825191018054929093015163ffffffff16600160801b026001600160a01b03199092166001600160801b039091161717905501611074565b505b602085015151156114545760005b8560200151518110156114525760006001600160a01b0316866020015182815181106111ac576111ac614b3e565b6020026020010151604001516001600160a01b0316141580156112165750734f6ff17f5dcb4f413c5f1b7ec42d6c18666452b06001600160a01b0316866020015182815181106111fe576111fe614b3e565b6020026020010151604001516001600160a01b031614155b80156112bc5750826001600160a01b031663b25e9c398760200151838151811061124257611242614b3e565b6020026020010151604001516040518263ffffffff1660e01b815260040161127991906001600160a01b0391909116815260200190565b602060405180830381865afa158015611296573d6000803e3d6000fd5b505050506040513d601f19601f820116820180604052508101906112ba9190614b54565b155b156112da57604051630b27db6160e11b815260040160405180910390fd5b856020015181815181106112f0576112f0614b3e565b6020026020010151600001516001600160f81b031660001461139e578560200151818151811061132257611322614b3e565b6020026020010151600001518260010160008860200151848151811061134a5761134a614b3e565b6020026020010151604001516001600160a01b03166001600160a01b0316815260200190815260200160002060000160006101000a8154816001600160f81b0302191690836001600160f81b031602179055505b856020015181815181106113b4576113b4614b3e565b6020026020010151602001511561144a57856020015181815181106113db576113db614b3e565b6020026020010151602001518260010160008860200151848151811061140357611403614b3e565b6020026020010151604001516001600160a01b03166001600160a01b03168152602001908152602001600020600001601f6101000a81548160ff0219169083151502179055505b60010161117e565b505b60408401516001600160a01b0316156118bc57816001600160a01b031684604001516001600160a01b0316036117e457600080856000015180602001905181019061149f9190614cc7565b608088015191935091506001600160e01b0319166302868bf960e11b0161164d57866080015163ffffffff1660011415806114e257508660a0015160ff16600114155b806114ee57508660e001515b8061156e57506040516331a9108f60e11b8152600481018290526001600160a01b038086169190841690636352211e90602401602060405180830381865afa15801561153e573d6000803e3d6000fd5b505050506040513d601f19601f820116820180604052508101906115629190614d57565b6001600160a01b031614155b1561158c5760405163ea8e4eb560e01b815260040160405180910390fd5b600088815260fc602090815260408083206001600160a01b0386168452825280832084845290915290205460ff16156115d8576040516319e7a92b60e31b815260040160405180910390fd5b600088815260fc602090815260408083206001600160a01b038616808552908352818420858552835292819020805460ff1916600190811790915590519081528392918b917f76529e1c5add2962fbfae2a36bbcf688a5c01516b043ad429f1d81830687a2db910160405180910390a46117e1565b60808601516001600160e01b03191662fc808960e71b016117e1578660e00151806117245750604051627eeac760e11b81526001600160a01b0385811660048301526024820183905283169062fdd58e90604401602060405180830381865afa1580156116be573d6000803e3d6000fd5b505050506040513d601f19601f820116820180604052508101906116e29190614d74565b600089815260fd602090815260408083206001600160a01b038716845282528083208584529091529020546080890151611722919063ffffffff16614d8d565b115b1561174257604051636dac6a0960e01b815260040160405180910390fd5b6080870151600089815260fd602090815260408083206001600160a01b038716845282528083208584529091528120805463ffffffff9093169290919061178a908490614d8d565b9091555050600088815260fd602090815260408083206001600160a01b0386168085529083528184208585528352928190205490519081528392918b916000805160206155c8833981519152910160405180910390a45b50505b60408401516005820180546001600160a01b0319166001600160a01b0390921691909117905560808401516001600160e01b0319161561188557608084015160058201805460e09290921c600160c01b0263ffffffff60c01b1990921691909117905560608401516001600160e01b0319161561188557606084015160058201805460e09290921c600160a01b0263ffffffff60a01b199092169190911790555b835151156118a757835180516118a5916003840191602090910190614153565b505b6020840151156118bc57602084015160048201555b6008810180546001600160a01b0319163317905560c0850151156118fe5760088101805460ff60f01b1981166001600160f01b9283900460ff16179091021790555b60a085015160ff16156119315760a085015160088201805460ff909216600160e81b0260ff60e81b199092169190911790555b8460e00151156119635760088101805460ff60f01b1981166002600160f01b9283900460ff161790910217905561198f565b608085015160088201805463ffffffff909216600160c81b0263ffffffff60c81b199092169190911790555b604085015151156119b757604085015180516119b5916006840191602090910190614153565b505b606085015151156119df57606085015180516119dd916007840191602090910190614153565b505b600083877f663b428b8be38acaf66650a8e8db4cb1218c684d66ea64270a06bcd8365671e88860c001518960a001518a60e001518760080160199054906101000a900463ffffffff16338d604001518e600001518f602001518f604051611a4e99989796959493929190614e6b565b60405180910390a4505050505050565b6001600160a01b037f0000000000000000000000000000000000000000000000000000000000000000163003611aa65760405162461bcd60e51b815260040161039390614aa6565b7f00000000000000000000000000000000000000000000000000000000000000006001600160a01b0316611aef600080516020615581833981519152546001600160a01b031690565b6001600160a01b031614611b155760405162461bcd60e51b815260040161039390614af2565b611b1e826122d6565b611b2a82826001612300565b5050565b6000306001600160a01b037f00000000000000000000000000000000000000000000000000000000000000001614611bce5760405162461bcd60e51b815260206004820152603860248201527f555550535570677261646561626c653a206d757374206e6f742062652063616c60448201527f6c6564207468726f7567682064656c656761746563616c6c00000000000000006064820152608401610393565b5060008051602061558183398151915290565b60c95460ff1615611c275760405162461bcd60e51b815260206004820152601060248201526f14185d5cd8589b194e881c185d5cd95960821b6044820152606401610393565b6000805b8251811015611c6b57611c5784848381518110611c4a57611c4a614b3e565b6020026020010151612af8565b611c619083614d8d565b9150600101611c2b565b5080341015611c8d5760405163cd1c886760e01b815260040160405180910390fd5b505050565b6097546001600160a01b03163314611cbc5760405162461bcd60e51b815260040161039390614d22565b610e1c600061356f565b600054610100900460ff16611ce15760005460ff1615611ce5565b303b155b611d485760405162461bcd60e51b815260206004820152602e60248201527f496e697469616c697a61626c653a20636f6e747261637420697320616c72656160448201526d191e481a5b9a5d1a585b1a5e995960921b6064820152608401610393565b600054610100900460ff16158015611d6a576000805461ffff19166101011790555b611d726135c1565b8015610430576000805461ff001916905550565b600081815260fb6020526040812060020154600110611da6576000611dbd565b600082815260fb6020526040902060020154600019015b92915050565b600082815260fb6020908152604080832063ffffffff8086168552600190910183528184206001600160a01b038816855290925290912054165b9392505050565b600083815260fb6020908152604080832063ffffffff8616845260010190915281208190611e3181612acd565b6001600160a01b038416611e4f57611e48816135f0565b9250611ff1565b6001600160a01b0384166000908152600182016020526040902054600160f81b900460ff1615611f915760008080526001820160205260409020546001600160f81b0316151580611ec257506001600160a01b03841660009081526001820160205260409020546001600160f81b031615155b15611f4e576001600160a01b03841660009081526001820160205260408120546001600160f81b03168103611eff57611efa826135f0565b611f24565b6001600160a01b03851660009081526001830160205260409020546001600160f81b03165b9050611f32858260646136d7565b925082600003611f4857611f45826135f0565b93505b50611ff1565b6008810154611f6990600290600160f01b900460ff16614bbf565b60ff16600003611f8c57604051630b27db6160e11b815260040160405180910390fd5b611ff1565b6001600160a01b03841660009081526001820160205260409020546001600160f81b031615611fe5576001600160a01b03841660009081526001820160205260409020546001600160f81b03169150611ff1565b611fee816135f0565b92505b50935093915050565b600061200582611d86565b90508015611b2a57600082815260fb60205260408082206003810154600160029092019190915590516001600160a01b039091169190829084908381818185875af1925050503d8060008114612077576040519150601f19603f3d011682016040523d82523d6000602084013e61207c565b606091505b505090508061209e5760405163af6eefa360e01b815260040160405180910390fd5b837f04cc711f7db61e897a32f3fe3e3faa9861b68d7d19fd9a669348213087b22726846040516120d091815260200190565b60405180910390a250505050565b6097546001600160a01b031633146121085760405162461bcd60e51b815260040161039390614d22565b6001600160a01b03811661216d5760405162461bcd60e51b815260206004820152602660248201527f4f776e61626c653a206e6577206f776e657220697320746865207a65726f206160448201526564647265737360d01b6064820152608401610393565b6104308161356f565b600060603073c41b314bdf942d16f9bb796892f0a772e94bc727146121ae5760405163acbcffa760e01b815260040160405180910390fd5b600084815260fb6020908152604080832063ffffffff8088168552600190910183528184203385529092528220541690036121fc576040516363aae7a360e01b815260040160405180910390fd5b600084815260fb6020908152604080832063ffffffff80881680865260019092018085528386203387528086529386205492909552939092526007018054919092169190819061224b90614c8d565b80601f016020809104026020016040519081016040528092919081815260200182805461227790614c8d565b80156122c45780601f10612299576101008083540402835291602001916122c4565b820191906000526020600020905b8154815290600101906020018083116122a757829003601f168201915b50505050509050915091509250929050565b6097546001600160a01b031633146104305760405162461bcd60e51b815260040161039390614d22565b7f4910fdfa16fed3260ed0e7147f7cc6da11a60208b5b9406d12a635614ffd91435460ff161561233357611c8d83613a1d565b826001600160a01b03166352d1902d6040518163ffffffff1660e01b8152600401602060405180830381865afa92505050801561238d575060408051601f3d908101601f1916820190925261238a91810190614d74565b60015b6123f05760405162461bcd60e51b815260206004820152602e60248201527f45524331393637557067726164653a206e657720696d706c656d656e7461746960448201526d6f6e206973206e6f74205555505360901b6064820152608401610393565b600080516020615581833981519152811461245f5760405162461bcd60e51b815260206004820152602960248201527f45524331393637557067726164653a20756e737570706f727465642070726f786044820152681a58589b195555525160ba1b6064820152608401610393565b50611c8d838383613ab9565b61247482612acd565b600882015460405163166eb15b60e21b81526001600160a01b039182166004820152908216906359bac56c90602401602060405180830381865afa1580156124c0573d6000803e3d6000fd5b505050506040513d601f19601f820116820180604052508101906124e49190614b54565b156125165760088201546001600160a01b03163314611b2a5760405163ea8e4eb560e01b815260040160405180910390fd5b60405163166eb15b60e21b81523360048201526001600160a01b038216906359bac56c90602401602060405180830381865afa15801561255a573d6000803e3d6000fd5b505050506040513d601f19601f8201168201806040525081019061257e9190614b54565b611b2a5760405163ea8e4eb560e01b815260040160405180910390fd5b604051630b4c774160e11b81526001600160a01b038216600482015273c778417e063141139fce010982780140aa0cd5ab6024820152610bb860448201526000908190731f98431c8ad98523631ae4a59f267346ea31f98490631698ee8290606401602060405180830381865afa15801561261a573d6000803e3d6000fd5b505050506040513d601f19601f8201168201806040525081019061263e9190614d57565b90506001600160a01b038116611dbd57604051630b4c774160e11b81526001600160a01b038416600482015273c778417e063141139fce010982780140aa0cd5ab60248201526127106044820152731f98431c8ad98523631ae4a59f267346ea31f98490631698ee8290606401602060405180830381865afa1580156126c8573d6000803e3d6000fd5b505050506040513d601f19601f82011682018060405250810190611dfd9190614d57565b60058101546001600160a01b038086169116036129b85760008082600301600001805461271890614c8d565b80601f016020809104026020016040519081016040528092919081815260200182805461274490614c8d565b80156127915780601f1061276657610100808354040283529160200191612791565b820191906000526020600020905b81548152906001019060200180831161277457829003601f168201915b50505050508060200190518101906127a99190614cc7565b600585015491935091506302868bf960e11b600160c01b90910460e01b6001600160e01b03191601612815576008830154600160c81b900463ffffffff16841415806127f25750845b1561281057604051636dac6a0960e01b815260040160405180910390fd5b6129b5565b600583015462fc808960e71b600160c01b90910460e01b6001600160e01b031916016129b557841561285a57604051636dac6a0960e01b815260040160405180910390fd5b6008830154600160c81b900463ffffffff1684146129b557604051627eeac760e11b81526001600160a01b038781166004830152602482018390526000919084169062fdd58e90604401602060405180830381865afa1580156128c1573d6000803e3d6000fd5b505050506040513d601f19601f820116820180604052508101906128e59190614d74565b600885015460008a815260fd602090815260408083206001600160a01b0389168452825280832087845290915281205492935091600160c81b90910463ffffffff1690612933908890614d8d565b61293d9190614d0b565b90508181111561296057604051636dac6a0960e01b815260040160405180910390fd5b600089815260fd602090815260408083206001600160a01b038816808552908352818420878552835292819020849055518381528592918c916000805160206155c8833981519152910160405180910390a450505b50505b5050505050565b60c95460ff16612a085760405162461bcd60e51b815260206004820152601460248201527314185d5cd8589b194e881b9bdd081c185d5cd95960621b6044820152606401610393565b60c9805460ff191690557f5db9ee0a495bf2e6ff9c91a7834c1ba4fdd244a5e8aa4e537bd38aeae4b073aa335b6040516001600160a01b03909116815260200160405180910390a1565b60c95460ff1615612a985760405162461bcd60e51b815260206004820152601060248201526f14185d5cd8589b194e881c185d5cd95960821b6044820152606401610393565b60c9805460ff191660011790557f62e78cea01bee320cd4e420270b5ea74000d11b0c9f74754ebdbfc544b05a258612a353390565b60088101546001600160a01b0316610430576040516329c2f8dd60e11b815260040160405180910390fd5b6000816020015163ffffffff16600014611dbd57600080612b2f84600001516001600160801b031685606001518660400151611e04565b915091506000846020015163ffffffff1683612b4b9190614f3b565b85516001600160801b03908116600090815260fb60209081526040808320600301548a51909416835280832060608b015163ffffffff168452600101909152902060088101549293506001600160a01b0390911691600160e81b900460ff1615612c145760088101546020888101516001600160a01b038b16600090815291849052604090912054600160e81b90920460ff1691612bef919063ffffffff16614f5a565b63ffffffff161115612c1457604051636dac6a0960e01b815260040160405180910390fd5b6008810154612c3290600290600160f01b900460011c607f16614bbf565b60ff16600003612cab576008810154602088015163ffffffff600160c81b909204821691161115612c7657604051636dac6a0960e01b815260040160405180910390fd5b602087015160088201805463ffffffff600160c81b8083048216949094031690920263ffffffff60c81b199092169190911790555b86516001600160801b0316600090815260fb602052604081206002018054859290612cd7908490614d8d565b90915550506020808801516001600160a01b038a1660009081529183905260408220805491929091612d1090849063ffffffff16614f5a565b92506101000a81548163ffffffff021916908363ffffffff1602179055508060030160010154600014612d685760208701516004820154612d579163ffffffff1690614f3b565b612d619084614d8d565b9550612d6c565b8295505b8315612e175786604001516001600160a01b03166323b872dd89848a6020015163ffffffff1688612d9d9190614f3b565b6040516001600160e01b031960e086901b1681526001600160a01b03938416600482015292909116602483015260448201526064016020604051808303816000875af1158015612df1573d6000803e3d6000fd5b505050506040513d601f19601f82011682018060405250810190612e159190614b54565b505b600281015415612ee55760005b6002820154811015612ee35760006040518060800160405280846002018481548110612e5257612e52614b3e565b600091825260209182902001546001600160801b031682528b81015163ffffffff16908201526040808c01516001600160a01b03169082015260028501805460609092019185908110612ea757612ea7614b3e565b600091825260209091200154600160801b900463ffffffff1690529050612ece8a82612af8565b612ed89089614d8d565b975050600101612e24565b505b60058101546001600160a01b0316156134d5576005810154600090600160c01b900460e01b6001600160e01b0319161561336e5760058201546001600160a01b0380851691160361325b57600080836003016000018054612f4590614c8d565b80601f0160208091040260200160405190810160405280929190818152602001828054612f7190614c8d565b8015612fbe5780601f10612f9357610100808354040283529160200191612fbe565b820191906000526020600020905b815481529060010190602001808311612fa157829003601f168201915b5050505050806020019051810190612fd69190614cc7565b600586015491935091506302868bf960e11b600160c01b90910460e01b6001600160e01b031916016130fc5760405163ce55982b60e01b81526001600160a01b038c8116600483015283811660248301526044820183905286169063ce55982b90606401600060405180830381600087803b15801561305457600080fd5b505af1158015613068573d6000803e3d6000fd5b50508b516001600160801b03908116600090815260fc602090815260408083206001600160a01b038916808552908352818420888552909252808320805460ff191690558f51905160019950879650919450909216917f76529e1c5add2962fbfae2a36bbcf688a5c01516b043ad429f1d81830687a2db916130ef91901515815260200190565b60405180910390a4613254565b600584015462fc808960e71b600160c01b90910460e01b6001600160e01b031916016132545760208a015160405163296789eb60e11b81526001600160a01b038d81166004830152848116602483015263ffffffff909216604482015260648101839052908616906352cf13d690608401600060405180830381600087803b15801561318757600080fd5b505af115801561319b573d6000803e3d6000fd5b5050506020808c01518c516001600160801b0316600090815260fd835260408082206001600160a01b03881683528452808220868352909352918220805463ffffffff909216935091906131f0908490614d0b565b909155505089516001600160801b0316600081815260fd602090815260408083206001600160a01b038716808552908352818420868552835292819020549051908152600196508493916000805160206155c8833981519152910160405180910390a45b50506134b5565b6005820154602089015160048401546001600160a01b03909216916132869163ffffffff1690614f3b565b8360030160020160189054906101000a900460e01b8a600001518b606001518d8d60200151886003016000016040516020016132c6959493929190614f82565b60408051601f19818403018152908290526132e391602401615065565b60408051601f198184030181529181526020820180516001600160e01b03166001600160e01b03199094169390931790925290516133219190615078565b60006040518083038185875af1925050503d806000811461335e576040519150601f19603f3d011682016040523d82523d6000602084013e613363565b606091505b5050809150506134b5565b6020880151600483015473a5e1b2822e7ad11d14c217a513cc0d5ddd7d011b916339ed5123916133a49163ffffffff1690614f3b565b8460030160020160009054906101000a90046001600160a01b03166103e8876001600160a01b031663ced72f876040518163ffffffff1660e01b8152600401602060405180830381865afa158015613400573d6000803e3d6000fd5b505050506040513d601f19601f820116820180604052508101906134249190614d74565b60208e0151600489015461343e9163ffffffff1690614f3b565b6134489190614f3b565b6134529190615094565b6040516001600160e01b031960e086901b1681526001600160a01b03909216600483015260248201526044016000604051808303818588803b15801561349757600080fd5b505af11580156134ab573d6000803e3d6000fd5b5050505050600190505b806134d35760405163af6eefa360e01b815260040160405180910390fd5b505b876001600160a01b0316876060015163ffffffff1688600001516001600160801b03167f6e49b2d469632303a1a7844a538b1ba7d7b3dc1b28d3b6da03fdb698448af5808a602001518b604001518a8a60405161355c949392919063ffffffff9490941684526001600160a01b039290921660208401526040830152606082015260800190565b60405180910390a4505050505092915050565b609780546001600160a01b038381166001600160a01b0319831681179093556040519116919082907f8be0079c531659141344cd1fd0a4f28419497f9722a3daafe3b4186f6b6457e090600090a35050565b600054610100900460ff166135e85760405162461bcd60e51b8152600401610393906150a8565b610e1c613ae4565b60008080526001820160205260408120546001600160f81b03161580156136325750600882015461362d90600290600160f01b900460ff16614bbf565b60ff16155b1561365057604051630b27db6160e11b815260040160405180910390fd5b6000808052600183016020526040902054600160f81b900460ff1661368e5760008080526001830160205260409020546001600160f81b0316611dbd565b613696613b14565b60008080526001840160205260409020546136c4906001600160f81b031669d3c21bcecceda10000006150f3565b6001600160f81b0316611dbd9190615094565b6000806136e38561259b565b90506001600160a01b03811615613a13576000856001600160a01b031663313ce5676040518163ffffffff1660e01b8152600401602060405180830381865afa158015613734573d6000803e3d6000fd5b505050506040513d601f19601f820116820180604052508101906137589190615122565b60ff16905060008460010b6000036137e557826001600160a01b0316633850c7bd6040518163ffffffff1660e01b815260040160e060405180830381865afa1580156137a8573d6000803e3d6000fd5b505050506040513d601f19601f820116820180604052508101906137cc9190615151565b50506001600160a01b03909416945061390e9350505050565b6040805160028082526060820183526000926020830190803683370190505090508561ffff168160008151811061381e5761381e614b3e565b63ffffffff9092166020928302919091019091015260405163883bdbfd60e01b81526000906001600160a01b0386169063883bdbfd906138629085906004016151ea565b600060405180830381865afa15801561387f573d6000803e3d6000fd5b505050506040513d6000823e601f3d908101601f191682016040526138a79190810190615298565b5090506139008760010b826000815181106138c4576138c4614b3e565b6020026020010151836001815181106138df576138df614b3e565b60200260200101516138f19190615359565b6138fb91906153a9565b613b98565b6001600160a01b0316925050505b60006002606061392284633b9aca00614f3b565b61392d92911c6154cb565b9050876001600160a01b0316846001600160a01b0316630dfe16816040518163ffffffff1660e01b8152600401602060405180830381865afa158015613977573d6000803e3d6000fd5b505050506040513d601f19601f8201168201806040525081019061399b9190614d57565b6001600160a01b0316146139e7576139b4836018614d0b565b6139bf90600a6154da565b6139ce64e8d4a5100089615094565b6139d89083614f3b565b6139e29190615094565b613a08565b80876139f485600a6154da565b6139fe9190614f3b565b613a089190615094565b945050505050611dfd565b6000915050611dfd565b6001600160a01b0381163b613a8a5760405162461bcd60e51b815260206004820152602d60248201527f455243313936373a206e657720696d706c656d656e746174696f6e206973206e60448201526c1bdd08184818dbdb9d1c9858dd609a1b6064820152608401610393565b60008051602061558183398151915280546001600160a01b0319166001600160a01b0392909216919091179055565b613ac283613fac565b600082511180613acf5750805b15611c8d57613ade8383613fec565b50505050565b600054610100900460ff16613b0b5760405162461bcd60e51b8152600401610393906150a8565b610e1c3361356f565b600080738a753747a1fa494ec906ce90e9f37563a8af630e6001600160a01b031663feaf968c6040518163ffffffff1660e01b815260040160a060405180830381865afa158015613b69573d6000803e3d6000fd5b505050506040513d601f19601f82011682018060405250810190613b8d9190615500565b509195945050505050565b60008060008360020b12613baf578260020b613bbc565b8260020b613bbc90615550565b9050620d89e8811115613bf55760405162461bcd60e51b81526020600482015260016024820152601560fa1b6044820152606401610393565b600081600116600003613c0c57600160801b613c1e565b6ffffcb933bd6fad37aa2d162d1a5940015b70ffffffffffffffffffffffffffffffffff1690506002821615613c5d576080613c58826ffff97272373d413259a46990580e213a614f3b565b901c90505b6004821615613c87576080613c82826ffff2e50f5f656932ef12357cf3c7fdcc614f3b565b901c90505b6008821615613cb1576080613cac826fffe5caca7e10e4e61c3624eaa0941cd0614f3b565b901c90505b6010821615613cdb576080613cd6826fffcb9843d60f6159c9db58835c926644614f3b565b901c90505b6020821615613d05576080613d00826fff973b41fa98c081472e6896dfb254c0614f3b565b901c90505b6040821615613d2f576080613d2a826fff2ea16466c96a3843ec78b326b52861614f3b565b901c90505b6080821615613d59576080613d54826ffe5dee046a99a2a811c461f1969c3053614f3b565b901c90505b610100821615613d84576080613d7f826ffcbe86c7900a88aedcffc83b479aa3a4614f3b565b901c90505b610200821615613daf576080613daa826ff987a7253ac413176f2b074cf7815e54614f3b565b901c90505b610400821615613dda576080613dd5826ff3392b0822b70005940c7a398e4b70f3614f3b565b901c90505b610800821615613e05576080613e00826fe7159475a2c29b7443b29c7fa6e889d9614f3b565b901c90505b611000821615613e30576080613e2b826fd097f3bdfd2022b8845ad8f792aa5825614f3b565b901c90505b612000821615613e5b576080613e56826fa9f746462d870fdf8a65dc1f90e061e5614f3b565b901c90505b614000821615613e86576080613e81826f70d869a156d2a1b890bb3df62baf32f7614f3b565b901c90505b618000821615613eb1576080613eac826f31be135f97d08fd981231505542fcfa6614f3b565b901c90505b62010000821615613edd576080613ed8826f09aa508b5b7a84e1c677de54f3e99bc9614f3b565b901c90505b62020000821615613f08576080613f03826e5d6af8dedb81196699c329225ee604614f3b565b901c90505b62040000821615613f32576080613f2d826d2216e584f5fa1ea926041bedfe98614f3b565b901c90505b62080000821615613f5a576080613f55826b048a170391f7dc42444e8fa2614f3b565b901c90505b60008460020b1315613f7557613f7281600019615094565b90505b613f846401000000008261556c565b15613f90576001613f93565b60005b613fa49060ff16602083901c614d8d565b949350505050565b613fb581613a1d565b6040516001600160a01b038216907fbc7cd75a20ee27fd9adebab32041f755214dbc6bffa90cc0225b39da2e5c2d3b90600090a250565b60606001600160a01b0383163b6140545760405162461bcd60e51b815260206004820152602660248201527f416464726573733a2064656c65676174652063616c6c20746f206e6f6e2d636f6044820152651b9d1c9858dd60d21b6064820152608401610393565b600080846001600160a01b03168460405161406f9190615078565b600060405180830381855af49150503d80600081146140aa576040519150601f19603f3d011682016040523d82523d6000602084013e6140af565b606091505b50915091506140d782826040518060600160405280602781526020016155a1602791396140e0565b95945050505050565b606083156140ef575081611dfd565b8251156140ff5782518084602001fd5b8160405162461bcd60e51b81526004016103939190615065565b50805461412590614c8d565b6000825580601f10614135575050565b601f01602090049060005260206000209081019061043091906141d7565b82805461415f90614c8d565b90600052602060002090601f01602090048101928261418157600085556141c7565b82601f1061419a57805160ff19168380011785556141c7565b828001600101855582156141c7579182015b828111156141c75782518255916020019190600101906141ac565b506141d39291506141d7565b5090565b5b808211156141d357600081556001016141d8565b6001600160a01b038116811461043057600080fd5b60006020828403121561421357600080fd5b8135611dfd816141ec565b803563ffffffff8116811461423257600080fd5b919050565b60ff8116811461043057600080fd5b803561423281614237565b801515811461043057600080fd5b803561423281614251565b60008060008060008060008060e0898b03121561428657600080fd5b8835975061429660208a0161421e565b965060408901356142a681614237565b955060608901356142b681614251565b945060808901356142c681614251565b93506142d460a08a0161421e565b925060c08901356001600160401b03808211156142f057600080fd5b818b0191508b601f83011261430457600080fd5b81358181111561431357600080fd5b8c602060608302850101111561432857600080fd5b6020830194508093505050509295985092959890939650565b6000806040838503121561435457600080fd5b823591506143646020840161421e565b90509250929050565b634e487b7160e01b600052604160045260246000fd5b604080519081016001600160401b03811182821017156143a5576143a561436d565b60405290565b604051606081016001600160401b03811182821017156143a5576143a561436d565b60405161010081016001600160401b03811182821017156143a5576143a561436d565b604051608081016001600160401b03811182821017156143a5576143a561436d565b604051601f8201601f191681016001600160401b038111828210171561443a5761443a61436d565b604052919050565b60006001600160401b0382111561445b5761445b61436d565b5060051b60200190565b80356001600160801b038116811461423257600080fd5b600082601f83011261448d57600080fd5b813560206144a261449d83614442565b614412565b82815260069290921b840181019181810190868411156144c157600080fd5b8286015b8481101561450e57604081890312156144de5760008081fd5b6144e6614383565b6144ef82614465565b81526144fc85830161421e565b818601528352918301916040016144c5565b509695505050505050565b80356001600160f81b038116811461423257600080fd5b600082601f83011261454157600080fd5b8135602061455161449d83614442565b8281526060928302850182019282820191908785111561457057600080fd5b8387015b858110156145d05781818a03121561458c5760008081fd5b6145946143ab565b61459d82614519565b8152858201356145ac81614251565b818701526040828101356145bf816141ec565b908201528452928401928101614574565b5090979650505050505050565b600082601f8301126145ee57600080fd5b81356001600160401b038111156146075761460761436d565b61461a601f8201601f1916602001614412565b81815284602083860101111561462f57600080fd5b816020850160208301376000918101602001919091529392505050565b80356001600160e01b03198116811461423257600080fd5b600060a0828403121561467657600080fd5b60405160a081016001600160401b0382821081831117156146995761469961436d565b8160405282935084359150808211156146b157600080fd5b506146be858286016145dd565b8252506020830135602082015260408301356146d9816141ec565b60408201526146ea6060840161464c565b60608201526146fb6080840161464c565b60808201525092915050565b60008060006060848603121561471c57600080fd5b8335925060208401356001600160401b038082111561473a57600080fd5b90850190610100828803121561474f57600080fd5b6147576143cd565b82358281111561476657600080fd5b6147728982860161447c565b82525060208301358281111561478757600080fd5b61479389828601614530565b6020830152506040830135828111156147ab57600080fd5b6147b7898286016145dd565b6040830152506060830135828111156147cf57600080fd5b6147db898286016145dd565b6060830152506147ed6080840161421e565b60808201526147fe60a08401614246565b60a082015261480f60c0840161425f565b60c082015261482060e0840161425f565b60e08201529350604086013591508082111561483b57600080fd5b5061484886828701614664565b9150509250925092565b6000806040838503121561486557600080fd5b8235614870816141ec565b915060208301356001600160401b0381111561488b57600080fd5b614897858286016145dd565b9150509250929050565b60008060408084860312156148b557600080fd5b83356148c0816141ec565b92506020848101356001600160401b038111156148dc57600080fd5b8501601f810187136148ed57600080fd5b80356148fb61449d82614442565b81815260079190911b8201830190838101908983111561491a57600080fd5b928401925b8284101561498e576080848b0312156149385760008081fd5b6149406143f0565b61494985614465565b815261495686860161421e565b8682015286850135614967816141ec565b81880152606061497886820161421e565b908201528252608093909301929084019061491f565b8096505050505050509250929050565b6000602082840312156149b057600080fd5b5035919050565b6000806000606084860312156149cc57600080fd5b83356149d7816141ec565b9250602084013591506149ec6040850161421e565b90509250925092565b600080600060608486031215614a0a57600080fd5b83359250614a1a6020850161421e565b91506040840135614a2a816141ec565b809150509250925092565b60005b83811015614a50578181015183820152602001614a38565b83811115613ade5750506000910152565b60008151808452614a79816020860160208601614a35565b601f01601f19169290920160200192915050565b828152604060208201526000613fa46040830184614a61565b6020808252602c908201527f46756e6374696f6e206d7573742062652063616c6c6564207468726f7567682060408201526b19195b1959d85d1958d85b1b60a21b606082015260800190565b6020808252602c908201527f46756e6374696f6e206d7573742062652063616c6c6564207468726f7567682060408201526b6163746976652070726f787960a01b606082015260800190565b634e487b7160e01b600052603260045260246000fd5b600060208284031215614b6657600080fd5b8151611dfd81614251565b600060208284031215614b8357600080fd5b611dfd82614519565b600060208284031215614b9e57600080fd5b8135611dfd81614251565b634e487b7160e01b600052601260045260246000fd5b600060ff831680614bd257614bd2614ba9565b8060ff84160691505092915050565b600060a0820160ff89168352602088151581850152604088151581860152606063ffffffff89168187015260a060808701528387855260c08701905088945060005b88811015614c7c576001600160f81b03614c3c87614519565b16825284860135614c4c81614251565b15158286015285840135614c5f816141ec565b6001600160a01b0316828501529482019490820190600101614c23565b509c9b505050505050505050505050565b600181811c90821680614ca157607f821691505b602082108103614cc157634e487b7160e01b600052602260045260246000fd5b50919050565b60008060408385031215614cda57600080fd5b8251614ce5816141ec565b6020939093015192949293505050565b634e487b7160e01b600052601160045260246000fd5b600082821015614d1d57614d1d614cf5565b500390565b6020808252818101527f4f776e61626c653a2063616c6c6572206973206e6f7420746865206f776e6572604082015260600190565b600060208284031215614d6957600080fd5b8151611dfd816141ec565b600060208284031215614d8657600080fd5b5051919050565b60008219821115614da057614da0614cf5565b500190565b600081518084526020808501945080840160005b83811015614dff57815180516001600160f81b03168852838101511515848901526040908101516001600160a01b03169088015260609096019590820190600101614db9565b509495945050505050565b6000815160a08452614e1f60a0850182614a61565b602084810151908601526040808501516001600160a01b0316908601526060808501516001600160e01b0319908116918701919091526080948501511693909401929092525090919050565b60006101208b15158352602060ff8c168185015260408b15158186015263ffffffff808c16606087015260018060a01b038b1660808701528360a0870152614eb58487018b614a61565b86810360c08801528951808252848b0195509084019060005b81811015614efe57865180516001600160801b031684528601518416868401529585019591840191600101614ece565b505086810360e0880152614f12818a614da5565b945050505050828103610100840152614f2b8185614e0a565b9c9b505050505050505050505050565b6000816000190483118215151615614f5557614f55614cf5565b500290565b600063ffffffff808316818516808303821115614f7957614f79614cf5565b01949350505050565b6001600160801b038616815263ffffffff8581166020808401919091526001600160a01b0386166040840152908416606083015260a060808301528254600091908290600181811c9082811680614fda57607f831692505b8583108103614ff757634e487b7160e01b85526022600452602485fd5b60a0880183905260c08801818015615016576001811461502757615052565b60ff19861682528782019650615052565b60008b81526020902060005b8681101561504c57815484820152908501908901615033565b83019750505b50949d9c50505050505050505050505050565b602081526000611dfd6020830184614a61565b6000825161508a818460208701614a35565b9190910192915050565b6000826150a3576150a3614ba9565b500490565b6020808252602b908201527f496e697469616c697a61626c653a20636f6e7472616374206973206e6f74206960408201526a6e697469616c697a696e6760a81b606082015260800190565b60006001600160f81b038281168482168115158284048211161561511957615119614cf5565b02949350505050565b60006020828403121561513457600080fd5b8151611dfd81614237565b805161ffff8116811461423257600080fd5b600080600080600080600060e0888a03121561516c57600080fd5b8751615177816141ec565b8097505060208801518060020b811461518f57600080fd5b955061519d6040890161513f565b94506151ab6060890161513f565b93506151b96080890161513f565b925060a08801516151c981614237565b60c08901519092506151da81614251565b8091505092959891949750929550565b6020808252825182820181905260009190848201906040850190845b8181101561522857835163ffffffff1683529284019291840191600101615206565b50909695505050505050565b600082601f83011261524557600080fd5b8151602061525561449d83614442565b82815260059290921b8401810191818101908684111561527457600080fd5b8286015b8481101561450e57805161528b816141ec565b8352918301918301615278565b600080604083850312156152ab57600080fd5b82516001600160401b03808211156152c257600080fd5b818501915085601f8301126152d657600080fd5b815160206152e661449d83614442565b82815260059290921b8401810191818101908984111561530557600080fd5b948201945b838610156153335785518060060b81146153245760008081fd5b8252948201949082019061530a565b9188015191965090935050508082111561534c57600080fd5b5061489785828601615234565b60008160060b8360060b6000811281667fffffffffffff190183128115161561538457615384614cf5565b81667fffffffffffff01831381161561539f5761539f614cf5565b5090039392505050565b60008160060b8360060b806153c0576153c0614ba9565b667fffffffffffff198214600019821416156153de576153de614cf5565b90059392505050565b600181815b8085111561542257816000190482111561540857615408614cf5565b8085161561541557918102915b93841c93908002906153ec565b509250929050565b60008261543957506001611dbd565b8161544657506000611dbd565b816001811461545c576002811461546657615482565b6001915050611dbd565b60ff84111561547757615477614cf5565b50506001821b611dbd565b5060208310610133831016604e8410600b84101617156154a5575081810a611dbd565b6154af83836153e7565b80600019048211156154c3576154c3614cf5565b029392505050565b6000611dfd60ff84168361542a565b6000611dfd838361542a565b805169ffffffffffffffffffff8116811461423257600080fd5b600080600080600060a0868803121561551857600080fd5b615521866154e6565b9450602086015193506040860151925060608601519150615544608087016154e6565b90509295509295909350565b6000600160ff1b820161556557615565614cf5565b5060000390565b60008261557b5761557b614ba9565b50069056fe360894a13ba1a3210667c828492db98dca3e2076cc3735a920a3ca505d382bbc416464726573733a206c6f772d6c6576656c2064656c65676174652063616c6c206661696c6564f0832fe058ed4ffda256632e9c3d7b50283fb2e36310b6beaf08f633b1407057a26469706673582212205ea420036f67c8cbff65947a112fbe3cfad06a3da01ea3c662e151ff7172bf1064736f6c634300080d0033",
  "linkReferences": {},
  "deployedLinkReferences": {}
}