{
  "_format": "hh-sol-artifact-1",
  "contractName": "FundsModule",
  "sourceName": "contracts/FundsModule.sol",
  "abi": [
    {
      "inputs": [],
      "name": "ExceedsMaxBalance",
      "type": "error"
    },
    {
      "inputs": [],
      "name": "Invalid",
      "type": "error"
    },
    {
      "inputs": [],
      "name": "NotAuthorized",
      "type": "error"
    },
    {
      "inputs": [],
      "name": "NotSuccessful",
      "type": "error"
    },
    {
      "anonymous": false,
      "inputs": [
        {
          "indexed": false,
          "internalType": "address",
          "name": "previousAdmin",
          "type": "address"
        },
        {
          "indexed": false,
          "internalType": "address",
          "name": "newAdmin",
          "type": "address"
        }
      ],
      "name": "AdminChanged",
      "type": "event"
    },
    {
      "anonymous": false,
      "inputs": [
        {
          "indexed": true,
          "internalType": "address",
          "name": "beacon",
          "type": "address"
        }
      ],
      "name": "BeaconUpgraded",
      "type": "event"
    },
    {
      "anonymous": false,
      "inputs": [
        {
          "indexed": true,
          "internalType": "address",
          "name": "account",
          "type": "address"
        },
        {
          "indexed": true,
          "internalType": "address",
          "name": "currency",
          "type": "address"
        },
        {
          "indexed": false,
          "internalType": "uint256",
          "name": "amount",
          "type": "uint256"
        },
        {
          "indexed": false,
          "internalType": "uint256",
          "name": "protocolAmount",
          "type": "uint256"
        }
      ],
      "name": "Deposited",
      "type": "event"
    },
    {
      "anonymous": false,
      "inputs": [
        {
          "indexed": true,
          "internalType": "address",
          "name": "previousOwner",
          "type": "address"
        },
        {
          "indexed": true,
          "internalType": "address",
          "name": "newOwner",
          "type": "address"
        }
      ],
      "name": "OwnershipTransferred",
      "type": "event"
    },
    {
      "anonymous": false,
      "inputs": [
        {
          "indexed": true,
          "internalType": "address",
          "name": "implementation",
          "type": "address"
        }
      ],
      "name": "Upgraded",
      "type": "event"
    },
    {
      "anonymous": false,
      "inputs": [
        {
          "indexed": true,
          "internalType": "address",
          "name": "account",
          "type": "address"
        },
        {
          "indexed": true,
          "internalType": "address",
          "name": "currency",
          "type": "address"
        },
        {
          "indexed": false,
          "internalType": "uint256",
          "name": "withdrawAmount",
          "type": "uint256"
        },
        {
          "indexed": false,
          "internalType": "uint256",
          "name": "protocolPayment",
          "type": "uint256"
        }
      ],
      "name": "Withdrawn",
      "type": "event"
    },
    {
      "inputs": [
        {
          "internalType": "address",
          "name": "account",
          "type": "address"
        },
        {
          "internalType": "address",
          "name": "currency",
          "type": "address"
        }
      ],
      "name": "balance",
      "outputs": [
        {
          "internalType": "uint256",
          "name": "accountBalance",
          "type": "uint256"
        },
        {
          "internalType": "uint256",
          "name": "protocolPayment",
          "type": "uint256"
        }
      ],
      "stateMutability": "view",
      "type": "function"
    },
    {
      "inputs": [
        {
          "internalType": "contract ISlicer[]",
          "name": "slicers",
          "type": "address[]"
        },
        {
          "internalType": "address",
          "name": "account",
          "type": "address"
        },
        {
          "internalType": "address",
          "name": "currency",
          "type": "address"
        },
        {
          "internalType": "bool",
          "name": "triggerWithdraw",
          "type": "bool"
        }
      ],
      "name": "batchReleaseSlicers",
      "outputs": [],
      "stateMutability": "nonpayable",
      "type": "function"
    },
    {
      "inputs": [
        {
          "internalType": "address",
          "name": "account",
          "type": "address"
        },
        {
          "internalType": "address[]",
          "name": "currencies",
          "type": "address[]"
        }
      ],
      "name": "batchWithdraw",
      "outputs": [],
      "stateMutability": "nonpayable",
      "type": "function"
    },
    {
      "inputs": [
        {
          "internalType": "address",
          "name": "account",
          "type": "address"
        },
        {
          "internalType": "uint256",
          "name": "protocolPayment",
          "type": "uint256"
        }
      ],
      "name": "depositEth",
      "outputs": [],
      "stateMutability": "payable",
      "type": "function"
    },
    {
      "inputs": [
        {
          "internalType": "uint256",
          "name": "tokenId",
          "type": "uint256"
        },
        {
          "internalType": "address",
          "name": "account",
          "type": "address"
        },
        {
          "internalType": "address",
          "name": "currency",
          "type": "address"
        },
        {
          "internalType": "uint256",
          "name": "amount",
          "type": "uint256"
        },
        {
          "internalType": "uint256",
          "name": "protocolPayment",
          "type": "uint256"
        }
      ],
      "name": "depositTokenFromSlicer",
      "outputs": [],
      "stateMutability": "nonpayable",
      "type": "function"
    },
    {
      "inputs": [],
      "name": "initialize",
      "outputs": [],
      "stateMutability": "nonpayable",
      "type": "function"
    },
    {
      "inputs": [],
      "name": "owner",
      "outputs": [
        {
          "internalType": "address",
          "name": "",
          "type": "address"
        }
      ],
      "stateMutability": "view",
      "type": "function"
    },
    {
      "inputs": [],
      "name": "proxiableUUID",
      "outputs": [
        {
          "internalType": "bytes32",
          "name": "",
          "type": "bytes32"
        }
      ],
      "stateMutability": "view",
      "type": "function"
    },
    {
      "inputs": [],
      "name": "renounceOwnership",
      "outputs": [],
      "stateMutability": "nonpayable",
      "type": "function"
    },
    {
      "inputs": [
        {
          "internalType": "address",
          "name": "newOwner",
          "type": "address"
        }
      ],
      "name": "transferOwnership",
      "outputs": [],
      "stateMutability": "nonpayable",
      "type": "function"
    },
    {
      "inputs": [
        {
          "internalType": "address",
          "name": "newImplementation",
          "type": "address"
        }
      ],
      "name": "upgradeTo",
      "outputs": [],
      "stateMutability": "nonpayable",
      "type": "function"
    },
    {
      "inputs": [
        {
          "internalType": "address",
          "name": "newImplementation",
          "type": "address"
        },
        {
          "internalType": "bytes",
          "name": "data",
          "type": "bytes"
        }
      ],
      "name": "upgradeToAndCall",
      "outputs": [],
      "stateMutability": "payable",
      "type": "function"
    },
    {
      "inputs": [
        {
          "internalType": "address",
          "name": "account",
          "type": "address"
        },
        {
          "internalType": "address",
          "name": "currency",
          "type": "address"
        }
      ],
      "name": "withdraw",
      "outputs": [],
      "stateMutability": "nonpayable",
      "type": "function"
    },
    {
      "inputs": [
        {
          "internalType": "uint256",
          "name": "tokenId",
          "type": "uint256"
        },
        {
          "internalType": "address",
          "name": "account",
          "type": "address"
        },
        {
          "internalType": "address",
          "name": "currency",
          "type": "address"
        },
        {
          "internalType": "uint256",
          "name": "amount",
          "type": "uint256"
        },
        {
          "internalType": "uint256",
          "name": "protocolPayment",
          "type": "uint256"
        }
      ],
      "name": "withdrawOnRelease",
      "outputs": [],
      "stateMutability": "payable",
      "type": "function"
    },
    {
      "stateMutability": "payable",
      "type": "receive"
    }
  ],
  "bytecode": "0x60a06040523060805234801561001457600080fd5b50608051611c0e61004c600039600081816102dc01528181610325015281816103f60152818161043601526104c50152611c0e6000f3fe6080604052600436106100e15760003560e01c80638129fc1c1161007f578063b203bb9911610059578063b203bb9914610202578063ba96af3214610272578063f2fde38b14610292578063f940e385146102b257600080fd5b80638129fc1c146101a55780638da5cb5b146101ba5780639d2edfac146101e257600080fd5b806352d1902d116100bb57806352d1902d1461013557806359fc470a1461015d578063715018a61461017d57806378ed7c781461019257600080fd5b80633659cfe6146100ed57806339ed51231461010f5780634f1ef2861461012257600080fd5b366100e857005b600080fd5b3480156100f957600080fd5b5061010d610108366004611580565b6102d2565b005b61010d61011d36600461159d565b6103ba565b61010d610130366004611610565b6103ec565b34801561014157600080fd5b5061014a6104b8565b6040519081526020015b60405180910390f35b34801561016957600080fd5b5061010d6101783660046116b8565b61056b565b34801561018957600080fd5b5061010d610623565b61010d6101a03660046116b8565b610659565b3480156101b157600080fd5b5061010d6107ea565b3480156101c657600080fd5b506097546040516001600160a01b039091168152602001610154565b3480156101ee57600080fd5b5061010d6101fd366004611747565b6108aa565b34801561020e57600080fd5b5061025d61021d366004611819565b6001600160a01b03918216600090815260c9602090815260408083209390941682529190915220546001600160801b0380821692600160801b9092041690565b60408051928352602083019190915201610154565b34801561027e57600080fd5b5061010d61028d366004611852565b610b72565b34801561029e57600080fd5b5061010d6102ad366004611580565b610bae565b3480156102be57600080fd5b5061010d6102cd366004611819565b610c46565b6001600160a01b037f00000000000000000000000000000000000000000000000000000000000000001630036103235760405162461bcd60e51b815260040161031a90611901565b60405180910390fd5b7f00000000000000000000000000000000000000000000000000000000000000006001600160a01b031661036c600080516020611b92833981519152546001600160a01b031690565b6001600160a01b0316146103925760405162461bcd60e51b815260040161031a9061194d565b61039b81610c8d565b604080516000808252602082019092526103b791839190610cb7565b50565b348111156103db57604051636dac6a0960e01b815260040160405180910390fd5b6103e83482846000610e22565b5050565b6001600160a01b037f00000000000000000000000000000000000000000000000000000000000000001630036104345760405162461bcd60e51b815260040161031a90611901565b7f00000000000000000000000000000000000000000000000000000000000000006001600160a01b031661047d600080516020611b92833981519152546001600160a01b031690565b6001600160a01b0316146104a35760405162461bcd60e51b815260040161031a9061194d565b6104ac82610c8d565b6103e882826001610cb7565b6000306001600160a01b037f000000000000000000000000000000000000000000000000000000000000000016146105585760405162461bcd60e51b815260206004820152603860248201527f555550535570677261646561626c653a206d757374206e6f742062652063616c60448201527f6c6564207468726f7567682064656c656761746563616c6c0000000000000000606482015260840161031a565b50600080516020611b9283398151915290565b604051630bafd3f560e11b81526004810186905273e7f1725e7734ce288f8367e1bb143e90bb3f05129063175fa7ea90602401602060405180830381865afa1580156105bb573d6000803e3d6000fd5b505050506040513d601f19601f820116820180604052508101906105df9190611999565b6001600160a01b0316336001600160a01b0316146106105760405163ea8e4eb560e01b815260040160405180910390fd5b61061c82828686610e22565b5050505050565b6097546001600160a01b0316331461064d5760405162461bcd60e51b815260040161031a906119b6565b6106576000610f89565b565b604051630bafd3f560e11b81526004810186905273e7f1725e7734ce288f8367e1bb143e90bb3f05129063175fa7ea90602401602060405180830381865afa1580156106a9573d6000803e3d6000fd5b505050506040513d601f19601f820116820180604052508101906106cd9190611999565b6001600160a01b0316336001600160a01b0316146106fe5760405163ea8e4eb560e01b815260040160405180910390fd5b826001600160a01b0316846001600160a01b03167ff5681f9d0db1b911ac18ee83d515a1cf1051853a9eae418316a2fdf7dea427c5848460405161074c929190918252602082015260400190565b60405180910390a36001600160a01b03808516600090815260c96020908152604080832093871683529290522054819061078f906001600160801b031684611a01565b6107999190611a19565b6001600160a01b03858116600090815260c960209081526040808320938816835292905220549092506107dc90600160801b90046001600160801b031682611a01565b905061061c84848484610fdb565b600054610100900460ff166108055760005460ff1615610809565b303b155b61086c5760405162461bcd60e51b815260206004820152602e60248201527f496e697469616c697a61626c653a20636f6e747261637420697320616c72656160448201526d191e481a5b9a5d1a585b1a5e995960921b606482015260840161031a565b600054610100900460ff1615801561088e576000805461ffff19166101011790555b610896611071565b80156103b7576000805461ff001916905550565b60008060008060005b8851811015610979578881815181106108ce576108ce611a30565b602090810291909101015160405163a468801760e01b81526001600160a01b038a8116600483015289811660248301529091169063a46880179060440160408051808303816000875af1158015610929573d6000803e3d6000fd5b505050506040513d601f19601f8201168201806040525081019061094d9190611a46565b90935091508215610971576109628286611a01565b945061096e8385611a01565b93505b6001016108b3565b50856001600160a01b0316876001600160a01b03167ff5681f9d0db1b911ac18ee83d515a1cf1051853a9eae418316a2fdf7dea427c585876040516109c8929190918252602082015260400190565b60405180910390a3838303925084610ade576001600160801b038311806109f557506001600160801b0384115b15610a135760405163068b348d60e11b815260040160405180910390fd5b6001600160a01b03808816600090815260c960209081526040808320938a1683529290529081208054859290610a539084906001600160801b0316611a6a565b82546101009290920a6001600160801b038181021990931691831602179091556001600160a01b03898116600090815260c960209081526040808320938c1683529290522080548793509091601091610ab5918591600160801b900416611a6a565b92506101000a8154816001600160801b0302191690836001600160801b03160217905550610b68565b6001600160a01b03878116600090815260c960209081526040808320938a1683529290522054610b1e90600160801b90046001600160801b031685611a01565b6001600160a01b03808916600090815260c960209081526040808320938b1683529290522054909450610b5a906001600160801b031684611a01565b9250610b6887878587610fdb565b5050505050505050565b60005b8151811015610ba957610ba183838381518110610b9457610b94611a30565b6020026020010151610c46565b600101610b75565b505050565b6097546001600160a01b03163314610bd85760405162461bcd60e51b815260040161031a906119b6565b6001600160a01b038116610c3d5760405162461bcd60e51b815260206004820152602660248201527f4f776e61626c653a206e6577206f776e657220697320746865207a65726f206160448201526564647265737360d01b606482015260840161031a565b6103b781610f89565b6001600160a01b03828116600090815260c960209081526040808320938516835292905220546103e890839083906001600160801b0380821691600160801b900416610fdb565b6097546001600160a01b031633146103b75760405162461bcd60e51b815260040161031a906119b6565b7f4910fdfa16fed3260ed0e7147f7cc6da11a60208b5b9406d12a635614ffd91435460ff1615610cea57610ba9836110a0565b826001600160a01b03166352d1902d6040518163ffffffff1660e01b8152600401602060405180830381865afa925050508015610d44575060408051601f3d908101601f19168201909252610d4191810190611a95565b60015b610da75760405162461bcd60e51b815260206004820152602e60248201527f45524331393637557067726164653a206e657720696d706c656d656e7461746960448201526d6f6e206973206e6f74205555505360901b606482015260840161031a565b600080516020611b928339815191528114610e165760405162461bcd60e51b815260206004820152602960248201527f45524331393637557067726164653a20756e737570706f727465642070726f786044820152681a58589b195555525160ba1b606482015260840161031a565b50610ba983838361113c565b806001600160a01b0316826001600160a01b03167ff5681f9d0db1b911ac18ee83d515a1cf1051853a9eae418316a2fdf7dea427c58686604051610e70929190918252602082015260400190565b60405180910390a3610e828385611a19565b93506001600160801b03841180610e9f57506001600160801b0383115b15610ebd5760405163068b348d60e11b815260040160405180910390fd5b6001600160a01b03808316600090815260c96020908152604080832093851683529290529081208054869290610efd9084906001600160801b0316611a6a565b82546101009290920a6001600160801b038181021990931691831602179091556001600160a01b03848116600090815260c96020908152604080832093871683529290522080548693509091601091610f5f918591600160801b900416611a6a565b92506101000a8154816001600160801b0302191690836001600160801b0316021790555050505050565b609780546001600160a01b038381166001600160a01b0319831681179093556040519116919082907f8be0079c531659141344cd1fd0a4f28419497f9722a3daafe3b4186f6b6457e090600090a35050565b8015610fe657600019015b8115610ff3576001820391505b801561100457611004848483611167565b8115611015576110158484846112c8565b826001600160a01b0316846001600160a01b03167f91fb9d98b786c57d74c099ccd2beca1739e9f6a81fb49001ca465c4b7591bbe28484604051611063929190918252602082015260400190565b60405180910390a350505050565b600054610100900460ff166110985760405162461bcd60e51b815260040161031a90611aae565b6106576113b7565b6001600160a01b0381163b61110d5760405162461bcd60e51b815260206004820152602d60248201527f455243313936373a206e657720696d706c656d656e746174696f6e206973206e60448201526c1bdd08184818dbdb9d1c9858dd609a1b606482015260840161031a565b600080516020611b9283398151915280546001600160a01b0319166001600160a01b0392909216919091179055565b611145836113e7565b6000825111806111525750805b15610ba9576111618383611427565b50505050565b6001600160a01b03808416600090815260c96020908152604080832093861680845293909152902080546001600160801b0316600160801b179055611242576040516302c8986f60e01b81526001600482018190526001600160a01b038516602483015260806044830152600060848301526064820152737a2088a1bfc9d81c55368ae168c2c02570cb814f906302c8986f90839060a40160206040518083038185885af115801561121d573d6000803e3d6000fd5b50505050506040513d601f19601f820116820180604052508101906111619190611a95565b60405163a9059cbb60e01b815273f39fd6e51aad88f6f4ce6ab8827279cfffb922666004820152602481018290526001600160a01b0383169063a9059cbb906044015b6020604051808303816000875af11580156112a4573d6000803e3d6000fd5b505050506040513d601f19601f820116820180604052508101906111619190611af9565b6001600160a01b03808416600090815260c96020908152604080832093861680845293909152902080546fffffffffffffffffffffffffffffffff19166001179055611382576000836001600160a01b03168260405160006040518083038185875af1925050503d806000811461135b576040519150601f19603f3d011682016040523d82523d6000602084013e611360565b606091505b50509050806111615760405163af6eefa360e01b815260040160405180910390fd5b60405163a9059cbb60e01b81526001600160a01b0384811660048301526024820183905283169063a9059cbb90604401611285565b600054610100900460ff166113de5760405162461bcd60e51b815260040161031a90611aae565b61065733610f89565b6113f0816110a0565b6040516001600160a01b038216907fbc7cd75a20ee27fd9adebab32041f755214dbc6bffa90cc0225b39da2e5c2d3b90600090a250565b60606001600160a01b0383163b61148f5760405162461bcd60e51b815260206004820152602660248201527f416464726573733a2064656c65676174652063616c6c20746f206e6f6e2d636f6044820152651b9d1c9858dd60d21b606482015260840161031a565b600080846001600160a01b0316846040516114aa9190611b42565b600060405180830381855af49150503d80600081146114e5576040519150601f19603f3d011682016040523d82523d6000602084013e6114ea565b606091505b50915091506115128282604051806060016040528060278152602001611bb26027913961151b565b95945050505050565b6060831561152a575081611554565b82511561153a5782518084602001fd5b8160405162461bcd60e51b815260040161031a9190611b5e565b9392505050565b6001600160a01b03811681146103b757600080fd5b803561157b8161155b565b919050565b60006020828403121561159257600080fd5b81356115548161155b565b600080604083850312156115b057600080fd5b82356115bb8161155b565b946020939093013593505050565b634e487b7160e01b600052604160045260246000fd5b604051601f8201601f1916810167ffffffffffffffff81118282101715611608576116086115c9565b604052919050565b6000806040838503121561162357600080fd5b823561162e8161155b565b915060208381013567ffffffffffffffff8082111561164c57600080fd5b818601915086601f83011261166057600080fd5b813581811115611672576116726115c9565b611684601f8201601f191685016115df565b9150808252878482850101111561169a57600080fd5b80848401858401376000848284010152508093505050509250929050565b600080600080600060a086880312156116d057600080fd5b8535945060208601356116e28161155b565b935060408601356116f28161155b565b94979396509394606081013594506080013592915050565b600067ffffffffffffffff821115611724576117246115c9565b5060051b60200190565b80151581146103b757600080fd5b803561157b8161172e565b6000806000806080858703121561175d57600080fd5b843567ffffffffffffffff81111561177457600080fd5b8501601f8101871361178557600080fd5b8035602061179a6117958361170a565b6115df565b82815260059290921b8301810191818101908a8411156117b957600080fd5b938201935b838510156117e05784356117d18161155b565b825293820193908201906117be565b97506117ef9050888201611570565b955050505061180060408601611570565b915061180e6060860161173c565b905092959194509250565b6000806040838503121561182c57600080fd5b82356118378161155b565b915060208301356118478161155b565b809150509250929050565b6000806040838503121561186557600080fd5b82356118708161155b565b915060208381013567ffffffffffffffff81111561188d57600080fd5b8401601f8101861361189e57600080fd5b80356118ac6117958261170a565b81815260059190911b820183019083810190888311156118cb57600080fd5b928401925b828410156118f25783356118e38161155b565b825292840192908401906118d0565b80955050505050509250929050565b6020808252602c908201527f46756e6374696f6e206d7573742062652063616c6c6564207468726f7567682060408201526b19195b1959d85d1958d85b1b60a21b606082015260800190565b6020808252602c908201527f46756e6374696f6e206d7573742062652063616c6c6564207468726f7567682060408201526b6163746976652070726f787960a01b606082015260800190565b6000602082840312156119ab57600080fd5b81516115548161155b565b6020808252818101527f4f776e61626c653a2063616c6c6572206973206e6f7420746865206f776e6572604082015260600190565b634e487b7160e01b600052601160045260246000fd5b60008219821115611a1457611a146119eb565b500190565b600082821015611a2b57611a2b6119eb565b500390565b634e487b7160e01b600052603260045260246000fd5b60008060408385031215611a5957600080fd5b505080516020909101519092909150565b60006001600160801b03808316818516808303821115611a8c57611a8c6119eb565b01949350505050565b600060208284031215611aa757600080fd5b5051919050565b6020808252602b908201527f496e697469616c697a61626c653a20636f6e7472616374206973206e6f74206960408201526a6e697469616c697a696e6760a81b606082015260800190565b600060208284031215611b0b57600080fd5b81516115548161172e565b60005b83811015611b31578181015183820152602001611b19565b838111156111615750506000910152565b60008251611b54818460208701611b16565b9190910192915050565b6020815260008251806020840152611b7d816040850160208701611b16565b601f01601f1916919091016040019291505056fe360894a13ba1a3210667c828492db98dca3e2076cc3735a920a3ca505d382bbc416464726573733a206c6f772d6c6576656c2064656c65676174652063616c6c206661696c6564a264697066735822122040d062e8ab895974879f8bab65b73c24bf4e88417b59d0434879e1ebbec8d9ca64736f6c634300080d0033",
  "linkReferences": {},
  "deployedLinkReferences": {}
}