{
  "_format": "hh-sol-artifact-1",
  "contractName": "ProductsModule",
  "sourceName": "contracts/ProductsModule.sol",
  "abi": [
    {
      "inputs": [],
      "name": "ActiveListing",
      "type": "error"
    },
    {
      "inputs": [],
      "name": "InexistentPool",
      "type": "error"
    },
    {
      "inputs": [],
      "name": "InexistentProduct",
      "type": "error"
    },
    {
      "inputs": [],
      "name": "InsufficientPayment",
      "type": "error"
    },
    {
      "inputs": [],
      "name": "Invalid",
      "type": "error"
    },
    {
      "inputs": [],
      "name": "NoDelegatecall",
      "type": "error"
    },
    {
      "inputs": [],
      "name": "NotAuthorized",
      "type": "error"
    },
    {
      "inputs": [],
      "name": "NotPurchased",
      "type": "error"
    },
    {
      "inputs": [],
      "name": "NotSuccessful",
      "type": "error"
    },
    {
      "inputs": [],
      "name": "TooSoon",
      "type": "error"
    },
    {
      "inputs": [],
      "name": "WrongCurrency",
      "type": "error"
    },
    {
      "anonymous": false,
      "inputs": [
        {
          "indexed": false,
          "internalType": "address",
          "name": "previousAdmin",
          "type": "address"
        },
        {
          "indexed": false,
          "internalType": "address",
          "name": "newAdmin",
          "type": "address"
        }
      ],
      "name": "AdminChanged",
      "type": "event"
    },
    {
      "anonymous": false,
      "inputs": [
        {
          "indexed": true,
          "internalType": "address",
          "name": "beacon",
          "type": "address"
        }
      ],
      "name": "BeaconUpgraded",
      "type": "event"
    },
    {
      "anonymous": false,
      "inputs": [
        {
          "indexed": true,
          "internalType": "uint256",
          "name": "slicerId",
          "type": "uint256"
        },
        {
          "indexed": true,
          "internalType": "address",
          "name": "contractAddress",
          "type": "address"
        },
        {
          "indexed": true,
          "internalType": "uint256",
          "name": "tokenId",
          "type": "uint256"
        },
        {
          "indexed": false,
          "internalType": "uint256",
          "name": "currentAmount",
          "type": "uint256"
        }
      ],
      "name": "ERC1155ListingChanged",
      "type": "event"
    },
    {
      "anonymous": false,
      "inputs": [
        {
          "indexed": true,
          "internalType": "uint256",
          "name": "slicerId",
          "type": "uint256"
        },
        {
          "indexed": true,
          "internalType": "address",
          "name": "contractAddress",
          "type": "address"
        },
        {
          "indexed": true,
          "internalType": "uint256",
          "name": "tokenId",
          "type": "uint256"
        },
        {
          "indexed": false,
          "internalType": "bool",
          "name": "isActive",
          "type": "bool"
        }
      ],
      "name": "ERC721ListingChanged",
      "type": "event"
    },
    {
      "anonymous": false,
      "inputs": [
        {
          "indexed": true,
          "internalType": "address",
          "name": "previousOwner",
          "type": "address"
        },
        {
          "indexed": true,
          "internalType": "address",
          "name": "newOwner",
          "type": "address"
        }
      ],
      "name": "OwnershipTransferred",
      "type": "event"
    },
    {
      "anonymous": false,
      "inputs": [
        {
          "indexed": false,
          "internalType": "address",
          "name": "account",
          "type": "address"
        }
      ],
      "name": "Paused",
      "type": "event"
    },
    {
      "anonymous": false,
      "inputs": [
        {
          "indexed": true,
          "internalType": "uint256",
          "name": "slicerId",
          "type": "uint256"
        },
        {
          "indexed": true,
          "internalType": "uint256",
          "name": "productId",
          "type": "uint256"
        },
        {
          "indexed": true,
          "internalType": "uint256",
          "name": "categoryIndex",
          "type": "uint256"
        },
        {
          "indexed": false,
          "internalType": "bool",
          "name": "isFree",
          "type": "bool"
        },
        {
          "indexed": false,
          "internalType": "bool",
          "name": "isMultiple",
          "type": "bool"
        },
        {
          "indexed": false,
          "internalType": "bool",
          "name": "isInfinite",
          "type": "bool"
        },
        {
          "indexed": false,
          "internalType": "uint256",
          "name": "availableUnits",
          "type": "uint256"
        },
        {
          "indexed": false,
          "internalType": "address",
          "name": "creator",
          "type": "address"
        },
        {
          "indexed": false,
          "internalType": "bytes",
          "name": "data",
          "type": "bytes"
        },
        {
          "components": [
            {
              "internalType": "uint128",
              "name": "subSlicerId",
              "type": "uint128"
            },
            {
              "internalType": "uint32",
              "name": "subProductId",
              "type": "uint32"
            }
          ],
          "indexed": false,
          "internalType": "struct SubSlicerProduct[]",
          "name": "subSlicerProducts",
          "type": "tuple[]"
        },
        {
          "components": [
            {
              "internalType": "uint248",
              "name": "value",
              "type": "uint248"
            },
            {
              "internalType": "bool",
              "name": "dynamicPricing",
              "type": "bool"
            },
            {
              "internalType": "address",
              "name": "currency",
              "type": "address"
            }
          ],
          "indexed": false,
          "internalType": "struct CurrencyPrice[]",
          "name": "currencyPrices",
          "type": "tuple[]"
        },
        {
          "components": [
            {
              "internalType": "bytes",
              "name": "data",
              "type": "bytes"
            },
            {
              "internalType": "uint256",
              "name": "value",
              "type": "uint256"
            },
            {
              "internalType": "address",
              "name": "externalAddress",
              "type": "address"
            },
            {
              "internalType": "bytes4",
              "name": "checkFunctionSignature",
              "type": "bytes4"
            },
            {
              "internalType": "bytes4",
              "name": "execFunctionSignature",
              "type": "bytes4"
            }
          ],
          "indexed": false,
          "internalType": "struct Function",
          "name": "externalCall",
          "type": "tuple"
        }
      ],
      "name": "ProductAdded",
      "type": "event"
    },
    {
      "anonymous": false,
      "inputs": [
        {
          "indexed": true,
          "internalType": "uint256",
          "name": "slicerId",
          "type": "uint256"
        },
        {
          "indexed": true,
          "internalType": "uint256",
          "name": "productId",
          "type": "uint256"
        },
        {
          "indexed": false,
          "internalType": "bool",
          "name": "isFree",
          "type": "bool"
        },
        {
          "indexed": false,
          "internalType": "bool",
          "name": "isInfinite",
          "type": "bool"
        },
        {
          "indexed": false,
          "internalType": "uint256",
          "name": "newUnits",
          "type": "uint256"
        },
        {
          "components": [
            {
              "internalType": "uint248",
              "name": "value",
              "type": "uint248"
            },
            {
              "internalType": "bool",
              "name": "dynamicPricing",
              "type": "bool"
            },
            {
              "internalType": "address",
              "name": "currency",
              "type": "address"
            }
          ],
          "indexed": false,
          "internalType": "struct CurrencyPrice[]",
          "name": "currencyPrices",
          "type": "tuple[]"
        }
      ],
      "name": "ProductInfoChanged",
      "type": "event"
    },
    {
      "anonymous": false,
      "inputs": [
        {
          "indexed": true,
          "internalType": "uint256",
          "name": "slicerId",
          "type": "uint256"
        },
        {
          "indexed": true,
          "internalType": "uint256",
          "name": "productId",
          "type": "uint256"
        },
        {
          "indexed": false,
          "internalType": "uint256",
          "name": "quantity",
          "type": "uint256"
        },
        {
          "indexed": true,
          "internalType": "address",
          "name": "buyer",
          "type": "address"
        },
        {
          "indexed": false,
          "internalType": "address",
          "name": "currency",
          "type": "address"
        },
        {
          "indexed": false,
          "internalType": "uint256",
          "name": "paymentEth",
          "type": "uint256"
        },
        {
          "indexed": false,
          "internalType": "uint256",
          "name": "paymentCurrency",
          "type": "uint256"
        }
      ],
      "name": "ProductPaid",
      "type": "event"
    },
    {
      "anonymous": false,
      "inputs": [
        {
          "indexed": true,
          "internalType": "uint256",
          "name": "slicerId",
          "type": "uint256"
        },
        {
          "indexed": true,
          "internalType": "uint256",
          "name": "productId",
          "type": "uint256"
        }
      ],
      "name": "ProductRemoved",
      "type": "event"
    },
    {
      "anonymous": false,
      "inputs": [
        {
          "indexed": true,
          "internalType": "uint256",
          "name": "slicerId",
          "type": "uint256"
        },
        {
          "indexed": false,
          "internalType": "uint256",
          "name": "ethToRelease",
          "type": "uint256"
        }
      ],
      "name": "ReleasedToSlicer",
      "type": "event"
    },
    {
      "anonymous": false,
      "inputs": [
        {
          "indexed": false,
          "internalType": "address",
          "name": "account",
          "type": "address"
        }
      ],
      "name": "Unpaused",
      "type": "event"
    },
    {
      "anonymous": false,
      "inputs": [
        {
          "indexed": true,
          "internalType": "address",
          "name": "implementation",
          "type": "address"
        }
      ],
      "name": "Upgraded",
      "type": "event"
    },
    {
      "inputs": [
        {
          "internalType": "address",
          "name": "currency",
          "type": "address"
        },
        {
          "internalType": "uint256",
          "name": "weiPrice",
          "type": "uint256"
        },
        {
          "internalType": "int16",
          "name": "twapInterval",
          "type": "int16"
        }
      ],
      "name": "_getCurrencyPrice",
      "outputs": [
        {
          "internalType": "uint256",
          "name": "currencyPrice",
          "type": "uint256"
        }
      ],
      "stateMutability": "view",
      "type": "function"
    },
    {
      "inputs": [
        {
          "internalType": "address",
          "name": "currency",
          "type": "address"
        }
      ],
      "name": "_getPool",
      "outputs": [
        {
          "internalType": "address",
          "name": "",
          "type": "address"
        }
      ],
      "stateMutability": "view",
      "type": "function"
    },
    {
      "inputs": [],
      "name": "_togglePause",
      "outputs": [],
      "stateMutability": "nonpayable",
      "type": "function"
    },
    {
      "inputs": [
        {
          "internalType": "uint256",
          "name": "slicerId",
          "type": "uint256"
        },
        {
          "components": [
            {
              "components": [
                {
                  "internalType": "uint128",
                  "name": "subSlicerId",
                  "type": "uint128"
                },
                {
                  "internalType": "uint32",
                  "name": "subProductId",
                  "type": "uint32"
                }
              ],
              "internalType": "struct SubSlicerProduct[]",
              "name": "subSlicerProducts",
              "type": "tuple[]"
            },
            {
              "components": [
                {
                  "internalType": "uint248",
                  "name": "value",
                  "type": "uint248"
                },
                {
                  "internalType": "bool",
                  "name": "dynamicPricing",
                  "type": "bool"
                },
                {
                  "internalType": "address",
                  "name": "currency",
                  "type": "address"
                }
              ],
              "internalType": "struct CurrencyPrice[]",
              "name": "currencyPrices",
              "type": "tuple[]"
            },
            {
              "internalType": "bytes",
              "name": "data",
              "type": "bytes"
            },
            {
              "internalType": "bytes",
              "name": "purchaseData",
              "type": "bytes"
            },
            {
              "internalType": "uint32",
              "name": "availableUnits",
              "type": "uint32"
            },
            {
              "internalType": "bool",
              "name": "isFree",
              "type": "bool"
            },
            {
              "internalType": "bool",
              "name": "isMultiple",
              "type": "bool"
            },
            {
              "internalType": "bool",
              "name": "isInfinite",
              "type": "bool"
            }
          ],
          "internalType": "struct ProductParams",
          "name": "params",
          "type": "tuple"
        },
        {
          "components": [
            {
              "internalType": "bytes",
              "name": "data",
              "type": "bytes"
            },
            {
              "internalType": "uint256",
              "name": "value",
              "type": "uint256"
            },
            {
              "internalType": "address",
              "name": "externalAddress",
              "type": "address"
            },
            {
              "internalType": "bytes4",
              "name": "checkFunctionSignature",
              "type": "bytes4"
            },
            {
              "internalType": "bytes4",
              "name": "execFunctionSignature",
              "type": "bytes4"
            }
          ],
          "internalType": "struct Function",
          "name": "externalCall_",
          "type": "tuple"
        }
      ],
      "name": "addProduct",
      "outputs": [],
      "stateMutability": "nonpayable",
      "type": "function"
    },
    {
      "inputs": [
        {
          "internalType": "uint256",
          "name": "slicerId",
          "type": "uint256"
        }
      ],
      "name": "ethBalance",
      "outputs": [
        {
          "internalType": "uint256",
          "name": "",
          "type": "uint256"
        }
      ],
      "stateMutability": "view",
      "type": "function"
    },
    {
      "inputs": [],
      "name": "initialize",
      "outputs": [],
      "stateMutability": "nonpayable",
      "type": "function"
    },
    {
      "inputs": [],
      "name": "owner",
      "outputs": [
        {
          "internalType": "address",
          "name": "",
          "type": "address"
        }
      ],
      "stateMutability": "view",
      "type": "function"
    },
    {
      "inputs": [],
      "name": "paused",
      "outputs": [
        {
          "internalType": "bool",
          "name": "",
          "type": "bool"
        }
      ],
      "stateMutability": "view",
      "type": "function"
    },
    {
      "inputs": [
        {
          "internalType": "address",
          "name": "buyer",
          "type": "address"
        },
        {
          "components": [
            {
              "internalType": "uint128",
              "name": "slicerId",
              "type": "uint128"
            },
            {
              "internalType": "uint32",
              "name": "quantity",
              "type": "uint32"
            },
            {
              "internalType": "address",
              "name": "currency",
              "type": "address"
            },
            {
              "internalType": "uint32",
              "name": "productId",
              "type": "uint32"
            }
          ],
          "internalType": "struct PurchaseParams[]",
          "name": "purchases",
          "type": "tuple[]"
        }
      ],
      "name": "payProducts",
      "outputs": [],
      "stateMutability": "payable",
      "type": "function"
    },
    {
      "inputs": [
        {
          "internalType": "uint256",
          "name": "slicerId",
          "type": "uint256"
        },
        {
          "internalType": "uint32",
          "name": "productId",
          "type": "uint32"
        },
        {
          "internalType": "address",
          "name": "currency",
          "type": "address"
        }
      ],
      "name": "productPrice",
      "outputs": [
        {
          "internalType": "uint256",
          "name": "ethPayment",
          "type": "uint256"
        },
        {
          "internalType": "uint256",
          "name": "currencyPayment",
          "type": "uint256"
        }
      ],
      "stateMutability": "view",
      "type": "function"
    },
    {
      "inputs": [],
      "name": "proxiableUUID",
      "outputs": [
        {
          "internalType": "bytes32",
          "name": "",
          "type": "bytes32"
        }
      ],
      "stateMutability": "view",
      "type": "function"
    },
    {
      "inputs": [
        {
          "internalType": "uint256",
          "name": "slicerId",
          "type": "uint256"
        }
      ],
      "name": "releaseEthToSlicer",
      "outputs": [],
      "stateMutability": "nonpayable",
      "type": "function"
    },
    {
      "inputs": [
        {
          "internalType": "uint256",
          "name": "slicerId",
          "type": "uint256"
        },
        {
          "internalType": "uint32",
          "name": "productId",
          "type": "uint32"
        }
      ],
      "name": "removeProduct",
      "outputs": [],
      "stateMutability": "nonpayable",
      "type": "function"
    },
    {
      "inputs": [],
      "name": "renounceOwnership",
      "outputs": [],
      "stateMutability": "nonpayable",
      "type": "function"
    },
    {
      "inputs": [
        {
          "internalType": "uint256",
          "name": "slicerId",
          "type": "uint256"
        },
        {
          "internalType": "uint32",
          "name": "productId",
          "type": "uint32"
        },
        {
          "internalType": "bool",
          "name": "isFree",
          "type": "bool"
        },
        {
          "internalType": "bool",
          "name": "isInfinite",
          "type": "bool"
        },
        {
          "internalType": "uint32",
          "name": "newUnits",
          "type": "uint32"
        },
        {
          "components": [
            {
              "internalType": "uint248",
              "name": "value",
              "type": "uint248"
            },
            {
              "internalType": "bool",
              "name": "dynamicPricing",
              "type": "bool"
            },
            {
              "internalType": "address",
              "name": "currency",
              "type": "address"
            }
          ],
          "internalType": "struct CurrencyPrice[]",
          "name": "currencyPrices",
          "type": "tuple[]"
        }
      ],
      "name": "setProductInfo",
      "outputs": [],
      "stateMutability": "nonpayable",
      "type": "function"
    },
    {
      "inputs": [
        {
          "internalType": "address",
          "name": "newOwner",
          "type": "address"
        }
      ],
      "name": "transferOwnership",
      "outputs": [],
      "stateMutability": "nonpayable",
      "type": "function"
    },
    {
      "inputs": [
        {
          "internalType": "address",
          "name": "newImplementation",
          "type": "address"
        }
      ],
      "name": "upgradeTo",
      "outputs": [],
      "stateMutability": "nonpayable",
      "type": "function"
    },
    {
      "inputs": [
        {
          "internalType": "address",
          "name": "newImplementation",
          "type": "address"
        },
        {
          "internalType": "bytes",
          "name": "data",
          "type": "bytes"
        }
      ],
      "name": "upgradeToAndCall",
      "outputs": [],
      "stateMutability": "payable",
      "type": "function"
    },
    {
      "inputs": [
        {
          "internalType": "uint256",
          "name": "slicerId",
          "type": "uint256"
        },
        {
          "internalType": "uint32",
          "name": "productId",
          "type": "uint32"
        }
      ],
      "name": "validatePurchase",
      "outputs": [
        {
          "internalType": "uint256",
          "name": "purchases",
          "type": "uint256"
        },
        {
          "internalType": "bytes",
          "name": "purchaseData",
          "type": "bytes"
        }
      ],
      "stateMutability": "view",
      "type": "function"
    },
    {
      "inputs": [
        {
          "internalType": "address",
          "name": "account",
          "type": "address"
        },
        {
          "internalType": "uint256",
          "name": "slicerId",
          "type": "uint256"
        },
        {
          "internalType": "uint32",
          "name": "productId",
          "type": "uint32"
        }
      ],
      "name": "validatePurchaseUnits",
      "outputs": [
        {
          "internalType": "uint256",
          "name": "purchases",
          "type": "uint256"
        }
      ],
      "stateMutability": "view",
      "type": "function"
    }
  ],
  "bytecode": "0x60a06040523060805234801561001457600080fd5b506080516156216200004d600039600081816103ec01528181610435015281816107e50152818161082501526108b801526156216000f3fe60806040526004361061011f5760003560e01c80638da5cb5b116100a0578063c7a5965711610064578063c7a596571461031f578063c993a08d14610354578063f2fde38b14610374578063f9820ba414610394578063f9df251b146103c257600080fd5b80638da5cb5b146102365780638f0bde4014610268578063af1c417814610288578063bf17f2f2146102a8578063c5772332146102c857600080fd5b806353781bf5116100e757806353781bf5146101b65780635c975abb146101d657806364059f4a146101f9578063715018a61461020c5780638129fc1c1461022157600080fd5b80633659cfe61461012457806337fcbc3314610146578063405b4c36146101665780634f1ef2861461017b57806352d1902d1461018e575b600080fd5b34801561013057600080fd5b5061014461013f366004614074565b6103e2565b005b34801561015257600080fd5b506101446101613660046140aa565b6104ca565b34801561017257600080fd5b50610144610794565b61014461018936600461421a565b6107db565b34801561019a57600080fd5b506101a36108ab565b6040519081526020015b60405180910390f35b3480156101c257600080fd5b506101a36101d1366004614269565b61095e565b3480156101e257600080fd5b5060c95460ff1660405190151581526020016101ad565b6101446102073660046142ec565b610cbe565b34801561021857600080fd5b50610144610d6f565b34801561022d57600080fd5b50610144610da3565b34801561024257600080fd5b506097546001600160a01b03165b6040516001600160a01b0390911681526020016101ad565b34801561027457600080fd5b50610250610283366004614074565b610e63565b34801561029457600080fd5b506101446102a336600461461e565b610fbd565b3480156102b457600080fd5b506101a36102c3366004614769565b611bf8565b3480156102d457600080fd5b506101a36102e3366004614782565b600091825260fb6020908152604080842063ffffffff938416855260010182528084206001600160a01b03959095168452939052919020541690565b34801561032b57600080fd5b5061033f61033a3660046147c0565b611c32565b604080519283526020830191909152016101ad565b34801561036057600080fd5b5061014461036f366004614769565b611e16565b34801561038057600080fd5b5061014461038f366004614074565b611efa565b3480156103a057600080fd5b506103b46103af3660046140aa565b611f92565b6040516101ad92919061484d565b3480156103ce57600080fd5b506101446103dd366004614866565b6120f2565b6001600160a01b037f00000000000000000000000000000000000000000000000000000000000000001630036104335760405162461bcd60e51b815260040161042a9061492b565b60405180910390fd5b7f00000000000000000000000000000000000000000000000000000000000000006001600160a01b031661047c600080516020615585833981519152546001600160a01b031690565b6001600160a01b0316146104a25760405162461bcd60e51b815260040161042a90614977565b6104ab816126f5565b604080516000808252602082019092526104c79183919061271f565b50565b600082815260fb60209081526040808320600381015463ffffffff8616855260019091019092529091206001600160a01b0390911690819061050c818361288a565b60058101546001600160a01b0380851691160361073257600080826003016000018054610538906149c3565b80601f0160208091040260200160405190810160405280929190818152602001828054610564906149c3565b80156105b15780601f10610586576101008083540402835291602001916105b1565b820191906000526020600020905b81548152906001019060200180831161059457829003601f168201915b50505050508060200190518101906105c991906149fd565b600585015491935091506302868bf960e11b600160c01b90910460e01b6001600160e01b0319160161066457600087815260fc602090815260408083206001600160a01b0386168085529083528184208585528352818420805460ff191690559051928352839290918a917f76529e1c5add2962fbfae2a36bbcf688a5c01516b043ad429f1d81830687a2db910160405180910390a461072f565b600583015462fc808960e71b600160c01b90910460e01b6001600160e01b0319160161072f576008830154600088815260fd602090815260408083206001600160a01b0387168452825280832085845290915281208054600160c81b90930463ffffffff16929091906106d8908490614a41565b9091555050600087815260fd602090815260408083206001600160a01b0386168085529083528184208585528352928190205490519081528392918a916000805160206155cc833981519152910160405180910390a45b50505b600881018054600168ffffffff000000000160a01b031916905561075a600682016000613f8c565b60405163ffffffff85169086907fd647384cccbd8b477a7b02b9e866072937e9a23b473b9de13fc0c6cb1d392a0a90600090a35050505050565b6097546001600160a01b031633146107be5760405162461bcd60e51b815260040161042a90614a58565b60c95460ff16156107d3576107d16129ba565b565b6107d1612a4d565b6001600160a01b037f00000000000000000000000000000000000000000000000000000000000000001630036108235760405162461bcd60e51b815260040161042a9061492b565b7f00000000000000000000000000000000000000000000000000000000000000006001600160a01b031661086c600080516020615585833981519152546001600160a01b031690565b6001600160a01b0316146108925760405162461bcd60e51b815260040161042a90614977565b61089b826126f5565b6108a78282600161271f565b5050565b6000306001600160a01b037f0000000000000000000000000000000000000000000000000000000000000000161461094b5760405162461bcd60e51b815260206004820152603860248201527f555550535570677261646561626c653a206d757374206e6f742062652063616c60448201527f6c6564207468726f7567682064656c656761746563616c6c0000000000000000606482015260840161042a565b5060008051602061558583398151915290565b60008061096a85610e63565b90506001600160a01b03811615610cb1576000856001600160a01b031663313ce5676040518163ffffffff1660e01b8152600401602060405180830381865afa1580156109bb573d6000803e3d6000fd5b505050506040513d601f19601f820116820180604052508101906109df9190614a9e565b905060008460010b600003610a5f57826001600160a01b0316633850c7bd6040518163ffffffff1660e01b815260040160e060405180830381865afa158015610a2c573d6000803e3d6000fd5b505050506040513d601f19601f82011682018060405250810190610a509190614acb565b50949550610b7f945050505050565b6040805160028082526060820183526000926020830190803683370190505090508561ffff1681600081518110610a9857610a98614b61565b63ffffffff9092166020928302919091019091015260405163883bdbfd60e01b81526000906001600160a01b0386169063883bdbfd90610adc908590600401614b77565b600060405180830381865afa158015610af9573d6000803e3d6000fd5b505050506040513d6000823e601f3d908101601f19168201604052610b219190810190614c25565b509050610b7a8760010b82600081518110610b3e57610b3e614b61565b602002602001015183600181518110610b5957610b59614b61565b6020026020010151610b6b9190614ce6565b610b759190614d4c565b612ac8565b925050505b60006002600160601b610b9684633b9aca00614d8a565b610ba09190614db9565b610baa9190614fc3565b6001600160a01b03169050876001600160a01b0316846001600160a01b0316630dfe16816040518163ffffffff1660e01b8152600401602060405180830381865afa158015610bfd573d6000803e3d6000fd5b505050506040513d601f19601f82011682018060405250810190610c219190614fdb565b6001600160a01b031614610c6d57610c3a836018614ff8565b610c4590600a61501b565b610c5464e8d4a510008961502a565b610c5e908361503e565b610c68919061502a565b610ca6565b610c7c64e8d4a510008861502a565b610c86908261503e565b610c9184601861505d565b610c9c90600a61501b565b610ca6919061502a565b945050505050610cb7565b60009150505b9392505050565b60c95460ff1615610d045760405162461bcd60e51b815260206004820152601060248201526f14185d5cd8589b194e881c185d5cd95960821b604482015260640161042a565b6000805b8251811015610d4857610d3484848381518110610d2757610d27614b61565b6020026020010151612edc565b610d3e9083615082565b9150600101610d08565b5080341015610d6a5760405163cd1c886760e01b815260040160405180910390fd5b505050565b6097546001600160a01b03163314610d995760405162461bcd60e51b815260040161042a90614a58565b6107d1600061384d565b600054610100900460ff16610dbe5760005460ff1615610dc2565b303b155b610e255760405162461bcd60e51b815260206004820152602e60248201527f496e697469616c697a61626c653a20636f6e747261637420697320616c72656160448201526d191e481a5b9a5d1a585b1a5e995960921b606482015260840161042a565b600054610100900460ff16158015610e47576000805461ffff19166101011790555b610e4f61389f565b80156104c7576000805461ff001916905550565b604051630b4c774160e11b81526001600160a01b038216600482015273c778417e063141139fce010982780140aa0cd5ab6024820152610bb860448201526000908190731f98431c8ad98523631ae4a59f267346ea31f98490631698ee8290606401602060405180830381865afa158015610ee2573d6000803e3d6000fd5b505050506040513d601f19601f82011682018060405250810190610f069190614fdb565b90506001600160a01b038116610fb757604051630b4c774160e11b81526001600160a01b038416600482015273c778417e063141139fce010982780140aa0cd5ab60248201526127106044820152731f98431c8ad98523631ae4a59f267346ea31f98490631698ee8290606401602060405180830381865afa158015610f90573d6000803e3d6000fd5b505050506040513d601f19601f82011682018060405250810190610fb49190614fdb565b90505b92915050565b600083815260fb6020526040902080546001019081905563ffffffff811115610ff957604051636dac6a0960e01b815260040160405180910390fd5b8060010361114357604051630bafd3f560e11b81526004810185905260009073e7f1725e7734ce288f8367e1bb143e90bb3f05129063175fa7ea90602401602060405180830381865afa158015611054573d6000803e3d6000fd5b505050506040513d601f19601f820116820180604052508101906110789190614fdb565b6001600160a01b03160361109f57604051636dac6a0960e01b815260040160405180910390fd5b604051630bafd3f560e11b81526004810185905273e7f1725e7734ce288f8367e1bb143e90bb3f05129063175fa7ea90602401602060405180830381865afa1580156110ef573d6000803e3d6000fd5b505050506040513d601f19601f820116820180604052508101906111139190614fdb565b600085815260fb6020526040902060030180546001600160a01b0319166001600160a01b03929092169190911790555b600084815260fb60205260409081902060030154905163166eb15b60e21b81523360048201526001600160a01b039091169081906359bac56c90602401602060405180830381865afa15801561119d573d6000803e3d6000fd5b505050506040513d601f19601f820116820180604052508101906111c1919061509a565b6111de5760405163ea8e4eb560e01b815260040160405180910390fd5b600085815260fb6020908152604080832063ffffffff861684526001019091529020845151156113075760005b8551518110156113055761129560fb60008860000151848151811061123257611232614b61565b6020026020010151600001516001600160801b0316815260200190815260200160002060010160008860000151848151811061127057611270614b61565b60200260200101516020015163ffffffff1681526020019081526020016000206138ce565b81600201866000015182815181106112af576112af614b61565b602090810291909101810151825460018181018555600094855293839020825191018054929093015163ffffffff16600160801b026001600160a01b03199092166001600160801b03909116171790550161120b565b505b602085015151156115eb5760005b8560200151518110156115e95760006001600160a01b03168660200151828151811061134357611343614b61565b6020026020010151604001516001600160a01b0316141580156113ad57507356639db16ac50a89228026e42a316b30179a53766001600160a01b03168660200151828151811061139557611395614b61565b6020026020010151604001516001600160a01b031614155b80156114535750826001600160a01b031663b25e9c39876020015183815181106113d9576113d9614b61565b6020026020010151604001516040518263ffffffff1660e01b815260040161141091906001600160a01b0391909116815260200190565b602060405180830381865afa15801561142d573d6000803e3d6000fd5b505050506040513d601f19601f82011682018060405250810190611451919061509a565b155b1561147157604051630b27db6160e11b815260040160405180910390fd5b8560200151818151811061148757611487614b61565b6020026020010151600001516001600160f81b031660001461153557856020015181815181106114b9576114b9614b61565b602002602001015160000151826001016000886020015184815181106114e1576114e1614b61565b6020026020010151604001516001600160a01b03166001600160a01b0316815260200190815260200160002060000160006101000a8154816001600160f81b0302191690836001600160f81b031602179055505b8560200151818151811061154b5761154b614b61565b602002602001015160200151156115e1578560200151818151811061157257611572614b61565b6020026020010151602001518260010160008860200151848151811061159a5761159a614b61565b6020026020010151604001516001600160a01b03166001600160a01b03168152602001908152602001600020600001601f6101000a81548160ff0219169083151502179055505b600101611315565b505b60408401516001600160a01b031615611a5957816001600160a01b031684604001516001600160a01b03160361198157600080856000015180602001905181019061163691906149fd565b608088015191935091506001600160e01b0319166302868bf960e11b016117dd57866080015163ffffffff16600114158061167257508660c001515b8061167e57508660e001515b806116fe57506040516331a9108f60e11b8152600481018290526001600160a01b038086169190841690636352211e90602401602060405180830381865afa1580156116ce573d6000803e3d6000fd5b505050506040513d601f19601f820116820180604052508101906116f29190614fdb565b6001600160a01b031614155b1561171c5760405163ea8e4eb560e01b815260040160405180910390fd5b600088815260fc602090815260408083206001600160a01b0386168452825280832084845290915290205460ff1615611768576040516319e7a92b60e31b815260040160405180910390fd5b600088815260fc602090815260408083206001600160a01b038616808552908352818420858552835292819020805460ff1916600190811790915590519081528392918b917f76529e1c5add2962fbfae2a36bbcf688a5c01516b043ad429f1d81830687a2db910160405180910390a461197e565b60808601516001600160e01b03191662fc808960e71b0161197e578660c00151158061180a57508660e001515b806118c15750604051627eeac760e11b81526001600160a01b0385811660048301526024820183905283169062fdd58e90604401602060405180830381865afa15801561185b573d6000803e3d6000fd5b505050506040513d601f19601f8201168201806040525081019061187f91906150b7565b600089815260fd602090815260408083206001600160a01b0387168452825280832085845290915290205460808901516118bf919063ffffffff16615082565b115b156118df57604051636dac6a0960e01b815260040160405180910390fd5b6080870151600089815260fd602090815260408083206001600160a01b038716845282528083208584529091528120805463ffffffff90931692909190611927908490615082565b9091555050600088815260fd602090815260408083206001600160a01b0386168085529083528184208585528352928190205490519081528392918b916000805160206155cc833981519152910160405180910390a45b50505b60408401516005820180546001600160a01b0319166001600160a01b0390921691909117905560808401516001600160e01b03191615611a2257608084015160058201805460e09290921c600160c01b0263ffffffff60c01b1990921691909117905560608401516001600160e01b03191615611a2257606084015160058201805460e09290921c600160a01b0263ffffffff60a01b199092169190911790555b83515115611a445783518051611a42916003840191602090910190613fc6565b505b602084015115611a5957602084015160048201555b6008810180546001600160a01b0319163317905560a085015115611a9b5760a0850151600882018054911515600160e81b0260ff60e81b199092169190911790555b8460c0015115611ac95760c0850151600882018054911515600160f01b0260ff60f01b199092169190911790555b8460e0015115611afd5760e0850151600882018054911515600160f81b026001600160f81b03909216919091179055611b29565b608085015160088201805463ffffffff909216600160c81b0263ffffffff60c81b199092169190911790555b60408501515115611b515760408501518051611b4f916006840191602090910190613fc6565b505b60608501515115611b795760608501518051611b77916007840191602090910190613fc6565b505b600083877f2522120476bb55f7f4d4c9ec5daac890ad59b7b536200a98b9b5afd10702e4378860a001518960c001518a60e001518760080160199054906101000a900463ffffffff16338d604001518e600001518f602001518f604051611be899989796959493929190615196565b60405180910390a4505050505050565b600081815260fb6020526040812060020154600110611c18576000610fb7565b50600090815260fb60205260409020600201546000190190565b600083815260fb6020908152604080832063ffffffff8616845260010190915281208190611c5f816138ce565b6001600160a01b038416611c7d57611c76816138f9565b9250611e0d565b6001600160a01b0384166000908152600182016020526040902054600160f81b900460ff1615611dad5760008080526001820160205260409020546001600160f81b0316151580611cf057506001600160a01b03841660009081526001820160205260409020546001600160f81b031615155b15611d7c576001600160a01b03841660009081526001820160205260408120546001600160f81b03168103611d2d57611d28826138f9565b611d52565b6001600160a01b03851660009081526001830160205260409020546001600160f81b03165b9050611d608582606461095e565b925082600003611d7657611d73826138f9565b93505b50611e0d565b6008810154600160e81b900460ff16611da857604051630b27db6160e11b815260040160405180910390fd5b611e0d565b6001600160a01b03841660009081526001820160205260409020546001600160f81b031615611e01576001600160a01b03841660009081526001820160205260409020546001600160f81b03169150611e0d565b611e0a816138f9565b92505b50935093915050565b6000611e2182611bf8565b905080156108a757600082815260fb60205260408082206003810154600160029092019190915590516001600160a01b039091169190829084908381818185875af1925050503d8060008114611e93576040519150601f19603f3d011682016040523d82523d6000602084013e611e98565b606091505b5050905080611eba5760405163af6eefa360e01b815260040160405180910390fd5b837f04cc711f7db61e897a32f3fe3e3faa9861b68d7d19fd9a669348213087b2272684604051611eec91815260200190565b60405180910390a250505050565b6097546001600160a01b03163314611f245760405162461bcd60e51b815260040161042a90614a58565b6001600160a01b038116611f895760405162461bcd60e51b815260206004820152602660248201527f4f776e61626c653a206e6577206f776e657220697320746865207a65726f206160448201526564647265737360d01b606482015260840161042a565b6104c78161384d565b6000606030739fe46736679d2d9a65f0992f2272de9f3c7fa6e014611fca5760405163acbcffa760e01b815260040160405180910390fd5b600084815260fb6020908152604080832063ffffffff808816855260019091018352818420338552909252822054169003612018576040516363aae7a360e01b815260040160405180910390fd5b600084815260fb6020908152604080832063ffffffff808816808652600190920180855283862033875280865293862054929095529390925260070180549190921691908190612067906149c3565b80601f0160208091040260200160405190810160405280929190818152602001828054612093906149c3565b80156120e05780601f106120b5576101008083540402835291602001916120e0565b820191906000526020600020905b8154815290600101906020018083116120c357829003601f168201915b50505050509050915091509250929050565b600087815260fb60209081526040808320600381015463ffffffff8b16855260019091019092529091206001600160a01b03909116908190612134818361288a565b83156125b85760088101546201518064ffffffffff600160a01b9092048216011642101561217557604051636fed7d8560e01b815260040160405180910390fd5b60088101805464ffffffffff60a01b1916600160a01b4264ffffffffff160217905560005b848110156125b65760008686838181106121b6576121b6614b61565b90506060020160400160208101906121ce9190614074565b6001600160a01b03161415801561222b57507356639db16ac50a89228026e42a316b30179a537686868381811061220757612207614b61565b905060600201604001602081019061221f9190614074565b6001600160a01b031614155b156122ee57826001600160a01b031663b25e9c3987878481811061225157612251614b61565b90506060020160400160208101906122699190614074565b6040516001600160e01b031960e084901b1681526001600160a01b039091166004820152602401602060405180830381865afa1580156122ad573d6000803e3d6000fd5b505050506040513d601f19601f820116820180604052508101906122d1919061509a565b6122ee57604051630b27db6160e11b815260040160405180910390fd5b81600101600087878481811061230657612306614b61565b905060600201604001602081019061231e9190614074565b6001600160a01b031681526020810191909152604001600020546001600160f81b031686868381811061235357612353614b61565b6123699260206060909202019081019150615265565b6001600160f81b0316146124075785858281811061238957612389614b61565b61239f9260206060909202019081019150615265565b8260010160008888858181106123b7576123b7614b61565b90506060020160400160208101906123cf9190614074565b6001600160a01b03168152602081019190915260400160002080546001600160f81b0319166001600160f81b03929092169190911790555b81600101600087878481811061241f5761241f614b61565b90506060020160400160208101906124379190614074565b6001600160a01b03168152602081019190915260400160002054600160f81b900460ff16151586868381811061246f5761246f614b61565b90506060020160200160208101906124879190615280565b1515146125ae5760008686838181106124a2576124a2614b61565b90506060020160400160208101906124ba9190614074565b6001600160a01b03161461251e5760006124f78787848181106124df576124df614b61565b90506060020160400160208101906102839190614074565b6001600160a01b03160361251e57604051632b9bb16560e11b815260040160405180910390fd5b85858281811061253057612530614b61565b90506060020160200160208101906125489190615280565b82600101600088888581811061256057612560614b61565b90506060020160400160208101906125789190614074565b6001600160a01b0316815260208101919091526040016000208054911515600160f81b026001600160f81b039092169190911790555b60010161219a565b505b6125cb8a84898963ffffffff16856139d1565b600881015460ff600160e81b909104161515881515146125ff5760088101805460ff60e81b1916600160e81b8a1515021790555b600881015460ff600160f81b90910416151587151514612635576008810180546001600160f81b0316600160f81b891515021790555b86156126525760088101805463ffffffff60c81b1916905561268e565b600881015463ffffffff878116600160c81b909204161461268e5760088101805463ffffffff60c81b1916600160c81b63ffffffff8916021790555b8863ffffffff168a7f1ccafddd5075b60964907100648f0ce35f8f14992b43ef0c261c8401dc9c256f8a8a8560080160199054906101000a900463ffffffff168a8a6040516126e195949392919061529d565b60405180910390a350505050505050505050565b6097546001600160a01b031633146104c75760405162461bcd60e51b815260040161042a90614a58565b7f4910fdfa16fed3260ed0e7147f7cc6da11a60208b5b9406d12a635614ffd91435460ff161561275257610d6a83613ca4565b826001600160a01b03166352d1902d6040518163ffffffff1660e01b8152600401602060405180830381865afa9250505080156127ac575060408051601f3d908101601f191682019092526127a9918101906150b7565b60015b61280f5760405162461bcd60e51b815260206004820152602e60248201527f45524331393637557067726164653a206e657720696d706c656d656e7461746960448201526d6f6e206973206e6f74205555505360901b606482015260840161042a565b600080516020615585833981519152811461287e5760405162461bcd60e51b815260206004820152602960248201527f45524331393637557067726164653a20756e737570706f727465642070726f786044820152681a58589b195555525160ba1b606482015260840161042a565b50610d6a838383613d40565b612893826138ce565b600882015460405163166eb15b60e21b81526001600160a01b039182166004820152908216906359bac56c90602401602060405180830381865afa1580156128df573d6000803e3d6000fd5b505050506040513d601f19601f82011682018060405250810190612903919061509a565b156129355760088201546001600160a01b031633146108a75760405163ea8e4eb560e01b815260040160405180910390fd5b60405163166eb15b60e21b81523360048201526001600160a01b038216906359bac56c90602401602060405180830381865afa158015612979573d6000803e3d6000fd5b505050506040513d601f19601f8201168201806040525081019061299d919061509a565b6108a75760405163ea8e4eb560e01b815260040160405180910390fd5b60c95460ff16612a035760405162461bcd60e51b815260206004820152601460248201527314185d5cd8589b194e881b9bdd081c185d5cd95960621b604482015260640161042a565b60c9805460ff191690557f5db9ee0a495bf2e6ff9c91a7834c1ba4fdd244a5e8aa4e537bd38aeae4b073aa335b6040516001600160a01b03909116815260200160405180910390a1565b60c95460ff1615612a935760405162461bcd60e51b815260206004820152601060248201526f14185d5cd8589b194e881c185d5cd95960821b604482015260640161042a565b60c9805460ff191660011790557f62e78cea01bee320cd4e420270b5ea74000d11b0c9f74754ebdbfc544b05a258612a303390565b60008060008360020b12612adf578260020b612aec565b8260020b612aec9061533f565b9050620d89e8811115612b255760405162461bcd60e51b81526020600482015260016024820152601560fa1b604482015260640161042a565b600081600116600003612b3c57600160801b612b4e565b6ffffcb933bd6fad37aa2d162d1a5940015b70ffffffffffffffffffffffffffffffffff1690506002821615612b8d576080612b88826ffff97272373d413259a46990580e213a61503e565b901c90505b6004821615612bb7576080612bb2826ffff2e50f5f656932ef12357cf3c7fdcc61503e565b901c90505b6008821615612be1576080612bdc826fffe5caca7e10e4e61c3624eaa0941cd061503e565b901c90505b6010821615612c0b576080612c06826fffcb9843d60f6159c9db58835c92664461503e565b901c90505b6020821615612c35576080612c30826fff973b41fa98c081472e6896dfb254c061503e565b901c90505b6040821615612c5f576080612c5a826fff2ea16466c96a3843ec78b326b5286161503e565b901c90505b6080821615612c89576080612c84826ffe5dee046a99a2a811c461f1969c305361503e565b901c90505b610100821615612cb4576080612caf826ffcbe86c7900a88aedcffc83b479aa3a461503e565b901c90505b610200821615612cdf576080612cda826ff987a7253ac413176f2b074cf7815e5461503e565b901c90505b610400821615612d0a576080612d05826ff3392b0822b70005940c7a398e4b70f361503e565b901c90505b610800821615612d35576080612d30826fe7159475a2c29b7443b29c7fa6e889d961503e565b901c90505b611000821615612d60576080612d5b826fd097f3bdfd2022b8845ad8f792aa582561503e565b901c90505b612000821615612d8b576080612d86826fa9f746462d870fdf8a65dc1f90e061e561503e565b901c90505b614000821615612db6576080612db1826f70d869a156d2a1b890bb3df62baf32f761503e565b901c90505b618000821615612de1576080612ddc826f31be135f97d08fd981231505542fcfa661503e565b901c90505b62010000821615612e0d576080612e08826f09aa508b5b7a84e1c677de54f3e99bc961503e565b901c90505b62020000821615612e38576080612e33826e5d6af8dedb81196699c329225ee60461503e565b901c90505b62040000821615612e62576080612e5d826d2216e584f5fa1ea926041bedfe9861503e565b901c90505b62080000821615612e8a576080612e85826b048a170391f7dc42444e8fa261503e565b901c90505b60008460020b1315612ea557612ea28160001961502a565b90505b612eb46401000000008261535b565b15612ec0576001612ec3565b60005b612ed49060ff16602083901c615082565b949350505050565b6000816020015163ffffffff16600014610fb757600080612f1384600001516001600160801b031685606001518660400151611c32565b915091506000846020015163ffffffff1683612f2f919061503e565b85516001600160801b03908116600090815260fb60209081526040808320600301548a51909416835280832060608b015163ffffffff168452600101909152902060088101549293506001600160a01b0390911691600160f01b900460ff16612fe7576020808801516001600160a01b038a16600090815291839052604090912054612fc1919063ffffffff1661536f565b63ffffffff16600114612fe757604051636dac6a0960e01b815260040160405180910390fd5b6008810154600160f81b900460ff16613069576008810154602088015163ffffffff600160c81b90920482169116111561303457604051636dac6a0960e01b815260040160405180910390fd5b602087015160088201805463ffffffff600160c81b8083048216949094031690920263ffffffff60c81b199092169190911790555b86516001600160801b0316600090815260fb602052604081206002018054859290613095908490615082565b90915550506020808801516001600160a01b038a16600090815291839052604082208054919290916130ce90849063ffffffff1661536f565b92506101000a81548163ffffffff021916908363ffffffff16021790555080600301600101546000036131015782613125565b6020870151600482015461311b9163ffffffff169061503e565b6131259084615082565b955083156131d25786604001516001600160a01b03166323b872dd89848a6020015163ffffffff1688613158919061503e565b6040516001600160e01b031960e086901b1681526001600160a01b03938416600482015292909116602483015260448201526064016020604051808303816000875af11580156131ac573d6000803e3d6000fd5b505050506040513d601f19601f820116820180604052508101906131d0919061509a565b505b6002810154156132a05760005b600282015481101561329e576000604051806080016040528084600201848154811061320d5761320d614b61565b600091825260209182902001546001600160801b031682528b81015163ffffffff16908201526040808c01516001600160a01b0316908201526002850180546060909201918590811061326257613262614b61565b600091825260209091200154600160801b900463ffffffff16905290506132898a82612edc565b6132939089615082565b9750506001016131df565b505b60058101546001600160a01b0316156137b3576005810154600090600160c01b900460e01b6001600160e01b031916156137215760058201546001600160a01b0380851691160361360e57600080836003016000018054613300906149c3565b80601f016020809104026020016040519081016040528092919081815260200182805461332c906149c3565b80156133795780601f1061334e57610100808354040283529160200191613379565b820191906000526020600020905b81548152906001019060200180831161335c57829003601f168201915b505050505080602001905181019061339191906149fd565b600586015491935091506302868bf960e11b600160c01b90910460e01b6001600160e01b031916016134b35760405163ce55982b60e01b81526001600160a01b038c8116600483015283811660248301526044820183905286169063ce55982b90606401600060405180830381600087803b15801561340f57600080fd5b505af1158015613423573d6000803e3d6000fd5b50508b516001600160801b03908116600090815260fc602090815260408083206001600160a01b038916808552908352818420888552909252808320805460ff191690558f519051879650919450909216917f76529e1c5add2962fbfae2a36bbcf688a5c01516b043ad429f1d81830687a2db916134a691901515815260200190565b60405180910390a4613607565b600584015462fc808960e71b600160c01b90910460e01b6001600160e01b031916016136075760208a015160405163296789eb60e11b81526001600160a01b038d81166004830152848116602483015263ffffffff909216604482015260648101839052908616906352cf13d690608401600060405180830381600087803b15801561353e57600080fd5b505af1158015613552573d6000803e3d6000fd5b5050506020808c01518c516001600160801b0316600090815260fd835260408082206001600160a01b03881683528452808220868352909352918220805463ffffffff909216935091906135a7908490614a41565b909155505089516001600160801b0316600081815260fd602090815260408083206001600160a01b0387168085529083528184208685528352928190205490519081528493916000805160206155cc833981519152910160405180910390a45b5050613793565b6005820154602089015160048401546001600160a01b03909216916136399163ffffffff169061503e565b8360030160020160189054906101000a900460e01b8a600001518b606001518d8d6020015188600301600001604051602001613679959493929190615397565b60408051601f19818403018152908290526136969160240161547a565b60408051601f198184030181529181526020820180516001600160e01b03166001600160e01b03199094169390931790925290516136d4919061548d565b60006040518083038185875af1925050503d8060008114613711576040519150601f19603f3d011682016040523d82523d6000602084013e613716565b606091505b505080915050613793565b6005820154602089015160048401546001600160a01b039092169161374c9163ffffffff169061503e565b604051600081818185875af1925050503d8060008114613788576040519150601f19603f3d011682016040523d82523d6000602084013e61378d565b606091505b50909150505b806137b15760405163af6eefa360e01b815260040160405180910390fd5b505b876001600160a01b0316876060015163ffffffff1688600001516001600160801b03167f6e49b2d469632303a1a7844a538b1ba7d7b3dc1b28d3b6da03fdb698448af5808a602001518b604001518a8a60405161383a949392919063ffffffff9490941684526001600160a01b039290921660208401526040830152606082015260800190565b60405180910390a4505050505092915050565b609780546001600160a01b038381166001600160a01b0319831681179093556040519116919082907f8be0079c531659141344cd1fd0a4f28419497f9722a3daafe3b4186f6b6457e090600090a35050565b600054610100900460ff166138c65760405162461bcd60e51b815260040161042a906154a9565b6107d1613d6b565b60088101546001600160a01b03166104c7576040516329c2f8dd60e11b815260040160405180910390fd5b60008080526001820160205260408120546001600160f81b031615801561392c57506008820154600160e81b900460ff16155b1561394a57604051630b27db6160e11b815260040160405180910390fd5b6000808052600183016020526040902054600160f81b900460ff166139885760008080526001830160205260409020546001600160f81b0316610fb7565b613990613d9b565b60008080526001840160205260409020546139be906001600160f81b031669d3c21bcecceda10000006154f4565b6001600160f81b0316610fb7919061502a565b60058101546001600160a01b03808616911603613c9d576000808260030160000180546139fd906149c3565b80601f0160208091040260200160405190810160405280929190818152602001828054613a29906149c3565b8015613a765780601f10613a4b57610100808354040283529160200191613a76565b820191906000526020600020905b815481529060010190602001808311613a5957829003601f168201915b5050505050806020019051810190613a8e91906149fd565b600585015491935091506302868bf960e11b600160c01b90910460e01b6001600160e01b03191601613afa576008830154600160c81b900463ffffffff1684141580613ad75750845b15613af557604051636dac6a0960e01b815260040160405180910390fd5b613c9a565b600583015462fc808960e71b600160c01b90910460e01b6001600160e01b03191601613c9a578415613b3f57604051636dac6a0960e01b815260040160405180910390fd5b6008830154600160c81b900463ffffffff168414613c9a57604051627eeac760e11b81526001600160a01b038781166004830152602482018390526000919084169062fdd58e90604401602060405180830381865afa158015613ba6573d6000803e3d6000fd5b505050506040513d601f19601f82011682018060405250810190613bca91906150b7565b600885015460008a815260fd602090815260408083206001600160a01b0389168452825280832087845290915281205492935091600160c81b90910463ffffffff1690613c18908890615082565b613c229190614a41565b905081811115613c4557604051636dac6a0960e01b815260040160405180910390fd5b600089815260fd602090815260408083206001600160a01b038816808552908352818420878552835292819020849055518381528592918c916000805160206155cc833981519152910160405180910390a450505b50505b5050505050565b6001600160a01b0381163b613d115760405162461bcd60e51b815260206004820152602d60248201527f455243313936373a206e657720696d706c656d656e746174696f6e206973206e60448201526c1bdd08184818dbdb9d1c9858dd609a1b606482015260840161042a565b60008051602061558583398151915280546001600160a01b0319166001600160a01b0392909216919091179055565b613d4983613e1f565b600082511180613d565750805b15610d6a57613d658383613e5f565b50505050565b600054610100900460ff16613d925760405162461bcd60e51b815260040161042a906154a9565b6107d13361384d565b600080738a753747a1fa494ec906ce90e9f37563a8af630e6001600160a01b031663feaf968c6040518163ffffffff1660e01b815260040160a060405180830381865afa158015613df0573d6000803e3d6000fd5b505050506040513d601f19601f82011682018060405250810190613e149190615534565b509195945050505050565b613e2881613ca4565b6040516001600160a01b038216907fbc7cd75a20ee27fd9adebab32041f755214dbc6bffa90cc0225b39da2e5c2d3b90600090a250565b60606001600160a01b0383163b613ec75760405162461bcd60e51b815260206004820152602660248201527f416464726573733a2064656c65676174652063616c6c20746f206e6f6e2d636f6044820152651b9d1c9858dd60d21b606482015260840161042a565b600080846001600160a01b031684604051613ee2919061548d565b600060405180830381855af49150503d8060008114613f1d576040519150601f19603f3d011682016040523d82523d6000602084013e613f22565b606091505b5091509150613f4a82826040518060600160405280602781526020016155a560279139613f53565b95945050505050565b60608315613f62575081610cb7565b825115613f725782518084602001fd5b8160405162461bcd60e51b815260040161042a919061547a565b508054613f98906149c3565b6000825580601f10613fa8575050565b601f0160209004906000526020600020908101906104c7919061404a565b828054613fd2906149c3565b90600052602060002090601f016020900481019282613ff4576000855561403a565b82601f1061400d57805160ff191683800117855561403a565b8280016001018555821561403a579182015b8281111561403a57825182559160200191906001019061401f565b5061404692915061404a565b5090565b5b80821115614046576000815560010161404b565b6001600160a01b03811681146104c757600080fd5b60006020828403121561408657600080fd5b8135610cb78161405f565b803563ffffffff811681146140a557600080fd5b919050565b600080604083850312156140bd57600080fd5b823591506140cd60208401614091565b90509250929050565b634e487b7160e01b600052604160045260246000fd5b604051608081016001600160401b038111828210171561410e5761410e6140d6565b60405290565b604080519081016001600160401b038111828210171561410e5761410e6140d6565b604051606081016001600160401b038111828210171561410e5761410e6140d6565b60405161010081016001600160401b038111828210171561410e5761410e6140d6565b604051601f8201601f191681016001600160401b03811182821017156141a3576141a36140d6565b604052919050565b600082601f8301126141bc57600080fd5b81356001600160401b038111156141d5576141d56140d6565b6141e8601f8201601f191660200161417b565b8181528460208386010111156141fd57600080fd5b816020850160208301376000918101602001919091529392505050565b6000806040838503121561422d57600080fd5b82356142388161405f565b915060208301356001600160401b0381111561425357600080fd5b61425f858286016141ab565b9150509250929050565b60008060006060848603121561427e57600080fd5b83356142898161405f565b9250602084013591506040840135600181900b81146142a757600080fd5b809150509250925092565b60006001600160401b038211156142cb576142cb6140d6565b5060051b60200190565b80356001600160801b03811681146140a557600080fd5b600080604080848603121561430057600080fd5b833561430b8161405f565b92506020848101356001600160401b0381111561432757600080fd5b8501601f8101871361433857600080fd5b803561434b614346826142b2565b61417b565b81815260079190911b8201830190838101908983111561436a57600080fd5b928401925b828410156143de576080848b0312156143885760008081fd5b6143906140ec565b614399856142d5565b81526143a6868601614091565b86820152868501356143b78161405f565b8188015260606143c8868201614091565b908201528252608093909301929084019061436f565b8096505050505050509250929050565b600082601f8301126143ff57600080fd5b8135602061440f614346836142b2565b82815260069290921b8401810191818101908684111561442e57600080fd5b8286015b8481101561447b576040818903121561444b5760008081fd5b614453614114565b61445c826142d5565b8152614469858301614091565b81860152835291830191604001614432565b509695505050505050565b80356001600160f81b03811681146140a557600080fd5b80151581146104c757600080fd5b80356140a58161449d565b600082601f8301126144c757600080fd5b813560206144d7614346836142b2565b828152606092830285018201928282019190878511156144f657600080fd5b8387015b858110156145565781818a0312156145125760008081fd5b61451a614136565b61452382614486565b8152858201356145328161449d565b818701526040828101356145458161405f565b9082015284529284019281016144fa565b5090979650505050505050565b80356001600160e01b0319811681146140a557600080fd5b600060a0828403121561458d57600080fd5b60405160a081016001600160401b0382821081831117156145b0576145b06140d6565b8160405282935084359150808211156145c857600080fd5b506145d5858286016141ab565b8252506020830135602082015260408301356145f08161405f565b604082015261460160608401614563565b606082015261461260808401614563565b60808201525092915050565b60008060006060848603121561463357600080fd5b8335925060208401356001600160401b038082111561465157600080fd5b90850190610100828803121561466657600080fd5b61466e614158565b82358281111561467d57600080fd5b614689898286016143ee565b82525060208301358281111561469e57600080fd5b6146aa898286016144b6565b6020830152506040830135828111156146c257600080fd5b6146ce898286016141ab565b6040830152506060830135828111156146e657600080fd5b6146f2898286016141ab565b60608301525061470460808401614091565b608082015261471560a084016144ab565b60a082015261472660c084016144ab565b60c082015261473760e084016144ab565b60e08201529350604086013591508082111561475257600080fd5b5061475f8682870161457b565b9150509250925092565b60006020828403121561477b57600080fd5b5035919050565b60008060006060848603121561479757600080fd5b83356147a28161405f565b9250602084013591506147b760408501614091565b90509250925092565b6000806000606084860312156147d557600080fd5b833592506147e560208501614091565b915060408401356142a78161405f565b60005b838110156148105781810151838201526020016147f8565b83811115613d655750506000910152565b600081518084526148398160208601602086016147f5565b601f01601f19169290920160200192915050565b828152604060208201526000612ed46040830184614821565b600080600080600080600060c0888a03121561488157600080fd5b8735965061489160208901614091565b955060408801356148a18161449d565b945060608801356148b18161449d565b93506148bf60808901614091565b925060a08801356001600160401b03808211156148db57600080fd5b818a0191508a601f8301126148ef57600080fd5b8135818111156148fe57600080fd5b8b602060608302850101111561491357600080fd5b60208301945080935050505092959891949750929550565b6020808252602c908201527f46756e6374696f6e206d7573742062652063616c6c6564207468726f7567682060408201526b19195b1959d85d1958d85b1b60a21b606082015260800190565b6020808252602c908201527f46756e6374696f6e206d7573742062652063616c6c6564207468726f7567682060408201526b6163746976652070726f787960a01b606082015260800190565b600181811c908216806149d757607f821691505b6020821081036149f757634e487b7160e01b600052602260045260246000fd5b50919050565b60008060408385031215614a1057600080fd5b8251614a1b8161405f565b6020939093015192949293505050565b634e487b7160e01b600052601160045260246000fd5b600082821015614a5357614a53614a2b565b500390565b6020808252818101527f4f776e61626c653a2063616c6c6572206973206e6f7420746865206f776e6572604082015260600190565b805160ff811681146140a557600080fd5b600060208284031215614ab057600080fd5b610cb782614a8d565b805161ffff811681146140a557600080fd5b600080600080600080600060e0888a031215614ae657600080fd5b8751614af18161405f565b8097505060208801518060020b8114614b0957600080fd5b9550614b1760408901614ab9565b9450614b2560608901614ab9565b9350614b3360808901614ab9565b9250614b4160a08901614a8d565b915060c0880151614b518161449d565b8091505092959891949750929550565b634e487b7160e01b600052603260045260246000fd5b6020808252825182820181905260009190848201906040850190845b81811015614bb557835163ffffffff1683529284019291840191600101614b93565b50909695505050505050565b600082601f830112614bd257600080fd5b81516020614be2614346836142b2565b82815260059290921b84018101918181019086841115614c0157600080fd5b8286015b8481101561447b578051614c188161405f565b8352918301918301614c05565b60008060408385031215614c3857600080fd5b82516001600160401b0380821115614c4f57600080fd5b818501915085601f830112614c6357600080fd5b81516020614c73614346836142b2565b82815260059290921b84018101918181019089841115614c9257600080fd5b948201945b83861015614cc05785518060060b8114614cb15760008081fd5b82529482019490820190614c97565b91880151919650909350505080821115614cd957600080fd5b5061425f85828601614bc1565b60008160060b8360060b6000811281667fffffffffffff1901831281151615614d1157614d11614a2b565b81667fffffffffffff018313811615614d2c57614d2c614a2b565b5090039392505050565b634e487b7160e01b600052601260045260246000fd5b60008160060b8360060b80614d6357614d63614d36565b667fffffffffffff19821460001982141615614d8157614d81614a2b565b90059392505050565b60006001600160a01b0382811684821681151582840482111615614db057614db0614a2b565b02949350505050565b60006001600160a01b0383811680614dd357614dd3614d36565b92169190910492915050565b600181815b80851115614e20576001600160a01b03829004821115614e0657614e06614a2b565b80851615614e1357918102915b93841c9390800290614de4565b509250929050565b600181815b80851115614e20578160001904821115614e4957614e49614a2b565b80851615614e5657918102915b93841c9390800290614e2d565b600082614e7257506001610fb7565b81614e7f57506000610fb7565b8160018114614e955760028114614e9f57614ed3565b6001915050610fb7565b60ff841115614eb057614eb0614a2b565b6001841b91506001600160a01b03821115614ecd57614ecd614a2b565b50610fb7565b5060208310610133831016604e8410600b8410161715614f0d575081810a6001600160a01b03811115614f0857614f08614a2b565b610fb7565b614f178383614ddf565b6001600160a01b03819004821115614f3157614f31614a2b565b029392505050565b600082614f4857506001610fb7565b81614f5557506000610fb7565b8160018114614e955760028103614f825760ff841115614f7757614f77614a2b565b50506001821b610fb7565b5060208310610133831016604e8410600b8410161715614fa5575081810a610fb7565b614faf8383614e28565b8060001904821115614f3157614f31614a2b565b6000610cb760ff84166001600160a01b038416614e63565b600060208284031215614fed57600080fd5b8151610cb78161405f565b600060ff821660ff84168082101561501257615012614a2b565b90039392505050565b6000610cb760ff841683614f39565b60008261503957615039614d36565b500490565b600081600019048311821515161561505857615058614a2b565b500290565b600060ff821660ff84168060ff0382111561507a5761507a614a2b565b019392505050565b6000821982111561509557615095614a2b565b500190565b6000602082840312156150ac57600080fd5b8151610cb78161449d565b6000602082840312156150c957600080fd5b5051919050565b600081518084526020808501945080840160005b8381101561512a57815180516001600160f81b03168852838101511515848901526040908101516001600160a01b031690880152606090960195908201906001016150e4565b509495945050505050565b6000815160a0845261514a60a0850182614821565b602084810151908601526040808501516001600160a01b0316908601526060808501516001600160e01b0319908116918701919091526080948501511693909401929092525090919050565b60006101208b1515835260208b15158185015260408b15158186015263ffffffff808c16606087015260018060a01b038b1660808701528360a08701526151df8487018b614821565b86810360c08801528951808252848b0195509084019060005b8181101561522857865180516001600160801b0316845286015184168684015295850195918401916001016151f8565b505086810360e088015261523c818a6150d0565b9450505050508281036101008401526152558185615135565b9c9b505050505050505050505050565b60006020828403121561527757600080fd5b610cb782614486565b60006020828403121561529257600080fd5b8135610cb78161449d565b6000608082018715158352602087151581850152604063ffffffff88168186015260606080818701528387855260a08701905088945060005b8881101561532f576001600160f81b036152ef87614486565b168252848601356152ff8161449d565b151582860152858401356153128161405f565b6001600160a01b03168285015294820194908201906001016152d6565b509b9a5050505050505050505050565b6000600160ff1b820161535457615354614a2b565b5060000390565b60008261536a5761536a614d36565b500690565b600063ffffffff80831681851680830382111561538e5761538e614a2b565b01949350505050565b6001600160801b038616815263ffffffff8581166020808401919091526001600160a01b0386166040840152908416606083015260a060808301528254600091908290600181811c90828116806153ef57607f831692505b858310810361540c57634e487b7160e01b85526022600452602485fd5b60a0880183905260c0880181801561542b576001811461543c57615467565b60ff19861682528782019650615467565b60008b81526020902060005b8681101561546157815484820152908501908901615448565b83019750505b50949d9c50505050505050505050505050565b602081526000610cb76020830184614821565b6000825161549f8184602087016147f5565b9190910192915050565b6020808252602b908201527f496e697469616c697a61626c653a20636f6e7472616374206973206e6f74206960408201526a6e697469616c697a696e6760a81b606082015260800190565b60006001600160f81b0382811684821681151582840482111615614db057614db0614a2b565b805169ffffffffffffffffffff811681146140a557600080fd5b600080600080600060a0868803121561554c57600080fd5b6155558661551a565b94506020860151935060408601519250606086015191506155786080870161551a565b9050929550929590935056fe360894a13ba1a3210667c828492db98dca3e2076cc3735a920a3ca505d382bbc416464726573733a206c6f772d6c6576656c2064656c65676174652063616c6c206661696c6564f0832fe058ed4ffda256632e9c3d7b50283fb2e36310b6beaf08f633b1407057a2646970667358221220e272b79e95594196dba94b051e75db523d09e583eed564db4fb5d54c1842fba364736f6c634300080d0033",
  "linkReferences": {},
  "deployedLinkReferences": {}
}