{
  "_format": "hh-sol-artifact-1",
  "contractName": "SLC",
  "sourceName": "contracts/slc_v0.sol",
  "abi": [
    {
      "anonymous": false,
      "inputs": [
        {
          "indexed": false,
          "internalType": "address",
          "name": "previousAdmin",
          "type": "address"
        },
        {
          "indexed": false,
          "internalType": "address",
          "name": "newAdmin",
          "type": "address"
        }
      ],
      "name": "AdminChanged",
      "type": "event"
    },
    {
      "anonymous": false,
      "inputs": [
        {
          "indexed": true,
          "internalType": "address",
          "name": "owner",
          "type": "address"
        },
        {
          "indexed": true,
          "internalType": "address",
          "name": "spender",
          "type": "address"
        },
        {
          "indexed": false,
          "internalType": "uint256",
          "name": "value",
          "type": "uint256"
        }
      ],
      "name": "Approval",
      "type": "event"
    },
    {
      "anonymous": false,
      "inputs": [
        {
          "indexed": true,
          "internalType": "address",
          "name": "beacon",
          "type": "address"
        }
      ],
      "name": "BeaconUpgraded",
      "type": "event"
    },
    {
      "anonymous": false,
      "inputs": [
        {
          "indexed": true,
          "internalType": "address",
          "name": "receiver",
          "type": "address"
        },
        {
          "indexed": false,
          "internalType": "uint256",
          "name": "amount",
          "type": "uint256"
        },
        {
          "indexed": true,
          "internalType": "address",
          "name": "slicerAddress",
          "type": "address"
        },
        {
          "indexed": false,
          "internalType": "uint8",
          "name": "slicerPercentage",
          "type": "uint8"
        }
      ],
      "name": "MintTriggered",
      "type": "event"
    },
    {
      "anonymous": false,
      "inputs": [
        {
          "indexed": true,
          "internalType": "address",
          "name": "receiver",
          "type": "address"
        },
        {
          "indexed": false,
          "internalType": "uint256",
          "name": "amount",
          "type": "uint256"
        }
      ],
      "name": "MintedSLC",
      "type": "event"
    },
    {
      "anonymous": false,
      "inputs": [
        {
          "indexed": true,
          "internalType": "address",
          "name": "previousOwner",
          "type": "address"
        },
        {
          "indexed": true,
          "internalType": "address",
          "name": "newOwner",
          "type": "address"
        }
      ],
      "name": "OwnershipTransferred",
      "type": "event"
    },
    {
      "anonymous": false,
      "inputs": [
        {
          "indexed": true,
          "internalType": "address",
          "name": "from",
          "type": "address"
        },
        {
          "indexed": true,
          "internalType": "address",
          "name": "to",
          "type": "address"
        },
        {
          "indexed": false,
          "internalType": "uint256",
          "name": "value",
          "type": "uint256"
        }
      ],
      "name": "Transfer",
      "type": "event"
    },
    {
      "anonymous": false,
      "inputs": [
        {
          "indexed": true,
          "internalType": "address",
          "name": "implementation",
          "type": "address"
        }
      ],
      "name": "Upgraded",
      "type": "event"
    },
    {
      "inputs": [
        {
          "internalType": "address",
          "name": "account",
          "type": "address"
        },
        {
          "internalType": "uint256",
          "name": "amount",
          "type": "uint256"
        },
        {
          "internalType": "uint32",
          "name": "categoryContractId",
          "type": "uint32"
        }
      ],
      "name": "_mintSLC",
      "outputs": [],
      "stateMutability": "nonpayable",
      "type": "function"
    },
    {
      "inputs": [
        {
          "internalType": "uint32",
          "name": "serviceId",
          "type": "uint32"
        },
        {
          "internalType": "uint256",
          "name": "slcPrice",
          "type": "uint256"
        }
      ],
      "name": "_setServicePrice",
      "outputs": [],
      "stateMutability": "nonpayable",
      "type": "function"
    },
    {
      "inputs": [
        {
          "internalType": "address",
          "name": "account",
          "type": "address"
        },
        {
          "internalType": "uint256",
          "name": "amount",
          "type": "uint256"
        },
        {
          "internalType": "address",
          "name": "slicerAddress",
          "type": "address"
        },
        {
          "internalType": "uint8",
          "name": "slicerPercentage",
          "type": "uint8"
        }
      ],
      "name": "_triggerMint",
      "outputs": [],
      "stateMutability": "nonpayable",
      "type": "function"
    },
    {
      "inputs": [
        {
          "internalType": "address",
          "name": "owner",
          "type": "address"
        },
        {
          "internalType": "address",
          "name": "spender",
          "type": "address"
        }
      ],
      "name": "allowance",
      "outputs": [
        {
          "internalType": "uint256",
          "name": "",
          "type": "uint256"
        }
      ],
      "stateMutability": "view",
      "type": "function"
    },
    {
      "inputs": [
        {
          "internalType": "address",
          "name": "spender",
          "type": "address"
        },
        {
          "internalType": "uint256",
          "name": "amount",
          "type": "uint256"
        }
      ],
      "name": "approve",
      "outputs": [
        {
          "internalType": "bool",
          "name": "",
          "type": "bool"
        }
      ],
      "stateMutability": "nonpayable",
      "type": "function"
    },
    {
      "inputs": [
        {
          "internalType": "address",
          "name": "account",
          "type": "address"
        }
      ],
      "name": "balanceOf",
      "outputs": [
        {
          "internalType": "uint256",
          "name": "",
          "type": "uint256"
        }
      ],
      "stateMutability": "view",
      "type": "function"
    },
    {
      "inputs": [],
      "name": "decimals",
      "outputs": [
        {
          "internalType": "uint8",
          "name": "",
          "type": "uint8"
        }
      ],
      "stateMutability": "view",
      "type": "function"
    },
    {
      "inputs": [
        {
          "internalType": "address",
          "name": "spender",
          "type": "address"
        },
        {
          "internalType": "uint256",
          "name": "subtractedValue",
          "type": "uint256"
        }
      ],
      "name": "decreaseAllowance",
      "outputs": [
        {
          "internalType": "bool",
          "name": "",
          "type": "bool"
        }
      ],
      "stateMutability": "nonpayable",
      "type": "function"
    },
    {
      "inputs": [
        {
          "internalType": "uint32",
          "name": "serviceId",
          "type": "uint32"
        }
      ],
      "name": "getServicePrice",
      "outputs": [
        {
          "internalType": "uint256",
          "name": "price",
          "type": "uint256"
        }
      ],
      "stateMutability": "view",
      "type": "function"
    },
    {
      "inputs": [
        {
          "internalType": "address",
          "name": "spender",
          "type": "address"
        },
        {
          "internalType": "uint256",
          "name": "addedValue",
          "type": "uint256"
        }
      ],
      "name": "increaseAllowance",
      "outputs": [
        {
          "internalType": "bool",
          "name": "",
          "type": "bool"
        }
      ],
      "stateMutability": "nonpayable",
      "type": "function"
    },
    {
      "inputs": [
        {
          "internalType": "address",
          "name": "sliceCoreAddress",
          "type": "address"
        }
      ],
      "name": "initialize",
      "outputs": [],
      "stateMutability": "nonpayable",
      "type": "function"
    },
    {
      "inputs": [],
      "name": "name",
      "outputs": [
        {
          "internalType": "string",
          "name": "",
          "type": "string"
        }
      ],
      "stateMutability": "view",
      "type": "function"
    },
    {
      "inputs": [],
      "name": "owner",
      "outputs": [
        {
          "internalType": "address",
          "name": "",
          "type": "address"
        }
      ],
      "stateMutability": "view",
      "type": "function"
    },
    {
      "inputs": [],
      "name": "symbol",
      "outputs": [
        {
          "internalType": "string",
          "name": "",
          "type": "string"
        }
      ],
      "stateMutability": "view",
      "type": "function"
    },
    {
      "inputs": [],
      "name": "totalSupply",
      "outputs": [
        {
          "internalType": "uint256",
          "name": "",
          "type": "uint256"
        }
      ],
      "stateMutability": "view",
      "type": "function"
    },
    {
      "inputs": [
        {
          "internalType": "address",
          "name": "recipient",
          "type": "address"
        },
        {
          "internalType": "uint256",
          "name": "amount",
          "type": "uint256"
        }
      ],
      "name": "transfer",
      "outputs": [
        {
          "internalType": "bool",
          "name": "",
          "type": "bool"
        }
      ],
      "stateMutability": "nonpayable",
      "type": "function"
    },
    {
      "inputs": [
        {
          "internalType": "address",
          "name": "sender",
          "type": "address"
        },
        {
          "internalType": "address",
          "name": "recipient",
          "type": "address"
        },
        {
          "internalType": "uint256",
          "name": "amount",
          "type": "uint256"
        }
      ],
      "name": "transferFrom",
      "outputs": [
        {
          "internalType": "bool",
          "name": "",
          "type": "bool"
        }
      ],
      "stateMutability": "nonpayable",
      "type": "function"
    },
    {
      "inputs": [
        {
          "internalType": "address",
          "name": "newOwner",
          "type": "address"
        }
      ],
      "name": "transferOwnership",
      "outputs": [],
      "stateMutability": "nonpayable",
      "type": "function"
    },
    {
      "inputs": [
        {
          "internalType": "address",
          "name": "newImplementation",
          "type": "address"
        }
      ],
      "name": "upgradeTo",
      "outputs": [],
      "stateMutability": "nonpayable",
      "type": "function"
    },
    {
      "inputs": [
        {
          "internalType": "address",
          "name": "newImplementation",
          "type": "address"
        },
        {
          "internalType": "bytes",
          "name": "data",
          "type": "bytes"
        }
      ],
      "name": "upgradeToAndCall",
      "outputs": [],
      "stateMutability": "payable",
      "type": "function"
    }
  ],
  "bytecode": "0x608060405234801561001057600080fd5b50611ac0806100206000396000f3fe60806040526004361061011f5760003560e01c806370a08231116100a0578063c4d66de811610064578063c4d66de814610335578063c50fc43714610355578063dd62ed3e14610375578063deb0e991146103bb578063f2fde38b146103db57600080fd5b806370a08231146102825780638da5cb5b146102b857806395d89b41146102e0578063a457c2d7146102f5578063a9059cbb1461031557600080fd5b80633659cfe6116100e75780633659cfe6146101da5780633941a604146101fc578063395093511461022f578063400d31fa1461024f5780634f1ef2861461026f57600080fd5b806306fdde0314610124578063095ea7b31461014f57806318160ddd1461017f57806323b872dd1461019e578063313ce567146101be575b600080fd5b34801561013057600080fd5b506101396103fb565b6040516101469190611889565b60405180910390f35b34801561015b57600080fd5b5061016f61016a366004611773565b61048d565b6040519015158152602001610146565b34801561018b57600080fd5b506035545b604051908152602001610146565b3480156101aa57600080fd5b5061016f6101b936600461166e565b6104a3565b3480156101ca57600080fd5b5060405160128152602001610146565b3480156101e657600080fd5b506101fa6101f53660046115fb565b610554565b005b34801561020857600080fd5b50610190610217366004611836565b63ffffffff16600090815260fd602052604090205490565b34801561023b57600080fd5b5061016f61024a366004611773565b61057b565b34801561025b57600080fd5b506101fa61026a3660046117f8565b6105b7565b6101fa61027d3660046116af565b6106bc565b34801561028e57600080fd5b5061019061029d3660046115fb565b6001600160a01b031660009081526033602052604090205490565b3480156102c457600080fd5b5060ca546040516001600160a01b039091168152602001610146565b3480156102ec57600080fd5b506101396106d5565b34801561030157600080fd5b5061016f610310366004611773565b6106e4565b34801561032157600080fd5b5061016f610330366004611773565b61077d565b34801561034157600080fd5b506101fa6103503660046115fb565b61078a565b34801561036157600080fd5b506101fa610370366004611851565b610873565b34801561038157600080fd5b50610190610390366004611635565b6001600160a01b03918216600090815260346020908152604080832093909416825291909152205490565b3480156103c757600080fd5b506101fa6103d636600461179f565b6108cb565b3480156103e757600080fd5b506101fa6103f63660046115fb565b610a4d565b60606036805461040a906119e7565b80601f0160208091040260200160405190810160405280929190818152602001828054610436906119e7565b80156104835780601f1061045857610100808354040283529160200191610483565b820191906000526020600020905b81548152906001019060200180831161046657829003601f168201915b5050505050905090565b600061049a338484610b3e565b50600192915050565b60006104b0848484610c62565b6001600160a01b03841660009081526034602090815260408083203384529091529020548281101561053a5760405162461bcd60e51b815260206004820152602860248201527f45524332303a207472616e7366657220616d6f756e74206578636565647320616044820152676c6c6f77616e636560c01b60648201526084015b60405180910390fd5b6105478533858403610b3e565b60019150505b9392505050565b61055d81610e32565b61057881604051806020016040528060008152506000610e5c565b50565b3360008181526034602090815260408083206001600160a01b0387168452909152812054909161049a9185906105b290869061193f565b610b3e565b60ca546001600160a01b0316331480610661575060fc5460405163588d1be760e01b815263ffffffff831660048201526001600160a01b039091169063588d1be79060240160206040518083038186803b15801561061457600080fd5b505afa158015610628573d6000803e3d6000fd5b505050506040513d601f19601f8201168201806040525081019061064c9190611618565b6001600160a01b0316336001600160a01b0316145b61066a57600080fd5b6106748383610fe4565b826001600160a01b03167f6b0f6e93733b0b0b8d5cf4087f58b25241f1a1a9a1d196004fef371df8b24824836040516106af91815260200190565b60405180910390a2505050565b6106c582610e32565b6106d182826001610e5c565b5050565b60606037805461040a906119e7565b3360009081526034602090815260408083206001600160a01b0386168452909152812054828110156107665760405162461bcd60e51b815260206004820152602560248201527f45524332303a2064656372656173656420616c6c6f77616e63652062656c6f77604482015264207a65726f60d81b6064820152608401610531565b6107733385858403610b3e565b5060019392505050565b600061049a338484610c62565b600054610100900460ff16806107a3575060005460ff16155b6107bf5760405162461bcd60e51b8152600401610531906118bc565b600054610100900460ff161580156107e1576000805461ffff19166101011790555b61082360405180604001604052806005815260200164536c69636560d81b81525060405180604001604052806003815260200162534c4360e81b8152506110c3565b61082c33611143565b60fc80546001600160a01b0319166001600160a01b03841617905561085e336c0c9f2c9cd04674edea40000000610fe4565b80156106d1576000805461ff00191690555050565b60ca546001600160a01b0316331480610896575060c9546001600160a01b031633145b6108b25760405162461bcd60e51b81526004016105319061190a565b63ffffffff909116600090815260fd6020526040902055565b60ca546001600160a01b031633146108f55760405162461bcd60e51b81526004016105319061190a565b60648160ff1611156109495760405162461bcd60e51b815260206004820152601960248201527f496e76616c696420536c696365722070657263656e74616765000000000000006044820152606401610531565b600061095460355490565b61096e6c0c9f2c9cd04674edea4000000062989680611979565b6109789190611957565b61098390606461193f565b61098d9085611979565b905060ff8216156109f1578160ff166064146109e7576109cf8560646109b38582611998565b6109c09060ff1685611979565b6109ca9190611957565b610fe4565b6109e28360646109c060ff861685611979565b6109fb565b6109e28382610fe4565b6109fb8582610fe4565b6040805182815260ff841660208201526001600160a01b0380861692908816917f370d437095ad9bf0ea811e8473ef1a6460e4e4d596a5c3c2970d1c0c6c4ed2da910160405180910390a35050505050565b60ca546001600160a01b0316331480610a70575060c9546001600160a01b031633145b610a8c5760405162461bcd60e51b81526004016105319061190a565b6001600160a01b038116610ae25760405162461bcd60e51b815260206004820152601d60248201527f4e6577206f776e657220697320746865207a65726f20616464726573730000006044820152606401610531565b60ca546040516001600160a01b038084169216907f8be0079c531659141344cd1fd0a4f28419497f9722a3daafe3b4186f6b6457e090600090a360ca80546001600160a01b0319166001600160a01b0392909216919091179055565b6001600160a01b038316610ba05760405162461bcd60e51b8152602060048201526024808201527f45524332303a20617070726f76652066726f6d20746865207a65726f206164646044820152637265737360e01b6064820152608401610531565b6001600160a01b038216610c015760405162461bcd60e51b815260206004820152602260248201527f45524332303a20617070726f766520746f20746865207a65726f206164647265604482015261737360f01b6064820152608401610531565b6001600160a01b0383811660008181526034602090815260408083209487168084529482529182902085905590518481527f8c5be1e5ebec7d5bd14f71427d1e84f3dd0314c0f7b2291e5b200ac8c7c3b925910160405180910390a3505050565b6001600160a01b038316610cc65760405162461bcd60e51b815260206004820152602560248201527f45524332303a207472616e736665722066726f6d20746865207a65726f206164604482015264647265737360d81b6064820152608401610531565b6001600160a01b038216610d285760405162461bcd60e51b815260206004820152602360248201527f45524332303a207472616e7366657220746f20746865207a65726f206164647260448201526265737360e81b6064820152608401610531565b6001600160a01b03831660009081526033602052604090205481811015610da05760405162461bcd60e51b815260206004820152602660248201527f45524332303a207472616e7366657220616d6f756e7420657863656564732062604482015265616c616e636560d01b6064820152608401610531565b6001600160a01b03808516600090815260336020526040808220858503905591851681529081208054849290610dd790849061193f565b92505081905550826001600160a01b0316846001600160a01b03167fddf252ad1be2c89b69c2b068fc378daa952ba7f163c4a11628f55a4df523b3ef84604051610e2391815260200190565b60405180910390a35b50505050565b60ca546001600160a01b031633146105785760405162461bcd60e51b81526004016105319061190a565b6000610e8f7f360894a13ba1a3210667c828492db98dca3e2076cc3735a920a3ca505d382bbc546001600160a01b031690565b9050610e9a846111ab565b600083511180610ea75750815b15610eb857610eb68484611250565b505b7f4910fdfa16fed3260ed0e7147f7cc6da11a60208b5b9406d12a635614ffd9143805460ff16610fdd57805460ff191660011781556040516001600160a01b0383166024820152610f3790869060440160408051601f198184030181529190526020810180516001600160e01b0316631b2ce7f360e11b179052611250565b50805460ff191681557f360894a13ba1a3210667c828492db98dca3e2076cc3735a920a3ca505d382bbc546001600160a01b03838116911614610fd45760405162461bcd60e51b815260206004820152602f60248201527f45524331393637557067726164653a207570677261646520627265616b73206660448201526e75727468657220757067726164657360881b6064820152608401610531565b610fdd8561133b565b5050505050565b6001600160a01b03821661103a5760405162461bcd60e51b815260206004820152601f60248201527f45524332303a206d696e7420746f20746865207a65726f2061646472657373006044820152606401610531565b806035600082825461104c919061193f565b90915550506001600160a01b0382166000908152603360205260408120805483929061107990849061193f565b90915550506040518181526001600160a01b038316906000907fddf252ad1be2c89b69c2b068fc378daa952ba7f163c4a11628f55a4df523b3ef9060200160405180910390a35050565b600054610100900460ff16806110dc575060005460ff16155b6110f85760405162461bcd60e51b8152600401610531906118bc565b600054610100900460ff1615801561111a576000805461ffff19166101011790555b61112261137b565b61112c83836113e6565b801561113e576000805461ff00191690555b505050565b600054610100900460ff168061115c575060005460ff16155b6111785760405162461bcd60e51b8152600401610531906118bc565b600054610100900460ff1615801561119a576000805461ffff19166101011790555b6111a261137b565b61085e8261147b565b803b61120f5760405162461bcd60e51b815260206004820152602d60248201527f455243313936373a206e657720696d706c656d656e746174696f6e206973206e60448201526c1bdd08184818dbdb9d1c9858dd609a1b6064820152608401610531565b7f360894a13ba1a3210667c828492db98dca3e2076cc3735a920a3ca505d382bbc80546001600160a01b0319166001600160a01b0392909216919091179055565b6060823b6112af5760405162461bcd60e51b815260206004820152602660248201527f416464726573733a2064656c65676174652063616c6c20746f206e6f6e2d636f6044820152651b9d1c9858dd60d21b6064820152608401610531565b600080846001600160a01b0316846040516112ca919061186d565b600060405180830381855af49150503d8060008114611305576040519150601f19603f3d011682016040523d82523d6000602084013e61130a565b606091505b50915091506113328282604051806060016040528060278152602001611a6460279139611510565b95945050505050565b611344816111ab565b6040516001600160a01b038216907fbc7cd75a20ee27fd9adebab32041f755214dbc6bffa90cc0225b39da2e5c2d3b90600090a250565b600054610100900460ff1680611394575060005460ff16155b6113b05760405162461bcd60e51b8152600401610531906118bc565b600054610100900460ff161580156113d2576000805461ffff19166101011790555b8015610578576000805461ff001916905550565b600054610100900460ff16806113ff575060005460ff16155b61141b5760405162461bcd60e51b8152600401610531906118bc565b600054610100900460ff1615801561143d576000805461ffff19166101011790555b8251611450906036906020860190611549565b508151611464906037906020850190611549565b50801561113e576000805461ff0019169055505050565b600054610100900460ff1680611494575060005460ff16155b6114b05760405162461bcd60e51b8152600401610531906118bc565b600054610100900460ff161580156114d2576000805461ffff19166101011790555b60c980546001600160a01b0384166001600160a01b03199182161790915560ca80549091163317905580156106d1576000805461ff00191690555050565b6060831561151f57508161054d565b82511561152f5782518084602001fd5b8160405162461bcd60e51b81526004016105319190611889565b828054611555906119e7565b90600052602060002090601f01602090048101928261157757600085556115bd565b82601f1061159057805160ff19168380011785556115bd565b828001600101855582156115bd579182015b828111156115bd5782518255916020019190600101906115a2565b506115c99291506115cd565b5090565b5b808211156115c957600081556001016115ce565b803563ffffffff811681146115f657600080fd5b919050565b60006020828403121561160d57600080fd5b813561054d81611a4e565b60006020828403121561162a57600080fd5b815161054d81611a4e565b6000806040838503121561164857600080fd5b823561165381611a4e565b9150602083013561166381611a4e565b809150509250929050565b60008060006060848603121561168357600080fd5b833561168e81611a4e565b9250602084013561169e81611a4e565b929592945050506040919091013590565b600080604083850312156116c257600080fd5b82356116cd81611a4e565b9150602083013567ffffffffffffffff808211156116ea57600080fd5b818501915085601f8301126116fe57600080fd5b81358181111561171057611710611a38565b604051601f8201601f19908116603f0116810190838211818310171561173857611738611a38565b8160405282815288602084870101111561175157600080fd5b8260208601602083013760006020848301015280955050505050509250929050565b6000806040838503121561178657600080fd5b823561179181611a4e565b946020939093013593505050565b600080600080608085870312156117b557600080fd5b84356117c081611a4e565b93506020850135925060408501356117d781611a4e565b9150606085013560ff811681146117ed57600080fd5b939692955090935050565b60008060006060848603121561180d57600080fd5b833561181881611a4e565b92506020840135915061182d604085016115e2565b90509250925092565b60006020828403121561184857600080fd5b61054d826115e2565b6000806040838503121561186457600080fd5b611791836115e2565b6000825161187f8184602087016119bb565b9190910192915050565b60208152600082518060208401526118a88160408501602087016119bb565b601f01601f19169190910160400192915050565b6020808252602e908201527f496e697469616c697a61626c653a20636f6e747261637420697320616c72656160408201526d191e481a5b9a5d1a585b1a5e995960921b606082015260800190565b6020808252818101527f4f776e61626c653a2063616c6c6572206973206e6f7420746865206f776e6572604082015260600190565b6000821982111561195257611952611a22565b500190565b60008261197457634e487b7160e01b600052601260045260246000fd5b500490565b600081600019048311821515161561199357611993611a22565b500290565b600060ff821660ff8416808210156119b2576119b2611a22565b90039392505050565b60005b838110156119d65781810151838201526020016119be565b83811115610e2c5750506000910152565b600181811c908216806119fb57607f821691505b60208210811415611a1c57634e487b7160e01b600052602260045260246000fd5b50919050565b634e487b7160e01b600052601160045260246000fd5b634e487b7160e01b600052604160045260246000fd5b6001600160a01b038116811461057857600080fdfe416464726573733a206c6f772d6c6576656c2064656c65676174652063616c6c206661696c6564a264697066735822122024cfed2bd9760bde3a1118ce22f82d55054c34a5922abe7ab6d0312dd5738a6664736f6c63430008070033",
  "linkReferences": {},
  "deployedLinkReferences": {}
}