{
  "_format": "hh-sol-artifact-1",
  "contractName": "Slice",
  "sourceName": "contracts/slice_v0.sol",
  "abi": [
    {
      "anonymous": false,
      "inputs": [
        {
          "indexed": false,
          "internalType": "address",
          "name": "previousAdmin",
          "type": "address"
        },
        {
          "indexed": false,
          "internalType": "address",
          "name": "newAdmin",
          "type": "address"
        }
      ],
      "name": "AdminChanged",
      "type": "event"
    },
    {
      "anonymous": false,
      "inputs": [
        {
          "indexed": true,
          "internalType": "address",
          "name": "beacon",
          "type": "address"
        }
      ],
      "name": "BeaconUpgraded",
      "type": "event"
    },
    {
      "anonymous": false,
      "inputs": [
        {
          "indexed": true,
          "internalType": "address",
          "name": "previousOwner",
          "type": "address"
        },
        {
          "indexed": true,
          "internalType": "address",
          "name": "newOwner",
          "type": "address"
        }
      ],
      "name": "OwnershipTransferred",
      "type": "event"
    },
    {
      "anonymous": false,
      "inputs": [
        {
          "indexed": false,
          "internalType": "address",
          "name": "account",
          "type": "address"
        }
      ],
      "name": "Paused",
      "type": "event"
    },
    {
      "anonymous": false,
      "inputs": [
        {
          "indexed": false,
          "internalType": "address payable[]",
          "name": "slicerAddresses",
          "type": "address[]"
        },
        {
          "indexed": false,
          "internalType": "uint32[]",
          "name": "productIds",
          "type": "uint32[]"
        },
        {
          "indexed": false,
          "internalType": "uint16[]",
          "name": "quantities",
          "type": "uint16[]"
        },
        {
          "indexed": false,
          "internalType": "uint256",
          "name": "totalPaid",
          "type": "uint256"
        }
      ],
      "name": "ProductsPaid",
      "type": "event"
    },
    {
      "anonymous": false,
      "inputs": [
        {
          "indexed": false,
          "internalType": "address",
          "name": "slicerAddress",
          "type": "address"
        },
        {
          "indexed": false,
          "internalType": "uint256",
          "name": "tokenId",
          "type": "uint256"
        },
        {
          "indexed": false,
          "internalType": "address[]",
          "name": "payees",
          "type": "address[]"
        },
        {
          "indexed": false,
          "internalType": "uint256[]",
          "name": "shares",
          "type": "uint256[]"
        },
        {
          "indexed": false,
          "internalType": "uint256",
          "name": "minimumShares",
          "type": "uint256"
        },
        {
          "indexed": false,
          "internalType": "bool",
          "name": "isCollectible",
          "type": "bool"
        }
      ],
      "name": "TokenSliced",
      "type": "event"
    },
    {
      "anonymous": false,
      "inputs": [
        {
          "indexed": true,
          "internalType": "address",
          "name": "account",
          "type": "address"
        },
        {
          "indexed": false,
          "internalType": "uint256",
          "name": "totalReleased",
          "type": "uint256"
        },
        {
          "indexed": false,
          "internalType": "uint8",
          "name": "slicerPercentage",
          "type": "uint8"
        }
      ],
      "name": "TriggeredRelease",
      "type": "event"
    },
    {
      "anonymous": false,
      "inputs": [
        {
          "indexed": false,
          "internalType": "address",
          "name": "account",
          "type": "address"
        }
      ],
      "name": "Unpaused",
      "type": "event"
    },
    {
      "anonymous": false,
      "inputs": [
        {
          "indexed": true,
          "internalType": "address",
          "name": "implementation",
          "type": "address"
        }
      ],
      "name": "Upgraded",
      "type": "event"
    },
    {
      "inputs": [
        {
          "internalType": "uint32",
          "name": "categoryIndex",
          "type": "uint32"
        }
      ],
      "name": "_addToSliceCategory",
      "outputs": [],
      "stateMutability": "nonpayable",
      "type": "function"
    },
    {
      "inputs": [
        {
          "internalType": "address",
          "name": "from",
          "type": "address"
        },
        {
          "internalType": "address",
          "name": "to",
          "type": "address"
        },
        {
          "internalType": "address[]",
          "name": "slicerAddresses",
          "type": "address[]"
        },
        {
          "internalType": "uint256[]",
          "name": "amounts",
          "type": "uint256[]"
        }
      ],
      "name": "_beforeTransfer",
      "outputs": [],
      "stateMutability": "nonpayable",
      "type": "function"
    },
    {
      "inputs": [
        {
          "internalType": "uint256",
          "name": "id",
          "type": "uint256"
        },
        {
          "internalType": "uint256",
          "name": "minimumShares",
          "type": "uint256"
        },
        {
          "internalType": "bool",
          "name": "isCollectible",
          "type": "bool"
        }
      ],
      "name": "_createSlicer",
      "outputs": [
        {
          "internalType": "address payable",
          "name": "",
          "type": "address"
        }
      ],
      "stateMutability": "nonpayable",
      "type": "function"
    },
    {
      "inputs": [],
      "name": "_implementation",
      "outputs": [
        {
          "internalType": "address",
          "name": "",
          "type": "address"
        }
      ],
      "stateMutability": "view",
      "type": "function"
    },
    {
      "inputs": [
        {
          "internalType": "uint16",
          "name": "newValueSlice",
          "type": "uint16"
        },
        {
          "internalType": "uint16",
          "name": "newValueRelease",
          "type": "uint16"
        }
      ],
      "name": "_setMaximumBatch",
      "outputs": [],
      "stateMutability": "nonpayable",
      "type": "function"
    },
    {
      "inputs": [],
      "name": "_togglePause",
      "outputs": [],
      "stateMutability": "nonpayable",
      "type": "function"
    },
    {
      "inputs": [
        {
          "internalType": "address",
          "name": "newLogicImpl",
          "type": "address"
        }
      ],
      "name": "_upgradeSlicers",
      "outputs": [],
      "stateMutability": "nonpayable",
      "type": "function"
    },
    {
      "inputs": [],
      "name": "getEthUsd",
      "outputs": [
        {
          "internalType": "int256",
          "name": "",
          "type": "int256"
        }
      ],
      "stateMutability": "view",
      "type": "function"
    },
    {
      "inputs": [
        {
          "internalType": "address",
          "name": "SLCAddress",
          "type": "address"
        },
        {
          "internalType": "address",
          "name": "sliceCoreAddress",
          "type": "address"
        }
      ],
      "name": "initialize",
      "outputs": [],
      "stateMutability": "nonpayable",
      "type": "function"
    },
    {
      "inputs": [],
      "name": "owner",
      "outputs": [
        {
          "internalType": "address",
          "name": "",
          "type": "address"
        }
      ],
      "stateMutability": "view",
      "type": "function"
    },
    {
      "inputs": [],
      "name": "paused",
      "outputs": [
        {
          "internalType": "bool",
          "name": "",
          "type": "bool"
        }
      ],
      "stateMutability": "view",
      "type": "function"
    },
    {
      "inputs": [
        {
          "internalType": "address payable[]",
          "name": "slicerAddresses",
          "type": "address[]"
        },
        {
          "internalType": "uint32[]",
          "name": "productIds",
          "type": "uint32[]"
        },
        {
          "internalType": "uint16[]",
          "name": "quantities",
          "type": "uint16[]"
        }
      ],
      "name": "payProducts",
      "outputs": [],
      "stateMutability": "payable",
      "type": "function"
    },
    {
      "inputs": [],
      "name": "renounceOwnership",
      "outputs": [],
      "stateMutability": "nonpayable",
      "type": "function"
    },
    {
      "inputs": [
        {
          "internalType": "address[]",
          "name": "accounts",
          "type": "address[]"
        },
        {
          "internalType": "uint256[]",
          "name": "shares",
          "type": "uint256[]"
        },
        {
          "internalType": "uint256",
          "name": "minimumShares",
          "type": "uint256"
        },
        {
          "internalType": "bool",
          "name": "isCollectible",
          "type": "bool"
        }
      ],
      "name": "slice",
      "outputs": [],
      "stateMutability": "nonpayable",
      "type": "function"
    },
    {
      "inputs": [
        {
          "internalType": "uint256",
          "name": "id",
          "type": "uint256"
        }
      ],
      "name": "slicers",
      "outputs": [
        {
          "internalType": "address",
          "name": "",
          "type": "address"
        }
      ],
      "stateMutability": "view",
      "type": "function"
    },
    {
      "inputs": [],
      "name": "totalTokens",
      "outputs": [
        {
          "internalType": "uint256",
          "name": "",
          "type": "uint256"
        }
      ],
      "stateMutability": "view",
      "type": "function"
    },
    {
      "inputs": [
        {
          "internalType": "address",
          "name": "newOwner",
          "type": "address"
        }
      ],
      "name": "transferOwnership",
      "outputs": [],
      "stateMutability": "nonpayable",
      "type": "function"
    },
    {
      "inputs": [
        {
          "internalType": "address",
          "name": "account",
          "type": "address"
        },
        {
          "internalType": "address[]",
          "name": "slicerAddresses",
          "type": "address[]"
        },
        {
          "internalType": "uint8",
          "name": "slicerPercentage",
          "type": "uint8"
        }
      ],
      "name": "triggerRelease",
      "outputs": [],
      "stateMutability": "nonpayable",
      "type": "function"
    },
    {
      "inputs": [
        {
          "internalType": "address",
          "name": "account",
          "type": "address"
        },
        {
          "internalType": "address[]",
          "name": "slicerAddresses",
          "type": "address[]"
        }
      ],
      "name": "unreleasedBatch",
      "outputs": [
        {
          "internalType": "uint256[]",
          "name": "",
          "type": "uint256[]"
        }
      ],
      "stateMutability": "view",
      "type": "function"
    },
    {
      "inputs": [
        {
          "internalType": "address",
          "name": "newImplementation",
          "type": "address"
        }
      ],
      "name": "upgradeTo",
      "outputs": [],
      "stateMutability": "nonpayable",
      "type": "function"
    },
    {
      "inputs": [
        {
          "internalType": "address",
          "name": "newImplementation",
          "type": "address"
        },
        {
          "internalType": "bytes",
          "name": "data",
          "type": "bytes"
        }
      ],
      "name": "upgradeToAndCall",
      "outputs": [],
      "stateMutability": "payable",
      "type": "function"
    }
  ],
  "bytecode": "0x608060405234801561001057600080fd5b50613b8b806100206000396000f3fe608060405260043610620001435760003560e01c8063715018a611620000b9578063bb27e0ce1162000078578063bb27e0ce146200034c578063dae7d5181462000364578063e4b546141462000389578063edeb64ba14620003ab578063efab35b814620003df578063f2fde38b146200040457600080fd5b8063715018a614620002a35780637e1c0c0914620002bb578063817115f114620002e25780638913ea4214620003075780638da5cb5b146200032c57600080fd5b8063485cc9551162000106578063485cc95514620002055780634f1ef286146200022a57806359679b0f14620002415780635c975abb14620002595780635e3c959f146200027e57600080fd5b8063175fa7ea1462000148578063277794e4146200018a5780632f1f315414620001af5780633659cfe614620001c8578063405b4c3614620001ed575b600080fd5b3480156200015557600080fd5b506200016d62000167366004620026ab565b62000429565b6040516001600160a01b0390911681526020015b60405180910390f35b3480156200019757600080fd5b506200016d620001a9366004620026df565b620004b1565b620001c6620001c036600462002575565b62000554565b005b348015620001d557600080fd5b50620001c6620001e736600462002267565b6200089d565b348015620001fa57600080fd5b50620001c6620008c5565b3480156200021257600080fd5b50620001c662000224366004620022a7565b62000914565b620001c66200023b3660046200243b565b62000a58565b3480156200024e57600080fd5b506200016d62000a75565b3480156200026657600080fd5b5060c95460ff16604051901515815260200162000181565b3480156200028b57600080fd5b50620001c66200029d366004620024ee565b62000b35565b348015620002b057600080fd5b50620001c662000f5d565b348015620002c857600080fd5b50620002d362000f96565b60405190815260200162000181565b348015620002ef57600080fd5b50620001c662000301366004620023cf565b62000fa3565b3480156200031457600080fd5b50620001c66200032636600462002673565b620012b7565b3480156200033957600080fd5b506097546001600160a01b03166200016d565b3480156200035957600080fd5b50620002d36200130d565b3480156200037157600080fd5b50620001c662000383366004620022e5565b620013a6565b3480156200039657600080fd5b50620001c6620003a836600462002765565b50565b348015620003b857600080fd5b50620003d0620003ca36600462002379565b6200158e565b60405162000181919062002a2c565b348015620003ec57600080fd5b50620001c6620003fe36600462002267565b620016d6565b3480156200041157600080fd5b50620001c66200042336600462002267565b62001768565b61012f54604051630bafd3f560e11b8152600481018390526000916001600160a01b03169063175fa7ea9060240160206040518083038186803b1580156200047057600080fd5b505afa15801562000485573d6000803e3d6000fd5b505050506040513d601f19601f82011682018060405250810190620004ab919062002287565b92915050565b61012d546040516024810185905233604482015260648101849052821515608482015260009182916001600160a01b039091169060a40160408051601f198184030181529181526020820180516001600160e01b031663f664929d60e01b179052516200051e9062002026565b6200052b9291906200292a565b604051809103906000f08015801562000548573d6000803e3d6000fd5b509150505b9392505050565b600260fb541415620005835760405162461bcd60e51b81526004016200057a9062002ad9565b60405180910390fd5b600260fb55815183511480156200059b575080518351145b620005e95760405162461bcd60e51b815260206004820152601860248201527f4c656e6774687320646f6e277420636f72726573706f6e64000000000000000060448201526064016200057a565b6000805b84518161ffff16101562000852576000858261ffff168151811062000616576200061662002c16565b602002602001015190506000848361ffff16815181106200063b576200063b62002c16565b602002602001015161ffff16826001600160a01b031663bfe5d835888661ffff16815181106200066f576200066f62002c16565b60200260200101516040518263ffffffff1660e01b8152600401620006a0919063ffffffff91909116815260200190565b60206040518083038186803b158015620006b957600080fd5b505afa158015620006ce573d6000803e3d6000fd5b505050506040513d601f19601f82011682018060405250810190620006f49190620026c5565b62000700919062002b86565b90506000878461ffff16815181106200071d576200071d62002c16565b60200260200101516001600160a01b03168233898761ffff168151811062000749576200074962002c16565b6020026020010151898861ffff16815181106200076a576200076a62002c16565b60209081029190910101516040516001600160a01b03909316602484015263ffffffff909116604483015261ffff16606482015260840160408051601f198184030181529181526020820180516001600160e01b0316635f938d5360e11b17905251620007d89190620028b4565b60006040518083038185875af1925050503d806000811462000817576040519150601f19603f3d011682016040523d82523d6000602084013e6200081c565b606091505b50509050806200082b57600080fd5b62000837828662002b6b565b94505050508080620008499062002bdb565b915050620005ed565b507ff9c0c1c7138692bd4bff6843cde7f313f634c42eca9375fbd6ae91c4f3269a8c848484846040516200088a949392919062002981565b60405180910390a15050600160fb555050565b620008a88162001807565b620003a88160405180602001604052806000815250600062001834565b6097546001600160a01b03163314620008f25760405162461bcd60e51b81526004016200057a9062002aa4565b60c95460ff16156200090a5762000908620019c3565b565b6200090862001a58565b600054610100900460ff16806200092e575060005460ff16155b6200094d5760405162461bcd60e51b81526004016200057a9062002a56565b600054610100900460ff1615801562000970576000805461ffff19166101011790555b6200097a62001ad6565b61012e80546001600160a01b038086166001600160a01b03199283161790925561012f8054928516928216929092179091556101328054621e001e63ffffffff199091161790556101308054909116738a753747a1fa494ec906ce90e9f37563a8af630e1790556040518390620009f19062002034565b6001600160a01b039091168152602001604051809103906000f08015801562000a1e573d6000803e3d6000fd5b5061012d80546001600160a01b0319166001600160a01b0392909216919091179055801562000a53576000805461ff00191690555b505050565b62000a638262001807565b62000a718282600162001834565b5050565b6097546000906001600160a01b0316331462000aa55760405162461bcd60e51b81526004016200057a9062002aa4565b61012d60009054906101000a90046001600160a01b03166001600160a01b0316635c60da1b6040518163ffffffff1660e01b815260040160206040518083038186803b15801562000af557600080fd5b505afa15801562000b0a573d6000803e3d6000fd5b505050506040513d601f19601f8201168201806040525081019062000b30919062002287565b905090565b60c95460ff161562000b7d5760405162461bcd60e51b815260206004820152601060248201526f14185d5cd8589b194e881c185d5cd95960821b60448201526064016200057a565b600260fb54141562000ba35760405162461bcd60e51b81526004016200057a9062002ad9565b600260fb55600062000bb56101315490565b61013254865191925060009161ffff909116101562000c0b5760405162461bcd60e51b8152602060048201526011602482015270546f6f206d616e79206163636f756e747360781b60448201526064016200057a565b845186511462000c5e5760405162461bcd60e51b815260206004820152601760248201527f496e7075747320646f6e277420636f72726573706f6e6400000000000000000060448201526064016200057a565b6000841162000ca95760405162461bcd60e51b815260206004820152601660248201527553706563696679206d696e696d756d2073686172657360501b60448201526064016200057a565b600062000cb8838686620004b1565b90508060005b88518161ffff16101562000e475762000cf7898261ffff168151811062000ce95762000ce962002c16565b60200260200101513b151590565b1562000d295762000d29838a8361ffff168151811062000d1b5762000d1b62002c16565b602002602001015162001b5b565b8315801562000d58575086888261ffff168151811062000d4d5762000d4d62002c16565b602002602001015110155b1562000d6357600193505b61012f5489516001600160a01b039091169063303cd08a908b9061ffff851690811062000d945762000d9462002c16565b6020026020010151878b8561ffff168151811062000db65762000db662002c16565b60209081029190910101516040516001600160e01b031960e086901b1681526001600160a01b039384166004820152602481019290925260448201529086166064820152608401600060405180830381600087803b15801562000e1857600080fd5b505af115801562000e2d573d6000803e3d6000fd5b50505050808062000e3e9062002bdb565b91505062000cbe565b508262000e975760405162461bcd60e51b815260206004820152601c60248201527f4e6f206163636f756e742068617320656e6f756768207368617265730000000060448201526064016200057a565b60405163fd5e12e360e01b81526001600160a01b0382169063fd5e12e39062000ec7908b908b9060040162002958565b600060405180830381600087803b15801562000ee257600080fd5b505af115801562000ef7573d6000803e3d6000fd5b5050505062000f0b61013180546001019055565b7fd090405b8e03d5caf9d1479740c43f24f9aec7f529dccf613ae93e7187eadfed82858a8a8a8a60405162000f4696959493929190620028d2565b60405180910390a15050600160fb55505050505050565b6097546001600160a01b0316331462000f8a5760405162461bcd60e51b81526004016200057a9062002aa4565b62000908600062001ca1565b600062000b306101315490565b600260fb54141562000fc95760405162461bcd60e51b81526004016200057a9062002ad9565b600260fb556101325482516201000090910461ffff1610156200102f5760405162461bcd60e51b815260206004820152601960248201527f546f6f206d616e7920736c69636572732072656c65617365640000000000000060448201526064016200057a565b823b156000805b84518161ffff1610156200125c576000858261ffff16815181106200105f576200105f62002c16565b6020908102919091010151604051632a67293d60e01b81526001600160a01b038981166004830152919250600091831690632a67293d9060240160206040518083038186803b158015620010b257600080fd5b505afa158015620010c7573d6000803e3d6000fd5b505050506040513d601f19601f82011682018060405250810190620010ed9190620026c5565b11156200124657604051631916558760e01b81526001600160a01b03888116600483015260009190831690631916558790602401602060405180830381600087803b1580156200113c57600080fd5b505af115801562001151573d6000803e3d6000fd5b505050506040513d601f19601f82011682018060405250810190620011779190620026c5565b90508415620012365761012e5487516001600160a01b039091169063deb0e991908a9084908b9061ffff8916908110620011b557620011b562002c16565b60209081029190910101516040516001600160e01b031960e086901b1681526001600160a01b039384166004820152602481019290925291909116604482015260ff89166064820152608401600060405180830381600087803b1580156200121c57600080fd5b505af115801562001231573d6000803e3d6000fd5b505050505b62001242818562002b6b565b9350505b5080620012538162002bdb565b91505062001036565b508015620012ab576040805182815260ff851660208201526001600160a01b038716917fc3fb528a4237f3152c096612970ef465ede8418e8e76bf125a4af53c8284ec43910160405180910390a25b5050600160fb55505050565b6097546001600160a01b03163314620012e45760405162461bcd60e51b81526004016200057a9062002aa4565b610132805461ffff928316620100000263ffffffff199091169290931691909117919091179055565b60008061013060009054906101000a90046001600160a01b03166001600160a01b031663feaf968c6040518163ffffffff1660e01b815260040160a06040518083038186803b1580156200136057600080fd5b505afa15801562001375573d6000803e3d6000fd5b505050506040513d601f19601f820116820180604052508101906200139b919062002783565b509195945050505050565b61012f546001600160a01b03163314620013f25760405162461bcd60e51b815260206004820152600c60248201526b155b985d5d1a1bdc9a5e995960a21b60448201526064016200057a565b823b1515620014048584600062000fa3565b60005b83518161ffff1610156200158657828161ffff16815181106200142e576200142e62002c16565b6020026020010151600014156200147d5760405162461bcd60e51b81526020600482015260126024820152710416d6f756e742063616e6e6f7420626520360741b60448201526064016200057a565b81156200152357838161ffff16815181106200149d576200149d62002c16565b60200260200101516001600160a01b0316856001600160a01b03161415620014f75760405162461bcd60e51b815260206004820152600c60248201526b05061796d656e74206c6f6f760a41b60448201526064016200057a565b62001523848261ffff168151811062001514576200151462002c16565b60200260200101518662001b5b565b620015718686868461ffff168151811062001542576200154262002c16565b6020026020010151868561ffff168151811062001563576200156362002c16565b602002602001015162001cf3565b806200157d8162002bdb565b91505062001407565b505050505050565b60606000825167ffffffffffffffff811115620015af57620015af62002c2c565b604051908082528060200260200182016040528015620015d9578160200160208202803683370190505b50905060005b83518161ffff161015620016ce576000848261ffff168151811062001608576200160862002c16565b6020908102919091010151604051632a67293d60e01b81526001600160a01b03888116600483015291925090821690632a67293d9060240160206040518083038186803b1580156200165957600080fd5b505afa1580156200166e573d6000803e3d6000fd5b505050506040513d601f19601f82011682018060405250810190620016949190620026c5565b838361ffff1681518110620016ad57620016ad62002c16565b60209081029190910101525080620016c58162002bdb565b915050620015df565b509392505050565b6097546001600160a01b03163314620017035760405162461bcd60e51b81526004016200057a9062002aa4565b61012d54604051631b2ce7f360e11b81526001600160a01b03838116600483015290911690633659cfe690602401600060405180830381600087803b1580156200174c57600080fd5b505af115801562001761573d6000803e3d6000fd5b5050505050565b6097546001600160a01b03163314620017955760405162461bcd60e51b81526004016200057a9062002aa4565b6001600160a01b038116620017fc5760405162461bcd60e51b815260206004820152602660248201527f4f776e61626c653a206e6577206f776e657220697320746865207a65726f206160448201526564647265737360d01b60648201526084016200057a565b620003a88162001ca1565b6097546001600160a01b03163314620003a85760405162461bcd60e51b81526004016200057a9062002aa4565b6000620018687f360894a13ba1a3210667c828492db98dca3e2076cc3735a920a3ca505d382bbc546001600160a01b031690565b9050620018758462001d34565b600083511180620018835750815b15620018975762001895848462001ddb565b505b7f4910fdfa16fed3260ed0e7147f7cc6da11a60208b5b9406d12a635614ffd9143805460ff166200176157805460ff191660011781556040516001600160a01b03831660248201526200191990869060440160408051601f198184030181529190526020810180516001600160e01b0316631b2ce7f360e11b17905262001ddb565b50805460ff191681557f360894a13ba1a3210667c828492db98dca3e2076cc3735a920a3ca505d382bbc546001600160a01b03838116911614620019b85760405162461bcd60e51b815260206004820152602f60248201527f45524331393637557067726164653a207570677261646520627265616b73206660448201526e75727468657220757067726164657360881b60648201526084016200057a565b620017618562001ecf565b60c95460ff1662001a0e5760405162461bcd60e51b815260206004820152601460248201527314185d5cd8589b194e881b9bdd081c185d5cd95960621b60448201526064016200057a565b60c9805460ff191690557f5db9ee0a495bf2e6ff9c91a7834c1ba4fdd244a5e8aa4e537bd38aeae4b073aa335b6040516001600160a01b03909116815260200160405180910390a1565b60c95460ff161562001aa05760405162461bcd60e51b815260206004820152601060248201526f14185d5cd8589b194e881c185d5cd95960821b60448201526064016200057a565b60c9805460ff191660011790557f62e78cea01bee320cd4e420270b5ea74000d11b0c9f74754ebdbfc544b05a25862001a3b3390565b600054610100900460ff168062001af0575060005460ff16155b62001b0f5760405162461bcd60e51b81526004016200057a9062002a56565b600054610100900460ff1615801562001b32576000805461ffff19166101011790555b62001b3c62001f11565b62001b4662001f81565b8015620003a8576000805461ff001916905550565b600082905060008290506000816001600160a01b031663957e07b66040518163ffffffff1660e01b815260040160806040518083038186803b15801562001ba157600080fd5b505afa15801562001bb6573d6000803e3d6000fd5b505050506040513d601f19601f8201168201806040525081019062001bdc919062002717565b5050509050836001600160a01b031662001bf68262000429565b6001600160a01b03161462001c3d5760405162461bcd60e51b815260206004820152600c60248201526b2737ba10309029b634b1b2b960a11b60448201526064016200057a565b60405163044eecfd60e41b8152600481018290526001600160a01b038416906344eecfd0906024015b600060405180830381600087803b15801562001c8157600080fd5b505af115801562001c96573d6000803e3d6000fd5b505050505050505050565b609780546001600160a01b038381166001600160a01b0319831681179093556040519116919082907f8be0079c531659141344cd1fd0a4f28419497f9722a3daafe3b4186f6b6457e090600090a35050565b60405163177e569160e31b81526001600160a01b03858116600483015284811660248301526044820183905283919082169063bbf2b4889060640162001c66565b803b62001d9a5760405162461bcd60e51b815260206004820152602d60248201527f455243313936373a206e657720696d706c656d656e746174696f6e206973206e60448201526c1bdd08184818dbdb9d1c9858dd609a1b60648201526084016200057a565b7f360894a13ba1a3210667c828492db98dca3e2076cc3735a920a3ca505d382bbc80546001600160a01b0319166001600160a01b0392909216919091179055565b6060823b62001e3c5760405162461bcd60e51b815260206004820152602660248201527f416464726573733a2064656c65676174652063616c6c20746f206e6f6e2d636f6044820152651b9d1c9858dd60d21b60648201526084016200057a565b600080846001600160a01b03168460405162001e599190620028b4565b600060405180830381855af49150503d806000811462001e96576040519150601f19603f3d011682016040523d82523d6000602084013e62001e9b565b606091505b509150915062001ec6828260405180606001604052806027815260200162003b2f6027913962001fe8565b95945050505050565b62001eda8162001d34565b6040516001600160a01b038216907fbc7cd75a20ee27fd9adebab32041f755214dbc6bffa90cc0225b39da2e5c2d3b90600090a250565b600054610100900460ff168062001f2b575060005460ff16155b62001f4a5760405162461bcd60e51b81526004016200057a9062002a56565b600054610100900460ff1615801562001b46576000805461ffff19166101011790558015620003a8576000805461ff001916905550565b600054610100900460ff168062001f9b575060005460ff16155b62001fba5760405162461bcd60e51b81526004016200057a9062002a56565b600054610100900460ff1615801562001fdd576000805461ffff19166101011790555b62001b463362001ca1565b6060831562001ff95750816200054d565b8251156200200a5782518084602001fd5b8160405162461bcd60e51b81526004016200057a919062002a41565b6109938062002c6983390190565b61053380620035fc83390190565b600082601f8301126200205457600080fd5b813560206200206d620020678362002b44565b62002b10565b80838252828201915082860187848660051b89010111156200208e57600080fd5b60005b85811015620020ba578135620020a78162002c42565b8452928401929084019060010162002091565b5090979650505050505050565b600082601f830112620020d957600080fd5b81356020620020ec620020678362002b44565b80838252828201915082860187848660051b89010111156200210d57600080fd5b60005b85811015620020ba57620021248262002224565b8452928401929084019060010162002110565b600082601f8301126200214957600080fd5b813560206200215c620020678362002b44565b80838252828201915082860187848660051b89010111156200217d57600080fd5b60005b85811015620020ba5781358452928401929084019060010162002180565b600082601f830112620021b057600080fd5b81356020620021c3620020678362002b44565b80838252828201915082860187848660051b8901011115620021e457600080fd5b60005b85811015620020ba57620021fb8262002237565b84529284019290840190600101620021e7565b803580151581146200221f57600080fd5b919050565b803561ffff811681146200221f57600080fd5b803563ffffffff811681146200221f57600080fd5b805169ffffffffffffffffffff811681146200221f57600080fd5b6000602082840312156200227a57600080fd5b81356200054d8162002c42565b6000602082840312156200229a57600080fd5b81516200054d8162002c42565b60008060408385031215620022bb57600080fd5b8235620022c88162002c42565b91506020830135620022da8162002c42565b809150509250929050565b60008060008060808587031215620022fc57600080fd5b8435620023098162002c42565b935060208501356200231b8162002c42565b9250604085013567ffffffffffffffff808211156200233957600080fd5b620023478883890162002042565b935060608701359150808211156200235e57600080fd5b506200236d8782880162002137565b91505092959194509250565b600080604083850312156200238d57600080fd5b82356200239a8162002c42565b9150602083013567ffffffffffffffff811115620023b757600080fd5b620023c58582860162002042565b9150509250929050565b600080600060608486031215620023e557600080fd5b8335620023f28162002c42565b9250602084013567ffffffffffffffff8111156200240f57600080fd5b6200241d8682870162002042565b9250506040840135620024308162002c58565b809150509250925092565b600080604083850312156200244f57600080fd5b82356200245c8162002c42565b915060208381013567ffffffffffffffff808211156200247b57600080fd5b818601915086601f8301126200249057600080fd5b813581811115620024a557620024a562002c2c565b620024b9601f8201601f1916850162002b10565b91508082528784828501011115620024d057600080fd5b80848401858401376000848284010152508093505050509250929050565b600080600080608085870312156200250557600080fd5b843567ffffffffffffffff808211156200251e57600080fd5b6200252c8883890162002042565b955060208701359150808211156200254357600080fd5b50620025528782880162002137565b935050604085013591506200256a606086016200220e565b905092959194509250565b6000806000606084860312156200258b57600080fd5b833567ffffffffffffffff80821115620025a457600080fd5b818601915086601f830112620025b957600080fd5b81356020620025cc620020678362002b44565b8083825282820191508286018b848660051b8901011115620025ed57600080fd5b600096505b848710156200261d578035620026088162002c42565b835260019690960195918301918301620025f2565b50975050870135925050808211156200263557600080fd5b62002643878388016200219e565b935060408601359150808211156200265a57600080fd5b506200266986828701620020c7565b9150509250925092565b600080604083850312156200268757600080fd5b620026928362002224565b9150620026a26020840162002224565b90509250929050565b600060208284031215620026be57600080fd5b5035919050565b600060208284031215620026d857600080fd5b5051919050565b600080600060608486031215620026f557600080fd5b83359250602084013591506200270e604085016200220e565b90509250925092565b600080600080608085870312156200272e57600080fd5b845193506020850151620027428162002c58565b6040860151909350620027558162002c42565b6060959095015193969295505050565b6000602082840312156200277857600080fd5b6200054d8262002237565b600080600080600060a086880312156200279c57600080fd5b620027a7866200224c565b9450602086015193506040860151925060608601519150620027cc608087016200224c565b90509295509295909350565b600081518084526020808501945080840160005b83811015620028135781516001600160a01b031687529582019590820190600101620027ec565b509495945050505050565b600081518084526020808501945080840160005b838110156200281357815161ffff168752958201959082019060010162002832565b600081518084526020808501945080840160005b83811015620028135781518752958201959082019060010162002868565b60008151808452620028a081602086016020860162002ba8565b601f01601f19169290920160200192915050565b60008251620028c881846020870162002ba8565b9190910192915050565b60018060a01b038716815285602082015260c060408201526000620028fb60c0830187620027d8565b82810360608401526200290f818762002854565b6080840195909552505090151560a090910152949350505050565b6001600160a01b0383168152604060208201819052600090620029509083018462002886565b949350505050565b6040815260006200296d6040830185620027d8565b828103602084015262001ec6818562002854565b6080808252855190820181905260009060209060a0840190828901845b82811015620029c55781516001600160a01b0316845292840192908401906001016200299e565b5050508381038285015286518082528783019183019060005b8181101562002a0257835163ffffffff1683529284019291840191600101620029de565b5050848103604086015262002a1881886200281e565b935050505082606083015295945050505050565b6020815260006200054d602083018462002854565b6020815260006200054d602083018462002886565b6020808252602e908201527f496e697469616c697a61626c653a20636f6e747261637420697320616c72656160408201526d191e481a5b9a5d1a585b1a5e995960921b606082015260800190565b6020808252818101527f4f776e61626c653a2063616c6c6572206973206e6f7420746865206f776e6572604082015260600190565b6020808252601f908201527f5265656e7472616e637947756172643a207265656e7472616e742063616c6c00604082015260600190565b604051601f8201601f1916810167ffffffffffffffff8111828210171562002b3c5762002b3c62002c2c565b604052919050565b600067ffffffffffffffff82111562002b615762002b6162002c2c565b5060051b60200190565b6000821982111562002b815762002b8162002c00565b500190565b600081600019048311821515161562002ba35762002ba362002c00565b500290565b60005b8381101562002bc557818101518382015260200162002bab565b8381111562002bd5576000848401525b50505050565b600061ffff8083168181141562002bf65762002bf662002c00565b6001019392505050565b634e487b7160e01b600052601160045260246000fd5b634e487b7160e01b600052603260045260246000fd5b634e487b7160e01b600052604160045260246000fd5b6001600160a01b0381168114620003a857600080fd5b60ff81168114620003a857600080fdfe608060405260405161099338038061099383398101604081905261002291610470565b61004d60017fa3f0ad74e5423aebfd80d3ef4346578335a9a72aeaee59ff6cb3582b35133d5161057f565b60008051602061094c83398151915214610069576100696105d0565b6100758282600061007c565b50506105fc565b61008583610156565b6040516001600160a01b038416907f1cf3b03a6cf19fa2baba4df148e9dcabedea7f8a5c07840e207e5c089be95d3e90600090a26000825111806100c65750805b156101515761014f836001600160a01b0316635c60da1b6040518163ffffffff1660e01b815260040160206040518083038186803b15801561010757600080fd5b505afa15801561011b573d6000803e3d6000fd5b505050506040513d601f19601f8201168201806040525081019061013f9190610455565b836102f660201b6100291760201c565b505b505050565b6101698161032260201b6100551760201c565b6101c85760405162461bcd60e51b815260206004820152602560248201527f455243313936373a206e657720626561636f6e206973206e6f74206120636f6e6044820152641d1c9858dd60da1b60648201526084015b60405180910390fd5b61024b816001600160a01b0316635c60da1b6040518163ffffffff1660e01b815260040160206040518083038186803b15801561020457600080fd5b505afa158015610218573d6000803e3d6000fd5b505050506040513d601f19601f8201168201806040525081019061023c9190610455565b61032260201b6100551760201c565b6102b05760405162461bcd60e51b815260206004820152603060248201527f455243313936373a20626561636f6e20696d706c656d656e746174696f6e206960448201526f1cc81b9bdd08184818dbdb9d1c9858dd60821b60648201526084016101bf565b806102d560008051602061094c83398151915260001b61032860201b61005b1760201c565b80546001600160a01b0319166001600160a01b039290921691909117905550565b606061031b838360405180606001604052806027815260200161096c6027913961032b565b9392505050565b3b151590565b90565b6060833b61038a5760405162461bcd60e51b815260206004820152602660248201527f416464726573733a2064656c65676174652063616c6c20746f206e6f6e2d636f6044820152651b9d1c9858dd60d21b60648201526084016101bf565b600080856001600160a01b0316856040516103a59190610530565b600060405180830381855af49150503d80600081146103e0576040519150601f19603f3d011682016040523d82523d6000602084013e6103e5565b606091505b5090925090506103f6828286610400565b9695505050505050565b6060831561040f57508161031b565b82511561041f5782518084602001fd5b8160405162461bcd60e51b81526004016101bf919061054c565b80516001600160a01b038116811461045057600080fd5b919050565b60006020828403121561046757600080fd5b61031b82610439565b6000806040838503121561048357600080fd5b61048c83610439565b60208401519092506001600160401b03808211156104a957600080fd5b818501915085601f8301126104bd57600080fd5b8151818111156104cf576104cf6105e6565b604051601f8201601f19908116603f011681019083821181831017156104f7576104f76105e6565b8160405282815288602084870101111561051057600080fd5b6105218360208301602088016105a4565b80955050505050509250929050565b600082516105428184602087016105a4565b9190910192915050565b602081526000825180602084015261056b8160408501602087016105a4565b601f01601f19169190910160400192915050565b60008282101561059f57634e487b7160e01b600052601160045260246000fd5b500390565b60005b838110156105bf5781810151838201526020016105a7565b8381111561014f5750506000910152565b634e487b7160e01b600052600160045260246000fd5b634e487b7160e01b600052604160045260246000fd5b6103418061060b6000396000f3fe60806040523661001357610011610017565b005b6100115b61002761002261005e565b610106565b565b606061004e83836040518060600160405280602781526020016102e56027913961012a565b9392505050565b3b151590565b90565b60006100917fa3f0ad74e5423aebfd80d3ef4346578335a9a72aeaee59ff6cb3582b35133d50546001600160a01b031690565b6001600160a01b0316635c60da1b6040518163ffffffff1660e01b815260040160206040518083038186803b1580156100c957600080fd5b505afa1580156100dd573d6000803e3d6000fd5b505050506040513d601f19601f82011682018060405250810190610101919061023c565b905090565b3660008037600080366000845af43d6000803e808015610125573d6000f35b3d6000fd5b6060833b61018e5760405162461bcd60e51b815260206004820152602660248201527f416464726573733a2064656c65676174652063616c6c20746f206e6f6e2d636f6044820152651b9d1c9858dd60d21b60648201526084015b60405180910390fd5b600080856001600160a01b0316856040516101a99190610265565b600060405180830381855af49150503d80600081146101e4576040519150601f19603f3d011682016040523d82523d6000602084013e6101e9565b606091505b50915091506101f9828286610203565b9695505050505050565b6060831561021257508161004e565b8251156102225782518084602001fd5b8160405162461bcd60e51b81526004016101859190610281565b60006020828403121561024e57600080fd5b81516001600160a01b038116811461004e57600080fd5b600082516102778184602087016102b4565b9190910192915050565b60208152600082518060208401526102a08160408501602087016102b4565b601f01601f19169190910160400192915050565b60005b838110156102cf5781810151838201526020016102b7565b838111156102de576000848401525b5050505056fe416464726573733a206c6f772d6c6576656c2064656c65676174652063616c6c206661696c6564a2646970667358221220083f5423fec368aabbb0acd6db8adae396291ef41caa6b7829ce8e6ae4b7618364736f6c63430008070033a3f0ad74e5423aebfd80d3ef4346578335a9a72aeaee59ff6cb3582b35133d50416464726573733a206c6f772d6c6576656c2064656c65676174652063616c6c206661696c6564608060405234801561001057600080fd5b5060405161053338038061053383398101604081905261002f91610130565b600080546001600160a01b031916339081178255604051909182917f8be0079c531659141344cd1fd0a4f28419497f9722a3daafe3b4186f6b6457e0908290a3506100798161007f565b50610160565b6100928161012a60201b6102971760201c565b6101085760405162461bcd60e51b815260206004820152603360248201527f5570677261646561626c65426561636f6e3a20696d706c656d656e746174696f60448201527f6e206973206e6f74206120636f6e747261637400000000000000000000000000606482015260840160405180910390fd5b600180546001600160a01b0319166001600160a01b0392909216919091179055565b3b151590565b60006020828403121561014257600080fd5b81516001600160a01b038116811461015957600080fd5b9392505050565b6103c48061016f6000396000f3fe608060405234801561001057600080fd5b50600436106100575760003560e01c80633659cfe61461005c5780635c60da1b14610071578063715018a61461009a5780638da5cb5b146100a2578063f2fde38b146100b3575b600080fd5b61006f61006a366004610329565b6100c6565b005b6001546001600160a01b03165b6040516001600160a01b03909116815260200160405180910390f35b61006f610139565b6000546001600160a01b031661007e565b61006f6100c1366004610329565b6101ad565b6000546001600160a01b031633146100f95760405162461bcd60e51b81526004016100f090610359565b60405180910390fd5b6101028161029d565b6040516001600160a01b038216907fbc7cd75a20ee27fd9adebab32041f755214dbc6bffa90cc0225b39da2e5c2d3b90600090a250565b6000546001600160a01b031633146101635760405162461bcd60e51b81526004016100f090610359565b600080546040516001600160a01b03909116907f8be0079c531659141344cd1fd0a4f28419497f9722a3daafe3b4186f6b6457e0908390a3600080546001600160a01b0319169055565b6000546001600160a01b031633146101d75760405162461bcd60e51b81526004016100f090610359565b6001600160a01b03811661023c5760405162461bcd60e51b815260206004820152602660248201527f4f776e61626c653a206e6577206f776e657220697320746865207a65726f206160448201526564647265737360d01b60648201526084016100f0565b600080546040516001600160a01b03808516939216917f8be0079c531659141344cd1fd0a4f28419497f9722a3daafe3b4186f6b6457e091a3600080546001600160a01b0319166001600160a01b0392909216919091179055565b3b151590565b803b6103075760405162461bcd60e51b815260206004820152603360248201527f5570677261646561626c65426561636f6e3a20696d706c656d656e746174696f6044820152721b881a5cc81b9bdd08184818dbdb9d1c9858dd606a1b60648201526084016100f0565b600180546001600160a01b0319166001600160a01b0392909216919091179055565b60006020828403121561033b57600080fd5b81356001600160a01b038116811461035257600080fd5b9392505050565b6020808252818101527f4f776e61626c653a2063616c6c6572206973206e6f7420746865206f776e657260408201526060019056fea26469706673582212207275df78dfd66d143bcc8b7c3154fdd858d9beab0bf0447ae30d752300bb428764736f6c63430008070033416464726573733a206c6f772d6c6576656c2064656c65676174652063616c6c206661696c6564a264697066735822122053221a3e88405942204f1e73a5447a3eebfa64a3c3a8db3e1531c7883ebf8b7b64736f6c63430008070033",
  "linkReferences": {},
  "deployedLinkReferences": {}
}