{
  "_format": "hh-sol-artifact-1",
  "contractName": "Slicer",
  "sourceName": "contracts/slicer_v0.sol",
  "abi": [
    {
      "anonymous": false,
      "inputs": [
        {
          "indexed": true,
          "internalType": "uint256",
          "name": "slicerId",
          "type": "uint256"
        }
      ],
      "name": "AddedChildrenSlicer",
      "type": "event"
    },
    {
      "anonymous": false,
      "inputs": [
        {
          "indexed": false,
          "internalType": "address",
          "name": "contractAddress",
          "type": "address"
        },
        {
          "indexed": false,
          "internalType": "address",
          "name": "from",
          "type": "address"
        },
        {
          "indexed": false,
          "internalType": "uint256[]",
          "name": "tokenIds",
          "type": "uint256[]"
        },
        {
          "indexed": false,
          "internalType": "uint256[]",
          "name": "amounts",
          "type": "uint256[]"
        }
      ],
      "name": "ERC1155BatchReceived",
      "type": "event"
    },
    {
      "anonymous": false,
      "inputs": [
        {
          "indexed": false,
          "internalType": "address",
          "name": "contractAddress",
          "type": "address"
        },
        {
          "indexed": false,
          "internalType": "address",
          "name": "from",
          "type": "address"
        },
        {
          "indexed": false,
          "internalType": "uint256",
          "name": "tokenId",
          "type": "uint256"
        },
        {
          "indexed": false,
          "internalType": "uint256",
          "name": "amount",
          "type": "uint256"
        }
      ],
      "name": "ERC1155Received",
      "type": "event"
    },
    {
      "anonymous": false,
      "inputs": [
        {
          "indexed": false,
          "internalType": "address",
          "name": "contractAddress",
          "type": "address"
        },
        {
          "indexed": false,
          "internalType": "address",
          "name": "from",
          "type": "address"
        },
        {
          "indexed": false,
          "internalType": "uint256",
          "name": "tokenId",
          "type": "uint256"
        }
      ],
      "name": "ERC721Received",
      "type": "event"
    },
    {
      "anonymous": false,
      "inputs": [
        {
          "indexed": false,
          "internalType": "address",
          "name": "account",
          "type": "address"
        }
      ],
      "name": "Paused",
      "type": "event"
    },
    {
      "anonymous": false,
      "inputs": [
        {
          "indexed": true,
          "internalType": "address",
          "name": "from",
          "type": "address"
        },
        {
          "indexed": false,
          "internalType": "uint256",
          "name": "amount",
          "type": "uint256"
        }
      ],
      "name": "PaymentReceived",
      "type": "event"
    },
    {
      "anonymous": false,
      "inputs": [
        {
          "indexed": true,
          "internalType": "uint32",
          "name": "productId",
          "type": "uint32"
        },
        {
          "indexed": true,
          "internalType": "uint32",
          "name": "categoryIndex",
          "type": "uint32"
        },
        {
          "indexed": false,
          "internalType": "uint256",
          "name": "price",
          "type": "uint256"
        },
        {
          "indexed": false,
          "internalType": "bool",
          "name": "isUSD",
          "type": "bool"
        },
        {
          "indexed": false,
          "internalType": "bool",
          "name": "isMultiple",
          "type": "bool"
        },
        {
          "indexed": false,
          "internalType": "bool",
          "name": "isInfinite",
          "type": "bool"
        },
        {
          "indexed": false,
          "internalType": "uint32",
          "name": "availableUnits",
          "type": "uint32"
        },
        {
          "indexed": true,
          "internalType": "address",
          "name": "creator",
          "type": "address"
        },
        {
          "indexed": false,
          "internalType": "bytes",
          "name": "data",
          "type": "bytes"
        },
        {
          "indexed": false,
          "internalType": "uint256[]",
          "name": "subSlicersId",
          "type": "uint256[]"
        },
        {
          "indexed": false,
          "internalType": "uint32[]",
          "name": "subProducts",
          "type": "uint32[]"
        }
      ],
      "name": "ProductAdded",
      "type": "event"
    },
    {
      "anonymous": false,
      "inputs": [
        {
          "indexed": true,
          "internalType": "uint32",
          "name": "productId",
          "type": "uint32"
        },
        {
          "indexed": false,
          "internalType": "uint32",
          "name": "categoryIndex",
          "type": "uint32"
        }
      ],
      "name": "ProductCategoryChanged",
      "type": "event"
    },
    {
      "anonymous": false,
      "inputs": [
        {
          "indexed": true,
          "internalType": "uint32",
          "name": "productId",
          "type": "uint32"
        },
        {
          "indexed": false,
          "internalType": "uint256",
          "name": "productPrice",
          "type": "uint256"
        },
        {
          "indexed": false,
          "internalType": "bool",
          "name": "isUSD",
          "type": "bool"
        }
      ],
      "name": "ProductCurrencyChanged",
      "type": "event"
    },
    {
      "anonymous": false,
      "inputs": [
        {
          "indexed": true,
          "internalType": "uint32",
          "name": "productId",
          "type": "uint32"
        },
        {
          "indexed": false,
          "internalType": "bool",
          "name": "isInfinite",
          "type": "bool"
        },
        {
          "indexed": false,
          "internalType": "uint32",
          "name": "units",
          "type": "uint32"
        },
        {
          "indexed": false,
          "internalType": "uint256",
          "name": "productPrice",
          "type": "uint256"
        }
      ],
      "name": "ProductInfoChanged",
      "type": "event"
    },
    {
      "anonymous": false,
      "inputs": [
        {
          "indexed": true,
          "internalType": "address",
          "name": "from",
          "type": "address"
        },
        {
          "indexed": true,
          "internalType": "uint32",
          "name": "productId",
          "type": "uint32"
        },
        {
          "indexed": false,
          "internalType": "uint16",
          "name": "quantity",
          "type": "uint16"
        },
        {
          "indexed": false,
          "internalType": "uint256",
          "name": "productPrice",
          "type": "uint256"
        }
      ],
      "name": "ProductPaid",
      "type": "event"
    },
    {
      "anonymous": false,
      "inputs": [
        {
          "indexed": true,
          "internalType": "uint32",
          "name": "productId",
          "type": "uint32"
        }
      ],
      "name": "ProductRemoved",
      "type": "event"
    },
    {
      "anonymous": false,
      "inputs": [
        {
          "indexed": false,
          "internalType": "uint32[]",
          "name": "serviceIds",
          "type": "uint32[]"
        },
        {
          "indexed": false,
          "internalType": "uint16[]",
          "name": "quantities",
          "type": "uint16[]"
        },
        {
          "indexed": false,
          "internalType": "uint256",
          "name": "amount",
          "type": "uint256"
        }
      ],
      "name": "SLCPaid",
      "type": "event"
    },
    {
      "anonymous": false,
      "inputs": [
        {
          "indexed": true,
          "internalType": "address",
          "name": "payee",
          "type": "address"
        },
        {
          "indexed": false,
          "internalType": "uint256",
          "name": "released",
          "type": "uint256"
        }
      ],
      "name": "TriggeredRelease",
      "type": "event"
    },
    {
      "anonymous": false,
      "inputs": [
        {
          "indexed": false,
          "internalType": "address",
          "name": "account",
          "type": "address"
        }
      ],
      "name": "Unpaused",
      "type": "event"
    },
    {
      "inputs": [
        {
          "internalType": "uint256",
          "name": "id",
          "type": "uint256"
        }
      ],
      "name": "_addChildrenSlicer",
      "outputs": [],
      "stateMutability": "nonpayable",
      "type": "function"
    },
    {
      "inputs": [
        {
          "internalType": "address[]",
          "name": "accounts",
          "type": "address[]"
        },
        {
          "internalType": "uint256[]",
          "name": "shares_",
          "type": "uint256[]"
        }
      ],
      "name": "_addPayees",
      "outputs": [],
      "stateMutability": "nonpayable",
      "type": "function"
    },
    {
      "inputs": [
        {
          "internalType": "uint256",
          "name": "tokenId_",
          "type": "uint256"
        },
        {
          "internalType": "address",
          "name": "slicerCreator_",
          "type": "address"
        },
        {
          "internalType": "uint256",
          "name": "minimumShares_",
          "type": "uint256"
        },
        {
          "internalType": "bool",
          "name": "isCollectible_",
          "type": "bool"
        }
      ],
      "name": "_initialize",
      "outputs": [],
      "stateMutability": "nonpayable",
      "type": "function"
    },
    {
      "inputs": [
        {
          "internalType": "address",
          "name": "account",
          "type": "address"
        },
        {
          "internalType": "uint32",
          "name": "productId",
          "type": "uint32"
        },
        {
          "internalType": "uint16",
          "name": "quantity",
          "type": "uint16"
        }
      ],
      "name": "_payProductFromSlice",
      "outputs": [],
      "stateMutability": "payable",
      "type": "function"
    },
    {
      "inputs": [
        {
          "internalType": "uint256",
          "name": "tokenId",
          "type": "uint256"
        },
        {
          "internalType": "address",
          "name": "account",
          "type": "address"
        },
        {
          "internalType": "uint32",
          "name": "productId",
          "type": "uint32"
        },
        {
          "internalType": "uint16",
          "name": "quantity",
          "type": "uint16"
        }
      ],
      "name": "_payProductFromSlicer",
      "outputs": [],
      "stateMutability": "payable",
      "type": "function"
    },
    {
      "inputs": [
        {
          "internalType": "address",
          "name": "accountFrom",
          "type": "address"
        },
        {
          "internalType": "address",
          "name": "accountTo",
          "type": "address"
        },
        {
          "internalType": "uint256",
          "name": "transferredShares",
          "type": "uint256"
        }
      ],
      "name": "_updatePayees",
      "outputs": [],
      "stateMutability": "nonpayable",
      "type": "function"
    },
    {
      "inputs": [
        {
          "internalType": "uint32",
          "name": "categoryIndex",
          "type": "uint32"
        },
        {
          "internalType": "uint256",
          "name": "price",
          "type": "uint256"
        },
        {
          "internalType": "bool",
          "name": "isUSD",
          "type": "bool"
        },
        {
          "internalType": "bool",
          "name": "isMultiple",
          "type": "bool"
        },
        {
          "internalType": "bool",
          "name": "isInfinite",
          "type": "bool"
        },
        {
          "internalType": "uint32",
          "name": "units",
          "type": "uint32"
        },
        {
          "internalType": "bytes",
          "name": "data",
          "type": "bytes"
        },
        {
          "internalType": "bytes",
          "name": "purchaseData",
          "type": "bytes"
        },
        {
          "internalType": "uint256[]",
          "name": "subSlicersId_",
          "type": "uint256[]"
        },
        {
          "internalType": "uint32[]",
          "name": "subProducts_",
          "type": "uint32[]"
        }
      ],
      "name": "addProduct",
      "outputs": [],
      "stateMutability": "nonpayable",
      "type": "function"
    },
    {
      "inputs": [
        {
          "internalType": "address",
          "name": "payee",
          "type": "address"
        }
      ],
      "name": "isPayeeAllowed",
      "outputs": [
        {
          "internalType": "bool",
          "name": "",
          "type": "bool"
        }
      ],
      "stateMutability": "view",
      "type": "function"
    },
    {
      "inputs": [
        {
          "internalType": "uint32",
          "name": "productId",
          "type": "uint32"
        }
      ],
      "name": "isProduct",
      "outputs": [],
      "stateMutability": "view",
      "type": "function"
    },
    {
      "inputs": [
        {
          "internalType": "address",
          "name": "",
          "type": "address"
        },
        {
          "internalType": "address",
          "name": "from",
          "type": "address"
        },
        {
          "internalType": "uint256[]",
          "name": "ids",
          "type": "uint256[]"
        },
        {
          "internalType": "uint256[]",
          "name": "amounts",
          "type": "uint256[]"
        },
        {
          "internalType": "bytes",
          "name": "",
          "type": "bytes"
        }
      ],
      "name": "onERC1155BatchReceived",
      "outputs": [
        {
          "internalType": "bytes4",
          "name": "",
          "type": "bytes4"
        }
      ],
      "stateMutability": "nonpayable",
      "type": "function"
    },
    {
      "inputs": [
        {
          "internalType": "address",
          "name": "",
          "type": "address"
        },
        {
          "internalType": "address",
          "name": "from",
          "type": "address"
        },
        {
          "internalType": "uint256",
          "name": "id",
          "type": "uint256"
        },
        {
          "internalType": "uint256",
          "name": "amount",
          "type": "uint256"
        },
        {
          "internalType": "bytes",
          "name": "",
          "type": "bytes"
        }
      ],
      "name": "onERC1155Received",
      "outputs": [
        {
          "internalType": "bytes4",
          "name": "",
          "type": "bytes4"
        }
      ],
      "stateMutability": "nonpayable",
      "type": "function"
    },
    {
      "inputs": [
        {
          "internalType": "address",
          "name": "",
          "type": "address"
        },
        {
          "internalType": "address",
          "name": "from",
          "type": "address"
        },
        {
          "internalType": "uint256",
          "name": "tokenId",
          "type": "uint256"
        },
        {
          "internalType": "bytes",
          "name": "",
          "type": "bytes"
        }
      ],
      "name": "onERC721Received",
      "outputs": [
        {
          "internalType": "bytes4",
          "name": "",
          "type": "bytes4"
        }
      ],
      "stateMutability": "nonpayable",
      "type": "function"
    },
    {
      "inputs": [],
      "name": "paused",
      "outputs": [
        {
          "internalType": "bool",
          "name": "",
          "type": "bool"
        }
      ],
      "stateMutability": "view",
      "type": "function"
    },
    {
      "inputs": [
        {
          "internalType": "uint32[]",
          "name": "serviceIds",
          "type": "uint32[]"
        },
        {
          "internalType": "uint16[]",
          "name": "quantities",
          "type": "uint16[]"
        }
      ],
      "name": "paySLC",
      "outputs": [],
      "stateMutability": "nonpayable",
      "type": "function"
    },
    {
      "inputs": [
        {
          "internalType": "uint32",
          "name": "productId",
          "type": "uint32"
        }
      ],
      "name": "productPrice",
      "outputs": [
        {
          "internalType": "uint256",
          "name": "price",
          "type": "uint256"
        }
      ],
      "stateMutability": "view",
      "type": "function"
    },
    {
      "inputs": [
        {
          "internalType": "address payable",
          "name": "account",
          "type": "address"
        }
      ],
      "name": "release",
      "outputs": [
        {
          "internalType": "uint256",
          "name": "",
          "type": "uint256"
        }
      ],
      "stateMutability": "nonpayable",
      "type": "function"
    },
    {
      "inputs": [
        {
          "internalType": "address",
          "name": "account",
          "type": "address"
        }
      ],
      "name": "released",
      "outputs": [
        {
          "internalType": "uint256",
          "name": "",
          "type": "uint256"
        }
      ],
      "stateMutability": "view",
      "type": "function"
    },
    {
      "inputs": [
        {
          "internalType": "uint32",
          "name": "productId",
          "type": "uint32"
        }
      ],
      "name": "removeProduct",
      "outputs": [],
      "stateMutability": "nonpayable",
      "type": "function"
    },
    {
      "inputs": [
        {
          "internalType": "uint32",
          "name": "productId",
          "type": "uint32"
        },
        {
          "internalType": "uint32",
          "name": "categoryIndex",
          "type": "uint32"
        }
      ],
      "name": "setProductCategory",
      "outputs": [],
      "stateMutability": "nonpayable",
      "type": "function"
    },
    {
      "inputs": [
        {
          "internalType": "uint32",
          "name": "productId",
          "type": "uint32"
        },
        {
          "internalType": "bool",
          "name": "isInfinite",
          "type": "bool"
        },
        {
          "internalType": "uint32",
          "name": "newUnits",
          "type": "uint32"
        },
        {
          "internalType": "uint256",
          "name": "newPrice",
          "type": "uint256"
        }
      ],
      "name": "setProductInfo",
      "outputs": [],
      "stateMutability": "nonpayable",
      "type": "function"
    },
    {
      "inputs": [],
      "name": "slicerInfo",
      "outputs": [
        {
          "internalType": "uint256",
          "name": "",
          "type": "uint256"
        },
        {
          "internalType": "uint8",
          "name": "version",
          "type": "uint8"
        },
        {
          "internalType": "address",
          "name": "creator",
          "type": "address"
        },
        {
          "internalType": "uint256",
          "name": "",
          "type": "uint256"
        }
      ],
      "stateMutability": "view",
      "type": "function"
    },
    {
      "inputs": [
        {
          "internalType": "bytes4",
          "name": "interfaceId",
          "type": "bytes4"
        }
      ],
      "name": "supportsInterface",
      "outputs": [
        {
          "internalType": "bool",
          "name": "",
          "type": "bool"
        }
      ],
      "stateMutability": "view",
      "type": "function"
    },
    {
      "inputs": [
        {
          "internalType": "uint32",
          "name": "productId",
          "type": "uint32"
        },
        {
          "internalType": "bool",
          "name": "isUSD",
          "type": "bool"
        }
      ],
      "name": "toggleUSDPrice",
      "outputs": [],
      "stateMutability": "nonpayable",
      "type": "function"
    },
    {
      "inputs": [],
      "name": "totalReceived",
      "outputs": [
        {
          "internalType": "uint256",
          "name": "",
          "type": "uint256"
        }
      ],
      "stateMutability": "view",
      "type": "function"
    },
    {
      "inputs": [
        {
          "internalType": "address",
          "name": "account",
          "type": "address"
        }
      ],
      "name": "unreleased",
      "outputs": [
        {
          "internalType": "uint256",
          "name": "",
          "type": "uint256"
        }
      ],
      "stateMutability": "view",
      "type": "function"
    },
    {
      "inputs": [
        {
          "internalType": "uint32",
          "name": "productId",
          "type": "uint32"
        }
      ],
      "name": "validatePurchase",
      "outputs": [
        {
          "internalType": "uint256",
          "name": "purchases",
          "type": "uint256"
        },
        {
          "internalType": "bytes",
          "name": "purchaseData",
          "type": "bytes"
        }
      ],
      "stateMutability": "view",
      "type": "function"
    },
    {
      "stateMutability": "payable",
      "type": "receive"
    }
  ],
  "bytecode": "0x608060405234801561001057600080fd5b506001805460ff19168155600255613a838061002d6000396000f3fe6080604052600436106101855760003560e01c8063957e07b6116100d1578063bc197c811161008a578063dd102d5e11610064578063dd102d5e14610548578063f23a6e6114610568578063f664929d14610588578063fd5e12e3146105a857600080fd5b8063bc197c81146104f5578063bf271aa614610515578063bfe5d8351461052857600080fd5b8063957e07b6146104045780639852595c14610447578063a3c2c46214610480578063b1b4735714610495578063b78ee767146104b5578063bbf2b488146104d557600080fd5b80633739e11b1161013e57806359bac56c1161011857806359bac56c146103995780635c975abb146103b95780636a54ead8146103d1578063800ddcaa146103e457600080fd5b80633739e11b1461033957806344eecfd014610359578063525e2ad51461037957600080fd5b806301ffc9a71461022d5780630c170ffd14610262578063150b7a021461028457806319165587146102bd5780632a67293d146102eb578063344603231461030b57600080fd5b366102285760015460ff16156101b65760405162461bcd60e51b81526004016101ad90613727565b60405180910390fd5b60006103e86101c66019346138cc565b6101d091906138aa565b90506101f073ae009d532328ff09e09e5d506ab5bbec3c25c0ff826105c8565b60405134815233907f6ef95f06320e7a25a04a175ca677b7052bdd97131872c2192525a629f51be7709060200160405180910390a250005b600080fd5b34801561023957600080fd5b5061024d61024836600461326e565b6106e6565b60405190151581526020015b60405180910390f35b34801561026e57600080fd5b5061028261027d366004613363565b61071d565b005b34801561029057600080fd5b506102a461029f366004612fa5565b61089c565b6040516001600160e01b03199091168152602001610259565b3480156102c957600080fd5b506102dd6102d8366004612e7c565b610920565b604051908152602001610259565b3480156102f757600080fd5b506102dd610306366004612e7c565b610a97565b34801561031757600080fd5b5061032b610326366004613363565b610b26565b6040516102599291906137f4565b34801561034557600080fd5b50610282610354366004613363565b610c58565b34801561036557600080fd5b506102826103743660046132b1565b610c93565b34801561038557600080fd5b50610282610394366004613402565b610d23565b3480156103a557600080fd5b5061024d6103b4366004612e7c565b61120b565b3480156103c557600080fd5b5060015460ff1661024d565b6102826103df366004613314565b6113d4565b3480156103f057600080fd5b506102826103ff36600461350e565b611485565b34801561041057600080fd5b5060045460035460055460408051938452600160208501526001600160a01b03909216918301919091526060820152608001610259565b34801561045357600080fd5b506102dd610462366004612e7c565b6001600160a01b031660009081526009602052604090206001015490565b34801561048c57600080fd5b506102dd61165c565b3480156104a157600080fd5b506102826104b0366004613188565b611671565b3480156104c157600080fd5b506102826104d03660046133b5565b611882565b3480156104e157600080fd5b506102826104f0366004612f64565b611ae3565b34801561050157600080fd5b506102a4610510366004612eb6565b611c31565b61028261052336600461307a565b611d67565b34801561053457600080fd5b506102dd610543366004613363565b611d92565b34801561055457600080fd5b5061028261056336600461337e565b612050565b34801561057457600080fd5b506102a4610583366004613011565b61234e565b34801561059457600080fd5b506102826105a33660046132ca565b612455565b3480156105b457600080fd5b506102826105c33660046130bf565b6124c1565b804710156106185760405162461bcd60e51b815260206004820152601d60248201527f416464726573733a20696e73756666696369656e742062616c616e636500000060448201526064016101ad565b6000826001600160a01b03168260405160006040518083038185875af1925050503d8060008114610665576040519150601f19603f3d011682016040523d82523d6000602084013e61066a565b606091505b50509050806106e15760405162461bcd60e51b815260206004820152603a60248201527f416464726573733a20756e61626c6520746f2073656e642076616c75652c207260448201527f6563697069656e74206d6179206861766520726576657274656400000000000060648201526084016101ad565b505050565b60006001600160e01b03198216630271189760e51b148061071757506301ffc9a760e01b6001600160e01b03198316145b92915050565b63ffffffff811660009081526020819052604090206001015481906107545760405162461bcd60e51b81526004016101ad906136a7565b63ffffffff8216600090815260208190526040902060020154829061078890600160381b90046001600160a01b031661120b565b156107d95763ffffffff8116600090815260208190526040902060020154600160381b90046001600160a01b031633146107d45760405162461bcd60e51b81526004016101ad90613751565b610803565b6107e23361120b565b15156001146108035760405162461bcd60e51b81526004016101ad906136fc565b63ffffffff8316600081815260208181526040808320805463ffffffff19168155600181018490556002810180546301000000600160d81b03191690558151808401928390528481529484529290915291516108659260039092019190612c64565b5060405163ffffffff8416907f761b291efc1cf42f36eac86ac2f397b06b9606dfb16059c83eb3ab8cc7e53e3090600090a2505050565b600354600090600160a01b900460ff161580156108bd57506108bd8461120b565b6108c657600080fd5b604080513381526001600160a01b03861660208201529081018490527f941a9d9a9af7f97737c018d13918859e12f44e16c4b4c6ac922dacf021cfbf149060600160405180910390a150630a85bd0160e11b949350505050565b60006002805414156109745760405162461bcd60e51b815260206004820152601f60248201527f5265656e7472616e637947756172643a207265656e7472616e742063616c6c0060448201526064016101ad565b60028055600061098383610a97565b9050806109c75760405162461bcd60e51b81526020600482015260126024820152715061796d656e74206973206e6f742064756560701b60448201526064016101ad565b6001600160a01b038316600090815260096020526040812080548392906109ef90849061386a565b90915550506001600160a01b038316600090815260096020526040902081906001016000828254610a20919061386a565b925050819055508060076000828254610a39919061386a565b90915550610a49905083826105c8565b826001600160a01b03167fd01a8cc9ab129109f449ed0a777705c57b0aa086d3e08fe4a8de773b397143e782604051610a8491815260200190565b60405180910390a2600160025592915050565b6006546001600160a01b03821660009081526008602052604081205490918291610abf61165c565b610ac991906138cc565b610ad391906138aa565b6001600160a01b0384166000908152600960205260409020549091508111610afc576000610b1f565b6001600160a01b038316600090815260096020526040902054610b1f90826138eb565b9392505050565b63ffffffff808216600090815260208181526040808320338452600501909152812054909160609116610b8f5760405162461bcd60e51b8152602060048201526011602482015270139bdd081c1d5c98da185cd959081e595d607a1b60448201526064016101ad565b63ffffffff8084166000818152602081815260408083203384526005810183529083205493835291905260040180549190921691908190610bcf90613953565b80601f0160208091040260200160405190810160405280929190818152602001828054610bfb90613953565b8015610c485780601f10610c1d57610100808354040283529160200191610c48565b820191906000526020600020905b815481529060010190602001808311610c2b57829003601f168201915b5050505050905091509150915091565b63ffffffff81166000908152602081905260409020600101548190610c8f5760405162461bcd60e51b81526004016101ad906136a7565b5050565b60015460ff1615610cb65760405162461bcd60e51b81526004016101ad90613727565b3373eb46e6d1f0620fe7bb255b83eff9b844edc9784114610ce95760405162461bcd60e51b81526004016101ad906136d6565b610cf4600a82612632565b5060405181907f0d29335611f0a3110c445dd4bbfb88a2cde38f18cf9cf36d6154d714cb097c5b90600090a250565b610d2c3361120b565b610d485760405162461bcd60e51b81526004016101ad906136fc565b60008911610d8e5760405162461bcd60e51b815260206004820152601360248201527241646420612070726f6475637420707269636560681b60448201526064016101ad565b610d9c600c80546001019055565b6000610da7600c5490565b63ffffffff80821660009081526020819052604090209192508c1615610dd157610dd1828d611485565b83511561107657835160141015610e2a5760405162461bcd60e51b815260206004820152601760248201527f4d617820737562736c696365727320657863656564656400000000000000000060448201526064016101ad565b8251845114610e7b5760405162461bcd60e51b815260206004820152601760248201527f496e7075747320646f6e277420636f72726573706f6e6400000000000000000060448201526064016101ad565b73fb57bf285f041b4d24b5dfa53c090b334029a64a60005b85518160ff161015611073576000826001600160a01b031663175fa7ea888460ff1681518110610ec557610ec56139fb565b60200260200101516040518263ffffffff1660e01b8152600401610eeb91815260200190565b60206040518083038186803b158015610f0357600080fd5b505afa158015610f17573d6000803e3d6000fd5b505050506040513d601f19601f82011682018060405250810190610f3b9190612e99565b9050806001600160a01b0316633739e11b878460ff1681518110610f6157610f616139fb565b60200260200101516040518263ffffffff1660e01b8152600401610f91919063ffffffff91909116815260200190565b60006040518083038186803b158015610fa957600080fd5b505afa158015610fbd573d6000803e3d6000fd5b505050506006840180546001810182556000918252602080832090910180546001600160a01b0319166001600160a01b0385169081179091558252600786019052604090208651879060ff8516908110611019576110196139fb565b60209081029190910181015182546001810184556000938452919092206008820401805460079092166004026101000a63ffffffff818102199093169290931692909202179055508061106b816139c5565b915050610e93565b50505b8b8160000160006101000a81548163ffffffff021916908363ffffffff1602179055508a8160010181905550898160020160006101000a81548160ff021916908315150217905550888160020160016101000a81548160ff021916908315150217905550878160020160026101000a81548160ff021916908315150217905550338160020160076101000a8154816001600160a01b0302191690836001600160a01b0316021790555085816003019080519060200190611137929190612c64565b50845161114d9060048301906020880190612c64565b50871561116b5760028101805466ffffffff0000001916905561118c565b60028101805466ffffffff0000001916630100000063ffffffff8a16021790555b336001600160a01b03168c63ffffffff168363ffffffff167f187c18d66acd4fc31dae101d63e1343e7c24743a802cbb44b8b813101cf58b788e8e8e8e8860020160039054906101000a900463ffffffff168e8d8d6040516111f598979695949392919061377f565b60405180910390a4505050505050505050505050565b6005546001600160a01b03821660009081526008602052604081205490911161123657506001919050565b6000611242600a61263e565b11156113cc5773eb46e6d1f0620fe7bb255b83eff9b844edc9784160005b61126a600a61263e565b8161ffff1610156113c95760006001600160a01b03831663175fa7ea611295600a61ffff8616612648565b6040518263ffffffff1660e01b81526004016112b391815260200190565b60206040518083038186803b1580156112cb57600080fd5b505afa1580156112df573d6000803e3d6000fd5b505050506040513d601f19601f820116820180604052508101906113039190612e99565b6005546001600160a01b038216600090815260086020526040902054919250116113b65760405163166eb15b60e21b81526001600160a01b0386811660048301528291908216906359bac56c9060240160206040518083038186803b15801561136b57600080fd5b505afa15801561137f573d6000803e3d6000fd5b505050506040513d601f19601f820116820180604052508101906113a39190613251565b156113b45750600195945050505050565b505b50806113c181613988565b915050611260565b50505b506000919050565b604051630bafd3f560e11b81526004810185905273eb46e6d1f0620fe7bb255b83eff9b844edc978419063175fa7ea9060240160206040518083038186803b15801561141f57600080fd5b505afa158015611433573d6000803e3d6000fd5b505050506040513d601f19601f820116820180604052508101906114579190612e99565b6001600160a01b0316336001600160a01b03161461147457600080fd5b61147f838383612654565b50505050565b61148e3361120b565b8061149857503330145b6114b45760405162461bcd60e51b81526004016101ad906136fc565b73fb57bf285f041b4d24b5dfa53c090b334029a64a63ffffffff82161580611563575060405163588d1be760e01b815263ffffffff831660048201526000906001600160a01b0383169063588d1be79060240160206040518083038186803b15801561151f57600080fd5b505afa158015611533573d6000803e3d6000fd5b505050506040513d601f19601f820116820180604052508101906115579190612e99565b6001600160a01b031614155b6115a75760405162461bcd60e51b81526020600482015260156024820152744e6f6e2d6578697374656e742063617465676f727960581b60448201526064016101ad565b60405163392d518560e21b815263ffffffff8316600482015273eb46e6d1f0620fe7bb255b83eff9b844edc978419063e4b5461490602401600060405180830381600087803b1580156115f957600080fd5b505af115801561160d573d6000803e3d6000fd5b505033301491506106e190505760405163ffffffff83811682528416907f06430051821ecb8819b754999dfd1a452d9907849169f3ca411dc854bdb0f2b29060200160405180910390a2505050565b60006007544761166c919061386a565b905090565b61167a3361120b565b6116965760405162461bcd60e51b81526004016101ad906136fc565b73b9187815baffac73ddcceb9866ace8e5137a21e56000805b84518161ffff1610156117ab57838161ffff16815181106116d2576116d26139fb565b602002602001015161ffff16836001600160a01b0316633941a604878461ffff1681518110611703576117036139fb565b60200260200101516040518263ffffffff1660e01b8152600401611733919063ffffffff91909116815260200190565b60206040518083038186803b15801561174b57600080fd5b505afa15801561175f573d6000803e3d6000fd5b505050506040513d601f19601f820116820180604052508101906117839190613298565b61178d91906138cc565b611797908361386a565b9150806117a381613988565b9150506116af565b5060405163a9059cbb60e01b815273ae009d532328ff09e09e5d506ab5bbec3c25c0ff6004820152602481018290526001600160a01b0383169063a9059cbb90604401602060405180830381600087803b15801561180857600080fd5b505af115801561181c573d6000803e3d6000fd5b505050506040513d601f19601f820116820180604052508101906118409190613251565b507fd0e7280fe218f387be224105631180630e7d8cdb9d48bbc504aa1584cf8d62d584848360405161187493929190613643565b60405180910390a150505050565b63ffffffff841660009081526020819052604090206001015484906118b95760405162461bcd60e51b81526004016101ad906136a7565b63ffffffff851660009081526020819052604090206002015485906118ed90600160381b90046001600160a01b031661120b565b1561193e5763ffffffff8116600090815260208190526040902060020154600160381b90046001600160a01b031633146119395760405162461bcd60e51b81526004016101ad90613751565b611968565b6119473361120b565b15156001146119685760405162461bcd60e51b81526004016101ad906136fc565b600083118015611990575063ffffffff86166000908152602081905260409020600101548311155b6119d45760405162461bcd60e51b8152602060048201526015602482015274496e76616c69642070726f6475637420707269636560581b60448201526064016101ad565b63ffffffff8616600090815260208190526040902060028101805487158015620100000262ff000019909216919091179091556001909101849055611a3e5763ffffffff86166000908152602081905260409020600201805466ffffffff00000019169055611a75565b63ffffffff8087166000908152602081905260409020600201805491861663010000000266ffffffff000000199092169190911790555b63ffffffff868116600081815260208181526040918290206002015482518a151581526301000000909104909416908401528201859052907f1abdbaff3523be69e62e6a19e7ec8f2972a1e6f84f79517dbca0f63b8d852df3906060015b60405180910390a2505050505050565b60015460ff1615611b065760405162461bcd60e51b81526004016101ad90613727565b3373eb46e6d1f0620fe7bb255b83eff9b844edc9784114611b395760405162461bcd60e51b81526004016101ad906136d6565b6001600160a01b0383166000908152600860209081526040808320546009909252822054611b689084906138cc565b611b7291906138aa565b6001600160a01b03841660009081526009602052604081209192508291016000828254611b9f919061386a565b90915550506001600160a01b03841660009081526009602052604081208054839290611bcc9084906138eb565b90915550506001600160a01b03841660009081526008602052604081208054849290611bf99084906138eb565b90915550506001600160a01b03831660009081526008602052604081208054849290611c2690849061386a565b909155505050505050565b6000611c3f60015460ff1690565b15611c5c5760405162461bcd60e51b81526004016101ad90613727565b600354600160a01b900460ff1615611c7357600080fd5b3373fb57bf285f041b4d24b5dfa53c090b334029a64a1415611d185760005b8451811015611d1657611cc8858281518110611cb057611cb06139fb565b6020026020010151600a612b7790919063ffffffff16565b15611d045760405162461bcd60e51b815260206004820152600c60248201526b05061796d656e74206c6f6f760a41b60448201526064016101ad565b80611d0e816139aa565b915050611c92565b505b7f1edfbe4132ea17d8154ccc1c03cdbf3f2406087a6989a7d7ebe742504adeb54633868686604051611d4d94939291906135fa565b60405180910390a15063bc197c8160e01b95945050505050565b3373eb46e6d1f0620fe7bb255b83eff9b844edc9784114611d8757600080fd5b6106e1838383612654565b63ffffffff81166000908152602081905260408120600101548290611dc95760405162461bcd60e51b81526004016101ad906136a7565b63ffffffff83166000908152602081905260408120600181015460029091015490919060ff1615611ebe57600073eb46e6d1f0620fe7bb255b83eff9b844edc978419050806001600160a01b031663bb27e0ce6040518163ffffffff1660e01b815260040160206040518083038186803b158015611e4657600080fd5b505afa158015611e5a573d6000803e3d6000fd5b505050506040513d601f19601f82011682018060405250810190611e7e9190613298565b63ffffffff87166000908152602081905260409020600101549092508290611eb09069d3c21bcecceda10000006138cc565b611eba91906138aa565b9250505b63ffffffff8516600090815260208190526040902060060154156120465760005b63ffffffff861660009081526020819052604090206006015460ff821610156120445763ffffffff86166000908152602081905260408120600601805460ff8416908110611f2f57611f2f6139fb565b600091825260208083209091015463ffffffff8a16835282825260408084206001600160a01b03909216808552600790920190925290822080549193509060ff8516908110611f8057611f806139fb565b6000918252602090912060088204015460405163bfe5d83560e01b8152600790921660049081026101000a90910463ffffffff16908201819052915082906001600160a01b0382169063bfe5d8359060240160206040518083038186803b158015611fea57600080fd5b505afa158015611ffe573d6000803e3d6000fd5b505050506040513d601f19601f820116820180604052508101906120229190613298565b61202c908761386a565b9550505050808061203c906139c5565b915050611edf565b505b5091505b50919050565b63ffffffff821660009081526020819052604090206001015482906120875760405162461bcd60e51b81526004016101ad906136a7565b63ffffffff831660009081526020819052604090206002015483906120bb90600160381b90046001600160a01b031661120b565b1561210c5763ffffffff8116600090815260208190526040902060020154600160381b90046001600160a01b031633146121075760405162461bcd60e51b81526004016101ad90613751565b612136565b6121153361120b565b15156001146121365760405162461bcd60e51b81526004016101ad906136fc565b63ffffffff841660009081526020819052604090206002015460ff16151583151514156121975760405162461bcd60e51b815260206004820152600f60248201526e14d85b59481c1c9a58d9481d5b9a5d608a1b60448201526064016101ad565b600073eb46e6d1f0620fe7bb255b83eff9b844edc978416001600160a01b031663bb27e0ce6040518163ffffffff1660e01b815260040160206040518083038186803b1580156121e657600080fd5b505afa1580156121fa573d6000803e3d6000fd5b505050506040513d601f19601f8201168201806040525081019061221e9190613298565b63ffffffff861660009081526020819052604090206001015490915084156122b157600064e8d4a510008361225382856138aa565b61225d91906138cc565b61226791906138aa565b9050801561228f5763ffffffff871660009081526020819052604090206001018190556122ab565b63ffffffff871660009081526020819052604090206001908101555b506122ed565b6000826122c88369d3c21bcecceda10000006138cc565b6122d291906138aa565b63ffffffff8816600090815260208190526040902060010155505b63ffffffff86166000818152602081815260409182902060028101805460ff19168a15159081179091556001909101548351908152918201527f9313b010c2388a1c2903afa4afe83485c3f52d0a177eda33cc12b480cee4be309101611ad3565b600061235c60015460ff1690565b156123795760405162461bcd60e51b81526004016101ad90613727565b600354600160a01b900460ff161561239057600080fd5b3373fb57bf285f041b4d24b5dfa53c090b334029a64a14156123f3576123b7600a85612b77565b156123f35760405162461bcd60e51b815260206004820152600c60248201526b05061796d656e74206c6f6f760a41b60448201526064016101ad565b604080513381526001600160a01b0387166020820152908101859052606081018490527ffae60880665b87af033fc873390c3749e126b4cd010b87a7f1191dbd2b32f1979060800160405180910390a15063f23a6e6160e01b95945050505050565b3373eb46e6d1f0620fe7bb255b83eff9b844edc97841146124885760405162461bcd60e51b81526004016101ad906136d6565b60049390935560038054600592909255921515600160a01b026001600160a81b03199091166001600160a01b0390921691909117179055565b60015460ff16156124e45760405162461bcd60e51b81526004016101ad90613727565b3373eb46e6d1f0620fe7bb255b83eff9b844edc97841146125175760405162461bcd60e51b81526004016101ad906136d6565b60005b82518161ffff1610156106e15760006001600160a01b0316838261ffff1681518110612548576125486139fb565b60200260200101516001600160a01b0316141561256457600080fd5b6000828261ffff168151811061257c5761257c6139fb565b60200260200101511161258e57600080fd5b818161ffff16815181106125a4576125a46139fb565b602002602001015160086000858461ffff16815181106125c6576125c66139fb565b60200260200101516001600160a01b03166001600160a01b0316815260200190815260200160002081905550818161ffff1681518110612608576126086139fb565b602002602001015160065461261d919061386a565b6006558061262a81613988565b91505061251a565b6000610b1f8383612b8f565b6000610717825490565b6000610b1f8383612bde565b63ffffffff8216600090815260208190526040902060010154829061268b5760405162461bcd60e51b81526004016101ad906136a7565b61ffff821661269957600080fd5b63ffffffff8316600090815260208190526040902060020154610100900460ff1661274f5763ffffffff8084166000908152602081815260408083206001600160a01b03891684526005019091529020546126fa9161ffff85169116613882565b63ffffffff1660011461274f5760405162461bcd60e51b815260206004820152601960248201527f4d6178696d756d207175616e746974792065786365656465640000000000000060448201526064016101ad565b63ffffffff8084166000908152602081815260408083206001600160a01b03891684526005019091528120805461ffff86169391929161279191859116613882565b92506101000a81548163ffffffff021916908363ffffffff1602179055506000808463ffffffff1663ffffffff16815260200190815260200160002060020160029054906101000a900460ff166128ad5763ffffffff808416600090815260208190526040902060020154630100000090041661ffff831611156128575760405162461bcd60e51b815260206004820152601860248201527f417661696c61626c6520756e697473206578636565646564000000000000000060448201526064016101ad565b63ffffffff8084166000908152602081905260409020600201805461ffff85169260039161288e9185916301000000900416613902565b92506101000a81548163ffffffff021916908363ffffffff1602179055505b63ffffffff831660009081526020819052604081206006015415612b0e5760005b63ffffffff851660009081526020819052604090206006015460ff82161015612b0c5763ffffffff85166000908152602081905260408120600601805460ff841690811061291e5761291e6139fb565b600091825260208083209091015463ffffffff8916835282825260408084206001600160a01b03909216808552600790920190925290822080549193509060ff851690811061296f5761296f6139fb565b60009182526020822060088204015460405163bfe5d83560e01b8152600790921660049081026101000a90910463ffffffff16908201819052925083919061ffff8916906001600160a01b0384169063bfe5d8359060240160206040518083038186803b1580156129df57600080fd5b505afa1580156129f3573d6000803e3d6000fd5b505050506040513d601f19601f82011682018060405250810190612a179190613298565b612a2191906138cc565b60045460405160248101919091526001600160a01b038c8116604483015263ffffffff8616606483015261ffff8b166084830152919250600091861690839060a40160408051601f198184030181529181526020820180516001600160e01b0316630d4a9d5b60e31b17905251612a9891906135de565b60006040518083038185875af1925050503d8060008114612ad5576040519150601f19603f3d011682016040523d82523d6000602084013e612ada565b606091505b5050905080612ae857600080fd5b612af2828861386a565b965050505050508080612b04906139c5565b9150506128ce565b505b612b2130612b1c83346138eb565b6105c8565b6040805161ffff8516815234602082015263ffffffff8616916001600160a01b038816917fcb35e6328d171aabe8c666c3fcc2ba3401887c5504bf5dfaa8b8c3be5ced01bc910160405180910390a35050505050565b60008181526001830160205260408120541515610b1f565b6000818152600183016020526040812054612bd657508154600181810184556000848152602080822090930184905584548482528286019093526040902091909155610717565b506000610717565b81546000908210612c3c5760405162461bcd60e51b815260206004820152602260248201527f456e756d657261626c655365743a20696e646578206f7574206f6620626f756e604482015261647360f01b60648201526084016101ad565b826000018281548110612c5157612c516139fb565b9060005260206000200154905092915050565b828054612c7090613953565b90600052602060002090601f016020900481019282612c925760008555612cd8565b82601f10612cab57805160ff1916838001178555612cd8565b82800160010185558215612cd8579182015b82811115612cd8578251825591602001919060010190612cbd565b50612ce4929150612ce8565b5090565b5b80821115612ce45760008155600101612ce9565b600082601f830112612d0e57600080fd5b81356020612d23612d1e83613846565b613815565b80838252828201915082860187848660051b8901011115612d4357600080fd5b60005b85811015612d6257813584529284019290840190600101612d46565b5090979650505050505050565b600082601f830112612d8057600080fd5b81356020612d90612d1e83613846565b80838252828201915082860187848660051b8901011115612db057600080fd5b60005b85811015612d6257612dc482612e68565b84529284019290840190600101612db3565b8035612de181613a3f565b919050565b600082601f830112612df757600080fd5b813567ffffffffffffffff811115612e1157612e11613a11565b612e24601f8201601f1916602001613815565b818152846020838601011115612e3957600080fd5b816020850160208301376000918101602001919091529392505050565b803561ffff81168114612de157600080fd5b803563ffffffff81168114612de157600080fd5b600060208284031215612e8e57600080fd5b8135610b1f81613a27565b600060208284031215612eab57600080fd5b8151610b1f81613a27565b600080600080600060a08688031215612ece57600080fd5b8535612ed981613a27565b94506020860135612ee981613a27565b9350604086013567ffffffffffffffff80821115612f0657600080fd5b612f1289838a01612cfd565b94506060880135915080821115612f2857600080fd5b612f3489838a01612cfd565b93506080880135915080821115612f4a57600080fd5b50612f5788828901612de6565b9150509295509295909350565b600080600060608486031215612f7957600080fd5b8335612f8481613a27565b92506020840135612f9481613a27565b929592945050506040919091013590565b60008060008060808587031215612fbb57600080fd5b8435612fc681613a27565b93506020850135612fd681613a27565b925060408501359150606085013567ffffffffffffffff811115612ff957600080fd5b61300587828801612de6565b91505092959194509250565b600080600080600060a0868803121561302957600080fd5b853561303481613a27565b9450602086013561304481613a27565b93506040860135925060608601359150608086013567ffffffffffffffff81111561306e57600080fd5b612f5788828901612de6565b60008060006060848603121561308f57600080fd5b833561309a81613a27565b92506130a860208501612e68565b91506130b660408501612e56565b90509250925092565b600080604083850312156130d257600080fd5b823567ffffffffffffffff808211156130ea57600080fd5b818501915085601f8301126130fe57600080fd5b8135602061310e612d1e83613846565b8083825282820191508286018a848660051b890101111561312e57600080fd5b600096505b8487101561315a57803561314681613a27565b835260019690960195918301918301613133565b509650508601359250508082111561317157600080fd5b5061317e85828601612cfd565b9150509250929050565b6000806040838503121561319b57600080fd5b823567ffffffffffffffff808211156131b357600080fd5b6131bf86838701612d6f565b93506020915081850135818111156131d657600080fd5b85019050601f810186136131e957600080fd5b80356131f7612d1e82613846565b80828252848201915084840189868560051b870101111561321757600080fd5b600094505b838510156132415761322d81612e56565b83526001949094019391850191850161321c565b5080955050505050509250929050565b60006020828403121561326357600080fd5b8151610b1f81613a3f565b60006020828403121561328057600080fd5b81356001600160e01b031981168114610b1f57600080fd5b6000602082840312156132aa57600080fd5b5051919050565b6000602082840312156132c357600080fd5b5035919050565b600080600080608085870312156132e057600080fd5b8435935060208501356132f281613a27565b925060408501359150606085013561330981613a3f565b939692955090935050565b6000806000806080858703121561332a57600080fd5b84359350602085013561333c81613a27565b925061334a60408601612e68565b915061335860608601612e56565b905092959194509250565b60006020828403121561337557600080fd5b610b1f82612e68565b6000806040838503121561339157600080fd5b61339a83612e68565b915060208301356133aa81613a3f565b809150509250929050565b600080600080608085870312156133cb57600080fd5b6133d485612e68565b935060208501356133e481613a3f565b92506133f260408601612e68565b9396929550929360600135925050565b6000806000806000806000806000806101408b8d03121561342257600080fd5b61342b8b612e68565b995060208b0135985061344060408c01612dd6565b975061344e60608c01612dd6565b965061345c60808c01612dd6565b955061346a60a08c01612e68565b945060c08b013567ffffffffffffffff8082111561348757600080fd5b6134938e838f01612de6565b955060e08d01359150808211156134a957600080fd5b6134b58e838f01612de6565b94506101008d01359150808211156134cc57600080fd5b6134d88e838f01612cfd565b93506101208d01359150808211156134ef57600080fd5b506134fc8d828e01612d6f565b9150509295989b9194979a5092959850565b6000806040838503121561352157600080fd5b61352a83612e68565b915061353860208401612e68565b90509250929050565b600081518084526020808501945080840160005b8381101561357157815187529582019590820190600101613555565b509495945050505050565b600081518084526020808501945080840160005b8381101561357157815163ffffffff1687529582019590820190600101613590565b600081518084526135ca816020860160208601613927565b601f01601f19169290920160200192915050565b600082516135f0818460208701613927565b9190910192915050565b6001600160a01b0385811682528416602082015260806040820181905260009061362690830185613541565b82810360608401526136388185613541565b979650505050505050565b606081526000613656606083018661357c565b82810360208481019190915285518083528682019282019060005b8181101561369157845161ffff1683529383019391830191600101613671565b5050809350505050826040830152949350505050565b602080825260159082015274141c9bd91d58dd08191bd95cdb89dd08195e1a5cdd605a1b604082015260600190565b6020808252600c908201526b155b985d5d1a1bdc9a5e995960a21b604082015260600190565b6020808252601190820152704e6f7420656e6f75676820736c6963657360781b604082015260600190565b60208082526010908201526f14185d5cd8589b194e881c185d5cd95960821b604082015260600190565b60208082526014908201527313db9b1e4818dc99585d1bdc88185b1b1bddd95960621b604082015260600190565b60006101008a835289151560208401528815156040840152871515606084015263ffffffff871660808401528060a08401526137bd818401876135b2565b905082810360c08401526137d18186613541565b905082810360e08401526137e5818561357c565b9b9a5050505050505050505050565b82815260406020820152600061380d60408301846135b2565b949350505050565b604051601f8201601f1916810167ffffffffffffffff8111828210171561383e5761383e613a11565b604052919050565b600067ffffffffffffffff82111561386057613860613a11565b5060051b60200190565b6000821982111561387d5761387d6139e5565b500190565b600063ffffffff8083168185168083038211156138a1576138a16139e5565b01949350505050565b6000826138c757634e487b7160e01b600052601260045260246000fd5b500490565b60008160001904831182151516156138e6576138e66139e5565b500290565b6000828210156138fd576138fd6139e5565b500390565b600063ffffffff8381169083168181101561391f5761391f6139e5565b039392505050565b60005b8381101561394257818101518382015260200161392a565b8381111561147f5750506000910152565b600181811c9082168061396757607f821691505b6020821081141561204a57634e487b7160e01b600052602260045260246000fd5b600061ffff808316818114156139a0576139a06139e5565b6001019392505050565b60006000198214156139be576139be6139e5565b5060010190565b600060ff821660ff8114156139dc576139dc6139e5565b60010192915050565b634e487b7160e01b600052601160045260246000fd5b634e487b7160e01b600052603260045260246000fd5b634e487b7160e01b600052604160045260246000fd5b6001600160a01b0381168114613a3c57600080fd5b50565b8015158114613a3c57600080fdfea26469706673582212204d296ae8c0b02e2457d361493bd8b63c4f89aa30c1596a91e5b6e401c46a5a1064736f6c63430008070033",
  "linkReferences": {},
  "deployedLinkReferences": {}
}