{
  "_format": "hh-sol-artifact-1",
  "contractName": "SliceCore",
  "sourceName": "contracts/sliceCore_v0.sol",
  "abi": [
    {
      "anonymous": false,
      "inputs": [
        {
          "indexed": false,
          "internalType": "address",
          "name": "previousAdmin",
          "type": "address"
        },
        {
          "indexed": false,
          "internalType": "address",
          "name": "newAdmin",
          "type": "address"
        }
      ],
      "name": "AdminChanged",
      "type": "event"
    },
    {
      "anonymous": false,
      "inputs": [
        {
          "indexed": true,
          "internalType": "address",
          "name": "account",
          "type": "address"
        },
        {
          "indexed": true,
          "internalType": "address",
          "name": "operator",
          "type": "address"
        },
        {
          "indexed": false,
          "internalType": "bool",
          "name": "approved",
          "type": "bool"
        }
      ],
      "name": "ApprovalForAll",
      "type": "event"
    },
    {
      "anonymous": false,
      "inputs": [
        {
          "indexed": true,
          "internalType": "address",
          "name": "beacon",
          "type": "address"
        }
      ],
      "name": "BeaconUpgraded",
      "type": "event"
    },
    {
      "anonymous": false,
      "inputs": [
        {
          "indexed": true,
          "internalType": "address",
          "name": "previousOwner",
          "type": "address"
        },
        {
          "indexed": true,
          "internalType": "address",
          "name": "newOwner",
          "type": "address"
        }
      ],
      "name": "OwnershipTransferred",
      "type": "event"
    },
    {
      "anonymous": false,
      "inputs": [
        {
          "indexed": false,
          "internalType": "address",
          "name": "account",
          "type": "address"
        }
      ],
      "name": "Paused",
      "type": "event"
    },
    {
      "anonymous": false,
      "inputs": [
        {
          "indexed": true,
          "internalType": "address",
          "name": "operator",
          "type": "address"
        },
        {
          "indexed": true,
          "internalType": "address",
          "name": "from",
          "type": "address"
        },
        {
          "indexed": true,
          "internalType": "address",
          "name": "to",
          "type": "address"
        },
        {
          "indexed": false,
          "internalType": "uint256[]",
          "name": "ids",
          "type": "uint256[]"
        },
        {
          "indexed": false,
          "internalType": "uint256[]",
          "name": "values",
          "type": "uint256[]"
        }
      ],
      "name": "TransferBatch",
      "type": "event"
    },
    {
      "anonymous": false,
      "inputs": [
        {
          "indexed": true,
          "internalType": "address",
          "name": "operator",
          "type": "address"
        },
        {
          "indexed": true,
          "internalType": "address",
          "name": "from",
          "type": "address"
        },
        {
          "indexed": true,
          "internalType": "address",
          "name": "to",
          "type": "address"
        },
        {
          "indexed": false,
          "internalType": "uint256",
          "name": "id",
          "type": "uint256"
        },
        {
          "indexed": false,
          "internalType": "uint256",
          "name": "value",
          "type": "uint256"
        }
      ],
      "name": "TransferSingle",
      "type": "event"
    },
    {
      "anonymous": false,
      "inputs": [
        {
          "indexed": false,
          "internalType": "string",
          "name": "value",
          "type": "string"
        },
        {
          "indexed": true,
          "internalType": "uint256",
          "name": "id",
          "type": "uint256"
        }
      ],
      "name": "URI",
      "type": "event"
    },
    {
      "anonymous": false,
      "inputs": [
        {
          "indexed": false,
          "internalType": "address",
          "name": "account",
          "type": "address"
        }
      ],
      "name": "Unpaused",
      "type": "event"
    },
    {
      "anonymous": false,
      "inputs": [
        {
          "indexed": true,
          "internalType": "address",
          "name": "implementation",
          "type": "address"
        }
      ],
      "name": "Upgraded",
      "type": "event"
    },
    {
      "inputs": [
        {
          "internalType": "address",
          "name": "categoryAddress_",
          "type": "address"
        }
      ],
      "name": "_addCategory",
      "outputs": [],
      "stateMutability": "nonpayable",
      "type": "function"
    },
    {
      "inputs": [
        {
          "internalType": "uint32",
          "name": "categoryIndex",
          "type": "uint32"
        },
        {
          "internalType": "address",
          "name": "newCategoryAddress",
          "type": "address"
        }
      ],
      "name": "_changeCategoryAddress",
      "outputs": [],
      "stateMutability": "nonpayable",
      "type": "function"
    },
    {
      "inputs": [
        {
          "internalType": "address",
          "name": "account",
          "type": "address"
        },
        {
          "internalType": "uint256",
          "name": "id",
          "type": "uint256"
        },
        {
          "internalType": "uint256",
          "name": "amount",
          "type": "uint256"
        },
        {
          "internalType": "address",
          "name": "slicerAddress",
          "type": "address"
        }
      ],
      "name": "_mintSlice",
      "outputs": [],
      "stateMutability": "nonpayable",
      "type": "function"
    },
    {
      "inputs": [
        {
          "internalType": "string",
          "name": "basePath_",
          "type": "string"
        }
      ],
      "name": "_setBasePath",
      "outputs": [],
      "stateMutability": "nonpayable",
      "type": "function"
    },
    {
      "inputs": [
        {
          "internalType": "uint16",
          "name": "newValue",
          "type": "uint16"
        }
      ],
      "name": "_setMaximumTransferBatch",
      "outputs": [],
      "stateMutability": "nonpayable",
      "type": "function"
    },
    {
      "inputs": [],
      "name": "_togglePause",
      "outputs": [],
      "stateMutability": "nonpayable",
      "type": "function"
    },
    {
      "inputs": [
        {
          "internalType": "address",
          "name": "account",
          "type": "address"
        },
        {
          "internalType": "uint256",
          "name": "id",
          "type": "uint256"
        }
      ],
      "name": "balanceOf",
      "outputs": [
        {
          "internalType": "uint256",
          "name": "",
          "type": "uint256"
        }
      ],
      "stateMutability": "view",
      "type": "function"
    },
    {
      "inputs": [
        {
          "internalType": "address[]",
          "name": "accounts",
          "type": "address[]"
        },
        {
          "internalType": "uint256[]",
          "name": "ids",
          "type": "uint256[]"
        }
      ],
      "name": "balanceOfBatch",
      "outputs": [
        {
          "internalType": "uint256[]",
          "name": "",
          "type": "uint256[]"
        }
      ],
      "stateMutability": "view",
      "type": "function"
    },
    {
      "inputs": [
        {
          "internalType": "uint32",
          "name": "categoryIndex",
          "type": "uint32"
        }
      ],
      "name": "categoryAddress",
      "outputs": [
        {
          "internalType": "address",
          "name": "",
          "type": "address"
        }
      ],
      "stateMutability": "view",
      "type": "function"
    },
    {
      "inputs": [
        {
          "internalType": "uint256",
          "name": "id",
          "type": "uint256"
        }
      ],
      "name": "exists",
      "outputs": [
        {
          "internalType": "bool",
          "name": "",
          "type": "bool"
        }
      ],
      "stateMutability": "view",
      "type": "function"
    },
    {
      "inputs": [],
      "name": "initialize",
      "outputs": [],
      "stateMutability": "nonpayable",
      "type": "function"
    },
    {
      "inputs": [
        {
          "internalType": "address",
          "name": "account",
          "type": "address"
        },
        {
          "internalType": "address",
          "name": "operator",
          "type": "address"
        }
      ],
      "name": "isApprovedForAll",
      "outputs": [
        {
          "internalType": "bool",
          "name": "",
          "type": "bool"
        }
      ],
      "stateMutability": "view",
      "type": "function"
    },
    {
      "inputs": [],
      "name": "owner",
      "outputs": [
        {
          "internalType": "address",
          "name": "",
          "type": "address"
        }
      ],
      "stateMutability": "view",
      "type": "function"
    },
    {
      "inputs": [],
      "name": "paused",
      "outputs": [
        {
          "internalType": "bool",
          "name": "",
          "type": "bool"
        }
      ],
      "stateMutability": "view",
      "type": "function"
    },
    {
      "inputs": [
        {
          "internalType": "address",
          "name": "from",
          "type": "address"
        },
        {
          "internalType": "address",
          "name": "to",
          "type": "address"
        },
        {
          "internalType": "uint256[]",
          "name": "ids",
          "type": "uint256[]"
        },
        {
          "internalType": "uint256[]",
          "name": "amounts",
          "type": "uint256[]"
        },
        {
          "internalType": "bytes",
          "name": "data",
          "type": "bytes"
        }
      ],
      "name": "safeBatchTransferFrom",
      "outputs": [],
      "stateMutability": "nonpayable",
      "type": "function"
    },
    {
      "inputs": [
        {
          "internalType": "address",
          "name": "from",
          "type": "address"
        },
        {
          "internalType": "address",
          "name": "to",
          "type": "address"
        },
        {
          "internalType": "uint256",
          "name": "id",
          "type": "uint256"
        },
        {
          "internalType": "uint256",
          "name": "amount",
          "type": "uint256"
        },
        {
          "internalType": "bytes",
          "name": "data",
          "type": "bytes"
        }
      ],
      "name": "safeTransferFrom",
      "outputs": [],
      "stateMutability": "nonpayable",
      "type": "function"
    },
    {
      "inputs": [
        {
          "internalType": "address",
          "name": "operator",
          "type": "address"
        },
        {
          "internalType": "bool",
          "name": "approved",
          "type": "bool"
        }
      ],
      "name": "setApprovalForAll",
      "outputs": [],
      "stateMutability": "nonpayable",
      "type": "function"
    },
    {
      "inputs": [
        {
          "internalType": "address",
          "name": "from",
          "type": "address"
        },
        {
          "internalType": "address[]",
          "name": "recipients",
          "type": "address[]"
        },
        {
          "internalType": "uint256",
          "name": "id",
          "type": "uint256"
        },
        {
          "internalType": "uint256[]",
          "name": "amounts",
          "type": "uint256[]"
        }
      ],
      "name": "slicerBatchTransfer",
      "outputs": [],
      "stateMutability": "nonpayable",
      "type": "function"
    },
    {
      "inputs": [
        {
          "internalType": "uint256",
          "name": "id",
          "type": "uint256"
        }
      ],
      "name": "slicers",
      "outputs": [
        {
          "internalType": "address",
          "name": "",
          "type": "address"
        }
      ],
      "stateMutability": "view",
      "type": "function"
    },
    {
      "inputs": [
        {
          "internalType": "bytes4",
          "name": "interfaceId",
          "type": "bytes4"
        }
      ],
      "name": "supportsInterface",
      "outputs": [
        {
          "internalType": "bool",
          "name": "",
          "type": "bool"
        }
      ],
      "stateMutability": "view",
      "type": "function"
    },
    {
      "inputs": [
        {
          "internalType": "uint256",
          "name": "id",
          "type": "uint256"
        }
      ],
      "name": "totalSupply",
      "outputs": [
        {
          "internalType": "uint256",
          "name": "",
          "type": "uint256"
        }
      ],
      "stateMutability": "view",
      "type": "function"
    },
    {
      "inputs": [
        {
          "internalType": "address",
          "name": "newOwner",
          "type": "address"
        }
      ],
      "name": "transferOwnership",
      "outputs": [],
      "stateMutability": "nonpayable",
      "type": "function"
    },
    {
      "inputs": [
        {
          "internalType": "address",
          "name": "newImplementation",
          "type": "address"
        }
      ],
      "name": "upgradeTo",
      "outputs": [],
      "stateMutability": "nonpayable",
      "type": "function"
    },
    {
      "inputs": [
        {
          "internalType": "address",
          "name": "newImplementation",
          "type": "address"
        },
        {
          "internalType": "bytes",
          "name": "data",
          "type": "bytes"
        }
      ],
      "name": "upgradeToAndCall",
      "outputs": [],
      "stateMutability": "payable",
      "type": "function"
    },
    {
      "inputs": [
        {
          "internalType": "uint256",
          "name": "",
          "type": "uint256"
        }
      ],
      "name": "uri",
      "outputs": [
        {
          "internalType": "string",
          "name": "",
          "type": "string"
        }
      ],
      "stateMutability": "view",
      "type": "function"
    }
  ],
  "bytecode": "0x608060405234801561001057600080fd5b50612e1a806100206000396000f3fe6080604052600436106101655760003560e01c80634e1273f4116100d15780638da5cb5b1161008a578063e0ba52b911610064578063e0ba52b914610470578063e985e9c514610490578063f242432a146104d9578063f2fde38b146104f957600080fd5b80638da5cb5b14610404578063a22cb46514610422578063bd85b0391461044257600080fd5b80634e1273f4146103295780634f1ef286146103565780634f558e7914610369578063588d1be7146103995780635c975abb146103d65780638129fc1c146103ef57600080fd5b806328eeb3e91161012357806328eeb3e9146102745780632eb2c2d614610294578063303cd08a146102b45780633659cfe6146102d45780633ee70cb9146102f4578063405b4c361461031457600080fd5b8062fdd58e1461016a57806301ffc9a71461019d578063059f424f146101cd57806308edd70c146101ef5780630e89341c1461020f578063175fa7ea1461023c575b600080fd5b34801561017657600080fd5b5061018a61018536600461267a565b610519565b6040519081526020015b60405180910390f35b3480156101a957600080fd5b506101bd6101b8366004612744565b6105b2565b6040519015158152602001610194565b3480156101d957600080fd5b506101ed6101e836600461277e565b610604565b005b3480156101fb57600080fd5b506101ed61020a366004612415565b610683565b34801561021b57600080fd5b5061022f61022a3660046127f3565b610718565b6040516101949190612a3f565b34801561024857600080fd5b5061025c6102573660046127f3565b6107ac565b6040516001600160a01b039091168152602001610194565b34801561028057600080fd5b506101ed61028f3660046127cf565b610821565b3480156102a057600080fd5b506101ed6102af366004612463565b610879565b3480156102c057600080fd5b506101ed6102cf3660046126a4565b610a34565b3480156102e057600080fd5b506101ed6102ef366004612415565b610aab565b34801561030057600080fd5b506101ed61030f366004612827565b610acf565b34801561032057600080fd5b506101ed610ba7565b34801561033557600080fd5b506103496103443660046126ea565b610c04565b6040516101949190612a07565b6101ed61036436600461262c565b610d2e565b34801561037557600080fd5b506101bd6103843660046127f3565b60009081526101946020526040902054151590565b3480156103a557600080fd5b5061025c6103b436600461280c565b63ffffffff16600090815261019760205260409020546001600160a01b031690565b3480156103e257600080fd5b5061012e5460ff166101bd565b3480156103fb57600080fd5b506101ed610d47565b34801561041057600080fd5b5060fc546001600160a01b031661025c565b34801561042e57600080fd5b506101ed61043d3660046125f0565b610e4e565b34801561044e57600080fd5b5061018a61045d3660046127f3565b6000908152610194602052604090205490565b34801561047c57600080fd5b506101ed61048b366004612572565b610f25565b34801561049c57600080fd5b506101bd6104ab366004612430565b6001600160a01b03918216600090815260666020908152604080832093909416825291909152205460ff1690565b3480156104e557600080fd5b506101ed6104f436600461250d565b611055565b34801561050557600080fd5b506101ed610514366004612415565b611182565b60006001600160a01b03831661058a5760405162461bcd60e51b815260206004820152602b60248201527f455243313135353a2062616c616e636520717565727920666f7220746865207a60448201526a65726f206164647265737360a81b60648201526084015b60405180910390fd5b5060009081526065602090815260408083206001600160a01b03949094168352929052205490565b60006001600160e01b03198216636cdb3d1360e11b14806105e357506001600160e01b031982166303a24d0760e21b145b806105fe57506301ffc9a760e01b6001600160e01b03198316145b92915050565b60fc546001600160a01b0316331480610627575060fb546001600160a01b031633145b6106435760405162461bcd60e51b815260040161058190612b77565b8051610657906101939060208401906121e6565b506106808160405160200161066c91906128c6565b604051602081830303815290604052611273565b50565b60fc546001600160a01b03163314806106a6575060fb546001600160a01b031633145b6106c25760405162461bcd60e51b815260040161058190612b77565b6106d161019680546001019055565b8061019760006106e16101965490565b63ffffffff168152602081019190915260400160002080546001600160a01b0319166001600160a01b039290921691909117905550565b60606067805461072790612c18565b80601f016020809104026020016040519081016040528092919081815260200182805461075390612c18565b80156107a05780601f10610775576101008083540402835291602001916107a0565b820191906000526020600020905b81548152906001019060200180831161078357829003601f168201915b50505050509050919050565b6000818152610194602052604081205415156001146108045760405162461bcd60e51b815260206004820152601460248201527314db1a58d95c88191bd95cdb89dd08195e1a5cdd60621b6044820152606401610581565b50600090815261019560205260409020546001600160a01b031690565b60fc546001600160a01b0316331480610844575060fb546001600160a01b031633145b6108605760405162461bcd60e51b815260040161058190612b77565b610192805461ffff191661ffff92909216919091179055565b61019254835161ffff90911610156108d35760405162461bcd60e51b815260206004820152601b60248201527f546f6f206d616e7920746f6b656e73207472616e7366657272656400000000006044820152606401610581565b6000835167ffffffffffffffff8111156108ef576108ef612ceb565b604051908082528060200260200182016040528015610918578160200160208202803683370190505b50905060005b84518163ffffffff1610156109b6576101956000868363ffffffff168151811061094a5761094a612cd5565b6020026020010151815260200190815260200160002060009054906101000a90046001600160a01b0316828263ffffffff168151811061098c5761098c612cd5565b6001600160a01b0390921660209283029190910190910152806109ae81612c9b565b91505061091e565b5060fc54604051631b5cfaa360e31b81526001600160a01b039091169063dae7d518906109ed9089908990869089906004016128ee565b600060405180830381600087803b158015610a0757600080fd5b505af1158015610a1b573d6000803e3d6000fd5b50505050610a2c8686868686611286565b505050505050565b60fc546001600160a01b03163314610a5e5760405162461bcd60e51b815260040161058190612b77565b610a7984848460405180602001604052806000815250611316565b6000928352610195602052604090922080546001600160a01b0319166001600160a01b03909316929092179091555050565b610ab48161134c565b61068081604051806020016040528060008152506000611376565b60fc546001600160a01b0316331480610af2575060fb546001600160a01b031633145b610b0e5760405162461bcd60e51b815260040161058190612b77565b63ffffffff821615801590610b2c5750610196548263ffffffff1611155b610b705760405162461bcd60e51b81526020600482015260156024820152744e6f6e2d6578697374656e742063617465676f727960581b6044820152606401610581565b63ffffffff9190911660009081526101976020526040902080546001600160a01b0319166001600160a01b03909216919091179055565b60fc546001600160a01b0316331480610bca575060fb546001600160a01b031633145b610be65760405162461bcd60e51b815260040161058190612b77565b61012e5460ff1615610bfc57610bfa6114f7565b565b610bfa61158c565b60608151835114610c695760405162461bcd60e51b815260206004820152602960248201527f455243313135353a206163636f756e747320616e6420696473206c656e677468604482015268040dad2e6dac2e8c6d60bb1b6064820152608401610581565b6000835167ffffffffffffffff811115610c8557610c85612ceb565b604051908082528060200260200182016040528015610cae578160200160208202803683370190505b50905060005b8451811015610d2657610cf9858281518110610cd257610cd2612cd5565b6020026020010151858381518110610cec57610cec612cd5565b6020026020010151610519565b828281518110610d0b57610d0b612cd5565b6020908102919091010152610d1f81612c80565b9050610cb4565b509392505050565b610d378261134c565b610d4382826001611376565b5050565b600054610100900460ff1680610d60575060005460ff16155b610d7c5760405162461bcd60e51b815260040161058190612adf565b600054610100900460ff16158015610d9e576000805461ffff19166101011790555b610ddc6040518060400160405280602081526020017f68747470733a2f2f736c6963652e736f2f6170692f736c696365722f7b69647d815250611609565b610de53361168e565b610192805461ffff1916601e17905560408051808201909152601c8082527f68747470733a2f2f736c6963652e736f2f6170692f736c696365722f000000006020909201918252610e3991610193916121e6565b508015610680576000805461ff001916905550565b336001600160a01b0383161415610eb95760405162461bcd60e51b815260206004820152602960248201527f455243313135353a2073657474696e6720617070726f76616c20737461747573604482015268103337b91039b2b63360b91b6064820152608401610581565b3360008181526066602090815260408083206001600160a01b03871680855290835292819020805460ff191686151590811790915590519081529192917f17307eab39ab6107e8899845ad3d59bd9653f200f220920489ca2b5937696c31910160405180910390a35050565b8051835114610f765760405162461bcd60e51b815260206004820152601760248201527f496e7075747320646f6e277420636f72726573706f6e640000000000000000006044820152606401610581565b61019254835161ffff9091161015610fd05760405162461bcd60e51b815260206004820152601b60248201527f546f6f206d616e7920746f6b656e73207472616e7366657272656400000000006044820152606401610581565b60005b83518163ffffffff16101561104e5761103c85858363ffffffff1681518110610ffe57610ffe612cd5565b602002602001015185858563ffffffff168151811061101f5761101f612cd5565b602002602001015160405180602001604052806000815250611055565b8061104681612c9b565b915050610fd3565b5050505050565b6040805160018082528183019092526000916020808301908036833750506040805160018082528183019092529293506000929150602080830190803683375050506000868152610195602052604081205484519293506001600160a01b0316918491906110c5576110c5612cd5565b60200260200101906001600160a01b031690816001600160a01b03168152505083816000815181106110f9576110f9612cd5565b602090810291909101015260fc54604051631b5cfaa360e31b81526001600160a01b039091169063dae7d5189061113a908a908a90879087906004016128ee565b600060405180830381600087803b15801561115457600080fd5b505af1158015611168573d6000803e3d6000fd5b5050505061117987878787876116f6565b50505050505050565b60fc546001600160a01b03163314806111a5575060fb546001600160a01b031633145b6111c15760405162461bcd60e51b815260040161058190612b77565b6001600160a01b0381166112175760405162461bcd60e51b815260206004820152601d60248201527f4e6577206f776e657220697320746865207a65726f20616464726573730000006044820152606401610581565b60fc546040516001600160a01b038084169216907f8be0079c531659141344cd1fd0a4f28419497f9722a3daafe3b4186f6b6457e090600090a360fc80546001600160a01b0319166001600160a01b0392909216919091179055565b8051610d439060679060208401906121e6565b6001600160a01b0385163314806112a257506112a285336104ab565b6113095760405162461bcd60e51b815260206004820152603260248201527f455243313135353a207472616e736665722063616c6c6572206973206e6f74206044820152711bdddb995c881b9bdc88185c1c1c9bdd995960721b6064820152608401610581565b61104e858585858561177d565b61132284848484611963565b6000838152610194602052604081208054849290611341908490612bd0565b909155505050505050565b60fc546001600160a01b031633146106805760405162461bcd60e51b815260040161058190612b77565b60006113a97f360894a13ba1a3210667c828492db98dca3e2076cc3735a920a3ca505d382bbc546001600160a01b031690565b90506113b484611a75565b6000835111806113c15750815b156113d2576113d08484611b1a565b505b7f4910fdfa16fed3260ed0e7147f7cc6da11a60208b5b9406d12a635614ffd9143805460ff1661104e57805460ff191660011781556040516001600160a01b038316602482015261145190869060440160408051601f198184030181529190526020810180516001600160e01b0316631b2ce7f360e11b179052611b1a565b50805460ff191681557f360894a13ba1a3210667c828492db98dca3e2076cc3735a920a3ca505d382bbc546001600160a01b038381169116146114ee5760405162461bcd60e51b815260206004820152602f60248201527f45524331393637557067726164653a207570677261646520627265616b73206660448201526e75727468657220757067726164657360881b6064820152608401610581565b61104e85611c05565b61012e5460ff166115415760405162461bcd60e51b815260206004820152601460248201527314185d5cd8589b194e881b9bdd081c185d5cd95960621b6044820152606401610581565b61012e805460ff191690557f5db9ee0a495bf2e6ff9c91a7834c1ba4fdd244a5e8aa4e537bd38aeae4b073aa335b6040516001600160a01b03909116815260200160405180910390a1565b61012e5460ff16156115d35760405162461bcd60e51b815260206004820152601060248201526f14185d5cd8589b194e881c185d5cd95960821b6044820152606401610581565b61012e805460ff191660011790557f62e78cea01bee320cd4e420270b5ea74000d11b0c9f74754ebdbfc544b05a25861156f3390565b600054610100900460ff1680611622575060005460ff16155b61163e5760405162461bcd60e51b815260040161058190612adf565b600054610100900460ff16158015611660576000805461ffff19166101011790555b611668611c45565b611670611c45565b61167982611cb0565b8015610d43576000805461ff00191690555050565b600054610100900460ff16806116a7575060005460ff16155b6116c35760405162461bcd60e51b815260040161058190612adf565b600054610100900460ff161580156116e5576000805461ffff19166101011790555b6116ed611c45565b61167982611d10565b6001600160a01b038516331480611712575061171285336104ab565b6117705760405162461bcd60e51b815260206004820152602960248201527f455243313135353a2063616c6c6572206973206e6f74206f776e6572206e6f7260448201526808185c1c1c9bdd995960ba1b6064820152608401610581565b61104e8585858585611da5565b81518351146117df5760405162461bcd60e51b815260206004820152602860248201527f455243313135353a2069647320616e6420616d6f756e7473206c656e677468206044820152670dad2e6dac2e8c6d60c31b6064820152608401610581565b6001600160a01b0384166118055760405162461bcd60e51b815260040161058190612a9a565b33611814818787878787611ebd565b60005b84518110156118fd57600085828151811061183457611834612cd5565b60200260200101519050600085838151811061185257611852612cd5565b60209081029190910181015160008481526065835260408082206001600160a01b038e1683529093529190912054909150818110156118a35760405162461bcd60e51b815260040161058190612b2d565b60008381526065602090815260408083206001600160a01b038e8116855292528083208585039055908b168252812080548492906118e2908490612bd0565b92505081905550505050806118f690612c80565b9050611817565b50846001600160a01b0316866001600160a01b0316826001600160a01b03167f4a39dc06d4c0dbc64b70af90fd698a233a518aa5d07e595d983b8c0526c8f7fb878760405161194d929190612a1a565b60405180910390a4610a2c818787878787611f26565b6001600160a01b0384166119c35760405162461bcd60e51b815260206004820152602160248201527f455243313135353a206d696e7420746f20746865207a65726f206164647265736044820152607360f81b6064820152608401610581565b336119e3816000876119d488612091565b6119dd88612091565b87611ebd565b60008481526065602090815260408083206001600160a01b038916845290915281208054859290611a15908490612bd0565b909155505060408051858152602081018590526001600160a01b0380881692600092918516917fc3d58168c5ae7397731d063d5bbf3d657854427343f4c083240f7aacaa2d0f62910160405180910390a461104e816000878787876120dc565b803b611ad95760405162461bcd60e51b815260206004820152602d60248201527f455243313936373a206e657720696d706c656d656e746174696f6e206973206e60448201526c1bdd08184818dbdb9d1c9858dd609a1b6064820152608401610581565b7f360894a13ba1a3210667c828492db98dca3e2076cc3735a920a3ca505d382bbc80546001600160a01b0319166001600160a01b0392909216919091179055565b6060823b611b795760405162461bcd60e51b815260206004820152602660248201527f416464726573733a2064656c65676174652063616c6c20746f206e6f6e2d636f6044820152651b9d1c9858dd60d21b6064820152608401610581565b600080846001600160a01b031684604051611b9491906128aa565b600060405180830381855af49150503d8060008114611bcf576040519150601f19603f3d011682016040523d82523d6000602084013e611bd4565b606091505b5091509150611bfc8282604051806060016040528060278152602001612dbe602791396121a6565b95945050505050565b611c0e81611a75565b6040516001600160a01b038216907fbc7cd75a20ee27fd9adebab32041f755214dbc6bffa90cc0225b39da2e5c2d3b90600090a250565b600054610100900460ff1680611c5e575060005460ff16155b611c7a5760405162461bcd60e51b815260040161058190612adf565b600054610100900460ff16158015611c9c576000805461ffff19166101011790555b8015610680576000805461ff001916905550565b600054610100900460ff1680611cc9575060005460ff16155b611ce55760405162461bcd60e51b815260040161058190612adf565b600054610100900460ff16158015611d07576000805461ffff19166101011790555b61167982611273565b600054610100900460ff1680611d29575060005460ff16155b611d455760405162461bcd60e51b815260040161058190612adf565b600054610100900460ff16158015611d67576000805461ffff19166101011790555b60fb80546001600160a01b0384166001600160a01b03199182161790915560fc8054909116331790558015610d43576000805461ff00191690555050565b6001600160a01b038416611dcb5760405162461bcd60e51b815260040161058190612a9a565b33611ddb8187876119d488612091565b60008481526065602090815260408083206001600160a01b038a16845290915290205483811015611e1e5760405162461bcd60e51b815260040161058190612b2d565b60008581526065602090815260408083206001600160a01b038b8116855292528083208785039055908816825281208054869290611e5d908490612bd0565b909155505060408051868152602081018690526001600160a01b03808916928a821692918616917fc3d58168c5ae7397731d063d5bbf3d657854427343f4c083240f7aacaa2d0f62910160405180910390a46111798288888888886120dc565b61012e5460ff1615610a2c5760405162461bcd60e51b815260206004820152602c60248201527f455243313135355061757361626c653a20746f6b656e207472616e736665722060448201526b1dda1a5b19481c185d5cd95960a21b6064820152608401610581565b6001600160a01b0384163b15610a2c5760405163bc197c8160e01b81526001600160a01b0385169063bc197c8190611f6a9089908990889088908890600401612964565b602060405180830381600087803b158015611f8457600080fd5b505af1925050508015611fb4575060408051601f3d908101601f19168201909252611fb191810190612761565b60015b61206157611fc0612d01565b806308c379a01415611ffa5750611fd5612d1d565b80611fe05750611ffc565b8060405162461bcd60e51b81526004016105819190612a3f565b505b60405162461bcd60e51b815260206004820152603460248201527f455243313135353a207472616e7366657220746f206e6f6e20455243313135356044820152732932b1b2b4bb32b91034b6b83632b6b2b73a32b960611b6064820152608401610581565b6001600160e01b0319811663bc197c8160e01b146111795760405162461bcd60e51b815260040161058190612a52565b604080516001808252818301909252606091600091906020808301908036833701905050905082816000815181106120cb576120cb612cd5565b602090810291909101015292915050565b6001600160a01b0384163b15610a2c5760405163f23a6e6160e01b81526001600160a01b0385169063f23a6e619061212090899089908890889088906004016129c2565b602060405180830381600087803b15801561213a57600080fd5b505af192505050801561216a575060408051601f3d908101601f1916820190925261216791810190612761565b60015b61217657611fc0612d01565b6001600160e01b0319811663f23a6e6160e01b146111795760405162461bcd60e51b815260040161058190612a52565b606083156121b55750816121df565b8251156121c55782518084602001fd5b8160405162461bcd60e51b81526004016105819190612a3f565b9392505050565b8280546121f290612c18565b90600052602060002090601f016020900481019282612214576000855561225a565b82601f1061222d57805160ff191683800117855561225a565b8280016001018555821561225a579182015b8281111561225a57825182559160200191906001019061223f565b5061226692915061226a565b5090565b5b80821115612266576000815560010161226b565b600067ffffffffffffffff83111561229957612299612ceb565b6040516122b0601f8501601f191660200182612c53565b8091508381528484840111156122c557600080fd5b83836020830137600060208583010152509392505050565b80356001600160a01b03811681146122f457600080fd5b919050565b600082601f83011261230a57600080fd5b8135602061231782612bac565b6040516123248282612c53565b8381528281019150858301600585901b8701840188101561234457600080fd5b60005b8581101561236a57612358826122dd565b84529284019290840190600101612347565b5090979650505050505050565b600082601f83011261238857600080fd5b8135602061239582612bac565b6040516123a28282612c53565b8381528281019150858301600585901b870184018810156123c257600080fd5b60005b8581101561236a578135845292840192908401906001016123c5565b600082601f8301126123f257600080fd5b6121df8383356020850161227f565b803563ffffffff811681146122f457600080fd5b60006020828403121561242757600080fd5b6121df826122dd565b6000806040838503121561244357600080fd5b61244c836122dd565b915061245a602084016122dd565b90509250929050565b600080600080600060a0868803121561247b57600080fd5b612484866122dd565b9450612492602087016122dd565b9350604086013567ffffffffffffffff808211156124af57600080fd5b6124bb89838a01612377565b945060608801359150808211156124d157600080fd5b6124dd89838a01612377565b935060808801359150808211156124f357600080fd5b50612500888289016123e1565b9150509295509295909350565b600080600080600060a0868803121561252557600080fd5b61252e866122dd565b945061253c602087016122dd565b93506040860135925060608601359150608086013567ffffffffffffffff81111561256657600080fd5b612500888289016123e1565b6000806000806080858703121561258857600080fd5b612591856122dd565b9350602085013567ffffffffffffffff808211156125ae57600080fd5b6125ba888389016122f9565b94506040870135935060608701359150808211156125d757600080fd5b506125e487828801612377565b91505092959194509250565b6000806040838503121561260357600080fd5b61260c836122dd565b91506020830135801515811461262157600080fd5b809150509250929050565b6000806040838503121561263f57600080fd5b612648836122dd565b9150602083013567ffffffffffffffff81111561266457600080fd5b612670858286016123e1565b9150509250929050565b6000806040838503121561268d57600080fd5b612696836122dd565b946020939093013593505050565b600080600080608085870312156126ba57600080fd5b6126c3856122dd565b935060208501359250604085013591506126df606086016122dd565b905092959194509250565b600080604083850312156126fd57600080fd5b823567ffffffffffffffff8082111561271557600080fd5b612721868387016122f9565b9350602085013591508082111561273757600080fd5b5061267085828601612377565b60006020828403121561275657600080fd5b81356121df81612da7565b60006020828403121561277357600080fd5b81516121df81612da7565b60006020828403121561279057600080fd5b813567ffffffffffffffff8111156127a757600080fd5b8201601f810184136127b857600080fd5b6127c78482356020840161227f565b949350505050565b6000602082840312156127e157600080fd5b813561ffff811681146121df57600080fd5b60006020828403121561280557600080fd5b5035919050565b60006020828403121561281e57600080fd5b6121df82612401565b6000806040838503121561283a57600080fd5b61244c83612401565b600081518084526020808501945080840160005b8381101561287357815187529582019590820190600101612857565b509495945050505050565b60008151808452612896816020860160208601612be8565b601f01601f19169290920160200192915050565b600082516128bc818460208701612be8565b9190910192915050565b600082516128d8818460208701612be8565b637b69647d60e01b920191825250600401919050565b60006080820160018060a01b0380881684526020818816818601526080604086015282875180855260a087019150828901945060005b81811015612942578551851683529483019491830191600101612924565b505085810360608701526129568188612843565b9a9950505050505050505050565b6001600160a01b0386811682528516602082015260a06040820181905260009061299090830186612843565b82810360608401526129a28186612843565b905082810360808401526129b6818561287e565b98975050505050505050565b6001600160a01b03868116825285166020820152604081018490526060810183905260a0608082018190526000906129fc9083018461287e565b979650505050505050565b6020815260006121df6020830184612843565b604081526000612a2d6040830185612843565b8281036020840152611bfc8185612843565b6020815260006121df602083018461287e565b60208082526028908201527f455243313135353a204552433131353552656365697665722072656a656374656040820152676420746f6b656e7360c01b606082015260800190565b60208082526025908201527f455243313135353a207472616e7366657220746f20746865207a65726f206164604082015264647265737360d81b606082015260800190565b6020808252602e908201527f496e697469616c697a61626c653a20636f6e747261637420697320616c72656160408201526d191e481a5b9a5d1a585b1a5e995960921b606082015260800190565b6020808252602a908201527f455243313135353a20696e73756666696369656e742062616c616e636520666f60408201526939103a3930b739b332b960b11b606082015260800190565b6020808252818101527f4f776e61626c653a2063616c6c6572206973206e6f7420746865206f776e6572604082015260600190565b600067ffffffffffffffff821115612bc657612bc6612ceb565b5060051b60200190565b60008219821115612be357612be3612cbf565b500190565b60005b83811015612c03578181015183820152602001612beb565b83811115612c12576000848401525b50505050565b600181811c90821680612c2c57607f821691505b60208210811415612c4d57634e487b7160e01b600052602260045260246000fd5b50919050565b601f8201601f1916810167ffffffffffffffff81118282101715612c7957612c79612ceb565b6040525050565b6000600019821415612c9457612c94612cbf565b5060010190565b600063ffffffff80831681811415612cb557612cb5612cbf565b6001019392505050565b634e487b7160e01b600052601160045260246000fd5b634e487b7160e01b600052603260045260246000fd5b634e487b7160e01b600052604160045260246000fd5b600060033d1115612d1a5760046000803e5060005160e01c5b90565b600060443d1015612d2b5790565b6040516003193d81016004833e81513d67ffffffffffffffff8160248401118184111715612d5b57505050505090565b8285019150815181811115612d735750505050505090565b843d8701016020828501011115612d8d5750505050505090565b612d9c60208286010187612c53565b509095945050505050565b6001600160e01b03198116811461068057600080fdfe416464726573733a206c6f772d6c6576656c2064656c65676174652063616c6c206661696c6564a2646970667358221220bdd7c996e157f5af5a7a9185c808de8d0bf07f7c6b06c3eb0aa27169ce98a0f964736f6c63430008070033",
  "linkReferences": {},
  "deployedLinkReferences": {}
}