{
  "_format": "hh-sol-artifact-1",
  "contractName": "Slice",
  "sourceName": "contracts/slice_v0.sol",
  "abi": [
    {
      "anonymous": false,
      "inputs": [
        {
          "indexed": false,
          "internalType": "address",
          "name": "previousAdmin",
          "type": "address"
        },
        {
          "indexed": false,
          "internalType": "address",
          "name": "newAdmin",
          "type": "address"
        }
      ],
      "name": "AdminChanged",
      "type": "event"
    },
    {
      "anonymous": false,
      "inputs": [
        {
          "indexed": true,
          "internalType": "address",
          "name": "beacon",
          "type": "address"
        }
      ],
      "name": "BeaconUpgraded",
      "type": "event"
    },
    {
      "anonymous": false,
      "inputs": [
        {
          "indexed": true,
          "internalType": "address",
          "name": "previousOwner",
          "type": "address"
        },
        {
          "indexed": true,
          "internalType": "address",
          "name": "newOwner",
          "type": "address"
        }
      ],
      "name": "OwnershipTransferred",
      "type": "event"
    },
    {
      "anonymous": false,
      "inputs": [
        {
          "indexed": false,
          "internalType": "address",
          "name": "account",
          "type": "address"
        }
      ],
      "name": "Paused",
      "type": "event"
    },
    {
      "anonymous": false,
      "inputs": [
        {
          "indexed": true,
          "internalType": "address payable[]",
          "name": "slicerAddresses",
          "type": "address[]"
        },
        {
          "indexed": true,
          "internalType": "uint32[]",
          "name": "productIds",
          "type": "uint32[]"
        },
        {
          "indexed": false,
          "internalType": "uint16[]",
          "name": "quantities",
          "type": "uint16[]"
        },
        {
          "indexed": false,
          "internalType": "uint256",
          "name": "totalPaid",
          "type": "uint256"
        }
      ],
      "name": "ProductsPaid",
      "type": "event"
    },
    {
      "anonymous": false,
      "inputs": [
        {
          "indexed": false,
          "internalType": "address",
          "name": "slicerAddress",
          "type": "address"
        },
        {
          "indexed": false,
          "internalType": "uint256",
          "name": "tokenId",
          "type": "uint256"
        },
        {
          "indexed": true,
          "internalType": "address[]",
          "name": "payees",
          "type": "address[]"
        },
        {
          "indexed": false,
          "internalType": "uint256[]",
          "name": "shares",
          "type": "uint256[]"
        },
        {
          "indexed": false,
          "internalType": "uint256",
          "name": "minimumShares",
          "type": "uint256"
        }
      ],
      "name": "TokenSliced",
      "type": "event"
    },
    {
      "anonymous": false,
      "inputs": [
        {
          "indexed": true,
          "internalType": "address",
          "name": "account",
          "type": "address"
        },
        {
          "indexed": false,
          "internalType": "uint256",
          "name": "totalReleased",
          "type": "uint256"
        },
        {
          "indexed": false,
          "internalType": "uint8",
          "name": "slicerPercentage",
          "type": "uint8"
        }
      ],
      "name": "TriggeredRelease",
      "type": "event"
    },
    {
      "anonymous": false,
      "inputs": [
        {
          "indexed": false,
          "internalType": "address",
          "name": "account",
          "type": "address"
        }
      ],
      "name": "Unpaused",
      "type": "event"
    },
    {
      "anonymous": false,
      "inputs": [
        {
          "indexed": true,
          "internalType": "address",
          "name": "implementation",
          "type": "address"
        }
      ],
      "name": "Upgraded",
      "type": "event"
    },
    {
      "inputs": [
        {
          "internalType": "uint32",
          "name": "categoryIndex",
          "type": "uint32"
        }
      ],
      "name": "_addToSliceCategory",
      "outputs": [],
      "stateMutability": "nonpayable",
      "type": "function"
    },
    {
      "inputs": [
        {
          "internalType": "address",
          "name": "from",
          "type": "address"
        },
        {
          "internalType": "address",
          "name": "to",
          "type": "address"
        },
        {
          "internalType": "address[]",
          "name": "slicerAddresses",
          "type": "address[]"
        },
        {
          "internalType": "uint256[]",
          "name": "amounts",
          "type": "uint256[]"
        }
      ],
      "name": "_beforeTransfer",
      "outputs": [],
      "stateMutability": "nonpayable",
      "type": "function"
    },
    {
      "inputs": [
        {
          "internalType": "uint256",
          "name": "id",
          "type": "uint256"
        },
        {
          "internalType": "uint256",
          "name": "minimumShares",
          "type": "uint256"
        }
      ],
      "name": "_createSlicer",
      "outputs": [
        {
          "internalType": "address payable",
          "name": "",
          "type": "address"
        }
      ],
      "stateMutability": "nonpayable",
      "type": "function"
    },
    {
      "inputs": [
        {
          "internalType": "uint16",
          "name": "newValueSlice",
          "type": "uint16"
        },
        {
          "internalType": "uint16",
          "name": "newValueRelease",
          "type": "uint16"
        }
      ],
      "name": "_setMaximumBatch",
      "outputs": [],
      "stateMutability": "nonpayable",
      "type": "function"
    },
    {
      "inputs": [
        {
          "internalType": "address",
          "name": "newLogicImpl",
          "type": "address"
        }
      ],
      "name": "_upgradeSlicers",
      "outputs": [],
      "stateMutability": "nonpayable",
      "type": "function"
    },
    {
      "inputs": [],
      "name": "getEthUsd",
      "outputs": [
        {
          "internalType": "int256",
          "name": "",
          "type": "int256"
        }
      ],
      "stateMutability": "view",
      "type": "function"
    },
    {
      "inputs": [
        {
          "internalType": "address",
          "name": "SLCAddress",
          "type": "address"
        },
        {
          "internalType": "address",
          "name": "sliceCoreAddress",
          "type": "address"
        }
      ],
      "name": "initialize",
      "outputs": [],
      "stateMutability": "nonpayable",
      "type": "function"
    },
    {
      "inputs": [],
      "name": "owner",
      "outputs": [
        {
          "internalType": "address",
          "name": "",
          "type": "address"
        }
      ],
      "stateMutability": "view",
      "type": "function"
    },
    {
      "inputs": [],
      "name": "paused",
      "outputs": [
        {
          "internalType": "bool",
          "name": "",
          "type": "bool"
        }
      ],
      "stateMutability": "view",
      "type": "function"
    },
    {
      "inputs": [
        {
          "internalType": "address payable[]",
          "name": "slicerAddresses",
          "type": "address[]"
        },
        {
          "internalType": "uint32[]",
          "name": "productIds",
          "type": "uint32[]"
        },
        {
          "internalType": "uint16[]",
          "name": "quantities",
          "type": "uint16[]"
        }
      ],
      "name": "payProducts",
      "outputs": [],
      "stateMutability": "payable",
      "type": "function"
    },
    {
      "inputs": [],
      "name": "renounceOwnership",
      "outputs": [],
      "stateMutability": "nonpayable",
      "type": "function"
    },
    {
      "inputs": [
        {
          "internalType": "address[]",
          "name": "accounts",
          "type": "address[]"
        },
        {
          "internalType": "uint256[]",
          "name": "shares",
          "type": "uint256[]"
        },
        {
          "internalType": "uint256",
          "name": "minimumShares",
          "type": "uint256"
        }
      ],
      "name": "slice",
      "outputs": [],
      "stateMutability": "nonpayable",
      "type": "function"
    },
    {
      "inputs": [
        {
          "internalType": "uint256",
          "name": "id",
          "type": "uint256"
        }
      ],
      "name": "slicers",
      "outputs": [
        {
          "internalType": "address",
          "name": "",
          "type": "address"
        }
      ],
      "stateMutability": "view",
      "type": "function"
    },
    {
      "inputs": [],
      "name": "togglePause",
      "outputs": [],
      "stateMutability": "nonpayable",
      "type": "function"
    },
    {
      "inputs": [],
      "name": "totalTokens",
      "outputs": [
        {
          "internalType": "uint256",
          "name": "",
          "type": "uint256"
        }
      ],
      "stateMutability": "view",
      "type": "function"
    },
    {
      "inputs": [
        {
          "internalType": "address",
          "name": "newOwner",
          "type": "address"
        }
      ],
      "name": "transferOwnership",
      "outputs": [],
      "stateMutability": "nonpayable",
      "type": "function"
    },
    {
      "inputs": [
        {
          "internalType": "address",
          "name": "account",
          "type": "address"
        },
        {
          "internalType": "address[]",
          "name": "slicerAddresses",
          "type": "address[]"
        },
        {
          "internalType": "uint8",
          "name": "slicerPercentage",
          "type": "uint8"
        }
      ],
      "name": "triggerRelease",
      "outputs": [],
      "stateMutability": "nonpayable",
      "type": "function"
    },
    {
      "inputs": [
        {
          "internalType": "address",
          "name": "newImplementation",
          "type": "address"
        }
      ],
      "name": "upgradeTo",
      "outputs": [],
      "stateMutability": "nonpayable",
      "type": "function"
    },
    {
      "inputs": [
        {
          "internalType": "address",
          "name": "newImplementation",
          "type": "address"
        },
        {
          "internalType": "bytes",
          "name": "data",
          "type": "bytes"
        }
      ],
      "name": "upgradeToAndCall",
      "outputs": [],
      "stateMutability": "payable",
      "type": "function"
    }
  ],
  "bytecode": "0x608060405234801561001057600080fd5b50613948806100206000396000f3fe6080604052600436106200012b5760003560e01c8063817115f111620000ad578063d33f5845116200006c578063d33f5845146200030f578063dae7d5181462000334578063e4b546141462000359578063efab35b8146200037b578063f2fde38b14620003a057600080fd5b8063817115f114620002755780638913ea42146200029a5780638da5cb5b14620002bf578063bb27e0ce14620002df578063c4ae316814620002f757600080fd5b8063485cc95511620000fa578063485cc95514620001d55780634f1ef28614620001fa5780635c975abb1462000211578063715018a614620002365780637e1c0c09146200024e57600080fd5b8063175fa7ea14620001305780632f1f3154146200017257806334d5ca07146200018b5780633659cfe614620001b0575b600080fd5b3480156200013d57600080fd5b50620001556200014f36600462002481565b620003c5565b6040516001600160a01b0390911681526020015b60405180910390f35b62000189620001833660046200234b565b6200044d565b005b3480156200019857600080fd5b5062000155620001aa366004620024e1565b6200083f565b348015620001bd57600080fd5b5062000189620001cf366004620020a6565b620008d7565b348015620001e257600080fd5b5062000189620001f4366004620020e6565b620008ff565b620001896200020b36600462002224565b62000a43565b3480156200021e57600080fd5b5060c95460ff16604051901515815260200162000169565b3480156200024357600080fd5b506200018962000a60565b3480156200025b57600080fd5b506200026662000a9b565b60405190815260200162000169565b3480156200028257600080fd5b506200018962000294366004620021b8565b62000aad565b348015620002a757600080fd5b5062000189620002b936600462002449565b62000dc1565b348015620002cc57600080fd5b506097546001600160a01b031662000155565b348015620002ec57600080fd5b506200026662000e17565b3480156200030457600080fd5b506200018962000eb0565b3480156200031c57600080fd5b50620001896200032e366004620022d7565b62000efd565b3480156200034157600080fd5b50620001896200035336600462002124565b62001337565b3480156200036657600080fd5b50620001896200037836600462002552565b50565b3480156200038857600080fd5b50620001896200039a366004620020a6565b6200151f565b348015620003ad57600080fd5b5062000189620003bf366004620020a6565b620015b1565b61012f54604051630bafd3f560e11b8152600481018390526000916001600160a01b03169063175fa7ea9060240160206040518083038186803b1580156200040c57600080fd5b505afa15801562000421573d6000803e3d6000fd5b505050506040513d601f19601f82011682018060405250810190620004479190620020c6565b92915050565b600260fb5414156200047c5760405162461bcd60e51b8152600401620004739062002873565b60405180910390fd5b600260fb558151835114801562000494575080518351145b620004e25760405162461bcd60e51b815260206004820152601860248201527f4c656e6774687320646f6e277420636f72726573706f6e640000000000000000604482015260640162000473565b6000805b84518161ffff161015620007c8576000858261ffff16815181106200050f576200050f620029d3565b60200260200101519050600080826001600160a01b031663bfe5d835888661ffff1681518110620005445762000544620029d3565b60200260200101516040518263ffffffff1660e01b815260040162000575919063ffffffff91909116815260200190565b604080518083038186803b1580156200058d57600080fd5b505afa158015620005a2573d6000803e3d6000fd5b505050506040513d601f19601f82011682018060405250810190620005c89190620024b5565b915091506000811562000641576000620005e162000e17565b905080888761ffff1681518110620005fd57620005fd620029d3565b602002602001015161ffff168562000616919062002943565b6200062c9069d3c21bcecceda100000062002943565b62000638919062002920565b91505062000676565b868561ffff16815181106200065a576200065a620029d3565b602002602001015161ffff168362000673919062002943565b90505b6000898661ffff1681518110620006915762000691620029d3565b60200260200101516001600160a01b031682338b8961ffff1681518110620006bd57620006bd620029d3565b60200260200101518b8a61ffff1681518110620006de57620006de620029d3565b60209081029190910101516040516001600160a01b03909316602484015263ffffffff909116604483015261ffff16606482015260840160408051601f198184030181529181526020820180516001600160e01b031663061caa4960e31b179052516200074c9190620026a3565b60006040518083038185875af1925050503d80600081146200078b576040519150601f19603f3d011682016040523d82523d6000602084013e62000790565b606091505b50509050806200079f57600080fd5b620007ab828862002905565b965050505050508080620007bf9062002998565b915050620004e6565b5082604051620007d9919062002671565b604051809103902084604051620007f1919062002630565b60405180910390207ff9c0c1c7138692bd4bff6843cde7f313f634c42eca9375fbd6ae91c4f3269a8c84846040516200082c9291906200278d565b60405180910390a35050600160fb555050565b61012d54604051602481018490523360448201526064810183905260009182916001600160a01b039091169060840160408051601f198184030181529181526020820180516001600160e01b0316631530a81360e21b17905251620008a49062001e76565b620008b1929190620026fb565b604051809103906000f080158015620008ce573d6000803e3d6000fd5b50949350505050565b620008e28162001650565b62000378816040518060200160405280600081525060006200167d565b600054610100900460ff168062000919575060005460ff16155b620009385760405162461bcd60e51b81526004016200047390620027f0565b600054610100900460ff161580156200095b576000805461ffff19166101011790555b620009656200180c565b61012e80546001600160a01b038086166001600160a01b03199283161790925561012f8054928516928216929092179091556101328054621e001e63ffffffff199091161790556101308054909116738a753747a1fa494ec906ce90e9f37563a8af630e1790556040518390620009dc9062001e84565b6001600160a01b039091168152602001604051809103906000f08015801562000a09573d6000803e3d6000fd5b5061012d80546001600160a01b0319166001600160a01b0392909216919091179055801562000a3e576000805461ff00191690555b505050565b62000a4e8262001650565b62000a5c828260016200167d565b5050565b6097546001600160a01b0316331462000a8d5760405162461bcd60e51b815260040162000473906200283e565b62000a99600062001891565b565b600062000aa86101315490565b905090565b600260fb54141562000ad35760405162461bcd60e51b8152600401620004739062002873565b600260fb556101325482516201000090910461ffff16101562000b395760405162461bcd60e51b815260206004820152601960248201527f546f6f206d616e7920736c69636572732072656c656173656400000000000000604482015260640162000473565b823b156000805b84518161ffff16101562000d66576000858261ffff168151811062000b695762000b69620029d3565b6020908102919091010151604051632a67293d60e01b81526001600160a01b038981166004830152919250600091831690632a67293d9060240160206040518083038186803b15801562000bbc57600080fd5b505afa15801562000bd1573d6000803e3d6000fd5b505050506040513d601f19601f8201168201806040525081019062000bf791906200249b565b111562000d5057604051631916558760e01b81526001600160a01b03888116600483015260009190831690631916558790602401602060405180830381600087803b15801562000c4657600080fd5b505af115801562000c5b573d6000803e3d6000fd5b505050506040513d601f19601f8201168201806040525081019062000c8191906200249b565b9050841562000d405761012e5487516001600160a01b039091169063deb0e991908a9084908b9061ffff891690811062000cbf5762000cbf620029d3565b60209081029190910101516040516001600160e01b031960e086901b1681526001600160a01b039384166004820152602481019290925291909116604482015260ff89166064820152608401600060405180830381600087803b15801562000d2657600080fd5b505af115801562000d3b573d6000803e3d6000fd5b505050505b62000d4c818562002905565b9350505b508062000d5d8162002998565b91505062000b40565b50801562000db5576040805182815260ff851660208201526001600160a01b038716917fc3fb528a4237f3152c096612970ef465ede8418e8e76bf125a4af53c8284ec43910160405180910390a25b5050600160fb55505050565b6097546001600160a01b0316331462000dee5760405162461bcd60e51b815260040162000473906200283e565b610132805461ffff928316620100000263ffffffff199091169290931691909117919091179055565b60008061013060009054906101000a90046001600160a01b03166001600160a01b031663feaf968c6040518163ffffffff1660e01b815260040160a06040518083038186803b15801562000e6a57600080fd5b505afa15801562000e7f573d6000803e3d6000fd5b505050506040513d601f19601f8201168201806040525081019062000ea5919062002570565b509195945050505050565b6097546001600160a01b0316331462000edd5760405162461bcd60e51b815260040162000473906200283e565b60c95460ff161562000ef35762000a99620018e3565b62000a9962001978565b60c95460ff161562000f455760405162461bcd60e51b815260206004820152601060248201526f14185d5cd8589b194e881c185d5cd95960821b604482015260640162000473565b600260fb54141562000f6b5760405162461bcd60e51b8152600401620004739062002873565b600260fb55600062000f7d6101315490565b61013254855191925060009161ffff909116101562000fd35760405162461bcd60e51b8152602060048201526011602482015270546f6f206d616e79206163636f756e747360781b604482015260640162000473565b8351855114620010265760405162461bcd60e51b815260206004820152601760248201527f496e7075747320646f6e277420636f72726573706f6e64000000000000000000604482015260640162000473565b60008311620010715760405162461bcd60e51b815260206004820152601660248201527553706563696679206d696e696d756d2073686172657360501b604482015260640162000473565b60006200107f83856200083f565b90508060005b87518161ffff1610156200120e57620010be888261ffff1681518110620010b057620010b0620029d3565b60200260200101513b151590565b15620010f057620010f083898361ffff1681518110620010e257620010e2620029d3565b6020026020010151620019f6565b831580156200111f575085878261ffff1681518110620011145762001114620029d3565b602002602001015110155b156200112a57600193505b61012f5488516001600160a01b039091169063303cd08a908a9061ffff85169081106200115b576200115b620029d3565b6020026020010151878a8561ffff16815181106200117d576200117d620029d3565b60209081029190910101516040516001600160e01b031960e086901b1681526001600160a01b039384166004820152602481019290925260448201529086166064820152608401600060405180830381600087803b158015620011df57600080fd5b505af1158015620011f4573d6000803e3d6000fd5b505050508080620012059062002998565b91505062001085565b50826200125e5760405162461bcd60e51b815260206004820152601c60248201527f4e6f206163636f756e742068617320656e6f7567682073686172657300000000604482015260640162000473565b60405163fd5e12e360e01b81526001600160a01b0382169063fd5e12e3906200128e908a908a9060040162002729565b600060405180830381600087803b158015620012a957600080fd5b505af1158015620012be573d6000803e3d6000fd5b50505050620012d261013180546001019055565b86604051620012e2919062002630565b60405180910390207fabb4a0d49573e631c30bbcf7a3c6e5cf60283225f4a12dcd3d75a6037609606983868989604051620013219493929190620026c1565b60405180910390a25050600160fb555050505050565b61012f546001600160a01b03163314620013835760405162461bcd60e51b815260206004820152600c60248201526b155b985d5d1a1bdc9a5e995960a21b604482015260640162000473565b823b1515620013958584600062000aad565b60005b83518161ffff1610156200151757828161ffff1681518110620013bf57620013bf620029d3565b6020026020010151600014156200140e5760405162461bcd60e51b81526020600482015260126024820152710416d6f756e742063616e6e6f7420626520360741b604482015260640162000473565b8115620014b457838161ffff16815181106200142e576200142e620029d3565b60200260200101516001600160a01b0316856001600160a01b03161415620014885760405162461bcd60e51b815260206004820152600c60248201526b05061796d656e74206c6f6f760a41b604482015260640162000473565b620014b4848261ffff1681518110620014a557620014a5620029d3565b602002602001015186620019f6565b620015028686868461ffff1681518110620014d357620014d3620029d3565b6020026020010151868561ffff1681518110620014f457620014f4620029d3565b602002602001015162001b3c565b806200150e8162002998565b91505062001398565b505050505050565b6097546001600160a01b031633146200154c5760405162461bcd60e51b815260040162000473906200283e565b61012d54604051631b2ce7f360e11b81526001600160a01b03838116600483015290911690633659cfe690602401600060405180830381600087803b1580156200159557600080fd5b505af1158015620015aa573d6000803e3d6000fd5b5050505050565b6097546001600160a01b03163314620015de5760405162461bcd60e51b815260040162000473906200283e565b6001600160a01b038116620016455760405162461bcd60e51b815260206004820152602660248201527f4f776e61626c653a206e6577206f776e657220697320746865207a65726f206160448201526564647265737360d01b606482015260840162000473565b620003788162001891565b6097546001600160a01b03163314620003785760405162461bcd60e51b815260040162000473906200283e565b6000620016b17f360894a13ba1a3210667c828492db98dca3e2076cc3735a920a3ca505d382bbc546001600160a01b031690565b9050620016be8462001b7d565b600083511180620016cc5750815b15620016e057620016de848462001c24565b505b7f4910fdfa16fed3260ed0e7147f7cc6da11a60208b5b9406d12a635614ffd9143805460ff16620015aa57805460ff191660011781556040516001600160a01b03831660248201526200176290869060440160408051601f198184030181529190526020810180516001600160e01b0316631b2ce7f360e11b17905262001c24565b50805460ff191681557f360894a13ba1a3210667c828492db98dca3e2076cc3735a920a3ca505d382bbc546001600160a01b03838116911614620018015760405162461bcd60e51b815260206004820152602f60248201527f45524331393637557067726164653a207570677261646520627265616b73206660448201526e75727468657220757067726164657360881b606482015260840162000473565b620015aa8562001d18565b600054610100900460ff168062001826575060005460ff16155b620018455760405162461bcd60e51b81526004016200047390620027f0565b600054610100900460ff1615801562001868576000805461ffff19166101011790555b6200187262001d5a565b6200187c62001dca565b801562000378576000805461ff001916905550565b609780546001600160a01b038381166001600160a01b0319831681179093556040519116919082907f8be0079c531659141344cd1fd0a4f28419497f9722a3daafe3b4186f6b6457e090600090a35050565b60c95460ff166200192e5760405162461bcd60e51b815260206004820152601460248201527314185d5cd8589b194e881b9bdd081c185d5cd95960621b604482015260640162000473565b60c9805460ff191690557f5db9ee0a495bf2e6ff9c91a7834c1ba4fdd244a5e8aa4e537bd38aeae4b073aa335b6040516001600160a01b03909116815260200160405180910390a1565b60c95460ff1615620019c05760405162461bcd60e51b815260206004820152601060248201526f14185d5cd8589b194e881c185d5cd95960821b604482015260640162000473565b60c9805460ff191660011790557f62e78cea01bee320cd4e420270b5ea74000d11b0c9f74754ebdbfc544b05a2586200195b3390565b600082905060008290506000816001600160a01b031663957e07b66040518163ffffffff1660e01b815260040160806040518083038186803b15801562001a3c57600080fd5b505afa15801562001a51573d6000803e3d6000fd5b505050506040513d601f19601f8201168201806040525081019062001a77919062002504565b5050509050836001600160a01b031662001a9182620003c5565b6001600160a01b03161462001ad85760405162461bcd60e51b815260206004820152600c60248201526b2737ba10309029b634b1b2b960a11b604482015260640162000473565b60405163044eecfd60e41b8152600481018290526001600160a01b038416906344eecfd0906024015b600060405180830381600087803b15801562001b1c57600080fd5b505af115801562001b31573d6000803e3d6000fd5b505050505050505050565b60405163177e569160e31b81526001600160a01b03858116600483015284811660248301526044820183905283919082169063bbf2b4889060640162001b01565b803b62001be35760405162461bcd60e51b815260206004820152602d60248201527f455243313936373a206e657720696d706c656d656e746174696f6e206973206e60448201526c1bdd08184818dbdb9d1c9858dd609a1b606482015260840162000473565b7f360894a13ba1a3210667c828492db98dca3e2076cc3735a920a3ca505d382bbc80546001600160a01b0319166001600160a01b0392909216919091179055565b6060823b62001c855760405162461bcd60e51b815260206004820152602660248201527f416464726573733a2064656c65676174652063616c6c20746f206e6f6e2d636f6044820152651b9d1c9858dd60d21b606482015260840162000473565b600080846001600160a01b03168460405162001ca29190620026a3565b600060405180830381855af49150503d806000811462001cdf576040519150601f19603f3d011682016040523d82523d6000602084013e62001ce4565b606091505b509150915062001d0f8282604051806060016040528060278152602001620038ec6027913962001e31565b95945050505050565b62001d238162001b7d565b6040516001600160a01b038216907fbc7cd75a20ee27fd9adebab32041f755214dbc6bffa90cc0225b39da2e5c2d3b90600090a250565b600054610100900460ff168062001d74575060005460ff16155b62001d935760405162461bcd60e51b81526004016200047390620027f0565b600054610100900460ff161580156200187c576000805461ffff1916610101179055801562000378576000805461ff001916905550565b600054610100900460ff168062001de4575060005460ff16155b62001e035760405162461bcd60e51b81526004016200047390620027f0565b600054610100900460ff1615801562001e26576000805461ffff19166101011790555b6200187c3362001891565b6060831562001e4257508162001e6f565b82511562001e535782518084602001fd5b8160405162461bcd60e51b8152600401620004739190620027db565b9392505050565b6109938062002a2683390190565b61053380620033b983390190565b600082601f83011262001ea457600080fd5b8135602062001ebd62001eb783620028de565b620028aa565b80838252828201915082860187848660051b890101111562001ede57600080fd5b60005b8581101562001f0a57813562001ef781620029ff565b8452928401929084019060010162001ee1565b5090979650505050505050565b600082601f83011262001f2957600080fd5b8135602062001f3c62001eb783620028de565b80838252828201915082860187848660051b890101111562001f5d57600080fd5b60005b8581101562001f0a5762001f74826200205e565b8452928401929084019060010162001f60565b600082601f83011262001f9957600080fd5b8135602062001fac62001eb783620028de565b80838252828201915082860187848660051b890101111562001fcd57600080fd5b60005b8581101562001f0a5781358452928401929084019060010162001fd0565b600082601f8301126200200057600080fd5b813560206200201362001eb783620028de565b80838252828201915082860187848660051b89010111156200203457600080fd5b60005b8581101562001f0a576200204b8262002076565b8452928401929084019060010162002037565b803561ffff811681146200207157600080fd5b919050565b803563ffffffff811681146200207157600080fd5b805169ffffffffffffffffffff811681146200207157600080fd5b600060208284031215620020b957600080fd5b813562001e6f81620029ff565b600060208284031215620020d957600080fd5b815162001e6f81620029ff565b60008060408385031215620020fa57600080fd5b82356200210781620029ff565b915060208301356200211981620029ff565b809150509250929050565b600080600080608085870312156200213b57600080fd5b84356200214881620029ff565b935060208501356200215a81620029ff565b9250604085013567ffffffffffffffff808211156200217857600080fd5b620021868883890162001e92565b935060608701359150808211156200219d57600080fd5b50620021ac8782880162001f87565b91505092959194509250565b600080600060608486031215620021ce57600080fd5b8335620021db81620029ff565b9250602084013567ffffffffffffffff811115620021f857600080fd5b620022068682870162001e92565b9250506040840135620022198162002a15565b809150509250925092565b600080604083850312156200223857600080fd5b82356200224581620029ff565b915060208381013567ffffffffffffffff808211156200226457600080fd5b818601915086601f8301126200227957600080fd5b8135818111156200228e576200228e620029e9565b620022a2601f8201601f19168501620028aa565b91508082528784828501011115620022b957600080fd5b80848401858401376000848284010152508093505050509250929050565b600080600060608486031215620022ed57600080fd5b833567ffffffffffffffff808211156200230657600080fd5b620023148783880162001e92565b945060208601359150808211156200232b57600080fd5b506200233a8682870162001f87565b925050604084013590509250925092565b6000806000606084860312156200236157600080fd5b833567ffffffffffffffff808211156200237a57600080fd5b818601915086601f8301126200238f57600080fd5b81356020620023a262001eb783620028de565b8083825282820191508286018b848660051b8901011115620023c357600080fd5b600096505b84871015620023f3578035620023de81620029ff565b835260019690960195918301918301620023c8565b50975050870135925050808211156200240b57600080fd5b620024198783880162001fee565b935060408601359150808211156200243057600080fd5b506200243f8682870162001f17565b9150509250925092565b600080604083850312156200245d57600080fd5b62002468836200205e565b915062002478602084016200205e565b90509250929050565b6000602082840312156200249457600080fd5b5035919050565b600060208284031215620024ae57600080fd5b5051919050565b60008060408385031215620024c957600080fd5b82519150602083015180151581146200211957600080fd5b60008060408385031215620024f557600080fd5b50508035926020909101359150565b600080600080608085870312156200251b57600080fd5b8451935060208501516200252f8162002a15565b60408601519093506200254281620029ff565b6060959095015193969295505050565b6000602082840312156200256557600080fd5b62001e6f8262002076565b600080600080600060a086880312156200258957600080fd5b62002594866200208b565b9450602086015193506040860151925060608601519150620025b9608087016200208b565b90509295509295909350565b600081518084526020808501945080840160005b83811015620025f757815187529582019590820190600101620025d9565b509495945050505050565b600081518084526200261c81602086016020860162002965565b601f01601f19169290920160200192915050565b815160009082906020808601845b83811015620026655781516001600160a01b0316855293820193908201906001016200263e565b50929695505050505050565b815160009082906020808601845b838110156200266557815163ffffffff16855293820193908201906001016200267f565b60008251620026b781846020870162002965565b9190910192915050565b60018060a01b0385168152836020820152608060408201526000620026ea6080830185620025c5565b905082606083015295945050505050565b6001600160a01b0383168152604060208201819052600090620027219083018462002602565b949350505050565b604080825283519082018190526000906020906060840190828701845b828110156200276d5781516001600160a01b03168452928401929084019060010162002746565b50505083810382850152620027838186620025c5565b9695505050505050565b604080825283519082018190526000906020906060840190828701845b82811015620027cc57815161ffff1684529284019290840190600101620027aa565b50505092019290925292915050565b60208152600062001e6f602083018462002602565b6020808252602e908201527f496e697469616c697a61626c653a20636f6e747261637420697320616c72656160408201526d191e481a5b9a5d1a585b1a5e995960921b606082015260800190565b6020808252818101527f4f776e61626c653a2063616c6c6572206973206e6f7420746865206f776e6572604082015260600190565b6020808252601f908201527f5265656e7472616e637947756172643a207265656e7472616e742063616c6c00604082015260600190565b604051601f8201601f1916810167ffffffffffffffff81118282101715620028d657620028d6620029e9565b604052919050565b600067ffffffffffffffff821115620028fb57620028fb620029e9565b5060051b60200190565b600082198211156200291b576200291b620029bd565b500190565b6000826200293e57634e487b7160e01b600052601260045260246000fd5b500490565b6000816000190483118215151615620029605762002960620029bd565b500290565b60005b838110156200298257818101518382015260200162002968565b8381111562002992576000848401525b50505050565b600061ffff80831681811415620029b357620029b3620029bd565b6001019392505050565b634e487b7160e01b600052601160045260246000fd5b634e487b7160e01b600052603260045260246000fd5b634e487b7160e01b600052604160045260246000fd5b6001600160a01b03811681146200037857600080fd5b60ff811681146200037857600080fdfe608060405260405161099338038061099383398101604081905261002291610470565b61004d60017fa3f0ad74e5423aebfd80d3ef4346578335a9a72aeaee59ff6cb3582b35133d5161057f565b60008051602061094c83398151915214610069576100696105d0565b6100758282600061007c565b50506105fc565b61008583610156565b6040516001600160a01b038416907f1cf3b03a6cf19fa2baba4df148e9dcabedea7f8a5c07840e207e5c089be95d3e90600090a26000825111806100c65750805b156101515761014f836001600160a01b0316635c60da1b6040518163ffffffff1660e01b815260040160206040518083038186803b15801561010757600080fd5b505afa15801561011b573d6000803e3d6000fd5b505050506040513d601f19601f8201168201806040525081019061013f9190610455565b836102f660201b6100291760201c565b505b505050565b6101698161032260201b6100551760201c565b6101c85760405162461bcd60e51b815260206004820152602560248201527f455243313936373a206e657720626561636f6e206973206e6f74206120636f6e6044820152641d1c9858dd60da1b60648201526084015b60405180910390fd5b61024b816001600160a01b0316635c60da1b6040518163ffffffff1660e01b815260040160206040518083038186803b15801561020457600080fd5b505afa158015610218573d6000803e3d6000fd5b505050506040513d601f19601f8201168201806040525081019061023c9190610455565b61032260201b6100551760201c565b6102b05760405162461bcd60e51b815260206004820152603060248201527f455243313936373a20626561636f6e20696d706c656d656e746174696f6e206960448201526f1cc81b9bdd08184818dbdb9d1c9858dd60821b60648201526084016101bf565b806102d560008051602061094c83398151915260001b61032860201b61005b1760201c565b80546001600160a01b0319166001600160a01b039290921691909117905550565b606061031b838360405180606001604052806027815260200161096c6027913961032b565b9392505050565b3b151590565b90565b6060833b61038a5760405162461bcd60e51b815260206004820152602660248201527f416464726573733a2064656c65676174652063616c6c20746f206e6f6e2d636f6044820152651b9d1c9858dd60d21b60648201526084016101bf565b600080856001600160a01b0316856040516103a59190610530565b600060405180830381855af49150503d80600081146103e0576040519150601f19603f3d011682016040523d82523d6000602084013e6103e5565b606091505b5090925090506103f6828286610400565b9695505050505050565b6060831561040f57508161031b565b82511561041f5782518084602001fd5b8160405162461bcd60e51b81526004016101bf919061054c565b80516001600160a01b038116811461045057600080fd5b919050565b60006020828403121561046757600080fd5b61031b82610439565b6000806040838503121561048357600080fd5b61048c83610439565b60208401519092506001600160401b03808211156104a957600080fd5b818501915085601f8301126104bd57600080fd5b8151818111156104cf576104cf6105e6565b604051601f8201601f19908116603f011681019083821181831017156104f7576104f76105e6565b8160405282815288602084870101111561051057600080fd5b6105218360208301602088016105a4565b80955050505050509250929050565b600082516105428184602087016105a4565b9190910192915050565b602081526000825180602084015261056b8160408501602087016105a4565b601f01601f19169190910160400192915050565b60008282101561059f57634e487b7160e01b600052601160045260246000fd5b500390565b60005b838110156105bf5781810151838201526020016105a7565b8381111561014f5750506000910152565b634e487b7160e01b600052600160045260246000fd5b634e487b7160e01b600052604160045260246000fd5b6103418061060b6000396000f3fe60806040523661001357610011610017565b005b6100115b61002761002261005e565b610106565b565b606061004e83836040518060600160405280602781526020016102e56027913961012a565b9392505050565b3b151590565b90565b60006100917fa3f0ad74e5423aebfd80d3ef4346578335a9a72aeaee59ff6cb3582b35133d50546001600160a01b031690565b6001600160a01b0316635c60da1b6040518163ffffffff1660e01b815260040160206040518083038186803b1580156100c957600080fd5b505afa1580156100dd573d6000803e3d6000fd5b505050506040513d601f19601f82011682018060405250810190610101919061023c565b905090565b3660008037600080366000845af43d6000803e808015610125573d6000f35b3d6000fd5b6060833b61018e5760405162461bcd60e51b815260206004820152602660248201527f416464726573733a2064656c65676174652063616c6c20746f206e6f6e2d636f6044820152651b9d1c9858dd60d21b60648201526084015b60405180910390fd5b600080856001600160a01b0316856040516101a99190610265565b600060405180830381855af49150503d80600081146101e4576040519150601f19603f3d011682016040523d82523d6000602084013e6101e9565b606091505b50915091506101f9828286610203565b9695505050505050565b6060831561021257508161004e565b8251156102225782518084602001fd5b8160405162461bcd60e51b81526004016101859190610281565b60006020828403121561024e57600080fd5b81516001600160a01b038116811461004e57600080fd5b600082516102778184602087016102b4565b9190910192915050565b60208152600082518060208401526102a08160408501602087016102b4565b601f01601f19169190910160400192915050565b60005b838110156102cf5781810151838201526020016102b7565b838111156102de576000848401525b5050505056fe416464726573733a206c6f772d6c6576656c2064656c65676174652063616c6c206661696c6564a2646970667358221220083f5423fec368aabbb0acd6db8adae396291ef41caa6b7829ce8e6ae4b7618364736f6c63430008070033a3f0ad74e5423aebfd80d3ef4346578335a9a72aeaee59ff6cb3582b35133d50416464726573733a206c6f772d6c6576656c2064656c65676174652063616c6c206661696c6564608060405234801561001057600080fd5b5060405161053338038061053383398101604081905261002f91610130565b600080546001600160a01b031916339081178255604051909182917f8be0079c531659141344cd1fd0a4f28419497f9722a3daafe3b4186f6b6457e0908290a3506100798161007f565b50610160565b6100928161012a60201b6102971760201c565b6101085760405162461bcd60e51b815260206004820152603360248201527f5570677261646561626c65426561636f6e3a20696d706c656d656e746174696f60448201527f6e206973206e6f74206120636f6e747261637400000000000000000000000000606482015260840160405180910390fd5b600180546001600160a01b0319166001600160a01b0392909216919091179055565b3b151590565b60006020828403121561014257600080fd5b81516001600160a01b038116811461015957600080fd5b9392505050565b6103c48061016f6000396000f3fe608060405234801561001057600080fd5b50600436106100575760003560e01c80633659cfe61461005c5780635c60da1b14610071578063715018a61461009a5780638da5cb5b146100a2578063f2fde38b146100b3575b600080fd5b61006f61006a366004610329565b6100c6565b005b6001546001600160a01b03165b6040516001600160a01b03909116815260200160405180910390f35b61006f610139565b6000546001600160a01b031661007e565b61006f6100c1366004610329565b6101ad565b6000546001600160a01b031633146100f95760405162461bcd60e51b81526004016100f090610359565b60405180910390fd5b6101028161029d565b6040516001600160a01b038216907fbc7cd75a20ee27fd9adebab32041f755214dbc6bffa90cc0225b39da2e5c2d3b90600090a250565b6000546001600160a01b031633146101635760405162461bcd60e51b81526004016100f090610359565b600080546040516001600160a01b03909116907f8be0079c531659141344cd1fd0a4f28419497f9722a3daafe3b4186f6b6457e0908390a3600080546001600160a01b0319169055565b6000546001600160a01b031633146101d75760405162461bcd60e51b81526004016100f090610359565b6001600160a01b03811661023c5760405162461bcd60e51b815260206004820152602660248201527f4f776e61626c653a206e6577206f776e657220697320746865207a65726f206160448201526564647265737360d01b60648201526084016100f0565b600080546040516001600160a01b03808516939216917f8be0079c531659141344cd1fd0a4f28419497f9722a3daafe3b4186f6b6457e091a3600080546001600160a01b0319166001600160a01b0392909216919091179055565b3b151590565b803b6103075760405162461bcd60e51b815260206004820152603360248201527f5570677261646561626c65426561636f6e3a20696d706c656d656e746174696f6044820152721b881a5cc81b9bdd08184818dbdb9d1c9858dd606a1b60648201526084016100f0565b600180546001600160a01b0319166001600160a01b0392909216919091179055565b60006020828403121561033b57600080fd5b81356001600160a01b038116811461035257600080fd5b9392505050565b6020808252818101527f4f776e61626c653a2063616c6c6572206973206e6f7420746865206f776e657260408201526060019056fea26469706673582212207275df78dfd66d143bcc8b7c3154fdd858d9beab0bf0447ae30d752300bb428764736f6c63430008070033416464726573733a206c6f772d6c6576656c2064656c65676174652063616c6c206661696c6564a26469706673582212209ee75bba2fe079e24ac82cf5eb403139dc545fdf4c00b183f837a1fc83468be064736f6c63430008070033",
  "linkReferences": {},
  "deployedLinkReferences": {}
}