{
  "_format": "hh-sol-artifact-1",
  "contractName": "Slicer",
  "sourceName": "contracts/slicer_v0.sol",
  "abi": [
    {
      "anonymous": false,
      "inputs": [
        {
          "indexed": true,
          "internalType": "uint256",
          "name": "slicerId",
          "type": "uint256"
        }
      ],
      "name": "AddedChildrenSlicer",
      "type": "event"
    },
    {
      "anonymous": false,
      "inputs": [
        {
          "indexed": false,
          "internalType": "address",
          "name": "account",
          "type": "address"
        }
      ],
      "name": "Paused",
      "type": "event"
    },
    {
      "anonymous": false,
      "inputs": [
        {
          "indexed": true,
          "internalType": "address",
          "name": "from",
          "type": "address"
        },
        {
          "indexed": false,
          "internalType": "uint256",
          "name": "amount",
          "type": "uint256"
        }
      ],
      "name": "PaymentReceived",
      "type": "event"
    },
    {
      "anonymous": false,
      "inputs": [
        {
          "indexed": true,
          "internalType": "uint32",
          "name": "productId",
          "type": "uint32"
        },
        {
          "indexed": true,
          "internalType": "uint32",
          "name": "categoryIndex",
          "type": "uint32"
        },
        {
          "indexed": false,
          "internalType": "uint256",
          "name": "price",
          "type": "uint256"
        },
        {
          "indexed": false,
          "internalType": "bool",
          "name": "isUSD",
          "type": "bool"
        },
        {
          "indexed": false,
          "internalType": "bool",
          "name": "isMultiple",
          "type": "bool"
        },
        {
          "indexed": false,
          "internalType": "bool",
          "name": "isInfinite",
          "type": "bool"
        },
        {
          "indexed": false,
          "internalType": "uint32",
          "name": "availableUnits",
          "type": "uint32"
        },
        {
          "indexed": true,
          "internalType": "address",
          "name": "creator",
          "type": "address"
        },
        {
          "indexed": false,
          "internalType": "bytes",
          "name": "data",
          "type": "bytes"
        }
      ],
      "name": "ProductAdded",
      "type": "event"
    },
    {
      "anonymous": false,
      "inputs": [
        {
          "indexed": true,
          "internalType": "uint32",
          "name": "productId",
          "type": "uint32"
        },
        {
          "indexed": false,
          "internalType": "uint32",
          "name": "categoryIndex",
          "type": "uint32"
        }
      ],
      "name": "ProductCategoryChanged",
      "type": "event"
    },
    {
      "anonymous": false,
      "inputs": [
        {
          "indexed": true,
          "internalType": "uint32",
          "name": "productId",
          "type": "uint32"
        },
        {
          "indexed": false,
          "internalType": "uint256",
          "name": "productPrice",
          "type": "uint256"
        },
        {
          "indexed": false,
          "internalType": "bool",
          "name": "isUSD",
          "type": "bool"
        }
      ],
      "name": "ProductCurrencyChanged",
      "type": "event"
    },
    {
      "anonymous": false,
      "inputs": [
        {
          "indexed": true,
          "internalType": "uint32",
          "name": "productId",
          "type": "uint32"
        },
        {
          "indexed": false,
          "internalType": "bool",
          "name": "isInfinite",
          "type": "bool"
        },
        {
          "indexed": false,
          "internalType": "uint32",
          "name": "units",
          "type": "uint32"
        },
        {
          "indexed": false,
          "internalType": "uint256",
          "name": "productPrice",
          "type": "uint256"
        }
      ],
      "name": "ProductInfoChanged",
      "type": "event"
    },
    {
      "anonymous": false,
      "inputs": [
        {
          "indexed": true,
          "internalType": "address",
          "name": "from",
          "type": "address"
        },
        {
          "indexed": true,
          "internalType": "uint32",
          "name": "productId",
          "type": "uint32"
        },
        {
          "indexed": false,
          "internalType": "uint16",
          "name": "quantity",
          "type": "uint16"
        },
        {
          "indexed": false,
          "internalType": "uint256",
          "name": "productPrice",
          "type": "uint256"
        }
      ],
      "name": "ProductPaid",
      "type": "event"
    },
    {
      "anonymous": false,
      "inputs": [
        {
          "indexed": true,
          "internalType": "uint32",
          "name": "productId",
          "type": "uint32"
        }
      ],
      "name": "ProductRemoved",
      "type": "event"
    },
    {
      "anonymous": false,
      "inputs": [
        {
          "indexed": false,
          "internalType": "uint32[]",
          "name": "serviceIds",
          "type": "uint32[]"
        },
        {
          "indexed": false,
          "internalType": "uint16[]",
          "name": "quantities",
          "type": "uint16[]"
        },
        {
          "indexed": false,
          "internalType": "uint256",
          "name": "amount",
          "type": "uint256"
        }
      ],
      "name": "SLCPaid",
      "type": "event"
    },
    {
      "anonymous": false,
      "inputs": [
        {
          "indexed": true,
          "internalType": "address",
          "name": "payee",
          "type": "address"
        },
        {
          "indexed": false,
          "internalType": "uint256",
          "name": "released",
          "type": "uint256"
        }
      ],
      "name": "TriggeredRelease",
      "type": "event"
    },
    {
      "anonymous": false,
      "inputs": [
        {
          "indexed": false,
          "internalType": "address",
          "name": "account",
          "type": "address"
        }
      ],
      "name": "Unpaused",
      "type": "event"
    },
    {
      "inputs": [
        {
          "internalType": "uint256",
          "name": "id",
          "type": "uint256"
        }
      ],
      "name": "_addChildrenSlicer",
      "outputs": [],
      "stateMutability": "nonpayable",
      "type": "function"
    },
    {
      "inputs": [
        {
          "internalType": "address[]",
          "name": "accounts",
          "type": "address[]"
        },
        {
          "internalType": "uint256[]",
          "name": "shares_",
          "type": "uint256[]"
        }
      ],
      "name": "_addPayees",
      "outputs": [],
      "stateMutability": "nonpayable",
      "type": "function"
    },
    {
      "inputs": [
        {
          "internalType": "uint256",
          "name": "tokenId_",
          "type": "uint256"
        },
        {
          "internalType": "address",
          "name": "slicerCreator_",
          "type": "address"
        },
        {
          "internalType": "uint256",
          "name": "minimumShares_",
          "type": "uint256"
        }
      ],
      "name": "_initialize",
      "outputs": [],
      "stateMutability": "nonpayable",
      "type": "function"
    },
    {
      "inputs": [
        {
          "internalType": "address",
          "name": "account",
          "type": "address"
        },
        {
          "internalType": "uint32",
          "name": "productId",
          "type": "uint32"
        },
        {
          "internalType": "uint16",
          "name": "quantity",
          "type": "uint16"
        }
      ],
      "name": "_payProduct",
      "outputs": [],
      "stateMutability": "payable",
      "type": "function"
    },
    {
      "inputs": [
        {
          "internalType": "address",
          "name": "accountFrom",
          "type": "address"
        },
        {
          "internalType": "address",
          "name": "accountTo",
          "type": "address"
        },
        {
          "internalType": "uint256",
          "name": "transferredShares",
          "type": "uint256"
        }
      ],
      "name": "_updatePayees",
      "outputs": [],
      "stateMutability": "nonpayable",
      "type": "function"
    },
    {
      "inputs": [
        {
          "internalType": "uint32",
          "name": "categoryIndex",
          "type": "uint32"
        },
        {
          "internalType": "uint256",
          "name": "price",
          "type": "uint256"
        },
        {
          "internalType": "bool",
          "name": "isUSD",
          "type": "bool"
        },
        {
          "internalType": "bool",
          "name": "isMultiple",
          "type": "bool"
        },
        {
          "internalType": "bool",
          "name": "isInfinite",
          "type": "bool"
        },
        {
          "internalType": "uint32",
          "name": "units",
          "type": "uint32"
        },
        {
          "internalType": "bytes",
          "name": "data",
          "type": "bytes"
        },
        {
          "internalType": "bytes",
          "name": "purchaseData",
          "type": "bytes"
        }
      ],
      "name": "addProduct",
      "outputs": [],
      "stateMutability": "nonpayable",
      "type": "function"
    },
    {
      "inputs": [
        {
          "internalType": "address",
          "name": "payee",
          "type": "address"
        }
      ],
      "name": "isPayeeAllowed",
      "outputs": [
        {
          "internalType": "bool",
          "name": "",
          "type": "bool"
        }
      ],
      "stateMutability": "view",
      "type": "function"
    },
    {
      "inputs": [
        {
          "internalType": "address",
          "name": "",
          "type": "address"
        },
        {
          "internalType": "address",
          "name": "",
          "type": "address"
        },
        {
          "internalType": "uint256[]",
          "name": "ids",
          "type": "uint256[]"
        },
        {
          "internalType": "uint256[]",
          "name": "",
          "type": "uint256[]"
        },
        {
          "internalType": "bytes",
          "name": "",
          "type": "bytes"
        }
      ],
      "name": "onERC1155BatchReceived",
      "outputs": [
        {
          "internalType": "bytes4",
          "name": "",
          "type": "bytes4"
        }
      ],
      "stateMutability": "nonpayable",
      "type": "function"
    },
    {
      "inputs": [
        {
          "internalType": "address",
          "name": "",
          "type": "address"
        },
        {
          "internalType": "address",
          "name": "",
          "type": "address"
        },
        {
          "internalType": "uint256",
          "name": "id",
          "type": "uint256"
        },
        {
          "internalType": "uint256",
          "name": "",
          "type": "uint256"
        },
        {
          "internalType": "bytes",
          "name": "",
          "type": "bytes"
        }
      ],
      "name": "onERC1155Received",
      "outputs": [
        {
          "internalType": "bytes4",
          "name": "",
          "type": "bytes4"
        }
      ],
      "stateMutability": "nonpayable",
      "type": "function"
    },
    {
      "inputs": [],
      "name": "paused",
      "outputs": [
        {
          "internalType": "bool",
          "name": "",
          "type": "bool"
        }
      ],
      "stateMutability": "view",
      "type": "function"
    },
    {
      "inputs": [
        {
          "internalType": "uint32[]",
          "name": "serviceIds",
          "type": "uint32[]"
        },
        {
          "internalType": "uint16[]",
          "name": "quantities",
          "type": "uint16[]"
        }
      ],
      "name": "paySLC",
      "outputs": [],
      "stateMutability": "nonpayable",
      "type": "function"
    },
    {
      "inputs": [
        {
          "internalType": "uint32",
          "name": "productId",
          "type": "uint32"
        }
      ],
      "name": "productPrice",
      "outputs": [
        {
          "internalType": "uint256",
          "name": "price",
          "type": "uint256"
        },
        {
          "internalType": "bool",
          "name": "isUSD",
          "type": "bool"
        }
      ],
      "stateMutability": "view",
      "type": "function"
    },
    {
      "inputs": [
        {
          "internalType": "address payable",
          "name": "account",
          "type": "address"
        }
      ],
      "name": "release",
      "outputs": [
        {
          "internalType": "uint256",
          "name": "",
          "type": "uint256"
        }
      ],
      "stateMutability": "nonpayable",
      "type": "function"
    },
    {
      "inputs": [
        {
          "internalType": "address",
          "name": "account",
          "type": "address"
        }
      ],
      "name": "released",
      "outputs": [
        {
          "internalType": "uint256",
          "name": "",
          "type": "uint256"
        }
      ],
      "stateMutability": "view",
      "type": "function"
    },
    {
      "inputs": [
        {
          "internalType": "uint32",
          "name": "productId",
          "type": "uint32"
        }
      ],
      "name": "removeProduct",
      "outputs": [],
      "stateMutability": "nonpayable",
      "type": "function"
    },
    {
      "inputs": [
        {
          "internalType": "uint32",
          "name": "productId",
          "type": "uint32"
        },
        {
          "internalType": "uint32",
          "name": "categoryIndex",
          "type": "uint32"
        }
      ],
      "name": "setProductCategory",
      "outputs": [],
      "stateMutability": "nonpayable",
      "type": "function"
    },
    {
      "inputs": [
        {
          "internalType": "uint32",
          "name": "productId",
          "type": "uint32"
        },
        {
          "internalType": "bool",
          "name": "isInfinite",
          "type": "bool"
        },
        {
          "internalType": "uint32",
          "name": "newUnits",
          "type": "uint32"
        },
        {
          "internalType": "uint256",
          "name": "newPrice",
          "type": "uint256"
        }
      ],
      "name": "setProductInfo",
      "outputs": [],
      "stateMutability": "nonpayable",
      "type": "function"
    },
    {
      "inputs": [],
      "name": "slicerInfo",
      "outputs": [
        {
          "internalType": "uint256",
          "name": "",
          "type": "uint256"
        },
        {
          "internalType": "uint8",
          "name": "version",
          "type": "uint8"
        },
        {
          "internalType": "address",
          "name": "creator",
          "type": "address"
        },
        {
          "internalType": "uint256",
          "name": "",
          "type": "uint256"
        }
      ],
      "stateMutability": "view",
      "type": "function"
    },
    {
      "inputs": [
        {
          "internalType": "bytes4",
          "name": "interfaceId",
          "type": "bytes4"
        }
      ],
      "name": "supportsInterface",
      "outputs": [
        {
          "internalType": "bool",
          "name": "",
          "type": "bool"
        }
      ],
      "stateMutability": "view",
      "type": "function"
    },
    {
      "inputs": [
        {
          "internalType": "uint32",
          "name": "productId",
          "type": "uint32"
        },
        {
          "internalType": "bool",
          "name": "isUSD",
          "type": "bool"
        }
      ],
      "name": "toggleUSDPrice",
      "outputs": [],
      "stateMutability": "nonpayable",
      "type": "function"
    },
    {
      "inputs": [],
      "name": "totalReceived",
      "outputs": [
        {
          "internalType": "uint256",
          "name": "",
          "type": "uint256"
        }
      ],
      "stateMutability": "view",
      "type": "function"
    },
    {
      "inputs": [
        {
          "internalType": "address",
          "name": "account",
          "type": "address"
        }
      ],
      "name": "unreleased",
      "outputs": [
        {
          "internalType": "uint256",
          "name": "",
          "type": "uint256"
        }
      ],
      "stateMutability": "view",
      "type": "function"
    },
    {
      "inputs": [
        {
          "internalType": "uint32",
          "name": "productId",
          "type": "uint32"
        }
      ],
      "name": "validatePurchase",
      "outputs": [
        {
          "internalType": "uint256",
          "name": "purchases",
          "type": "uint256"
        },
        {
          "internalType": "bytes",
          "name": "purchaseData",
          "type": "bytes"
        }
      ],
      "stateMutability": "view",
      "type": "function"
    },
    {
      "stateMutability": "payable",
      "type": "receive"
    }
  ],
  "bytecode": "0x608060405234801561001057600080fd5b506001805460ff19168155600255612e0f8061002d6000396000f3fe6080604052600436106101445760003560e01c8063800ddcaa116100b6578063bbf2b4881161006f578063bbf2b4881461045b578063bc197c811461047b578063bfe5d835146104b4578063dd102d5e146104e9578063f23a6e6114610509578063fd5e12e31461052957600080fd5b8063800ddcaa1461036a578063957e07b61461038a5780639852595c146103cd578063a3c2c46214610406578063b1b473571461041b578063b78ee7671461043b57600080fd5b8063344603231161010857806334460323146102a457806344eecfd0146102d257806345c47233146102f257806354c2a04c1461031257806359bac56c146103325780635c975abb1461035257600080fd5b806301ffc9a7146101ec5780630c170ffd1461022157806319165587146102435780632a67293d1461027157806330e552481461029157600080fd5b366101e75760015460ff16156101755760405162461bcd60e51b815260040161016c90612afa565b60405180910390fd5b60006103e8610185601934612c9e565b61018f9190612c7c565b90506101af73f39fd6e51aad88f6f4ce6ab8827279cfffb9226682610549565b60405134815233907f6ef95f06320e7a25a04a175ca677b7052bdd97131872c2192525a629f51be7709060200160405180910390a250005b600080fd5b3480156101f857600080fd5b5061020c6102073660046127ae565b610667565b60405190151581526020015b60405180910390f35b34801561022d57600080fd5b5061024161023c366004612831565b61069e565b005b34801561024f57600080fd5b5061026361025e366004612434565b61081d565b604051908152602001610218565b34801561027d57600080fd5b5061026361028c366004612434565b6109f1565b61024161029f3660046125c6565b610a80565b3480156102b057600080fd5b506102c46102bf366004612831565b610d6b565b604051610218929190612bc6565b3480156102de57600080fd5b506102416102ed3660046127f1565b610e9d565b3480156102fe57600080fd5b5061024161030d3660046128d0565b610f2d565b34801561031e57600080fd5b5061024161032d36600461280a565b611128565b34801561033e57600080fd5b5061020c61034d366004612434565b611186565b34801561035e57600080fd5b5060015460ff1661020c565b34801561037657600080fd5b50610241610385366004612997565b61134f565b34801561039657600080fd5b5060035460045460055460408051938452600160208501526001600160a01b03909216918301919091526060820152608001610218565b3480156103d957600080fd5b506102636103e8366004612434565b6001600160a01b031660009081526009602052604090206001015490565b34801561041257600080fd5b50610263611526565b34801561042757600080fd5b506102416104363660046126d4565b61153b565b34801561044757600080fd5b50610241610456366004612883565b61174c565b34801561046757600080fd5b5061024161047636600461251c565b6119ad565b34801561048757600080fd5b5061049b61049636600461246e565b611afb565b6040516001600160e01b03199091168152602001610218565b3480156104c057600080fd5b506104d46104cf366004612831565b611bc0565b60408051928352901515602083015201610218565b3480156104f557600080fd5b5061024161050436600461284c565b611c25565b34801561051557600080fd5b5061049b61052436600461255d565b611f23565b34801561053557600080fd5b5061024161054436600461260b565b611fa7565b804710156105995760405162461bcd60e51b815260206004820152601d60248201527f416464726573733a20696e73756666696369656e742062616c616e6365000000604482015260640161016c565b6000826001600160a01b03168260405160006040518083038185875af1925050503d80600081146105e6576040519150601f19603f3d011682016040523d82523d6000602084013e6105eb565b606091505b50509050806106625760405162461bcd60e51b815260206004820152603a60248201527f416464726573733a20756e61626c6520746f2073656e642076616c75652c207260448201527f6563697069656e74206d61792068617665207265766572746564000000000000606482015260840161016c565b505050565b60006001600160e01b03198216630271189760e51b148061069857506301ffc9a760e01b6001600160e01b03198316145b92915050565b63ffffffff811660009081526020819052604090206001015481906106d55760405162461bcd60e51b815260040161016c90612aa5565b63ffffffff8216600090815260208190526040902060020154829061070990600160381b90046001600160a01b0316611186565b1561075a5763ffffffff8116600090815260208190526040902060020154600160381b90046001600160a01b031633146107555760405162461bcd60e51b815260040161016c90612b24565b610784565b61076333611186565b15156001146107845760405162461bcd60e51b815260040161016c90612b52565b63ffffffff8316600081815260208181526040808320805463ffffffff19168155600181018490556002810180546301000000600160d81b03191690558151808401928390528481529484529290915291516107e69260039092019190612227565b5060405163ffffffff8416907f761b291efc1cf42f36eac86ac2f397b06b9606dfb16059c83eb3ab8cc7e53e3090600090a2505050565b60006002805414156108715760405162461bcd60e51b815260206004820152601f60248201527f5265656e7472616e637947756172643a207265656e7472616e742063616c6c00604482015260640161016c565b600280556001600160a01b0382166000908152600860205260409020546108d25760405162461bcd60e51b81526020600482015260156024820152746163636f756e7420686173206e6f2073686172657360581b604482015260640161016c565b60006108dd836109f1565b9050806109215760405162461bcd60e51b81526020600482015260126024820152715061796d656e74206973206e6f742064756560701b604482015260640161016c565b6001600160a01b03831660009081526009602052604081208054839290610949908490612c3c565b90915550506001600160a01b03831660009081526009602052604090208190600101600082825461097a9190612c3c565b9250508190555080600760008282546109939190612c3c565b909155506109a390508382610549565b826001600160a01b03167fd01a8cc9ab129109f449ed0a777705c57b0aa086d3e08fe4a8de773b397143e7826040516109de91815260200190565b60405180910390a2600160025592915050565b6006546001600160a01b03821660009081526008602052604081205490918291610a19611526565b610a239190612c9e565b610a2d9190612c7c565b6001600160a01b0384166000908152600960205260409020549091508111610a56576000610a79565b6001600160a01b038316600090815260096020526040902054610a799082612cbd565b9392505050565b3373c7e7b60ee5b54d3c41ca4e556ba410d88a66fa9d14610ab35760405162461bcd60e51b815260040161016c90612ad4565b63ffffffff82166000908152602081905260409020600101548290610aea5760405162461bcd60e51b815260040161016c90612aa5565b61ffff8216610af857600080fd5b63ffffffff8316600090815260208190526040902060020154610100900460ff16610bae5763ffffffff8084166000908152602081815260408083206001600160a01b0389168452600501909152902054610b599161ffff85169116612c54565b63ffffffff16600114610bae5760405162461bcd60e51b815260206004820152601960248201527f4d6178696d756d207175616e7469747920657863656564656400000000000000604482015260640161016c565b610bb83034610549565b63ffffffff8084166000908152602081815260408083206001600160a01b03891684526005019091528120805461ffff861693919291610bfa91859116612c54565b92506101000a81548163ffffffff021916908363ffffffff1602179055506000808463ffffffff1663ffffffff16815260200190815260200160002060020160029054906101000a900460ff16610d165763ffffffff808416600090815260208190526040902060020154630100000090041661ffff83161115610cc05760405162461bcd60e51b815260206004820152601860248201527f417661696c61626c6520756e6974732065786365656465640000000000000000604482015260640161016c565b63ffffffff8084166000908152602081905260409020600201805461ffff851692600391610cf79185916301000000900416612cd4565b92506101000a81548163ffffffff021916908363ffffffff1602179055505b6040805161ffff8416815234602082015263ffffffff8516916001600160a01b038716917fcb35e6328d171aabe8c666c3fcc2ba3401887c5504bf5dfaa8b8c3be5ced01bc910160405180910390a350505050565b63ffffffff808216600090815260208181526040808320338452600501909152812054909160609116610dd45760405162461bcd60e51b8152602060048201526011602482015270139bdd081c1d5c98da185cd959081e595d607a1b604482015260640161016c565b63ffffffff8084166000818152602081815260408083203384526005810183529083205493835291905260040180549190921691908190610e1490612cf9565b80601f0160208091040260200160405190810160405280929190818152602001828054610e4090612cf9565b8015610e8d5780601f10610e6257610100808354040283529160200191610e8d565b820191906000526020600020905b815481529060010190602001808311610e7057829003601f168201915b5050505050905091509150915091565b60015460ff1615610ec05760405162461bcd60e51b815260040161016c90612afa565b3373c7e7b60ee5b54d3c41ca4e556ba410d88a66fa9d14610ef35760405162461bcd60e51b815260040161016c90612ad4565b610efe600a82612118565b5060405181907f0d29335611f0a3110c445dd4bbfb88a2cde38f18cf9cf36d6154d714cb097c5b90600090a250565b610f3633611186565b610f525760405162461bcd60e51b815260040161016c90612b52565b60008711610f985760405162461bcd60e51b815260206004820152601360248201527241646420612070726f6475637420707269636560681b604482015260640161016c565b610fa6600c80546001019055565b6000610fb1600c5490565b63ffffffff80821660009081526020819052604090209192508a1615610fdb57610fdb828b61134f565b805463ffffffff191663ffffffff8b161781556001810189905560028101805461ffff191689151561ff00191617610100891515021766ffffffff010000600160d81b0319166201000088151502670100000000000000600160d81b0319161733600160381b02179055835161105a9060038301906020870190612227565b5082516110709060048301906020860190612227565b50851561108e5760028101805466ffffffff000000191690556110af565b60028101805466ffffffff0000001916630100000063ffffffff8816021790555b336001600160a01b03168a63ffffffff168363ffffffff167fe3127f9c6bfb40ed0d48ee64afbe28821682c3d483effa9256a15fc8ccffd48a8c8c8c8c8860020160039054906101000a900463ffffffff168c60405161111496959493929190612b7d565b60405180910390a450505050505050505050565b3373c7e7b60ee5b54d3c41ca4e556ba410d88a66fa9d1461115b5760405162461bcd60e51b815260040161016c90612ad4565b600392909255600480546001600160a01b0319166001600160a01b0392909216919091179055600555565b6005546001600160a01b0382166000908152600860205260408120549091116111b157506001919050565b60006111bd600a612124565b11156113475773c7e7b60ee5b54d3c41ca4e556ba410d88a66fa9d60005b6111e5600a612124565b8161ffff1610156113445760006001600160a01b03831663175fa7ea611210600a61ffff861661212e565b6040518263ffffffff1660e01b815260040161122e91815260200190565b60206040518083038186803b15801561124657600080fd5b505afa15801561125a573d6000803e3d6000fd5b505050506040513d601f19601f8201168201806040525081019061127e9190612451565b6005546001600160a01b038216600090815260086020526040902054919250116113315760405163166eb15b60e21b81526001600160a01b0386811660048301528291908216906359bac56c9060240160206040518083038186803b1580156112e657600080fd5b505afa1580156112fa573d6000803e3d6000fd5b505050506040513d601f19601f8201168201806040525081019061131e9190612791565b1561132f5750600195945050505050565b505b508061133c81612d34565b9150506111db565b50505b506000919050565b61135833611186565b8061136257503330145b61137e5760405162461bcd60e51b815260040161016c90612b52565b739f64d99f1365c7565c406d40b693f9b9bf3e034363ffffffff8216158061142d575060405163588d1be760e01b815263ffffffff831660048201526000906001600160a01b0383169063588d1be79060240160206040518083038186803b1580156113e957600080fd5b505afa1580156113fd573d6000803e3d6000fd5b505050506040513d601f19601f820116820180604052508101906114219190612451565b6001600160a01b031614155b6114715760405162461bcd60e51b81526020600482015260156024820152744e6f6e2d6578697374656e742063617465676f727960581b604482015260640161016c565b60405163392d518560e21b815263ffffffff8316600482015273c7e7b60ee5b54d3c41ca4e556ba410d88a66fa9d9063e4b5461490602401600060405180830381600087803b1580156114c357600080fd5b505af11580156114d7573d6000803e3d6000fd5b5050333014915061066290505760405163ffffffff83811682528416907f06430051821ecb8819b754999dfd1a452d9907849169f3ca411dc854bdb0f2b29060200160405180910390a2505050565b6000600754476115369190612c3c565b905090565b61154433611186565b6115605760405162461bcd60e51b815260040161016c90612b52565b730827d84fe2bcafb9286103157c090e47fa4e3f786000805b84518161ffff16101561167557838161ffff168151811061159c5761159c612d87565b602002602001015161ffff16836001600160a01b0316633941a604878461ffff16815181106115cd576115cd612d87565b60200260200101516040518263ffffffff1660e01b81526004016115fd919063ffffffff91909116815260200190565b60206040518083038186803b15801561161557600080fd5b505afa158015611629573d6000803e3d6000fd5b505050506040513d601f19601f8201168201806040525081019061164d91906127d8565b6116579190612c9e565b6116619083612c3c565b91508061166d81612d34565b915050611579565b5060405163a9059cbb60e01b815273f39fd6e51aad88f6f4ce6ab8827279cfffb922666004820152602481018290526001600160a01b0383169063a9059cbb90604401602060405180830381600087803b1580156116d257600080fd5b505af11580156116e6573d6000803e3d6000fd5b505050506040513d601f19601f8201168201806040525081019061170a9190612791565b507fd0e7280fe218f387be224105631180630e7d8cdb9d48bbc504aa1584cf8d62d584848360405161173e93929190612a17565b60405180910390a150505050565b63ffffffff841660009081526020819052604090206001015484906117835760405162461bcd60e51b815260040161016c90612aa5565b63ffffffff851660009081526020819052604090206002015485906117b790600160381b90046001600160a01b0316611186565b156118085763ffffffff8116600090815260208190526040902060020154600160381b90046001600160a01b031633146118035760405162461bcd60e51b815260040161016c90612b24565b611832565b61181133611186565b15156001146118325760405162461bcd60e51b815260040161016c90612b52565b60008311801561185a575063ffffffff86166000908152602081905260409020600101548311155b61189e5760405162461bcd60e51b8152602060048201526015602482015274496e76616c69642070726f6475637420707269636560581b604482015260640161016c565b63ffffffff8616600090815260208190526040902060028101805487158015620100000262ff0000199092169190911790915560019091018490556119085763ffffffff86166000908152602081905260409020600201805466ffffffff0000001916905561193f565b63ffffffff8087166000908152602081905260409020600201805491861663010000000266ffffffff000000199092169190911790555b63ffffffff868116600081815260208181526040918290206002015482518a151581526301000000909104909416908401528201859052907f1abdbaff3523be69e62e6a19e7ec8f2972a1e6f84f79517dbca0f63b8d852df3906060015b60405180910390a2505050505050565b60015460ff16156119d05760405162461bcd60e51b815260040161016c90612afa565b3373c7e7b60ee5b54d3c41ca4e556ba410d88a66fa9d14611a035760405162461bcd60e51b815260040161016c90612ad4565b6001600160a01b0383166000908152600860209081526040808320546009909252822054611a32908490612c9e565b611a3c9190612c7c565b6001600160a01b03841660009081526009602052604081209192508291016000828254611a699190612c3c565b90915550506001600160a01b03841660009081526009602052604081208054839290611a96908490612cbd565b90915550506001600160a01b03841660009081526008602052604081208054849290611ac3908490612cbd565b90915550506001600160a01b03831660009081526008602052604081208054849290611af0908490612c3c565b909155505050505050565b6000611b0960015460ff1690565b15611b265760405162461bcd60e51b815260040161016c90612afa565b60005b8451811015611bad57611b5f858281518110611b4757611b47612d87565b6020026020010151600a61213a90919063ffffffff16565b15611b9b5760405162461bcd60e51b815260206004820152600c60248201526b05061796d656e74206c6f6f760a41b604482015260640161016c565b80611ba581612d56565b915050611b29565b5063bc197c8160e01b9695505050505050565b63ffffffff811660009081526020819052604081206001015481908390611bf95760405162461bcd60e51b815260040161016c90612aa5565b50505063ffffffff1660009081526020819052604090206001810154600290910154909160ff90911690565b63ffffffff82166000908152602081905260409020600101548290611c5c5760405162461bcd60e51b815260040161016c90612aa5565b63ffffffff83166000908152602081905260409020600201548390611c9090600160381b90046001600160a01b0316611186565b15611ce15763ffffffff8116600090815260208190526040902060020154600160381b90046001600160a01b03163314611cdc5760405162461bcd60e51b815260040161016c90612b24565b611d0b565b611cea33611186565b1515600114611d0b5760405162461bcd60e51b815260040161016c90612b52565b63ffffffff841660009081526020819052604090206002015460ff1615158315151415611d6c5760405162461bcd60e51b815260206004820152600f60248201526e14d85b59481c1c9a58d9481d5b9a5d608a1b604482015260640161016c565b600073c7e7b60ee5b54d3c41ca4e556ba410d88a66fa9d6001600160a01b031663bb27e0ce6040518163ffffffff1660e01b815260040160206040518083038186803b158015611dbb57600080fd5b505afa158015611dcf573d6000803e3d6000fd5b505050506040513d601f19601f82011682018060405250810190611df391906127d8565b63ffffffff86166000908152602081905260409020600101549091508415611e8657600064e8d4a5100083611e288285612c7c565b611e329190612c9e565b611e3c9190612c7c565b90508015611e645763ffffffff87166000908152602081905260409020600101819055611e80565b63ffffffff871660009081526020819052604090206001908101555b50611ec2565b600082611e9d8369d3c21bcecceda1000000612c9e565b611ea79190612c7c565b63ffffffff8816600090815260208190526040902060010155505b63ffffffff86166000818152602081815260409182902060028101805460ff19168a15159081179091556001909101548351908152918201527f9313b010c2388a1c2903afa4afe83485c3f52d0a177eda33cc12b480cee4be30910161199d565b6000611f3160015460ff1690565b15611f4e5760405162461bcd60e51b815260040161016c90612afa565b611f59600a8561213a565b15611f955760405162461bcd60e51b815260206004820152600c60248201526b05061796d656e74206c6f6f760a41b604482015260640161016c565b5063f23a6e6160e01b95945050505050565b60015460ff1615611fca5760405162461bcd60e51b815260040161016c90612afa565b3373c7e7b60ee5b54d3c41ca4e556ba410d88a66fa9d14611ffd5760405162461bcd60e51b815260040161016c90612ad4565b60005b82518161ffff1610156106625760006001600160a01b0316838261ffff168151811061202e5761202e612d87565b60200260200101516001600160a01b0316141561204a57600080fd5b6000828261ffff168151811061206257612062612d87565b60200260200101511161207457600080fd5b818161ffff168151811061208a5761208a612d87565b602002602001015160086000858461ffff16815181106120ac576120ac612d87565b60200260200101516001600160a01b03166001600160a01b0316815260200190815260200160002081905550818161ffff16815181106120ee576120ee612d87565b60200260200101516006546121039190612c3c565b6006558061211081612d34565b915050612000565b6000610a798383612152565b6000610698825490565b6000610a7983836121a1565b60008181526001830160205260408120541515610a79565b600081815260018301602052604081205461219957508154600181810184556000848152602080822090930184905584548482528286019093526040902091909155610698565b506000610698565b815460009082106121ff5760405162461bcd60e51b815260206004820152602260248201527f456e756d657261626c655365743a20696e646578206f7574206f6620626f756e604482015261647360f01b606482015260840161016c565b82600001828154811061221457612214612d87565b9060005260206000200154905092915050565b82805461223390612cf9565b90600052602060002090601f016020900481019282612255576000855561229b565b82601f1061226e57805160ff191683800117855561229b565b8280016001018555821561229b579182015b8281111561229b578251825591602001919060010190612280565b506122a79291506122ab565b5090565b5b808211156122a757600081556001016122ac565b600082601f8301126122d157600080fd5b813560206122e66122e183612c18565b612be7565b80838252828201915082860187848660051b890101111561230657600080fd5b60005b8581101561232c5761231a82612409565b84529284019290840190600101612309565b5090979650505050505050565b600082601f83011261234a57600080fd5b8135602061235a6122e183612c18565b80838252828201915082860187848660051b890101111561237a57600080fd5b60005b8581101561232c5781358452928401929084019060010161237d565b600082601f8301126123aa57600080fd5b813567ffffffffffffffff8111156123c4576123c4612d9d565b6123d7601f8201601f1916602001612be7565b8181528460208386010111156123ec57600080fd5b816020850160208301376000918101602001919091529392505050565b803561ffff8116811461241b57600080fd5b919050565b803563ffffffff8116811461241b57600080fd5b60006020828403121561244657600080fd5b8135610a7981612db3565b60006020828403121561246357600080fd5b8151610a7981612db3565b600080600080600060a0868803121561248657600080fd5b853561249181612db3565b945060208601356124a181612db3565b9350604086013567ffffffffffffffff808211156124be57600080fd5b6124ca89838a01612339565b945060608801359150808211156124e057600080fd5b6124ec89838a01612339565b9350608088013591508082111561250257600080fd5b5061250f88828901612399565b9150509295509295909350565b60008060006060848603121561253157600080fd5b833561253c81612db3565b9250602084013561254c81612db3565b929592945050506040919091013590565b600080600080600060a0868803121561257557600080fd5b853561258081612db3565b9450602086013561259081612db3565b93506040860135925060608601359150608086013567ffffffffffffffff8111156125ba57600080fd5b61250f88828901612399565b6000806000606084860312156125db57600080fd5b83356125e681612db3565b92506125f460208501612420565b915061260260408501612409565b90509250925092565b6000806040838503121561261e57600080fd5b823567ffffffffffffffff8082111561263657600080fd5b818501915085601f83011261264a57600080fd5b8135602061265a6122e183612c18565b8083825282820191508286018a848660051b890101111561267a57600080fd5b600096505b848710156126a657803561269281612db3565b83526001969096019591830191830161267f565b50965050860135925050808211156126bd57600080fd5b506126ca85828601612339565b9150509250929050565b600080604083850312156126e757600080fd5b823567ffffffffffffffff808211156126ff57600080fd5b818501915085601f83011261271357600080fd5b813560206127236122e183612c18565b8083825282820191508286018a848660051b890101111561274357600080fd5b600096505b8487101561276d5761275981612420565b835260019690960195918301918301612748565b509650508601359250508082111561278457600080fd5b506126ca858286016122c0565b6000602082840312156127a357600080fd5b8151610a7981612dcb565b6000602082840312156127c057600080fd5b81356001600160e01b031981168114610a7957600080fd5b6000602082840312156127ea57600080fd5b5051919050565b60006020828403121561280357600080fd5b5035919050565b60008060006060848603121561281f57600080fd5b83359250602084013561254c81612db3565b60006020828403121561284357600080fd5b610a7982612420565b6000806040838503121561285f57600080fd5b61286883612420565b9150602083013561287881612dcb565b809150509250929050565b6000806000806080858703121561289957600080fd5b6128a285612420565b935060208501356128b281612dcb565b92506128c060408601612420565b9396929550929360600135925050565b600080600080600080600080610100898b0312156128ed57600080fd5b6128f689612420565b975060208901359650604089013561290d81612dcb565b9550606089013561291d81612dcb565b9450608089013561292d81612dcb565b935061293b60a08a01612420565b925060c089013567ffffffffffffffff8082111561295857600080fd5b6129648c838d01612399565b935060e08b013591508082111561297a57600080fd5b506129878b828c01612399565b9150509295985092959890939650565b600080604083850312156129aa57600080fd5b6129b383612420565b91506129c160208401612420565b90509250929050565b6000815180845260005b818110156129f0576020818501810151868301820152016129d4565b81811115612a02576000602083870101525b50601f01601f19169290920160200192915050565b606080825284519082018190526000906020906080840190828801845b82811015612a5657815163ffffffff1684529284019290840190600101612a34565b5050508381038285015285518082528683019183019060005b81811015612a8f57835161ffff1683529284019291840191600101612a6f565b5050809350505050826040830152949350505050565b602080825260159082015274141c9bd91d58dd08191bd95cdb89dd08195e1a5cdd605a1b604082015260600190565b6020808252600c908201526b155b985d5d1a1bdc9a5e995960a21b604082015260600190565b60208082526010908201526f14185d5cd8589b194e881c185d5cd95960821b604082015260600190565b60208082526014908201527313db9b1e4818dc99585d1bdc88185b1b1bddd95960621b604082015260600190565b6020808252601190820152704e6f7420656e6f7567682073686172657360781b604082015260600190565b86815285151560208201528415156040820152831515606082015263ffffffff8316608082015260c060a08201526000612bba60c08301846129ca565b98975050505050505050565b828152604060208201526000612bdf60408301846129ca565b949350505050565b604051601f8201601f1916810167ffffffffffffffff81118282101715612c1057612c10612d9d565b604052919050565b600067ffffffffffffffff821115612c3257612c32612d9d565b5060051b60200190565b60008219821115612c4f57612c4f612d71565b500190565b600063ffffffff808316818516808303821115612c7357612c73612d71565b01949350505050565b600082612c9957634e487b7160e01b600052601260045260246000fd5b500490565b6000816000190483118215151615612cb857612cb8612d71565b500290565b600082821015612ccf57612ccf612d71565b500390565b600063ffffffff83811690831681811015612cf157612cf1612d71565b039392505050565b600181811c90821680612d0d57607f821691505b60208210811415612d2e57634e487b7160e01b600052602260045260246000fd5b50919050565b600061ffff80831681811415612d4c57612d4c612d71565b6001019392505050565b6000600019821415612d6a57612d6a612d71565b5060010190565b634e487b7160e01b600052601160045260246000fd5b634e487b7160e01b600052603260045260246000fd5b634e487b7160e01b600052604160045260246000fd5b6001600160a01b0381168114612dc857600080fd5b50565b8015158114612dc857600080fdfea26469706673582212201972680f144317c2e720c556bf86b98ec2e9eb187cdce9c17b6cb457fba1225a64736f6c63430008070033",
  "linkReferences": {},
  "deployedLinkReferences": {}
}