{
  "_format": "hh-sol-artifact-1",
  "contractName": "SliceCore",
  "sourceName": "contracts/SliceCore.sol",
  "abi": [
    {
      "inputs": [],
      "name": "Invalid",
      "type": "error"
    },
    {
      "inputs": [],
      "name": "IsPaused",
      "type": "error"
    },
    {
      "inputs": [],
      "name": "NotAuthorized",
      "type": "error"
    },
    {
      "inputs": [],
      "name": "NotSuccessful",
      "type": "error"
    },
    {
      "inputs": [],
      "name": "PaymentLoop",
      "type": "error"
    },
    {
      "inputs": [],
      "name": "transferLocked",
      "type": "error"
    },
    {
      "anonymous": false,
      "inputs": [
        {
          "indexed": false,
          "internalType": "address",
          "name": "previousAdmin",
          "type": "address"
        },
        {
          "indexed": false,
          "internalType": "address",
          "name": "newAdmin",
          "type": "address"
        }
      ],
      "name": "AdminChanged",
      "type": "event"
    },
    {
      "anonymous": false,
      "inputs": [
        {
          "indexed": true,
          "internalType": "address",
          "name": "account",
          "type": "address"
        },
        {
          "indexed": true,
          "internalType": "address",
          "name": "operator",
          "type": "address"
        },
        {
          "indexed": false,
          "internalType": "bool",
          "name": "approved",
          "type": "bool"
        }
      ],
      "name": "ApprovalForAll",
      "type": "event"
    },
    {
      "anonymous": false,
      "inputs": [
        {
          "indexed": true,
          "internalType": "address",
          "name": "beacon",
          "type": "address"
        }
      ],
      "name": "BeaconUpgraded",
      "type": "event"
    },
    {
      "anonymous": false,
      "inputs": [
        {
          "indexed": true,
          "internalType": "address",
          "name": "previousOwner",
          "type": "address"
        },
        {
          "indexed": true,
          "internalType": "address",
          "name": "newOwner",
          "type": "address"
        }
      ],
      "name": "OwnershipTransferred",
      "type": "event"
    },
    {
      "anonymous": false,
      "inputs": [
        {
          "indexed": false,
          "internalType": "address",
          "name": "account",
          "type": "address"
        }
      ],
      "name": "Paused",
      "type": "event"
    },
    {
      "anonymous": false,
      "inputs": [
        {
          "indexed": true,
          "internalType": "uint256",
          "name": "tokenId",
          "type": "uint256"
        },
        {
          "indexed": false,
          "internalType": "bool",
          "name": "isSlicer",
          "type": "bool"
        },
        {
          "indexed": false,
          "internalType": "bool",
          "name": "isActive",
          "type": "bool"
        },
        {
          "indexed": false,
          "internalType": "uint256",
          "name": "royaltyPercentage",
          "type": "uint256"
        }
      ],
      "name": "RoyaltySet",
      "type": "event"
    },
    {
      "anonymous": false,
      "inputs": [
        {
          "indexed": true,
          "internalType": "uint256",
          "name": "tokenId",
          "type": "uint256"
        },
        {
          "indexed": true,
          "internalType": "address",
          "name": "slicerController",
          "type": "address"
        }
      ],
      "name": "SlicerControllerSet",
      "type": "event"
    },
    {
      "anonymous": false,
      "inputs": [
        {
          "indexed": true,
          "internalType": "uint256",
          "name": "tokenId",
          "type": "uint256"
        },
        {
          "indexed": false,
          "internalType": "address payable[]",
          "name": "accounts",
          "type": "address[]"
        },
        {
          "indexed": false,
          "internalType": "int32[]",
          "name": "tokensDiffs",
          "type": "int32[]"
        }
      ],
      "name": "TokenResliced",
      "type": "event"
    },
    {
      "anonymous": false,
      "inputs": [
        {
          "indexed": true,
          "internalType": "address",
          "name": "slicerAddress",
          "type": "address"
        },
        {
          "indexed": true,
          "internalType": "uint256",
          "name": "tokenId",
          "type": "uint256"
        },
        {
          "components": [
            {
              "internalType": "address",
              "name": "account",
              "type": "address"
            },
            {
              "internalType": "uint32",
              "name": "shares",
              "type": "uint32"
            }
          ],
          "indexed": false,
          "internalType": "struct Payee[]",
          "name": "payees",
          "type": "tuple[]"
        },
        {
          "indexed": false,
          "internalType": "uint256",
          "name": "minimumShares",
          "type": "uint256"
        },
        {
          "indexed": false,
          "internalType": "address[]",
          "name": "currencies",
          "type": "address[]"
        },
        {
          "indexed": false,
          "internalType": "uint256",
          "name": "releaseTimelock",
          "type": "uint256"
        },
        {
          "indexed": false,
          "internalType": "uint256",
          "name": "transferableTimelock",
          "type": "uint256"
        },
        {
          "indexed": false,
          "internalType": "bool",
          "name": "isImmutable",
          "type": "bool"
        },
        {
          "indexed": false,
          "internalType": "bool",
          "name": "isControlled",
          "type": "bool"
        },
        {
          "indexed": true,
          "internalType": "uint256",
          "name": "slicerVersion",
          "type": "uint256"
        }
      ],
      "name": "TokenSliced",
      "type": "event"
    },
    {
      "anonymous": false,
      "inputs": [
        {
          "indexed": true,
          "internalType": "address",
          "name": "operator",
          "type": "address"
        },
        {
          "indexed": true,
          "internalType": "address",
          "name": "from",
          "type": "address"
        },
        {
          "indexed": true,
          "internalType": "address",
          "name": "to",
          "type": "address"
        },
        {
          "indexed": false,
          "internalType": "uint256[]",
          "name": "ids",
          "type": "uint256[]"
        },
        {
          "indexed": false,
          "internalType": "uint256[]",
          "name": "values",
          "type": "uint256[]"
        }
      ],
      "name": "TransferBatch",
      "type": "event"
    },
    {
      "anonymous": false,
      "inputs": [
        {
          "indexed": true,
          "internalType": "address",
          "name": "operator",
          "type": "address"
        },
        {
          "indexed": true,
          "internalType": "address",
          "name": "from",
          "type": "address"
        },
        {
          "indexed": true,
          "internalType": "address",
          "name": "to",
          "type": "address"
        },
        {
          "indexed": false,
          "internalType": "uint256",
          "name": "id",
          "type": "uint256"
        },
        {
          "indexed": false,
          "internalType": "uint256",
          "name": "value",
          "type": "uint256"
        }
      ],
      "name": "TransferSingle",
      "type": "event"
    },
    {
      "anonymous": false,
      "inputs": [
        {
          "indexed": false,
          "internalType": "string",
          "name": "value",
          "type": "string"
        },
        {
          "indexed": true,
          "internalType": "uint256",
          "name": "id",
          "type": "uint256"
        }
      ],
      "name": "URI",
      "type": "event"
    },
    {
      "anonymous": false,
      "inputs": [
        {
          "indexed": false,
          "internalType": "address",
          "name": "account",
          "type": "address"
        }
      ],
      "name": "Unpaused",
      "type": "event"
    },
    {
      "anonymous": false,
      "inputs": [
        {
          "indexed": true,
          "internalType": "address",
          "name": "implementation",
          "type": "address"
        }
      ],
      "name": "Upgraded",
      "type": "event"
    },
    {
      "inputs": [
        {
          "internalType": "string",
          "name": "basePath_",
          "type": "string"
        }
      ],
      "name": "_setBasePath",
      "outputs": [],
      "stateMutability": "nonpayable",
      "type": "function"
    },
    {
      "inputs": [],
      "name": "_togglePause",
      "outputs": [],
      "stateMutability": "nonpayable",
      "type": "function"
    },
    {
      "inputs": [
        {
          "internalType": "address",
          "name": "account",
          "type": "address"
        },
        {
          "internalType": "uint256",
          "name": "id",
          "type": "uint256"
        }
      ],
      "name": "balanceOf",
      "outputs": [
        {
          "internalType": "uint256",
          "name": "",
          "type": "uint256"
        }
      ],
      "stateMutability": "view",
      "type": "function"
    },
    {
      "inputs": [
        {
          "internalType": "address[]",
          "name": "accounts",
          "type": "address[]"
        },
        {
          "internalType": "uint256[]",
          "name": "ids",
          "type": "uint256[]"
        }
      ],
      "name": "balanceOfBatch",
      "outputs": [
        {
          "internalType": "uint256[]",
          "name": "",
          "type": "uint256[]"
        }
      ],
      "stateMutability": "view",
      "type": "function"
    },
    {
      "inputs": [
        {
          "internalType": "uint256",
          "name": "id",
          "type": "uint256"
        }
      ],
      "name": "controller",
      "outputs": [
        {
          "internalType": "address",
          "name": "",
          "type": "address"
        }
      ],
      "stateMutability": "view",
      "type": "function"
    },
    {
      "inputs": [
        {
          "internalType": "uint256",
          "name": "id",
          "type": "uint256"
        }
      ],
      "name": "exists",
      "outputs": [
        {
          "internalType": "bool",
          "name": "",
          "type": "bool"
        }
      ],
      "stateMutability": "view",
      "type": "function"
    },
    {
      "inputs": [],
      "name": "initialize",
      "outputs": [],
      "stateMutability": "nonpayable",
      "type": "function"
    },
    {
      "inputs": [
        {
          "internalType": "address",
          "name": "account",
          "type": "address"
        },
        {
          "internalType": "address",
          "name": "operator",
          "type": "address"
        }
      ],
      "name": "isApprovedForAll",
      "outputs": [
        {
          "internalType": "bool",
          "name": "",
          "type": "bool"
        }
      ],
      "stateMutability": "view",
      "type": "function"
    },
    {
      "inputs": [],
      "name": "owner",
      "outputs": [
        {
          "internalType": "address",
          "name": "",
          "type": "address"
        }
      ],
      "stateMutability": "view",
      "type": "function"
    },
    {
      "inputs": [],
      "name": "paused",
      "outputs": [
        {
          "internalType": "bool",
          "name": "",
          "type": "bool"
        }
      ],
      "stateMutability": "view",
      "type": "function"
    },
    {
      "inputs": [],
      "name": "proxiableUUID",
      "outputs": [
        {
          "internalType": "bytes32",
          "name": "",
          "type": "bytes32"
        }
      ],
      "stateMutability": "view",
      "type": "function"
    },
    {
      "inputs": [],
      "name": "renounceOwnership",
      "outputs": [],
      "stateMutability": "nonpayable",
      "type": "function"
    },
    {
      "inputs": [
        {
          "internalType": "uint256",
          "name": "tokenId",
          "type": "uint256"
        },
        {
          "internalType": "address payable[]",
          "name": "accounts",
          "type": "address[]"
        },
        {
          "internalType": "int32[]",
          "name": "tokensDiffs",
          "type": "int32[]"
        }
      ],
      "name": "reslice",
      "outputs": [],
      "stateMutability": "nonpayable",
      "type": "function"
    },
    {
      "inputs": [
        {
          "internalType": "uint256",
          "name": "tokenId",
          "type": "uint256"
        },
        {
          "internalType": "uint256",
          "name": "salePrice",
          "type": "uint256"
        }
      ],
      "name": "royaltyInfo",
      "outputs": [
        {
          "internalType": "address",
          "name": "receiver",
          "type": "address"
        },
        {
          "internalType": "uint256",
          "name": "royaltyAmount",
          "type": "uint256"
        }
      ],
      "stateMutability": "view",
      "type": "function"
    },
    {
      "inputs": [
        {
          "internalType": "address",
          "name": "from",
          "type": "address"
        },
        {
          "internalType": "address",
          "name": "to",
          "type": "address"
        },
        {
          "internalType": "uint256[]",
          "name": "ids",
          "type": "uint256[]"
        },
        {
          "internalType": "uint256[]",
          "name": "amounts",
          "type": "uint256[]"
        },
        {
          "internalType": "bytes",
          "name": "data",
          "type": "bytes"
        }
      ],
      "name": "safeBatchTransferFrom",
      "outputs": [],
      "stateMutability": "nonpayable",
      "type": "function"
    },
    {
      "inputs": [
        {
          "internalType": "address",
          "name": "from",
          "type": "address"
        },
        {
          "internalType": "address",
          "name": "to",
          "type": "address"
        },
        {
          "internalType": "uint256",
          "name": "id",
          "type": "uint256"
        },
        {
          "internalType": "uint256",
          "name": "amount",
          "type": "uint256"
        },
        {
          "internalType": "bytes",
          "name": "data",
          "type": "bytes"
        }
      ],
      "name": "safeTransferFrom",
      "outputs": [],
      "stateMutability": "nonpayable",
      "type": "function"
    },
    {
      "inputs": [
        {
          "internalType": "address",
          "name": "from",
          "type": "address"
        },
        {
          "internalType": "address",
          "name": "to",
          "type": "address"
        },
        {
          "internalType": "uint256",
          "name": "id",
          "type": "uint256"
        },
        {
          "internalType": "uint256",
          "name": "amount",
          "type": "uint256"
        },
        {
          "internalType": "bytes",
          "name": "data",
          "type": "bytes"
        }
      ],
      "name": "safeTransferFromUnreleased",
      "outputs": [],
      "stateMutability": "nonpayable",
      "type": "function"
    },
    {
      "inputs": [
        {
          "internalType": "address",
          "name": "operator",
          "type": "address"
        },
        {
          "internalType": "bool",
          "name": "approved",
          "type": "bool"
        }
      ],
      "name": "setApprovalForAll",
      "outputs": [],
      "stateMutability": "nonpayable",
      "type": "function"
    },
    {
      "inputs": [
        {
          "internalType": "uint256",
          "name": "id",
          "type": "uint256"
        },
        {
          "internalType": "address",
          "name": "newController",
          "type": "address"
        }
      ],
      "name": "setController",
      "outputs": [],
      "stateMutability": "nonpayable",
      "type": "function"
    },
    {
      "inputs": [
        {
          "internalType": "uint256",
          "name": "tokenId",
          "type": "uint256"
        },
        {
          "internalType": "bool",
          "name": "isSlicer",
          "type": "bool"
        },
        {
          "internalType": "bool",
          "name": "isActive",
          "type": "bool"
        },
        {
          "internalType": "uint256",
          "name": "royaltyPercentage",
          "type": "uint256"
        }
      ],
      "name": "setRoyalty",
      "outputs": [],
      "stateMutability": "nonpayable",
      "type": "function"
    },
    {
      "inputs": [
        {
          "components": [
            {
              "internalType": "address",
              "name": "account",
              "type": "address"
            },
            {
              "internalType": "uint32",
              "name": "shares",
              "type": "uint32"
            }
          ],
          "internalType": "struct Payee[]",
          "name": "payees",
          "type": "tuple[]"
        },
        {
          "internalType": "uint256",
          "name": "minimumShares",
          "type": "uint256"
        },
        {
          "internalType": "address[]",
          "name": "currencies",
          "type": "address[]"
        },
        {
          "internalType": "uint256",
          "name": "releaseTimelock",
          "type": "uint256"
        },
        {
          "internalType": "uint40",
          "name": "transferMintTimelock",
          "type": "uint40"
        },
        {
          "internalType": "bool",
          "name": "isImmutable",
          "type": "bool"
        },
        {
          "internalType": "bool",
          "name": "isControlled",
          "type": "bool"
        }
      ],
      "name": "slice",
      "outputs": [],
      "stateMutability": "nonpayable",
      "type": "function"
    },
    {
      "inputs": [
        {
          "internalType": "address",
          "name": "from",
          "type": "address"
        },
        {
          "internalType": "address[]",
          "name": "recipients",
          "type": "address[]"
        },
        {
          "internalType": "uint256",
          "name": "id",
          "type": "uint256"
        },
        {
          "internalType": "uint256[]",
          "name": "amounts",
          "type": "uint256[]"
        },
        {
          "internalType": "bool",
          "name": "release",
          "type": "bool"
        }
      ],
      "name": "slicerBatchTransfer",
      "outputs": [],
      "stateMutability": "nonpayable",
      "type": "function"
    },
    {
      "inputs": [
        {
          "internalType": "uint256",
          "name": "id",
          "type": "uint256"
        }
      ],
      "name": "slicers",
      "outputs": [
        {
          "internalType": "address",
          "name": "",
          "type": "address"
        }
      ],
      "stateMutability": "view",
      "type": "function"
    },
    {
      "inputs": [],
      "name": "supply",
      "outputs": [
        {
          "internalType": "uint256",
          "name": "",
          "type": "uint256"
        }
      ],
      "stateMutability": "view",
      "type": "function"
    },
    {
      "inputs": [
        {
          "internalType": "bytes4",
          "name": "interfaceId",
          "type": "bytes4"
        }
      ],
      "name": "supportsInterface",
      "outputs": [
        {
          "internalType": "bool",
          "name": "",
          "type": "bool"
        }
      ],
      "stateMutability": "view",
      "type": "function"
    },
    {
      "inputs": [
        {
          "internalType": "uint256",
          "name": "id",
          "type": "uint256"
        }
      ],
      "name": "totalSupply",
      "outputs": [
        {
          "internalType": "uint256",
          "name": "",
          "type": "uint256"
        }
      ],
      "stateMutability": "view",
      "type": "function"
    },
    {
      "inputs": [
        {
          "internalType": "address",
          "name": "newOwner",
          "type": "address"
        }
      ],
      "name": "transferOwnership",
      "outputs": [],
      "stateMutability": "nonpayable",
      "type": "function"
    },
    {
      "inputs": [
        {
          "internalType": "address",
          "name": "newImplementation",
          "type": "address"
        }
      ],
      "name": "upgradeTo",
      "outputs": [],
      "stateMutability": "nonpayable",
      "type": "function"
    },
    {
      "inputs": [
        {
          "internalType": "address",
          "name": "newImplementation",
          "type": "address"
        },
        {
          "internalType": "bytes",
          "name": "data",
          "type": "bytes"
        }
      ],
      "name": "upgradeToAndCall",
      "outputs": [],
      "stateMutability": "payable",
      "type": "function"
    },
    {
      "inputs": [
        {
          "internalType": "uint256",
          "name": "",
          "type": "uint256"
        }
      ],
      "name": "uri",
      "outputs": [
        {
          "internalType": "string",
          "name": "",
          "type": "string"
        }
      ],
      "stateMutability": "view",
      "type": "function"
    }
  ],
  "bytecode": "0x60a06040523060805234801561001457600080fd5b5060805161480761004c60003960008181611764015281816117a401528181611a4c01528181611a8c0152611b4001526148076000f3fe6080604052600436106101cc5760003560e01c80634f1ef286116100f7578063a22cb46511610095578063c3592b0c11610064578063c3592b0c14610589578063e985e9c5146105a9578063f242432a146105c9578063f2fde38b146105e957600080fd5b8063a22cb465146104d1578063a468f1c7146104f1578063a58fa7c41461052b578063bd85b0391461054b57600080fd5b80635c975abb116100d15780635c975abb14610470578063715018a6146104895780638129fc1c1461049e5780638da5cb5b146104b357600080fd5b80634f1ef286146104285780634f558e791461043b57806352d1902d1461045b57600080fd5b8063175fa7ea1161016f5780633659cfe61161013e5780633659cfe6146103a65780633e5779ee146103c6578063405b4c36146103e65780634e1273f4146103fb57600080fd5b8063175fa7ea146102d857806326b7fb48146103275780632a55205a146103475780632eb2c2d61461038657600080fd5b8063059f424f116101ab578063059f424f146102495780630a46fb1b1461026b5780630da9450a1461028b5780630e89341c146102ab57600080fd5b8062fdd58e146101d157806301ffc9a714610204578063047fc9aa14610234575b600080fd5b3480156101dd57600080fd5b506101f16101ec3660046135cd565b610609565b6040519081526020015b60405180910390f35b34801561021057600080fd5b5061022461021f36600461360f565b6106a5565b60405190151581526020016101fb565b34801561024057600080fd5b506101f16106f5565b34801561025557600080fd5b5061026961026436600461362c565b610706565b005b34801561027757600080fd5b5061026961028636600461371b565b61075e565b34801561029757600080fd5b506102696102a63660046137fb565b610b54565b3480156102b757600080fd5b506102cb6102c6366004613843565b610d42565b6040516101fb91906138b4565b3480156102e457600080fd5b5061030f6102f3366004613843565b600090815261016060205260409020546001600160a01b031690565b6040516001600160a01b0390911681526020016101fb565b34801561033357600080fd5b506102696103423660046138c7565b610dd6565b34801561035357600080fd5b50610367610362366004613940565b61140d565b604080516001600160a01b0390931683526020830191909152016101fb565b34801561039257600080fd5b506102696103a1366004613aab565b6115e3565b3480156103b257600080fd5b506102696103c1366004613b58565b61175a565b3480156103d257600080fd5b506102696103e1366004613b75565b611839565b3480156103f257600080fd5b506102696118d1565b34801561040757600080fd5b5061041b610416366004613c14565b611919565b6040516101fb9190613cb2565b610269610436366004613cc5565b611a42565b34801561044757600080fd5b50610224610456366004613843565b611b0e565b34801561046757600080fd5b506101f1611b33565b34801561047c57600080fd5b5061012d5460ff16610224565b34801561049557600080fd5b50610269611be7565b3480156104aa57600080fd5b50610269611c1b565b3480156104bf57600080fd5b506097546001600160a01b031661030f565b3480156104dd57600080fd5b506102696104ec366004613d0a565b611cdb565b3480156104fd57600080fd5b5061030f61050c366004613843565b600090815261016060205260409020600101546001600160a01b031690565b34801561053757600080fd5b50610269610546366004613d38565b611ce6565b34801561055757600080fd5b506101f1610566366004613843565b60009081526101606020526040902060010154600160c81b900463ffffffff1690565b34801561059557600080fd5b506102696105a4366004613dcc565b611ddf565b3480156105b557600080fd5b506102246105c4366004613e34565b611f3f565b3480156105d557600080fd5b506102696105e4366004613dcc565b61200c565b3480156105f557600080fd5b50610269610604366004613b58565b6121f0565b60006001600160a01b03831661067a5760405162461bcd60e51b815260206004820152602b60248201527f455243313135353a2062616c616e636520717565727920666f7220746865207a60448201526a65726f206164647265737360a81b60648201526084015b60405180910390fd5b50600081815260fb602090815260408083206001600160a01b03861684529091529020545b92915050565b60006001600160e01b03198216636cdb3d1360e11b14806106d657506001600160e01b031982166303a24d0760e21b145b8061069f57506301ffc9a760e01b6001600160e01b031983161461069f565b600061070161015f5490565b905090565b6097546001600160a01b031633146107305760405162461bcd60e51b815260040161067190613e62565b61075a8282604051602001610746929190613e97565b604051602081830303815290604052612288565b5050565b61012d5460ff16156107a55760405162461bcd60e51b815260206004820152601060248201526f14185d5cd8589b194e881c185d5cd95960821b6044820152606401610671565b866000036107c657604051636dac6a0960e01b815260040160405180910390fd5b60006107d261015f5490565b90506000736043df8f929b681871f9a4208795e4c55163c9766001600160a01b03166340c29362338686868e8c8f8f6040518963ffffffff1660e01b8152600401610824989796959493929190613eee565b6020604051808303816000875af1158015610843573d6000803e3d6000fd5b505050506040513d601f19601f820116820180604052508101906108679190613f40565b905082156108925760008281526101606020526040902060010180546001600160a01b031916331790555b64ffffffffff8516156108d057600082815261016060205260409020600101805464ffffffffff60a01b1916600160a01b64ffffffffff8816021790555b60008281526101606020526040812080546001600160a01b0319166001600160a01b038416179055805b8b811015610a225761093c8d8d8381811061091757610917613f5d565b61092d9260206040909202019081019150613b58565b6001600160a01b03163b151590565b1561097457610974838e8e8481811061095757610957613f5d565b61096d9260206040909202019081019150613b58565b600161229b565b6109e58d8d8381811061098957610989613f5d565b61099f9260206040909202019081019150613b58565b858f8f858181106109b2576109b2613f5d565b90506040020160200160208101906109ca9190613f87565b63ffffffff16604051806020016040528060008152506123d3565b8c8c828181106109f7576109f7613f5d565b9050604002016020016020810190610a0f9190613f87565b63ffffffff1691909101906001016108fa565b50801580610a33575063ffffffff81115b80610a3d5750808a115b15610a5b57604051636dac6a0960e01b815260040160405180910390fd5b6000838152610160602052604090819020600101805463ffffffff60c81b1916600160c81b63ffffffff85160217905551634e9270c360e11b8152600481018290526001600160a01b03831690639d24e18690602401600060405180830381600087803b158015610acb57600080fd5b505af1158015610adf573d6000803e3d6000fd5b50505050610af261015f80546001019055565b600083836001600160a01b03167fd4c892d23aa9f1838e04ae90c4f60484f8a049da02077023f7e0973dd0153be08f8f8f8f8f8f8f8f8f604051610b3e99989796959493929190613fa2565b60405180910390a4505050505050505050505050565b610b5d84611b0e565b1580610b695750606481115b15610b8757604051636dac6a0960e01b815260040160405180910390fd5b600084815261016060205260409020600101546001600160a01b031615610be857600084815261016060205260409020600101546001600160a01b03163314610be35760405163ea8e4eb560e01b815260040160405180910390fd5b610c9f565b60008481526101606020526040808220548151634abf03db60e11b815291516001600160a01b039091169163957e07b691600480830192869291908290030181865afa158015610c3c573d6000803e3d6000fd5b505050506040513d6000823e601f3d908101601f19168201604052610c6491908101906140b8565b50505092505050806001600160a01b0316336001600160a01b031614610c9d5760405163ea8e4eb560e01b815260040160405180910390fd5b505b60008481526101606020908152604091829020600101805461ffff60e81b1916600160e81b60ff86160260ff60f01b191617600160f01b861515908102919091176001600160f81b0316600160f81b8815159081029190911790925583519182529181019190915290810182905284907f4fbf3dc0947ba89435d8dee95cfad6b2e458d3474fb5b840ce6d4a41f5e707c99060600160405180910390a250505050565b606060fd8054610d5190614141565b80601f0160208091040260200160405190810160405280929190818152602001828054610d7d90614141565b8015610dca5780601f10610d9f57610100808354040283529160200191610dca565b820191906000526020600020905b815481529060010190602001808311610dad57829003601f168201915b50505050509050919050565b600085815261016060205260409020600101546001600160a01b03163314610e115760405163ea8e4eb560e01b815260040160405180910390fd5b828114610e3157604051636dac6a0960e01b815260040160405180910390fd5b610e3a856124e5565b60008581526101606020526040808220548151634abf03db60e11b815291516001600160a01b039091169163957e07b691600480830192869291908290030181865afa158015610e8e573d6000803e3d6000fd5b505050506040513d6000823e601f3d908101601f19168201604052610eb691908101906140b8565b9550505050505060008060005b8681101561127557610efb888883818110610ee057610ee0613f5d565b9050602002016020810190610ef59190613b58565b8a610609565b60008a815261016060205260409020549092506001600160a01b031663d3c65754898984818110610f2e57610f2e613f5d565b9050602002016020810190610f439190613b58565b6040516001600160e01b031960e084901b1681526001600160a01b0390911660048201526000602482015260448101859052606401600060405180830381600087803b158015610f9257600080fd5b505af1158015610fa6573d6000803e3d6000fd5b50505060008a815261016060205260409020546001600160a01b0316905063d3c65754898984818110610fdb57610fdb613f5d565b9050602002016020810190610ff09190613b58565b6040516001600160e01b031960e084901b1681526001600160a01b039091166004820152734f6ff17f5dcb4f413c5f1b7ec42d6c18666452b0602482015260448101859052606401600060405180830381600087803b15801561105257600080fd5b505af1158015611066573d6000803e3d6000fd5b5050505060005b845181101561114a5760008a815261016060205260409020546001600160a01b031663d3c657548a8a858181106110a6576110a6613f5d565b90506020020160208101906110bb9190613b58565b8784815181106110cd576110cd613f5d565b60209081029190910101516040516001600160e01b031960e085901b1681526001600160a01b0392831660048201529116602482015260448101869052606401600060405180830381600087803b15801561112757600080fd5b505af115801561113b573d6000803e3d6000fd5b5050505080600101905061106d565b50600086868381811061115f5761115f613f5d565b9050602002016020810190611174919061418d565b60030b13156111d4576111cf88888381811061119257611192613f5d565b90506020020160208101906111a79190613b58565b8a8888858181106111ba576111ba613f5d565b90506020020160208101906109ca919061418d565b61123a565b61123a8888838181106111e9576111e9613f5d565b90506020020160208101906111fe9190613b58565b8a88888581811061121157611211613f5d565b9050602002016020810190611226919061418d565b61122f906141be565b63ffffffff16612526565b85858281811061124c5761124c613f5d565b9050602002016020810190611261919061418d565b61126b90846141e1565b9250600101610ec3565b5060008260030b13156112d75760008881526101606020526040902060010180548391906019906112b4908490600160c81b900463ffffffff1661422a565b92506101000a81548163ffffffff021916908363ffffffff16021790555061133a565b60008260030b121561133a576112ec826141be565b600089815261016060205260409020600101805460199061131b908490600160c81b900463ffffffff16614252565b92506101000a81548163ffffffff021916908363ffffffff1602179055505b60008881526101606020526040908190208054600190910154915163e32cf85160e01b81526001600160a01b039091169163e32cf85191611393918b918b918b918b91600160c81b900463ffffffff16906004016142ad565b600060405180830381600087803b1580156113ad57600080fd5b505af11580156113c1573d6000803e3d6000fd5b50505050877f50ab7f68b6b57e8f7634376d5e840c72b2b7f3e69bc52a6a12e3c777061b36b0888888886040516113fb94939291906142ed565b60405180910390a25050505050505050565b60008061141984611b0e565b61143657604051636dac6a0960e01b815260040160405180910390fd5b600084815261016060209081526040808320815160e08101835281546001600160a01b0390811682526001909201549182169381019390935264ffffffffff600160a01b8204169183019190915263ffffffff600160c81b820416606083015260ff600160e81b820481166080840152600160f01b82048116151560a08401819052600160f81b90920416151560c08301529091906114d65760326114dc565b81608001515b60ff1690506103e86114ee828761431f565b6114f8919061433e565b92508160c001511561152457600086815261016060205260409020546001600160a01b031693506115da565b60008681526101606020526040808220548151634abf03db60e11b8152915183926001600160a01b039092169163957e07b691600480830192869291908290030181865afa15801561157a573d6000803e3d6000fd5b505050506040513d6000823e601f3d908101601f191682016040526115a291908101906140b8565b509450509350505080156115d357600088815261016060205260409020600101546001600160a01b031695506115d7565b8195505b50505b50509250929050565b600083516001600160401b038111156115fe576115fe613962565b604051908082528060200260200182016040528015611627578160200160208202803683370190505b50905060005b84518110156117355761165885828151811061164b5761164b613f5d565b60200260200101516124e5565b60006001600160a01b0316610160600087848151811061167a5761167a613f5d565b6020908102919091018101518252810191909152604001600020600101546001600160a01b0316146116bf5760405163ea8e4eb560e01b815260040160405180910390fd5b61016060008683815181106116d6576116d6613f5d565b6020026020010151815260200190815260200160002060000160009054906101000a90046001600160a01b031682828151811061171557611715613f5d565b6001600160a01b039092166020928302919091019091015260010161162d565b50611745868686848760016126a3565b6117528686868686612849565b505050505050565b6001600160a01b037f00000000000000000000000000000000000000000000000000000000000000001630036117a25760405162461bcd60e51b815260040161067190614360565b7f00000000000000000000000000000000000000000000000000000000000000006001600160a01b03166117eb60008051602061478b833981519152546001600160a01b031690565b6001600160a01b0316146118115760405162461bcd60e51b8152600401610671906143ac565b61181a816128d9565b6040805160008082526020820190925261183691839190612903565b50565b600082815261016060205260409020600101546001600160a01b031633146118745760405163ea8e4eb560e01b815260040160405180910390fd5b6000828152610160602052604080822060010180546001600160a01b0319166001600160a01b0385169081179091559051909184917f2f1bd54f0cb5e0788fcb50aa92b6c88987bd2459fee273daa38b57af0717bd649190a35050565b6097546001600160a01b031633146118fb5760405162461bcd60e51b815260040161067190613e62565b61012d5460ff16156119115761190f612a73565b565b61190f612b08565b6060815183511461197e5760405162461bcd60e51b815260206004820152602960248201527f455243313135353a206163636f756e747320616e6420696473206c656e677468604482015268040dad2e6dac2e8c6d60bb1b6064820152608401610671565b600083516001600160401b0381111561199957611999613962565b6040519080825280602002602001820160405280156119c2578160200160208202803683370190505b50905060005b8451811015611a3a57611a0d8582815181106119e6576119e6613f5d565b6020026020010151858381518110611a0057611a00613f5d565b6020026020010151610609565b828281518110611a1f57611a1f613f5d565b6020908102919091010152611a33816143f8565b90506119c8565b509392505050565b6001600160a01b037f0000000000000000000000000000000000000000000000000000000000000000163003611a8a5760405162461bcd60e51b815260040161067190614360565b7f00000000000000000000000000000000000000000000000000000000000000006001600160a01b0316611ad360008051602061478b833981519152546001600160a01b031690565b6001600160a01b031614611af95760405162461bcd60e51b8152600401610671906143ac565b611b02826128d9565b61075a82826001612903565b60009081526101606020526040902060010154600160c81b900463ffffffff16151590565b6000306001600160a01b037f00000000000000000000000000000000000000000000000000000000000000001614611bd35760405162461bcd60e51b815260206004820152603860248201527f555550535570677261646561626c653a206d757374206e6f742062652063616c60448201527f6c6564207468726f7567682064656c656761746563616c6c00000000000000006064820152608401610671565b5060008051602061478b8339815191525b90565b6097546001600160a01b03163314611c115760405162461bcd60e51b815260040161067190613e62565b61190f6000612b85565b600054610100900460ff16611c365760005460ff1615611c3a565b303b155b611c9d5760405162461bcd60e51b815260206004820152602e60248201527f496e697469616c697a61626c653a20636f6e747261637420697320616c72656160448201526d191e481a5b9a5d1a585b1a5e995960921b6064820152608401610671565b600054610100900460ff16158015611cbf576000805461ffff19166101011790555b611cc7612bd7565b8015611836576000805461ff001916905550565b61075a338383612c06565b8151845114611d0857604051636dac6a0960e01b815260040160405180910390fd5b8015611d765760005b8451811015611d7057611d6886868381518110611d3057611d30613f5d565b602002602001015186868581518110611d4b57611d4b613f5d565b60200260200101516040518060200160405280600081525061200c565b600101611d11565b50611dd8565b60005b845181101561175257611dd086868381518110611d9857611d98613f5d565b602002602001015186868581518110611db357611db3613f5d565b602002602001015160405180602001604052806000815250611ddf565b600101611d79565b5050505050565b611de8836124e5565b600083815261016060205260409020600101546001600160a01b031615611e225760405163ea8e4eb560e01b815260040160405180910390fd5b60408051600180825281830190925260009160208083019080368337505060408051600180825281830190925292935060009291506020808301908036833750506040805160018082528183019092529293506000929150602080830190803683370190505090508583600081518110611e9e57611e9e613f5d565b6020908102919091018101919091526000878152610160909152604081205483516001600160a01b03909116918491611ed957611ed9613f5d565b60200260200101906001600160a01b031690816001600160a01b0316815250508481600081518110611f0d57611f0d613f5d565b602002602001018181525050611f28888885858560006126a3565b611f358888888888612ce6565b5050505050505050565b60405163c455279160e01b81526001600160a01b03838116600483015260009173f57b2c51ded3a29e6891aba85459d600256cf31791841690829063c455279190602401602060405180830381865afa158015611fa0573d6000803e3d6000fd5b505050506040513d601f19601f82011682018060405250810190611fc49190613f40565b6001600160a01b031603611fdc57600191505061069f565b50506001600160a01b03918216600090815260fc6020908152604080832093909416825291909152205460ff1690565b612015836124e5565b600083815261016060205260409020600101546001600160a01b0316156120a557600083815261016060205260409020600101546001600160a01b031633146120a05760405162461bcd60e51b815260206004820152601860248201527f43616c6c6572206973206e6f7420636f6e74726f6c6c657200000000000000006044820152606401610671565b6120dd565b6001600160a01b0385163314806120c157506120c18533611f3f565b6120dd5760405162461bcd60e51b815260040161067190614411565b6040805160018082528183019092526000916020808301908036833750506040805160018082528183019092529293506000929150602080830190803683375050604080516001808252818301909252929350600092915060208083019080368337019050509050858360008151811061215957612159613f5d565b6020908102919091018101919091526000878152610160909152604081205483516001600160a01b0390911691849161219457612194613f5d565b60200260200101906001600160a01b031690816001600160a01b03168152505084816000815181106121c8576121c8613f5d565b6020026020010181815250506121e3888885858560016126a3565b611f358888888888612d27565b6097546001600160a01b0316331461221a5760405162461bcd60e51b815260040161067190613e62565b6001600160a01b03811661227f5760405162461bcd60e51b815260206004820152602660248201527f4f776e61626c653a206e6577206f776e657220697320746865207a65726f206160448201526564647265737360d01b6064820152608401610671565b61183681612b85565b805161075a9060fd90602084019061351f565b60408051600481526024810182526020810180516001600160e01b0316634abf03db60e11b179052905160009182916001600160a01b038616916122de9161445a565b600060405180830381855afa9150503d8060008114612319576040519150601f19603f3d011682016040523d82523d6000602084013e61231e565b606091505b50915091508115611dd85760008180602001905181019061233f9190614476565b5050506000838152610160602052604090205492935050506001600160a01b0380871691160361175257604051637669b10560e11b81526004810182905284151560248201526001600160a01b0387169063ecd3620a90604401600060405180830381600087803b1580156123b357600080fd5b505af11580156123c7573d6000803e3d6000fd5b50505050505050505050565b6001600160a01b0384166124335760405162461bcd60e51b815260206004820152602160248201527f455243313135353a206d696e7420746f20746865207a65726f206164647265736044820152607360f81b6064820152608401610671565b336124538160008761244488612e48565b61244d88612e48565b87612e93565b600084815260fb602090815260408083206001600160a01b0389168452909152812080548592906124859084906144b9565b909155505060408051858152602081018590526001600160a01b0380881692600092918516917fc3d58168c5ae7397731d063d5bbf3d657854427343f4c083240f7aacaa2d0f62910160405180910390a4611dd881600087878787612eb8565b60008181526101606020526040902060010154600160a01b900464ffffffffff1642101561183657604051630934355760e11b815260040160405180910390fd5b6001600160a01b0383166125885760405162461bcd60e51b815260206004820152602360248201527f455243313135353a206275726e2066726f6d20746865207a65726f206164647260448201526265737360e81b6064820152608401610671565b336125b78185600061259987612e48565b6125a287612e48565b60405180602001604052806000815250612e93565b600083815260fb602090815260408083206001600160a01b0388168452909152902054828110156126365760405162461bcd60e51b8152602060048201526024808201527f455243313135353a206275726e20616d6f756e7420657863656564732062616c604482015263616e636560e01b6064820152608401610671565b600084815260fb602090815260408083206001600160a01b03898116808652918452828520888703905582518981529384018890529092908616917fc3d58168c5ae7397731d063d5bbf3d657854427343f4c083240f7aacaa2d0f62910160405180910390a45050505050565b6001600160a01b0385163b151560005b8451811015611f35578381815181106126ce576126ce613f5d565b60200260200101516000036126f657604051636dac6a0960e01b815260040160405180910390fd5b811561276c5784818151811061270e5761270e613f5d565b60200260200101516001600160a01b0316876001600160a01b031603612747576040516368ee781960e11b815260040160405180910390fd5b61276c85828151811061275c5761275c613f5d565b602002602001015188600161229b565b84818151811061277e5761277e613f5d565b60200260200101516001600160a01b031663b230074a8989866127ad8d8c8881518110611a0057611a00613f5d565b8987815181106127bf576127bf613f5d565b60209081029190910101516040516001600160e01b031960e088901b1681526001600160a01b03958616600482015294909316602485015290151560448401526064830152608482015260a401600060405180830381600087803b15801561282657600080fd5b505af115801561283a573d6000803e3d6000fd5b505050508060010190506126b3565b6001600160a01b03851633148061286557506128658533611f3f565b6128cc5760405162461bcd60e51b815260206004820152603260248201527f455243313135353a207472616e736665722063616c6c6572206973206e6f74206044820152711bdddb995c881b9bdc88185c1c1c9bdd995960721b6064820152608401610671565b611dd88585858585613013565b6097546001600160a01b031633146118365760405162461bcd60e51b815260040161067190613e62565b7f4910fdfa16fed3260ed0e7147f7cc6da11a60208b5b9406d12a635614ffd91435460ff161561293b57612936836131f9565b505050565b826001600160a01b03166352d1902d6040518163ffffffff1660e01b8152600401602060405180830381865afa925050508015612995575060408051601f3d908101601f19168201909252612992918101906144d1565b60015b6129f85760405162461bcd60e51b815260206004820152602e60248201527f45524331393637557067726164653a206e657720696d706c656d656e7461746960448201526d6f6e206973206e6f74205555505360901b6064820152608401610671565b60008051602061478b8339815191528114612a675760405162461bcd60e51b815260206004820152602960248201527f45524331393637557067726164653a20756e737570706f727465642070726f786044820152681a58589b195555525160ba1b6064820152608401610671565b50612936838383613295565b61012d5460ff16612abd5760405162461bcd60e51b815260206004820152601460248201527314185d5cd8589b194e881b9bdd081c185d5cd95960621b6044820152606401610671565b61012d805460ff191690557f5db9ee0a495bf2e6ff9c91a7834c1ba4fdd244a5e8aa4e537bd38aeae4b073aa335b6040516001600160a01b03909116815260200160405180910390a1565b61012d5460ff1615612b4f5760405162461bcd60e51b815260206004820152601060248201526f14185d5cd8589b194e881c185d5cd95960821b6044820152606401610671565b61012d805460ff191660011790557f62e78cea01bee320cd4e420270b5ea74000d11b0c9f74754ebdbfc544b05a258612aeb3390565b609780546001600160a01b038381166001600160a01b0319831681179093556040519116919082907f8be0079c531659141344cd1fd0a4f28419497f9722a3daafe3b4186f6b6457e090600090a35050565b600054610100900460ff16612bfe5760405162461bcd60e51b8152600401610671906144ea565b61190f6132c0565b816001600160a01b0316836001600160a01b031603612c795760405162461bcd60e51b815260206004820152602960248201527f455243313135353a2073657474696e6720617070726f76616c20737461747573604482015268103337b91039b2b63360b91b6064820152608401610671565b6001600160a01b03838116600081815260fc6020908152604080832094871680845294825291829020805460ff191686151590811790915591519182527f17307eab39ab6107e8899845ad3d59bd9653f200f220920489ca2b5937696c31910160405180910390a3505050565b6001600160a01b038516331480612d025750612d028533611f3f565b612d1e5760405162461bcd60e51b815260040161067190614411565b611dd885858585855b6001600160a01b038416612d4d5760405162461bcd60e51b815260040161067190614535565b33612d5d81878761244488612e48565b600084815260fb602090815260408083206001600160a01b038a16845290915290205483811015612da05760405162461bcd60e51b81526004016106719061457a565b600085815260fb602090815260408083206001600160a01b038b8116855292528083208785039055908816825281208054869290612ddf9084906144b9565b909155505060408051868152602081018690526001600160a01b03808916928a821692918616917fc3d58168c5ae7397731d063d5bbf3d657854427343f4c083240f7aacaa2d0f62910160405180910390a4612e3f828888888888612eb8565b50505050505050565b60408051600180825281830190925260609160009190602080830190803683370190505090508281600081518110612e8257612e82613f5d565b602090810291909101015292915050565b61012d5460ff161561175257604051631309a56360e01b815260040160405180910390fd5b6001600160a01b0384163b156117525760405163f23a6e6160e01b81526001600160a01b0385169063f23a6e6190612efc90899089908890889088906004016145c4565b6020604051808303816000875af1925050508015612f37575060408051601f3d908101601f19168201909252612f34918101906145fe565b60015b612fe357612f4361461b565b806308c379a003612f7c5750612f57614636565b80612f625750612f7e565b8060405162461bcd60e51b815260040161067191906138b4565b505b60405162461bcd60e51b815260206004820152603460248201527f455243313135353a207472616e7366657220746f206e6f6e20455243313135356044820152732932b1b2b4bb32b91034b6b83632b6b2b73a32b960611b6064820152608401610671565b6001600160e01b0319811663f23a6e6160e01b14612e3f5760405162461bcd60e51b8152600401610671906146bf565b81518351146130755760405162461bcd60e51b815260206004820152602860248201527f455243313135353a2069647320616e6420616d6f756e7473206c656e677468206044820152670dad2e6dac2e8c6d60c31b6064820152608401610671565b6001600160a01b03841661309b5760405162461bcd60e51b815260040161067190614535565b336130aa818787878787612e93565b60005b84518110156131935760008582815181106130ca576130ca613f5d565b6020026020010151905060008583815181106130e8576130e8613f5d565b602090810291909101810151600084815260fb835260408082206001600160a01b038e1683529093529190912054909150818110156131395760405162461bcd60e51b81526004016106719061457a565b600083815260fb602090815260408083206001600160a01b038e8116855292528083208585039055908b168252812080548492906131789084906144b9565b925050819055505050508061318c906143f8565b90506130ad565b50846001600160a01b0316866001600160a01b0316826001600160a01b03167f4a39dc06d4c0dbc64b70af90fd698a233a518aa5d07e595d983b8c0526c8f7fb87876040516131e3929190614707565b60405180910390a46117528187878787876132f0565b6001600160a01b0381163b6132665760405162461bcd60e51b815260206004820152602d60248201527f455243313936373a206e657720696d706c656d656e746174696f6e206973206e60448201526c1bdd08184818dbdb9d1c9858dd609a1b6064820152608401610671565b60008051602061478b83398151915280546001600160a01b0319166001600160a01b0392909216919091179055565b61329e836133ab565b6000825111806132ab5750805b15612936576132ba83836133eb565b50505050565b600054610100900460ff166132e75760405162461bcd60e51b8152600401610671906144ea565b61190f33612b85565b6001600160a01b0384163b156117525760405163bc197c8160e01b81526001600160a01b0385169063bc197c8190613334908990899088908890889060040161472c565b6020604051808303816000875af192505050801561336f575060408051601f3d908101601f1916820190925261336c918101906145fe565b60015b61337b57612f4361461b565b6001600160e01b0319811663bc197c8160e01b14612e3f5760405162461bcd60e51b8152600401610671906146bf565b6133b4816131f9565b6040516001600160a01b038216907fbc7cd75a20ee27fd9adebab32041f755214dbc6bffa90cc0225b39da2e5c2d3b90600090a250565b60606001600160a01b0383163b6134535760405162461bcd60e51b815260206004820152602660248201527f416464726573733a2064656c65676174652063616c6c20746f206e6f6e2d636f6044820152651b9d1c9858dd60d21b6064820152608401610671565b600080846001600160a01b03168460405161346e919061445a565b600060405180830381855af49150503d80600081146134a9576040519150601f19603f3d011682016040523d82523d6000602084013e6134ae565b606091505b50915091506134d682826040518060600160405280602781526020016147ab602791396134df565b95945050505050565b606083156134ee575081613518565b8251156134fe5782518084602001fd5b8160405162461bcd60e51b815260040161067191906138b4565b9392505050565b82805461352b90614141565b90600052602060002090601f01602090048101928261354d5760008555613593565b82601f1061356657805160ff1916838001178555613593565b82800160010185558215613593579182015b82811115613593578251825591602001919060010190613578565b5061359f9291506135a3565b5090565b5b8082111561359f57600081556001016135a4565b6001600160a01b038116811461183657600080fd5b600080604083850312156135e057600080fd5b82356135eb816135b8565b946020939093013593505050565b6001600160e01b03198116811461183657600080fd5b60006020828403121561362157600080fd5b8135613518816135f9565b6000806020838503121561363f57600080fd5b82356001600160401b038082111561365657600080fd5b818501915085601f83011261366a57600080fd5b81358181111561367957600080fd5b86602082850101111561368b57600080fd5b60209290920196919550909350505050565b60008083601f8401126136af57600080fd5b5081356001600160401b038111156136c657600080fd5b6020830191508360208260051b85010111156136e157600080fd5b9250929050565b803564ffffffffff811681146136fd57600080fd5b919050565b801515811461183657600080fd5b80356136fd81613702565b600080600080600080600080600060e08a8c03121561373957600080fd5b89356001600160401b038082111561375057600080fd5b818c0191508c601f83011261376457600080fd5b81358181111561377357600080fd5b8d60208260061b850101111561378857600080fd5b60209283019b509950908b0135975060408b013590808211156137aa57600080fd5b506137b78c828d0161369d565b90975095505060608a013593506137d060808b016136e8565b92506137de60a08b01613710565b91506137ec60c08b01613710565b90509295985092959850929598565b6000806000806080858703121561381157600080fd5b84359350602085013561382381613702565b9250604085013561383381613702565b9396929550929360600135925050565b60006020828403121561385557600080fd5b5035919050565b60005b8381101561387757818101518382015260200161385f565b838111156132ba5750506000910152565b600081518084526138a081602086016020860161385c565b601f01601f19169290920160200192915050565b6020815260006135186020830184613888565b6000806000806000606086880312156138df57600080fd5b8535945060208601356001600160401b03808211156138fd57600080fd5b61390989838a0161369d565b9096509450604088013591508082111561392257600080fd5b5061392f8882890161369d565b969995985093965092949392505050565b6000806040838503121561395357600080fd5b50508035926020909101359150565b634e487b7160e01b600052604160045260246000fd5b601f8201601f191681016001600160401b038111828210171561399d5761399d613962565b6040525050565b60006001600160401b038211156139bd576139bd613962565b5060051b60200190565b600082601f8301126139d857600080fd5b813560206139e5826139a4565b6040516139f28282613978565b83815260059390931b8501820192828101915086841115613a1257600080fd5b8286015b84811015613a2d5780358352918301918301613a16565b509695505050505050565b600082601f830112613a4957600080fd5b81356001600160401b03811115613a6257613a62613962565b604051613a79601f8301601f191660200182613978565b818152846020838601011115613a8e57600080fd5b816020850160208301376000918101602001919091529392505050565b600080600080600060a08688031215613ac357600080fd5b8535613ace816135b8565b94506020860135613ade816135b8565b935060408601356001600160401b0380821115613afa57600080fd5b613b0689838a016139c7565b94506060880135915080821115613b1c57600080fd5b613b2889838a016139c7565b93506080880135915080821115613b3e57600080fd5b50613b4b88828901613a38565b9150509295509295909350565b600060208284031215613b6a57600080fd5b8135613518816135b8565b60008060408385031215613b8857600080fd5b823591506020830135613b9a816135b8565b809150509250929050565b600082601f830112613bb657600080fd5b81356020613bc3826139a4565b604051613bd08282613978565b83815260059390931b8501820192828101915086841115613bf057600080fd5b8286015b84811015613a2d578035613c07816135b8565b8352918301918301613bf4565b60008060408385031215613c2757600080fd5b82356001600160401b0380821115613c3e57600080fd5b613c4a86838701613ba5565b93506020850135915080821115613c6057600080fd5b50613c6d858286016139c7565b9150509250929050565b600081518084526020808501945080840160005b83811015613ca757815187529582019590820190600101613c8b565b509495945050505050565b6020815260006135186020830184613c77565b60008060408385031215613cd857600080fd5b8235613ce3816135b8565b915060208301356001600160401b03811115613cfe57600080fd5b613c6d85828601613a38565b60008060408385031215613d1d57600080fd5b8235613d28816135b8565b91506020830135613b9a81613702565b600080600080600060a08688031215613d5057600080fd5b8535613d5b816135b8565b945060208601356001600160401b0380821115613d7757600080fd5b613d8389838a01613ba5565b9550604088013594506060880135915080821115613da057600080fd5b50613dad888289016139c7565b9250506080860135613dbe81613702565b809150509295509295909350565b600080600080600060a08688031215613de457600080fd5b8535613def816135b8565b94506020860135613dff816135b8565b9350604086013592506060860135915060808601356001600160401b03811115613e2857600080fd5b613b4b88828901613a38565b60008060408385031215613e4757600080fd5b8235613e52816135b8565b91506020830135613b9a816135b8565b6020808252818101527f4f776e61626c653a2063616c6c6572206973206e6f7420746865206f776e6572604082015260600190565b81838237637b69647d60e01b9101908152600401919050565b8183526000602080850194508260005b85811015613ca7578135613ed3816135b8565b6001600160a01b031687529582019590820190600101613ec0565b60018060a01b0389168152871515602082015286151560408201528560608201528460808201528360a082015260e060c08201526000613f3260e083018486613eb0565b9a9950505050505050505050565b600060208284031215613f5257600080fd5b8151613518816135b8565b634e487b7160e01b600052603260045260246000fd5b803563ffffffff811681146136fd57600080fd5b600060208284031215613f9957600080fd5b61351882613f73565b60e0808252810189905260008a6101008301825b8c811015613ffd578235613fc9816135b8565b6001600160a01b03168252602063ffffffff613fe6858301613f73565b169083015260409283019290910190600101613fb6565b508a60208501528381036040850152614017818a8c613eb0565b92505050856060830152614034608083018664ffffffffff169052565b83151560a083015282151560c0830152613f32565b600082601f83011261405a57600080fd5b81516020614067826139a4565b6040516140748282613978565b83815260059390931b850182019282810191508684111561409457600080fd5b8286015b84811015613a2d5780516140ab816135b8565b8352918301918301614098565b60008060008060008060c087890312156140d157600080fd5b865195506020870151945060408701516140ea816135b8565b60608801519094506140fb81613702565b608088015190935061410c81613702565b60a08801519092506001600160401b0381111561412857600080fd5b61413489828a01614049565b9150509295509295509295565b600181811c9082168061415557607f821691505b60208210810361417557634e487b7160e01b600052602260045260246000fd5b50919050565b8035600381900b81146136fd57600080fd5b60006020828403121561419f57600080fd5b6135188261417b565b634e487b7160e01b600052601160045260246000fd5b60008160030b637fffffff1981036141d8576141d86141a8565b60000392915050565b60008160030b8360030b6000821282637fffffff03821381151615614208576142086141a8565b82637fffffff19038212811615614221576142216141a8565b50019392505050565b600063ffffffff808316818516808303821115614249576142496141a8565b01949350505050565b600063ffffffff8381169083168181101561426f5761426f6141a8565b039392505050565b8183526000602080850194508260005b85811015613ca7576142988261417b565b60030b87529582019590820190600101614287565b6060815260006142c1606083018789613eb0565b82810360208401526142d4818688614277565b91505063ffffffff831660408301529695505050505050565b604081526000614301604083018688613eb0565b8281036020840152614314818587614277565b979650505050505050565b6000816000190483118215151615614339576143396141a8565b500290565b60008261435b57634e487b7160e01b600052601260045260246000fd5b500490565b6020808252602c908201527f46756e6374696f6e206d7573742062652063616c6c6564207468726f7567682060408201526b19195b1959d85d1958d85b1b60a21b606082015260800190565b6020808252602c908201527f46756e6374696f6e206d7573742062652063616c6c6564207468726f7567682060408201526b6163746976652070726f787960a01b606082015260800190565b60006001820161440a5761440a6141a8565b5060010190565b60208082526029908201527f455243313135353a2063616c6c6572206973206e6f74206f776e6572206e6f7260408201526808185c1c1c9bdd995960ba1b606082015260800190565b6000825161446c81846020870161385c565b9190910192915050565b60008060008060008060c0878903121561448f57600080fd5b8651955060208701516144a1816135b8565b6040880151606089015191965094506140fb81613702565b600082198211156144cc576144cc6141a8565b500190565b6000602082840312156144e357600080fd5b5051919050565b6020808252602b908201527f496e697469616c697a61626c653a20636f6e7472616374206973206e6f74206960408201526a6e697469616c697a696e6760a81b606082015260800190565b60208082526025908201527f455243313135353a207472616e7366657220746f20746865207a65726f206164604082015264647265737360d81b606082015260800190565b6020808252602a908201527f455243313135353a20696e73756666696369656e742062616c616e636520666f60408201526939103a3930b739b332b960b11b606082015260800190565b6001600160a01b03868116825285166020820152604081018490526060810183905260a06080820181905260009061431490830184613888565b60006020828403121561461057600080fd5b8151613518816135f9565b600060033d1115611be45760046000803e5060005160e01c90565b600060443d10156146445790565b6040516003193d81016004833e81513d6001600160401b03816024840111818411171561467357505050505090565b828501915081518181111561468b5750505050505090565b843d87010160208285010111156146a55750505050505090565b6146b460208286010187613978565b509095945050505050565b60208082526028908201527f455243313135353a204552433131353552656365697665722072656a656374656040820152676420746f6b656e7360c01b606082015260800190565b60408152600061471a6040830185613c77565b82810360208401526134d68185613c77565b6001600160a01b0386811682528516602082015260a06040820181905260009061475890830186613c77565b828103606084015261476a8186613c77565b9050828103608084015261477e8185613888565b9897505050505050505056fe360894a13ba1a3210667c828492db98dca3e2076cc3735a920a3ca505d382bbc416464726573733a206c6f772d6c6576656c2064656c65676174652063616c6c206661696c6564a264697066735822122042e46b64d65db4cf93ba7d6df7be128090ce9d025d7d586d5ebe6b9ea2b14ff664736f6c634300080d0033",
  "linkReferences": {},
  "deployedLinkReferences": {}
}