{
  "_format": "hh-sol-artifact-1",
  "contractName": "SliceCore",
  "sourceName": "contracts/SliceCore.sol",
  "abi": [
    {
      "inputs": [],
      "name": "Invalid",
      "type": "error"
    },
    {
      "inputs": [],
      "name": "IsPaused",
      "type": "error"
    },
    {
      "inputs": [],
      "name": "NotAuthorized",
      "type": "error"
    },
    {
      "inputs": [],
      "name": "NotSuccessful",
      "type": "error"
    },
    {
      "inputs": [],
      "name": "PaymentLoop",
      "type": "error"
    },
    {
      "inputs": [],
      "name": "transferLocked",
      "type": "error"
    },
    {
      "anonymous": false,
      "inputs": [
        {
          "indexed": false,
          "internalType": "address",
          "name": "previousAdmin",
          "type": "address"
        },
        {
          "indexed": false,
          "internalType": "address",
          "name": "newAdmin",
          "type": "address"
        }
      ],
      "name": "AdminChanged",
      "type": "event"
    },
    {
      "anonymous": false,
      "inputs": [
        {
          "indexed": true,
          "internalType": "address",
          "name": "account",
          "type": "address"
        },
        {
          "indexed": true,
          "internalType": "address",
          "name": "operator",
          "type": "address"
        },
        {
          "indexed": false,
          "internalType": "bool",
          "name": "approved",
          "type": "bool"
        }
      ],
      "name": "ApprovalForAll",
      "type": "event"
    },
    {
      "anonymous": false,
      "inputs": [
        {
          "indexed": true,
          "internalType": "address",
          "name": "beacon",
          "type": "address"
        }
      ],
      "name": "BeaconUpgraded",
      "type": "event"
    },
    {
      "anonymous": false,
      "inputs": [
        {
          "indexed": true,
          "internalType": "address",
          "name": "previousOwner",
          "type": "address"
        },
        {
          "indexed": true,
          "internalType": "address",
          "name": "newOwner",
          "type": "address"
        }
      ],
      "name": "OwnershipTransferred",
      "type": "event"
    },
    {
      "anonymous": false,
      "inputs": [
        {
          "indexed": false,
          "internalType": "address",
          "name": "account",
          "type": "address"
        }
      ],
      "name": "Paused",
      "type": "event"
    },
    {
      "anonymous": false,
      "inputs": [
        {
          "indexed": true,
          "internalType": "uint256",
          "name": "tokenId",
          "type": "uint256"
        },
        {
          "indexed": false,
          "internalType": "bool",
          "name": "isSlicer",
          "type": "bool"
        },
        {
          "indexed": false,
          "internalType": "bool",
          "name": "isActive",
          "type": "bool"
        },
        {
          "indexed": false,
          "internalType": "uint256",
          "name": "royaltyPercentage",
          "type": "uint256"
        }
      ],
      "name": "RoyaltySet",
      "type": "event"
    },
    {
      "anonymous": false,
      "inputs": [
        {
          "indexed": true,
          "internalType": "uint256",
          "name": "tokenId",
          "type": "uint256"
        },
        {
          "indexed": true,
          "internalType": "address",
          "name": "slicerController",
          "type": "address"
        }
      ],
      "name": "SlicerControllerSet",
      "type": "event"
    },
    {
      "anonymous": false,
      "inputs": [
        {
          "indexed": true,
          "internalType": "uint256",
          "name": "tokenId",
          "type": "uint256"
        },
        {
          "indexed": false,
          "internalType": "address payable[]",
          "name": "accounts",
          "type": "address[]"
        },
        {
          "indexed": false,
          "internalType": "int32[]",
          "name": "tokensDiffs",
          "type": "int32[]"
        }
      ],
      "name": "TokenResliced",
      "type": "event"
    },
    {
      "anonymous": false,
      "inputs": [
        {
          "indexed": true,
          "internalType": "address",
          "name": "slicerAddress",
          "type": "address"
        },
        {
          "indexed": true,
          "internalType": "uint256",
          "name": "tokenId",
          "type": "uint256"
        },
        {
          "components": [
            {
              "internalType": "address",
              "name": "account",
              "type": "address"
            },
            {
              "internalType": "uint32",
              "name": "shares",
              "type": "uint32"
            }
          ],
          "indexed": false,
          "internalType": "struct Payee[]",
          "name": "payees",
          "type": "tuple[]"
        },
        {
          "indexed": false,
          "internalType": "uint256",
          "name": "minimumShares",
          "type": "uint256"
        },
        {
          "indexed": false,
          "internalType": "address[]",
          "name": "currencies",
          "type": "address[]"
        },
        {
          "indexed": false,
          "internalType": "uint256",
          "name": "releaseTimelock",
          "type": "uint256"
        },
        {
          "indexed": false,
          "internalType": "uint256",
          "name": "transferableTimelock",
          "type": "uint256"
        },
        {
          "indexed": false,
          "internalType": "bool",
          "name": "isImmutable",
          "type": "bool"
        },
        {
          "indexed": false,
          "internalType": "bool",
          "name": "isControlled",
          "type": "bool"
        },
        {
          "indexed": true,
          "internalType": "uint256",
          "name": "slicerVersion",
          "type": "uint256"
        }
      ],
      "name": "TokenSliced",
      "type": "event"
    },
    {
      "anonymous": false,
      "inputs": [
        {
          "indexed": true,
          "internalType": "address",
          "name": "operator",
          "type": "address"
        },
        {
          "indexed": true,
          "internalType": "address",
          "name": "from",
          "type": "address"
        },
        {
          "indexed": true,
          "internalType": "address",
          "name": "to",
          "type": "address"
        },
        {
          "indexed": false,
          "internalType": "uint256[]",
          "name": "ids",
          "type": "uint256[]"
        },
        {
          "indexed": false,
          "internalType": "uint256[]",
          "name": "values",
          "type": "uint256[]"
        }
      ],
      "name": "TransferBatch",
      "type": "event"
    },
    {
      "anonymous": false,
      "inputs": [
        {
          "indexed": true,
          "internalType": "address",
          "name": "operator",
          "type": "address"
        },
        {
          "indexed": true,
          "internalType": "address",
          "name": "from",
          "type": "address"
        },
        {
          "indexed": true,
          "internalType": "address",
          "name": "to",
          "type": "address"
        },
        {
          "indexed": false,
          "internalType": "uint256",
          "name": "id",
          "type": "uint256"
        },
        {
          "indexed": false,
          "internalType": "uint256",
          "name": "value",
          "type": "uint256"
        }
      ],
      "name": "TransferSingle",
      "type": "event"
    },
    {
      "anonymous": false,
      "inputs": [
        {
          "indexed": false,
          "internalType": "string",
          "name": "value",
          "type": "string"
        },
        {
          "indexed": true,
          "internalType": "uint256",
          "name": "id",
          "type": "uint256"
        }
      ],
      "name": "URI",
      "type": "event"
    },
    {
      "anonymous": false,
      "inputs": [
        {
          "indexed": false,
          "internalType": "address",
          "name": "account",
          "type": "address"
        }
      ],
      "name": "Unpaused",
      "type": "event"
    },
    {
      "anonymous": false,
      "inputs": [
        {
          "indexed": true,
          "internalType": "address",
          "name": "implementation",
          "type": "address"
        }
      ],
      "name": "Upgraded",
      "type": "event"
    },
    {
      "inputs": [
        {
          "internalType": "string",
          "name": "basePath_",
          "type": "string"
        }
      ],
      "name": "_setBasePath",
      "outputs": [],
      "stateMutability": "nonpayable",
      "type": "function"
    },
    {
      "inputs": [],
      "name": "_togglePause",
      "outputs": [],
      "stateMutability": "nonpayable",
      "type": "function"
    },
    {
      "inputs": [
        {
          "internalType": "address",
          "name": "account",
          "type": "address"
        },
        {
          "internalType": "uint256",
          "name": "id",
          "type": "uint256"
        }
      ],
      "name": "balanceOf",
      "outputs": [
        {
          "internalType": "uint256",
          "name": "",
          "type": "uint256"
        }
      ],
      "stateMutability": "view",
      "type": "function"
    },
    {
      "inputs": [
        {
          "internalType": "address[]",
          "name": "accounts",
          "type": "address[]"
        },
        {
          "internalType": "uint256[]",
          "name": "ids",
          "type": "uint256[]"
        }
      ],
      "name": "balanceOfBatch",
      "outputs": [
        {
          "internalType": "uint256[]",
          "name": "",
          "type": "uint256[]"
        }
      ],
      "stateMutability": "view",
      "type": "function"
    },
    {
      "inputs": [
        {
          "internalType": "uint256",
          "name": "id",
          "type": "uint256"
        }
      ],
      "name": "controller",
      "outputs": [
        {
          "internalType": "address",
          "name": "",
          "type": "address"
        }
      ],
      "stateMutability": "view",
      "type": "function"
    },
    {
      "inputs": [
        {
          "internalType": "uint256",
          "name": "id",
          "type": "uint256"
        }
      ],
      "name": "exists",
      "outputs": [
        {
          "internalType": "bool",
          "name": "",
          "type": "bool"
        }
      ],
      "stateMutability": "view",
      "type": "function"
    },
    {
      "inputs": [],
      "name": "initialize",
      "outputs": [],
      "stateMutability": "nonpayable",
      "type": "function"
    },
    {
      "inputs": [
        {
          "internalType": "address",
          "name": "account",
          "type": "address"
        },
        {
          "internalType": "address",
          "name": "operator",
          "type": "address"
        }
      ],
      "name": "isApprovedForAll",
      "outputs": [
        {
          "internalType": "bool",
          "name": "",
          "type": "bool"
        }
      ],
      "stateMutability": "view",
      "type": "function"
    },
    {
      "inputs": [],
      "name": "owner",
      "outputs": [
        {
          "internalType": "address",
          "name": "",
          "type": "address"
        }
      ],
      "stateMutability": "view",
      "type": "function"
    },
    {
      "inputs": [],
      "name": "paused",
      "outputs": [
        {
          "internalType": "bool",
          "name": "",
          "type": "bool"
        }
      ],
      "stateMutability": "view",
      "type": "function"
    },
    {
      "inputs": [],
      "name": "proxiableUUID",
      "outputs": [
        {
          "internalType": "bytes32",
          "name": "",
          "type": "bytes32"
        }
      ],
      "stateMutability": "view",
      "type": "function"
    },
    {
      "inputs": [],
      "name": "renounceOwnership",
      "outputs": [],
      "stateMutability": "nonpayable",
      "type": "function"
    },
    {
      "inputs": [
        {
          "internalType": "uint256",
          "name": "tokenId",
          "type": "uint256"
        },
        {
          "internalType": "address payable[]",
          "name": "accounts",
          "type": "address[]"
        },
        {
          "internalType": "int32[]",
          "name": "tokensDiffs",
          "type": "int32[]"
        }
      ],
      "name": "reslice",
      "outputs": [],
      "stateMutability": "nonpayable",
      "type": "function"
    },
    {
      "inputs": [
        {
          "internalType": "uint256",
          "name": "tokenId",
          "type": "uint256"
        },
        {
          "internalType": "uint256",
          "name": "salePrice",
          "type": "uint256"
        }
      ],
      "name": "royaltyInfo",
      "outputs": [
        {
          "internalType": "address",
          "name": "receiver",
          "type": "address"
        },
        {
          "internalType": "uint256",
          "name": "royaltyAmount",
          "type": "uint256"
        }
      ],
      "stateMutability": "view",
      "type": "function"
    },
    {
      "inputs": [
        {
          "internalType": "address",
          "name": "from",
          "type": "address"
        },
        {
          "internalType": "address",
          "name": "to",
          "type": "address"
        },
        {
          "internalType": "uint256[]",
          "name": "ids",
          "type": "uint256[]"
        },
        {
          "internalType": "uint256[]",
          "name": "amounts",
          "type": "uint256[]"
        },
        {
          "internalType": "bytes",
          "name": "data",
          "type": "bytes"
        }
      ],
      "name": "safeBatchTransferFrom",
      "outputs": [],
      "stateMutability": "nonpayable",
      "type": "function"
    },
    {
      "inputs": [
        {
          "internalType": "address",
          "name": "from",
          "type": "address"
        },
        {
          "internalType": "address",
          "name": "to",
          "type": "address"
        },
        {
          "internalType": "uint256",
          "name": "id",
          "type": "uint256"
        },
        {
          "internalType": "uint256",
          "name": "amount",
          "type": "uint256"
        },
        {
          "internalType": "bytes",
          "name": "data",
          "type": "bytes"
        }
      ],
      "name": "safeTransferFrom",
      "outputs": [],
      "stateMutability": "nonpayable",
      "type": "function"
    },
    {
      "inputs": [
        {
          "internalType": "address",
          "name": "from",
          "type": "address"
        },
        {
          "internalType": "address",
          "name": "to",
          "type": "address"
        },
        {
          "internalType": "uint256",
          "name": "id",
          "type": "uint256"
        },
        {
          "internalType": "uint256",
          "name": "amount",
          "type": "uint256"
        },
        {
          "internalType": "bytes",
          "name": "data",
          "type": "bytes"
        }
      ],
      "name": "safeTransferFromUnreleased",
      "outputs": [],
      "stateMutability": "nonpayable",
      "type": "function"
    },
    {
      "inputs": [
        {
          "internalType": "address",
          "name": "operator",
          "type": "address"
        },
        {
          "internalType": "bool",
          "name": "approved",
          "type": "bool"
        }
      ],
      "name": "setApprovalForAll",
      "outputs": [],
      "stateMutability": "nonpayable",
      "type": "function"
    },
    {
      "inputs": [
        {
          "internalType": "uint256",
          "name": "id",
          "type": "uint256"
        },
        {
          "internalType": "address",
          "name": "newController",
          "type": "address"
        }
      ],
      "name": "setController",
      "outputs": [],
      "stateMutability": "nonpayable",
      "type": "function"
    },
    {
      "inputs": [
        {
          "internalType": "uint256",
          "name": "tokenId",
          "type": "uint256"
        },
        {
          "internalType": "bool",
          "name": "isSlicer",
          "type": "bool"
        },
        {
          "internalType": "bool",
          "name": "isActive",
          "type": "bool"
        },
        {
          "internalType": "uint256",
          "name": "royaltyPercentage",
          "type": "uint256"
        }
      ],
      "name": "setRoyalty",
      "outputs": [],
      "stateMutability": "nonpayable",
      "type": "function"
    },
    {
      "inputs": [
        {
          "components": [
            {
              "internalType": "address",
              "name": "account",
              "type": "address"
            },
            {
              "internalType": "uint32",
              "name": "shares",
              "type": "uint32"
            }
          ],
          "internalType": "struct Payee[]",
          "name": "payees",
          "type": "tuple[]"
        },
        {
          "internalType": "uint256",
          "name": "minimumShares",
          "type": "uint256"
        },
        {
          "internalType": "address[]",
          "name": "currencies",
          "type": "address[]"
        },
        {
          "internalType": "uint256",
          "name": "releaseTimelock",
          "type": "uint256"
        },
        {
          "internalType": "uint40",
          "name": "transferMintTimelock",
          "type": "uint40"
        },
        {
          "internalType": "bool",
          "name": "isImmutable",
          "type": "bool"
        },
        {
          "internalType": "bool",
          "name": "isControlled",
          "type": "bool"
        }
      ],
      "name": "slice",
      "outputs": [],
      "stateMutability": "nonpayable",
      "type": "function"
    },
    {
      "inputs": [
        {
          "internalType": "address",
          "name": "from",
          "type": "address"
        },
        {
          "internalType": "address[]",
          "name": "recipients",
          "type": "address[]"
        },
        {
          "internalType": "uint256",
          "name": "id",
          "type": "uint256"
        },
        {
          "internalType": "uint256[]",
          "name": "amounts",
          "type": "uint256[]"
        },
        {
          "internalType": "bool",
          "name": "release",
          "type": "bool"
        }
      ],
      "name": "slicerBatchTransfer",
      "outputs": [],
      "stateMutability": "nonpayable",
      "type": "function"
    },
    {
      "inputs": [
        {
          "internalType": "uint256",
          "name": "id",
          "type": "uint256"
        }
      ],
      "name": "slicers",
      "outputs": [
        {
          "internalType": "address",
          "name": "",
          "type": "address"
        }
      ],
      "stateMutability": "view",
      "type": "function"
    },
    {
      "inputs": [
        {
          "internalType": "bytes4",
          "name": "interfaceId",
          "type": "bytes4"
        }
      ],
      "name": "supportsInterface",
      "outputs": [
        {
          "internalType": "bool",
          "name": "",
          "type": "bool"
        }
      ],
      "stateMutability": "view",
      "type": "function"
    },
    {
      "inputs": [
        {
          "internalType": "uint256",
          "name": "id",
          "type": "uint256"
        }
      ],
      "name": "totalSupply",
      "outputs": [
        {
          "internalType": "uint256",
          "name": "",
          "type": "uint256"
        }
      ],
      "stateMutability": "view",
      "type": "function"
    },
    {
      "inputs": [
        {
          "internalType": "address",
          "name": "newOwner",
          "type": "address"
        }
      ],
      "name": "transferOwnership",
      "outputs": [],
      "stateMutability": "nonpayable",
      "type": "function"
    },
    {
      "inputs": [
        {
          "internalType": "address",
          "name": "newImplementation",
          "type": "address"
        }
      ],
      "name": "upgradeTo",
      "outputs": [],
      "stateMutability": "nonpayable",
      "type": "function"
    },
    {
      "inputs": [
        {
          "internalType": "address",
          "name": "newImplementation",
          "type": "address"
        },
        {
          "internalType": "bytes",
          "name": "data",
          "type": "bytes"
        }
      ],
      "name": "upgradeToAndCall",
      "outputs": [],
      "stateMutability": "payable",
      "type": "function"
    },
    {
      "inputs": [
        {
          "internalType": "uint256",
          "name": "",
          "type": "uint256"
        }
      ],
      "name": "uri",
      "outputs": [
        {
          "internalType": "string",
          "name": "",
          "type": "string"
        }
      ],
      "stateMutability": "view",
      "type": "function"
    }
  ],
  "bytecode": "0x60a06040523060805234801561001457600080fd5b506080516147cc61004c600039600081816117290152818161176901528181611a1101528181611a510152611b0501526147cc6000f3fe6080604052600436106101c15760003560e01c80634f1ef286116100f7578063a22cb46511610095578063c3592b0c11610064578063c3592b0c14610569578063e985e9c514610589578063f242432a146105a9578063f2fde38b146105c957600080fd5b8063a22cb465146104b1578063a468f1c7146104d1578063a58fa7c41461050b578063bd85b0391461052b57600080fd5b80635c975abb116100d15780635c975abb14610450578063715018a6146104695780638129fc1c1461047e5780638da5cb5b1461049357600080fd5b80634f1ef286146104085780634f558e791461041b57806352d1902d1461043b57600080fd5b806326b7fb48116101645780633659cfe61161013e5780633659cfe6146103865780633e5779ee146103a6578063405b4c36146103c65780634e1273f4146103db57600080fd5b806326b7fb48146103075780632a55205a146103275780632eb2c2d61461036657600080fd5b80630a46fb1b116101a05780630a46fb1b1461024b5780630da9450a1461026b5780630e89341c1461028b578063175fa7ea146102b857600080fd5b8062fdd58e146101c657806301ffc9a7146101f9578063059f424f14610229575b600080fd5b3480156101d257600080fd5b506101e66101e1366004613592565b6105e9565b6040519081526020015b60405180910390f35b34801561020557600080fd5b506102196102143660046135d4565b610685565b60405190151581526020016101f0565b34801561023557600080fd5b506102496102443660046135f1565b6106d5565b005b34801561025757600080fd5b506102496102663660046136e0565b61072d565b34801561027757600080fd5b506102496102863660046137c0565b610b19565b34801561029757600080fd5b506102ab6102a6366004613808565b610d07565b6040516101f09190613879565b3480156102c457600080fd5b506102ef6102d3366004613808565b600090815261016060205260409020546001600160a01b031690565b6040516001600160a01b0390911681526020016101f0565b34801561031357600080fd5b5061024961032236600461388c565b610d9b565b34801561033357600080fd5b50610347610342366004613905565b6113d2565b604080516001600160a01b0390931683526020830191909152016101f0565b34801561037257600080fd5b50610249610381366004613a70565b6115a8565b34801561039257600080fd5b506102496103a1366004613b1d565b61171f565b3480156103b257600080fd5b506102496103c1366004613b3a565b6117fe565b3480156103d257600080fd5b50610249611896565b3480156103e757600080fd5b506103fb6103f6366004613bd9565b6118de565b6040516101f09190613c77565b610249610416366004613c8a565b611a07565b34801561042757600080fd5b50610219610436366004613808565b611ad3565b34801561044757600080fd5b506101e6611af8565b34801561045c57600080fd5b5061012d5460ff16610219565b34801561047557600080fd5b50610249611bac565b34801561048a57600080fd5b50610249611be0565b34801561049f57600080fd5b506097546001600160a01b03166102ef565b3480156104bd57600080fd5b506102496104cc366004613ccf565b611ca0565b3480156104dd57600080fd5b506102ef6104ec366004613808565b600090815261016060205260409020600101546001600160a01b031690565b34801561051757600080fd5b50610249610526366004613cfd565b611cab565b34801561053757600080fd5b506101e6610546366004613808565b60009081526101606020526040902060010154600160c81b900463ffffffff1690565b34801561057557600080fd5b50610249610584366004613d91565b611da4565b34801561059557600080fd5b506102196105a4366004613df9565b611f04565b3480156105b557600080fd5b506102496105c4366004613d91565b611fd1565b3480156105d557600080fd5b506102496105e4366004613b1d565b6121b5565b60006001600160a01b03831661065a5760405162461bcd60e51b815260206004820152602b60248201527f455243313135353a2062616c616e636520717565727920666f7220746865207a60448201526a65726f206164647265737360a81b60648201526084015b60405180910390fd5b50600081815260fb602090815260408083206001600160a01b03861684529091529020545b92915050565b60006001600160e01b03198216636cdb3d1360e11b14806106b657506001600160e01b031982166303a24d0760e21b145b8061067f57506301ffc9a760e01b6001600160e01b031983161461067f565b6097546001600160a01b031633146106ff5760405162461bcd60e51b815260040161065190613e27565b6107298282604051602001610715929190613e5c565b60405160208183030381529060405261224d565b5050565b61012d5460ff16156107745760405162461bcd60e51b815260206004820152601060248201526f14185d5cd8589b194e881c185d5cd95960821b6044820152606401610651565b8660000361079557604051636dac6a0960e01b815260040160405180910390fd5b60006107a161015f5490565b90506000735fc8d32690cc91d4c39d9d3abcbd16989f8757076001600160a01b03166340c29362338686868e8c8f8f6040518963ffffffff1660e01b81526004016107f3989796959493929190613eb3565b6020604051808303816000875af1158015610812573d6000803e3d6000fd5b505050506040513d601f19601f820116820180604052508101906108369190613f05565b905082156108615760008281526101606020526040902060010180546001600160a01b031916331790555b64ffffffffff85161561089f57600082815261016060205260409020600101805464ffffffffff60a01b1916600160a01b64ffffffffff8816021790555b60008281526101606020526040812080546001600160a01b0319166001600160a01b038416179055805b8b8110156109f15761090b8d8d838181106108e6576108e6613f22565b6108fc9260206040909202019081019150613b1d565b6001600160a01b03163b151590565b1561094357610943838e8e8481811061092657610926613f22565b61093c9260206040909202019081019150613b1d565b6001612260565b6109b48d8d8381811061095857610958613f22565b61096e9260206040909202019081019150613b1d565b858f8f8581811061098157610981613f22565b90506040020160200160208101906109999190613f4c565b63ffffffff1660405180602001604052806000815250612398565b8c8c828181106109c6576109c6613f22565b90506040020160200160208101906109de9190613f4c565b63ffffffff1691909101906001016108c9565b50801580610a02575063ffffffff81115b15610a2057604051636dac6a0960e01b815260040160405180910390fd5b6000838152610160602052604090819020600101805463ffffffff60c81b1916600160c81b63ffffffff85160217905551634e9270c360e11b8152600481018290526001600160a01b03831690639d24e18690602401600060405180830381600087803b158015610a9057600080fd5b505af1158015610aa4573d6000803e3d6000fd5b50505050610ab761015f80546001019055565b600083836001600160a01b03167fd4c892d23aa9f1838e04ae90c4f60484f8a049da02077023f7e0973dd0153be08f8f8f8f8f8f8f8f8f604051610b0399989796959493929190613f67565b60405180910390a4505050505050505050505050565b610b2284611ad3565b1580610b2e5750606481115b15610b4c57604051636dac6a0960e01b815260040160405180910390fd5b600084815261016060205260409020600101546001600160a01b031615610bad57600084815261016060205260409020600101546001600160a01b03163314610ba85760405163ea8e4eb560e01b815260040160405180910390fd5b610c64565b60008481526101606020526040808220548151634abf03db60e11b815291516001600160a01b039091169163957e07b691600480830192869291908290030181865afa158015610c01573d6000803e3d6000fd5b505050506040513d6000823e601f3d908101601f19168201604052610c29919081019061407d565b50505092505050806001600160a01b0316336001600160a01b031614610c625760405163ea8e4eb560e01b815260040160405180910390fd5b505b60008481526101606020908152604091829020600101805461ffff60e81b1916600160e81b60ff86160260ff60f01b191617600160f01b861515908102919091176001600160f81b0316600160f81b8815159081029190911790925583519182529181019190915290810182905284907f4fbf3dc0947ba89435d8dee95cfad6b2e458d3474fb5b840ce6d4a41f5e707c99060600160405180910390a250505050565b606060fd8054610d1690614106565b80601f0160208091040260200160405190810160405280929190818152602001828054610d4290614106565b8015610d8f5780601f10610d6457610100808354040283529160200191610d8f565b820191906000526020600020905b815481529060010190602001808311610d7257829003601f168201915b50505050509050919050565b600085815261016060205260409020600101546001600160a01b03163314610dd65760405163ea8e4eb560e01b815260040160405180910390fd5b828114610df657604051636dac6a0960e01b815260040160405180910390fd5b610dff856124aa565b60008581526101606020526040808220548151634abf03db60e11b815291516001600160a01b039091169163957e07b691600480830192869291908290030181865afa158015610e53573d6000803e3d6000fd5b505050506040513d6000823e601f3d908101601f19168201604052610e7b919081019061407d565b9550505050505060008060005b8681101561123a57610ec0888883818110610ea557610ea5613f22565b9050602002016020810190610eba9190613b1d565b8a6105e9565b60008a815261016060205260409020549092506001600160a01b031663d3c65754898984818110610ef357610ef3613f22565b9050602002016020810190610f089190613b1d565b6040516001600160e01b031960e084901b1681526001600160a01b0390911660048201526000602482015260448101859052606401600060405180830381600087803b158015610f5757600080fd5b505af1158015610f6b573d6000803e3d6000fd5b50505060008a815261016060205260409020546001600160a01b0316905063d3c65754898984818110610fa057610fa0613f22565b9050602002016020810190610fb59190613b1d565b6040516001600160e01b031960e084901b1681526001600160a01b0390911660048201527356639db16ac50a89228026e42a316b30179a5376602482015260448101859052606401600060405180830381600087803b15801561101757600080fd5b505af115801561102b573d6000803e3d6000fd5b5050505060005b845181101561110f5760008a815261016060205260409020546001600160a01b031663d3c657548a8a8581811061106b5761106b613f22565b90506020020160208101906110809190613b1d565b87848151811061109257611092613f22565b60209081029190910101516040516001600160e01b031960e085901b1681526001600160a01b0392831660048201529116602482015260448101869052606401600060405180830381600087803b1580156110ec57600080fd5b505af1158015611100573d6000803e3d6000fd5b50505050806001019050611032565b50600086868381811061112457611124613f22565b90506020020160208101906111399190614152565b60030b13156111995761119488888381811061115757611157613f22565b905060200201602081019061116c9190613b1d565b8a88888581811061117f5761117f613f22565b90506020020160208101906109999190614152565b6111ff565b6111ff8888838181106111ae576111ae613f22565b90506020020160208101906111c39190613b1d565b8a8888858181106111d6576111d6613f22565b90506020020160208101906111eb9190614152565b6111f490614183565b63ffffffff166124eb565b85858281811061121157611211613f22565b90506020020160208101906112269190614152565b61123090846141a6565b9250600101610e88565b5060008260030b131561129c576000888152610160602052604090206001018054839190601990611279908490600160c81b900463ffffffff166141ef565b92506101000a81548163ffffffff021916908363ffffffff1602179055506112ff565b60008260030b12156112ff576112b182614183565b60008981526101606020526040902060010180546019906112e0908490600160c81b900463ffffffff16614217565b92506101000a81548163ffffffff021916908363ffffffff1602179055505b60008881526101606020526040908190208054600190910154915163e32cf85160e01b81526001600160a01b039091169163e32cf85191611358918b918b918b918b91600160c81b900463ffffffff1690600401614272565b600060405180830381600087803b15801561137257600080fd5b505af1158015611386573d6000803e3d6000fd5b50505050877f50ab7f68b6b57e8f7634376d5e840c72b2b7f3e69bc52a6a12e3c777061b36b0888888886040516113c094939291906142b2565b60405180910390a25050505050505050565b6000806113de84611ad3565b6113fb57604051636dac6a0960e01b815260040160405180910390fd5b600084815261016060209081526040808320815160e08101835281546001600160a01b0390811682526001909201549182169381019390935264ffffffffff600160a01b8204169183019190915263ffffffff600160c81b820416606083015260ff600160e81b820481166080840152600160f01b82048116151560a08401819052600160f81b90920416151560c083015290919061149b5760326114a1565b81608001515b60ff1690506103e86114b382876142e4565b6114bd9190614303565b92508160c00151156114e957600086815261016060205260409020546001600160a01b0316935061159f565b60008681526101606020526040808220548151634abf03db60e11b8152915183926001600160a01b039092169163957e07b691600480830192869291908290030181865afa15801561153f573d6000803e3d6000fd5b505050506040513d6000823e601f3d908101601f19168201604052611567919081019061407d565b5094505093505050801561159857600088815261016060205260409020600101546001600160a01b0316955061159c565b8195505b50505b50509250929050565b600083516001600160401b038111156115c3576115c3613927565b6040519080825280602002602001820160405280156115ec578160200160208202803683370190505b50905060005b84518110156116fa5761161d85828151811061161057611610613f22565b60200260200101516124aa565b60006001600160a01b0316610160600087848151811061163f5761163f613f22565b6020908102919091018101518252810191909152604001600020600101546001600160a01b0316146116845760405163ea8e4eb560e01b815260040160405180910390fd5b610160600086838151811061169b5761169b613f22565b6020026020010151815260200190815260200160002060000160009054906101000a90046001600160a01b03168282815181106116da576116da613f22565b6001600160a01b03909216602092830291909101909101526001016115f2565b5061170a86868684876001612668565b611717868686868661280e565b505050505050565b6001600160a01b037f00000000000000000000000000000000000000000000000000000000000000001630036117675760405162461bcd60e51b815260040161065190614325565b7f00000000000000000000000000000000000000000000000000000000000000006001600160a01b03166117b0600080516020614750833981519152546001600160a01b031690565b6001600160a01b0316146117d65760405162461bcd60e51b815260040161065190614371565b6117df8161289e565b604080516000808252602082019092526117fb918391906128c8565b50565b600082815261016060205260409020600101546001600160a01b031633146118395760405163ea8e4eb560e01b815260040160405180910390fd5b6000828152610160602052604080822060010180546001600160a01b0319166001600160a01b0385169081179091559051909184917f2f1bd54f0cb5e0788fcb50aa92b6c88987bd2459fee273daa38b57af0717bd649190a35050565b6097546001600160a01b031633146118c05760405162461bcd60e51b815260040161065190613e27565b61012d5460ff16156118d6576118d4612a38565b565b6118d4612acd565b606081518351146119435760405162461bcd60e51b815260206004820152602960248201527f455243313135353a206163636f756e747320616e6420696473206c656e677468604482015268040dad2e6dac2e8c6d60bb1b6064820152608401610651565b600083516001600160401b0381111561195e5761195e613927565b604051908082528060200260200182016040528015611987578160200160208202803683370190505b50905060005b84518110156119ff576119d28582815181106119ab576119ab613f22565b60200260200101518583815181106119c5576119c5613f22565b60200260200101516105e9565b8282815181106119e4576119e4613f22565b60209081029190910101526119f8816143bd565b905061198d565b509392505050565b6001600160a01b037f0000000000000000000000000000000000000000000000000000000000000000163003611a4f5760405162461bcd60e51b815260040161065190614325565b7f00000000000000000000000000000000000000000000000000000000000000006001600160a01b0316611a98600080516020614750833981519152546001600160a01b031690565b6001600160a01b031614611abe5760405162461bcd60e51b815260040161065190614371565b611ac78261289e565b610729828260016128c8565b60009081526101606020526040902060010154600160c81b900463ffffffff16151590565b6000306001600160a01b037f00000000000000000000000000000000000000000000000000000000000000001614611b985760405162461bcd60e51b815260206004820152603860248201527f555550535570677261646561626c653a206d757374206e6f742062652063616c60448201527f6c6564207468726f7567682064656c656761746563616c6c00000000000000006064820152608401610651565b506000805160206147508339815191525b90565b6097546001600160a01b03163314611bd65760405162461bcd60e51b815260040161065190613e27565b6118d46000612b4a565b600054610100900460ff16611bfb5760005460ff1615611bff565b303b155b611c625760405162461bcd60e51b815260206004820152602e60248201527f496e697469616c697a61626c653a20636f6e747261637420697320616c72656160448201526d191e481a5b9a5d1a585b1a5e995960921b6064820152608401610651565b600054610100900460ff16158015611c84576000805461ffff19166101011790555b611c8c612b9c565b80156117fb576000805461ff001916905550565b610729338383612bcb565b8151845114611ccd57604051636dac6a0960e01b815260040160405180910390fd5b8015611d3b5760005b8451811015611d3557611d2d86868381518110611cf557611cf5613f22565b602002602001015186868581518110611d1057611d10613f22565b602002602001015160405180602001604052806000815250611fd1565b600101611cd6565b50611d9d565b60005b845181101561171757611d9586868381518110611d5d57611d5d613f22565b602002602001015186868581518110611d7857611d78613f22565b602002602001015160405180602001604052806000815250611da4565b600101611d3e565b5050505050565b611dad836124aa565b600083815261016060205260409020600101546001600160a01b031615611de75760405163ea8e4eb560e01b815260040160405180910390fd5b60408051600180825281830190925260009160208083019080368337505060408051600180825281830190925292935060009291506020808301908036833750506040805160018082528183019092529293506000929150602080830190803683370190505090508583600081518110611e6357611e63613f22565b6020908102919091018101919091526000878152610160909152604081205483516001600160a01b03909116918491611e9e57611e9e613f22565b60200260200101906001600160a01b031690816001600160a01b0316815250508481600081518110611ed257611ed2613f22565b602002602001018181525050611eed88888585856000612668565b611efa8888888888612cab565b5050505050505050565b60405163c455279160e01b81526001600160a01b03838116600483015260009173f57b2c51ded3a29e6891aba85459d600256cf31791841690829063c455279190602401602060405180830381865afa158015611f65573d6000803e3d6000fd5b505050506040513d601f19601f82011682018060405250810190611f899190613f05565b6001600160a01b031603611fa157600191505061067f565b50506001600160a01b03918216600090815260fc6020908152604080832093909416825291909152205460ff1690565b611fda836124aa565b600083815261016060205260409020600101546001600160a01b03161561206a57600083815261016060205260409020600101546001600160a01b031633146120655760405162461bcd60e51b815260206004820152601860248201527f43616c6c6572206973206e6f7420636f6e74726f6c6c657200000000000000006044820152606401610651565b6120a2565b6001600160a01b03851633148061208657506120868533611f04565b6120a25760405162461bcd60e51b8152600401610651906143d6565b6040805160018082528183019092526000916020808301908036833750506040805160018082528183019092529293506000929150602080830190803683375050604080516001808252818301909252929350600092915060208083019080368337019050509050858360008151811061211e5761211e613f22565b6020908102919091018101919091526000878152610160909152604081205483516001600160a01b0390911691849161215957612159613f22565b60200260200101906001600160a01b031690816001600160a01b031681525050848160008151811061218d5761218d613f22565b6020026020010181815250506121a888888585856001612668565b611efa8888888888612cec565b6097546001600160a01b031633146121df5760405162461bcd60e51b815260040161065190613e27565b6001600160a01b0381166122445760405162461bcd60e51b815260206004820152602660248201527f4f776e61626c653a206e6577206f776e657220697320746865207a65726f206160448201526564647265737360d01b6064820152608401610651565b6117fb81612b4a565b80516107299060fd9060208401906134e4565b60408051600481526024810182526020810180516001600160e01b0316634abf03db60e11b179052905160009182916001600160a01b038616916122a39161441f565b600060405180830381855afa9150503d80600081146122de576040519150601f19603f3d011682016040523d82523d6000602084013e6122e3565b606091505b50915091508115611d9d57600081806020019051810190612304919061443b565b5050506000838152610160602052604090205492935050506001600160a01b0380871691160361171757604051637669b10560e11b81526004810182905284151560248201526001600160a01b0387169063ecd3620a90604401600060405180830381600087803b15801561237857600080fd5b505af115801561238c573d6000803e3d6000fd5b50505050505050505050565b6001600160a01b0384166123f85760405162461bcd60e51b815260206004820152602160248201527f455243313135353a206d696e7420746f20746865207a65726f206164647265736044820152607360f81b6064820152608401610651565b336124188160008761240988612e0d565b61241288612e0d565b87612e58565b600084815260fb602090815260408083206001600160a01b03891684529091528120805485929061244a90849061447e565b909155505060408051858152602081018590526001600160a01b0380881692600092918516917fc3d58168c5ae7397731d063d5bbf3d657854427343f4c083240f7aacaa2d0f62910160405180910390a4611d9d81600087878787612e7d565b60008181526101606020526040902060010154600160a01b900464ffffffffff164210156117fb57604051630934355760e11b815260040160405180910390fd5b6001600160a01b03831661254d5760405162461bcd60e51b815260206004820152602360248201527f455243313135353a206275726e2066726f6d20746865207a65726f206164647260448201526265737360e81b6064820152608401610651565b3361257c8185600061255e87612e0d565b61256787612e0d565b60405180602001604052806000815250612e58565b600083815260fb602090815260408083206001600160a01b0388168452909152902054828110156125fb5760405162461bcd60e51b8152602060048201526024808201527f455243313135353a206275726e20616d6f756e7420657863656564732062616c604482015263616e636560e01b6064820152608401610651565b600084815260fb602090815260408083206001600160a01b03898116808652918452828520888703905582518981529384018890529092908616917fc3d58168c5ae7397731d063d5bbf3d657854427343f4c083240f7aacaa2d0f62910160405180910390a45050505050565b6001600160a01b0385163b151560005b8451811015611efa5783818151811061269357612693613f22565b60200260200101516000036126bb57604051636dac6a0960e01b815260040160405180910390fd5b8115612731578481815181106126d3576126d3613f22565b60200260200101516001600160a01b0316876001600160a01b03160361270c576040516368ee781960e11b815260040160405180910390fd5b61273185828151811061272157612721613f22565b6020026020010151886001612260565b84818151811061274357612743613f22565b60200260200101516001600160a01b031663b230074a8989866127728d8c88815181106119c5576119c5613f22565b89878151811061278457612784613f22565b60209081029190910101516040516001600160e01b031960e088901b1681526001600160a01b03958616600482015294909316602485015290151560448401526064830152608482015260a401600060405180830381600087803b1580156127eb57600080fd5b505af11580156127ff573d6000803e3d6000fd5b50505050806001019050612678565b6001600160a01b03851633148061282a575061282a8533611f04565b6128915760405162461bcd60e51b815260206004820152603260248201527f455243313135353a207472616e736665722063616c6c6572206973206e6f74206044820152711bdddb995c881b9bdc88185c1c1c9bdd995960721b6064820152608401610651565b611d9d8585858585612fd8565b6097546001600160a01b031633146117fb5760405162461bcd60e51b815260040161065190613e27565b7f4910fdfa16fed3260ed0e7147f7cc6da11a60208b5b9406d12a635614ffd91435460ff1615612900576128fb836131be565b505050565b826001600160a01b03166352d1902d6040518163ffffffff1660e01b8152600401602060405180830381865afa92505050801561295a575060408051601f3d908101601f1916820190925261295791810190614496565b60015b6129bd5760405162461bcd60e51b815260206004820152602e60248201527f45524331393637557067726164653a206e657720696d706c656d656e7461746960448201526d6f6e206973206e6f74205555505360901b6064820152608401610651565b6000805160206147508339815191528114612a2c5760405162461bcd60e51b815260206004820152602960248201527f45524331393637557067726164653a20756e737570706f727465642070726f786044820152681a58589b195555525160ba1b6064820152608401610651565b506128fb83838361325a565b61012d5460ff16612a825760405162461bcd60e51b815260206004820152601460248201527314185d5cd8589b194e881b9bdd081c185d5cd95960621b6044820152606401610651565b61012d805460ff191690557f5db9ee0a495bf2e6ff9c91a7834c1ba4fdd244a5e8aa4e537bd38aeae4b073aa335b6040516001600160a01b03909116815260200160405180910390a1565b61012d5460ff1615612b145760405162461bcd60e51b815260206004820152601060248201526f14185d5cd8589b194e881c185d5cd95960821b6044820152606401610651565b61012d805460ff191660011790557f62e78cea01bee320cd4e420270b5ea74000d11b0c9f74754ebdbfc544b05a258612ab03390565b609780546001600160a01b038381166001600160a01b0319831681179093556040519116919082907f8be0079c531659141344cd1fd0a4f28419497f9722a3daafe3b4186f6b6457e090600090a35050565b600054610100900460ff16612bc35760405162461bcd60e51b8152600401610651906144af565b6118d4613285565b816001600160a01b0316836001600160a01b031603612c3e5760405162461bcd60e51b815260206004820152602960248201527f455243313135353a2073657474696e6720617070726f76616c20737461747573604482015268103337b91039b2b63360b91b6064820152608401610651565b6001600160a01b03838116600081815260fc6020908152604080832094871680845294825291829020805460ff191686151590811790915591519182527f17307eab39ab6107e8899845ad3d59bd9653f200f220920489ca2b5937696c31910160405180910390a3505050565b6001600160a01b038516331480612cc75750612cc78533611f04565b612ce35760405162461bcd60e51b8152600401610651906143d6565b611d9d85858585855b6001600160a01b038416612d125760405162461bcd60e51b8152600401610651906144fa565b33612d2281878761240988612e0d565b600084815260fb602090815260408083206001600160a01b038a16845290915290205483811015612d655760405162461bcd60e51b81526004016106519061453f565b600085815260fb602090815260408083206001600160a01b038b8116855292528083208785039055908816825281208054869290612da490849061447e565b909155505060408051868152602081018690526001600160a01b03808916928a821692918616917fc3d58168c5ae7397731d063d5bbf3d657854427343f4c083240f7aacaa2d0f62910160405180910390a4612e04828888888888612e7d565b50505050505050565b60408051600180825281830190925260609160009190602080830190803683370190505090508281600081518110612e4757612e47613f22565b602090810291909101015292915050565b61012d5460ff161561171757604051631309a56360e01b815260040160405180910390fd5b6001600160a01b0384163b156117175760405163f23a6e6160e01b81526001600160a01b0385169063f23a6e6190612ec19089908990889088908890600401614589565b6020604051808303816000875af1925050508015612efc575060408051601f3d908101601f19168201909252612ef9918101906145c3565b60015b612fa857612f086145e0565b806308c379a003612f415750612f1c6145fb565b80612f275750612f43565b8060405162461bcd60e51b81526004016106519190613879565b505b60405162461bcd60e51b815260206004820152603460248201527f455243313135353a207472616e7366657220746f206e6f6e20455243313135356044820152732932b1b2b4bb32b91034b6b83632b6b2b73a32b960611b6064820152608401610651565b6001600160e01b0319811663f23a6e6160e01b14612e045760405162461bcd60e51b815260040161065190614684565b815183511461303a5760405162461bcd60e51b815260206004820152602860248201527f455243313135353a2069647320616e6420616d6f756e7473206c656e677468206044820152670dad2e6dac2e8c6d60c31b6064820152608401610651565b6001600160a01b0384166130605760405162461bcd60e51b8152600401610651906144fa565b3361306f818787878787612e58565b60005b845181101561315857600085828151811061308f5761308f613f22565b6020026020010151905060008583815181106130ad576130ad613f22565b602090810291909101810151600084815260fb835260408082206001600160a01b038e1683529093529190912054909150818110156130fe5760405162461bcd60e51b81526004016106519061453f565b600083815260fb602090815260408083206001600160a01b038e8116855292528083208585039055908b1682528120805484929061313d90849061447e565b9250508190555050505080613151906143bd565b9050613072565b50846001600160a01b0316866001600160a01b0316826001600160a01b03167f4a39dc06d4c0dbc64b70af90fd698a233a518aa5d07e595d983b8c0526c8f7fb87876040516131a89291906146cc565b60405180910390a46117178187878787876132b5565b6001600160a01b0381163b61322b5760405162461bcd60e51b815260206004820152602d60248201527f455243313936373a206e657720696d706c656d656e746174696f6e206973206e60448201526c1bdd08184818dbdb9d1c9858dd609a1b6064820152608401610651565b60008051602061475083398151915280546001600160a01b0319166001600160a01b0392909216919091179055565b61326383613370565b6000825111806132705750805b156128fb5761327f83836133b0565b50505050565b600054610100900460ff166132ac5760405162461bcd60e51b8152600401610651906144af565b6118d433612b4a565b6001600160a01b0384163b156117175760405163bc197c8160e01b81526001600160a01b0385169063bc197c81906132f990899089908890889088906004016146f1565b6020604051808303816000875af1925050508015613334575060408051601f3d908101601f19168201909252613331918101906145c3565b60015b61334057612f086145e0565b6001600160e01b0319811663bc197c8160e01b14612e045760405162461bcd60e51b815260040161065190614684565b613379816131be565b6040516001600160a01b038216907fbc7cd75a20ee27fd9adebab32041f755214dbc6bffa90cc0225b39da2e5c2d3b90600090a250565b60606001600160a01b0383163b6134185760405162461bcd60e51b815260206004820152602660248201527f416464726573733a2064656c65676174652063616c6c20746f206e6f6e2d636f6044820152651b9d1c9858dd60d21b6064820152608401610651565b600080846001600160a01b031684604051613433919061441f565b600060405180830381855af49150503d806000811461346e576040519150601f19603f3d011682016040523d82523d6000602084013e613473565b606091505b509150915061349b8282604051806060016040528060278152602001614770602791396134a4565b95945050505050565b606083156134b35750816134dd565b8251156134c35782518084602001fd5b8160405162461bcd60e51b81526004016106519190613879565b9392505050565b8280546134f090614106565b90600052602060002090601f0160209004810192826135125760008555613558565b82601f1061352b57805160ff1916838001178555613558565b82800160010185558215613558579182015b8281111561355857825182559160200191906001019061353d565b50613564929150613568565b5090565b5b808211156135645760008155600101613569565b6001600160a01b03811681146117fb57600080fd5b600080604083850312156135a557600080fd5b82356135b08161357d565b946020939093013593505050565b6001600160e01b0319811681146117fb57600080fd5b6000602082840312156135e657600080fd5b81356134dd816135be565b6000806020838503121561360457600080fd5b82356001600160401b038082111561361b57600080fd5b818501915085601f83011261362f57600080fd5b81358181111561363e57600080fd5b86602082850101111561365057600080fd5b60209290920196919550909350505050565b60008083601f84011261367457600080fd5b5081356001600160401b0381111561368b57600080fd5b6020830191508360208260051b85010111156136a657600080fd5b9250929050565b803564ffffffffff811681146136c257600080fd5b919050565b80151581146117fb57600080fd5b80356136c2816136c7565b600080600080600080600080600060e08a8c0312156136fe57600080fd5b89356001600160401b038082111561371557600080fd5b818c0191508c601f83011261372957600080fd5b81358181111561373857600080fd5b8d60208260061b850101111561374d57600080fd5b60209283019b509950908b0135975060408b0135908082111561376f57600080fd5b5061377c8c828d01613662565b90975095505060608a0135935061379560808b016136ad565b92506137a360a08b016136d5565b91506137b160c08b016136d5565b90509295985092959850929598565b600080600080608085870312156137d657600080fd5b8435935060208501356137e8816136c7565b925060408501356137f8816136c7565b9396929550929360600135925050565b60006020828403121561381a57600080fd5b5035919050565b60005b8381101561383c578181015183820152602001613824565b8381111561327f5750506000910152565b60008151808452613865816020860160208601613821565b601f01601f19169290920160200192915050565b6020815260006134dd602083018461384d565b6000806000806000606086880312156138a457600080fd5b8535945060208601356001600160401b03808211156138c257600080fd5b6138ce89838a01613662565b909650945060408801359150808211156138e757600080fd5b506138f488828901613662565b969995985093965092949392505050565b6000806040838503121561391857600080fd5b50508035926020909101359150565b634e487b7160e01b600052604160045260246000fd5b601f8201601f191681016001600160401b038111828210171561396257613962613927565b6040525050565b60006001600160401b0382111561398257613982613927565b5060051b60200190565b600082601f83011261399d57600080fd5b813560206139aa82613969565b6040516139b7828261393d565b83815260059390931b85018201928281019150868411156139d757600080fd5b8286015b848110156139f257803583529183019183016139db565b509695505050505050565b600082601f830112613a0e57600080fd5b81356001600160401b03811115613a2757613a27613927565b604051613a3e601f8301601f19166020018261393d565b818152846020838601011115613a5357600080fd5b816020850160208301376000918101602001919091529392505050565b600080600080600060a08688031215613a8857600080fd5b8535613a938161357d565b94506020860135613aa38161357d565b935060408601356001600160401b0380821115613abf57600080fd5b613acb89838a0161398c565b94506060880135915080821115613ae157600080fd5b613aed89838a0161398c565b93506080880135915080821115613b0357600080fd5b50613b10888289016139fd565b9150509295509295909350565b600060208284031215613b2f57600080fd5b81356134dd8161357d565b60008060408385031215613b4d57600080fd5b823591506020830135613b5f8161357d565b809150509250929050565b600082601f830112613b7b57600080fd5b81356020613b8882613969565b604051613b95828261393d565b83815260059390931b8501820192828101915086841115613bb557600080fd5b8286015b848110156139f2578035613bcc8161357d565b8352918301918301613bb9565b60008060408385031215613bec57600080fd5b82356001600160401b0380821115613c0357600080fd5b613c0f86838701613b6a565b93506020850135915080821115613c2557600080fd5b50613c328582860161398c565b9150509250929050565b600081518084526020808501945080840160005b83811015613c6c57815187529582019590820190600101613c50565b509495945050505050565b6020815260006134dd6020830184613c3c565b60008060408385031215613c9d57600080fd5b8235613ca88161357d565b915060208301356001600160401b03811115613cc357600080fd5b613c32858286016139fd565b60008060408385031215613ce257600080fd5b8235613ced8161357d565b91506020830135613b5f816136c7565b600080600080600060a08688031215613d1557600080fd5b8535613d208161357d565b945060208601356001600160401b0380821115613d3c57600080fd5b613d4889838a01613b6a565b9550604088013594506060880135915080821115613d6557600080fd5b50613d728882890161398c565b9250506080860135613d83816136c7565b809150509295509295909350565b600080600080600060a08688031215613da957600080fd5b8535613db48161357d565b94506020860135613dc48161357d565b9350604086013592506060860135915060808601356001600160401b03811115613ded57600080fd5b613b10888289016139fd565b60008060408385031215613e0c57600080fd5b8235613e178161357d565b91506020830135613b5f8161357d565b6020808252818101527f4f776e61626c653a2063616c6c6572206973206e6f7420746865206f776e6572604082015260600190565b81838237637b69647d60e01b9101908152600401919050565b8183526000602080850194508260005b85811015613c6c578135613e988161357d565b6001600160a01b031687529582019590820190600101613e85565b60018060a01b0389168152871515602082015286151560408201528560608201528460808201528360a082015260e060c08201526000613ef760e083018486613e75565b9a9950505050505050505050565b600060208284031215613f1757600080fd5b81516134dd8161357d565b634e487b7160e01b600052603260045260246000fd5b803563ffffffff811681146136c257600080fd5b600060208284031215613f5e57600080fd5b6134dd82613f38565b60e0808252810189905260008a6101008301825b8c811015613fc2578235613f8e8161357d565b6001600160a01b03168252602063ffffffff613fab858301613f38565b169083015260409283019290910190600101613f7b565b508a60208501528381036040850152613fdc818a8c613e75565b92505050856060830152613ff9608083018664ffffffffff169052565b83151560a083015282151560c0830152613ef7565b600082601f83011261401f57600080fd5b8151602061402c82613969565b604051614039828261393d565b83815260059390931b850182019282810191508684111561405957600080fd5b8286015b848110156139f25780516140708161357d565b835291830191830161405d565b60008060008060008060c0878903121561409657600080fd5b865195506020870151945060408701516140af8161357d565b60608801519094506140c0816136c7565b60808801519093506140d1816136c7565b60a08801519092506001600160401b038111156140ed57600080fd5b6140f989828a0161400e565b9150509295509295509295565b600181811c9082168061411a57607f821691505b60208210810361413a57634e487b7160e01b600052602260045260246000fd5b50919050565b8035600381900b81146136c257600080fd5b60006020828403121561416457600080fd5b6134dd82614140565b634e487b7160e01b600052601160045260246000fd5b60008160030b637fffffff19810361419d5761419d61416d565b60000392915050565b60008160030b8360030b6000821282637fffffff038213811516156141cd576141cd61416d565b82637fffffff190382128116156141e6576141e661416d565b50019392505050565b600063ffffffff80831681851680830382111561420e5761420e61416d565b01949350505050565b600063ffffffff838116908316818110156142345761423461416d565b039392505050565b8183526000602080850194508260005b85811015613c6c5761425d82614140565b60030b8752958201959082019060010161424c565b606081526000614286606083018789613e75565b828103602084015261429981868861423c565b91505063ffffffff831660408301529695505050505050565b6040815260006142c6604083018688613e75565b82810360208401526142d981858761423c565b979650505050505050565b60008160001904831182151516156142fe576142fe61416d565b500290565b60008261432057634e487b7160e01b600052601260045260246000fd5b500490565b6020808252602c908201527f46756e6374696f6e206d7573742062652063616c6c6564207468726f7567682060408201526b19195b1959d85d1958d85b1b60a21b606082015260800190565b6020808252602c908201527f46756e6374696f6e206d7573742062652063616c6c6564207468726f7567682060408201526b6163746976652070726f787960a01b606082015260800190565b6000600182016143cf576143cf61416d565b5060010190565b60208082526029908201527f455243313135353a2063616c6c6572206973206e6f74206f776e6572206e6f7260408201526808185c1c1c9bdd995960ba1b606082015260800190565b60008251614431818460208701613821565b9190910192915050565b60008060008060008060c0878903121561445457600080fd5b8651955060208701516144668161357d565b6040880151606089015191965094506140c0816136c7565b600082198211156144915761449161416d565b500190565b6000602082840312156144a857600080fd5b5051919050565b6020808252602b908201527f496e697469616c697a61626c653a20636f6e7472616374206973206e6f74206960408201526a6e697469616c697a696e6760a81b606082015260800190565b60208082526025908201527f455243313135353a207472616e7366657220746f20746865207a65726f206164604082015264647265737360d81b606082015260800190565b6020808252602a908201527f455243313135353a20696e73756666696369656e742062616c616e636520666f60408201526939103a3930b739b332b960b11b606082015260800190565b6001600160a01b03868116825285166020820152604081018490526060810183905260a0608082018190526000906142d99083018461384d565b6000602082840312156145d557600080fd5b81516134dd816135be565b600060033d1115611ba95760046000803e5060005160e01c90565b600060443d10156146095790565b6040516003193d81016004833e81513d6001600160401b03816024840111818411171561463857505050505090565b82850191508151818111156146505750505050505090565b843d870101602082850101111561466a5750505050505090565b6146796020828601018761393d565b509095945050505050565b60208082526028908201527f455243313135353a204552433131353552656365697665722072656a656374656040820152676420746f6b656e7360c01b606082015260800190565b6040815260006146df6040830185613c3c565b828103602084015261349b8185613c3c565b6001600160a01b0386811682528516602082015260a06040820181905260009061471d90830186613c3c565b828103606084015261472f8186613c3c565b90508281036080840152614743818561384d565b9897505050505050505056fe360894a13ba1a3210667c828492db98dca3e2076cc3735a920a3ca505d382bbc416464726573733a206c6f772d6c6576656c2064656c65676174652063616c6c206661696c6564a2646970667358221220c7d7175fa96ea4b0a911f13a94d73508c025c9dc5ee9c3713d07db7f83f302a764736f6c634300080d0033",
  "linkReferences": {},
  "deployedLinkReferences": {}
}