{
  "_format": "hh-sol-artifact-1",
  "contractName": "SliceCore",
  "sourceName": "contracts/slice_v0.sol",
  "abi": [
    {
      "anonymous": false,
      "inputs": [
        {
          "indexed": false,
          "internalType": "address",
          "name": "previousAdmin",
          "type": "address"
        },
        {
          "indexed": false,
          "internalType": "address",
          "name": "newAdmin",
          "type": "address"
        }
      ],
      "name": "AdminChanged",
      "type": "event"
    },
    {
      "anonymous": false,
      "inputs": [
        {
          "indexed": true,
          "internalType": "address",
          "name": "account",
          "type": "address"
        },
        {
          "indexed": true,
          "internalType": "address",
          "name": "operator",
          "type": "address"
        },
        {
          "indexed": false,
          "internalType": "bool",
          "name": "approved",
          "type": "bool"
        }
      ],
      "name": "ApprovalForAll",
      "type": "event"
    },
    {
      "anonymous": false,
      "inputs": [
        {
          "indexed": true,
          "internalType": "address",
          "name": "beacon",
          "type": "address"
        }
      ],
      "name": "BeaconUpgraded",
      "type": "event"
    },
    {
      "anonymous": false,
      "inputs": [
        {
          "indexed": true,
          "internalType": "address",
          "name": "previousOwner",
          "type": "address"
        },
        {
          "indexed": true,
          "internalType": "address",
          "name": "newOwner",
          "type": "address"
        }
      ],
      "name": "OwnershipTransferred",
      "type": "event"
    },
    {
      "anonymous": false,
      "inputs": [
        {
          "indexed": false,
          "internalType": "address",
          "name": "account",
          "type": "address"
        }
      ],
      "name": "Paused",
      "type": "event"
    },
    {
      "anonymous": false,
      "inputs": [
        {
          "indexed": true,
          "internalType": "address",
          "name": "operator",
          "type": "address"
        },
        {
          "indexed": true,
          "internalType": "address",
          "name": "from",
          "type": "address"
        },
        {
          "indexed": true,
          "internalType": "address",
          "name": "to",
          "type": "address"
        },
        {
          "indexed": false,
          "internalType": "uint256[]",
          "name": "ids",
          "type": "uint256[]"
        },
        {
          "indexed": false,
          "internalType": "uint256[]",
          "name": "values",
          "type": "uint256[]"
        }
      ],
      "name": "TransferBatch",
      "type": "event"
    },
    {
      "anonymous": false,
      "inputs": [
        {
          "indexed": true,
          "internalType": "address",
          "name": "operator",
          "type": "address"
        },
        {
          "indexed": true,
          "internalType": "address",
          "name": "from",
          "type": "address"
        },
        {
          "indexed": true,
          "internalType": "address",
          "name": "to",
          "type": "address"
        },
        {
          "indexed": false,
          "internalType": "uint256",
          "name": "id",
          "type": "uint256"
        },
        {
          "indexed": false,
          "internalType": "uint256",
          "name": "value",
          "type": "uint256"
        }
      ],
      "name": "TransferSingle",
      "type": "event"
    },
    {
      "anonymous": false,
      "inputs": [
        {
          "indexed": false,
          "internalType": "string",
          "name": "value",
          "type": "string"
        },
        {
          "indexed": true,
          "internalType": "uint256",
          "name": "id",
          "type": "uint256"
        }
      ],
      "name": "URI",
      "type": "event"
    },
    {
      "anonymous": false,
      "inputs": [
        {
          "indexed": false,
          "internalType": "address",
          "name": "account",
          "type": "address"
        }
      ],
      "name": "Unpaused",
      "type": "event"
    },
    {
      "anonymous": false,
      "inputs": [
        {
          "indexed": true,
          "internalType": "address",
          "name": "implementation",
          "type": "address"
        }
      ],
      "name": "Upgraded",
      "type": "event"
    },
    {
      "inputs": [
        {
          "internalType": "address",
          "name": "categoryAddress_",
          "type": "address"
        }
      ],
      "name": "_addCategory",
      "outputs": [],
      "stateMutability": "nonpayable",
      "type": "function"
    },
    {
      "inputs": [
        {
          "internalType": "uint32",
          "name": "categoryIndex",
          "type": "uint32"
        },
        {
          "internalType": "address",
          "name": "newCategoryAddress",
          "type": "address"
        }
      ],
      "name": "_changeCategoryAddress",
      "outputs": [],
      "stateMutability": "nonpayable",
      "type": "function"
    },
    {
      "inputs": [
        {
          "internalType": "address",
          "name": "account",
          "type": "address"
        },
        {
          "internalType": "uint256",
          "name": "id",
          "type": "uint256"
        },
        {
          "internalType": "uint256",
          "name": "amount",
          "type": "uint256"
        },
        {
          "internalType": "address",
          "name": "slicerAddress",
          "type": "address"
        }
      ],
      "name": "_mintSlice",
      "outputs": [],
      "stateMutability": "nonpayable",
      "type": "function"
    },
    {
      "inputs": [
        {
          "internalType": "string",
          "name": "basePath_",
          "type": "string"
        }
      ],
      "name": "_setBasePath",
      "outputs": [],
      "stateMutability": "nonpayable",
      "type": "function"
    },
    {
      "inputs": [
        {
          "internalType": "uint8",
          "name": "newValue",
          "type": "uint8"
        }
      ],
      "name": "_setMaximumTransferBatch",
      "outputs": [],
      "stateMutability": "nonpayable",
      "type": "function"
    },
    {
      "inputs": [],
      "name": "_togglePause",
      "outputs": [],
      "stateMutability": "nonpayable",
      "type": "function"
    },
    {
      "inputs": [
        {
          "internalType": "address",
          "name": "account",
          "type": "address"
        },
        {
          "internalType": "uint256",
          "name": "id",
          "type": "uint256"
        }
      ],
      "name": "balanceOf",
      "outputs": [
        {
          "internalType": "uint256",
          "name": "",
          "type": "uint256"
        }
      ],
      "stateMutability": "view",
      "type": "function"
    },
    {
      "inputs": [
        {
          "internalType": "address[]",
          "name": "accounts",
          "type": "address[]"
        },
        {
          "internalType": "uint256[]",
          "name": "ids",
          "type": "uint256[]"
        }
      ],
      "name": "balanceOfBatch",
      "outputs": [
        {
          "internalType": "uint256[]",
          "name": "",
          "type": "uint256[]"
        }
      ],
      "stateMutability": "view",
      "type": "function"
    },
    {
      "inputs": [
        {
          "internalType": "uint32",
          "name": "categoryIndex",
          "type": "uint32"
        }
      ],
      "name": "categoryAddress",
      "outputs": [
        {
          "internalType": "address",
          "name": "",
          "type": "address"
        }
      ],
      "stateMutability": "view",
      "type": "function"
    },
    {
      "inputs": [
        {
          "internalType": "uint256",
          "name": "id",
          "type": "uint256"
        }
      ],
      "name": "exists",
      "outputs": [
        {
          "internalType": "bool",
          "name": "",
          "type": "bool"
        }
      ],
      "stateMutability": "view",
      "type": "function"
    },
    {
      "inputs": [],
      "name": "initialize",
      "outputs": [],
      "stateMutability": "nonpayable",
      "type": "function"
    },
    {
      "inputs": [
        {
          "internalType": "address",
          "name": "account",
          "type": "address"
        },
        {
          "internalType": "address",
          "name": "operator",
          "type": "address"
        }
      ],
      "name": "isApprovedForAll",
      "outputs": [
        {
          "internalType": "bool",
          "name": "",
          "type": "bool"
        }
      ],
      "stateMutability": "view",
      "type": "function"
    },
    {
      "inputs": [],
      "name": "owner",
      "outputs": [
        {
          "internalType": "address",
          "name": "",
          "type": "address"
        }
      ],
      "stateMutability": "view",
      "type": "function"
    },
    {
      "inputs": [],
      "name": "paused",
      "outputs": [
        {
          "internalType": "bool",
          "name": "",
          "type": "bool"
        }
      ],
      "stateMutability": "view",
      "type": "function"
    },
    {
      "inputs": [
        {
          "internalType": "address",
          "name": "from",
          "type": "address"
        },
        {
          "internalType": "address",
          "name": "to",
          "type": "address"
        },
        {
          "internalType": "uint256[]",
          "name": "ids",
          "type": "uint256[]"
        },
        {
          "internalType": "uint256[]",
          "name": "amounts",
          "type": "uint256[]"
        },
        {
          "internalType": "bytes",
          "name": "data",
          "type": "bytes"
        }
      ],
      "name": "safeBatchTransferFrom",
      "outputs": [],
      "stateMutability": "nonpayable",
      "type": "function"
    },
    {
      "inputs": [
        {
          "internalType": "address",
          "name": "from",
          "type": "address"
        },
        {
          "internalType": "address",
          "name": "to",
          "type": "address"
        },
        {
          "internalType": "uint256",
          "name": "id",
          "type": "uint256"
        },
        {
          "internalType": "uint256",
          "name": "amount",
          "type": "uint256"
        },
        {
          "internalType": "bytes",
          "name": "data",
          "type": "bytes"
        }
      ],
      "name": "safeTransferFrom",
      "outputs": [],
      "stateMutability": "nonpayable",
      "type": "function"
    },
    {
      "inputs": [
        {
          "internalType": "address",
          "name": "operator",
          "type": "address"
        },
        {
          "internalType": "bool",
          "name": "approved",
          "type": "bool"
        }
      ],
      "name": "setApprovalForAll",
      "outputs": [],
      "stateMutability": "nonpayable",
      "type": "function"
    },
    {
      "inputs": [
        {
          "internalType": "address",
          "name": "from",
          "type": "address"
        },
        {
          "internalType": "address[]",
          "name": "recipients",
          "type": "address[]"
        },
        {
          "internalType": "uint256",
          "name": "id",
          "type": "uint256"
        },
        {
          "internalType": "uint256[]",
          "name": "amounts",
          "type": "uint256[]"
        }
      ],
      "name": "slicerBatchTransfer",
      "outputs": [],
      "stateMutability": "nonpayable",
      "type": "function"
    },
    {
      "inputs": [
        {
          "internalType": "uint256",
          "name": "id",
          "type": "uint256"
        }
      ],
      "name": "slicers",
      "outputs": [
        {
          "internalType": "address",
          "name": "",
          "type": "address"
        }
      ],
      "stateMutability": "view",
      "type": "function"
    },
    {
      "inputs": [
        {
          "internalType": "bytes4",
          "name": "interfaceId",
          "type": "bytes4"
        }
      ],
      "name": "supportsInterface",
      "outputs": [
        {
          "internalType": "bool",
          "name": "",
          "type": "bool"
        }
      ],
      "stateMutability": "view",
      "type": "function"
    },
    {
      "inputs": [
        {
          "internalType": "uint256",
          "name": "id",
          "type": "uint256"
        }
      ],
      "name": "totalSupply",
      "outputs": [
        {
          "internalType": "uint256",
          "name": "",
          "type": "uint256"
        }
      ],
      "stateMutability": "view",
      "type": "function"
    },
    {
      "inputs": [
        {
          "internalType": "address",
          "name": "newOwner",
          "type": "address"
        }
      ],
      "name": "transferOwnership",
      "outputs": [],
      "stateMutability": "nonpayable",
      "type": "function"
    },
    {
      "inputs": [
        {
          "internalType": "address",
          "name": "newImplementation",
          "type": "address"
        }
      ],
      "name": "upgradeTo",
      "outputs": [],
      "stateMutability": "nonpayable",
      "type": "function"
    },
    {
      "inputs": [
        {
          "internalType": "address",
          "name": "newImplementation",
          "type": "address"
        },
        {
          "internalType": "bytes",
          "name": "data",
          "type": "bytes"
        }
      ],
      "name": "upgradeToAndCall",
      "outputs": [],
      "stateMutability": "payable",
      "type": "function"
    },
    {
      "inputs": [
        {
          "internalType": "uint256",
          "name": "",
          "type": "uint256"
        }
      ],
      "name": "uri",
      "outputs": [
        {
          "internalType": "string",
          "name": "",
          "type": "string"
        }
      ],
      "stateMutability": "view",
      "type": "function"
    }
  ],
  "bytecode": "0x608060405234801561001057600080fd5b50612e14806100206000396000f3fe6080604052600436106101655760003560e01c80634f1ef286116100d15780638da5cb5b1161008a578063e0ba52b911610064578063e0ba52b914610470578063e985e9c514610490578063f242432a146104d9578063f2fde38b146104f957600080fd5b80638da5cb5b14610404578063a22cb46514610422578063bd85b0391461044257600080fd5b80634f1ef286146103365780634f558e7914610349578063588d1be7146103795780635c975abb146103b657806362395aa9146103cf5780638129fc1c146103ef57600080fd5b80632eb2c2d6116101235780632eb2c2d614610274578063303cd08a146102945780633659cfe6146102b45780633ee70cb9146102d4578063405b4c36146102f45780634e1273f41461030957600080fd5b8062fdd58e1461016a57806301ffc9a71461019d578063059f424f146101cd57806308edd70c146101ef5780630e89341c1461020f578063175fa7ea1461023c575b600080fd5b34801561017657600080fd5b5061018a610185366004612675565b610519565b6040519081526020015b60405180910390f35b3480156101a957600080fd5b506101bd6101b836600461273f565b6105b2565b6040519015158152602001610194565b3480156101d957600080fd5b506101ed6101e8366004612779565b610604565b005b3480156101fb57600080fd5b506101ed61020a366004612410565b610683565b34801561021b57600080fd5b5061022f61022a3660046127ca565b610718565b6040516101949190612a39565b34801561024857600080fd5b5061025c6102573660046127ca565b6107ac565b6040516001600160a01b039091168152602001610194565b34801561028057600080fd5b506101ed61028f36600461245e565b610821565b3480156102a057600080fd5b506101ed6102af36600461269f565b6109db565b3480156102c057600080fd5b506101ed6102cf366004612410565b610a52565b3480156102e057600080fd5b506101ed6102ef3660046127fe565b610a76565b34801561030057600080fd5b506101ed610b4e565b34801561031557600080fd5b506103296103243660046126e5565b610bab565b6040516101949190612a01565b6101ed610344366004612627565b610cd5565b34801561035557600080fd5b506101bd6103643660046127ca565b60009081526101946020526040902054151590565b34801561038557600080fd5b5061025c6103943660046127e3565b63ffffffff16600090815261019760205260409020546001600160a01b031690565b3480156103c257600080fd5b5061012e5460ff166101bd565b3480156103db57600080fd5b506101ed6103ea36600461281a565b610cee565b3480156103fb57600080fd5b506101ed610d44565b34801561041057600080fd5b5060fc546001600160a01b031661025c565b34801561042e57600080fd5b506101ed61043d3660046125eb565b610e4a565b34801561044e57600080fd5b5061018a61045d3660046127ca565b6000908152610194602052604090205490565b34801561047c57600080fd5b506101ed61048b36600461256d565b610f21565b34801561049c57600080fd5b506101bd6104ab36600461242b565b6001600160a01b03918216600090815260666020908152604080832093909416825291909152205460ff1690565b3480156104e557600080fd5b506101ed6104f4366004612508565b611050565b34801561050557600080fd5b506101ed610514366004612410565b61117d565b60006001600160a01b03831661058a5760405162461bcd60e51b815260206004820152602b60248201527f455243313135353a2062616c616e636520717565727920666f7220746865207a60448201526a65726f206164647265737360a81b60648201526084015b60405180910390fd5b5060009081526065602090815260408083206001600160a01b03949094168352929052205490565b60006001600160e01b03198216636cdb3d1360e11b14806105e357506001600160e01b031982166303a24d0760e21b145b806105fe57506301ffc9a760e01b6001600160e01b03198316145b92915050565b60fc546001600160a01b0316331480610627575060fb546001600160a01b031633145b6106435760405162461bcd60e51b815260040161058190612b71565b8051610657906101939060208401906121e1565b506106808160405160200161066c91906128c0565b60405160208183030381529060405261126e565b50565b60fc546001600160a01b03163314806106a6575060fb546001600160a01b031633145b6106c25760405162461bcd60e51b815260040161058190612b71565b6106d161019680546001019055565b8061019760006106e16101965490565b63ffffffff168152602081019190915260400160002080546001600160a01b0319166001600160a01b039290921691909117905550565b60606067805461072790612c12565b80601f016020809104026020016040519081016040528092919081815260200182805461075390612c12565b80156107a05780601f10610775576101008083540402835291602001916107a0565b820191906000526020600020905b81548152906001019060200180831161078357829003601f168201915b50505050509050919050565b6000818152610194602052604081205415156001146108045760405162461bcd60e51b815260206004820152601460248201527314db1a58d95c88191bd95cdb89dd08195e1a5cdd60621b6044820152606401610581565b50600090815261019560205260409020546001600160a01b031690565b61019254835160ff909116101561087a5760405162461bcd60e51b815260206004820152601b60248201527f546f6f206d616e7920746f6b656e73207472616e7366657272656400000000006044820152606401610581565b6000835167ffffffffffffffff81111561089657610896612ce5565b6040519080825280602002602001820160405280156108bf578160200160208202803683370190505b50905060005b84518163ffffffff16101561095d576101956000868363ffffffff16815181106108f1576108f1612ccf565b6020026020010151815260200190815260200160002060009054906101000a90046001600160a01b0316828263ffffffff168151811061093357610933612ccf565b6001600160a01b03909216602092830291909101909101528061095581612c95565b9150506108c5565b5060fc54604051631b5cfaa360e31b81526001600160a01b039091169063dae7d518906109949089908990869089906004016128e8565b600060405180830381600087803b1580156109ae57600080fd5b505af11580156109c2573d6000803e3d6000fd5b505050506109d38686868686611281565b505050505050565b60fc546001600160a01b03163314610a055760405162461bcd60e51b815260040161058190612b71565b610a2084848460405180602001604052806000815250611311565b6000928352610195602052604090922080546001600160a01b0319166001600160a01b03909316929092179091555050565b610a5b81611347565b61068081604051806020016040528060008152506000611371565b60fc546001600160a01b0316331480610a99575060fb546001600160a01b031633145b610ab55760405162461bcd60e51b815260040161058190612b71565b63ffffffff821615801590610ad35750610196548263ffffffff1611155b610b175760405162461bcd60e51b81526020600482015260156024820152744e6f6e2d6578697374656e742063617465676f727960581b6044820152606401610581565b63ffffffff9190911660009081526101976020526040902080546001600160a01b0319166001600160a01b03909216919091179055565b60fc546001600160a01b0316331480610b71575060fb546001600160a01b031633145b610b8d5760405162461bcd60e51b815260040161058190612b71565b61012e5460ff1615610ba357610ba16114f2565b565b610ba1611587565b60608151835114610c105760405162461bcd60e51b815260206004820152602960248201527f455243313135353a206163636f756e747320616e6420696473206c656e677468604482015268040dad2e6dac2e8c6d60bb1b6064820152608401610581565b6000835167ffffffffffffffff811115610c2c57610c2c612ce5565b604051908082528060200260200182016040528015610c55578160200160208202803683370190505b50905060005b8451811015610ccd57610ca0858281518110610c7957610c79612ccf565b6020026020010151858381518110610c9357610c93612ccf565b6020026020010151610519565b828281518110610cb257610cb2612ccf565b6020908102919091010152610cc681612c7a565b9050610c5b565b509392505050565b610cde82611347565b610cea82826001611371565b5050565b60fc546001600160a01b0316331480610d11575060fb546001600160a01b031633145b610d2d5760405162461bcd60e51b815260040161058190612b71565b610192805460ff191660ff92909216919091179055565b600054610100900460ff1680610d5d575060005460ff16155b610d795760405162461bcd60e51b815260040161058190612ad9565b600054610100900460ff16158015610d9b576000805461ffff19166101011790555b610dd96040518060400160405280602081526020017f68747470733a2f2f736c6963652e736f2f6170692f736c696365722f7b69647d815250611604565b610de233611689565b610192805460ff1916601e17905560408051808201909152601c8082527f68747470733a2f2f736c6963652e736f2f6170692f736c696365722f000000006020909201918252610e3591610193916121e1565b508015610680576000805461ff001916905550565b336001600160a01b0383161415610eb55760405162461bcd60e51b815260206004820152602960248201527f455243313135353a2073657474696e6720617070726f76616c20737461747573604482015268103337b91039b2b63360b91b6064820152608401610581565b3360008181526066602090815260408083206001600160a01b03871680855290835292819020805460ff191686151590811790915590519081529192917f17307eab39ab6107e8899845ad3d59bd9653f200f220920489ca2b5937696c31910160405180910390a35050565b8051835114610f725760405162461bcd60e51b815260206004820152601760248201527f496e7075747320646f6e277420636f72726573706f6e640000000000000000006044820152606401610581565b61019254835160ff9091161015610fcb5760405162461bcd60e51b815260206004820152601b60248201527f546f6f206d616e7920746f6b656e73207472616e7366657272656400000000006044820152606401610581565b60005b83518163ffffffff1610156110495761103785858363ffffffff1681518110610ff957610ff9612ccf565b602002602001015185858563ffffffff168151811061101a5761101a612ccf565b602002602001015160405180602001604052806000815250611050565b8061104181612c95565b915050610fce565b5050505050565b6040805160018082528183019092526000916020808301908036833750506040805160018082528183019092529293506000929150602080830190803683375050506000868152610195602052604081205484519293506001600160a01b0316918491906110c0576110c0612ccf565b60200260200101906001600160a01b031690816001600160a01b03168152505083816000815181106110f4576110f4612ccf565b602090810291909101015260fc54604051631b5cfaa360e31b81526001600160a01b039091169063dae7d51890611135908a908a90879087906004016128e8565b600060405180830381600087803b15801561114f57600080fd5b505af1158015611163573d6000803e3d6000fd5b5050505061117487878787876116f1565b50505050505050565b60fc546001600160a01b03163314806111a0575060fb546001600160a01b031633145b6111bc5760405162461bcd60e51b815260040161058190612b71565b6001600160a01b0381166112125760405162461bcd60e51b815260206004820152601d60248201527f4e6577206f776e657220697320746865207a65726f20616464726573730000006044820152606401610581565b60fc546040516001600160a01b038084169216907f8be0079c531659141344cd1fd0a4f28419497f9722a3daafe3b4186f6b6457e090600090a360fc80546001600160a01b0319166001600160a01b0392909216919091179055565b8051610cea9060679060208401906121e1565b6001600160a01b03851633148061129d575061129d85336104ab565b6113045760405162461bcd60e51b815260206004820152603260248201527f455243313135353a207472616e736665722063616c6c6572206973206e6f74206044820152711bdddb995c881b9bdc88185c1c1c9bdd995960721b6064820152608401610581565b6110498585858585611778565b61131d8484848461195e565b600083815261019460205260408120805484929061133c908490612bca565b909155505050505050565b60fc546001600160a01b031633146106805760405162461bcd60e51b815260040161058190612b71565b60006113a47f360894a13ba1a3210667c828492db98dca3e2076cc3735a920a3ca505d382bbc546001600160a01b031690565b90506113af84611a70565b6000835111806113bc5750815b156113cd576113cb8484611b15565b505b7f4910fdfa16fed3260ed0e7147f7cc6da11a60208b5b9406d12a635614ffd9143805460ff1661104957805460ff191660011781556040516001600160a01b038316602482015261144c90869060440160408051601f198184030181529190526020810180516001600160e01b0316631b2ce7f360e11b179052611b15565b50805460ff191681557f360894a13ba1a3210667c828492db98dca3e2076cc3735a920a3ca505d382bbc546001600160a01b038381169116146114e95760405162461bcd60e51b815260206004820152602f60248201527f45524331393637557067726164653a207570677261646520627265616b73206660448201526e75727468657220757067726164657360881b6064820152608401610581565b61104985611c00565b61012e5460ff1661153c5760405162461bcd60e51b815260206004820152601460248201527314185d5cd8589b194e881b9bdd081c185d5cd95960621b6044820152606401610581565b61012e805460ff191690557f5db9ee0a495bf2e6ff9c91a7834c1ba4fdd244a5e8aa4e537bd38aeae4b073aa335b6040516001600160a01b03909116815260200160405180910390a1565b61012e5460ff16156115ce5760405162461bcd60e51b815260206004820152601060248201526f14185d5cd8589b194e881c185d5cd95960821b6044820152606401610581565b61012e805460ff191660011790557f62e78cea01bee320cd4e420270b5ea74000d11b0c9f74754ebdbfc544b05a25861156a3390565b600054610100900460ff168061161d575060005460ff16155b6116395760405162461bcd60e51b815260040161058190612ad9565b600054610100900460ff1615801561165b576000805461ffff19166101011790555b611663611c40565b61166b611c40565b61167482611cab565b8015610cea576000805461ff00191690555050565b600054610100900460ff16806116a2575060005460ff16155b6116be5760405162461bcd60e51b815260040161058190612ad9565b600054610100900460ff161580156116e0576000805461ffff19166101011790555b6116e8611c40565b61167482611d0b565b6001600160a01b03851633148061170d575061170d85336104ab565b61176b5760405162461bcd60e51b815260206004820152602960248201527f455243313135353a2063616c6c6572206973206e6f74206f776e6572206e6f7260448201526808185c1c1c9bdd995960ba1b6064820152608401610581565b6110498585858585611da0565b81518351146117da5760405162461bcd60e51b815260206004820152602860248201527f455243313135353a2069647320616e6420616d6f756e7473206c656e677468206044820152670dad2e6dac2e8c6d60c31b6064820152608401610581565b6001600160a01b0384166118005760405162461bcd60e51b815260040161058190612a94565b3361180f818787878787611eb8565b60005b84518110156118f857600085828151811061182f5761182f612ccf565b60200260200101519050600085838151811061184d5761184d612ccf565b60209081029190910181015160008481526065835260408082206001600160a01b038e16835290935291909120549091508181101561189e5760405162461bcd60e51b815260040161058190612b27565b60008381526065602090815260408083206001600160a01b038e8116855292528083208585039055908b168252812080548492906118dd908490612bca565b92505081905550505050806118f190612c7a565b9050611812565b50846001600160a01b0316866001600160a01b0316826001600160a01b03167f4a39dc06d4c0dbc64b70af90fd698a233a518aa5d07e595d983b8c0526c8f7fb8787604051611948929190612a14565b60405180910390a46109d3818787878787611f21565b6001600160a01b0384166119be5760405162461bcd60e51b815260206004820152602160248201527f455243313135353a206d696e7420746f20746865207a65726f206164647265736044820152607360f81b6064820152608401610581565b336119de816000876119cf8861208c565b6119d88861208c565b87611eb8565b60008481526065602090815260408083206001600160a01b038916845290915281208054859290611a10908490612bca565b909155505060408051858152602081018590526001600160a01b0380881692600092918516917fc3d58168c5ae7397731d063d5bbf3d657854427343f4c083240f7aacaa2d0f62910160405180910390a4611049816000878787876120d7565b803b611ad45760405162461bcd60e51b815260206004820152602d60248201527f455243313936373a206e657720696d706c656d656e746174696f6e206973206e60448201526c1bdd08184818dbdb9d1c9858dd609a1b6064820152608401610581565b7f360894a13ba1a3210667c828492db98dca3e2076cc3735a920a3ca505d382bbc80546001600160a01b0319166001600160a01b0392909216919091179055565b6060823b611b745760405162461bcd60e51b815260206004820152602660248201527f416464726573733a2064656c65676174652063616c6c20746f206e6f6e2d636f6044820152651b9d1c9858dd60d21b6064820152608401610581565b600080846001600160a01b031684604051611b8f91906128a4565b600060405180830381855af49150503d8060008114611bca576040519150601f19603f3d011682016040523d82523d6000602084013e611bcf565b606091505b5091509150611bf78282604051806060016040528060278152602001612db8602791396121a1565b95945050505050565b611c0981611a70565b6040516001600160a01b038216907fbc7cd75a20ee27fd9adebab32041f755214dbc6bffa90cc0225b39da2e5c2d3b90600090a250565b600054610100900460ff1680611c59575060005460ff16155b611c755760405162461bcd60e51b815260040161058190612ad9565b600054610100900460ff16158015611c97576000805461ffff19166101011790555b8015610680576000805461ff001916905550565b600054610100900460ff1680611cc4575060005460ff16155b611ce05760405162461bcd60e51b815260040161058190612ad9565b600054610100900460ff16158015611d02576000805461ffff19166101011790555b6116748261126e565b600054610100900460ff1680611d24575060005460ff16155b611d405760405162461bcd60e51b815260040161058190612ad9565b600054610100900460ff16158015611d62576000805461ffff19166101011790555b60fb80546001600160a01b0384166001600160a01b03199182161790915560fc8054909116331790558015610cea576000805461ff00191690555050565b6001600160a01b038416611dc65760405162461bcd60e51b815260040161058190612a94565b33611dd68187876119cf8861208c565b60008481526065602090815260408083206001600160a01b038a16845290915290205483811015611e195760405162461bcd60e51b815260040161058190612b27565b60008581526065602090815260408083206001600160a01b038b8116855292528083208785039055908816825281208054869290611e58908490612bca565b909155505060408051868152602081018690526001600160a01b03808916928a821692918616917fc3d58168c5ae7397731d063d5bbf3d657854427343f4c083240f7aacaa2d0f62910160405180910390a46111748288888888886120d7565b61012e5460ff16156109d35760405162461bcd60e51b815260206004820152602c60248201527f455243313135355061757361626c653a20746f6b656e207472616e736665722060448201526b1dda1a5b19481c185d5cd95960a21b6064820152608401610581565b6001600160a01b0384163b156109d35760405163bc197c8160e01b81526001600160a01b0385169063bc197c8190611f65908990899088908890889060040161295e565b602060405180830381600087803b158015611f7f57600080fd5b505af1925050508015611faf575060408051601f3d908101601f19168201909252611fac9181019061275c565b60015b61205c57611fbb612cfb565b806308c379a01415611ff55750611fd0612d17565b80611fdb5750611ff7565b8060405162461bcd60e51b81526004016105819190612a39565b505b60405162461bcd60e51b815260206004820152603460248201527f455243313135353a207472616e7366657220746f206e6f6e20455243313135356044820152732932b1b2b4bb32b91034b6b83632b6b2b73a32b960611b6064820152608401610581565b6001600160e01b0319811663bc197c8160e01b146111745760405162461bcd60e51b815260040161058190612a4c565b604080516001808252818301909252606091600091906020808301908036833701905050905082816000815181106120c6576120c6612ccf565b602090810291909101015292915050565b6001600160a01b0384163b156109d35760405163f23a6e6160e01b81526001600160a01b0385169063f23a6e619061211b90899089908890889088906004016129bc565b602060405180830381600087803b15801561213557600080fd5b505af1925050508015612165575060408051601f3d908101601f191682019092526121629181019061275c565b60015b61217157611fbb612cfb565b6001600160e01b0319811663f23a6e6160e01b146111745760405162461bcd60e51b815260040161058190612a4c565b606083156121b05750816121da565b8251156121c05782518084602001fd5b8160405162461bcd60e51b81526004016105819190612a39565b9392505050565b8280546121ed90612c12565b90600052602060002090601f01602090048101928261220f5760008555612255565b82601f1061222857805160ff1916838001178555612255565b82800160010185558215612255579182015b8281111561225557825182559160200191906001019061223a565b50612261929150612265565b5090565b5b808211156122615760008155600101612266565b600067ffffffffffffffff83111561229457612294612ce5565b6040516122ab601f8501601f191660200182612c4d565b8091508381528484840111156122c057600080fd5b83836020830137600060208583010152509392505050565b80356001600160a01b03811681146122ef57600080fd5b919050565b600082601f83011261230557600080fd5b8135602061231282612ba6565b60405161231f8282612c4d565b8381528281019150858301600585901b8701840188101561233f57600080fd5b60005b8581101561236557612353826122d8565b84529284019290840190600101612342565b5090979650505050505050565b600082601f83011261238357600080fd5b8135602061239082612ba6565b60405161239d8282612c4d565b8381528281019150858301600585901b870184018810156123bd57600080fd5b60005b85811015612365578135845292840192908401906001016123c0565b600082601f8301126123ed57600080fd5b6121da8383356020850161227a565b803563ffffffff811681146122ef57600080fd5b60006020828403121561242257600080fd5b6121da826122d8565b6000806040838503121561243e57600080fd5b612447836122d8565b9150612455602084016122d8565b90509250929050565b600080600080600060a0868803121561247657600080fd5b61247f866122d8565b945061248d602087016122d8565b9350604086013567ffffffffffffffff808211156124aa57600080fd5b6124b689838a01612372565b945060608801359150808211156124cc57600080fd5b6124d889838a01612372565b935060808801359150808211156124ee57600080fd5b506124fb888289016123dc565b9150509295509295909350565b600080600080600060a0868803121561252057600080fd5b612529866122d8565b9450612537602087016122d8565b93506040860135925060608601359150608086013567ffffffffffffffff81111561256157600080fd5b6124fb888289016123dc565b6000806000806080858703121561258357600080fd5b61258c856122d8565b9350602085013567ffffffffffffffff808211156125a957600080fd5b6125b5888389016122f4565b94506040870135935060608701359150808211156125d257600080fd5b506125df87828801612372565b91505092959194509250565b600080604083850312156125fe57600080fd5b612607836122d8565b91506020830135801515811461261c57600080fd5b809150509250929050565b6000806040838503121561263a57600080fd5b612643836122d8565b9150602083013567ffffffffffffffff81111561265f57600080fd5b61266b858286016123dc565b9150509250929050565b6000806040838503121561268857600080fd5b612691836122d8565b946020939093013593505050565b600080600080608085870312156126b557600080fd5b6126be856122d8565b935060208501359250604085013591506126da606086016122d8565b905092959194509250565b600080604083850312156126f857600080fd5b823567ffffffffffffffff8082111561271057600080fd5b61271c868387016122f4565b9350602085013591508082111561273257600080fd5b5061266b85828601612372565b60006020828403121561275157600080fd5b81356121da81612da1565b60006020828403121561276e57600080fd5b81516121da81612da1565b60006020828403121561278b57600080fd5b813567ffffffffffffffff8111156127a257600080fd5b8201601f810184136127b357600080fd5b6127c28482356020840161227a565b949350505050565b6000602082840312156127dc57600080fd5b5035919050565b6000602082840312156127f557600080fd5b6121da826123fc565b6000806040838503121561281157600080fd5b612447836123fc565b60006020828403121561282c57600080fd5b813560ff811681146121da57600080fd5b600081518084526020808501945080840160005b8381101561286d57815187529582019590820190600101612851565b509495945050505050565b60008151808452612890816020860160208601612be2565b601f01601f19169290920160200192915050565b600082516128b6818460208701612be2565b9190910192915050565b600082516128d2818460208701612be2565b637b69647d60e01b920191825250600401919050565b60006080820160018060a01b0380881684526020818816818601526080604086015282875180855260a087019150828901945060005b8181101561293c57855185168352948301949183019160010161291e565b50508581036060870152612950818861283d565b9a9950505050505050505050565b6001600160a01b0386811682528516602082015260a06040820181905260009061298a9083018661283d565b828103606084015261299c818661283d565b905082810360808401526129b08185612878565b98975050505050505050565b6001600160a01b03868116825285166020820152604081018490526060810183905260a0608082018190526000906129f690830184612878565b979650505050505050565b6020815260006121da602083018461283d565b604081526000612a27604083018561283d565b8281036020840152611bf7818561283d565b6020815260006121da6020830184612878565b60208082526028908201527f455243313135353a204552433131353552656365697665722072656a656374656040820152676420746f6b656e7360c01b606082015260800190565b60208082526025908201527f455243313135353a207472616e7366657220746f20746865207a65726f206164604082015264647265737360d81b606082015260800190565b6020808252602e908201527f496e697469616c697a61626c653a20636f6e747261637420697320616c72656160408201526d191e481a5b9a5d1a585b1a5e995960921b606082015260800190565b6020808252602a908201527f455243313135353a20696e73756666696369656e742062616c616e636520666f60408201526939103a3930b739b332b960b11b606082015260800190565b6020808252818101527f4f776e61626c653a2063616c6c6572206973206e6f7420746865206f776e6572604082015260600190565b600067ffffffffffffffff821115612bc057612bc0612ce5565b5060051b60200190565b60008219821115612bdd57612bdd612cb9565b500190565b60005b83811015612bfd578181015183820152602001612be5565b83811115612c0c576000848401525b50505050565b600181811c90821680612c2657607f821691505b60208210811415612c4757634e487b7160e01b600052602260045260246000fd5b50919050565b601f8201601f1916810167ffffffffffffffff81118282101715612c7357612c73612ce5565b6040525050565b6000600019821415612c8e57612c8e612cb9565b5060010190565b600063ffffffff80831681811415612caf57612caf612cb9565b6001019392505050565b634e487b7160e01b600052601160045260246000fd5b634e487b7160e01b600052603260045260246000fd5b634e487b7160e01b600052604160045260246000fd5b600060033d1115612d145760046000803e5060005160e01c5b90565b600060443d1015612d255790565b6040516003193d81016004833e81513d67ffffffffffffffff8160248401118184111715612d5557505050505090565b8285019150815181811115612d6d5750505050505090565b843d8701016020828501011115612d875750505050505090565b612d9660208286010187612c4d565b509095945050505050565b6001600160e01b03198116811461068057600080fdfe416464726573733a206c6f772d6c6576656c2064656c65676174652063616c6c206661696c6564a2646970667358221220b2c6f984f7258298c5bcbd78a79335490327aebe98d4cc71749a4c5ec850930b64736f6c63430008070033",
  "linkReferences": {},
  "deployedLinkReferences": {}
}