{
  "_format": "hh-sol-artifact-1",
  "contractName": "Slicer",
  "sourceName": "contracts/slice_v0.sol",
  "abi": [
    {
      "anonymous": false,
      "inputs": [
        {
          "indexed": true,
          "internalType": "uint256",
          "name": "slicerId",
          "type": "uint256"
        }
      ],
      "name": "AddedChildrenSlicer",
      "type": "event"
    },
    {
      "anonymous": false,
      "inputs": [
        {
          "indexed": false,
          "internalType": "address",
          "name": "account",
          "type": "address"
        }
      ],
      "name": "Paused",
      "type": "event"
    },
    {
      "anonymous": false,
      "inputs": [
        {
          "indexed": true,
          "internalType": "address",
          "name": "from",
          "type": "address"
        },
        {
          "indexed": false,
          "internalType": "uint256",
          "name": "amount",
          "type": "uint256"
        }
      ],
      "name": "PaymentReceived",
      "type": "event"
    },
    {
      "anonymous": false,
      "inputs": [
        {
          "indexed": true,
          "internalType": "uint32",
          "name": "categoryIndex",
          "type": "uint32"
        },
        {
          "indexed": false,
          "internalType": "uint256",
          "name": "price",
          "type": "uint256"
        },
        {
          "indexed": false,
          "internalType": "bool",
          "name": "isUSD",
          "type": "bool"
        },
        {
          "indexed": false,
          "internalType": "bool",
          "name": "isMultiple",
          "type": "bool"
        },
        {
          "indexed": false,
          "internalType": "bool",
          "name": "isInfinite",
          "type": "bool"
        },
        {
          "indexed": false,
          "internalType": "uint32",
          "name": "availableUnits",
          "type": "uint32"
        },
        {
          "indexed": true,
          "internalType": "address",
          "name": "creator",
          "type": "address"
        },
        {
          "indexed": false,
          "internalType": "bytes",
          "name": "data",
          "type": "bytes"
        }
      ],
      "name": "ProductAdded",
      "type": "event"
    },
    {
      "anonymous": false,
      "inputs": [
        {
          "indexed": true,
          "internalType": "uint32",
          "name": "productId",
          "type": "uint32"
        },
        {
          "indexed": false,
          "internalType": "uint32",
          "name": "categoryIndex",
          "type": "uint32"
        }
      ],
      "name": "ProductCategoryChanged",
      "type": "event"
    },
    {
      "anonymous": false,
      "inputs": [
        {
          "indexed": true,
          "internalType": "uint32",
          "name": "productId",
          "type": "uint32"
        },
        {
          "indexed": false,
          "internalType": "uint256",
          "name": "productPrice",
          "type": "uint256"
        },
        {
          "indexed": false,
          "internalType": "bool",
          "name": "isUSD",
          "type": "bool"
        }
      ],
      "name": "ProductCurrencyChanged",
      "type": "event"
    },
    {
      "anonymous": false,
      "inputs": [
        {
          "indexed": true,
          "internalType": "uint32",
          "name": "productId",
          "type": "uint32"
        },
        {
          "indexed": false,
          "internalType": "bool",
          "name": "isInfinite",
          "type": "bool"
        },
        {
          "indexed": false,
          "internalType": "uint32",
          "name": "units",
          "type": "uint32"
        },
        {
          "indexed": false,
          "internalType": "uint256",
          "name": "productPrice",
          "type": "uint256"
        }
      ],
      "name": "ProductInfoChanged",
      "type": "event"
    },
    {
      "anonymous": false,
      "inputs": [
        {
          "indexed": true,
          "internalType": "address",
          "name": "from",
          "type": "address"
        },
        {
          "indexed": true,
          "internalType": "uint32",
          "name": "productId",
          "type": "uint32"
        },
        {
          "indexed": false,
          "internalType": "uint16",
          "name": "quantity",
          "type": "uint16"
        },
        {
          "indexed": false,
          "internalType": "uint256",
          "name": "productPrice",
          "type": "uint256"
        }
      ],
      "name": "ProductPaid",
      "type": "event"
    },
    {
      "anonymous": false,
      "inputs": [
        {
          "indexed": true,
          "internalType": "uint32",
          "name": "productId",
          "type": "uint32"
        }
      ],
      "name": "ProductRemoved",
      "type": "event"
    },
    {
      "anonymous": false,
      "inputs": [
        {
          "indexed": false,
          "internalType": "uint32[]",
          "name": "serviceIds",
          "type": "uint32[]"
        },
        {
          "indexed": false,
          "internalType": "uint16[]",
          "name": "quantities",
          "type": "uint16[]"
        },
        {
          "indexed": false,
          "internalType": "uint256",
          "name": "amount",
          "type": "uint256"
        }
      ],
      "name": "SLCPaid",
      "type": "event"
    },
    {
      "anonymous": false,
      "inputs": [
        {
          "indexed": true,
          "internalType": "address",
          "name": "payee",
          "type": "address"
        },
        {
          "indexed": false,
          "internalType": "uint256",
          "name": "released",
          "type": "uint256"
        }
      ],
      "name": "TriggeredRelease",
      "type": "event"
    },
    {
      "anonymous": false,
      "inputs": [
        {
          "indexed": false,
          "internalType": "address",
          "name": "account",
          "type": "address"
        }
      ],
      "name": "Unpaused",
      "type": "event"
    },
    {
      "inputs": [
        {
          "internalType": "uint256",
          "name": "id",
          "type": "uint256"
        }
      ],
      "name": "_addChildrenSlicer",
      "outputs": [],
      "stateMutability": "nonpayable",
      "type": "function"
    },
    {
      "inputs": [
        {
          "internalType": "address[]",
          "name": "accounts",
          "type": "address[]"
        },
        {
          "internalType": "uint256[]",
          "name": "shares_",
          "type": "uint256[]"
        }
      ],
      "name": "_addPayees",
      "outputs": [],
      "stateMutability": "nonpayable",
      "type": "function"
    },
    {
      "inputs": [
        {
          "internalType": "uint256",
          "name": "tokenId_",
          "type": "uint256"
        },
        {
          "internalType": "address",
          "name": "slicerCreator_",
          "type": "address"
        },
        {
          "internalType": "uint256",
          "name": "minimumShares_",
          "type": "uint256"
        }
      ],
      "name": "_initialize",
      "outputs": [],
      "stateMutability": "nonpayable",
      "type": "function"
    },
    {
      "inputs": [
        {
          "internalType": "address",
          "name": "account",
          "type": "address"
        },
        {
          "internalType": "uint32",
          "name": "productId",
          "type": "uint32"
        },
        {
          "internalType": "uint16",
          "name": "quantity",
          "type": "uint16"
        }
      ],
      "name": "_payProduct",
      "outputs": [],
      "stateMutability": "payable",
      "type": "function"
    },
    {
      "inputs": [
        {
          "internalType": "address",
          "name": "accountFrom",
          "type": "address"
        },
        {
          "internalType": "address",
          "name": "accountTo",
          "type": "address"
        },
        {
          "internalType": "uint256",
          "name": "transferredShares",
          "type": "uint256"
        }
      ],
      "name": "_updatePayees",
      "outputs": [],
      "stateMutability": "nonpayable",
      "type": "function"
    },
    {
      "inputs": [
        {
          "internalType": "uint32",
          "name": "categoryIndex",
          "type": "uint32"
        },
        {
          "internalType": "uint256",
          "name": "price",
          "type": "uint256"
        },
        {
          "internalType": "bool",
          "name": "isUSD",
          "type": "bool"
        },
        {
          "internalType": "bool",
          "name": "isMultiple",
          "type": "bool"
        },
        {
          "internalType": "bool",
          "name": "isInfinite",
          "type": "bool"
        },
        {
          "internalType": "uint32",
          "name": "units",
          "type": "uint32"
        },
        {
          "internalType": "bytes",
          "name": "data",
          "type": "bytes"
        },
        {
          "internalType": "bytes",
          "name": "purchaseData",
          "type": "bytes"
        }
      ],
      "name": "addProduct",
      "outputs": [],
      "stateMutability": "nonpayable",
      "type": "function"
    },
    {
      "inputs": [
        {
          "internalType": "address",
          "name": "payee",
          "type": "address"
        }
      ],
      "name": "isPayeeAllowed",
      "outputs": [
        {
          "internalType": "bool",
          "name": "",
          "type": "bool"
        }
      ],
      "stateMutability": "view",
      "type": "function"
    },
    {
      "inputs": [
        {
          "internalType": "address",
          "name": "",
          "type": "address"
        },
        {
          "internalType": "address",
          "name": "",
          "type": "address"
        },
        {
          "internalType": "uint256[]",
          "name": "ids",
          "type": "uint256[]"
        },
        {
          "internalType": "uint256[]",
          "name": "",
          "type": "uint256[]"
        },
        {
          "internalType": "bytes",
          "name": "",
          "type": "bytes"
        }
      ],
      "name": "onERC1155BatchReceived",
      "outputs": [
        {
          "internalType": "bytes4",
          "name": "",
          "type": "bytes4"
        }
      ],
      "stateMutability": "nonpayable",
      "type": "function"
    },
    {
      "inputs": [
        {
          "internalType": "address",
          "name": "",
          "type": "address"
        },
        {
          "internalType": "address",
          "name": "",
          "type": "address"
        },
        {
          "internalType": "uint256",
          "name": "id",
          "type": "uint256"
        },
        {
          "internalType": "uint256",
          "name": "",
          "type": "uint256"
        },
        {
          "internalType": "bytes",
          "name": "",
          "type": "bytes"
        }
      ],
      "name": "onERC1155Received",
      "outputs": [
        {
          "internalType": "bytes4",
          "name": "",
          "type": "bytes4"
        }
      ],
      "stateMutability": "nonpayable",
      "type": "function"
    },
    {
      "inputs": [],
      "name": "paused",
      "outputs": [
        {
          "internalType": "bool",
          "name": "",
          "type": "bool"
        }
      ],
      "stateMutability": "view",
      "type": "function"
    },
    {
      "inputs": [
        {
          "internalType": "uint32[]",
          "name": "serviceIds",
          "type": "uint32[]"
        },
        {
          "internalType": "uint16[]",
          "name": "quantities",
          "type": "uint16[]"
        }
      ],
      "name": "paySLC",
      "outputs": [],
      "stateMutability": "nonpayable",
      "type": "function"
    },
    {
      "inputs": [
        {
          "internalType": "uint32",
          "name": "productId",
          "type": "uint32"
        }
      ],
      "name": "productPrice",
      "outputs": [
        {
          "internalType": "uint256",
          "name": "price",
          "type": "uint256"
        },
        {
          "internalType": "bool",
          "name": "isUSD",
          "type": "bool"
        }
      ],
      "stateMutability": "view",
      "type": "function"
    },
    {
      "inputs": [
        {
          "internalType": "address payable",
          "name": "account",
          "type": "address"
        }
      ],
      "name": "release",
      "outputs": [
        {
          "internalType": "uint256",
          "name": "",
          "type": "uint256"
        }
      ],
      "stateMutability": "nonpayable",
      "type": "function"
    },
    {
      "inputs": [
        {
          "internalType": "address",
          "name": "account",
          "type": "address"
        }
      ],
      "name": "released",
      "outputs": [
        {
          "internalType": "uint256",
          "name": "",
          "type": "uint256"
        }
      ],
      "stateMutability": "view",
      "type": "function"
    },
    {
      "inputs": [
        {
          "internalType": "uint32",
          "name": "productId",
          "type": "uint32"
        }
      ],
      "name": "removeProduct",
      "outputs": [],
      "stateMutability": "nonpayable",
      "type": "function"
    },
    {
      "inputs": [
        {
          "internalType": "uint32",
          "name": "productId",
          "type": "uint32"
        },
        {
          "internalType": "uint32",
          "name": "categoryIndex",
          "type": "uint32"
        }
      ],
      "name": "setProductCategory",
      "outputs": [],
      "stateMutability": "nonpayable",
      "type": "function"
    },
    {
      "inputs": [
        {
          "internalType": "uint32",
          "name": "productId",
          "type": "uint32"
        },
        {
          "internalType": "bool",
          "name": "isInfinite",
          "type": "bool"
        },
        {
          "internalType": "uint32",
          "name": "newUnits",
          "type": "uint32"
        },
        {
          "internalType": "uint256",
          "name": "newPrice",
          "type": "uint256"
        }
      ],
      "name": "setProductInfo",
      "outputs": [],
      "stateMutability": "nonpayable",
      "type": "function"
    },
    {
      "inputs": [],
      "name": "slicerInfo",
      "outputs": [
        {
          "internalType": "uint256",
          "name": "",
          "type": "uint256"
        },
        {
          "internalType": "uint8",
          "name": "version",
          "type": "uint8"
        },
        {
          "internalType": "address",
          "name": "creator",
          "type": "address"
        },
        {
          "internalType": "uint256",
          "name": "",
          "type": "uint256"
        }
      ],
      "stateMutability": "view",
      "type": "function"
    },
    {
      "inputs": [
        {
          "internalType": "bytes4",
          "name": "interfaceId",
          "type": "bytes4"
        }
      ],
      "name": "supportsInterface",
      "outputs": [
        {
          "internalType": "bool",
          "name": "",
          "type": "bool"
        }
      ],
      "stateMutability": "view",
      "type": "function"
    },
    {
      "inputs": [
        {
          "internalType": "uint32",
          "name": "productId",
          "type": "uint32"
        },
        {
          "internalType": "bool",
          "name": "isUSD",
          "type": "bool"
        }
      ],
      "name": "toggleUSDPrice",
      "outputs": [],
      "stateMutability": "nonpayable",
      "type": "function"
    },
    {
      "inputs": [],
      "name": "totalReceived",
      "outputs": [
        {
          "internalType": "uint256",
          "name": "",
          "type": "uint256"
        }
      ],
      "stateMutability": "view",
      "type": "function"
    },
    {
      "inputs": [
        {
          "internalType": "address",
          "name": "account",
          "type": "address"
        }
      ],
      "name": "unreleased",
      "outputs": [
        {
          "internalType": "uint256",
          "name": "",
          "type": "uint256"
        }
      ],
      "stateMutability": "view",
      "type": "function"
    },
    {
      "inputs": [
        {
          "internalType": "uint32",
          "name": "productId",
          "type": "uint32"
        }
      ],
      "name": "validatePurchase",
      "outputs": [
        {
          "internalType": "uint256",
          "name": "purchases",
          "type": "uint256"
        },
        {
          "internalType": "bytes",
          "name": "purchaseData",
          "type": "bytes"
        }
      ],
      "stateMutability": "view",
      "type": "function"
    },
    {
      "stateMutability": "payable",
      "type": "receive"
    }
  ],
  "bytecode": "0x608060405234801561001057600080fd5b506001805460ff19168155600255612dfc8061002d6000396000f3fe6080604052600436106101445760003560e01c8063800ddcaa116100b6578063bbf2b4881161006f578063bbf2b4881461045b578063bc197c811461047b578063bfe5d835146104b4578063dd102d5e146104e9578063f23a6e6114610509578063fd5e12e31461052957600080fd5b8063800ddcaa1461036a578063957e07b61461038a5780639852595c146103cd578063a3c2c46214610406578063b1b473571461041b578063b78ee7671461043b57600080fd5b8063344603231161010857806334460323146102a457806344eecfd0146102d257806345c47233146102f257806354c2a04c1461031257806359bac56c146103325780635c975abb1461035257600080fd5b806301ffc9a7146101ec5780630c170ffd1461022157806319165587146102435780632a67293d1461027157806330e552481461029157600080fd5b366101e75760015460ff16156101755760405162461bcd60e51b815260040161016c90612ae7565b60405180910390fd5b60006103e8610185601934612c8b565b61018f9190612c69565b90506101af73f39fd6e51aad88f6f4ce6ab8827279cfffb9226682610549565b60405134815233907f6ef95f06320e7a25a04a175ca677b7052bdd97131872c2192525a629f51be7709060200160405180910390a250005b600080fd5b3480156101f857600080fd5b5061020c61020736600461279b565b610667565b60405190151581526020015b60405180910390f35b34801561022d57600080fd5b5061024161023c36600461281e565b61069e565b005b34801561024f57600080fd5b5061026361025e366004612421565b61081d565b604051908152602001610218565b34801561027d57600080fd5b5061026361028c366004612421565b6109f1565b61024161029f3660046125b3565b610a80565b3480156102b057600080fd5b506102c46102bf36600461281e565b610d6b565b604051610218929190612bb3565b3480156102de57600080fd5b506102416102ed3660046127de565b610e9d565b3480156102fe57600080fd5b5061024161030d3660046128bd565b610f2d565b34801561031e57600080fd5b5061024161032d3660046127f7565b611115565b34801561033e57600080fd5b5061020c61034d366004612421565b611173565b34801561035e57600080fd5b5060015460ff1661020c565b34801561037657600080fd5b50610241610385366004612984565b61133c565b34801561039657600080fd5b5060035460045460055460408051938452600160208501526001600160a01b03909216918301919091526060820152608001610218565b3480156103d957600080fd5b506102636103e8366004612421565b6001600160a01b031660009081526009602052604090206001015490565b34801561041257600080fd5b50610263611513565b34801561042757600080fd5b506102416104363660046126c1565b611528565b34801561044757600080fd5b50610241610456366004612870565b611739565b34801561046757600080fd5b50610241610476366004612509565b61199a565b34801561048757600080fd5b5061049b61049636600461245b565b611ae8565b6040516001600160e01b03199091168152602001610218565b3480156104c057600080fd5b506104d46104cf36600461281e565b611bad565b60408051928352901515602083015201610218565b3480156104f557600080fd5b50610241610504366004612839565b611c12565b34801561051557600080fd5b5061049b61052436600461254a565b611f10565b34801561053557600080fd5b506102416105443660046125f8565b611f94565b804710156105995760405162461bcd60e51b815260206004820152601d60248201527f416464726573733a20696e73756666696369656e742062616c616e6365000000604482015260640161016c565b6000826001600160a01b03168260405160006040518083038185875af1925050503d80600081146105e6576040519150601f19603f3d011682016040523d82523d6000602084013e6105eb565b606091505b50509050806106625760405162461bcd60e51b815260206004820152603a60248201527f416464726573733a20756e61626c6520746f2073656e642076616c75652c207260448201527f6563697069656e74206d61792068617665207265766572746564000000000000606482015260840161016c565b505050565b60006001600160e01b03198216630271189760e51b148061069857506301ffc9a760e01b6001600160e01b03198316145b92915050565b63ffffffff811660009081526020819052604090206001015481906106d55760405162461bcd60e51b815260040161016c90612a92565b63ffffffff8216600090815260208190526040902060020154829061070990600160381b90046001600160a01b0316611173565b1561075a5763ffffffff8116600090815260208190526040902060020154600160381b90046001600160a01b031633146107555760405162461bcd60e51b815260040161016c90612b11565b610784565b61076333611173565b15156001146107845760405162461bcd60e51b815260040161016c90612b3f565b63ffffffff8316600081815260208181526040808320805463ffffffff19168155600181018490556002810180546301000000600160d81b03191690558151808401928390528481529484529290915291516107e69260039092019190612214565b5060405163ffffffff8416907f761b291efc1cf42f36eac86ac2f397b06b9606dfb16059c83eb3ab8cc7e53e3090600090a2505050565b60006002805414156108715760405162461bcd60e51b815260206004820152601f60248201527f5265656e7472616e637947756172643a207265656e7472616e742063616c6c00604482015260640161016c565b600280556001600160a01b0382166000908152600860205260409020546108d25760405162461bcd60e51b81526020600482015260156024820152746163636f756e7420686173206e6f2073686172657360581b604482015260640161016c565b60006108dd836109f1565b9050806109215760405162461bcd60e51b81526020600482015260126024820152715061796d656e74206973206e6f742064756560701b604482015260640161016c565b6001600160a01b03831660009081526009602052604081208054839290610949908490612c29565b90915550506001600160a01b03831660009081526009602052604090208190600101600082825461097a9190612c29565b9250508190555080600760008282546109939190612c29565b909155506109a390508382610549565b826001600160a01b03167fd01a8cc9ab129109f449ed0a777705c57b0aa086d3e08fe4a8de773b397143e7826040516109de91815260200190565b60405180910390a2600160025592915050565b6006546001600160a01b03821660009081526008602052604081205490918291610a19611513565b610a239190612c8b565b610a2d9190612c69565b6001600160a01b0384166000908152600960205260409020549091508111610a56576000610a79565b6001600160a01b038316600090815260096020526040902054610a799082612caa565b9392505050565b33735fc8d32690cc91d4c39d9d3abcbd16989f87570714610ab35760405162461bcd60e51b815260040161016c90612ac1565b63ffffffff82166000908152602081905260409020600101548290610aea5760405162461bcd60e51b815260040161016c90612a92565b61ffff8216610af857600080fd5b63ffffffff8316600090815260208190526040902060020154610100900460ff16610bae5763ffffffff8084166000908152602081815260408083206001600160a01b0389168452600501909152902054610b599161ffff85169116612c41565b63ffffffff16600114610bae5760405162461bcd60e51b815260206004820152601960248201527f4d6178696d756d207175616e7469747920657863656564656400000000000000604482015260640161016c565b610bb83034610549565b63ffffffff8084166000908152602081815260408083206001600160a01b03891684526005019091528120805461ffff861693919291610bfa91859116612c41565b92506101000a81548163ffffffff021916908363ffffffff1602179055506000808463ffffffff1663ffffffff16815260200190815260200160002060020160029054906101000a900460ff16610d165763ffffffff808416600090815260208190526040902060020154630100000090041661ffff83161115610cc05760405162461bcd60e51b815260206004820152601860248201527f417661696c61626c6520756e6974732065786365656465640000000000000000604482015260640161016c565b63ffffffff8084166000908152602081905260409020600201805461ffff851692600391610cf79185916301000000900416612cc1565b92506101000a81548163ffffffff021916908363ffffffff1602179055505b6040805161ffff8416815234602082015263ffffffff8516916001600160a01b038716917fcb35e6328d171aabe8c666c3fcc2ba3401887c5504bf5dfaa8b8c3be5ced01bc910160405180910390a350505050565b63ffffffff808216600090815260208181526040808320338452600501909152812054909160609116610dd45760405162461bcd60e51b8152602060048201526011602482015270139bdd081c1d5c98da185cd959081e595d607a1b604482015260640161016c565b63ffffffff8084166000818152602081815260408083203384526005810183529083205493835291905260040180549190921691908190610e1490612ce6565b80601f0160208091040260200160405190810160405280929190818152602001828054610e4090612ce6565b8015610e8d5780601f10610e6257610100808354040283529160200191610e8d565b820191906000526020600020905b815481529060010190602001808311610e7057829003601f168201915b5050505050905091509150915091565b60015460ff1615610ec05760405162461bcd60e51b815260040161016c90612ae7565b33735fc8d32690cc91d4c39d9d3abcbd16989f87570714610ef35760405162461bcd60e51b815260040161016c90612ac1565b610efe600a82612105565b5060405181907f0d29335611f0a3110c445dd4bbfb88a2cde38f18cf9cf36d6154d714cb097c5b90600090a250565b610f3633611173565b610f525760405162461bcd60e51b815260040161016c90612b3f565b60008711610f985760405162461bcd60e51b815260206004820152601360248201527241646420612070726f6475637420707269636560681b604482015260640161016c565b610fa6600c80546001019055565b6000610fb1600c5490565b63ffffffff80821660009081526020819052604090209192508a1615610fdb57610fdb828b61133c565b805463ffffffff191663ffffffff8b161781556001810189905560028101805461ffff191689151561ff00191617610100891515021766ffffffff010000600160d81b0319166201000088151502670100000000000000600160d81b0319161733600160381b02179055835161105a9060038301906020870190612214565b5082516110709060048301906020860190612214565b50851561108e5760028101805466ffffffff000000191690556110af565b60028101805466ffffffff0000001916630100000063ffffffff8816021790555b6002810154604051339163ffffffff808e16927fe19e010404a539c4f9cc0626b2f00ca9dff890ebae70eb6bb8465d9e281365a692611101928f928f928f928f92630100000090920416908d90612b6a565b60405180910390a350505050505050505050565b33735fc8d32690cc91d4c39d9d3abcbd16989f875707146111485760405162461bcd60e51b815260040161016c90612ac1565b600392909255600480546001600160a01b0319166001600160a01b0392909216919091179055600555565b6005546001600160a01b03821660009081526008602052604081205490911161119e57506001919050565b60006111aa600a612111565b111561133457735fc8d32690cc91d4c39d9d3abcbd16989f87570760005b6111d2600a612111565b8161ffff1610156113315760006001600160a01b03831663175fa7ea6111fd600a61ffff861661211b565b6040518263ffffffff1660e01b815260040161121b91815260200190565b60206040518083038186803b15801561123357600080fd5b505afa158015611247573d6000803e3d6000fd5b505050506040513d601f19601f8201168201806040525081019061126b919061243e565b6005546001600160a01b0382166000908152600860205260409020549192501161131e5760405163166eb15b60e21b81526001600160a01b0386811660048301528291908216906359bac56c9060240160206040518083038186803b1580156112d357600080fd5b505afa1580156112e7573d6000803e3d6000fd5b505050506040513d601f19601f8201168201806040525081019061130b919061277e565b1561131c5750600195945050505050565b505b508061132981612d21565b9150506111c8565b50505b506000919050565b61134533611173565b8061134f57503330145b61136b5760405162461bcd60e51b815260040161016c90612b3f565b73e7f1725e7734ce288f8367e1bb143e90bb3f051263ffffffff8216158061141a575060405163588d1be760e01b815263ffffffff831660048201526000906001600160a01b0383169063588d1be79060240160206040518083038186803b1580156113d657600080fd5b505afa1580156113ea573d6000803e3d6000fd5b505050506040513d601f19601f8201168201806040525081019061140e919061243e565b6001600160a01b031614155b61145e5760405162461bcd60e51b81526020600482015260156024820152744e6f6e2d6578697374656e742063617465676f727960581b604482015260640161016c565b60405163392d518560e21b815263ffffffff83166004820152735fc8d32690cc91d4c39d9d3abcbd16989f8757079063e4b5461490602401600060405180830381600087803b1580156114b057600080fd5b505af11580156114c4573d6000803e3d6000fd5b5050333014915061066290505760405163ffffffff83811682528416907f06430051821ecb8819b754999dfd1a452d9907849169f3ca411dc854bdb0f2b29060200160405180910390a2505050565b6000600754476115239190612c29565b905090565b61153133611173565b61154d5760405162461bcd60e51b815260040161016c90612b3f565b73cf7ed3acca5a467e9e704c703e8d87f634fb0fc96000805b84518161ffff16101561166257838161ffff168151811061158957611589612d74565b602002602001015161ffff16836001600160a01b0316633941a604878461ffff16815181106115ba576115ba612d74565b60200260200101516040518263ffffffff1660e01b81526004016115ea919063ffffffff91909116815260200190565b60206040518083038186803b15801561160257600080fd5b505afa158015611616573d6000803e3d6000fd5b505050506040513d601f19601f8201168201806040525081019061163a91906127c5565b6116449190612c8b565b61164e9083612c29565b91508061165a81612d21565b915050611566565b5060405163a9059cbb60e01b815273f39fd6e51aad88f6f4ce6ab8827279cfffb922666004820152602481018290526001600160a01b0383169063a9059cbb90604401602060405180830381600087803b1580156116bf57600080fd5b505af11580156116d3573d6000803e3d6000fd5b505050506040513d601f19601f820116820180604052508101906116f7919061277e565b507fd0e7280fe218f387be224105631180630e7d8cdb9d48bbc504aa1584cf8d62d584848360405161172b93929190612a04565b60405180910390a150505050565b63ffffffff841660009081526020819052604090206001015484906117705760405162461bcd60e51b815260040161016c90612a92565b63ffffffff851660009081526020819052604090206002015485906117a490600160381b90046001600160a01b0316611173565b156117f55763ffffffff8116600090815260208190526040902060020154600160381b90046001600160a01b031633146117f05760405162461bcd60e51b815260040161016c90612b11565b61181f565b6117fe33611173565b151560011461181f5760405162461bcd60e51b815260040161016c90612b3f565b600083118015611847575063ffffffff86166000908152602081905260409020600101548311155b61188b5760405162461bcd60e51b8152602060048201526015602482015274496e76616c69642070726f6475637420707269636560581b604482015260640161016c565b63ffffffff8616600090815260208190526040902060028101805487158015620100000262ff0000199092169190911790915560019091018490556118f55763ffffffff86166000908152602081905260409020600201805466ffffffff0000001916905561192c565b63ffffffff8087166000908152602081905260409020600201805491861663010000000266ffffffff000000199092169190911790555b63ffffffff868116600081815260208181526040918290206002015482518a151581526301000000909104909416908401528201859052907f1abdbaff3523be69e62e6a19e7ec8f2972a1e6f84f79517dbca0f63b8d852df3906060015b60405180910390a2505050505050565b60015460ff16156119bd5760405162461bcd60e51b815260040161016c90612ae7565b33735fc8d32690cc91d4c39d9d3abcbd16989f875707146119f05760405162461bcd60e51b815260040161016c90612ac1565b6001600160a01b0383166000908152600860209081526040808320546009909252822054611a1f908490612c8b565b611a299190612c69565b6001600160a01b03841660009081526009602052604081209192508291016000828254611a569190612c29565b90915550506001600160a01b03841660009081526009602052604081208054839290611a83908490612caa565b90915550506001600160a01b03841660009081526008602052604081208054849290611ab0908490612caa565b90915550506001600160a01b03831660009081526008602052604081208054849290611add908490612c29565b909155505050505050565b6000611af660015460ff1690565b15611b135760405162461bcd60e51b815260040161016c90612ae7565b60005b8451811015611b9a57611b4c858281518110611b3457611b34612d74565b6020026020010151600a61212790919063ffffffff16565b15611b885760405162461bcd60e51b815260206004820152600c60248201526b05061796d656e74206c6f6f760a41b604482015260640161016c565b80611b9281612d43565b915050611b16565b5063bc197c8160e01b9695505050505050565b63ffffffff811660009081526020819052604081206001015481908390611be65760405162461bcd60e51b815260040161016c90612a92565b50505063ffffffff1660009081526020819052604090206001810154600290910154909160ff90911690565b63ffffffff82166000908152602081905260409020600101548290611c495760405162461bcd60e51b815260040161016c90612a92565b63ffffffff83166000908152602081905260409020600201548390611c7d90600160381b90046001600160a01b0316611173565b15611cce5763ffffffff8116600090815260208190526040902060020154600160381b90046001600160a01b03163314611cc95760405162461bcd60e51b815260040161016c90612b11565b611cf8565b611cd733611173565b1515600114611cf85760405162461bcd60e51b815260040161016c90612b3f565b63ffffffff841660009081526020819052604090206002015460ff1615158315151415611d595760405162461bcd60e51b815260206004820152600f60248201526e14d85b59481c1c9a58d9481d5b9a5d608a1b604482015260640161016c565b6000735fc8d32690cc91d4c39d9d3abcbd16989f8757076001600160a01b031663bb27e0ce6040518163ffffffff1660e01b815260040160206040518083038186803b158015611da857600080fd5b505afa158015611dbc573d6000803e3d6000fd5b505050506040513d601f19601f82011682018060405250810190611de091906127c5565b63ffffffff86166000908152602081905260409020600101549091508415611e7357600064e8d4a5100083611e158285612c69565b611e1f9190612c8b565b611e299190612c69565b90508015611e515763ffffffff87166000908152602081905260409020600101819055611e6d565b63ffffffff871660009081526020819052604090206001908101555b50611eaf565b600082611e8a8369d3c21bcecceda1000000612c8b565b611e949190612c69565b63ffffffff8816600090815260208190526040902060010155505b63ffffffff86166000818152602081815260409182902060028101805460ff19168a15159081179091556001909101548351908152918201527f9313b010c2388a1c2903afa4afe83485c3f52d0a177eda33cc12b480cee4be30910161198a565b6000611f1e60015460ff1690565b15611f3b5760405162461bcd60e51b815260040161016c90612ae7565b611f46600a85612127565b15611f825760405162461bcd60e51b815260206004820152600c60248201526b05061796d656e74206c6f6f760a41b604482015260640161016c565b5063f23a6e6160e01b95945050505050565b60015460ff1615611fb75760405162461bcd60e51b815260040161016c90612ae7565b33735fc8d32690cc91d4c39d9d3abcbd16989f87570714611fea5760405162461bcd60e51b815260040161016c90612ac1565b60005b82518161ffff1610156106625760006001600160a01b0316838261ffff168151811061201b5761201b612d74565b60200260200101516001600160a01b0316141561203757600080fd5b6000828261ffff168151811061204f5761204f612d74565b60200260200101511161206157600080fd5b818161ffff168151811061207757612077612d74565b602002602001015160086000858461ffff168151811061209957612099612d74565b60200260200101516001600160a01b03166001600160a01b0316815260200190815260200160002081905550818161ffff16815181106120db576120db612d74565b60200260200101516006546120f09190612c29565b600655806120fd81612d21565b915050611fed565b6000610a79838361213f565b6000610698825490565b6000610a79838361218e565b60008181526001830160205260408120541515610a79565b600081815260018301602052604081205461218657508154600181810184556000848152602080822090930184905584548482528286019093526040902091909155610698565b506000610698565b815460009082106121ec5760405162461bcd60e51b815260206004820152602260248201527f456e756d657261626c655365743a20696e646578206f7574206f6620626f756e604482015261647360f01b606482015260840161016c565b82600001828154811061220157612201612d74565b9060005260206000200154905092915050565b82805461222090612ce6565b90600052602060002090601f0160209004810192826122425760008555612288565b82601f1061225b57805160ff1916838001178555612288565b82800160010185558215612288579182015b8281111561228857825182559160200191906001019061226d565b50612294929150612298565b5090565b5b808211156122945760008155600101612299565b600082601f8301126122be57600080fd5b813560206122d36122ce83612c05565b612bd4565b80838252828201915082860187848660051b89010111156122f357600080fd5b60005b8581101561231957612307826123f6565b845292840192908401906001016122f6565b5090979650505050505050565b600082601f83011261233757600080fd5b813560206123476122ce83612c05565b80838252828201915082860187848660051b890101111561236757600080fd5b60005b858110156123195781358452928401929084019060010161236a565b600082601f83011261239757600080fd5b813567ffffffffffffffff8111156123b1576123b1612d8a565b6123c4601f8201601f1916602001612bd4565b8181528460208386010111156123d957600080fd5b816020850160208301376000918101602001919091529392505050565b803561ffff8116811461240857600080fd5b919050565b803563ffffffff8116811461240857600080fd5b60006020828403121561243357600080fd5b8135610a7981612da0565b60006020828403121561245057600080fd5b8151610a7981612da0565b600080600080600060a0868803121561247357600080fd5b853561247e81612da0565b9450602086013561248e81612da0565b9350604086013567ffffffffffffffff808211156124ab57600080fd5b6124b789838a01612326565b945060608801359150808211156124cd57600080fd5b6124d989838a01612326565b935060808801359150808211156124ef57600080fd5b506124fc88828901612386565b9150509295509295909350565b60008060006060848603121561251e57600080fd5b833561252981612da0565b9250602084013561253981612da0565b929592945050506040919091013590565b600080600080600060a0868803121561256257600080fd5b853561256d81612da0565b9450602086013561257d81612da0565b93506040860135925060608601359150608086013567ffffffffffffffff8111156125a757600080fd5b6124fc88828901612386565b6000806000606084860312156125c857600080fd5b83356125d381612da0565b92506125e16020850161240d565b91506125ef604085016123f6565b90509250925092565b6000806040838503121561260b57600080fd5b823567ffffffffffffffff8082111561262357600080fd5b818501915085601f83011261263757600080fd5b813560206126476122ce83612c05565b8083825282820191508286018a848660051b890101111561266757600080fd5b600096505b8487101561269357803561267f81612da0565b83526001969096019591830191830161266c565b50965050860135925050808211156126aa57600080fd5b506126b785828601612326565b9150509250929050565b600080604083850312156126d457600080fd5b823567ffffffffffffffff808211156126ec57600080fd5b818501915085601f83011261270057600080fd5b813560206127106122ce83612c05565b8083825282820191508286018a848660051b890101111561273057600080fd5b600096505b8487101561275a576127468161240d565b835260019690960195918301918301612735565b509650508601359250508082111561277157600080fd5b506126b7858286016122ad565b60006020828403121561279057600080fd5b8151610a7981612db8565b6000602082840312156127ad57600080fd5b81356001600160e01b031981168114610a7957600080fd5b6000602082840312156127d757600080fd5b5051919050565b6000602082840312156127f057600080fd5b5035919050565b60008060006060848603121561280c57600080fd5b83359250602084013561253981612da0565b60006020828403121561283057600080fd5b610a798261240d565b6000806040838503121561284c57600080fd5b6128558361240d565b9150602083013561286581612db8565b809150509250929050565b6000806000806080858703121561288657600080fd5b61288f8561240d565b9350602085013561289f81612db8565b92506128ad6040860161240d565b9396929550929360600135925050565b600080600080600080600080610100898b0312156128da57600080fd5b6128e38961240d565b97506020890135965060408901356128fa81612db8565b9550606089013561290a81612db8565b9450608089013561291a81612db8565b935061292860a08a0161240d565b925060c089013567ffffffffffffffff8082111561294557600080fd5b6129518c838d01612386565b935060e08b013591508082111561296757600080fd5b506129748b828c01612386565b9150509295985092959890939650565b6000806040838503121561299757600080fd5b6129a08361240d565b91506129ae6020840161240d565b90509250929050565b6000815180845260005b818110156129dd576020818501810151868301820152016129c1565b818111156129ef576000602083870101525b50601f01601f19169290920160200192915050565b606080825284519082018190526000906020906080840190828801845b82811015612a4357815163ffffffff1684529284019290840190600101612a21565b5050508381038285015285518082528683019183019060005b81811015612a7c57835161ffff1683529284019291840191600101612a5c565b5050809350505050826040830152949350505050565b602080825260159082015274141c9bd91d58dd08191bd95cdb89dd08195e1a5cdd605a1b604082015260600190565b6020808252600c908201526b155b985d5d1a1bdc9a5e995960a21b604082015260600190565b60208082526010908201526f14185d5cd8589b194e881c185d5cd95960821b604082015260600190565b60208082526014908201527313db9b1e4818dc99585d1bdc88185b1b1bddd95960621b604082015260600190565b6020808252601190820152704e6f7420656e6f7567682073686172657360781b604082015260600190565b86815285151560208201528415156040820152831515606082015263ffffffff8316608082015260c060a08201526000612ba760c08301846129b7565b98975050505050505050565b828152604060208201526000612bcc60408301846129b7565b949350505050565b604051601f8201601f1916810167ffffffffffffffff81118282101715612bfd57612bfd612d8a565b604052919050565b600067ffffffffffffffff821115612c1f57612c1f612d8a565b5060051b60200190565b60008219821115612c3c57612c3c612d5e565b500190565b600063ffffffff808316818516808303821115612c6057612c60612d5e565b01949350505050565b600082612c8657634e487b7160e01b600052601260045260246000fd5b500490565b6000816000190483118215151615612ca557612ca5612d5e565b500290565b600082821015612cbc57612cbc612d5e565b500390565b600063ffffffff83811690831681811015612cde57612cde612d5e565b039392505050565b600181811c90821680612cfa57607f821691505b60208210811415612d1b57634e487b7160e01b600052602260045260246000fd5b50919050565b600061ffff80831681811415612d3957612d39612d5e565b6001019392505050565b6000600019821415612d5757612d57612d5e565b5060010190565b634e487b7160e01b600052601160045260246000fd5b634e487b7160e01b600052603260045260246000fd5b634e487b7160e01b600052604160045260246000fd5b6001600160a01b0381168114612db557600080fd5b50565b8015158114612db557600080fdfea2646970667358221220705f4946437e1530ef9b4f9cf51dc7fcb1a518d8f01ee2bc54a3e2afed385aa064736f6c63430008070033",
  "linkReferences": {},
  "deployedLinkReferences": {}
}