{
  "_format": "hh-sol-artifact-1",
  "contractName": "Slicer",
  "sourceName": "contracts/Slicer.sol",
  "abi": [
    {
      "inputs": [],
      "name": "Invalid",
      "type": "error"
    },
    {
      "inputs": [],
      "name": "NotAuthorized",
      "type": "error"
    },
    {
      "inputs": [],
      "name": "NotSuccessful",
      "type": "error"
    },
    {
      "inputs": [],
      "name": "PaymentLoop",
      "type": "error"
    },
    {
      "inputs": [],
      "name": "ReentrancyBlock",
      "type": "error"
    },
    {
      "inputs": [],
      "name": "releaseLocked",
      "type": "error"
    },
    {
      "anonymous": false,
      "inputs": [
        {
          "indexed": true,
          "internalType": "uint256",
          "name": "slicerId",
          "type": "uint256"
        },
        {
          "indexed": false,
          "internalType": "bool",
          "name": "addChildSlicerMode",
          "type": "bool"
        }
      ],
      "name": "ChildSlicerSet",
      "type": "event"
    },
    {
      "anonymous": false,
      "inputs": [
        {
          "indexed": false,
          "internalType": "address[]",
          "name": "currencies",
          "type": "address[]"
        }
      ],
      "name": "CurrenciesAdded",
      "type": "event"
    },
    {
      "anonymous": false,
      "inputs": [
        {
          "indexed": false,
          "internalType": "bool",
          "name": "customFeeActive",
          "type": "bool"
        },
        {
          "indexed": false,
          "internalType": "uint256",
          "name": "customFee",
          "type": "uint256"
        }
      ],
      "name": "CustomFeeSet",
      "type": "event"
    },
    {
      "anonymous": false,
      "inputs": [
        {
          "indexed": true,
          "internalType": "address",
          "name": "contractAddress",
          "type": "address"
        },
        {
          "indexed": true,
          "internalType": "address",
          "name": "from",
          "type": "address"
        },
        {
          "indexed": false,
          "internalType": "uint256[]",
          "name": "tokenIds",
          "type": "uint256[]"
        },
        {
          "indexed": false,
          "internalType": "uint256[]",
          "name": "amounts",
          "type": "uint256[]"
        }
      ],
      "name": "ERC1155BatchReceived",
      "type": "event"
    },
    {
      "anonymous": false,
      "inputs": [
        {
          "indexed": true,
          "internalType": "address",
          "name": "contractAddress",
          "type": "address"
        },
        {
          "indexed": true,
          "internalType": "address",
          "name": "from",
          "type": "address"
        },
        {
          "indexed": false,
          "internalType": "uint256",
          "name": "tokenId",
          "type": "uint256"
        },
        {
          "indexed": false,
          "internalType": "uint256",
          "name": "amount",
          "type": "uint256"
        }
      ],
      "name": "ERC1155Received",
      "type": "event"
    },
    {
      "anonymous": false,
      "inputs": [
        {
          "indexed": true,
          "internalType": "address",
          "name": "contractAddress",
          "type": "address"
        },
        {
          "indexed": true,
          "internalType": "address",
          "name": "from",
          "type": "address"
        },
        {
          "indexed": false,
          "internalType": "uint256",
          "name": "tokenId",
          "type": "uint256"
        }
      ],
      "name": "ERC721Received",
      "type": "event"
    },
    {
      "anonymous": false,
      "inputs": [
        {
          "indexed": true,
          "internalType": "address",
          "name": "from",
          "type": "address"
        },
        {
          "indexed": false,
          "internalType": "uint256",
          "name": "amount",
          "type": "uint256"
        }
      ],
      "name": "PaymentReceived",
      "type": "event"
    },
    {
      "anonymous": false,
      "inputs": [
        {
          "indexed": true,
          "internalType": "address",
          "name": "payee",
          "type": "address"
        },
        {
          "indexed": true,
          "internalType": "address",
          "name": "currency",
          "type": "address"
        },
        {
          "indexed": false,
          "internalType": "uint256",
          "name": "amountReleased",
          "type": "uint256"
        },
        {
          "indexed": false,
          "internalType": "uint256",
          "name": "protocolPayment",
          "type": "uint256"
        }
      ],
      "name": "Released",
      "type": "event"
    },
    {
      "inputs": [
        {
          "internalType": "address[]",
          "name": "currencies",
          "type": "address[]"
        }
      ],
      "name": "_addCurrencies",
      "outputs": [],
      "stateMutability": "nonpayable",
      "type": "function"
    },
    {
      "inputs": [
        {
          "internalType": "address",
          "name": "buyer",
          "type": "address"
        },
        {
          "internalType": "address",
          "name": "contractAddress",
          "type": "address"
        },
        {
          "internalType": "uint256",
          "name": "quantity",
          "type": "uint256"
        },
        {
          "internalType": "uint256",
          "name": "tokenId",
          "type": "uint256"
        }
      ],
      "name": "_handle1155Purchase",
      "outputs": [],
      "stateMutability": "nonpayable",
      "type": "function"
    },
    {
      "inputs": [
        {
          "internalType": "address",
          "name": "buyer",
          "type": "address"
        },
        {
          "internalType": "address",
          "name": "contractAddress",
          "type": "address"
        },
        {
          "internalType": "uint256",
          "name": "tokenId",
          "type": "uint256"
        }
      ],
      "name": "_handle721Purchase",
      "outputs": [],
      "stateMutability": "nonpayable",
      "type": "function"
    },
    {
      "inputs": [
        {
          "internalType": "uint256",
          "name": "tokenId_",
          "type": "uint256"
        },
        {
          "internalType": "bool",
          "name": "isImmutable_",
          "type": "bool"
        },
        {
          "internalType": "bool",
          "name": "isControlled_",
          "type": "bool"
        },
        {
          "internalType": "address",
          "name": "slicerCreator_",
          "type": "address"
        },
        {
          "internalType": "uint256",
          "name": "minimumShares_",
          "type": "uint256"
        },
        {
          "internalType": "uint256",
          "name": "releaseTimelock_",
          "type": "uint256"
        },
        {
          "internalType": "address[]",
          "name": "currencies_",
          "type": "address[]"
        }
      ],
      "name": "_initialize",
      "outputs": [],
      "stateMutability": "nonpayable",
      "type": "function"
    },
    {
      "inputs": [
        {
          "internalType": "address",
          "name": "account",
          "type": "address"
        },
        {
          "internalType": "address",
          "name": "currency",
          "type": "address"
        }
      ],
      "name": "_releaseFromFundsModule",
      "outputs": [
        {
          "internalType": "uint256",
          "name": "amount",
          "type": "uint256"
        },
        {
          "internalType": "uint256",
          "name": "protocolPayment",
          "type": "uint256"
        }
      ],
      "stateMutability": "nonpayable",
      "type": "function"
    },
    {
      "inputs": [
        {
          "internalType": "address",
          "name": "account",
          "type": "address"
        },
        {
          "internalType": "address",
          "name": "currency",
          "type": "address"
        },
        {
          "internalType": "uint256",
          "name": "accountSlices",
          "type": "uint256"
        }
      ],
      "name": "_releaseFromSliceCore",
      "outputs": [],
      "stateMutability": "nonpayable",
      "type": "function"
    },
    {
      "inputs": [
        {
          "internalType": "uint256",
          "name": "id",
          "type": "uint256"
        },
        {
          "internalType": "bool",
          "name": "isAdded",
          "type": "bool"
        }
      ],
      "name": "_setChildSlicer",
      "outputs": [],
      "stateMutability": "nonpayable",
      "type": "function"
    },
    {
      "inputs": [
        {
          "internalType": "bool",
          "name": "customFeeActive",
          "type": "bool"
        },
        {
          "internalType": "uint256",
          "name": "customFee",
          "type": "uint256"
        }
      ],
      "name": "_setCustomFee",
      "outputs": [],
      "stateMutability": "nonpayable",
      "type": "function"
    },
    {
      "inputs": [
        {
          "internalType": "uint256",
          "name": "totalShares",
          "type": "uint256"
        }
      ],
      "name": "_setTotalShares",
      "outputs": [],
      "stateMutability": "nonpayable",
      "type": "function"
    },
    {
      "inputs": [
        {
          "internalType": "address payable",
          "name": "sender",
          "type": "address"
        },
        {
          "internalType": "address",
          "name": "receiver",
          "type": "address"
        },
        {
          "internalType": "bool",
          "name": "toRelease",
          "type": "bool"
        },
        {
          "internalType": "uint256",
          "name": "senderShares",
          "type": "uint256"
        },
        {
          "internalType": "uint256",
          "name": "transferredShares",
          "type": "uint256"
        }
      ],
      "name": "_updatePayees",
      "outputs": [],
      "stateMutability": "nonpayable",
      "type": "function"
    },
    {
      "inputs": [
        {
          "internalType": "address payable[]",
          "name": "accounts",
          "type": "address[]"
        },
        {
          "internalType": "int32[]",
          "name": "tokensDiffs",
          "type": "int32[]"
        },
        {
          "internalType": "uint32",
          "name": "totalSupply",
          "type": "uint32"
        }
      ],
      "name": "_updatePayeesReslice",
      "outputs": [],
      "stateMutability": "nonpayable",
      "type": "function"
    },
    {
      "inputs": [
        {
          "internalType": "address",
          "name": "currency",
          "type": "address"
        }
      ],
      "name": "acceptsCurrency",
      "outputs": [
        {
          "internalType": "bool",
          "name": "",
          "type": "bool"
        }
      ],
      "stateMutability": "view",
      "type": "function"
    },
    {
      "inputs": [
        {
          "internalType": "address[]",
          "name": "accounts",
          "type": "address[]"
        },
        {
          "internalType": "address",
          "name": "currency",
          "type": "address"
        },
        {
          "internalType": "bool",
          "name": "withdraw",
          "type": "bool"
        }
      ],
      "name": "batchReleaseAccounts",
      "outputs": [],
      "stateMutability": "nonpayable",
      "type": "function"
    },
    {
      "inputs": [],
      "name": "getFee",
      "outputs": [
        {
          "internalType": "uint256",
          "name": "fee",
          "type": "uint256"
        }
      ],
      "stateMutability": "view",
      "type": "function"
    },
    {
      "inputs": [
        {
          "internalType": "address",
          "name": "payee",
          "type": "address"
        }
      ],
      "name": "isPayeeAllowed",
      "outputs": [
        {
          "internalType": "bool",
          "name": "",
          "type": "bool"
        }
      ],
      "stateMutability": "view",
      "type": "function"
    },
    {
      "inputs": [
        {
          "internalType": "address",
          "name": "",
          "type": "address"
        },
        {
          "internalType": "address",
          "name": "from",
          "type": "address"
        },
        {
          "internalType": "uint256[]",
          "name": "tokenIds",
          "type": "uint256[]"
        },
        {
          "internalType": "uint256[]",
          "name": "amounts",
          "type": "uint256[]"
        },
        {
          "internalType": "bytes",
          "name": "",
          "type": "bytes"
        }
      ],
      "name": "onERC1155BatchReceived",
      "outputs": [
        {
          "internalType": "bytes4",
          "name": "",
          "type": "bytes4"
        }
      ],
      "stateMutability": "nonpayable",
      "type": "function"
    },
    {
      "inputs": [
        {
          "internalType": "address",
          "name": "",
          "type": "address"
        },
        {
          "internalType": "address",
          "name": "from",
          "type": "address"
        },
        {
          "internalType": "uint256",
          "name": "tokenId",
          "type": "uint256"
        },
        {
          "internalType": "uint256",
          "name": "amount",
          "type": "uint256"
        },
        {
          "internalType": "bytes",
          "name": "",
          "type": "bytes"
        }
      ],
      "name": "onERC1155Received",
      "outputs": [
        {
          "internalType": "bytes4",
          "name": "",
          "type": "bytes4"
        }
      ],
      "stateMutability": "nonpayable",
      "type": "function"
    },
    {
      "inputs": [
        {
          "internalType": "address",
          "name": "",
          "type": "address"
        },
        {
          "internalType": "address",
          "name": "from",
          "type": "address"
        },
        {
          "internalType": "uint256",
          "name": "tokenId",
          "type": "uint256"
        },
        {
          "internalType": "bytes",
          "name": "",
          "type": "bytes"
        }
      ],
      "name": "onERC721Received",
      "outputs": [
        {
          "internalType": "bytes4",
          "name": "",
          "type": "bytes4"
        }
      ],
      "stateMutability": "nonpayable",
      "type": "function"
    },
    {
      "inputs": [
        {
          "internalType": "address",
          "name": "account",
          "type": "address"
        },
        {
          "internalType": "address",
          "name": "currency",
          "type": "address"
        },
        {
          "internalType": "bool",
          "name": "withdraw",
          "type": "bool"
        }
      ],
      "name": "release",
      "outputs": [],
      "stateMutability": "nonpayable",
      "type": "function"
    },
    {
      "inputs": [],
      "name": "slicerInfo",
      "outputs": [
        {
          "internalType": "uint256",
          "name": "tokenId",
          "type": "uint256"
        },
        {
          "internalType": "uint256",
          "name": "minimumShares",
          "type": "uint256"
        },
        {
          "internalType": "address",
          "name": "creator",
          "type": "address"
        },
        {
          "internalType": "bool",
          "name": "isImmutable",
          "type": "bool"
        },
        {
          "internalType": "bool",
          "name": "isControlled",
          "type": "bool"
        },
        {
          "internalType": "address[]",
          "name": "currencies",
          "type": "address[]"
        }
      ],
      "stateMutability": "view",
      "type": "function"
    },
    {
      "inputs": [
        {
          "internalType": "bytes4",
          "name": "interfaceId",
          "type": "bytes4"
        }
      ],
      "name": "supportsInterface",
      "outputs": [
        {
          "internalType": "bool",
          "name": "",
          "type": "bool"
        }
      ],
      "stateMutability": "view",
      "type": "function"
    },
    {
      "inputs": [
        {
          "internalType": "address",
          "name": "account",
          "type": "address"
        },
        {
          "internalType": "address",
          "name": "currency",
          "type": "address"
        }
      ],
      "name": "unreleased",
      "outputs": [
        {
          "internalType": "uint256",
          "name": "unreleasedAmount",
          "type": "uint256"
        }
      ],
      "stateMutability": "view",
      "type": "function"
    },
    {
      "stateMutability": "payable",
      "type": "receive"
    }
  ],
  "bytecode": "0x608060405234801561001057600080fd5b50613107806100206000396000f3fe6080604052600436106101395760003560e01c8063b25e9c39116100ab578063d9749edf1161006f578063d9749edf146103c9578063e32cf851146103e9578063e6a1be0014610409578063ecd3620a14610429578063f23a6e6114610449578063fc2686191461046957600080fd5b8063b25e9c3914610326578063bc197c8114610346578063ce55982b14610366578063ced72f8714610386578063d3c65754146103a957600080fd5b80636dd838a5116100fd5780636dd838a51461024a578063926b01251461026a578063957e07b61461028a5780639d24e186146102b1578063a4688017146102d1578063b230074a1461030657600080fd5b806301ffc9a71461017a578063150b7a02146101af57806319fc05b5146101e857806352cf13d61461020a57806359bac56c1461022a57600080fd5b366101755760405134815233907f6ef95f06320e7a25a04a175ca677b7052bdd97131872c2192525a629f51be7709060200160405180910390a2005b600080fd5b34801561018657600080fd5b5061019a610195366004612657565b610489565b60405190151581526020015b60405180910390f35b3480156101bb57600080fd5b506101cf6101ca366004612750565b6104c0565b6040516001600160e01b031990911681526020016101a6565b3480156101f457600080fd5b506102086102033660046127ca565b610520565b005b34801561021657600080fd5b50610208610225366004612815565b61066c565b34801561023657600080fd5b5061019a61024536600461285b565b610723565b34801561025657600080fd5b50610208610265366004612910565b610a3e565b34801561027657600080fd5b506102086102853660046129a2565b610bbb565b34801561029657600080fd5b5061029f610d0d565b6040516101a696959493929190612a12565b3480156102bd57600080fd5b506102086102cc366004612a5b565b610d87565b3480156102dd57600080fd5b506102f16102ec366004612a74565b610db5565b604080519283526020830191909152016101a6565b34801561031257600080fd5b50610208610321366004612aad565b611069565b34801561033257600080fd5b5061019a61034136600461285b565b6110d6565b34801561035257600080fd5b506101cf610361366004612b63565b6110e3565b34801561037257600080fd5b50610208610381366004612c11565b6111c1565b34801561039257600080fd5b5061039b611259565b6040519081526020016101a6565b3480156103b557600080fd5b506102086103c4366004612c11565b61129a565b3480156103d557600080fd5b5061039b6103e4366004612a74565b611344565b3480156103f557600080fd5b50610208610404366004612cd6565b611466565b34801561041557600080fd5b50610208610424366004612da8565b611636565b34801561043557600080fd5b50610208610444366004612df1565b611a44565b34801561045557600080fd5b506101cf610464366004612e16565b611ab0565b34801561047557600080fd5b50610208610484366004612e7f565b611b4f565b60006001600160e01b03198216630271189760e51b14806104ba57506301ffc9a760e01b6001600160e01b03198316145b92915050565b6000836001600160a01b0316336001600160a01b03167f941a9d9a9af7f97737c018d13918859e12f44e16c4b4c6ac922dacf021cfbf148560405161050791815260200190565b60405180910390a350630a85bd0160e11b949350505050565b606b54600160c01b900464ffffffffff164210156105515760405163510040cb60e01b815260040160405180910390fd5b600061055d8484611344565b9050801561066657600080610570611259565b90508015610585576105828382611ca7565b91505b6001600160a01b038516600090815260696020526040812080548592906105ad908490612ed2565b909155506105c090508686858588611cc7565b83156106635760006001600160a01b038616156105de5760006105e0565b835b606b54604051630f1daf8f60e31b815291925073cf7ed3acca5a467e9e704c703e8d87f634fb0fc9916378ed7c7891849161062f916001600160801b0316908c908c908b908b90600401612eea565b6000604051808303818588803b15801561064857600080fd5b505af115801561065c573d6000803e3d6000fd5b5050505050505b50505b50505050565b33739fe46736679d2d9a65f0992f2272de9f3c7fa6e0146106a05760405163ea8e4eb560e01b815260040160405180910390fd5b604051637921219560e11b81523060048201526001600160a01b038581166024830152604482018390526064820184905260a06084830152600060a483015284169063f242432a9060c401600060405180830381600087803b15801561070557600080fd5b505af1158015610719573d6000803e3d6000fd5b5050505050505050565b606c54600090600160a81b900460ff16156107d357606b5460405163a468f1c760e01b81526001600160801b03909116600482015273e7f1725e7734ce288f8367e1bb143e90bb3f05129063a468f1c790602401602060405180830381865afa158015610794573d6000803e3d6000fd5b505050506040513d601f19601f820116820180604052508101906107b89190612f24565b6001600160a01b0316826001600160a01b0316149050919050565b606b54604051627eeac760e11b815263ffffffff600160a01b8304169173e7f1725e7734ce288f8367e1bb143e90bb3f05129162fdd58e916108239187916001600160801b031690600401612f41565b602060405180830381865afa158015610840573d6000803e3d6000fd5b505050506040513d601f19601f820116820180604052508101906108649190612f63565b1061087157506001919050565b61087b6067611f32565b15610a365760005b61088d6067611f32565b811015610a3457600073e7f1725e7734ce288f8367e1bb143e90bb3f051263175fa7ea6108bb606785611f3c565b6040518263ffffffff1660e01b81526004016108d991815260200190565b602060405180830381865afa1580156108f6573d6000803e3d6000fd5b505050506040513d601f19601f8201168201806040525081019061091a9190612f24565b606b54604051627eeac760e11b815291925063ffffffff600160a01b8204169173e7f1725e7734ce288f8367e1bb143e90bb3f05129162fdd58e9161096f9186916001600160801b0390911690600401612f41565b602060405180830381865afa15801561098c573d6000803e3d6000fd5b505050506040513d601f19601f820116820180604052508101906109b09190612f63565b10610a2b5760405163166eb15b60e21b81526001600160a01b0385811660048301528291908216906359bac56c90602401602060405180830381865afa1580156109fe573d6000803e3d6000fd5b505050506040513d601f19601f82011682018060405250810190610a229190612f7c565b95945050505050565b50600101610883565b505b506000919050565b33735fc8d32690cc91d4c39d9d3abcbd16989f87570714610a725760405163ea8e4eb560e01b815260040160405180910390fd5b606c546001600160a01b0316151580610a9157506001600160801b0387115b15610aaf5760405163af6eefa360e01b815260040160405180910390fd5b606b805463ffffffff8516600160a01b0277ffffffff00000000ffffffffffffffffffffffffffffffff199091166001600160801b038a16171790558115610b1257606b805464ffffffffff60c01b1916600160c01b64ffffffffff8516021790555b606c80546001600160a01b0319166001600160a01b0386161790558515610b4b57606c805460ff60a01b1916600160a01b881515021790555b8415610b6957606c805460ff60a81b1916600160a81b871515021790555b805115610bb25760005b815181101561071957610ba9828281518110610b9157610b91612f99565b60200260200101516065611f4890919063ffffffff16565b50600101610b73565b50505050505050565b73e7f1725e7734ce288f8367e1bb143e90bb3f05126001600160a01b0316638da5cb5b6040518163ffffffff1660e01b8152600401602060405180830381865afa158015610c0d573d6000803e3d6000fd5b505050506040513d601f19601f82011682018060405250810190610c319190612f24565b6001600160a01b0316336001600160a01b031614610c625760405163ea8e4eb560e01b815260040160405180910390fd5b610c6e60196004612faf565b60ff16811180610c7f57506103e881115b15610c9d57604051636dac6a0960e01b815260040160405180910390fd5b606b80546001600160e81b0316600160f81b84151590810261ffff60e81b191691909117600160e81b61ffff8516021790915560408051918252602082018390527fe2fdfbdee41a353c6bb67e41dccbcf559b5d0c120375397b10247dc13065ca45910160405180910390a15050565b606b54606c5460009182918291829182916060916001600160801b0382169163ffffffff600160a01b9182900416916001600160a01b0381169160ff908204811691600160a81b900416610d616065611f5d565b6001600160801b03959095169b63ffffffff949094169a50919850965094509092509050565b610d8f611f6a565b606b805463ffffffff909216600160801b0263ffffffff60801b19909216919091179055565b6000803373cf7ed3acca5a467e9e704c703e8d87f634fb0fc914610dec5760405163ea8e4eb560e01b815260040160405180910390fd5b606b54600160c01b900464ffffffffff16421015610e1d5760405163510040cb60e01b815260040160405180910390fd5b610e278484611344565b91508115611062576000610e39611259565b90508015610e4e57610e4b8382611ca7565b91505b6001600160a01b03841660009081526069602052604081208054859290610e76908490612ed2565b90915550506001600160a01b038085166000818152606a60209081526040808320948a16835293905291909120805485019055610f305760405160009073cf7ed3acca5a467e9e704c703e8d87f634fb0fc99085908381818185875af1925050503d8060008114610f03576040519150601f19603f3d011682016040523d82523d6000602084013e610f08565b606091505b5050905080610f2a5760405163af6eefa360e01b815260040160405180910390fd5b5061100a565b6001600160a01b0384167356639db16ac50a89228026e42a316b30179a537614801590610f655750610f63606585611fa0565b155b15610f835760405163ea8e4eb560e01b815260040160405180910390fd5b60405163a9059cbb60e01b815273cf7ed3acca5a467e9e704c703e8d87f634fb0fc96004820152602481018490526001600160a01b0385169063a9059cbb906044016020604051808303816000875af1158015610fe4573d6000803e3d6000fd5b505050506040513d601f19601f820116820180604052508101906110089190612f7c565b505b836001600160a01b0316856001600160a01b03167f29e9bc035f01bfa0da19263257dbbaeb34bf6c9c780d975b99cb802aecfcf1a28585604051611058929190918252602082015260400190565b60405180910390a3505b9250929050565b611071611f6a565b61108060008686848688611fc2565b6110a27356639db16ac50a89228026e42a316b30179a53768686848688611fc2565b60005b6110af6065611f32565b811015610663576110ce6110c4606583611f3c565b8787858789611fc2565b6001016110a5565b60006104ba606583611fa0565b600073e7f1725e7734ce288f8367e1bb143e90bb3f05111933016111625760005b84518110156111605761113a85828151811061112257611122612f99565b6020026020010151606761211d90919063ffffffff16565b15611158576040516368ee781960e11b815260040160405180910390fd5b600101611104565b505b846001600160a01b0316336001600160a01b03167f1edfbe4132ea17d8154ccc1c03cdbf3f2406087a6989a7d7ebe742504adeb54686866040516111a7929190613008565b60405180910390a35063bc197c8160e01b95945050505050565b33739fe46736679d2d9a65f0992f2272de9f3c7fa6e0146111f55760405163ea8e4eb560e01b815260040160405180910390fd5b604051632142170760e11b81523060048201526001600160a01b038481166024830152604482018390528316906342842e0e90606401600060405180830381600087803b15801561124557600080fd5b505af1158015610bb2573d6000803e3d6000fd5b606b54600090600160f81b900460ff161561129457606b54600160e81b900461ffff16156112915750606b54600160e81b900461ffff165b90565b50601990565b6112a2611f6a565b606b54600160c01b900464ffffffffff164210156112d35760405163510040cb60e01b815260040160405180910390fd5b60006112e0848484612135565b90508015610666576000806112f3611259565b90508015611308576113058382611ca7565b91505b6001600160a01b03851660009081526069602052604081208054859290611330908490612ed2565b909155506106639050868685856000611cc7565b600080611350836121e4565b9050801561145f57606b54604051627eeac760e11b815260009163ffffffff600160801b8204169173e7f1725e7734ce288f8367e1bb143e90bb3f05129162fdd58e916113ad918a916001600160801b0390911690600401612f41565b602060405180830381865afa1580156113ca573d6000803e3d6000fd5b505050506040513d601f19601f820116820180604052508101906113ee9190612f63565b6113f8908461302d565b611402919061304c565b6001600160a01b038086166000908152606a60209081526040808320938a168352929052205490915081111561145d576001600160a01b038085166000908152606a6020908152604080832093891683529290522054810392505b505b5092915050565b61146e611f6a565b600061147a60006121e4565b9050600061149b7356639db16ac50a89228026e42a316b30179a53766121e4565b905060005b6114aa6065611f32565b8110156115d45760006114be606583611f3c565b905060006114cb826121e4565b905060005b88518110156115b857836000036115725761152060008a83815181106114f8576114f8612f99565b60200260200101518a848151811061151257611512612f99565b6020026020010151896122a1565b6115727356639db16ac50a89228026e42a316b30179a53768a838151811061154a5761154a612f99565b60200260200101518a848151811061156457611564612f99565b6020026020010151886122a1565b6115b0838a838151811061158857611588612f99565b60200260200101518a84815181106115a2576115a2612f99565b6020026020010151856122a1565b6001016114d0565b506115ca828763ffffffff1683612397565b50506001016114a0565b506115e760008463ffffffff1684612397565b61160c7356639db16ac50a89228026e42a316b30179a53768463ffffffff1683612397565b5050606b805463ffffffff909216600160801b0263ffffffff60801b199092169190911790555050565b606b54600160c01b900464ffffffffff164210156116675760405163510040cb60e01b815260040160405180910390fd5b6000611671611259565b6001600160a01b03841660008181526069602052604081205492935082911561170d576040516370a0823160e01b815230600482015282906001600160a01b038816906370a0823190602401602060405180830381865afa1580156116da573d6000803e3d6000fd5b505050506040513d601f19601f820116820180604052508101906116fe9190612f63565b6117089190612ed2565b611717565b6117178247612ed2565b905060005b87518110156119e757606b548851600091600160801b900463ffffffff169073e7f1725e7734ce288f8367e1bb143e90bb3f05129062fdd58e908c908690811061176857611768612f99565b6020908102919091010151606b546040516001600160e01b031960e085901b1681526117a192916001600160801b031690600401612f41565b602060405180830381865afa1580156117be573d6000803e3d6000fd5b505050506040513d601f19601f820116820180604052508101906117e29190612f63565b6117ec908561302d565b6117f6919061304c565b9050600080606a60008b6001600160a01b03166001600160a01b0316815260200190815260200160002060008c868151811061183457611834612f99565b60200260200101516001600160a01b03166001600160a01b03168152602001908152602001600020548311156118c1576001600160a01b038a166000908152606a602052604081208c519091908d908790811061189357611893612f99565b60200260200101516001600160a01b03166001600160a01b0316815260200190815260200160002054830391505b811561190c5787156118da576118d78289611ca7565b90505b6118e48287612ed2565b955061190c8b85815181106118fb576118fb612f99565b60200260200101518b84848d611cc7565b88156119d95760006001600160a01b038b161561192a57600061192c565b825b905073cf7ed3acca5a467e9e704c703e8d87f634fb0fc96001600160a01b03166378ed7c7882606b60009054906101000a90046001600160801b03168f898151811061197a5761197a612f99565b60200260200101518f88886040518763ffffffff1660e01b81526004016119a5959493929190612eea565b6000604051808303818588803b1580156119be57600080fd5b505af11580156119d2573d6000803e3d6000fd5b5050505050505b83600101935050505061171c565b506001600160a01b0386166000908152606960205260409020548314611a205760405163cdcbf42760e01b815260040160405180910390fd5b506001600160a01b0390941660009081526069602052604090209390935550505050565b611a4c611f6a565b8015611a6357611a5d606783612477565b50611a70565b611a6e606783612483565b505b817f495f78c7b11cb5ca67202c06f9e12693d4882ef82c8248b59a740154ba8859f882604051611aa4911515815260200190565b60405180910390a25050565b600073e7f1725e7734ce288f8367e1bb143e90bb3f0511193301611af757611ad960678561211d565b15611af7576040516368ee781960e11b815260040160405180910390fd5b60408051858152602081018590526001600160a01b0387169133917ffae60880665b87af033fc873390c3749e126b4cd010b87a7f1191dbd2b32f197910160405180910390a35063f23a6e6160e01b95945050505050565b606c54600160a81b900460ff1615611c1757606b5460405163a468f1c760e01b81526001600160801b03909116600482015273e7f1725e7734ce288f8367e1bb143e90bb3f05129063a468f1c790602401602060405180830381865afa158015611bbd573d6000803e3d6000fd5b505050506040513d601f19601f82011682018060405250810190611be19190612f24565b6001600160a01b0316336001600160a01b031614611c125760405163ea8e4eb560e01b815260040160405180910390fd5b611c42565b606c546001600160a01b03163314611c425760405163ea8e4eb560e01b815260040160405180910390fd5b60005b8151811015611c6c57611c63828281518110610b9157610b91612f99565b50600101611c45565b507fa2f33c128ca00170a527ea94ce234c292389e4606240101eb1e7966442646f6a81604051611c9c919061306e565b60405180910390a150565b60006103e8611cb6838561302d565b611cc0919061304c565b9392505050565b6001600160a01b038085166000818152606a60209081526040808320948a16835293905291909120805485019055611d7a5780611d75576040516339ed512360e01b81526001600160a01b03861660048201526024810183905273cf7ed3acca5a467e9e704c703e8d87f634fb0fc9906339ed51239085906044016000604051808303818588803b158015611d5b57600080fd5b505af1158015611d6f573d6000803e3d6000fd5b50505050505b611ed5565b6001600160a01b0384167356639db16ac50a89228026e42a316b30179a537614801590611daf5750611dad606585611fa0565b155b15611dcd5760405163ea8e4eb560e01b815260040160405180910390fd5b60405163a9059cbb60e01b815273cf7ed3acca5a467e9e704c703e8d87f634fb0fc96004820152602481018490526001600160a01b0385169063a9059cbb906044016020604051808303816000875af1158015611e2e573d6000803e3d6000fd5b505050506040513d601f19601f82011682018060405250810190611e529190612f7c565b5080611ed557606b54604051632cfe238560e11b815273cf7ed3acca5a467e9e704c703e8d87f634fb0fc9916359fc470a91611ea2916001600160801b0316908990899089908990600401612eea565b600060405180830381600087803b158015611ebc57600080fd5b505af1158015611ed0573d6000803e3d6000fd5b505050505b836001600160a01b0316856001600160a01b03167f29e9bc035f01bfa0da19263257dbbaeb34bf6c9c780d975b99cb802aecfcf1a28585604051611f23929190918252602082015260400190565b60405180910390a35050505050565b60006104ba825490565b6000611cc0838361248f565b6000611cc0836001600160a01b0384166124b9565b60606000611cc083612508565b3373e7f1725e7734ce288f8367e1bb143e90bb3f051214611f9e5760405163ea8e4eb560e01b815260040160405180910390fd5b565b6001600160a01b03811660009081526001830160205260408120541515611cc0565b801561206f57606b54600160c01b900464ffffffffff16421015611ff95760405163510040cb60e01b815260040160405180910390fd5b6000612006868885612135565b9050801561206d57600080612019611259565b9050801561202e5761202b8382611ca7565b91505b6001600160a01b03891660009081526069602052604081208054859290612056908490612ed2565b9091555061206a9050888a85856000611cc7565b50505b505b6001600160a01b038087166000908152606a602090815260408083209389168352929052205415610663576001600160a01b038087166000908152606a6020908152604080832093891683529290529081205483906120cf90869061302d565b6120d9919061304c565b6001600160a01b039788166000908152606a60209081526040808320988b168352979052868120805483019055969097168652505050912080549290920390915550565b60008181526001830160205260408120541515611cc0565b60008115611cc0576000612148846121e4565b905080156121dc57606b54600090600160801b900463ffffffff1661216d858461302d565b612177919061304c565b6001600160a01b038087166000908152606a60209081526040808320938b16835292905220549091508111156121da576001600160a01b038086166000908152606a60209081526040808320938a16835292905220546121d79082613081565b92505b505b509392505050565b60006001600160a01b0382161561227e576001600160a01b038216600081815260696020526040908190205490516370a0823160e01b81523060048201529091906370a0823190602401602060405180830381865afa15801561224b573d6000803e3d6000fd5b505050506040513d601f19601f8201168201806040525081019061226f9190612f63565b6122799190612ed2565b6104ba565b6001600160a01b0382166000908152606960205260409020546104ba9047612ed2565b80156106665760008260030b1361232857606b54600160801b900463ffffffff16816122cc84613098565b63ffffffff166122dc919061302d565b6122e6919061304c565b6001600160a01b038086166000908152606a602090815260408083209388168352929052908120805490919061231d908490613081565b925050819055612390565b606b5463ffffffff600160801b909104811690612348908390851661302d565b612352919061304c565b6001600160a01b038086166000908152606a6020908152604080832093881683529290529081208054909190612389908490612ed2565b9250508190555b5050505050565b801561247257606b54600160801b900463ffffffff16821161241557606b54600160801b900463ffffffff16816123ce8483613081565b6123d8919061302d565b6123e2919061304c565b6001600160a01b0384166000908152606960205260408120805490919061240a908490613081565b925050819055610666565b606b54600160801b900463ffffffff16816124308285613081565b61243a919061302d565b612444919061304c565b6001600160a01b0384166000908152606960205260408120805490919061246c908490612ed2565b90915550505b505050565b6000611cc083836124b9565b6000611cc08383612564565b60008260000182815481106124a6576124a6612f99565b9060005260206000200154905092915050565b6000818152600183016020526040812054612500575081546001818101845560008481526020808220909301849055845484825282860190935260409020919091556104ba565b5060006104ba565b60608160000180548060200260200160405190810160405280929190818152602001828054801561255857602002820191906000526020600020905b815481526020019060010190808311612544575b50505050509050919050565b6000818152600183016020526040812054801561264d576000612588600183613081565b855490915060009061259c90600190613081565b90508181146126015760008660000182815481106125bc576125bc612f99565b90600052602060002001549050808760000184815481106125df576125df612f99565b6000918252602080832090910192909255918252600188019052604090208390555b8554869080612612576126126130bb565b6001900381819060005260206000200160009055905585600101600086815260200190815260200160002060009055600193505050506104ba565b60009150506104ba565b60006020828403121561266957600080fd5b81356001600160e01b031981168114611cc057600080fd5b6001600160a01b038116811461269657600080fd5b50565b634e487b7160e01b600052604160045260246000fd5b604051601f8201601f1916810167ffffffffffffffff811182821017156126d8576126d8612699565b604052919050565b600082601f8301126126f157600080fd5b813567ffffffffffffffff81111561270b5761270b612699565b61271e601f8201601f19166020016126af565b81815284602083860101111561273357600080fd5b816020850160208301376000918101602001919091529392505050565b6000806000806080858703121561276657600080fd5b843561277181612681565b9350602085013561278181612681565b925060408501359150606085013567ffffffffffffffff8111156127a457600080fd5b6127b0878288016126e0565b91505092959194509250565b801515811461269657600080fd5b6000806000606084860312156127df57600080fd5b83356127ea81612681565b925060208401356127fa81612681565b9150604084013561280a816127bc565b809150509250925092565b6000806000806080858703121561282b57600080fd5b843561283681612681565b9350602085013561284681612681565b93969395505050506040820135916060013590565b60006020828403121561286d57600080fd5b8135611cc081612681565b600067ffffffffffffffff82111561289257612892612699565b5060051b60200190565b600082601f8301126128ad57600080fd5b813560206128c26128bd83612878565b6126af565b82815260059290921b840181019181810190868411156128e157600080fd5b8286015b848110156129055780356128f881612681565b83529183019183016128e5565b509695505050505050565b600080600080600080600060e0888a03121561292b57600080fd5b87359650602088013561293d816127bc565b9550604088013561294d816127bc565b9450606088013561295d81612681565b93506080880135925060a0880135915060c088013567ffffffffffffffff81111561298757600080fd5b6129938a828b0161289c565b91505092959891949750929550565b600080604083850312156129b557600080fd5b82356129c0816127bc565b946020939093013593505050565b600081518084526020808501945080840160005b83811015612a075781516001600160a01b0316875295820195908201906001016129e2565b509495945050505050565b86815285602082015260018060a01b03851660408201528315156060820152821515608082015260c060a08201526000612a4f60c08301846129ce565b98975050505050505050565b600060208284031215612a6d57600080fd5b5035919050565b60008060408385031215612a8757600080fd5b8235612a9281612681565b91506020830135612aa281612681565b809150509250929050565b600080600080600060a08688031215612ac557600080fd5b8535612ad081612681565b94506020860135612ae081612681565b93506040860135612af0816127bc565b94979396509394606081013594506080013592915050565b600082601f830112612b1957600080fd5b81356020612b296128bd83612878565b82815260059290921b84018101918181019086841115612b4857600080fd5b8286015b848110156129055780358352918301918301612b4c565b600080600080600060a08688031215612b7b57600080fd5b8535612b8681612681565b94506020860135612b9681612681565b9350604086013567ffffffffffffffff80821115612bb357600080fd5b612bbf89838a01612b08565b94506060880135915080821115612bd557600080fd5b612be189838a01612b08565b93506080880135915080821115612bf757600080fd5b50612c04888289016126e0565b9150509295509295909350565b600080600060608486031215612c2657600080fd5b8335612c3181612681565b92506020840135612c4181612681565b929592945050506040919091013590565b600082601f830112612c6357600080fd5b81356020612c736128bd83612878565b82815260059290921b84018101918181019086841115612c9257600080fd5b8286015b848110156129055780358060030b8114612cb05760008081fd5b8352918301918301612c96565b803563ffffffff81168114612cd157600080fd5b919050565b600080600060608486031215612ceb57600080fd5b833567ffffffffffffffff80821115612d0357600080fd5b818601915086601f830112612d1757600080fd5b81356020612d276128bd83612878565b82815260059290921b8401810191818101908a841115612d4657600080fd5b948201945b83861015612d6d578535612d5e81612681565b82529482019490820190612d4b565b97505087013592505080821115612d8357600080fd5b50612d9086828701612c52565b925050612d9f60408501612cbd565b90509250925092565b600080600060608486031215612dbd57600080fd5b833567ffffffffffffffff811115612dd457600080fd5b612de08682870161289c565b93505060208401356127fa81612681565b60008060408385031215612e0457600080fd5b823591506020830135612aa2816127bc565b600080600080600060a08688031215612e2e57600080fd5b8535612e3981612681565b94506020860135612e4981612681565b93506040860135925060608601359150608086013567ffffffffffffffff811115612e7357600080fd5b612c04888289016126e0565b600060208284031215612e9157600080fd5b813567ffffffffffffffff811115612ea857600080fd5b612eb48482850161289c565b949350505050565b634e487b7160e01b600052601160045260246000fd5b60008219821115612ee557612ee5612ebc565b500190565b6001600160801b039590951685526001600160a01b0393841660208601529190921660408401526060830191909152608082015260a00190565b600060208284031215612f3657600080fd5b8151611cc081612681565b6001600160a01b039290921682526001600160801b0316602082015260400190565b600060208284031215612f7557600080fd5b5051919050565b600060208284031215612f8e57600080fd5b8151611cc0816127bc565b634e487b7160e01b600052603260045260246000fd5b600060ff821660ff84168160ff0481118215151615612fd057612fd0612ebc565b029392505050565b600081518084526020808501945080840160005b83811015612a0757815187529582019590820190600101612fec565b60408152600061301b6040830185612fd8565b8281036020840152610a228185612fd8565b600081600019048311821515161561304757613047612ebc565b500290565b60008261306957634e487b7160e01b600052601260045260246000fd5b500490565b602081526000611cc060208301846129ce565b60008282101561309357613093612ebc565b500390565b60008160030b637fffffff1981036130b2576130b2612ebc565b60000392915050565b634e487b7160e01b600052603160045260246000fdfea2646970667358221220f9dccaf69fe453bc7ef9574371667298eaa421b9c702e6e31dfaf1fd899652dc64736f6c634300080d0033",
  "linkReferences": {},
  "deployedLinkReferences": {}
}