{
  "_format": "hh-sol-artifact-1",
  "contractName": "Slicer",
  "sourceName": "contracts/slicer_v0.sol",
  "abi": [
    {
      "anonymous": false,
      "inputs": [
        {
          "indexed": true,
          "internalType": "uint256",
          "name": "slicerId",
          "type": "uint256"
        }
      ],
      "name": "AddedChildrenSlicer",
      "type": "event"
    },
    {
      "anonymous": false,
      "inputs": [
        {
          "indexed": true,
          "internalType": "address",
          "name": "contractAddress",
          "type": "address"
        },
        {
          "indexed": true,
          "internalType": "address",
          "name": "from",
          "type": "address"
        },
        {
          "indexed": false,
          "internalType": "uint256[]",
          "name": "tokenIds",
          "type": "uint256[]"
        },
        {
          "indexed": false,
          "internalType": "uint256[]",
          "name": "amounts",
          "type": "uint256[]"
        }
      ],
      "name": "ERC1155BatchReceived",
      "type": "event"
    },
    {
      "anonymous": false,
      "inputs": [
        {
          "indexed": true,
          "internalType": "address",
          "name": "contractAddress",
          "type": "address"
        },
        {
          "indexed": true,
          "internalType": "address",
          "name": "from",
          "type": "address"
        },
        {
          "indexed": false,
          "internalType": "uint256",
          "name": "tokenId",
          "type": "uint256"
        },
        {
          "indexed": false,
          "internalType": "uint256",
          "name": "amount",
          "type": "uint256"
        }
      ],
      "name": "ERC1155Received",
      "type": "event"
    },
    {
      "anonymous": false,
      "inputs": [
        {
          "indexed": true,
          "internalType": "address",
          "name": "contractAddress",
          "type": "address"
        },
        {
          "indexed": true,
          "internalType": "address",
          "name": "from",
          "type": "address"
        },
        {
          "indexed": false,
          "internalType": "uint256",
          "name": "tokenId",
          "type": "uint256"
        }
      ],
      "name": "ERC721Received",
      "type": "event"
    },
    {
      "anonymous": false,
      "inputs": [
        {
          "indexed": false,
          "internalType": "address",
          "name": "account",
          "type": "address"
        }
      ],
      "name": "Paused",
      "type": "event"
    },
    {
      "anonymous": false,
      "inputs": [
        {
          "indexed": true,
          "internalType": "address",
          "name": "from",
          "type": "address"
        },
        {
          "indexed": false,
          "internalType": "uint256",
          "name": "amount",
          "type": "uint256"
        }
      ],
      "name": "PaymentReceived",
      "type": "event"
    },
    {
      "anonymous": false,
      "inputs": [
        {
          "indexed": true,
          "internalType": "uint32",
          "name": "productId",
          "type": "uint32"
        },
        {
          "indexed": true,
          "internalType": "uint32",
          "name": "categoryIndex",
          "type": "uint32"
        },
        {
          "indexed": false,
          "internalType": "uint256",
          "name": "price",
          "type": "uint256"
        },
        {
          "indexed": false,
          "internalType": "bool",
          "name": "isUSD",
          "type": "bool"
        },
        {
          "indexed": false,
          "internalType": "bool",
          "name": "isMultiple",
          "type": "bool"
        },
        {
          "indexed": false,
          "internalType": "bool",
          "name": "isInfinite",
          "type": "bool"
        },
        {
          "indexed": false,
          "internalType": "uint32",
          "name": "availableUnits",
          "type": "uint32"
        },
        {
          "indexed": true,
          "internalType": "address",
          "name": "creator",
          "type": "address"
        },
        {
          "indexed": false,
          "internalType": "bytes",
          "name": "data",
          "type": "bytes"
        },
        {
          "indexed": false,
          "internalType": "uint256[]",
          "name": "subSlicersId",
          "type": "uint256[]"
        },
        {
          "indexed": false,
          "internalType": "uint32[]",
          "name": "subProducts",
          "type": "uint32[]"
        }
      ],
      "name": "ProductAdded",
      "type": "event"
    },
    {
      "anonymous": false,
      "inputs": [
        {
          "indexed": true,
          "internalType": "uint32",
          "name": "productId",
          "type": "uint32"
        },
        {
          "indexed": false,
          "internalType": "uint32",
          "name": "categoryIndex",
          "type": "uint32"
        }
      ],
      "name": "ProductCategoryChanged",
      "type": "event"
    },
    {
      "anonymous": false,
      "inputs": [
        {
          "indexed": true,
          "internalType": "uint32",
          "name": "productId",
          "type": "uint32"
        },
        {
          "indexed": false,
          "internalType": "uint256",
          "name": "productPrice",
          "type": "uint256"
        },
        {
          "indexed": false,
          "internalType": "bool",
          "name": "isUSD",
          "type": "bool"
        }
      ],
      "name": "ProductCurrencyChanged",
      "type": "event"
    },
    {
      "anonymous": false,
      "inputs": [
        {
          "indexed": true,
          "internalType": "uint32",
          "name": "productId",
          "type": "uint32"
        },
        {
          "indexed": false,
          "internalType": "bool",
          "name": "isInfinite",
          "type": "bool"
        },
        {
          "indexed": false,
          "internalType": "uint32",
          "name": "units",
          "type": "uint32"
        },
        {
          "indexed": false,
          "internalType": "uint256",
          "name": "productPrice",
          "type": "uint256"
        }
      ],
      "name": "ProductInfoChanged",
      "type": "event"
    },
    {
      "anonymous": false,
      "inputs": [
        {
          "indexed": true,
          "internalType": "address",
          "name": "from",
          "type": "address"
        },
        {
          "indexed": true,
          "internalType": "uint32",
          "name": "productId",
          "type": "uint32"
        },
        {
          "indexed": false,
          "internalType": "uint16",
          "name": "quantity",
          "type": "uint16"
        },
        {
          "indexed": false,
          "internalType": "uint256",
          "name": "productPrice",
          "type": "uint256"
        }
      ],
      "name": "ProductPaid",
      "type": "event"
    },
    {
      "anonymous": false,
      "inputs": [
        {
          "indexed": true,
          "internalType": "uint32",
          "name": "productId",
          "type": "uint32"
        }
      ],
      "name": "ProductRemoved",
      "type": "event"
    },
    {
      "anonymous": false,
      "inputs": [
        {
          "indexed": false,
          "internalType": "uint32[]",
          "name": "serviceIds",
          "type": "uint32[]"
        },
        {
          "indexed": false,
          "internalType": "uint16[]",
          "name": "quantities",
          "type": "uint16[]"
        },
        {
          "indexed": false,
          "internalType": "uint256",
          "name": "amount",
          "type": "uint256"
        }
      ],
      "name": "SLCPaid",
      "type": "event"
    },
    {
      "anonymous": false,
      "inputs": [
        {
          "indexed": true,
          "internalType": "address",
          "name": "payee",
          "type": "address"
        },
        {
          "indexed": false,
          "internalType": "uint256",
          "name": "released",
          "type": "uint256"
        }
      ],
      "name": "TriggeredRelease",
      "type": "event"
    },
    {
      "anonymous": false,
      "inputs": [
        {
          "indexed": false,
          "internalType": "address",
          "name": "account",
          "type": "address"
        }
      ],
      "name": "Unpaused",
      "type": "event"
    },
    {
      "inputs": [
        {
          "internalType": "uint256",
          "name": "id",
          "type": "uint256"
        }
      ],
      "name": "_addChildrenSlicer",
      "outputs": [],
      "stateMutability": "nonpayable",
      "type": "function"
    },
    {
      "inputs": [
        {
          "internalType": "address[]",
          "name": "accounts",
          "type": "address[]"
        },
        {
          "internalType": "uint256[]",
          "name": "shares_",
          "type": "uint256[]"
        }
      ],
      "name": "_addPayees",
      "outputs": [],
      "stateMutability": "nonpayable",
      "type": "function"
    },
    {
      "inputs": [
        {
          "internalType": "uint256",
          "name": "tokenId_",
          "type": "uint256"
        },
        {
          "internalType": "address",
          "name": "slicerCreator_",
          "type": "address"
        },
        {
          "internalType": "uint256",
          "name": "minimumShares_",
          "type": "uint256"
        },
        {
          "internalType": "bool",
          "name": "isCollectible_",
          "type": "bool"
        }
      ],
      "name": "_initialize",
      "outputs": [],
      "stateMutability": "nonpayable",
      "type": "function"
    },
    {
      "inputs": [
        {
          "internalType": "address",
          "name": "account",
          "type": "address"
        },
        {
          "internalType": "uint32",
          "name": "productId",
          "type": "uint32"
        },
        {
          "internalType": "uint16",
          "name": "quantity",
          "type": "uint16"
        }
      ],
      "name": "_payProductFromSlice",
      "outputs": [],
      "stateMutability": "payable",
      "type": "function"
    },
    {
      "inputs": [
        {
          "internalType": "uint256",
          "name": "tokenId",
          "type": "uint256"
        },
        {
          "internalType": "address",
          "name": "account",
          "type": "address"
        },
        {
          "internalType": "uint32",
          "name": "productId",
          "type": "uint32"
        },
        {
          "internalType": "uint16",
          "name": "quantity",
          "type": "uint16"
        }
      ],
      "name": "_payProductFromSlicer",
      "outputs": [],
      "stateMutability": "payable",
      "type": "function"
    },
    {
      "inputs": [
        {
          "internalType": "address",
          "name": "accountFrom",
          "type": "address"
        },
        {
          "internalType": "address",
          "name": "accountTo",
          "type": "address"
        },
        {
          "internalType": "uint256",
          "name": "transferredShares",
          "type": "uint256"
        }
      ],
      "name": "_updatePayees",
      "outputs": [],
      "stateMutability": "nonpayable",
      "type": "function"
    },
    {
      "inputs": [
        {
          "internalType": "uint32",
          "name": "categoryIndex",
          "type": "uint32"
        },
        {
          "internalType": "uint256",
          "name": "price",
          "type": "uint256"
        },
        {
          "internalType": "bool",
          "name": "isUSD",
          "type": "bool"
        },
        {
          "internalType": "bool",
          "name": "isMultiple",
          "type": "bool"
        },
        {
          "internalType": "bool",
          "name": "isInfinite",
          "type": "bool"
        },
        {
          "internalType": "uint32",
          "name": "units",
          "type": "uint32"
        },
        {
          "internalType": "bytes",
          "name": "data",
          "type": "bytes"
        },
        {
          "internalType": "bytes",
          "name": "purchaseData",
          "type": "bytes"
        },
        {
          "internalType": "uint256[]",
          "name": "subSlicersId_",
          "type": "uint256[]"
        },
        {
          "internalType": "uint32[]",
          "name": "subProducts_",
          "type": "uint32[]"
        }
      ],
      "name": "addProduct",
      "outputs": [],
      "stateMutability": "nonpayable",
      "type": "function"
    },
    {
      "inputs": [
        {
          "internalType": "address",
          "name": "payee",
          "type": "address"
        }
      ],
      "name": "isPayeeAllowed",
      "outputs": [
        {
          "internalType": "bool",
          "name": "",
          "type": "bool"
        }
      ],
      "stateMutability": "view",
      "type": "function"
    },
    {
      "inputs": [
        {
          "internalType": "uint32",
          "name": "productId",
          "type": "uint32"
        }
      ],
      "name": "isProduct",
      "outputs": [],
      "stateMutability": "view",
      "type": "function"
    },
    {
      "inputs": [
        {
          "internalType": "address",
          "name": "",
          "type": "address"
        },
        {
          "internalType": "address",
          "name": "from",
          "type": "address"
        },
        {
          "internalType": "uint256[]",
          "name": "tokenIds",
          "type": "uint256[]"
        },
        {
          "internalType": "uint256[]",
          "name": "amounts",
          "type": "uint256[]"
        },
        {
          "internalType": "bytes",
          "name": "",
          "type": "bytes"
        }
      ],
      "name": "onERC1155BatchReceived",
      "outputs": [
        {
          "internalType": "bytes4",
          "name": "",
          "type": "bytes4"
        }
      ],
      "stateMutability": "nonpayable",
      "type": "function"
    },
    {
      "inputs": [
        {
          "internalType": "address",
          "name": "",
          "type": "address"
        },
        {
          "internalType": "address",
          "name": "from",
          "type": "address"
        },
        {
          "internalType": "uint256",
          "name": "tokenId",
          "type": "uint256"
        },
        {
          "internalType": "uint256",
          "name": "amount",
          "type": "uint256"
        },
        {
          "internalType": "bytes",
          "name": "",
          "type": "bytes"
        }
      ],
      "name": "onERC1155Received",
      "outputs": [
        {
          "internalType": "bytes4",
          "name": "",
          "type": "bytes4"
        }
      ],
      "stateMutability": "nonpayable",
      "type": "function"
    },
    {
      "inputs": [
        {
          "internalType": "address",
          "name": "",
          "type": "address"
        },
        {
          "internalType": "address",
          "name": "from",
          "type": "address"
        },
        {
          "internalType": "uint256",
          "name": "tokenId",
          "type": "uint256"
        },
        {
          "internalType": "bytes",
          "name": "",
          "type": "bytes"
        }
      ],
      "name": "onERC721Received",
      "outputs": [
        {
          "internalType": "bytes4",
          "name": "",
          "type": "bytes4"
        }
      ],
      "stateMutability": "nonpayable",
      "type": "function"
    },
    {
      "inputs": [],
      "name": "paused",
      "outputs": [
        {
          "internalType": "bool",
          "name": "",
          "type": "bool"
        }
      ],
      "stateMutability": "view",
      "type": "function"
    },
    {
      "inputs": [
        {
          "internalType": "uint32[]",
          "name": "serviceIds",
          "type": "uint32[]"
        },
        {
          "internalType": "uint16[]",
          "name": "quantities",
          "type": "uint16[]"
        }
      ],
      "name": "paySLC",
      "outputs": [],
      "stateMutability": "nonpayable",
      "type": "function"
    },
    {
      "inputs": [
        {
          "internalType": "uint32",
          "name": "productId",
          "type": "uint32"
        }
      ],
      "name": "productPrice",
      "outputs": [
        {
          "internalType": "uint256",
          "name": "price",
          "type": "uint256"
        }
      ],
      "stateMutability": "view",
      "type": "function"
    },
    {
      "inputs": [
        {
          "internalType": "address payable",
          "name": "account",
          "type": "address"
        }
      ],
      "name": "release",
      "outputs": [
        {
          "internalType": "uint256",
          "name": "",
          "type": "uint256"
        }
      ],
      "stateMutability": "nonpayable",
      "type": "function"
    },
    {
      "inputs": [
        {
          "internalType": "address",
          "name": "account",
          "type": "address"
        }
      ],
      "name": "released",
      "outputs": [
        {
          "internalType": "uint256",
          "name": "",
          "type": "uint256"
        }
      ],
      "stateMutability": "view",
      "type": "function"
    },
    {
      "inputs": [
        {
          "internalType": "uint32",
          "name": "productId",
          "type": "uint32"
        }
      ],
      "name": "removeProduct",
      "outputs": [],
      "stateMutability": "nonpayable",
      "type": "function"
    },
    {
      "inputs": [
        {
          "internalType": "uint32",
          "name": "productId",
          "type": "uint32"
        },
        {
          "internalType": "uint32",
          "name": "categoryIndex",
          "type": "uint32"
        }
      ],
      "name": "setProductCategory",
      "outputs": [],
      "stateMutability": "nonpayable",
      "type": "function"
    },
    {
      "inputs": [
        {
          "internalType": "uint32",
          "name": "productId",
          "type": "uint32"
        },
        {
          "internalType": "bool",
          "name": "isInfinite",
          "type": "bool"
        },
        {
          "internalType": "uint32",
          "name": "newUnits",
          "type": "uint32"
        },
        {
          "internalType": "uint256",
          "name": "newPrice",
          "type": "uint256"
        }
      ],
      "name": "setProductInfo",
      "outputs": [],
      "stateMutability": "nonpayable",
      "type": "function"
    },
    {
      "inputs": [],
      "name": "slicerInfo",
      "outputs": [
        {
          "internalType": "uint256",
          "name": "",
          "type": "uint256"
        },
        {
          "internalType": "uint8",
          "name": "version",
          "type": "uint8"
        },
        {
          "internalType": "address",
          "name": "creator",
          "type": "address"
        },
        {
          "internalType": "uint256",
          "name": "",
          "type": "uint256"
        }
      ],
      "stateMutability": "view",
      "type": "function"
    },
    {
      "inputs": [
        {
          "internalType": "bytes4",
          "name": "interfaceId",
          "type": "bytes4"
        }
      ],
      "name": "supportsInterface",
      "outputs": [
        {
          "internalType": "bool",
          "name": "",
          "type": "bool"
        }
      ],
      "stateMutability": "view",
      "type": "function"
    },
    {
      "inputs": [
        {
          "internalType": "uint32",
          "name": "productId",
          "type": "uint32"
        },
        {
          "internalType": "bool",
          "name": "isUSD",
          "type": "bool"
        }
      ],
      "name": "toggleUSDPrice",
      "outputs": [],
      "stateMutability": "nonpayable",
      "type": "function"
    },
    {
      "inputs": [],
      "name": "totalReceived",
      "outputs": [
        {
          "internalType": "uint256",
          "name": "",
          "type": "uint256"
        }
      ],
      "stateMutability": "view",
      "type": "function"
    },
    {
      "inputs": [
        {
          "internalType": "address",
          "name": "account",
          "type": "address"
        }
      ],
      "name": "unreleased",
      "outputs": [
        {
          "internalType": "uint256",
          "name": "",
          "type": "uint256"
        }
      ],
      "stateMutability": "view",
      "type": "function"
    },
    {
      "inputs": [
        {
          "internalType": "uint32",
          "name": "productId",
          "type": "uint32"
        }
      ],
      "name": "validatePurchase",
      "outputs": [
        {
          "internalType": "uint256",
          "name": "purchases",
          "type": "uint256"
        },
        {
          "internalType": "bytes",
          "name": "purchaseData",
          "type": "bytes"
        }
      ],
      "stateMutability": "view",
      "type": "function"
    },
    {
      "stateMutability": "payable",
      "type": "receive"
    }
  ],
  "bytecode": "0x608060405234801561001057600080fd5b506001805460ff191681556002556139ef8061002d6000396000f3fe6080604052600436106101855760003560e01c8063957e07b6116100d1578063bc197c811161008a578063dd102d5e11610064578063dd102d5e14610548578063f23a6e6114610568578063f664929d14610588578063fd5e12e3146105a857600080fd5b8063bc197c81146104f5578063bf271aa614610515578063bfe5d8351461052857600080fd5b8063957e07b6146104045780639852595c14610447578063a3c2c46214610480578063b1b4735714610495578063b78ee767146104b5578063bbf2b488146104d557600080fd5b80633739e11b1161013e57806359bac56c1161011857806359bac56c146103995780635c975abb146103b95780636a54ead8146103d1578063800ddcaa146103e457600080fd5b80633739e11b1461033957806344eecfd014610359578063525e2ad51461037957600080fd5b806301ffc9a71461022d5780630c170ffd14610262578063150b7a021461028457806319165587146102bd5780632a67293d146102eb578063344603231461030b57600080fd5b366102285760015460ff16156101b65760405162461bcd60e51b81526004016101ad90612c9e565b60405180910390fd5b60006103e86101c6601934612cde565b6101d09190612cfd565b90506101f073ae009d532328ff09e09e5d506ab5bbec3c25c0ff826105c8565b60405134815233907f6ef95f06320e7a25a04a175ca677b7052bdd97131872c2192525a629f51be7709060200160405180910390a250005b600080fd5b34801561023957600080fd5b5061024d610248366004612d1f565b6106e6565b60405190151581526020015b60405180910390f35b34801561026e57600080fd5b5061028261027d366004612d62565b61071d565b005b34801561029057600080fd5b506102a461029f366004612e4c565b61089c565b6040516001600160e01b03199091168152602001610259565b3480156102c957600080fd5b506102dd6102d8366004612eb8565b610917565b604051908152602001610259565b3480156102f757600080fd5b506102dd610306366004612eb8565b610a8e565b34801561031757600080fd5b5061032b610326366004612d62565b610b1d565b604051610259929190612f2d565b34801561034557600080fd5b50610282610354366004612d62565b610c4f565b34801561036557600080fd5b50610282610374366004612f4e565b610c8a565b34801561038557600080fd5b50610282610394366004613071565b610d1a565b3480156103a557600080fd5b5061024d6103b4366004612eb8565b611202565b3480156103c557600080fd5b5060015460ff1661024d565b6102826103df36600461318f565b6113cb565b3480156103f057600080fd5b506102826103ff3660046131de565b61147c565b34801561041057600080fd5b5060045460035460055460408051938452600160208501526001600160a01b03909216918301919091526060820152608001610259565b34801561045357600080fd5b506102dd610462366004612eb8565b6001600160a01b031660009081526009602052604090206001015490565b34801561048c57600080fd5b506102dd611653565b3480156104a157600080fd5b506102826104b0366004613211565b611668565b3480156104c157600080fd5b506102826104d03660046132d3565b611879565b3480156104e157600080fd5b506102826104f0366004613320565b611ada565b34801561050157600080fd5b506102a4610510366004613361565b611c28565b61028261052336600461340f565b611d6e565b34801561053457600080fd5b506102dd610543366004612d62565b611d99565b34801561055457600080fd5b50610282610563366004613454565b612057565b34801561057457600080fd5b506102a461058336600461348b565b612355565b34801561059457600080fd5b506102826105a33660046134f4565b612452565b3480156105b457600080fd5b506102826105c336600461353e565b6124be565b804710156106185760405162461bcd60e51b815260206004820152601d60248201527f416464726573733a20696e73756666696369656e742062616c616e636500000060448201526064016101ad565b6000826001600160a01b03168260405160006040518083038185875af1925050503d8060008114610665576040519150601f19603f3d011682016040523d82523d6000602084013e61066a565b606091505b50509050806106e15760405162461bcd60e51b815260206004820152603a60248201527f416464726573733a20756e61626c6520746f2073656e642076616c75652c207260448201527f6563697069656e74206d6179206861766520726576657274656400000000000060648201526084016101ad565b505050565b60006001600160e01b03198216630271189760e51b148061071757506301ffc9a760e01b6001600160e01b03198316145b92915050565b63ffffffff811660009081526020819052604090206001015481906107545760405162461bcd60e51b81526004016101ad90613600565b63ffffffff8216600090815260208190526040902060020154829061078890600160381b90046001600160a01b0316611202565b156107d95763ffffffff8116600090815260208190526040902060020154600160381b90046001600160a01b031633146107d45760405162461bcd60e51b81526004016101ad9061362f565b610803565b6107e233611202565b15156001146108035760405162461bcd60e51b81526004016101ad9061365d565b63ffffffff8316600081815260208181526040808320805463ffffffff19168155600181018490556002810180546301000000600160d81b03191690558151808401928390528481529484529290915291516108659260039092019190612c05565b5060405163ffffffff8416907f761b291efc1cf42f36eac86ac2f397b06b9606dfb16059c83eb3ab8cc7e53e3090600090a2505050565b600354600090600160a01b900460ff161580156108bd57506108bd84611202565b6108c657600080fd5b6040518381526001600160a01b0385169033907f941a9d9a9af7f97737c018d13918859e12f44e16c4b4c6ac922dacf021cfbf149060200160405180910390a350630a85bd0160e11b949350505050565b600060028054141561096b5760405162461bcd60e51b815260206004820152601f60248201527f5265656e7472616e637947756172643a207265656e7472616e742063616c6c0060448201526064016101ad565b60028055600061097a83610a8e565b9050806109be5760405162461bcd60e51b81526020600482015260126024820152715061796d656e74206973206e6f742064756560701b60448201526064016101ad565b6001600160a01b038316600090815260096020526040812080548392906109e690849061369e565b90915550506001600160a01b038316600090815260096020526040902081906001016000828254610a17919061369e565b925050819055508060076000828254610a30919061369e565b90915550610a40905083826105c8565b826001600160a01b03167fd01a8cc9ab129109f449ed0a777705c57b0aa086d3e08fe4a8de773b397143e782604051610a7b91815260200190565b60405180910390a2600160025592915050565b6006546001600160a01b03821660009081526008602052604081205490918291610ab6611653565b610ac09190612cde565b610aca9190612cfd565b6001600160a01b0384166000908152600960205260409020549091508111610af3576000610b16565b6001600160a01b038316600090815260096020526040902054610b1690826136b6565b9392505050565b63ffffffff808216600090815260208181526040808320338452600501909152812054909160609116610b865760405162461bcd60e51b8152602060048201526011602482015270139bdd081c1d5c98da185cd959081e595d607a1b60448201526064016101ad565b63ffffffff8084166000818152602081815260408083203384526005810183529083205493835291905260040180549190921691908190610bc6906136cd565b80601f0160208091040260200160405190810160405280929190818152602001828054610bf2906136cd565b8015610c3f5780601f10610c1457610100808354040283529160200191610c3f565b820191906000526020600020905b815481529060010190602001808311610c2257829003601f168201915b5050505050905091509150915091565b63ffffffff81166000908152602081905260409020600101548190610c865760405162461bcd60e51b81526004016101ad90613600565b5050565b60015460ff1615610cad5760405162461bcd60e51b81526004016101ad90612c9e565b3373eb46e6d1f0620fe7bb255b83eff9b844edc9784114610ce05760405162461bcd60e51b81526004016101ad90613702565b610ceb600a8261262f565b5060405181907f0d29335611f0a3110c445dd4bbfb88a2cde38f18cf9cf36d6154d714cb097c5b90600090a250565b610d2333611202565b610d3f5760405162461bcd60e51b81526004016101ad9061365d565b60008911610d855760405162461bcd60e51b815260206004820152601360248201527241646420612070726f6475637420707269636560681b60448201526064016101ad565b610d93600c80546001019055565b6000610d9e600c5490565b63ffffffff80821660009081526020819052604090209192508c1615610dc857610dc8828d61147c565b83511561106d57835160141015610e215760405162461bcd60e51b815260206004820152601760248201527f4d617820737562736c696365727320657863656564656400000000000000000060448201526064016101ad565b8251845114610e725760405162461bcd60e51b815260206004820152601760248201527f496e7075747320646f6e277420636f72726573706f6e6400000000000000000060448201526064016101ad565b73fb57bf285f041b4d24b5dfa53c090b334029a64a60005b85518160ff16101561106a576000826001600160a01b031663175fa7ea888460ff1681518110610ebc57610ebc613688565b60200260200101516040518263ffffffff1660e01b8152600401610ee291815260200190565b60206040518083038186803b158015610efa57600080fd5b505afa158015610f0e573d6000803e3d6000fd5b505050506040513d601f19601f82011682018060405250810190610f329190613728565b9050806001600160a01b0316633739e11b878460ff1681518110610f5857610f58613688565b60200260200101516040518263ffffffff1660e01b8152600401610f88919063ffffffff91909116815260200190565b60006040518083038186803b158015610fa057600080fd5b505afa158015610fb4573d6000803e3d6000fd5b505050506006840180546001810182556000918252602080832090910180546001600160a01b0319166001600160a01b0385169081179091558252600786019052604090208651879060ff851690811061101057611010613688565b60209081029190910181015182546001810184556000938452919092206008820401805460079092166004026101000a63ffffffff818102199093169290931692909202179055508061106281613745565b915050610e8a565b50505b8b8160000160006101000a81548163ffffffff021916908363ffffffff1602179055508a8160010181905550898160020160006101000a81548160ff021916908315150217905550888160020160016101000a81548160ff021916908315150217905550878160020160026101000a81548160ff021916908315150217905550338160020160076101000a8154816001600160a01b0302191690836001600160a01b031602179055508581600301908051906020019061112e929190612c05565b5084516111449060048301906020880190612c05565b5087156111625760028101805466ffffffff00000019169055611183565b60028101805466ffffffff0000001916630100000063ffffffff8a16021790555b336001600160a01b03168c63ffffffff168363ffffffff167f187c18d66acd4fc31dae101d63e1343e7c24743a802cbb44b8b813101cf58b788e8e8e8e8860020160039054906101000a900463ffffffff168e8d8d6040516111ec9897969594939291906137d6565b60405180910390a4505050505050505050505050565b6005546001600160a01b03821660009081526008602052604081205490911161122d57506001919050565b6000611239600a61263b565b11156113c35773eb46e6d1f0620fe7bb255b83eff9b844edc9784160005b611261600a61263b565b8161ffff1610156113c05760006001600160a01b03831663175fa7ea61128c600a61ffff8616612645565b6040518263ffffffff1660e01b81526004016112aa91815260200190565b60206040518083038186803b1580156112c257600080fd5b505afa1580156112d6573d6000803e3d6000fd5b505050506040513d601f19601f820116820180604052508101906112fa9190613728565b6005546001600160a01b038216600090815260086020526040902054919250116113ad5760405163166eb15b60e21b81526001600160a01b0386811660048301528291908216906359bac56c9060240160206040518083038186803b15801561136257600080fd5b505afa158015611376573d6000803e3d6000fd5b505050506040513d601f19601f8201168201806040525081019061139a919061384b565b156113ab5750600195945050505050565b505b50806113b881613868565b915050611257565b50505b506000919050565b604051630bafd3f560e11b81526004810185905273eb46e6d1f0620fe7bb255b83eff9b844edc978419063175fa7ea9060240160206040518083038186803b15801561141657600080fd5b505afa15801561142a573d6000803e3d6000fd5b505050506040513d601f19601f8201168201806040525081019061144e9190613728565b6001600160a01b0316336001600160a01b03161461146b57600080fd5b611476838383612651565b50505050565b61148533611202565b8061148f57503330145b6114ab5760405162461bcd60e51b81526004016101ad9061365d565b73fb57bf285f041b4d24b5dfa53c090b334029a64a63ffffffff8216158061155a575060405163588d1be760e01b815263ffffffff831660048201526000906001600160a01b0383169063588d1be79060240160206040518083038186803b15801561151657600080fd5b505afa15801561152a573d6000803e3d6000fd5b505050506040513d601f19601f8201168201806040525081019061154e9190613728565b6001600160a01b031614155b61159e5760405162461bcd60e51b81526020600482015260156024820152744e6f6e2d6578697374656e742063617465676f727960581b60448201526064016101ad565b60405163392d518560e21b815263ffffffff8316600482015273eb46e6d1f0620fe7bb255b83eff9b844edc978419063e4b5461490602401600060405180830381600087803b1580156115f057600080fd5b505af1158015611604573d6000803e3d6000fd5b505033301491506106e190505760405163ffffffff83811682528416907f06430051821ecb8819b754999dfd1a452d9907849169f3ca411dc854bdb0f2b29060200160405180910390a2505050565b600060075447611663919061369e565b905090565b61167133611202565b61168d5760405162461bcd60e51b81526004016101ad9061365d565b73b9187815baffac73ddcceb9866ace8e5137a21e56000805b84518161ffff1610156117a257838161ffff16815181106116c9576116c9613688565b602002602001015161ffff16836001600160a01b0316633941a604878461ffff16815181106116fa576116fa613688565b60200260200101516040518263ffffffff1660e01b815260040161172a919063ffffffff91909116815260200190565b60206040518083038186803b15801561174257600080fd5b505afa158015611756573d6000803e3d6000fd5b505050506040513d601f19601f8201168201806040525081019061177a919061388a565b6117849190612cde565b61178e908361369e565b91508061179a81613868565b9150506116a6565b5060405163a9059cbb60e01b815273ae009d532328ff09e09e5d506ab5bbec3c25c0ff6004820152602481018290526001600160a01b0383169063a9059cbb90604401602060405180830381600087803b1580156117ff57600080fd5b505af1158015611813573d6000803e3d6000fd5b505050506040513d601f19601f82011682018060405250810190611837919061384b565b507fd0e7280fe218f387be224105631180630e7d8cdb9d48bbc504aa1584cf8d62d584848360405161186b939291906138a3565b60405180910390a150505050565b63ffffffff841660009081526020819052604090206001015484906118b05760405162461bcd60e51b81526004016101ad90613600565b63ffffffff851660009081526020819052604090206002015485906118e490600160381b90046001600160a01b0316611202565b156119355763ffffffff8116600090815260208190526040902060020154600160381b90046001600160a01b031633146119305760405162461bcd60e51b81526004016101ad9061362f565b61195f565b61193e33611202565b151560011461195f5760405162461bcd60e51b81526004016101ad9061365d565b600083118015611987575063ffffffff86166000908152602081905260409020600101548311155b6119cb5760405162461bcd60e51b8152602060048201526015602482015274496e76616c69642070726f6475637420707269636560581b60448201526064016101ad565b63ffffffff8616600090815260208190526040902060028101805487158015620100000262ff000019909216919091179091556001909101849055611a355763ffffffff86166000908152602081905260409020600201805466ffffffff00000019169055611a6c565b63ffffffff8087166000908152602081905260409020600201805491861663010000000266ffffffff000000199092169190911790555b63ffffffff868116600081815260208181526040918290206002015482518a151581526301000000909104909416908401528201859052907f1abdbaff3523be69e62e6a19e7ec8f2972a1e6f84f79517dbca0f63b8d852df3906060015b60405180910390a2505050505050565b60015460ff1615611afd5760405162461bcd60e51b81526004016101ad90612c9e565b3373eb46e6d1f0620fe7bb255b83eff9b844edc9784114611b305760405162461bcd60e51b81526004016101ad90613702565b6001600160a01b0383166000908152600860209081526040808320546009909252822054611b5f908490612cde565b611b699190612cfd565b6001600160a01b03841660009081526009602052604081209192508291016000828254611b96919061369e565b90915550506001600160a01b03841660009081526009602052604081208054839290611bc39084906136b6565b90915550506001600160a01b03841660009081526008602052604081208054849290611bf09084906136b6565b90915550506001600160a01b03831660009081526008602052604081208054849290611c1d90849061369e565b909155505050505050565b6000611c3660015460ff1690565b15611c535760405162461bcd60e51b81526004016101ad90612c9e565b600354600160a01b900460ff1615611c6a57600080fd5b3373fb57bf285f041b4d24b5dfa53c090b334029a64a1415611d0f5760005b8451811015611d0d57611cbf858281518110611ca757611ca7613688565b6020026020010151600a612b7490919063ffffffff16565b15611cfb5760405162461bcd60e51b815260206004820152600c60248201526b05061796d656e74206c6f6f760a41b60448201526064016101ad565b80611d0581613907565b915050611c89565b505b846001600160a01b0316336001600160a01b03167f1edfbe4132ea17d8154ccc1c03cdbf3f2406087a6989a7d7ebe742504adeb5468686604051611d54929190613922565b60405180910390a35063bc197c8160e01b95945050505050565b3373eb46e6d1f0620fe7bb255b83eff9b844edc9784114611d8e57600080fd5b6106e1838383612651565b63ffffffff81166000908152602081905260408120600101548290611dd05760405162461bcd60e51b81526004016101ad90613600565b63ffffffff83166000908152602081905260408120600181015460029091015490919060ff1615611ec557600073eb46e6d1f0620fe7bb255b83eff9b844edc978419050806001600160a01b031663bb27e0ce6040518163ffffffff1660e01b815260040160206040518083038186803b158015611e4d57600080fd5b505afa158015611e61573d6000803e3d6000fd5b505050506040513d601f19601f82011682018060405250810190611e85919061388a565b63ffffffff87166000908152602081905260409020600101549092508290611eb79069d3c21bcecceda1000000612cde565b611ec19190612cfd565b9250505b63ffffffff85166000908152602081905260409020600601541561204d5760005b63ffffffff861660009081526020819052604090206006015460ff8216101561204b5763ffffffff86166000908152602081905260408120600601805460ff8416908110611f3657611f36613688565b600091825260208083209091015463ffffffff8a16835282825260408084206001600160a01b03909216808552600790920190925290822080549193509060ff8516908110611f8757611f87613688565b6000918252602090912060088204015460405163bfe5d83560e01b8152600790921660049081026101000a90910463ffffffff16908201819052915082906001600160a01b0382169063bfe5d8359060240160206040518083038186803b158015611ff157600080fd5b505afa158015612005573d6000803e3d6000fd5b505050506040513d601f19601f82011682018060405250810190612029919061388a565b612033908761369e565b9550505050808061204390613745565b915050611ee6565b505b5091505b50919050565b63ffffffff8216600090815260208190526040902060010154829061208e5760405162461bcd60e51b81526004016101ad90613600565b63ffffffff831660009081526020819052604090206002015483906120c290600160381b90046001600160a01b0316611202565b156121135763ffffffff8116600090815260208190526040902060020154600160381b90046001600160a01b0316331461210e5760405162461bcd60e51b81526004016101ad9061362f565b61213d565b61211c33611202565b151560011461213d5760405162461bcd60e51b81526004016101ad9061365d565b63ffffffff841660009081526020819052604090206002015460ff161515831515141561219e5760405162461bcd60e51b815260206004820152600f60248201526e14d85b59481c1c9a58d9481d5b9a5d608a1b60448201526064016101ad565b600073eb46e6d1f0620fe7bb255b83eff9b844edc978416001600160a01b031663bb27e0ce6040518163ffffffff1660e01b815260040160206040518083038186803b1580156121ed57600080fd5b505afa158015612201573d6000803e3d6000fd5b505050506040513d601f19601f82011682018060405250810190612225919061388a565b63ffffffff861660009081526020819052604090206001015490915084156122b857600064e8d4a510008361225a8285612cfd565b6122649190612cde565b61226e9190612cfd565b905080156122965763ffffffff871660009081526020819052604090206001018190556122b2565b63ffffffff871660009081526020819052604090206001908101555b506122f4565b6000826122cf8369d3c21bcecceda1000000612cde565b6122d99190612cfd565b63ffffffff8816600090815260208190526040902060010155505b63ffffffff86166000818152602081815260409182902060028101805460ff19168a15159081179091556001909101548351908152918201527f9313b010c2388a1c2903afa4afe83485c3f52d0a177eda33cc12b480cee4be309101611aca565b600061236360015460ff1690565b156123805760405162461bcd60e51b81526004016101ad90612c9e565b600354600160a01b900460ff161561239757600080fd5b3373fb57bf285f041b4d24b5dfa53c090b334029a64a14156123fa576123be600a85612b74565b156123fa5760405162461bcd60e51b815260206004820152600c60248201526b05061796d656e74206c6f6f760a41b60448201526064016101ad565b60408051858152602081018590526001600160a01b0387169133917ffae60880665b87af033fc873390c3749e126b4cd010b87a7f1191dbd2b32f197910160405180910390a35063f23a6e6160e01b95945050505050565b3373eb46e6d1f0620fe7bb255b83eff9b844edc97841146124855760405162461bcd60e51b81526004016101ad90613702565b60049390935560038054600592909255921515600160a01b026001600160a81b03199091166001600160a01b0390921691909117179055565b60015460ff16156124e15760405162461bcd60e51b81526004016101ad90612c9e565b3373eb46e6d1f0620fe7bb255b83eff9b844edc97841146125145760405162461bcd60e51b81526004016101ad90613702565b60005b82518161ffff1610156106e15760006001600160a01b0316838261ffff168151811061254557612545613688565b60200260200101516001600160a01b0316141561256157600080fd5b6000828261ffff168151811061257957612579613688565b60200260200101511161258b57600080fd5b818161ffff16815181106125a1576125a1613688565b602002602001015160086000858461ffff16815181106125c3576125c3613688565b60200260200101516001600160a01b03166001600160a01b0316815260200190815260200160002081905550818161ffff168151811061260557612605613688565b602002602001015160065461261a919061369e565b6006558061262781613868565b915050612517565b6000610b168383612b8c565b6000610717825490565b6000610b168383612bdb565b63ffffffff821660009081526020819052604090206001015482906126885760405162461bcd60e51b81526004016101ad90613600565b61ffff821661269657600080fd5b63ffffffff8316600090815260208190526040902060020154610100900460ff1661274c5763ffffffff8084166000908152602081815260408083206001600160a01b03891684526005019091529020546126f79161ffff85169116613950565b63ffffffff1660011461274c5760405162461bcd60e51b815260206004820152601960248201527f4d6178696d756d207175616e746974792065786365656465640000000000000060448201526064016101ad565b63ffffffff8084166000908152602081815260408083206001600160a01b03891684526005019091528120805461ffff86169391929161278e91859116613950565b92506101000a81548163ffffffff021916908363ffffffff1602179055506000808463ffffffff1663ffffffff16815260200190815260200160002060020160029054906101000a900460ff166128aa5763ffffffff808416600090815260208190526040902060020154630100000090041661ffff831611156128545760405162461bcd60e51b815260206004820152601860248201527f417661696c61626c6520756e697473206578636565646564000000000000000060448201526064016101ad565b63ffffffff8084166000908152602081905260409020600201805461ffff85169260039161288b9185916301000000900416613978565b92506101000a81548163ffffffff021916908363ffffffff1602179055505b63ffffffff831660009081526020819052604081206006015415612b0b5760005b63ffffffff851660009081526020819052604090206006015460ff82161015612b095763ffffffff85166000908152602081905260408120600601805460ff841690811061291b5761291b613688565b600091825260208083209091015463ffffffff8916835282825260408084206001600160a01b03909216808552600790920190925290822080549193509060ff851690811061296c5761296c613688565b60009182526020822060088204015460405163bfe5d83560e01b8152600790921660049081026101000a90910463ffffffff16908201819052925083919061ffff8916906001600160a01b0384169063bfe5d8359060240160206040518083038186803b1580156129dc57600080fd5b505afa1580156129f0573d6000803e3d6000fd5b505050506040513d601f19601f82011682018060405250810190612a14919061388a565b612a1e9190612cde565b60045460405160248101919091526001600160a01b038c8116604483015263ffffffff8616606483015261ffff8b166084830152919250600091861690839060a40160408051601f198184030181529181526020820180516001600160e01b0316630d4a9d5b60e31b17905251612a95919061399d565b60006040518083038185875af1925050503d8060008114612ad2576040519150601f19603f3d011682016040523d82523d6000602084013e612ad7565b606091505b5050905080612ae557600080fd5b612aef828861369e565b965050505050508080612b0190613745565b9150506128cb565b505b612b1e30612b1983346136b6565b6105c8565b6040805161ffff8516815234602082015263ffffffff8616916001600160a01b038816917fcb35e6328d171aabe8c666c3fcc2ba3401887c5504bf5dfaa8b8c3be5ced01bc910160405180910390a35050505050565b60008181526001830160205260408120541515610b16565b6000818152600183016020526040812054612bd357508154600181810184556000848152602080822090930184905584548482528286019093526040902091909155610717565b506000610717565b6000826000018281548110612bf257612bf2613688565b9060005260206000200154905092915050565b828054612c11906136cd565b90600052602060002090601f016020900481019282612c335760008555612c79565b82601f10612c4c57805160ff1916838001178555612c79565b82800160010185558215612c79579182015b82811115612c79578251825591602001919060010190612c5e565b50612c85929150612c89565b5090565b5b80821115612c855760008155600101612c8a565b60208082526010908201526f14185d5cd8589b194e881c185d5cd95960821b604082015260600190565b634e487b7160e01b600052601160045260246000fd5b6000816000190483118215151615612cf857612cf8612cc8565b500290565b600082612d1a57634e487b7160e01b600052601260045260246000fd5b500490565b600060208284031215612d3157600080fd5b81356001600160e01b031981168114610b1657600080fd5b803563ffffffff81168114612d5d57600080fd5b919050565b600060208284031215612d7457600080fd5b610b1682612d49565b6001600160a01b0381168114612d9257600080fd5b50565b634e487b7160e01b600052604160045260246000fd5b604051601f8201601f1916810167ffffffffffffffff81118282101715612dd457612dd4612d95565b604052919050565b600082601f830112612ded57600080fd5b813567ffffffffffffffff811115612e0757612e07612d95565b612e1a601f8201601f1916602001612dab565b818152846020838601011115612e2f57600080fd5b816020850160208301376000918101602001919091529392505050565b60008060008060808587031215612e6257600080fd5b8435612e6d81612d7d565b93506020850135612e7d81612d7d565b925060408501359150606085013567ffffffffffffffff811115612ea057600080fd5b612eac87828801612ddc565b91505092959194509250565b600060208284031215612eca57600080fd5b8135610b1681612d7d565b60005b83811015612ef0578181015183820152602001612ed8565b838111156114765750506000910152565b60008151808452612f19816020860160208601612ed5565b601f01601f19169290920160200192915050565b828152604060208201526000612f466040830184612f01565b949350505050565b600060208284031215612f6057600080fd5b5035919050565b8015158114612d9257600080fd5b8035612d5d81612f67565b600067ffffffffffffffff821115612f9a57612f9a612d95565b5060051b60200190565b600082601f830112612fb557600080fd5b81356020612fca612fc583612f80565b612dab565b82815260059290921b84018101918181019086841115612fe957600080fd5b8286015b848110156130045780358352918301918301612fed565b509695505050505050565b600082601f83011261302057600080fd5b81356020613030612fc583612f80565b82815260059290921b8401810191818101908684111561304f57600080fd5b8286015b848110156130045761306481612d49565b8352918301918301613053565b6000806000806000806000806000806101408b8d03121561309157600080fd5b61309a8b612d49565b995060208b013598506130af60408c01612f75565b97506130bd60608c01612f75565b96506130cb60808c01612f75565b95506130d960a08c01612d49565b945060c08b013567ffffffffffffffff808211156130f657600080fd5b6131028e838f01612ddc565b955060e08d013591508082111561311857600080fd5b6131248e838f01612ddc565b94506101008d013591508082111561313b57600080fd5b6131478e838f01612fa4565b93506101208d013591508082111561315e57600080fd5b5061316b8d828e0161300f565b9150509295989b9194979a5092959850565b803561ffff81168114612d5d57600080fd5b600080600080608085870312156131a557600080fd5b8435935060208501356131b781612d7d565b92506131c560408601612d49565b91506131d36060860161317d565b905092959194509250565b600080604083850312156131f157600080fd5b6131fa83612d49565b915061320860208401612d49565b90509250929050565b6000806040838503121561322457600080fd5b823567ffffffffffffffff8082111561323c57600080fd5b6132488683870161300f565b935060209150818501358181111561325f57600080fd5b85019050601f8101861361327257600080fd5b8035613280612fc582612f80565b81815260059190911b8201830190838101908883111561329f57600080fd5b928401925b828410156132c4576132b58461317d565b825292840192908401906132a4565b80955050505050509250929050565b600080600080608085870312156132e957600080fd5b6132f285612d49565b9350602085013561330281612f67565b925061331060408601612d49565b9396929550929360600135925050565b60008060006060848603121561333557600080fd5b833561334081612d7d565b9250602084013561335081612d7d565b929592945050506040919091013590565b600080600080600060a0868803121561337957600080fd5b853561338481612d7d565b9450602086013561339481612d7d565b9350604086013567ffffffffffffffff808211156133b157600080fd5b6133bd89838a01612fa4565b945060608801359150808211156133d357600080fd5b6133df89838a01612fa4565b935060808801359150808211156133f557600080fd5b5061340288828901612ddc565b9150509295509295909350565b60008060006060848603121561342457600080fd5b833561342f81612d7d565b925061343d60208501612d49565b915061344b6040850161317d565b90509250925092565b6000806040838503121561346757600080fd5b61347083612d49565b9150602083013561348081612f67565b809150509250929050565b600080600080600060a086880312156134a357600080fd5b85356134ae81612d7d565b945060208601356134be81612d7d565b93506040860135925060608601359150608086013567ffffffffffffffff8111156134e857600080fd5b61340288828901612ddc565b6000806000806080858703121561350a57600080fd5b84359350602085013561351c81612d7d565b925060408501359150606085013561353381612f67565b939692955090935050565b6000806040838503121561355157600080fd5b823567ffffffffffffffff8082111561356957600080fd5b818501915085601f83011261357d57600080fd5b8135602061358d612fc583612f80565b82815260059290921b840181019181810190898411156135ac57600080fd5b948201945b838610156135d35785356135c481612d7d565b825294820194908201906135b1565b965050860135925050808211156135e957600080fd5b506135f685828601612fa4565b9150509250929050565b602080825260159082015274141c9bd91d58dd08191bd95cdb89dd08195e1a5cdd605a1b604082015260600190565b60208082526014908201527313db9b1e4818dc99585d1bdc88185b1b1bddd95960621b604082015260600190565b6020808252601190820152704e6f7420656e6f75676820736c6963657360781b604082015260600190565b634e487b7160e01b600052603260045260246000fd5b600082198211156136b1576136b1612cc8565b500190565b6000828210156136c8576136c8612cc8565b500390565b600181811c908216806136e157607f821691505b6020821081141561205157634e487b7160e01b600052602260045260246000fd5b6020808252600c908201526b155b985d5d1a1bdc9a5e995960a21b604082015260600190565b60006020828403121561373a57600080fd5b8151610b1681612d7d565b600060ff821660ff81141561375c5761375c612cc8565b60010192915050565b600081518084526020808501945080840160005b8381101561379557815187529582019590820190600101613779565b509495945050505050565b600081518084526020808501945080840160005b8381101561379557815163ffffffff16875295820195908201906001016137b4565b60006101008a835289151560208401528815156040840152871515606084015263ffffffff871660808401528060a084015261381481840187612f01565b905082810360c08401526138288186613765565b905082810360e084015261383c81856137a0565b9b9a5050505050505050505050565b60006020828403121561385d57600080fd5b8151610b1681612f67565b600061ffff8083168181141561388057613880612cc8565b6001019392505050565b60006020828403121561389c57600080fd5b5051919050565b6060815260006138b660608301866137a0565b82810360208481019190915285518083528682019282019060005b818110156138f157845161ffff16835293830193918301916001016138d1565b5050809350505050826040830152949350505050565b600060001982141561391b5761391b612cc8565b5060010190565b6040815260006139356040830185613765565b82810360208401526139478185613765565b95945050505050565b600063ffffffff80831681851680830382111561396f5761396f612cc8565b01949350505050565b600063ffffffff8381169083168181101561399557613995612cc8565b039392505050565b600082516139af818460208701612ed5565b919091019291505056fea26469706673582212206a0ceae79a2be9fa891e458b069e08ca28241cb7759f145e4a479ce7d9d315bd64736f6c63430008080033",
  "linkReferences": {},
  "deployedLinkReferences": {}
}