{
  "_format": "hh-sol-artifact-1",
  "contractName": "ProductsModule",
  "sourceName": "contracts/ProductsModule.sol",
  "abi": [
    {
      "inputs": [],
      "stateMutability": "nonpayable",
      "type": "constructor"
    },
    {
      "inputs": [],
      "name": "ActiveListing",
      "type": "error"
    },
    {
      "inputs": [],
      "name": "ExceedsMaxValue",
      "type": "error"
    },
    {
      "inputs": [],
      "name": "InexistentPool",
      "type": "error"
    },
    {
      "inputs": [],
      "name": "InexistentProduct",
      "type": "error"
    },
    {
      "inputs": [],
      "name": "Invalid",
      "type": "error"
    },
    {
      "inputs": [],
      "name": "InvalidCategory",
      "type": "error"
    },
    {
      "inputs": [],
      "name": "NoDelegatecall",
      "type": "error"
    },
    {
      "inputs": [],
      "name": "NotAuthorized",
      "type": "error"
    },
    {
      "inputs": [],
      "name": "NotPurchased",
      "type": "error"
    },
    {
      "inputs": [],
      "name": "NotSuccessful",
      "type": "error"
    },
    {
      "inputs": [],
      "name": "StoreNotOpen",
      "type": "error"
    },
    {
      "inputs": [],
      "name": "TooSoon",
      "type": "error"
    },
    {
      "inputs": [],
      "name": "WrongCurrency",
      "type": "error"
    },
    {
      "anonymous": false,
      "inputs": [
        {
          "indexed": false,
          "internalType": "address",
          "name": "previousAdmin",
          "type": "address"
        },
        {
          "indexed": false,
          "internalType": "address",
          "name": "newAdmin",
          "type": "address"
        }
      ],
      "name": "AdminChanged",
      "type": "event"
    },
    {
      "anonymous": false,
      "inputs": [
        {
          "indexed": true,
          "internalType": "address",
          "name": "beacon",
          "type": "address"
        }
      ],
      "name": "BeaconUpgraded",
      "type": "event"
    },
    {
      "anonymous": false,
      "inputs": [
        {
          "indexed": false,
          "internalType": "uint256",
          "name": "categoryId",
          "type": "uint256"
        },
        {
          "indexed": false,
          "internalType": "uint16",
          "name": "parentCategoryId",
          "type": "uint16"
        },
        {
          "indexed": false,
          "internalType": "string",
          "name": "name",
          "type": "string"
        }
      ],
      "name": "CategorySet",
      "type": "event"
    },
    {
      "anonymous": false,
      "inputs": [
        {
          "indexed": true,
          "internalType": "uint256",
          "name": "slicerId",
          "type": "uint256"
        },
        {
          "indexed": true,
          "internalType": "address",
          "name": "contractAddress",
          "type": "address"
        },
        {
          "indexed": true,
          "internalType": "uint256",
          "name": "tokenId",
          "type": "uint256"
        },
        {
          "indexed": false,
          "internalType": "uint256",
          "name": "currentAmount",
          "type": "uint256"
        }
      ],
      "name": "ERC1155ListingChanged",
      "type": "event"
    },
    {
      "anonymous": false,
      "inputs": [
        {
          "indexed": true,
          "internalType": "uint256",
          "name": "slicerId",
          "type": "uint256"
        },
        {
          "indexed": true,
          "internalType": "address",
          "name": "contractAddress",
          "type": "address"
        },
        {
          "indexed": true,
          "internalType": "uint256",
          "name": "tokenId",
          "type": "uint256"
        },
        {
          "indexed": false,
          "internalType": "bool",
          "name": "isActive",
          "type": "bool"
        }
      ],
      "name": "ERC721ListingChanged",
      "type": "event"
    },
    {
      "anonymous": false,
      "inputs": [
        {
          "indexed": true,
          "internalType": "address",
          "name": "currency",
          "type": "address"
        },
        {
          "indexed": true,
          "internalType": "address",
          "name": "recipient",
          "type": "address"
        },
        {
          "indexed": true,
          "internalType": "uint256",
          "name": "amount",
          "type": "uint256"
        },
        {
          "indexed": false,
          "internalType": "string",
          "name": "description",
          "type": "string"
        }
      ],
      "name": "ExtraCostPaid",
      "type": "event"
    },
    {
      "anonymous": false,
      "inputs": [
        {
          "indexed": false,
          "internalType": "uint8",
          "name": "version",
          "type": "uint8"
        }
      ],
      "name": "Initialized",
      "type": "event"
    },
    {
      "anonymous": false,
      "inputs": [
        {
          "indexed": true,
          "internalType": "address",
          "name": "previousOwner",
          "type": "address"
        },
        {
          "indexed": true,
          "internalType": "address",
          "name": "newOwner",
          "type": "address"
        }
      ],
      "name": "OwnershipTransferred",
      "type": "event"
    },
    {
      "anonymous": false,
      "inputs": [
        {
          "indexed": false,
          "internalType": "address",
          "name": "account",
          "type": "address"
        }
      ],
      "name": "Paused",
      "type": "event"
    },
    {
      "anonymous": false,
      "inputs": [
        {
          "indexed": true,
          "internalType": "uint256",
          "name": "slicerId",
          "type": "uint256"
        },
        {
          "indexed": true,
          "internalType": "uint256",
          "name": "productId",
          "type": "uint256"
        },
        {
          "indexed": false,
          "internalType": "address",
          "name": "creator",
          "type": "address"
        },
        {
          "components": [
            {
              "components": [
                {
                  "internalType": "uint128",
                  "name": "subSlicerId",
                  "type": "uint128"
                },
                {
                  "internalType": "uint32",
                  "name": "subProductId",
                  "type": "uint32"
                }
              ],
              "internalType": "struct SubSlicerProduct[]",
              "name": "subSlicerProducts",
              "type": "tuple[]"
            },
            {
              "components": [
                {
                  "internalType": "uint248",
                  "name": "value",
                  "type": "uint248"
                },
                {
                  "internalType": "bool",
                  "name": "dynamicPricing",
                  "type": "bool"
                },
                {
                  "internalType": "address",
                  "name": "externalAddress",
                  "type": "address"
                },
                {
                  "internalType": "address",
                  "name": "currency",
                  "type": "address"
                }
              ],
              "internalType": "struct CurrencyPrice[]",
              "name": "currencyPrices",
              "type": "tuple[]"
            },
            {
              "internalType": "bytes",
              "name": "data",
              "type": "bytes"
            },
            {
              "internalType": "bytes",
              "name": "purchaseData",
              "type": "bytes"
            },
            {
              "internalType": "uint32",
              "name": "availableUnits",
              "type": "uint32"
            },
            {
              "internalType": "uint16",
              "name": "categoryId",
              "type": "uint16"
            },
            {
              "internalType": "uint8",
              "name": "maxUnitsPerBuyer",
              "type": "uint8"
            },
            {
              "internalType": "bool",
              "name": "isFree",
              "type": "bool"
            },
            {
              "internalType": "bool",
              "name": "isInfinite",
              "type": "bool"
            },
            {
              "internalType": "bool",
              "name": "isExternalCallPaymentRelative",
              "type": "bool"
            },
            {
              "internalType": "bool",
              "name": "isExternalCallPreferredToken",
              "type": "bool"
            },
            {
              "internalType": "uint256",
              "name": "referralFeeProduct",
              "type": "uint256"
            }
          ],
          "indexed": false,
          "internalType": "struct ProductParams",
          "name": "params",
          "type": "tuple"
        },
        {
          "components": [
            {
              "internalType": "bytes",
              "name": "data",
              "type": "bytes"
            },
            {
              "internalType": "uint256",
              "name": "value",
              "type": "uint256"
            },
            {
              "internalType": "address",
              "name": "externalAddress",
              "type": "address"
            },
            {
              "internalType": "bytes4",
              "name": "checkFunctionSignature",
              "type": "bytes4"
            },
            {
              "internalType": "bytes4",
              "name": "execFunctionSignature",
              "type": "bytes4"
            }
          ],
          "indexed": false,
          "internalType": "struct Function",
          "name": "externalCall",
          "type": "tuple"
        }
      ],
      "name": "ProductAdded",
      "type": "event"
    },
    {
      "anonymous": false,
      "inputs": [
        {
          "indexed": true,
          "internalType": "uint256",
          "name": "slicerId",
          "type": "uint256"
        },
        {
          "indexed": true,
          "internalType": "uint256",
          "name": "productId",
          "type": "uint256"
        },
        {
          "components": [
            {
              "internalType": "bytes",
              "name": "data",
              "type": "bytes"
            },
            {
              "internalType": "uint256",
              "name": "value",
              "type": "uint256"
            },
            {
              "internalType": "address",
              "name": "externalAddress",
              "type": "address"
            },
            {
              "internalType": "bytes4",
              "name": "checkFunctionSignature",
              "type": "bytes4"
            },
            {
              "internalType": "bytes4",
              "name": "execFunctionSignature",
              "type": "bytes4"
            }
          ],
          "indexed": false,
          "internalType": "struct Function",
          "name": "externalCall",
          "type": "tuple"
        }
      ],
      "name": "ProductExternalCallUpdated",
      "type": "event"
    },
    {
      "anonymous": false,
      "inputs": [
        {
          "components": [
            {
              "internalType": "uint256",
              "name": "slicerId",
              "type": "uint256"
            },
            {
              "internalType": "uint256",
              "name": "productId",
              "type": "uint256"
            },
            {
              "internalType": "uint8",
              "name": "newMaxUnits",
              "type": "uint8"
            },
            {
              "internalType": "bool",
              "name": "isFree",
              "type": "bool"
            },
            {
              "internalType": "bool",
              "name": "isInfinite",
              "type": "bool"
            },
            {
              "internalType": "uint32",
              "name": "newUnits",
              "type": "uint32"
            },
            {
              "internalType": "uint256",
              "name": "referralFeeProduct",
              "type": "uint256"
            },
            {
              "internalType": "uint256",
              "name": "categoryId",
              "type": "uint256"
            }
          ],
          "indexed": false,
          "internalType": "struct EditProductParams",
          "name": "params",
          "type": "tuple"
        },
        {
          "indexed": false,
          "internalType": "uint256",
          "name": "newUnits",
          "type": "uint256"
        },
        {
          "components": [
            {
              "internalType": "uint248",
              "name": "value",
              "type": "uint248"
            },
            {
              "internalType": "bool",
              "name": "dynamicPricing",
              "type": "bool"
            },
            {
              "internalType": "address",
              "name": "externalAddress",
              "type": "address"
            },
            {
              "internalType": "address",
              "name": "currency",
              "type": "address"
            }
          ],
          "indexed": false,
          "internalType": "struct CurrencyPrice[]",
          "name": "currencyPrices",
          "type": "tuple[]"
        }
      ],
      "name": "ProductInfoChanged",
      "type": "event"
    },
    {
      "anonymous": false,
      "inputs": [
        {
          "indexed": true,
          "internalType": "uint256",
          "name": "slicerId",
          "type": "uint256"
        },
        {
          "indexed": true,
          "internalType": "uint256",
          "name": "productId",
          "type": "uint256"
        },
        {
          "indexed": false,
          "internalType": "uint256",
          "name": "quantity",
          "type": "uint256"
        },
        {
          "indexed": true,
          "internalType": "address",
          "name": "buyer",
          "type": "address"
        },
        {
          "indexed": false,
          "internalType": "address",
          "name": "currency",
          "type": "address"
        },
        {
          "components": [
            {
              "internalType": "uint256",
              "name": "eth",
              "type": "uint256"
            },
            {
              "internalType": "uint256",
              "name": "currency",
              "type": "uint256"
            },
            {
              "internalType": "uint256",
              "name": "ethExternalCall",
              "type": "uint256"
            },
            {
              "internalType": "uint256",
              "name": "currencyExternalCall",
              "type": "uint256"
            }
          ],
          "indexed": false,
          "internalType": "struct Price",
          "name": "price",
          "type": "tuple"
        },
        {
          "indexed": false,
          "internalType": "address",
          "name": "referrer",
          "type": "address"
        },
        {
          "indexed": false,
          "internalType": "uint256",
          "name": "parentSlicerId",
          "type": "uint256"
        },
        {
          "indexed": false,
          "internalType": "uint256",
          "name": "parentProductId",
          "type": "uint256"
        }
      ],
      "name": "ProductPaid",
      "type": "event"
    },
    {
      "anonymous": false,
      "inputs": [
        {
          "indexed": true,
          "internalType": "uint256",
          "name": "slicerId",
          "type": "uint256"
        },
        {
          "indexed": true,
          "internalType": "uint256",
          "name": "productId",
          "type": "uint256"
        }
      ],
      "name": "ProductRemoved",
      "type": "event"
    },
    {
      "anonymous": false,
      "inputs": [
        {
          "indexed": true,
          "internalType": "address",
          "name": "buyer",
          "type": "address"
        }
      ],
      "name": "PurchaseMade",
      "type": "event"
    },
    {
      "anonymous": false,
      "inputs": [
        {
          "indexed": true,
          "internalType": "uint256",
          "name": "slicerId",
          "type": "uint256"
        },
        {
          "indexed": false,
          "internalType": "uint256",
          "name": "ethToRelease",
          "type": "uint256"
        }
      ],
      "name": "ReleasedToSlicer",
      "type": "event"
    },
    {
      "anonymous": false,
      "inputs": [
        {
          "indexed": true,
          "internalType": "uint256",
          "name": "slicerId",
          "type": "uint256"
        },
        {
          "indexed": false,
          "internalType": "bool",
          "name": "isStoreClosed",
          "type": "bool"
        },
        {
          "indexed": false,
          "internalType": "uint256",
          "name": "referralFeeStore",
          "type": "uint256"
        }
      ],
      "name": "StoreConfigChanged",
      "type": "event"
    },
    {
      "anonymous": false,
      "inputs": [
        {
          "indexed": false,
          "internalType": "address",
          "name": "account",
          "type": "address"
        }
      ],
      "name": "Unpaused",
      "type": "event"
    },
    {
      "anonymous": false,
      "inputs": [
        {
          "indexed": true,
          "internalType": "address",
          "name": "implementation",
          "type": "address"
        }
      ],
      "name": "Upgraded",
      "type": "event"
    },
    {
      "inputs": [],
      "name": "MINT_PRODUCT_AMOUNT",
      "outputs": [
        {
          "internalType": "uint256",
          "name": "",
          "type": "uint256"
        }
      ],
      "stateMutability": "view",
      "type": "function"
    },
    {
      "inputs": [
        {
          "internalType": "uint256",
          "name": "categoryId",
          "type": "uint256"
        },
        {
          "internalType": "uint16",
          "name": "parentCategoryId",
          "type": "uint16"
        },
        {
          "internalType": "string",
          "name": "name",
          "type": "string"
        }
      ],
      "name": "_setCategory",
      "outputs": [],
      "stateMutability": "nonpayable",
      "type": "function"
    },
    {
      "inputs": [
        {
          "internalType": "uint256",
          "name": "slicerId",
          "type": "uint256"
        },
        {
          "internalType": "bool",
          "name": "isClosed",
          "type": "bool"
        },
        {
          "internalType": "uint256",
          "name": "referralFeeStore",
          "type": "uint256"
        }
      ],
      "name": "_setStoreConfig",
      "outputs": [],
      "stateMutability": "nonpayable",
      "type": "function"
    },
    {
      "inputs": [
        {
          "internalType": "uint256",
          "name": "slicerId",
          "type": "uint256"
        },
        {
          "components": [
            {
              "components": [
                {
                  "internalType": "uint128",
                  "name": "subSlicerId",
                  "type": "uint128"
                },
                {
                  "internalType": "uint32",
                  "name": "subProductId",
                  "type": "uint32"
                }
              ],
              "internalType": "struct SubSlicerProduct[]",
              "name": "subSlicerProducts",
              "type": "tuple[]"
            },
            {
              "components": [
                {
                  "internalType": "uint248",
                  "name": "value",
                  "type": "uint248"
                },
                {
                  "internalType": "bool",
                  "name": "dynamicPricing",
                  "type": "bool"
                },
                {
                  "internalType": "address",
                  "name": "externalAddress",
                  "type": "address"
                },
                {
                  "internalType": "address",
                  "name": "currency",
                  "type": "address"
                }
              ],
              "internalType": "struct CurrencyPrice[]",
              "name": "currencyPrices",
              "type": "tuple[]"
            },
            {
              "internalType": "bytes",
              "name": "data",
              "type": "bytes"
            },
            {
              "internalType": "bytes",
              "name": "purchaseData",
              "type": "bytes"
            },
            {
              "internalType": "uint32",
              "name": "availableUnits",
              "type": "uint32"
            },
            {
              "internalType": "uint16",
              "name": "categoryId",
              "type": "uint16"
            },
            {
              "internalType": "uint8",
              "name": "maxUnitsPerBuyer",
              "type": "uint8"
            },
            {
              "internalType": "bool",
              "name": "isFree",
              "type": "bool"
            },
            {
              "internalType": "bool",
              "name": "isInfinite",
              "type": "bool"
            },
            {
              "internalType": "bool",
              "name": "isExternalCallPaymentRelative",
              "type": "bool"
            },
            {
              "internalType": "bool",
              "name": "isExternalCallPreferredToken",
              "type": "bool"
            },
            {
              "internalType": "uint256",
              "name": "referralFeeProduct",
              "type": "uint256"
            }
          ],
          "internalType": "struct ProductParams",
          "name": "params",
          "type": "tuple"
        },
        {
          "components": [
            {
              "internalType": "bytes",
              "name": "data",
              "type": "bytes"
            },
            {
              "internalType": "uint256",
              "name": "value",
              "type": "uint256"
            },
            {
              "internalType": "address",
              "name": "externalAddress",
              "type": "address"
            },
            {
              "internalType": "bytes4",
              "name": "checkFunctionSignature",
              "type": "bytes4"
            },
            {
              "internalType": "bytes4",
              "name": "execFunctionSignature",
              "type": "bytes4"
            }
          ],
          "internalType": "struct Function",
          "name": "externalCall_",
          "type": "tuple"
        }
      ],
      "name": "addProduct",
      "outputs": [],
      "stateMutability": "nonpayable",
      "type": "function"
    },
    {
      "inputs": [
        {
          "internalType": "uint256",
          "name": "slicerId",
          "type": "uint256"
        },
        {
          "internalType": "uint256",
          "name": "productId",
          "type": "uint256"
        }
      ],
      "name": "availableUnits",
      "outputs": [
        {
          "internalType": "uint256",
          "name": "units",
          "type": "uint256"
        },
        {
          "internalType": "bool",
          "name": "isInfinite",
          "type": "bool"
        }
      ],
      "stateMutability": "view",
      "type": "function"
    },
    {
      "inputs": [
        {
          "internalType": "uint256",
          "name": "",
          "type": "uint256"
        }
      ],
      "name": "categories",
      "outputs": [
        {
          "internalType": "string",
          "name": "name",
          "type": "string"
        },
        {
          "internalType": "uint16",
          "name": "parentCategoryId",
          "type": "uint16"
        }
      ],
      "stateMutability": "view",
      "type": "function"
    },
    {
      "inputs": [],
      "name": "fundsModule",
      "outputs": [
        {
          "internalType": "contract IFundsModule",
          "name": "",
          "type": "address"
        }
      ],
      "stateMutability": "view",
      "type": "function"
    },
    {
      "inputs": [],
      "name": "initialize",
      "outputs": [],
      "stateMutability": "nonpayable",
      "type": "function"
    },
    {
      "inputs": [
        {
          "internalType": "uint256",
          "name": "slicerId",
          "type": "uint256"
        },
        {
          "internalType": "uint256",
          "name": "productId",
          "type": "uint256"
        },
        {
          "internalType": "address",
          "name": "account",
          "type": "address"
        }
      ],
      "name": "isProductOwner",
      "outputs": [
        {
          "internalType": "bool",
          "name": "isAllowed",
          "type": "bool"
        }
      ],
      "stateMutability": "view",
      "type": "function"
    },
    {
      "inputs": [
        {
          "internalType": "bytes[]",
          "name": "data",
          "type": "bytes[]"
        }
      ],
      "name": "multicall",
      "outputs": [
        {
          "internalType": "bytes[]",
          "name": "results",
          "type": "bytes[]"
        }
      ],
      "stateMutability": "nonpayable",
      "type": "function"
    },
    {
      "inputs": [
        {
          "internalType": "uint256",
          "name": "slicerId",
          "type": "uint256"
        }
      ],
      "name": "nextProductId",
      "outputs": [
        {
          "internalType": "uint256",
          "name": "",
          "type": "uint256"
        }
      ],
      "stateMutability": "view",
      "type": "function"
    },
    {
      "inputs": [],
      "name": "owner",
      "outputs": [
        {
          "internalType": "address",
          "name": "",
          "type": "address"
        }
      ],
      "stateMutability": "view",
      "type": "function"
    },
    {
      "inputs": [],
      "name": "paused",
      "outputs": [
        {
          "internalType": "bool",
          "name": "",
          "type": "bool"
        }
      ],
      "stateMutability": "view",
      "type": "function"
    },
    {
      "inputs": [
        {
          "components": [
            {
              "internalType": "address",
              "name": "buyer",
              "type": "address"
            },
            {
              "internalType": "uint128",
              "name": "slicerId",
              "type": "uint128"
            },
            {
              "internalType": "uint32",
              "name": "quantity",
              "type": "uint32"
            },
            {
              "internalType": "address",
              "name": "currency",
              "type": "address"
            },
            {
              "internalType": "uint32",
              "name": "productId",
              "type": "uint32"
            },
            {
              "internalType": "bytes",
              "name": "buyerCustomData",
              "type": "bytes"
            }
          ],
          "internalType": "struct PurchaseParams[]",
          "name": "purchases",
          "type": "tuple[]"
        },
        {
          "components": [
            {
              "internalType": "address",
              "name": "recipient",
              "type": "address"
            },
            {
              "internalType": "uint128",
              "name": "slicerId",
              "type": "uint128"
            },
            {
              "internalType": "uint128",
              "name": "amount",
              "type": "uint128"
            },
            {
              "internalType": "address",
              "name": "currency",
              "type": "address"
            },
            {
              "internalType": "string",
              "name": "description",
              "type": "string"
            }
          ],
          "internalType": "struct ExtraCost[]",
          "name": "extraCosts",
          "type": "tuple[]"
        },
        {
          "internalType": "address",
          "name": "referrer",
          "type": "address"
        }
      ],
      "name": "payProducts",
      "outputs": [],
      "stateMutability": "payable",
      "type": "function"
    },
    {
      "inputs": [
        {
          "components": [
            {
              "internalType": "address",
              "name": "buyer",
              "type": "address"
            },
            {
              "internalType": "uint128",
              "name": "slicerId",
              "type": "uint128"
            },
            {
              "internalType": "uint32",
              "name": "quantity",
              "type": "uint32"
            },
            {
              "internalType": "address",
              "name": "currency",
              "type": "address"
            },
            {
              "internalType": "uint32",
              "name": "productId",
              "type": "uint32"
            },
            {
              "internalType": "bytes",
              "name": "buyerCustomData",
              "type": "bytes"
            }
          ],
          "internalType": "struct PurchaseParams[]",
          "name": "purchases",
          "type": "tuple[]"
        },
        {
          "components": [
            {
              "internalType": "address",
              "name": "recipient",
              "type": "address"
            },
            {
              "internalType": "uint128",
              "name": "slicerId",
              "type": "uint128"
            },
            {
              "internalType": "uint128",
              "name": "amount",
              "type": "uint128"
            },
            {
              "internalType": "address",
              "name": "currency",
              "type": "address"
            },
            {
              "internalType": "string",
              "name": "description",
              "type": "string"
            }
          ],
          "internalType": "struct ExtraCost[]",
          "name": "extraCosts",
          "type": "tuple[]"
        },
        {
          "internalType": "address",
          "name": "referrer",
          "type": "address"
        },
        {
          "internalType": "address",
          "name": "buyer",
          "type": "address"
        }
      ],
      "name": "payProducts",
      "outputs": [],
      "stateMutability": "payable",
      "type": "function"
    },
    {
      "inputs": [
        {
          "components": [
            {
              "internalType": "address",
              "name": "buyer",
              "type": "address"
            },
            {
              "internalType": "uint128",
              "name": "slicerId",
              "type": "uint128"
            },
            {
              "internalType": "uint32",
              "name": "quantity",
              "type": "uint32"
            },
            {
              "internalType": "address",
              "name": "currency",
              "type": "address"
            },
            {
              "internalType": "uint32",
              "name": "productId",
              "type": "uint32"
            },
            {
              "internalType": "bytes",
              "name": "buyerCustomData",
              "type": "bytes"
            }
          ],
          "internalType": "struct PurchaseParams[]",
          "name": "purchases",
          "type": "tuple[]"
        }
      ],
      "name": "payProducts",
      "outputs": [],
      "stateMutability": "payable",
      "type": "function"
    },
    {
      "inputs": [
        {
          "components": [
            {
              "internalType": "address",
              "name": "buyer",
              "type": "address"
            },
            {
              "internalType": "uint128",
              "name": "slicerId",
              "type": "uint128"
            },
            {
              "internalType": "uint32",
              "name": "quantity",
              "type": "uint32"
            },
            {
              "internalType": "address",
              "name": "currency",
              "type": "address"
            },
            {
              "internalType": "uint32",
              "name": "productId",
              "type": "uint32"
            },
            {
              "internalType": "bytes",
              "name": "buyerCustomData",
              "type": "bytes"
            }
          ],
          "internalType": "struct PurchaseParams[]",
          "name": "purchases",
          "type": "tuple[]"
        },
        {
          "components": [
            {
              "internalType": "address",
              "name": "from",
              "type": "address"
            },
            {
              "internalType": "uint256",
              "name": "value",
              "type": "uint256"
            },
            {
              "internalType": "uint256",
              "name": "validAfter",
              "type": "uint256"
            },
            {
              "internalType": "uint256",
              "name": "validBefore",
              "type": "uint256"
            },
            {
              "internalType": "bytes32",
              "name": "nonce",
              "type": "bytes32"
            },
            {
              "internalType": "uint8",
              "name": "v",
              "type": "uint8"
            },
            {
              "internalType": "bytes32",
              "name": "r",
              "type": "bytes32"
            },
            {
              "internalType": "bytes32",
              "name": "s",
              "type": "bytes32"
            }
          ],
          "internalType": "struct PayWithAuthorizationParams",
          "name": "authorizationParams",
          "type": "tuple"
        },
        {
          "components": [
            {
              "internalType": "address",
              "name": "recipient",
              "type": "address"
            },
            {
              "internalType": "uint128",
              "name": "slicerId",
              "type": "uint128"
            },
            {
              "internalType": "uint128",
              "name": "amount",
              "type": "uint128"
            },
            {
              "internalType": "address",
              "name": "currency",
              "type": "address"
            },
            {
              "internalType": "string",
              "name": "description",
              "type": "string"
            }
          ],
          "internalType": "struct ExtraCost[]",
          "name": "extraCosts",
          "type": "tuple[]"
        },
        {
          "internalType": "address",
          "name": "referrer",
          "type": "address"
        },
        {
          "internalType": "contract IERC20Permit",
          "name": "currency",
          "type": "address"
        }
      ],
      "name": "payWithAuthorization",
      "outputs": [],
      "stateMutability": "payable",
      "type": "function"
    },
    {
      "inputs": [
        {
          "components": [
            {
              "internalType": "address",
              "name": "buyer",
              "type": "address"
            },
            {
              "internalType": "uint128",
              "name": "slicerId",
              "type": "uint128"
            },
            {
              "internalType": "uint32",
              "name": "quantity",
              "type": "uint32"
            },
            {
              "internalType": "address",
              "name": "currency",
              "type": "address"
            },
            {
              "internalType": "uint32",
              "name": "productId",
              "type": "uint32"
            },
            {
              "internalType": "bytes",
              "name": "buyerCustomData",
              "type": "bytes"
            }
          ],
          "internalType": "struct PurchaseParams[]",
          "name": "purchases",
          "type": "tuple[]"
        },
        {
          "components": [
            {
              "internalType": "address",
              "name": "from",
              "type": "address"
            },
            {
              "internalType": "uint256",
              "name": "value",
              "type": "uint256"
            },
            {
              "internalType": "uint256",
              "name": "validAfter",
              "type": "uint256"
            },
            {
              "internalType": "uint256",
              "name": "validBefore",
              "type": "uint256"
            },
            {
              "internalType": "bytes32",
              "name": "nonce",
              "type": "bytes32"
            },
            {
              "internalType": "uint8",
              "name": "v",
              "type": "uint8"
            },
            {
              "internalType": "bytes32",
              "name": "r",
              "type": "bytes32"
            },
            {
              "internalType": "bytes32",
              "name": "s",
              "type": "bytes32"
            }
          ],
          "internalType": "struct PayWithAuthorizationParams",
          "name": "authorizationParams",
          "type": "tuple"
        },
        {
          "components": [
            {
              "internalType": "address",
              "name": "recipient",
              "type": "address"
            },
            {
              "internalType": "uint128",
              "name": "slicerId",
              "type": "uint128"
            },
            {
              "internalType": "uint128",
              "name": "amount",
              "type": "uint128"
            },
            {
              "internalType": "address",
              "name": "currency",
              "type": "address"
            },
            {
              "internalType": "string",
              "name": "description",
              "type": "string"
            }
          ],
          "internalType": "struct ExtraCost[]",
          "name": "extraCosts",
          "type": "tuple[]"
        },
        {
          "internalType": "address",
          "name": "referrer",
          "type": "address"
        }
      ],
      "name": "payWithAuthorization",
      "outputs": [],
      "stateMutability": "payable",
      "type": "function"
    },
    {
      "inputs": [],
      "name": "priceFeed",
      "outputs": [
        {
          "internalType": "contract IPriceFeed",
          "name": "",
          "type": "address"
        }
      ],
      "stateMutability": "view",
      "type": "function"
    },
    {
      "inputs": [
        {
          "internalType": "uint256",
          "name": "slicerId",
          "type": "uint256"
        },
        {
          "internalType": "uint256",
          "name": "productId",
          "type": "uint256"
        },
        {
          "internalType": "address",
          "name": "currency",
          "type": "address"
        },
        {
          "internalType": "uint256",
          "name": "quantity",
          "type": "uint256"
        },
        {
          "internalType": "address",
          "name": "buyer",
          "type": "address"
        },
        {
          "internalType": "bytes",
          "name": "data",
          "type": "bytes"
        }
      ],
      "name": "productPrice",
      "outputs": [
        {
          "components": [
            {
              "internalType": "uint256",
              "name": "eth",
              "type": "uint256"
            },
            {
              "internalType": "uint256",
              "name": "currency",
              "type": "uint256"
            },
            {
              "internalType": "uint256",
              "name": "ethExternalCall",
              "type": "uint256"
            },
            {
              "internalType": "uint256",
              "name": "currencyExternalCall",
              "type": "uint256"
            }
          ],
          "internalType": "struct Price",
          "name": "price",
          "type": "tuple"
        }
      ],
      "stateMutability": "view",
      "type": "function"
    },
    {
      "inputs": [],
      "name": "proxiableUUID",
      "outputs": [
        {
          "internalType": "bytes32",
          "name": "",
          "type": "bytes32"
        }
      ],
      "stateMutability": "view",
      "type": "function"
    },
    {
      "inputs": [
        {
          "internalType": "uint256",
          "name": "slicerId",
          "type": "uint256"
        },
        {
          "internalType": "uint256",
          "name": "productId",
          "type": "uint256"
        }
      ],
      "name": "removeProduct",
      "outputs": [],
      "stateMutability": "nonpayable",
      "type": "function"
    },
    {
      "inputs": [],
      "name": "renounceOwnership",
      "outputs": [],
      "stateMutability": "nonpayable",
      "type": "function"
    },
    {
      "inputs": [
        {
          "components": [
            {
              "internalType": "uint256",
              "name": "slicerId",
              "type": "uint256"
            },
            {
              "internalType": "uint256",
              "name": "productId",
              "type": "uint256"
            },
            {
              "internalType": "uint8",
              "name": "newMaxUnits",
              "type": "uint8"
            },
            {
              "internalType": "bool",
              "name": "isFree",
              "type": "bool"
            },
            {
              "internalType": "bool",
              "name": "isInfinite",
              "type": "bool"
            },
            {
              "internalType": "uint32",
              "name": "newUnits",
              "type": "uint32"
            },
            {
              "internalType": "uint256",
              "name": "referralFeeProduct",
              "type": "uint256"
            },
            {
              "internalType": "uint256",
              "name": "categoryId",
              "type": "uint256"
            }
          ],
          "internalType": "struct EditProductParams",
          "name": "params",
          "type": "tuple"
        },
        {
          "components": [
            {
              "internalType": "uint248",
              "name": "value",
              "type": "uint248"
            },
            {
              "internalType": "bool",
              "name": "dynamicPricing",
              "type": "bool"
            },
            {
              "internalType": "address",
              "name": "externalAddress",
              "type": "address"
            },
            {
              "internalType": "address",
              "name": "currency",
              "type": "address"
            }
          ],
          "internalType": "struct CurrencyPrice[]",
          "name": "currencyPrices",
          "type": "tuple[]"
        },
        {
          "components": [
            {
              "internalType": "bytes",
              "name": "data",
              "type": "bytes"
            },
            {
              "internalType": "uint256",
              "name": "value",
              "type": "uint256"
            },
            {
              "internalType": "address",
              "name": "externalAddress",
              "type": "address"
            },
            {
              "internalType": "bytes4",
              "name": "checkFunctionSignature",
              "type": "bytes4"
            },
            {
              "internalType": "bytes4",
              "name": "execFunctionSignature",
              "type": "bytes4"
            }
          ],
          "internalType": "struct Function",
          "name": "externalCall_",
          "type": "tuple"
        }
      ],
      "name": "setProductInfo",
      "outputs": [],
      "stateMutability": "nonpayable",
      "type": "function"
    },
    {
      "inputs": [],
      "name": "sliceCore",
      "outputs": [
        {
          "internalType": "contract ISliceCore",
          "name": "",
          "type": "address"
        }
      ],
      "stateMutability": "view",
      "type": "function"
    },
    {
      "inputs": [
        {
          "internalType": "address",
          "name": "newOwner",
          "type": "address"
        }
      ],
      "name": "transferOwnership",
      "outputs": [],
      "stateMutability": "nonpayable",
      "type": "function"
    },
    {
      "inputs": [
        {
          "internalType": "address",
          "name": "newImplementation",
          "type": "address"
        }
      ],
      "name": "upgradeTo",
      "outputs": [],
      "stateMutability": "nonpayable",
      "type": "function"
    },
    {
      "inputs": [
        {
          "internalType": "address",
          "name": "newImplementation",
          "type": "address"
        },
        {
          "internalType": "bytes",
          "name": "data",
          "type": "bytes"
        }
      ],
      "name": "upgradeToAndCall",
      "outputs": [],
      "stateMutability": "payable",
      "type": "function"
    },
    {
      "inputs": [
        {
          "internalType": "uint256",
          "name": "slicerId",
          "type": "uint256"
        },
        {
          "internalType": "uint256",
          "name": "productId",
          "type": "uint256"
        }
      ],
      "name": "validatePurchase",
      "outputs": [
        {
          "internalType": "uint256",
          "name": "purchases",
          "type": "uint256"
        },
        {
          "internalType": "bytes",
          "name": "purchaseData",
          "type": "bytes"
        }
      ],
      "stateMutability": "view",
      "type": "function"
    },
    {
      "inputs": [
        {
          "internalType": "address",
          "name": "account",
          "type": "address"
        },
        {
          "internalType": "uint256",
          "name": "slicerId",
          "type": "uint256"
        },
        {
          "internalType": "uint256",
          "name": "productId",
          "type": "uint256"
        }
      ],
      "name": "validatePurchaseUnits",
      "outputs": [
        {
          "internalType": "uint256",
          "name": "purchases",
          "type": "uint256"
        }
      ],
      "stateMutability": "view",
      "type": "function"
    }
  ],
  "bytecode": "0x60a0604052306080523480156200001557600080fd5b506200002062000026565b620000e8565b600054610100900460ff1615620000935760405162461bcd60e51b815260206004820152602760248201527f496e697469616c697a61626c653a20636f6e747261637420697320696e697469604482015266616c697a696e6760c81b606482015260840160405180910390fd5b60005460ff9081161015620000e6576000805460ff191660ff9081179091556040519081527f7f26b83ff96e1f2b6a682f133852f6798a09c465da95921460cefb38474024989060200160405180910390a15b565b608051615a676200012060003960008181610f3801528181610f81015281816111e80152818161122801526113800152615a676000f3fe6080604052600436106101ad5760003560e01c80638129fc1c116100e7578063c1226f8011610095578063e6e9280811610064578063e6e9280814610558578063f2fde38b14610578578063f3c9ba3914610598578063f4c76363146105b857600080fd5b8063c1226f80146104ba578063c6cdbe5e146104ea578063d2c5ca9a14610518578063d7a3d0c81461052b57600080fd5b80638129fc1c146103f75780638da5cb5b1461040c57806395f237041461042a578063a878ad011461044a578063aa4d16de1461045d578063ac9650d814610470578063b79811e21461049d57600080fd5b80635287d5351161015f57806361975f171161012e57806361975f171461035a5780636740ff401461037a578063715018a6146103ba578063741bef1a146103cf57600080fd5b80635287d535146102d357806352d1902d146102f35780635c975abb146103165780635e8b09dc1461033a57600080fd5b8063062b8b15146101b25780631eafafb4146101c75780632ac8ba9b1461023f5780633659cfe61461025f5780633bb9aa061461027f5780634c04e9c6146102925780634f1ef286146102c0575b600080fd5b6101c56101c0366004614494565b6105e0565b005b3480156101d357600080fd5b506102256101e236600461450b565b600091825260fb60209081526040808420928452600192830190915290912060080154600160c81b810463ffffffff1692600160f01b909104821c909116151590565b604080519283529015156020830152015b60405180910390f35b34801561024b57600080fd5b506101c561025a36600461477e565b61061e565b34801561026b57600080fd5b506101c561027a36600461490d565b610f2e565b6101c561028d36600461492a565b611016565b34801561029e57600080fd5b506102b26102ad36600461450b565b611089565b604051610236929190614a0a565b6101c56102ce366004614a23565b6111de565b3480156102df57600080fd5b506101c56102ee36600461450b565b6112ae565b3480156102ff57600080fd5b50610308611373565b604051908152602001610236565b34801561032257600080fd5b5060c95460ff165b6040519015158152602001610236565b34801561034657600080fd5b506101c5610355366004614a72565b611426565b34801561036657600080fd5b506101c5610375366004614aee565b6115ce565b34801561038657600080fd5b506103a27361bcd1ed11fc03c958a847a6687b1875f5eacaaf81565b6040516001600160a01b039091168152602001610236565b3480156103c657600080fd5b506101c5611d21565b3480156103db57600080fd5b506103a2732b3eee365ce2c8a21096a348fc9005233229b58f81565b34801561040357600080fd5b506101c5611d35565b34801561041857600080fd5b506097546001600160a01b03166103a2565b34801561043657600080fd5b50610308610445366004614be2565b611e45565b6101c5610458366004614c96565b611e81565b6101c561046b366004614d36565b612070565b34801561047c57600080fd5b5061049061048b366004614db5565b612097565b6040516102369190614e29565b3480156104a957600080fd5b50610308686c6b935b8bbd40000081565b3480156104c657600080fd5b506103086104d5366004614e8b565b600090815260fb602052604090205460010190565b3480156104f657600080fd5b5061050a610505366004614e8b565b61218c565b604051610236929190614ea4565b6101c5610526366004614eca565b612236565b34801561053757600080fd5b5061054b610546366004614efe565b6122c5565b6040516102369190614f7b565b34801561056457600080fd5b5061032a610573366004614fa6565b612327565b34801561058457600080fd5b506101c561059336600461490d565b61236d565b3480156105a457600080fd5b506101c56105b3366004614fd4565b6123e3565b3480156105c457600080fd5b506103a2735cef0380ce0ad3daeefef8bdb85dbded7965adf981565b61061983836040518060800160405280600015158152602001856001600160a01b0316815260200160008152602001600081525061249e565b505050565b600083815260fb6020526040902080546001019081905563ffffffff81111561065a57604051636dac6a0960e01b815260040160405180910390fd5b612710836101600151111561068257604051636dac6a0960e01b815260040160405180910390fd5b806001036107cc57604051630bafd3f560e11b815260048101859052600090735cef0380ce0ad3daeefef8bdb85dbded7965adf99063175fa7ea90602401602060405180830381865afa1580156106dd573d6000803e3d6000fd5b505050506040513d601f19601f820116820180604052508101906107019190615022565b6001600160a01b03160361072857604051636dac6a0960e01b815260040160405180910390fd5b604051630bafd3f560e11b815260048101859052735cef0380ce0ad3daeefef8bdb85dbded7965adf99063175fa7ea90602401602060405180830381865afa158015610778573d6000803e3d6000fd5b505050506040513d601f19601f8201168201806040525081019061079c9190615022565b600085815260fb6020526040902060030180546001600160a01b0319166001600160a01b03929092169190911790555b600084815260fb60205260409081902060030154905163166eb15b60e21b81523360048201526001600160a01b039091169081906359bac56c90602401602060405180830381865afa158015610826573d6000803e3d6000fd5b505050506040513d601f19601f8201168201806040525081019061084a919061503f565b6108675760405163ea8e4eb560e01b815260040160405180910390fd5b600085815260fb6020908152604080832063ffffffff861684526001019091529020845151156109905760005b85515181101561098e5761091e60fb6000886000015184815181106108bb576108bb61505c565b6020026020010151600001516001600160801b031681526020019081526020016000206001016000886000015184815181106108f9576108f961505c565b60200260200101516020015163ffffffff1681526020019081526020016000206127a1565b81600201866000015182815181106109385761093861505c565b602090810291909101810151825460018181018555600094855293839020825191018054929093015163ffffffff16600160801b026001600160a01b03199092166001600160801b039091161717905501610894565b505b6040805160808101825260008082526020820181905291810182905260608101829052905b866020015151811015610c7357866020015181815181106109d8576109d861505c565b6020026020010151915060006001600160a01b031682606001516001600160a01b031614158015610a765750606082015160405163b25e9c3960e01b81526001600160a01b0391821660048201529085169063b25e9c3990602401602060405180830381865afa158015610a50573d6000803e3d6000fd5b505050506040513d601f19601f82011682018060405250810190610a74919061503f565b155b15610a9457604051630b27db6160e11b815260040160405180910390fd5b81516001600160f81b031615610ae257815160608301516001600160a01b03166000908152600185016020526040902080546001600160f81b0319166001600160f81b039092169190911790555b816020015115610c185760608201516001600160a01b031615610bd657606082015160405163a2d7046f60e01b81526006602160991b0160048201526001600160a01b03909116602482015262093a80604482015260026064820152600090732b3eee365ce2c8a21096a348fc9005233229b58f9063a2d7046f906084016000604051808303816000875af1158015610b7f573d6000803e3d6000fd5b505050506040513d6000823e601f3d908101601f19168201604052610ba791908101906150e8565b505080519091506001600160a01b0316610bd457604051632b9bb16560e11b815260040160405180910390fd5b505b60208083015160608401516001600160a01b031660009081526001860190925260409091208054911515600160f81b026001600160f81b039092169190911790555b60408201516001600160a01b031615610c6b5760408281015160608401516001600160a01b039081166000908152600187810160205293902090920180546001600160a01b031916929091169190911790555b6001016109b5565b5060408501516001600160a01b031615610d07578451805186916003850191610ca3918391602090910190613fae565b5060208201516001820155604082015160029091018054606084015160809094015160e090811c600160c01b0263ffffffff60c01b199590911c600160a01b026001600160c01b03199092166001600160a01b039094169390931717929092161790555b85610140015115610d365760088201805460ff60f01b1981166004600160f01b9283900460ff16179091021790555b85610120015115610d8e5761271085602001511115610d6857604051633806212b60e21b815260040160405180910390fd5b6008828101805460ff60f01b198116600160f01b9182900460ff16909317029190911790555b610da0828760a0015161ffff166127cc565b6008820180546001600160a01b0319163317905560e086015115610de25760088201805460ff60f01b1981166001600160f01b9283900460ff16179091021790555b60c086015160ff1615610e155760c086015160088301805460ff909216600160e81b0260ff60e81b199092169190911790555b85610100015115610e485760088201805460ff60f01b1981166002600160f01b9283900460ff1617909102179055610e74565b608086015160088301805463ffffffff909216600160c81b0263ffffffff60c81b199092169190911790555b60408601515115610e9c5760408601518051610e9a916006850191602090910190613fae565b505b60608601515115610ec45760608601518051610ec2916007850191602090910190613fae565b505b8561016001518260090160006101000a81548161ffff021916908361ffff16021790555083877f45a91bd131ee3d9fca3e1075eca983aa74ef556ba230040df08e54ce82eb9011338989604051610f1d939291906152ce565b60405180910390a350505050505050565b6001600160a01b037f0000000000000000000000000000000000000000000000000000000000000000163003610f7f5760405162461bcd60e51b8152600401610f769061540b565b60405180910390fd5b7f00000000000000000000000000000000000000000000000000000000000000006001600160a01b0316610fc86000805160206159eb833981519152546001600160a01b031690565b6001600160a01b031614610fee5760405162461bcd60e51b8152600401610f7690615457565b610ff781612832565b604080516000808252602082019092526110139183919061283a565b50565b61104f84846040518060800160405280600015158152602001866001600160a01b0316815260200160008152602001600081525061249e565b6040516001600160a01b038216907f947c20b95ed5f5f8f99d0a7f7d99fcd90f312c2dc785d4cf0567d2359c7ab68090600090a250505050565b600060603073b9d5b99d5d0fa04dd7eb2b0cd7753317c2ea1a84146110c15760405163acbcffa760e01b815260040160405180910390fd5b600084815260fb60209081526040808320868452600101825280832033845290915281205463ffffffff16900361110b576040516363aae7a360e01b815260040160405180910390fd5b600084815260fb602090815260408083208684526001018083528184203385528084529184205493879052909152600701805463ffffffff909216918190611152906154a3565b80601f016020809104026020016040519081016040528092919081815260200182805461117e906154a3565b80156111cb5780601f106111a0576101008083540402835291602001916111cb565b820191906000526020600020905b8154815290600101906020018083116111ae57829003601f168201915b50505050509050915091505b9250929050565b6001600160a01b037f00000000000000000000000000000000000000000000000000000000000000001630036112265760405162461bcd60e51b8152600401610f769061540b565b7f00000000000000000000000000000000000000000000000000000000000000006001600160a01b031661126f6000805160206159eb833981519152546001600160a01b031690565b6001600160a01b0316146112955760405162461bcd60e51b8152600401610f7690615457565b61129e82612832565b6112aa8282600161283a565b5050565b600082815260fb60209081526040808320600381015485855260019091019092529091206001600160a01b039091169081906112eb8183336129a5565b6113085760405163ea8e4eb560e01b815260040160405180910390fd5b60098101805463ffff000019169055600881018054600168ffffffff000000000160a01b031916905561133f600682016000614032565b604051849086907fd647384cccbd8b477a7b02b9e866072937e9a23b473b9de13fc0c6cb1d392a0a90600090a35050505050565b6000306001600160a01b037f000000000000000000000000000000000000000000000000000000000000000016146114135760405162461bcd60e51b815260206004820152603860248201527f555550535570677261646561626c653a206d757374206e6f742062652063616c60448201527f6c6564207468726f7567682064656c656761746563616c6c00000000000000006064820152608401610f76565b506000805160206159eb83398151915290565b604051630bafd3f560e11b815260048101849052600090735cef0380ce0ad3daeefef8bdb85dbded7965adf99063175fa7ea90602401602060405180830381865afa158015611479573d6000803e3d6000fd5b505050506040513d601f19601f8201168201806040525081019061149d9190615022565b60405163166eb15b60e21b81523360048201529091506001600160a01b038216906359bac56c90602401602060405180830381865afa1580156114e4573d6000803e3d6000fd5b505050506040513d601f19601f82011682018060405250810190611508919061503f565b6115255760405163ea8e4eb560e01b815260040160405180910390fd5b61271082111561154857604051636dac6a0960e01b815260040160405180910390fd5b6040805184151581526020810184905285917fb0b88304f8c02c0665b0e2045748dc61c9514689390192154a569ee763f3cc3b910160405180910390a250600092835260fb6020526040909220600301805461ffff909316600160a81b0261ffff60a81b19921515600160a01b029290921662ffffff60a01b1990931692909217179055565b8351600090815260fb6020908152604080832060030154875184528184208389015185526001019092529091206001600160a01b039091169081906116148183336129a5565b6116315760405163ea8e4eb560e01b815260040160405180910390fd5b6127108760c00151111561165857604051636dac6a0960e01b815260040160405180910390fd5b611666818860e001516127cc565b84156119b9576040805160808101825260008082526020820181905291810182905260608101829052905b868110156119b6578787828181106116ab576116ab61505c565b9050608002018036038101906116c191906154dd565b60608101519092506001600160a01b03161561176457606082015160405163b25e9c3960e01b81526001600160a01b0391821660048201529085169063b25e9c3990602401602060405180830381865afa158015611723573d6000803e3d6000fd5b505050506040513d601f19601f82011682018060405250810190611747919061503f565b61176457604051630b27db6160e11b815260040160405180910390fd5b60608201516001600160a01b0316600090815260018401602052604090205482516001600160f81b039081169116146117d557815160608301516001600160a01b03166000908152600185016020526040902080546001600160f81b0319166001600160f81b039092169190911790555b60608201516001600160a01b0316600090815260018401602090815260409091205490830151600160f81b90910460ff1615159015151461193c5760608201516001600160a01b0316156118fa57606082015160405163a2d7046f60e01b81526006602160991b0160048201526001600160a01b03909116602482015262093a80604482015260026064820152600090732b3eee365ce2c8a21096a348fc9005233229b58f9063a2d7046f906084016000604051808303816000875af11580156118a3573d6000803e3d6000fd5b505050506040513d6000823e601f3d908101601f191682016040526118cb91908101906150e8565b505080519091506001600160a01b03166118f857604051632b9bb16560e11b815260040160405180910390fd5b505b60208083015160608401516001600160a01b031660009081526001860190925260409091208054911515600160f81b026001600160f81b039092169190911790555b60608201516001600160a01b039081166000908152600180860160205260409182902001549084015182169116146119ae5760408281015160608401516001600160a01b039081166000908152600187810160205293902090920180546001600160a01b031916929091169190911790555b600101611691565b50505b866060015180156119d657506008810154600160f01b9004600116155b806119fb575086606001511580156119fb57506008810154600160f01b900460011615155b15611a265760088101805460ff600160f01b80830482166001189091160260ff60f01b199091161790555b86608001518015611a4657506008810154600160f01b9004600190811c16155b80611a6e57508660800151158015611a6e57506008810154600160f01b9004600190811c1615155b15611a995760088101805460ff600160f01b80830482166002189091160260ff60f01b199091161790555b60408701516008820154600160e81b900460ff908116911614611adc57604087015160088201805460ff909216600160e81b0260ff60e81b199092169190911790555b866080015115611afd5760088101805463ffffffff60c81b19169055611b49565b60a08701516008820154600160c81b900463ffffffff908116911614611b495760a087015160088201805463ffffffff909216600160c81b0263ffffffff60c81b199092169190911790555b60408401516001600160a01b031615611c22578351805185916003840191611b78918391602090910190613fae565b5060208281015160018301556040808401516002909301805460608601516080909601516001600160a01b039095166001600160c01b031990911617600160a01b60e096871c021763ffffffff60c01b1916600160c01b9490951c9390930293909317909155880151885191519091907f1dc9b6a2e759a6aba0408c06b83deb0f57c90dee629f039e0b31423a1337785d90611c159088906154f9565b60405180910390a3611cad565b60808401516001600160e01b031916600160e01b03611cad57600381016000611c4b8282614032565b50600060018201819055600290910180546001600160e01b03191690556080850152602087015187516040517f1dc9b6a2e759a6aba0408c06b83deb0f57c90dee629f039e0b31423a1337785d90611ca49088906154f9565b60405180910390a35b60c087015160098201805461ffff191661ffff90921691909117905560088101546040517f1ec08918d887e5a643c7f62b00334febefbc7eb2cec0672c522da75182f87f6091611d10918a91600160c81b900463ffffffff16908a908a90615595565b60405180910390a150505050505050565b611d29612ab7565b611d336000612b11565b565b600054610100900460ff1615808015611d555750600054600160ff909116105b80611d6f5750303b158015611d6f575060005460ff166001145b611dd25760405162461bcd60e51b815260206004820152602e60248201527f496e697469616c697a61626c653a20636f6e747261637420697320616c72656160448201526d191e481a5b9a5d1a585b1a5e995960921b6064820152608401610f76565b6000805460ff191660011790558015611df5576000805461ff0019166101001790555b611dfd612b63565b8015611013576000805461ff0019169055604051600181527f7f26b83ff96e1f2b6a682f133852f6798a09c465da95921460cefb38474024989060200160405180910390a150565b600082815260fb6020908152604080832084845260010182528083206001600160a01b038716845290915290205463ffffffff165b9392505050565b602084015115611f4457835160208501516040808701516060880151608089015160a08a015160c08b015160e08c015195516371f70b0760e11b81526001600160a01b03988916600482015230602482015260448101979097526064870194909452608486019290925260a485015260ff1660c484015260e48301526101048201529082169063e3ee160e9061012401600060405180830381600087803b158015611f2b57600080fd5b505af1158015611f3f573d6000803e3d6000fd5b505050505b611f7d85846040518060800160405280600115158152602001866001600160a01b0316815260200160008152602001600081525061249e565b6040516370a0823160e01b81523060048201526000906001600160a01b038316906370a0823190602401602060405180830381865afa158015611fc4573d6000803e3d6000fd5b505050506040513d601f19601f82011682018060405250810190611fe8919061562b565b9050801561206857845160405163a9059cbb60e01b81526001600160a01b039182166004820152602481018390529083169063a9059cbb906044016020604051808303816000875af1158015612042573d6000803e3d6000fd5b505050506040513d601f19601f82011682018060405250810190612066919061503f565b505b505050505050565b6120918484848473833589fcd6edb6e08f4c7c32d4f71b54bda02913611e81565b50505050565b6060816001600160401b038111156120b1576120b161407d565b6040519080825280602002602001820160405280156120e457816020015b60608152602001906001900390816120cf5790505b50905060005b8281101561218457612154308585848181106121085761210861505c565b905060200281019061211a9190615644565b8080601f016020809104026020016040519081016040528093929190818152602001838380828437600092019190915250612b9292505050565b8282815181106121665761216661505c565b6020026020010181905250808061217c906156a0565b9150506120ea565b505b92915050565b60fe6020526000908152604090206001810180546121a9906154a3565b80601f01602080910402602001604051908101604052809291908181526020018280546121d5906154a3565b80156122225780601f106121f757610100808354040283529160200191612222565b820191906000526020600020905b81548152906001019060200180831161220557829003601f168201915b5050506002909301549192505061ffff1682565b604080516000808252602082019092526110139183919061228f565b6040805160a08101825260008082526020808301829052928201819052606080830191909152608082015282526000199092019101816122525790505b50604051806080016040528060001515815260200160006001600160a01b0316815260200160008152602001600081525061249e565b6122f06040518060800160405280600081526020016000815260200160008152602001600081525090565b600087815260fb60209081526040808320898452600101909152902061231b81898989898989612c86565b98975050505050505050565b600083815260fb6020818152604080842086855260018101835290842087855292909152600301546001600160a01b03166123638282866129a5565b9695505050505050565b612375612ab7565b6001600160a01b0381166123da5760405162461bcd60e51b815260206004820152602660248201527f4f776e61626c653a206e6577206f776e657220697320746865207a65726f206160448201526564647265737360d01b6064820152608401610f76565b61101381612b11565b6123eb612ab7565b600083815260fe602052604080822061ffff8516835291206001018054612411906154a3565b905060000361243357604051636b3ac97b60e11b815260040160405180910390fd5b81516124489060018301906020850190613fae565b5060028101805461ffff191661ffff85161790556040517f6ce7820c104591ca5f30885bf32f653a8c6a2440e61966e96d5b49a58b0f981190612490908690869086906156b9565b60405180910390a150505050565b6124a66131a7565b6000336001600160a01b031682602001516001600160a01b0316036124cd57600060208301525b60005b8451811015612510576124fc8582815181106124ee576124ee61505c565b6020026020010151846131ed565b61250690836156dc565b91506001016124d0565b506040805160a0810182526000808252602082018190529181018290526060808201839052608082015290805b8551811015612782578581815181106125585761255861505c565b602090810291909101015180519093506001600160a01b03166125fc576020830151604051630bafd3f560e11b81526001600160801b039091166004820152735cef0380ce0ad3daeefef8bdb85dbded7965adf99063175fa7ea90602401602060405180830381865afa1580156125d3573d6000803e3d6000fd5b505050506040513d601f19601f820116820180604052508101906125f79190615022565b6125ff565b82515b60608401519092506001600160a01b031661265c57604083015161262c906001600160801b0316856156dc565b935061265783604001516001600160801b0316836001600160a01b0316613b8c90919063ffffffff16565b612719565b82516001600160a01b03166126f857606083015160405163b25e9c3960e01b81526001600160a01b0391821660048201529083169063b25e9c3990602401602060405180830381865afa1580156126b7573d6000803e3d6000fd5b505050506040513d601f19601f820116820180604052508101906126db919061503f565b6126f857604051630b27db6160e11b815260040160405180910390fd5b612719856000015184606001518486604001516001600160801b0316613bdd565b82604001516001600160801b0316826001600160a01b031684606001516001600160a01b03167faf4e8fbdf3eeda1bb461f86b73d9341aad76a124175886910acc8ce457007ced866080015160405161277291906156f4565b60405180910390a460010161253d565b50600061278f8434615707565b90508015612066576120663382613b8c565b60088101546001600160a01b0316611013576040516329c2f8dd60e11b815260040160405180910390fd5b80156112aa57600081815260fe602052604090206001810180546127ef906154a3565b905060000361281157604051636b3ac97b60e11b815260040160405180910390fd5b5060098201805461ffff8316620100000263ffff0000199091161790555050565b611013612ab7565b7f4910fdfa16fed3260ed0e7147f7cc6da11a60208b5b9406d12a635614ffd91435460ff161561286d5761061983613cd4565b826001600160a01b03166352d1902d6040518163ffffffff1660e01b8152600401602060405180830381865afa9250505080156128c7575060408051601f3d908101601f191682019092526128c49181019061562b565b60015b61292a5760405162461bcd60e51b815260206004820152602e60248201527f45524331393637557067726164653a206e657720696d706c656d656e7461746960448201526d6f6e206973206e6f74205555505360901b6064820152608401610f76565b6000805160206159eb83398151915281146129995760405162461bcd60e51b815260206004820152602960248201527f45524331393637557067726164653a20756e737570706f727465642070726f786044820152681a58589b195555525160ba1b6064820152608401610f76565b50610619838383613d70565b60006129b0846127a1565b600884015460405163166eb15b60e21b81526001600160a01b039182166004820152908416906359bac56c90602401602060405180830381865afa1580156129fc573d6000803e3d6000fd5b505050506040513d601f19601f82011682018060405250810190612a20919061503f565b15612a3e575060088301546001600160a01b03828116911614611e7a565b60405163166eb15b60e21b81526001600160a01b0383811660048301528416906359bac56c90602401602060405180830381865afa158015612a84573d6000803e3d6000fd5b505050506040513d601f19601f82011682018060405250810190612aa8919061503f565b949350505050565b5050505050565b6097546001600160a01b03163314611d335760405162461bcd60e51b815260206004820181905260248201527f4f776e61626c653a2063616c6c6572206973206e6f7420746865206f776e65726044820152606401610f76565b609780546001600160a01b038381166001600160a01b0319831681179093556040519116919082907f8be0079c531659141344cd1fd0a4f28419497f9722a3daafe3b4186f6b6457e090600090a35050565b600054610100900460ff16612b8a5760405162461bcd60e51b8152600401610f769061571e565b611d33613d95565b60606001600160a01b0383163b612bfa5760405162461bcd60e51b815260206004820152602660248201527f416464726573733a2064656c65676174652063616c6c20746f206e6f6e2d636f6044820152651b9d1c9858dd60d21b6064820152608401610f76565b600080846001600160a01b031684604051612c159190615769565b600060405180830381855af49150503d8060008114612c50576040519150601f19603f3d011682016040523d82523d6000602084013e612c55565b606091505b5091509150612c7d8282604051806060016040528060278152602001615a0b60279139613dc5565b95945050505050565b612cb16040518060800160405280600081526020016000815260200160008152602001600081525090565b612cba886127a1565b6001600160a01b0380861660009081526001808b016020908152604092839020835160608101855281546001600160f81b038116825260ff600160f81b909104811615159382019390935292015490931691810182905260088b01549092600160f01b909104169061300f576001600160a01b038716612d555785612d4483600184161515613dde565b612d4e9190615785565b8352613091565b816020015115612f7f57600080805260018b0160205260409020546001600160f81b0316151580612d8f575081516001600160f81b031615155b15612f565781516000906001600160f81b03168103612e0c57600080805260018c81016020908152604092839020835160608101855281546001600160f81b0381168252600160f81b900460ff161515928101929092528201546001600160a01b031692810192909252612e07919084161515613dde565b612e18565b82516001600160f81b03165b90506001600160801b03811115612e4257604051633806212b60e21b815260040160405180910390fd5b6040516331b889b160e11b81528790732b3eee365ce2c8a21096a348fc9005233229b58f90636371136290612e8a9085906006602160991b01908e90610708906004016157a4565b602060405180830381865afa158015612ea7573d6000803e3d6000fd5b505050506040513d601f19601f82011682018060405250810190612ecb919061562b565b612ed59190615785565b60208501819052600003612f5057600080805260018c81016020908152604092839020835160608101855281546001600160f81b0381168252600160f81b900460ff161515928101929092528201546001600160a01b0316928101929092528891612f439185161515613dde565b612f4d9190615785565b84525b50613091565b60018116600003612f7a57604051630b27db6160e11b815260040160405180910390fd5b613091565b81516001600160f81b031615612faf578151612fa59087906001600160f81b0316615785565b6020840152613091565b600080805260018b81016020908152604092839020835160608101855281546001600160f81b0381168252600160f81b900460ff161515928101929092528201546001600160a01b0316928101929092528791612d449184161515613dde565b81604001516001600160a01b031663d7a3d0c88a8a8a8a8a8a6040518763ffffffff1660e01b8152600401613049969594939291906157da565b6040805180830381865afa158015613065573d6000803e3d6000fd5b505050506040513d601f19601f82011682018060405250810190613089919061581a565b602085015283525b60048a01541561319a576001600382901c16158015613115576001600283901c16158015906130f95784602001516000036130df57604051630b27db6160e11b815260040160405180910390fd5b60048c01546130ef908990615785565b606086015261310f565b60048c0154613109908990615785565b60408601525b50613198565b6020840151156131605760048b015460208501516127109161313691615785565b613140919061583e565b60608501819052602085018051613158908390615707565b905250613198565b60048b015484516127109161317491615785565b61317e919061583e565b6040850181905284518590613194908390615707565b9052505b505b5050979650505050505050565b60c95460ff1615611d335760405162461bcd60e51b815260206004820152601060248201526f14185d5cd8589b194e881c185d5cd95960821b6044820152606401610f76565b6000826040015163ffffffff16600014612186576020838101516001600160801b0316600090815260fb9091526040902060030154600160a01b900460ff161561324a57604051632149aed960e21b815260040160405180910390fd5b82600001516001600160a01b031682602001516001600160a01b03160361327357600060208301525b600060fb600085602001516001600160801b031681526020019081526020016000206001016000856080015163ffffffff168152602001908152602001600020905060006132f38286602001516001600160801b0316876080015163ffffffff168860600151896040015163ffffffff168a600001518b60a00151612c86565b6020868101516001600160801b0316600090815260fb909152604090206003015460088401549192506001600160a01b031690600160e81b900460ff161561339b57600883015460408781015188516001600160a01b0316600090815260208790529190912054600160e81b90920460ff1691613376919063ffffffff16615860565b63ffffffff16111561339b57604051636dac6a0960e01b815260040160405180910390fd5b6008830154600160f01b9004600190811c16600003613423576008830154604087015163ffffffff600160c81b9092048216911611156133ee57604051636dac6a0960e01b815260040160405180910390fd5b604086015160088401805463ffffffff600160c81b8083048216949094031690920263ffffffff60c81b199092169190911790555b6040820151825161343491906156dc565b825190945015801590613453575060208501516001600160a01b031615155b156134e357600983015461ffff16600081900361349857506020868101516001600160801b0316600090815260fb9091526040902060030154600160a81b900461ffff165b80156134e15760006127108285600001516134b39190615785565b6134bd919061583e565b8451819003855260208801519091506134df906001600160a01b031682613b8c565b505b505b81516134f9906001600160a01b03831690613b8c565b60408087015187516001600160a01b03166000908152602086905291822080549192909161352e90849063ffffffff16615860565b92506101000a81548163ffffffff021916908363ffffffff16021790555081602001516000146136135760208501516001600160a01b0316156135fb57600983015461ffff1660008190036135ab57506020868101516001600160801b0316600090815260fb9091526040902060030154600160a81b900461ffff165b80156135f95760006127108285602001516135c69190615785565b6135d0919061583e565b602080860180518390039052885160608b0151918a01519293506135f79290919084613bdd565b505b505b61361385600001518760600151838560200151613bdd565b6002830154156137605760005b600284015481101561375e5761374a6040518060c0016040528089600001516001600160a01b031681526020018660020184815481106136625761366261505c565b9060005260206000200160000160009054906101000a90046001600160801b03166001600160801b03168152602001896040015163ffffffff16815260200189606001516001600160a01b031681526020018660020184815481106136c9576136c961505c565b9060005260206000200160000160109054906101000a900463ffffffff1663ffffffff1681526020018960a00151815250604051806080016040528089600001511515815260200189602001516001600160a01b031681526020018a602001516001600160801b031681526020018a6080015163ffffffff168152506131ed565b61375490866156dc565b9450600101613620565b505b60058301546001600160a01b031615613b07576005830154600090600160c01b900460e01b6001600160e01b031916156138875760058401546001600160a01b03838116911614613ae757600584015460408085015160208a015160808b01518b518c85015160a08e015195516001600160a01b038816979596600160c01b90960460e01b956137fc959493929160038e019190602401615888565b60408051601f198184030181529181526020820180516001600160e01b03166001600160e01b031990941693909317909252905161383a9190615769565b60006040518083038185875af1925050503d8060008114613877576040519150601f19603f3d011682016040523d82523d6000602084013e61387c565b606091505b505080915050613ae7565b6060830151156139e9576138bd866000015188606001517361bcd1ed11fc03c958a847a6687b1875f5eacaaf8660600151613bdd565b602087015160058501546060808a015190860151604051630b90c4a560e11b8152600481018290526001600160a01b0380841660248301527361bcd1ed11fc03c958a847a6687b1875f5eacaaf956359fc470a9590949082169390929091891690631721894a90604401602060405180830381865afa158015613944573d6000803e3d6000fd5b505050506040513d601f19601f82011682018060405250810190613968919061562b565b6040516001600160e01b031960e088901b1681526001600160801b0390951660048601526001600160a01b0393841660248601529290911660448401526064830152608482015260a401600060405180830381600087803b1580156139cc57600080fd5b505af11580156139e0573d6000803e3d6000fd5b50505050613ae3565b60408381015160058601549151630b90c4a560e11b815260048101829052600060248201527361bcd1ed11fc03c958a847a6687b1875f5eacaaf926339ed512392916001600160a01b0391821691871690631721894a90604401602060405180830381865afa158015613a60573d6000803e3d6000fd5b505050506040513d601f19601f82011682018060405250810190613a84919061562b565b6040516001600160e01b031960e086901b1681526001600160a01b03909216600483015260248201526044016000604051808303818588803b158015613ac957600080fd5b505af1158015613add573d6000803e3d6000fd5b50505050505b5060015b80613b055760405163af6eefa360e01b815260040160405180910390fd5b505b85600001516001600160a01b0316866080015163ffffffff1687602001516001600160801b03167f392f594e624e358091bb17d04cc5fac6221a0d9d1218d3dd08a007b0de11f21b89604001518a60600151878b602001518c604001518d60600151604051613b7b9695949392919061597e565b60405180910390a450505092915050565b600080600080600085875af19050806106195760405162461bcd60e51b815260206004820152601360248201527211551217d514905394d1915497d19052531151606a1b6044820152606401610f76565b83613c61576040516323b872dd60e01b81523360048201526001600160a01b038381166024830152604482018390528416906323b872dd906064016020604051808303816000875af1158015613c37573d6000803e3d6000fd5b505050506040513d601f19601f82011682018060405250810190613c5b919061503f565b50612091565b60405163a9059cbb60e01b81526001600160a01b0383811660048301526024820183905284169063a9059cbb906044016020604051808303816000875af1158015613cb0573d6000803e3d6000fd5b505050506040513d601f19601f82011682018060405250810190612ab0919061503f565b6001600160a01b0381163b613d415760405162461bcd60e51b815260206004820152602d60248201527f455243313936373a206e657720696d706c656d656e746174696f6e206973206e60448201526c1bdd08184818dbdb9d1c9858dd609a1b6064820152608401610f76565b6000805160206159eb83398151915280546001600160a01b0319166001600160a01b0392909216919091179055565b613d7983613f44565b600082511180613d865750805b15610619576120918383612b92565b600054610100900460ff16613dbc5760405162461bcd60e51b8152600401610f769061571e565b611d3333612b11565b60608315613dd4575081611e7a565b611e7a8383613f84565b81516000906001600160f81b0316158015613df7575081155b15613e1557604051630b27db6160e11b815260040160405180910390fd5b826020015115613f355782516001600160801b036001600160f81b039091161115613e5357604051633806212b60e21b815260040160405180910390fd5b82516040516331b889b160e11b8152732b3eee365ce2c8a21096a348fc9005233229b58f91636371136291613eae919073833589fcd6edb6e08f4c7c32d4f71b54bda02913906006602160991b0190610708906004016157a4565b602060405180830381865afa158015613ecb573d6000803e3d6000fd5b505050506040513d601f19601f82011682018060405250810190613eef919061562b565b905080600003613f305760405162461bcd60e51b815260206004820152600c60248201526b125b9d985b1a59081c1bdbdb60a21b6044820152606401610f76565b612186565b5050516001600160f81b031690565b613f4d81613cd4565b6040516001600160a01b038216907fbc7cd75a20ee27fd9adebab32041f755214dbc6bffa90cc0225b39da2e5c2d3b90600090a250565b815115613f945781518083602001fd5b8060405162461bcd60e51b8152600401610f7691906156f4565b828054613fba906154a3565b90600052602060002090601f016020900481019282613fdc5760008555614022565b82601f10613ff557805160ff1916838001178555614022565b82800160010185558215614022579182015b82811115614022578251825591602001919060010190614007565b5061402e929150614068565b5090565b50805461403e906154a3565b6000825580601f1061404e575050565b601f01602090049060005260206000209081019061101391905b5b8082111561402e5760008155600101614069565b634e487b7160e01b600052604160045260246000fd5b60405160c081016001600160401b03811182821017156140b5576140b561407d565b60405290565b60405160a081016001600160401b03811182821017156140b5576140b561407d565b604080519081016001600160401b03811182821017156140b5576140b561407d565b604051608081016001600160401b03811182821017156140b5576140b561407d565b60405161018081016001600160401b03811182821017156140b5576140b561407d565b60405161010081016001600160401b03811182821017156140b5576140b561407d565b604051601f8201601f191681016001600160401b038111828210171561418f5761418f61407d565b604052919050565b60006001600160401b038211156141b0576141b061407d565b5060051b60200190565b6001600160a01b038116811461101357600080fd5b80356001600160801b03811681146141e657600080fd5b919050565b803563ffffffff811681146141e657600080fd5b600082601f83011261421057600080fd5b81356001600160401b038111156142295761422961407d565b61423c601f8201601f1916602001614167565b81815284602083860101111561425157600080fd5b816020850160208301376000918101602001919091529392505050565b600082601f83011261427f57600080fd5b8135602061429461428f83614197565b614167565b82815260059290921b840181019181810190868411156142b357600080fd5b8286015b848110156143885780356001600160401b03808211156142d75760008081fd5b9088019060c0828b03601f19018113156142f15760008081fd5b6142f9614093565b87840135614306816141ba565b815260406143158582016141cf565b8983015260606143268187016141eb565b82840152608091508186013561433b816141ba565b9083015260a061434c8682016141eb565b8383015292850135928484111561436557600091508182fd5b6143738e8b868901016141ff565b908301525086525050509183019183016142b7565b509695505050505050565b600082601f8301126143a457600080fd5b813560206143b461428f83614197565b82815260059290921b840181019181810190868411156143d357600080fd5b8286015b848110156143885780356001600160401b03808211156143f75760008081fd5b9088019060a0828b03601f19018113156144115760008081fd5b6144196140bb565b87840135614426816141ba565b815260406144358582016141cf565b8983015260606144468187016141cf565b82840152608091508186013561445b816141ba565b908301529184013591838311156144725760008081fd5b6144808d8a858801016141ff565b9082015286525050509183019183016143d7565b6000806000606084860312156144a957600080fd5b83356001600160401b03808211156144c057600080fd5b6144cc8783880161426e565b945060208601359150808211156144e257600080fd5b506144ef86828701614393565b9250506040840135614500816141ba565b809150509250925092565b6000806040838503121561451e57600080fd5b50508035926020909101359150565b600082601f83011261453e57600080fd5b8135602061454e61428f83614197565b82815260069290921b8401810191818101908684111561456d57600080fd5b8286015b84811015614388576040818903121561458a5760008081fd5b6145926140dd565b61459b826141cf565b81526145a88583016141eb565b81860152835291830191604001614571565b80356001600160f81b03811681146141e657600080fd5b801515811461101357600080fd5b80356141e6816145d1565b6000608082840312156145fc57600080fd5b6146046140ff565b905061460f826145ba565b8152602082013561461f816145d1565b60208201526040820135614632816141ba565b60408201526060820135614645816141ba565b606082015292915050565b600082601f83011261466157600080fd5b8135602061467161428f83614197565b82815260079290921b8401810191818101908684111561469057600080fd5b8286015b84811015614388576146a688826145ea565b835291830191608001614694565b61ffff8116811461101357600080fd5b80356141e6816146b4565b803560ff811681146141e657600080fd5b80356001600160e01b0319811681146141e657600080fd5b600060a0828403121561470a57600080fd5b6147126140bb565b905081356001600160401b0381111561472a57600080fd5b614736848285016141ff565b825250602082013560208201526040820135614751816141ba565b6040820152614762606083016146e0565b6060820152614773608083016146e0565b608082015292915050565b60008060006060848603121561479357600080fd5b8335925060208401356001600160401b03808211156147b157600080fd5b9085019061018082880312156147c657600080fd5b6147ce614121565b8235828111156147dd57600080fd5b6147e98982860161452d565b8252506020830135828111156147fe57600080fd5b61480a89828601614650565b60208301525060408301358281111561482257600080fd5b61482e898286016141ff565b60408301525060608301358281111561484657600080fd5b614852898286016141ff565b606083015250614864608084016141eb565b608082015261487560a084016146c4565b60a082015261488660c084016146cf565b60c082015261489760e084016145df565b60e08201526101006148aa8185016145df565b908201526101206148bc8482016145df565b908201526101406148ce8482016145df565b908201526101609283013592810192909252909250604085013590808211156148f657600080fd5b50614903868287016146f8565b9150509250925092565b60006020828403121561491f57600080fd5b8135611e7a816141ba565b6000806000806080858703121561494057600080fd5b84356001600160401b038082111561495757600080fd5b6149638883890161426e565b9550602087013591508082111561497957600080fd5b5061498687828801614393565b9350506040850135614997816141ba565b915060608501356149a7816141ba565b939692955090935050565b60005b838110156149cd5781810151838201526020016149b5565b838111156120915750506000910152565b600081518084526149f68160208601602086016149b2565b601f01601f19169290920160200192915050565b828152604060208201526000612aa860408301846149de565b60008060408385031215614a3657600080fd5b8235614a41816141ba565b915060208301356001600160401b03811115614a5c57600080fd5b614a68858286016141ff565b9150509250929050565b600080600060608486031215614a8757600080fd5b833592506020840135614a99816145d1565b929592945050506040919091013590565b60008083601f840112614abc57600080fd5b5081356001600160401b03811115614ad357600080fd5b6020830191508360208260071b85010111156111d757600080fd5b600080600080848603610140811215614b0657600080fd5b61010080821215614b1657600080fd5b614b1e614144565b91508635825260208701356020830152614b3a604088016146cf565b60408301526060870135614b4d816145d1565b6060830152614b5e608088016145df565b6080830152614b6f60a088016141eb565b60a083015260c0878101359083015260e080880135908301529094508501356001600160401b0380821115614ba357600080fd5b614baf88838901614aaa565b9095509350610120870135915080821115614bc957600080fd5b50614bd6878288016146f8565b91505092959194509250565b600080600060608486031215614bf757600080fd5b8335614c02816141ba565b95602085013595506040909401359392505050565b60006101008284031215614c2a57600080fd5b614c32614144565b90508135614c3f816141ba565b8082525060208201356020820152604082013560408201526060820135606082015260808201356080820152614c7760a083016146cf565b60a082015260c082013560c082015260e082013560e082015292915050565b60008060008060006101808688031215614caf57600080fd5b85356001600160401b0380821115614cc657600080fd5b614cd289838a0161426e565b9650614ce18960208a01614c17565b9550610120880135915080821115614cf857600080fd5b50614d0588828901614393565b935050610140860135614d17816141ba565b9150610160860135614d28816141ba565b809150509295509295909350565b6000806000806101608587031215614d4d57600080fd5b84356001600160401b0380821115614d6457600080fd5b614d708883890161426e565b9550614d7f8860208901614c17565b9450610120870135915080821115614d9657600080fd5b50614da387828801614393565b9250506101408501356149a7816141ba565b60008060208385031215614dc857600080fd5b82356001600160401b0380821115614ddf57600080fd5b818501915085601f830112614df357600080fd5b813581811115614e0257600080fd5b8660208260051b8501011115614e1757600080fd5b60209290920196919550909350505050565b6000602080830181845280855180835260408601915060408160051b870101925083870160005b82811015614e7e57603f19888603018452614e6c8583516149de565b94509285019290850190600101614e50565b5092979650505050505050565b600060208284031215614e9d57600080fd5b5035919050565b604081526000614eb760408301856149de565b905061ffff831660208301529392505050565b600060208284031215614edc57600080fd5b81356001600160401b03811115614ef257600080fd5b612aa88482850161426e565b60008060008060008060c08789031215614f1757600080fd5b86359550602087013594506040870135614f30816141ba565b9350606087013592506080870135614f47816141ba565b915060a08701356001600160401b03811115614f6257600080fd5b614f6e89828a016141ff565b9150509295509295509295565b8151815260208083015190820152604080830151908201526060808301519082015260808101612186565b600080600060608486031215614fbb57600080fd5b83359250602084013591506040840135614500816141ba565b600080600060608486031215614fe957600080fd5b833592506020840135614ffb816146b4565b915060408401356001600160401b0381111561501657600080fd5b614903868287016141ff565b60006020828403121561503457600080fd5b8151611e7a816141ba565b60006020828403121561505157600080fd5b8151611e7a816145d1565b634e487b7160e01b600052603260045260246000fd5b600082601f83011261508357600080fd5b8151602061509361428f83614197565b82815260059290921b840181019181810190868411156150b257600080fd5b8286015b848110156143885780518060060b81146150d05760008081fd5b83529183019183016150b6565b80516141e6816141ba565b600080600083850360c08112156150fe57600080fd5b608081121561510c57600080fd5b506151156140ff565b8451615120816141ba565b8152602085015162ffffff8116811461513857600080fd5b6020820152604085015165ffffffffffff8116811461515657600080fd5b60408201526060850151615169816146b4565b606082015260808501519093506001600160401b0381111561518a57600080fd5b61519686828701615072565b9250506151a560a085016150dd565b90509250925092565b600081518084526020808501945080840160005b838110156151f857815180516001600160801b0316885283015163ffffffff1683880152604090960195908201906001016151c2565b509495945050505050565b600081518084526020808501945080840160005b838110156151f857815180516001600160f81b03168852838101511515848901526040808201516001600160a01b03908116918a0191909152606091820151169088015260809096019590820190600101615217565b6000815160a0845261528260a08501826149de565b602084810151908601526040808501516001600160a01b0316908601526060808501516001600160e01b0319908116918701919091526080948501511693909401929092525090919050565b60018060a01b038416815260606020820152600083516101808060608501526152fb6101e08501836151ae565b91506020860151605f19808685030160808701526153198483615203565b935060408801519150808685030160a087015261533684836149de565b935060608801519150808685030160c08701525061535483826149de565b925050608086015161536e60e086018263ffffffff169052565b5060a08601516101006153868187018361ffff169052565b60c0880151915061012061539e8188018460ff169052565b60e089015192506101406153b58189018515159052565b918901519250610160916153cc8884018515159052565b898201518015158987015293508901518015156101a089015293506153ee9050565b8701516101c086015250508281036040840152612363818561526d565b6020808252602c908201527f46756e6374696f6e206d7573742062652063616c6c6564207468726f7567682060408201526b19195b1959d85d1958d85b1b60a21b606082015260800190565b6020808252602c908201527f46756e6374696f6e206d7573742062652063616c6c6564207468726f7567682060408201526b6163746976652070726f787960a01b606082015260800190565b600181811c908216806154b757607f821691505b6020821081036154d757634e487b7160e01b600052602260045260246000fd5b50919050565b6000608082840312156154ef57600080fd5b611e7a83836145ea565b602081526000611e7a602083018461526d565b8183526000602080850194508260005b858110156151f8576001600160f81b03615535836145ba565b16875282820135615545816145d1565b15158784015260408281013561555a816141ba565b6001600160a01b0390811691890191909152606090838201359061557d826141ba565b1690880152608096870196919091019060010161551c565b6000610140865183526020870151602084015260ff604088015116604084015260608701511515606084015260808701511515608084015260a08701516155e460a085018263ffffffff169052565b5060c087015160c084015260e087015160e084015261560c61010084018763ffffffff169052565b80610120840152615620818401858761550c565b979650505050505050565b60006020828403121561563d57600080fd5b5051919050565b6000808335601e1984360301811261565b57600080fd5b8301803591506001600160401b0382111561567557600080fd5b6020019150368190038213156111d757600080fd5b634e487b7160e01b600052601160045260246000fd5b6000600182016156b2576156b261568a565b5060010190565b83815261ffff83166020820152606060408201526000612c7d60608301846149de565b600082198211156156ef576156ef61568a565b500190565b602081526000611e7a60208301846149de565b6000828210156157195761571961568a565b500390565b6020808252602b908201527f496e697469616c697a61626c653a20636f6e7472616374206973206e6f74206960408201526a6e697469616c697a696e6760a81b606082015260800190565b6000825161577b8184602087016149b2565b9190910192915050565b600081600019048311821515161561579f5761579f61568a565b500290565b6001600160801b039490941684526001600160a01b0392831660208501529116604083015263ffffffff16606082015260800190565b868152602081018690526001600160a01b038581166040830152606082018590528316608082015260c060a0820181905260009061231b908301846149de565b6000806040838503121561582d57600080fd5b505080516020909101519092909150565b60008261585b57634e487b7160e01b600052601260045260246000fd5b500490565b600063ffffffff80831681851680830382111561587f5761587f61568a565b01949350505050565b6001600160801b038716815263ffffffff8681166020808401919091526001600160a01b0387166040840152908516606083015260c060808301528354600091908290600181811c90828116806158e057607f831692505b85831081036158fd57634e487b7160e01b85526022600452602485fd5b60c0880183905260e0880181801561591c576001811461592d57615958565b60ff19861682528782019650615958565b60008c81526020902060005b8681101561595257815484820152908501908901615939565b83019750505b50505050505083810360a085015261597081866149de565b9a9950505050505050505050565b63ffffffff871681526001600160a01b0386811660208301526101208201906159cb6040840188805182526020810151602083015260408101516040830152606081015160608301525050565b9490941660c082015260e081019290925261010090910152939250505056fe360894a13ba1a3210667c828492db98dca3e2076cc3735a920a3ca505d382bbc416464726573733a206c6f772d6c6576656c2064656c65676174652063616c6c206661696c6564a26469706673582212206896f673627e4f2400a36be20f9361734d2efe8e85aaefb5df1723f81ec4304f64736f6c634300080d0033",
  "linkReferences": {},
  "deployedLinkReferences": {}
}